:020000040800F2
:10000000F0FF0010A16105085DAC0108BD660108A4
:1000100041620508416205084162050800000000D0
:1000200000000000000000000000000069AC0108B2
:1000300065AC01080000000061AC010869490308D3
:1000400041620508416205084162050841620508F0
:1000500041620508416205084162050841620508E0
:10006000416205084162050841620508250B010847
:10007000150B0108050B0108F50A0108E10A010842
:10008000CD0A0108B90A0108416205084162050864
:1000900041620508416205084162050841620508A0
:1000A000AD7F0108813A0308DD7E01085D3B03084E
:1000B000C13903080139030835380308BD130108A5
:1000C000C5130108B1130108B913010841620508FD
:1000D00041620508E5490308D9490308CD490308E9
:1000E00041620508416205084DFA01080D7E0108CC
:1000F0007D8001083D7D0108D9350308A50A010866
:100100004162050841620508653703084162050838
:10011000C1490308B54903085DD70308E5D50308BD
:10012000910A01087D0A0108690A0108550A0108B7
:10013000410A01084162050841620508416205085B
:1001400041620508416205084162050825C70108AA
:100150002D0A0108190A0108050A0108A94903081E
:10016000A5130108AD1301084162050841620508A5
:1001700041620508416205084162050841620508BF
:08018000416205084162050817
:08018800485D050001000000C4
:1001900010020100E4210020E02100200000000006
:1001A000BC0700081F021000F8210020E8210020F1
:1001B00000000000758500081A023C00CC430020B6
:1001C0006845002000000000A591000827000400F9
:1001D000A8420020A445002000000000BE0700083F
:1001E00038100100CC410020A8450020000000008C
:1001F000C2070008140003009C5F00200860002074
:1002000000000000C40700080B301A00A84F0020AF
:100210000C60002000000000C80700081F30240008
:10022000C44F00202860002000000000E407000800
:1002300005020400305B00204C600020000000003C
:100240000808000803010A00045000205060002044
:10025000000000000C08000813020400DC4D002020
:100260005C600020000000001608000820320A0030
:10027000A87B00209C7B00200000000055040208A1
:100280001C02100068760020B47B002000000000F3
:10029000B183000828101000DC7A0020C47B002005
:1002A00000000000D104020804120200347B002088
:1002B000D47B0020000000001A0800080F02010093
:1002C000307B0020D87B0020000000001C080008C4
:1002D00001200C0040730020DC7B002000000000A7
:1002E0001E0800080A7028009C720020E87B00208D
:1002F00000000000750402080EA05C01407100209F
:10030000107C0020000000001D030408010104000F
:10031000A07000206C7D00200000000000000000A4
:100320000001040098700020707D00200000000093
:100330002A0800080201030094700020747D002048
:100340000000000055B6040822021401D0970020D6
:10035000209A002000000000F59300080C109C007B
:10036000F4870020349B00200000000029B6040818
:1003700001020500D8870020D09B0020000000006B
:1003800009A2020800020500D0870020D89B0020A7
:1003900000000000000000001B021000A4870020E5
:1003A000E09B002000000000DD8300081E00060026
:1003B000FC840020F09B00200000000030080008B2
:1003C0001B100C0000800020F89B002000000000A3
:1003D00051B702082102F000807E0020049C00201A
:1003E00000000000C5A4020823121000608A00204B
:1003F000F49C0020000000003808000805100600EA
:10040000588A0020049D00200000000048080008D1
:10041000371028002C8700200C9D002000000000D1
:100420004E0800080E020200548A0020349D00206D
:10043000000000007608000816100600747E0020F8
:10044000389D002000000000780800082F102200CE
:10045000FC990020409D0020000000007E0800085C
:1004600023100E004C840020649D0020000000003A
:10047000EB040208F5518C00AC7D0020749D002037
:1004800000000000C9F2020826100C000C9E00209B
:10049000009E002000000000519702080A020A0096
:1004A000B4A6002008A9002000000000E98C030881
:1004B0000300010088A1002014A900200000000012
:1004C0000000000003123D00C8A8002018A9002069
:1004D00000000000A008000825102C01E8A600205C
:1004E00058A90020000000000000000010100200C9
:1004F00054A1002084AA002000000000DE080008AB
:100500001900050050B1002068B200200000000072
:10051000E00800081A000E00DCB0002070B20020D5
:1005200000000000E6080008F8210600B0AF002037
:1005300080B2002000000000F408000815007000E0
:1005400028AE002088B2002000000000000000005B
:100550002A006000B4B10020F8B2002000000000C2
:10056000F50204082C00100068B3002058B30020E6
:1005700000000000ED0104082B0024009CB30020C3
:1005800078B3002000000000BD0104082920780095
:1005900014AC0020C0B300200000000000000000E8
:1005A0000702020000B6002058B60020000000003C
:1005B000FC080008F6210C00FCB400205CB600200A
:1005C000000000000009000802000C000CB500202B
:1005D00068B60020000000000000000006020C00C9
:1005E000D8B5002074B60020000000004192000839
:1005F00008120F0028B5002080B60020000000007F
:1006000005850008F701060020B5002090B60020FF
:10061000000000000C0900081D0202001CB50020AB
:1006200098B600200000000012090008090201002D
:100630001CEF002030F0002000000000140900082A
:10064000040080009CEE002034F000200000000038
:1006500000000000130004007CEE0020B4F0002035
:100660000000000018090008FD01240058EE0020D9
:10067000B8F0002000000000E10E030818202E0052
:1006800024EE0020DCF0002000000000559300085C
:1006900006101A0044D900200CF1002000000000D0
:1006A00035050408FB01010040D9002028F1002095
:1006B00000000000C9930008FC0109000CD80020CC
:1006C0002CF1002000000000D993000816023F0022
:1006D000CCD7002038F1002000000000258400085D
:1006E00034001000FCD6002078F10020000000004B
:1006F0000905040811020800D4D6002088F1002062
:10070000000000001C09000812120400CCD60020D2
:1007100090F10020000000002409000812201000C1
:10072000BCD6002094F10020000000002809000839
:100730000D004C0020D30020A4F100200000000098
:10074000E1170108F9010400E4D20020F0F10020D3
:1007500000000000590F0308FA010200CCCC002071
:10076000F4F100200000000095860008020203005A
:10077000C0B60020F8F100200000000000000000DA
:100780000C020400ACB60020FCF1002000000000C8
:100790005D85000811000C0055C1002000F200200A
:1007A0000000000061150108FE01140030C10020A6
:0C07B0000CF2002000000000F1830008A3
:1007BC00000020030000000003000000AE014A010D
:1007CC005E012C0164010300000001000A019A0182
:1007DC00001E0A00000000000000000000010000E4
:1007EC0000050000010203000000000000000000F2
:1007FC000000000000000000008007000000000066
:10080C00040101006C160000000000000100000053
:10081C000000E8036400040A000114001E009001AB
:10082C0000000000000001000000000000000000BB
:10083C00000000000000000000000000200001018A
:10084C00000020003200C800D007960014003200CF
:10085C002800B00440060005500014000F000800EA
:10086C0064000100010005000A000000C40900003A
:10087C001900000000000000000000000000000053
:10088C00000000000000000000000000000000005C
:10089C00000000000000000000000000000000004C
:1008AC00000000000000000000000000000000003C
:1008BC00000000000000000000000000000000002C
:1008CC00000000000000000000000000000000001C
:1008DC00010000050000280100007E05EA05B405B2
:1008EC003200E803D00700000401F40114000000FA
:1008FC00023C0000000000000100000002020000A9
:10090C0000010000000000001800000048004438FE
:10091C000000000001010101FFFFFFFF00000001CA
:0C092C000000054147583400000800009E
:100938001A03000000000000000000000000000092
:10094800000000000000000000000000040309048B
:100958001201000200000040830420570002010237
:1009680003010000E5CF0008F1850008ED850008C7
:10097800E98500083D940008E5850008E185000840
:10098800847C0508FDAD0108E18F01083DB9010827
:10099800000000000000000041B601085DB5010834
:1009A800000000000000000000000000198B010892
:1009B800898600087D860008E1990008FD990008ED
:1009C80035860008C5990008A99900080068214CD7
:1009D8001F0000001C0000001F0000001E00000097
:1009E8001F0000001E0000001F0000001F00000084
:1009F8001E0000001F0000001E0000001F00000075
:100A0800FF01FF00000004010000000000000002D8
:100A180010000000070000000000000000000000B7
:100A2800010203040607080901000000A00F0000E6
:100A3800B80B00000102FFFF01000000685E0C0017
:100A48003991010825900108D9BB01080000000070
:100A5800A18B010891B70108758F010809B7010832
:100A680000000000000000005D8B0108F18A010809
:100A7800E58A01080DAD010829AD0108F1AC0108AE
:100A8800D5AC0108B9AC0108F19001080190010842
:100A980019BB010800000000758B01080DB701089B
:100AA800498F010869B60108000000000000000035
:100AB800698B01080403090412010002EF020140D6
:100AC80083045632000201020301000012010002F1
:100AD80002020040830440570002010203010000A3
:100AE80009022000010104C03209040000020806BE
:100AF800500507058102400000070501024000007B
:100B080009026400030100C0320904000001030067
:100B180000000921110100012226000705830308AE
:100B2800000A080B01020202010009040100010287
:100B3800020100052400100105240100020424021A
:100B4800020524060102070582030800FF090402C2
:100B580000020A00000007050102400000070581A5
:100B68000240000009024300020100C032090400EB
:100B78000001020201000524001001052401000102
:100B8800042402020524060001070582030800FF69
:100B980009040100020A00000007050102400000E4
:100BA8000705810240000000FF000000B88D05081D
:100BB800000000000000000000000000000000002D
:100BC800000000000000000000000000000000001D
:100BD8000000000000FFFF0000000000AA5505010A
:100BE800000001008C8D05080000000000000000D6
:100BF80000000000000000000000000000000000ED
:100C0800000000000000000000000000FF1FFF1FA0
:100C180005010905A101A1000501093009310932C1
:100C2800093309350934094009381581257F7508C4
:100C380095088102C0C0000009022200010100E0FD
:100C48003209040000010301020009211101000119
:100C58002226000705830308000A000000000000A0
:100C6800010203040102030406070809A1B80108E8
:100C7800A5B70108FDBB0108DD8B010855910108E6
:100C8800ED8B0108098C0108B58B0108A58B0108BB
:100C980000000000000000002D202D2D202D2D2DFE
:100CA8002D202D2D2D2D000000000000000000003B
:100CB80000000000000000AA550B010000AA55071B
:100CC800010000AA550902000000AA5503009F0070
:100CD80001000000C0120000DC5F002000000000DE
:100CE8000060002000000000FFFFFFFF010000007F
:100CF800C5FA010800000000E08E050820700020F9
:100D0800702D7200FFFFFFFF0101010000010101CA
:100D180000D60100B80B00002D202D2D202D2D2DE3
:100D28002D202D2D2D0000000000000000000000E7
:100D380000000000000000000000000000000000AB
:100D48005CA505080000000000000000E8A50508F3
:100D580001000000FA00000001000000010000008E
:100D6800010100003E7300200000F40101000000B2
:100D78003C7300200000F401010000003A730020D9
:100D88000000F40101000000387300200000F401A5
:100D980001000000367300200000F401010000008B
:100DA800347300200000F4010100000032730020B9
:100DB8000000F40101000000DD020208A10202089F
:100DC8005C9305082C730020053201002A7300206B
:100DD800E803D0070100000028730020E803D007CB
:100DE8000100000026730020E803D007010000007E
:100DF800247300201E00B80B01000000227300209D
:100E08001E00F4010100000020730020140064009B
:100E1800010000002E7300203200E80301000000EA
:100E28001E7300200000C80001000000F2720020BC
:100E380000C80100F172002000500100F07200208B
:100E4800005A0100EE72002002000000E893050835
:100E580068090608700906081AF000200100C4098C
:100E68000000000018F000200100C4090000000084
:100E780016F000200100C4090000000014F0002052
:100E88000100C4090000000010F000200100C4099E
:100E98000000000012F000200100C409000000005A
:100EA8000EF000200100C409000000000CF0002032
:100EB8000100C40900000000B970002000C801004A
:100EC800B870002000C80100B67000200100C800FA
:100ED80001000000B47000203200307532000000BC
:100EE800B2700020055A0500AF70002000FF010015
:100EF800B170002001000000A8060020AD7000209D
:100F080003000000F4AB0508AE70002000FF0100EC
:100F1800B070002001000000A8060020AC7000207E
:100F280003000000F4AB05085102020801020208A0
:100F3800F493050850730020EE02CA08010000006F
:100F48004E73002000C80100640000004D730020AB
:100F580000C80100640000004C730020020000007B
:100F6800B8940508A670002080C1803E05000000E6
:100F7800A470002080C1803E050000009E70002003
:100F880080C1803E050000009C70002080C1803E2A
:100F9800050000009770002000FF010090700020FD
:100FA8006400F401010000008F70002004000000BC
:100FB800C49405088E70002002000000D89405082B
:100FC8002F7100200D000000E49405082C7100200A
:100FD800006401002A710020320010270A00000076
:100FE800297100200D000000E494050828710020F4
:100FF8000D000000E494050827710020020000009D
:101008001C95050800000000000000002895050850
:10101800E85A00209CFF2C0100000000AC7500205D
:10102800E0150C1700000000AE750020020000005B
:10103800609505085C7300200100FF7F0100000037
:101048005B730020020000006C95050831710020D8
:10105800030000007C9505083071002003000000A3
:101068007C950508D07200200000E803010000000C
:10107800CE7200200000E80301000000CC720020BE
:101088000000E80301000000CA7200200000E80325
:1010980001000000C87200200000E8030100000001
:1010A800C67200200000E80301000000C57200209D
:1010B80000140100C4720020030000008C9505088C
:1010C800DC7200200000F40101000000DA72002048
:1010D8000000F40101000000D87200200000F401B3
:1010E80001000000D67200200000F4010100000099
:1010F800D47200200000803E01000000D27200205F
:101108000000803E01000000057300201964010002
:1011180004730020020000009C950508027300205B
:10112800E803D0070A0000000073002000640100F3
:101138000A000000F572002000640100F47200202B
:1011480000640100FC720020006401000A00000035
:10115800FB720020006401000A000000FA720020FF
:10116800006401000A000000FF7200200064010012
:101178000A000000FE720020006401000A0000005E
:10118800FD720020006401000A000000F9720020CE
:1011980001FF01000A000000F872002001FF0100B1
:1011A8000A000000F772002001FF01000A00000099
:1011B8003A7100200000F40101000000387100209D
:1011C8000000F40101000000367100200000F40165
:1011D80001000000347100200000F401010000004B
:1011E800327100200000F40101000000ED720020BF
:1011F80000640100EC72002000640100EB72002022
:1012080000640100EA720020FF080100E972002072
:1012180001640100CD00020891000208A8950508A4
:10122800E872002000640100E67200201400E80360
:1012380001000000E4720020E80330750A00000095
:10124800E272002000C80100E172002000C801001D
:10125800E072002000C80100DF7200200064010075
:101268000A0000001C7300200000D00701000000E5
:101278001773002000C801001673002000C8010081
:101288001573002000C801001A7300200000D00761
:10129800010000001473002000C80100137300202F
:1012A80000C801001273002000C801001873002054
:1012B8000000D007010000001173002000C80100E1
:1012C8001073002000C801000F73002000C801003F
:1012D8000000000001FE010818960508257100208D
:1012E80035000000B49605082471002000C80100EC
:1012F80022710020E803D00701000000414733585D
:1013080046340000AB70002000030100AA700020E2
:10131800000301004DFD010811FD01088C97050827
:10132800CDFC010881FC0108FC97050889FD01082E
:10133800791402087C980508A870002001030100B0
:101348004503020819030208709B050811FC0108EF
:10135800D1FB0108E09B050817FE0108413002088F
:101368007C9C05086D10020800000000249D0508FB
:1013780001180208A5030208C09D050869FE0108B6
:1013880000000000409E050841FF0108EDFE01082D
:10139800A49E0508D1FF010895FF0108409F050894
:1013A8000901020851010208C09F0508F3720020D4
:1013B80001060100B1FE01087DFE0108BCA0050878
:1013C8000D000208DD1402082CA105088501020899
:1013D800651502080CA20508DE7200200103010051
:1013E800D1FD0108A1FD0108E0A20508710302086A
:1013F8000000000044A3050851FC01084914020834
:10140800A8A30508000000000000000034A4050897
:10141800D9010208DD150208B4A405088A70002065
:1014280088136F17010000008C70002088136F1755
:1014380000000000665000200000000000000000CE
:1014480064500020000000000000000062500020EE
:1014580000000000000000006050002000000000B4
:10146800000000005E5000200000000000000000A6
:101478005C50002000000000000000002C05002047
:101488000000000000000000607000200200000062
:101498003CA605088870002088136F17010000001B
:1014A800285B002088136F170000000065FB010807
:1014B8000000000048A60508DE75002001000000B5
:1014C8009CA605082A5B002001000000A8A60508C4
:1014D800205B002002000000B0A605080000000004
:1014E80000000000BCA6050851FB01080000000030
:1014F80058A705080000000000000000ACA7050878
:1015080000000000000000001CA80508245B002063
:10151800E0150C17000000000100000000000100A9
:10152800E0010000FFFFFFFF0801FFFFFF000000D0
:10153800FFFF0000FFFFFFFF086206080000080227
:1015480005030300106206080100080205040300F1
:10155800C46A06080200FE0101100300880D06088F
:1015680003001402000300001862060804001F02AA
:10157800010008002062060805001F02010108009A
:101588000000803F00000000000000000000000094
:10159800FFFFFFFFFF0000007D000000FFFFFFFFCF
:1015A8000000803F00000000000000000000000074
:1015B8000000803F00000000000000000000000064
:1015C8000000000000000000000000000000000013
:1015D80000000000000000000000803F0000000044
:1015E8000000000000000000010000000000803F33
:1015F8000000000048B600200800000000000000BD
:1016080038B6002008000000B01E06088C6C0608DA
:10161800986C0608A46C0608B06C0608BC6C060832
:101628000C190608AC390608903806084C6C0608F0
:101638001C6606087C6C0608806C0608846C060824
:10164800886C0608BC1E0608C86C0608CC6C060820
:10165800E0360608D06C06081900C800F40120031B
:1016680008000000E18A0108DD8A0108D98A01081A
:10167800CD8A0108C98A0108D58A0108D18A0108DA
:101688000000400003000004010000000060024068
:10169800106002400000000000000000000B000085
:1016A8000000000000000000000000000060024090
:1016B800286002400100000000000000060C000045
:1016C8000000000000000000000000000060024070
:1016D800406002400200000000000000100D000001
:1016E8000000000000000000000000000060024050
:1016F800586002400300000000000000160E0000C1
:10170800000000000000000000000000006002402F
:10171800706002400400000000000000200F00007C
:10172800000000000000000000000000006002400F
:10173800886002400500000000000000261000003C
:1017480000000000000000000000000000600240EF
:10175800A0600240060000000000000030110000F8
:1017680000000000000000000000000000600240CF
:10177800B86002400700000000000000362F00009B
:1017880000000000000000000000000000640240AB
:101798001064024000000000000000000038000053
:1017A800000000000000000000000000006402408B
:1017B8002864024001000000000000000639000013
:1017C800000000000000000000000000006402406B
:1017D800406402400200000000000000103A0000CF
:1017E800000000000000000000000000006402404B
:1017F800586402400300000000000000163B00008F
:10180800000000000000000000000000006402402A
:10181800706402400400000000000000203C00004A
:10182800000000000000000000000000006402400A
:101838008864024005000000000000002644000003
:1018480000000000000000000000000000640240EA
:10185800A0640240060000000000000030450000BF
:1018680000000000000000000000000000640240CA
:10187800B86402400700000000000000364600007F
:10188800000000000000000000000000A46206083C
:10189800982106080000000069B60408A086010027
:1018A800040000000000000000000000000000002C
:1018B8000000000000000000000000000000000020
:1018C800000000000000000000000000A4620608FC
:1018D800E46C060800000000D9150108E8030000C0
:1018E80004000000000000000000000000000000EC
:1018F80000000000000000000000000000000000E0
:10190800000000000000000000000000BC100608F5
:101918005C37060800000000F99403087D00000009
:1019280006000000000000000000000000000000A9
:10193800000000000000000000000000000000009F
:10194800000000000000000000000000F46106082C
:1019580000000000000000001D740108E8030000FA
:10196800030000000000000000000000000000006C
:10197800000000000000000000000000000000005F
:10198800000000000000000000000000EC6C0608E9
:1019980000000000000000002D8604081027000049
:1019A800030000000000000000000000000000002C
:1019B800000000000000000000000000000000001F
:1019C800000000000000000000000000146206088B
:1019D80000000000790D0208215701085F76000019
:1019E80005000000000000000000000000000000EA
:1019F80000000000000000000000000000000000DF
:101A0800000000000000000000000000B0640608AC
:101A180000000000000000005D81010810270000A0
:101A280001000000000000000000000000000000AD
:101A3800000000000000000000000000000000009E
:101A4800000000000000000000000000F86C06081C
:101A58000000000000000000DB150108E80300009A
:101A68000500000000000000000000000000000069
:101A7800000000000000000000000000000000005E
:101A8800000000000000000000000000046D0608CF
:101A980000000000000000001DBE0408204E0000E9
:101AA800030000000000000000000000000000002B
:101AB800000000000000000000000000000000001E
:101AC800000000000000000000000000146D06087F
:101AD800000000000000000021BC0408204E0000A7
:101AE80003000000000000000000000000000000EB
:101AF80000000000000000000000000000000000DE
:101B0800000000000000000000000000246D06082E
:101B18000000000000000000B5670108400D030048
:101B280003000000000000000000000000000000AA
:101B3800000000000000000000000000000000009D
:101B480000000000000000000000000064630608B8
:101B58000000000000000000995401081027000050
:101B6800010000000000000000000000000000006C
:101B7800000000000000000000000000000000005D
:101B8800000000000000000000000000D01E060851
:101B98000000000000000000B1C202081027000089
:101BA800030000000000000000000000000000002A
:101BB800000000000000000000000000000000001D
:101BC800000000000000000000000000346D06085E
:101BD800000000000000000079860208A0860100CD
:101BE80001000000000000000000000000000000EC
:101BF80000000000000000000000000000000000DD
:101C0800000000000000000000000000F861060865
:101C18000000000000000000AD39010850C30000BA
:101C280001000000000000000000000000000000AB
:101C3800000000000000000000000000000000009C
:101C48000000000000000000000000003C0D060835
:101C5800000000000000000041970208A086010073
:101C6800000000000000000000000000000000006C
:101C7800000000000000000000000000000000005C
:101C8800000000000000000000000000740C0608BE
:101C98000000000000000000B1360108A861000043
:101CA800010000000000000000000000000000002B
:101CB800000000000000000000000000000000001C
:101CC8000000000000000000000000003C6D060855
:101CD800000000000000000021040308A0860100A5
:101CE80001000000000000000000000000000000EB
:101CF80000000000000000000000000000000000DC
:101D0800000000000000000000000000B8640608A1
:101D1800000000000000000065180108A00F000086
:101D280001000000000000000000000000000000AA
:101D3800000000000000000000000000000000009B
:101D4800000000000000000000000000486D0608C8
:101D58000000000000000000C9F30208102700007E
:101D6800010000000000000000000000000000006A
:101D7800000000000000000000000000000000005B
:101D88000000000000000000000000008C6306084E
:101D9800000000000000000099140108A00F0000D6
:101DA800010000000000000000000000000000002A
:101DB800000000000000000000000000000000001B
:101DC8000000000000000000000000000C180608D9
:101DD800000000000000000055EC02081A41000055
:101DE80001000000000000000000000000000000EA
:101DF80000000000000000000000000000000000DB
:101E0800000000000000000000000000340C06087C
:101E180000000000000000000D94010810270000D9
:101E280001000000000000000000000000000000A9
:101E3800000000000000000000000000000000009A
:101E4800000000000000000000000000AC210608AF
:101E58000000000000000000C93702081A41000015
:101E68000100000000000000000000000000000069
:101E7800000000000000000000000000000000005A
:101E8800000000000000000000000000546D06087B
:101E98000000000000000000759A0108400D0300D2
:101EA800000000000000000000000000000000002A
:101EB800000000000000000000000000000000001A
:101EC8000000000000000000000000005C6D060833
:101ED800000000000000000097150108400D0300F5
:101EE80000000000000000000000000000000000EA
:101EF80000000000000000000000000000000000DA
:101F0800000000000000000000000000646D0608EA
:101F1800000000000000000045FE020850C3000059
:101F280003000000000000000000000000000000A6
:101F38000000000000000000000000000000000099
:101F4800000000000000000000000000706D06089E
:101F5800000000000000000095BB040840420F008C
:101F68000000000000000000000000000000000069
:101F78000000000000000000000000000000000059
:101F88000000000000000000000000007C6D060852
:101F980000000000000000003D18010850C30000C8
:101FA8000000000000000000000000000000000029
:101FB8000000000000000000000000000000000019
:101FC8000000000000000000000000000000803F4A
:1080000003685A1C02601970704700BF2DE9F047E1
:10801000089C2578002B804689460CBF4FF0200A2B
:108020004FF0300A661C25B3002A26DD334601E0F6
:10803000024698B113F8011B501E0029F8D1971E73
:1080400060B13D46013D51464046C8476B1C002B80
:10805000F8DC257827EAE770013045B1041B294692
:108060004046C847301916F8015B002DF7D1BDE82E
:10807000F087002A03DC2846F9E70020EEE7571EC8
:10808000DFE700BF2DE9F04714461D4606464FF4D2
:108090007A720023204629464DF0B6FE4D4BDFF89C
:1080A00048814D4A4D4F034488FB03101844D917AB
:1080B00082FB032CC1EB601088FB002887FB0327A1
:1080C0009C44474AC1EBEC2CC0EB001E82FB0C2900
:1080D000A3EB8E0E1F44434A86F806E0C1EB274708
:1080E0004FEAEC7E08EB000ACEEBA90E82FB07827A
:1080F0004FEAE0780EEB4E0EC8EB6A18ACEBCE0CF4
:10810000C8EB0818DFF8E4E086F804C0A0EB8800AC
:1081100070718EFB0303F817C0EBE21240F2B5500A
:1081200000FB1272C1EBE353B2F5896F4FEA83078C
:108130003CDA40F2DA239A4242DCB2F5B77FB4BFB0
:108140004FF0000E4FF0010E4FEA4E09DFF8A0800D
:1081500009EB0E0308EBC3031FFA8EFCD88A09EB68
:108160000E0108EBC10116310B2301E031F8020DBD
:10817000904218DD013BF9D1CE44012338F83E008E
:10818000B37007F5FA670132121ABC44F270A6F810
:1081900000C0204629464FF47A7200234DF034FE89
:1081A0003281BDE8F0870133DBB2E9E74FF0030C21
:1081B000E64640F29650DFF838804FF00609CEE7E9
:1081C0004FF0020CDFF82880E64640F229404FF0DD
:1081D0000409C4E780BC92C7C5B3A29107452EC26B
:1081E000ABAAAA2A73B06D1689888888792D0311E5
:1081F000387A05080028F0B403DA2D230B704042CA
:108200000131092804464FF0010307DD03EB830326
:108210005B00B0FBF3F2092AF8D883B10F48A0FB4A
:108220000326B4FBF3F2092A02F1570C02F13007DE
:1082300009DD03FB1244F30801F801CBEFD1002361
:108240000B70F0BC704703FB1244F30801F8017B8C
:10825000E5D100230B70F0BC704700BFCDCCCCCC77
:10826000884270B44FF0010442D301FB04F4B0FB28
:10827000F4F58D42F9D2ECB142BB092D04FB150097
:1082800005F1570605F130020EDDB4FBF1F403F8F9
:10829000016B7CB1B0FBF4F5092D04FB150005F171
:1082A000570605F13002F0DCB4FBF1F403F8012BC2
:1082B000002CEFD100221A7070BC704703F8016BDC
:1082C000B4FBF1F4002CF5D0B0FBF4F5092D04FB60
:1082D000150005F1370605F13002EFDCB4FBF1F4CF
:1082E00003F8012B002CEFD100221A7070BC7047EC
:1082F0000546002AEAD1C0E790ED057A90ED004AE4
:10830000D0ED066AD0ED014AD0ED047A90ED035A23
:10831000D0ED025AA4EE007AB0EE406AB0EE470A01
:10832000B0EE667AA4EE867A67EEC07AA5EE407A61
:10833000E5EE867A80ED057AC0ED067A704700BFDB
:10834000D0ED057A90ED013AD0ED003AD0ED064A35
:1083500090ED024A90ED077A90ED035A90ED086A8D
:10836000D0ED045AC0ED067AF0EE406A27EE830A9B
:10837000C0ED056AA3EEA60A80ED087AA4EE240AF1
:10838000A5EE470AA5EEC60A80ED070A704700BFB2
:10839000D0ED007A90ED017A30EE670AE7EE007AD0
:1083A000B0EE670AC0ED007A704700BF704700BFAB
:1083B00030B414210022022401233F25C17005217D
:1083C000C57244704472027082718273837003724A
:1083D0008372C171C17330BC704700BF0023062196
:1083E0004FF47A720170C0E901230373704700BF34
:1083F00030B430211023312234254FF601744170FE
:10840000C371FF21012342710022C570048281746F
:108410000372037083710371837042818281C28110
:1084200030BC70472DE9F04F3149324B83B001F534
:10843000F07B019018274FF000092F4810220126E9
:1084400003E0203098420BD002799742F9D10268BC
:108450000C68A24209D02030984206F10106F3D1FF
:10846000203159453AD00F79E7E744794D79A54253
:10847000F1D19446019A214809EB490502EB050A1E
:1084800057558AF8016000F572751D4E624603E08B
:10849000A8421AD050F82C6FB242F9D10679A64200
:1084A000F6D1CF6806464FF0000C96468046F2683B
:1084B000BA4216D00CF1010CBCF1030F06F10C0608
:1084C000F5D14046A8427246E4D14FF0FF3C20313E
:1084D00059458AF802C009F10109C4D103B0BDE8C9
:1084E000F08F086932698242E4D14FFA8CFCEEE7E2
:1084F000B8D8050898ED0508D8E3050898ED0508F3
:1085000000000140144BFF22F0B54FF0FF34C27061
:108510000271027242724273827303F10C0EA4461E
:10852000172716261525002202EB820281189E4588
:1085300085544E708F7081F803C00C710AD093F986
:108540000620DD791E7A5F7A93F90AC093F90B4011
:108550000633E9E7F0BD00BF987A050810B41F2183
:10856000012403220023047041708270C3705DF8FF
:10857000044B704770B4034600F11001FF221A70DB
:108580005A7002338B42FAD10B4B4FF0FF3103F19B
:108590000F060C46002205E093F9044093F90510FC
:1085A00013F8032F00F8124000EB42059E42697059
:1085B000F2D170BC704700BFAC7A050830B41D69B9
:1085C00095420AD314460A4621448D42996938BF20
:1085D0002A1B214430BC4DF0B5BE30BC704700BFF3
:1085E000002070470120704701207047002070472D
:1085F0004FF40070024B10609B680B6000207047C6
:10860000E8D20020013A30B4D2B28C1C04EB420410
:108610000025020F092AD3B203F130028ABF373393
:108620000A700B704D7002318C424FEA0010F0D18D
:1086300030BC70470B4A0C4B10681B681A22C018DC
:108640000A8001D10948704710B5094B09491C68D7
:108650000822FFF7D7FF204604220749FFF7D2FF81
:10866000024810BDE8F7FF1FECF7FF1F880100204C
:10867000EAF7FF1F8A0100209A01002004230B80E3
:1086800000487047A401002012230B800048704767
:10869000A80100202C22022302704370704700BF03
:1086A00008307047704700BF816170472DE9F04F77
:1086B000DFF8DCC1754CDCF800502288B4F90AA060
:1086C000C2EB25135200C2EBE502B4F902505B4342
:1086D0006A43B4F904501B135D43AD1305EBE22567
:1086E000B5F5FA324FEAE57B85B04BF1FF33CDE9C2
:1086F0000023DDE900325343009AA561A2FB028901
:10870000CDE90201B4F908200199009809EB430969
:108710005143D31700FB0311A2FB00230B444FEA84
:10872000EA7B0AFB09F11F0308FB0B13AAFB0801F4
:1087300019444FEA102A4AEA016A16034FEA212B2C
:1087400047EA12571AEB0602E6884BEB070312F1D1
:10875000000A43F5004BAAFB060106FB0B114A1069
:10876000CB1752EA030100F08E80B4F91060009834
:1087700006FB09F1F71708FB0711A6FB0867394448
:10878000B4F90E808B4601994FEAE87908FB01F1B4
:1087900000FB0911A8FB00898944DCF804104FEAAA
:1087A0004947C1F5801C47EAD837B2464FEA4846E8
:1087B000B4F90C801AEB060A66464BEB070BF71769
:1087C0004FEAC806019600260096F907DDE9006722
:1087D0004FEACC7016EB0A0647EB0B0741EA5C0147
:1087E000801B61EB070140F6354C8946A0FB0C016C
:1087F0000CFB09114DF008FBB4F91620B4F914A0D4
:108800004E13470B47EAC14702FB06FCD31707FB91
:1088100003CCA2FB07236344564307FB0366A2FB7A
:1088200007233344560E46EAC31632184FEA6367ED
:1088300047EB010380460AFB01F14FEAEA7B08FBA4
:108840000B17AAFB08013944C60C46EA413612EB65
:1088500006084FEAE147B4F9122043EB07094FEA53
:10886000182141EA096113010B44029A0AB11B0A5B
:108870001360039B23B105EB850580352D121D6028
:1088800005B0BDE8F08F0023EFE700BF147B0020A8
:1088900028180020704770474FF400630383704727
:1088A0004FF40063038370474FF400630383704702
:1088B000F0B4037C456902681F2B37D9203B202187
:1088C000546899400C4223D010249C40D160D4605D
:1088D0005168D940CE074ED4EFF31183502282F372
:1088E0001288EA6B1168C90709D45468002C52D168
:1088F000D5E909618E4243D1012285F86020DBB2BF
:1089000083F31188037C02681F2B194614D9203B7E
:10891000082150689940084200D0D1600421506875
:1089200001FA03F3184223D1F0BC704720241668E3
:108930009C4026420FD11946082310688B401842EC
:1089400000D093600423106803FA01F10842EBD0D1
:108950009160F0BC7047102199409460916011685B
:10896000D940CC07B8D5012101FA03F39360B3E7EE
:10897000D360F0BC7047012101FA03F3D360ABE789
:10898000AF690F44D7600ED82E69711A5160AC627E
:10899000002185F86010116841F00101DBB211601F
:1089A00083F31188AEE7711A5160AE62F0E700BF41
:1089B000F0B4B34BB3491A780B789A4240F0078170
:1089C000B14B1A78002A68D0B04B1978B04B002907
:1089D00065D11868B3F8305141628489012A44EAAC
:1089E00005048481A3F8301157D0D3F83401B3F8CB
:1089F000645241628489022A44EA05048481A3F80E
:108A000064124AD0D3F86802B3F89853416284895B
:108A1000032A44EA05048481A3F898133DD0D3F8CF
:108A20009C03B3F8CC5441628489042A44EA0504C7
:108A30008481A3F8CC1430D0D3F8D004B3F8005616
:108A400041628489052A44EA05048481A3F800165A
:108A500023D0D3F80406B3F8345741628489062A38
:108A600044EA05048481A3F8341716D0D3F83807F4
:108A7000B3F8685841628489072A44EA050484816E
:108A8000A3F8681809D0D3F86C28B3F89C49516250
:108A9000908920439081A3F89C19F0BC70475C68D2
:108AA000198961602568186845F0010540F20D31AB
:108AB0002560A0F848108489012A44F480748481D8
:108AC000EBD0D3F83841B3F83C51D3F834016560AA
:108AD000256845F001052560A0F848108489022A20
:108AE00044F480748481D8D0D3F86C42B3F87052C7
:108AF000D3F868026560256845F001052560A0F897
:108B000048108489032A44F480748481C5D0D3F842
:108B1000A043B3F8A453D3F89C036560256845F0DF
:108B200001052560A0F848108489042A44F4807463
:108B30008481B2D0D3F8D444B3F8D854D3F8D00455
:108B40006560256845F001052560A0F84810848916
:108B5000052A44F4807484819FD0D3F80846B3F882
:108B60000C56D3F804066560256845F001052560BC
:108B7000A0F848108489062A44F4807484818CD03B
:108B8000D3F83C47B3F84057D3F8380765602568F9
:108B900045F001052560A0F848108489072A44F4AF
:108BA000807484813FF479AFD3F87028B3F87408E7
:108BB000D3F86C385060106840F001001060A3F8E2
:108BC00048109A8942F480729A81F0BC70475C0028
:108BD000E618304D15F83660032E3FF6F1AEDFE8AB
:108BE00006F05D261C02E01805EBC0004468661E16
:108BF000012C46603FF651AF013303F00303D8B2B6
:108C0000824208703FF4DCAE03EB4303DB00EA185A
:108C100002200021E85451603FE7E11805EBC10153
:108C20004868461E01284E603FF637AF0DE0E11858
:108C3000C90068184668771E012E47603FF62DAFC1
:108C400002274FF0FF366F544660E618F600AF1962
:108C50001148397B00680139C9B23973002940D005
:108C60004FF47A722344B2FBF0F200FB02F0B0F54D
:108C70007A7F05EBC30518BF01326A60A0E600BF2A
:108C8000CCA00020CDA00020903400108C34001027
:108C900080E40020D0A00020F00D002070B11D491C
:108CA000012600220F890132002F18BF00269042B2
:108CB00001F5B271F6D1002E3FF482AE164A126869
:108CC00042F21076E018B6FBF2F102FB11620126C7
:108CD00005F8306002B13144234405EBC3056960F7
:108CE0006EE6BF68B7FBF0F100FB11700327AF55CC
:108CF00000B101311C44013305EBC40503F003034B
:108D0000934269603FF45CAE00293FF459AE0139EB
:108D1000696055E660D90020F00D002010B5027C96
:108D200001681F2A4FF020030ED94C68203A934067
:108D30001C4208D00B4A406800241470026822F0DC
:108D400001020260CB6010BD0C6893401C42FAD057
:108D5000044A406800241470026822F00102026094
:108D60008B60F0E754C1002010B5027C01681F2A17
:108D70004FF020030ED94C68203A93401C4208D093
:108D80000B4A406800241470026822F0010202605D
:108D9000CB6010BD0C6893401C42FAD0044A406876
:108DA00000241470026822F0010202608B60F0E778
:108DB000938A00202DE9F041C40023189B00B74995
:108DC000CA585268958AADB2EFB2FE070B4461D41F
:108DD000BE0737D5BFF35F8F1D7EEDB2012D00F0CA
:108DE000BB80AF4E138BBFF35F8F231801EB830360
:108DF0001D7E022D00F0CE80231801EB83031D7E23
:108E0000032D05D19B7E1BB1737A002B40F01A8194
:108E1000938896F908C043F480639380231801EB8C
:108E200083031B7E013363450AD1B37A0025757233
:108E3000002B40F08A80204401EB80000023437522
:108E4000BDE8F081964E17F0040F96F908C04DD199
:108E500017F0400700F0B280178A1D6AFFB205F8CC
:108E60000C705FFA8CF56F1C93F818E07BB2DF1C76
:108E7000BE4533729C4600F00981271801EB870735
:108E80003F7EBB42CAD105F1020C4FFA8CFC86F83A
:108E900008C0C3E71588824E25F400652D042D0C0B
:108EA0001580158845F4806515809D7E00273772F2
:108EB000002D3DD0757A002D37D0231801EB8303A8
:108EC00001251B7E7572022B03D1138843F40063C6
:108ED0001380231801EB83039B7D43F0010313826E
:108EE000204401EB8000037EBDE8F0819F7E757A0F
:108EF0004FF0010E86F80AE0002F5CD0002D78D1EB
:108F0000231801EB83035B7E002B00F0A480138801
:108F10000CF1010C4FFA8CFC43F4007386F808C086
:108F200013801388DF05FCD478E7DB7DFF2BC4D0EA
:108F3000231801EB83039D7D05F0FE051582DB7D83
:108F4000FF2BCDD0FF233372CAE7938823F44073FD
:108F50001B041B0C93806EE79B7E514E002B3FF44D
:108F600041AF737A002B3FF43DAF138823F4806345
:108F70001B041B0C1380BFF35F8F138B1388B57218
:108F800043F400731380938896F908C043F4806318
:108F9000938043E79B7E002B3FF42EAF737A002B28
:108FA0003FF42AAF138896F908C023F480631B04AA
:108FB0001B0C138016E0002DA2D0A8E72D067FF52C
:108FC0002DAFBCF1FF3F6DD0DD6915F80C50158257
:108FD0000CF1010C1D7E4FFA8CF39D429C463372BE
:108FE0007FF41CAF938823F480631B041B0C9380D5
:108FF00014E71F7ED3F820805FFA8CF5AE44022F71
:109000004FFA8EFE17882DD927F480673F043F0C56
:109010001780178AFFB208F80C701788D3F820C0A1
:1090200047F400731380138ADBB20CF80E30938878
:1090300005F1020C4FFA8CFC43F4806386F808C0FB
:1090400093806EE7938896F908C023F480631B042D
:109050001B0C9380E2E61388012543F48073138090
:1090600075725EE747F400771780178AFFB208F839
:109070000C70178AD3F8208005F1030C4FFA8CFC92
:10908000FBB286F808C008F80E304AE7978827F444
:1090900080673F043F0C9780EFE600BF6CB500206F
:1090A00028180020DD7D15829D7E37721DB91B7E3C
:1090B000002B7FF415AF938823F480631B041B0CF3
:1090C00093800DE713B506230C466A4628210C3021
:1090D0002CF0F0F9F0B19DF801309DF8002042EA43
:1090E000032204219DF8033012B292FBF1F2228098
:1090F0009DF8022042EA032212B29DF8043092FB4E
:10910000F1F262809DF8052043EA02231BB293FB33
:10911000F1F3A38002B010BD13B506230C466A46D6
:1091200003210C302CF0C6F9A0B19DF800209DF869
:10913000013043EA022323809DF802209DF803308A
:1091400043EA0223A3809DF804209DF8053043EAFA
:109150000223638002B010BD07B506236A46F721DB
:109160002CF0A8F99DF801309DF800100B4A1B0166
:1091700043EA01339DF8021043EA111353609DF84E
:1091800004309DF803101B0143EA01339DF80510DC
:1091900043EA1113136003B05DF804FB28180020A4
:1091A0002CF070BB38B51D4B1B78044600F125052B
:1091B00093B104221A4920304EF028FC284614228C
:1091C00018494EF023FC012384F83A30164B1B78E3
:1091D00073B984F83B3038BD2846142213494EF049
:1091E00015FC012384F83A300F4B1B78002BF0D08C
:1091F0000F4B186859689A68DD68E5602060616007
:10920000A260DD69186959699A69A2610123E56163
:109210002061616184F83B3038BD00BF18B5002083
:10922000CCB40020B4B4002019B5002084F905089E
:10923000D4B40020014B18682BF030BC144500203A
:1092400010B400232A242B21012204714171827160
:109250000360C3715DF8044B704700BF2DE9F84F00
:10926000DDE90A6489461746002120229846054612
:109270004EF08EFB5EB1D6E900327189EB81C3F30B
:109280000F432B82C2F30F43EA822B836982484645
:109290004CF0C4F817F0100B10D1431E70B119F840
:1092A00003202E2A18BF09EB030104D14AE011F86C
:1092B000016D2E2E3ED013F1FF33F8D2082802465E
:1092C000CA46A8BF08224FF0000B4FF020336B6056
:1092D0002B60C5F807304946284605F108064DF0D1
:1092E00031F85A46514630464DF02CF86B1EE81DB9
:1092F00013F8012FA2F1610119299CBF203A1A70BD
:109300008342F5D105F10B0116F8013BA3F161028F
:10931000192A9CBF203B06F8013CB142F4D1182326
:10932000C8F30F42EF722B73A5F81A80AA82EC6182
:10933000BDE8F88FC01A00F1FF3BBBF1030FA8BFD7
:109340004FF0030B082B03F1010AA8BF0823CA44FE
:109350001A46BAE738B52E2200214EF019FB034613
:10936000642440F2DC5040F21A4140F26C7240F248
:1093700002251C745882132419209982DA8240F243
:10938000753140F643021D839C760E250A2418771A
:10939000D9831E2002211A84012283F82C0019721D
:1093A00083F82A1083F8225083F82B409A7383F8AD
:1093B000252083F8292019460248BDE838401FF0CF
:1093C000B7BF00BF8CF9050810B500210446012085
:1093D0002AF004FE207010BD38B500240472451E2A
:1093E000E1B202202AF0FAFD0134082C05F8010F41
:1093F000F6D138BD38B500240546048021462846FC
:10940000013427F00DFA082CF8D1002185F8E2107C
:10941000A5F8E410A5F8E610A5F8E810A5F8EA10FC
:10942000A5F8EC10A5F8EE10A5F8F010A5F8F210CC
:109430002846BDE8384027F0B5B900BF2DE9F04F08
:10944000002087B00C461D46012192462BF0B2FD4C
:10945000002D63D005EB0A03DFF8D094DFF8D0B419
:10946000039355461CE0002D00F0C581D9F8143057
:10947000AB4264D0D9F81030AB4200F09780D9E904
:109480000631AB4252D8A94200F26F81691A2046D8
:1094900048F000FC039B01359D4204F500743DD06B
:1094A000D9F82060AE42DED8D9F83080AE1B4FEA42
:1094B000D60AD8F830300AF1020A9A4506F00706B3
:1094C00003D3D8F838309A4509D94146504648F078
:1094D000AFFB8046002800F04D81C9F8300098F8B5
:1094E0000430002B40F0E280D8F82870002F00F004
:1094F000DF81D8F83030D8F80C20AAEB030A06EB4D
:10950000CA0A4346204602EB4A224FF40071B8478C
:10951000039B01359D4204F50074C1D1002108462A
:109520002BF048FD002007B0BDE8F08FA942ADD96F
:109530004FF40072002120464EF02AFAAAE7522288
:1095400061204123002622706270A070722284F88C
:10955000E70184F8E631D9F82800E3704FF0FF33D3
:10956000314684F8E42184F8E521C4F8E8014FF499
:10957000F07284F8EC3184F8ED3184F8EE3184F83F
:10958000EF31201D4EF004FA55216FF05502C4F85A
:10959000F061C4F8F461C4F8F86184F8FC6184F8FF
:1095A000FD6184F8FE1184F8FF2173E74FF4007227
:1095B000002120464EF0ECF9D44BD54F03CBEB23E2
:1095C000022223704FF0080C9026F8234FF0580E1B
:1095D000C4F80300227484F80DC0C4F8071084F89E
:1095E00001E0A6706375D9F81010D9F80830D9F8E1
:1095F0001C602273591A21624FF0FF3100233F2073
:10960000A1763E21A273E372E3736374A374E374DF
:109610002375A375E3756376E3766377A377E377C2
:109620002076217784F82C2007CFD9F8187084F899
:109630002830F61B84F8293084F82A3084F82B303F
:1096400084F82D3084F82E3084F82F3084F83130AF
:1096500084F8323084F8333080236662C4F84700DF
:1096600004F1470684F8403029209423A94F84F858
:1096700046C084F8420084F843300E200D234FF09A
:10968000010C84F8440084F8453084F830C07160DF
:1096900003CF33465527AA269A60C4F85200C4F86F
:1096A000561084F8FE7184F8FF61F3E64FF40072FF
:1096B000002120464EF06CF9D8F84030002E61D1E0
:1096C00004F12007002B77D0D8F8303092491122CE
:1096D000CDE900662046FFF7C1FDD8F840301A6C8E
:1096E00004F1400A002A79D01B6B8C49CDE9006651
:1096F00038461122FFF7B2FDD8F84460002E3FF43F
:10970000C9AE4FF4E078CDE904450CE00024CDE982
:1097100000C4FFF7A3FDB66CBA46A8F120080EB34B
:10972000B8F11F0F1ED93468356B96F804E011228A
:109730002B46214650460AF1200706F11C0CBEF1CB
:10974000000FE3D172793369019342F021022B4675
:10975000CDF800C0FFF782FDB66CBA46A8F120082C
:10976000002EDDD1DDE9044594E6E91A204648F0F3
:1097700091FA8FE6231F04F5FE7243F804BF9A4264
:10978000FBD187E6002BD8F844200CBF012302232D
:10979000C3EB0613002A3FF47DAE966C013B002E0E
:1097A0003FF478AE013BB66CF9D1002E3FF472AEB7
:1097B000A2464FF40078A6E7CDE900663346D9F813
:1097C0000C1008222046FFF749FDD8F84460002E0F
:1097D0003FF460AEBA464FF4F07894E7CDE9006606
:1097E0003346384611224D49FFF738FDD8F844601A
:1097F000002E86D14EE64FF40072294620464EF0E8
:10980000C7F880220C2384F8BE2184F8C231D9F82D
:109810001000434BD9F8086084F8B85183FB00323C
:10982000C117C1EB2232B2F5806F84F8B95184F8C8
:10983000BA5184F8BB5184F8BC5184F8BD51C4F8C6
:10984000C601C4F8CA6142DBFF2384F8BF3184F843
:10985000C13184F8C031324B711E83FB0132CE1707
:10986000C6EB2232B2F5806F29DA2E4B84F8C5217F
:1098700083FB01030B442C48C6EB6313C3EB831635
:1098800080FB0370891B1844DE17921022F03F0200
:109890000131C6EBE0100A43034484F8C42184F884
:1098A000C3315522AA2384F8FE2184F8FF31F1E563
:1098B00039464FF4007220464EF06AF8EAE5FF237D
:1098C00084F8C33184F8C53184F8C431E9E7154B15
:1098D00084F8C12183FB00730344134FC1EB63136E
:1098E00087FB0317C3EB831C9110A0EB0C02F81845
:1098F000DF1721F03F010132C7EBE0100A430344B8
:1099000084F8C02184F8BF31A5E700BFA0F905089D
:10991000ACF90508BCF9050898F905089CF9050893
:10992000975545418320088281808080E8D20020BD
:10993000DEADBEEF08B5012012F0ACFC174A93680B
:1099400003F00C03042B1ED0082B18D15168536868
:10995000490203F03F0319D452681148B0FBF3F0F9
:10996000C2F3881300FB03F00C4B0E4A5B68C3F391
:10997000014301335B00B0FBF3F0106008BD094BFD
:10998000074A1A6008BD074B186008BDB0FBF3F02A
:109990005368C3F3881300FB03F0E5E70038024087
:1099A0000024F400C8B6002010B5044C04480A4650
:1099B000214611F05BF9204610BD00BF341800208D
:1099C000C8F9050810B5044C04480A46214611F0B0
:1099D0004DF9204610BD00BF34180020D8F9050805
:1099E00010B5044C04480A46214611F03FF92046C0
:1099F00010BD00BF34180020E4F905080A4608B578
:109A0000054920B1054811F031F9034808BD044863
:109A100011F02CF9004808BD3418002010FA050890
:109A2000F8F9050808B5838940F2E93300E0A3B1ED
:109A30000289013B12F0020F9BB2F8D089B28181FA
:109A400040F2E93300E043B10289013B12F0010F1B
:109A50009BB2F8D08089C0B208BD2BF0FDFCC0B22B
:109A600008BD00BF38B5054640683B4A038823F06F
:109A700040031B041B0C0380038823F038031B04E2
:109A800090424FEA134305D002F58062904201D024
:109A900043F0080303800388AA6843F0400303806F
:109AA00012B1136892885A83838940F2E93301E046
:109AB000002B43D00289013B12F0020F9BB2F7D07A
:109AC000F523838140F2E93301E0002B36D002898F
:109AD000013B12F0010F9BB2F7D08389838940F2DA
:109AE000E93300E00BB30289013B12F0020F9BB295
:109AF000F8D0FF23838140F2E93300E0ABB1028963
:109B0000013B12F0010F9BB2F8D08489E4B2AB683C
:109B100013B11A689B881383712C19D008D9AC2C07
:109B200014D0AF2C0ED1092038BD2BF095FCEEE7F8
:109B3000122C0FD0702C07D1052038BD2BF08CFCD7
:109B40006868CBE7732C03D0002038BD072038BDF0
:109B5000062038BD082038BD003800402DE9F04F00
:109B600087B0A94A02904068038823F040031B0491
:109B70001B0C0380038823F038031B0490424FEA38
:109B8000134300F03F8102F5806290420CBF302207
:109B9000382213430380029B02889B6842F04002F4
:109BA000028013B11A689B885383838940F2E9339A
:109BB00002E0002B00F090810289013B12F0020FBD
:109BC0009BB2F6D06B23838140F2E93302E0002B95
:109BD00000F082810289013B12F0010F9BB2F6D0A6
:109BE0008389838940F2E93302E0002B00F0718120
:109BF0000289013B12F0020F9BB2F6D080238381D1
:109C000040F2E93302E0002B00F063810289013B5E
:109C100012F0010F9BB2F6D08389029B9B6813B1AF
:109C20001A689B8813830623784CDFF8EC81DFF8F1
:109C3000ECA1774D774E04939623DFF8E4C10193AE
:109C40004FF0100EDAF80430C3F30803002B40F095
:109C5000B280EFF31183002B40F0AD802068AA683A
:109C600023689842FAD133689A42F7D8D8F800703E
:109C70004FF47A7101FB07F39B1AB3FBF7F301FB77
:109C800000304FF47A774FF00109DAF80430C3F36B
:109C90000803002B70D1EFF31183002B6CD12368E4
:109CA000A96822689342FAD132689142F7D8D8F86D
:109CB000002007FB02FBABEB0101B1FBF2F107FB5C
:109CC00003131B1AB3F57A7FDFD3019B013B01938A
:109CD000B8D1029B9B6813B11A689B885383029B7F
:109CE000586840F2E933828902E0002B00F0858059
:109CF0000289013B12F0020F9BB2F6D0F52383815B
:109D000040F2E93301E0002B77D00289013B12F0E9
:109D1000010F9BB2F7D08389838940F2E93301E0D8
:109D2000002B67D00289013B12F0020F9BB2F7D0E3
:109D3000FF23838140F2E93301E0002B5AD00289EE
:109D4000013B12F0010F9BB2F7D08389DBB2039382
:109D5000029B9A6812B1136891881983039B682B40
:109D600060D0049B013B13F0FF0304937FF464AFC6
:109D7000184607B0BDE8F08FEFF311818EF312881B
:109D8000D5F808B02B68DB0344BFCCF80090D5F8B9
:109D900008B02368DCF80020C9B281F31188D8F834
:109DA0000010134407FB01F2A2EB0B02B2FBF1F22D
:109DB00007FB032385E7EFF311838EF31288AF6867
:109DC0002A68D20303D50122CCF80020AF682068AE
:109DD000DCF80090DBB283F31188D8F800104FF460
:109DE0007A72484402FB01F3DB1BB3FBF1F302FB85
:109DF000003046E72BF030FBAAE72BF02DFB029B4F
:109E0000586889E73022C4E600380040DCC00020F2
:109E100010E000E0E4C00020E0C0002000ED00E021
:109E2000D8C0002012B1136892885A83029B5868E8
:109E300040F2E933828901E0002B45D00289013BE1
:109E400012F0020F9BB2F7D08C23838140F2E933EA
:109E500001E0002B38D00289013B12F0010F9BB2C8
:109E6000F7D08389838940F2E9330289013B12F0FC
:109E7000020F9BB215D1002BF7D12BF0EDFA029B0C
:109E80009B6813B11A689B881383059B142B04D31A
:109E9000182B17D9543B062B14D9002007B0BDE866
:109EA000F08FFF23838140F2E93301E0002BE4D0FF
:109EB0000289013B12F0010F9BB2F7D08389DBB21C
:109EC0000593DCE7032054E72BF0C6FA029B5868A1
:109ED000C8E72BF0C1FAA0E62BF0BEFA029B586847
:109EE0007FE600BFF0B5876983B0064617B13B68CF
:109EF000BA885A837069DFF8A8E08389C3244FF4D5
:109F00007A734FF0060C6D464FF6FF710EF1010E9D
:109F100003E0013B9BB28B4220D002899207F8D527
:109F2000A3B283814FF47A7302E0A3B28B4215D0BF
:109F30000289D20703F1FF34F7D5828992B20DB1BD
:109F40002A700135BCF1000F0BD00CF1FF3CFF244F
:109F5000BEF1000FE1D09EF80040D7E72BF07CFA6D
:109F6000B76917B13B68BA881A839DF805009DF858
:109F700001509DF802109DF803409DF804209DF8C3
:109F8000063041EA052143EA002342EA0422012087
:109F9000A6F85010A6F85220A6F8543003B0F0BD31
:109FA000C07A050810B500F10C04002221212046DA
:109FB0002BF084FBFC22202120462BF07FFB40224B
:109FC000242120462BF07AFB0C22232120462BF063
:109FD00075FB0022222120462BF070FB64202AF022
:109FE00047FA012010BD10B500F10C0470220021C9
:109FF00020462BF063FB2022012120462BF05EFB44
:10A000000022022120462BF059FB64202AF030FA6E
:10A01000012010BD3122F4212BF050BB2DE9F04F6F
:10A0200090F8583087B0072B039000F0148618235F
:10A03000CDE90433039BBE4CBE4EDFF80483BE4F14
:10A040001033184680226B2102932BF037FB6423D8
:10A05000DFF8F0E2B94801934FF01009DEF8043060
:10A06000C3F30803002B40F0A584EFF31183002B0A
:10A0700040F0A0842568826823689D42FAD13B683D
:10A080009A42F7D8D6F800C04FF47A7101FB0CF36E
:10A090009B1AB3FBFCF301FB05354FF47A7C4FF0C0
:10A0A000010ADEF80430C3F30803002B40F0638498
:10A0B000EFF31183002B40F05E84236881682268EF
:10A0C0009342FAD13A689142F7D832680CFB02FB0E
:10A0D000ABEB0101B1FBF2F10CFB03135B1BB3F51E
:10A0E0007A7FDED3019B013B0193B7D10722682120
:10A0F0000298DFF84C82904F2BF0E0FA6423DFF8EF
:10A1000044E28E4801934FF01009DEF80430C3F3A7
:10A110000803002B40F09284EFF31183002B40F0F2
:10A120008D842568826823689D42FAD13B689A42F3
:10A13000F7D8D6F800C04FF47A7101FB0CF39B1AE4
:10A14000B3FBFCF301FB05354FF47A7C4FF0010AB9
:10A15000DEF80430C3F30803002B40F0EE83EFF386
:10A160001183002B40F0E9832368816822689342C1
:10A17000FAD13A689142F7D832680CFB02FBABEB9C
:10A180000101B1FBF2F10CFB03135B1BB3F57A7F0A
:10A19000DED3019B013B0193B7D11A466B21029894
:10A1A000DFF89C81644F2BF089FA6423DFF894E197
:10A1B000624801934FF01009DEF80430C3F308033E
:10A1C000002B40F01984EFF31183002B40F014842E
:10A1D0002568826823689D42FAD13B689A42F7D885
:10A1E000D6F800C04FF47A7101FB0CF39B1AB3FB55
:10A1F000FCF301FB05354FF47A7C4FF0010ADEF8E1
:10A200000430C3F30803002B40F07983EFF311838C
:10A21000002B40F074832368816822689342FAD14E
:10A220003A689142F7D832680CFB02FBABEB0101B4
:10A23000B1FBF2F10CFB03135B1BB3F57A7FDED3AA
:10A24000019B013B0193B7D101226B210298DFF8FA
:10A25000F080394F2BF032FA0F23DFF8E8E037486F
:10A2600001934FF01009DEF80430C3F30803002B0C
:10A2700040F0CD84EFF31183002B40F0C8842568B3
:10A28000826823689D42FAD13B689A42F7D8D6F893
:10A2900000C04FF47A7101FB0CF39B1AB3FBFCF383
:10A2A00001FB05354FF47A7C4FF0010ADEF80430EB
:10A2B000C3F30803002B40F00483EFF31183002B5A
:10A2C00040F0FF822368816822689342FAD13A689D
:10A2D0009142F7D832680CFB02FBABEB0101B1FBFA
:10A2E000F2F10CFB03135B1BB3F57A7FDED3019B0A
:10A2F000013B0193B7D1059A0298DFF844800E4FD5
:10A300001B212BF0DBF90F23DFF838E00B4801931A
:10A310004FF01009DEF80430C3F30803002B40F0BF
:10A320005484EFF31183002B40F04F840CE000BF06
:10A33000DCC00020E0C00020E4C0002010E000E00D
:10A34000D8C0002000ED00E02568826823689D42A7
:10A35000FAD13B689A42F7D8D6F800C04FF47A7128
:10A3600001FB0CF39B1AB3FBFCF301FB05354FF427
:10A370007A7C4FF0010ADEF80430C3F30803002BA7
:10A3800040F08182EFF31183002B40F07C82236840
:10A39000816822689342FAD13A689142F7D83268CC
:10A3A0000CFB02FBABEB0101B1FBF2F10CFB031365
:10A3B0005B1BB3F57A7FDED3019B013B0193A9D1EF
:10A3C000049A0298DFF81483C24F1C212BF076F90F
:10A3D0000F23DFF80CE3C04801934FF01009DEF8BB
:10A3E0000430C3F30803002B40F0CE83EFF3118356
:10A3F000002B40F0C9832568826823689D42FAD10A
:10A400003B689A42F7D8D6F800C04FF47A7101FB46
:10A410000CF39B1AB3FBFCF301FB05354FF47A7C7C
:10A420004FF0010ADEF80430C3F30803002B40F0BC
:10A430000C82EFF31183002B40F0078223688168C0
:10A4400022689342FAD13A689142F7D832680CFBFD
:10A4500002FBABEB0101B1FBF2F10CFB03135B1B45
:10A46000B3F57A7FDED3019B013B0193B7D1039A09
:10A4700092F85B30032B00F2EC8392F85E20012A05
:10A480000BD0022A40F0E583039B93F8633003F07E
:10A49000FB03022B0CBF002207221A210298DFF8CF
:10A4A0003C828C4F2BF00AF90F23DFF834E28A4804
:10A4B00001934FF01009DEF80430C3F30803002BBA
:10A4C00040F02083EFF31183002B40F01B832568BD
:10A4D000826823689D42FAD13B689A42F7D8D6F841
:10A4E00000C04FF47A7101FB0CF39B1AB3FBFCF331
:10A4F00001FB05354FF47A7C4FF0010ADEF8043099
:10A50000C3F30803002B40F08281EFF31183002B8B
:10A5100040F07D812368816822689342FAD13A68CD
:10A520009142F7D832680CFB02FBABEB0101B1FBA7
:10A53000F2F10CFB03135B1BB3F57A7FDED3019BB7
:10A54000013B0193B7D1039B029893F86020DFF899
:10A550008C81604F19212BF0B1F86423DFF880E182
:10A560005D4801934FF01009DEF80430C3F308038F
:10A57000002B40F0E882EFF31183002B40F0E382E0
:10A580002568826823689D42FAD13B689A42F7D8D1
:10A59000D6F800C04FF47A7101FB0CF39B1AB3FBA1
:10A5A000FCF301FB05354FF47A7C4FF0010ADEF82D
:10A5B0000430C3F30803002B40F00B81EFF3118349
:10A5C000002B40F006812368816822689342FAD10B
:10A5D0003A689142F7D832680CFB02FBABEB010101
:10A5E000B1FBF2F10CFB03135B1BB3F57A7FDED3F7
:10A5F000019B013B0193B7D10298DFF8E080354F12
:10A60000102237212BF05AF80F23DFF8D4E032481C
:10A6100001934FF01009DEF80430C3F30803002B58
:10A6200040F04F82EFF31183002B40F04A822568FF
:10A63000826823689D42FAD13B689A42F7D8D6F8DF
:10A6400000C04FF47A7101FB0CF39B1AB3FBFCF3CF
:10A6500001FB05354FF47A7C4FF0010ADEF8043037
:10A66000C3F30803002B40F09680EFF31183002B17
:10A6700040F091802368816822689342FAD13A6859
:10A680009142F7D832680CFB02FBABEB0101B1FB46
:10A69000F2F10CFB03135B1BB3F57A7FDED3019B56
:10A6A000013B0193B7D10F23DFF834E00A48DFF80C
:10A6B0002C80084F01934FF01009DEF80430C3F3EB
:10A6C0000803002B40F0DC81EFF31183002B40F0F6
:10A6D000D78107E0E4C0002010E000E0D8C00020EF
:10A6E00000ED00E02568826823689D42FAD13B684E
:10A6F0009A42F7D8D6F800C04FF47A7101FB0CF3F8
:10A700009B1AB3FBFCF301FB05354FF47A7C4FF049
:10A71000010ADEF80430C3F30803F3B9EFF3118341
:10A72000DBB92368816822689342FAD13A68914282
:10A73000F7D832680CFB02FBABEB0101B1FBF2F185
:10A740000CFB03135B1BB3F57A7FE2D3019B013B48
:10A750000193B2D107B0BDE8F08FEFF3118189F317
:10A760001288D0F808B00368DB0344BFC8F800A023
:10A77000D0F808B02368D8F80020C9B281F3118856
:10A78000316813440CFB01F2A2EB0B02B2FBF1F2B5
:10A790000CFB0323D6E7EFF3118189F31288D0F87D
:10A7A00008B00368DB0344BFC8F800A0D0F808B0C5
:10A7B0002368D8F80020C9B281F3118831681344A6
:10A7C0000CFB01F2A2EB0B02B2FBF1F20CFB032338
:10A7D00061E7EFF3118189F31288D0F808B00368BC
:10A7E000DB0344BFC8F800A0D0F808B02368D8F84D
:10A7F0000020C9B281F31188316813440CFB01F2C7
:10A80000A2EB0B02B2FBF1F20CFB0323ECE6EFF33D
:10A81000118189F31288D0F808B00368DB0344BFC4
:10A82000C8F800A0D0F808B02368D8F80020C9B252
:10A8300081F31188316813440CFB01F2A2EB0B0287
:10A84000B2FBF1F20CFB032375E6EFF3118189F300
:10A850001288D0F808B00368DB0344BFC8F800A032
:10A86000D0F808B02368D8F80020C9B281F3118865
:10A87000316813440CFB01F2A2EB0B02B2FBF1F2C4
:10A880000CFB0323EBE5EFF3118189F31288D0F879
:10A8900008B00368DB0344BFC8F800A0D0F808B0D4
:10A8A0002368D8F80020C9B281F3118831681344B5
:10A8B0000CFB01F2A2EB0B02B2FBF1F20CFB032347
:10A8C00076E5EFF3118189F31288D0F808B00368B8
:10A8D000DB0344BFC8F800A0D0F808B02368D8F85C
:10A8E0000020C9B281F31188316813440CFB01F2D6
:10A8F000A2EB0B02B2FBF1F20CFB0323F3E4EFF348
:10A90000118189F31288D0F808B00368DB0344BFD3
:10A91000C8F800A0D0F808B02368D8F80020C9B261
:10A9200081F31188316813440CFB01F2A2EB0B0296
:10A93000B2FBF1F20CFB03237EE4EFF3118189F308
:10A940001288D0F808B00368DB0344BFC8F800A041
:10A95000D0F808B02368D8F80020C9B281F3118874
:10A96000316813440CFB01F2A2EB0B02B2FBF1F2D3
:10A970000CFB032309E4EFF3118189F31288D0F86B
:10A9800008B00368DB0344BFC8F800A0D0F808B0E3
:10A990002368D8F80020C9B281F3118831681344C4
:10A9A0000CFB01F2A2EB0B02B2FBF1F20CFB032356
:10A9B000FFF794BBEFF3118389F31288D0F808C036
:10A9C0000268D20304D50122C8F80020D0F808C0DC
:10A9D0002568D8F800A0DBB283F3118831684FF402
:10A9E0007A72554402FB01F3A3EB0C03B3FBF1F3C2
:10A9F00002FB0535FFF751BBEFF3118389F3128892
:10AA0000D0F808C00268D20304D50122C8F800209B
:10AA1000D0F808C02568D8F800A0DBB283F311880D
:10AA200031684FF47A72554402FB01F3A3EB0C0337
:10AA3000B3FBF1F302FB0535FFF7DDBBEFF3118349
:10AA400089F31288D0F808C00268D20304D5012225
:10AA5000C8F80020D0F808C02568D8F800A0DBB2FC
:10AA600083F3118831684FF47A72554402FB01F385
:10AA7000A3EB0C03B3FBF1F302FB0535FFF764BB5B
:10AA8000EFF3118389F31288D0F808C00268D2036B
:10AA900004D50122C8F80020D0F808C02568D8F8ED
:10AAA00000A0DBB283F3118831684FF47A72554409
:10AAB00002FB01F3A3EB0C03B3FBF1F302FB05353F
:10AAC00023E6EFF3118389F31288D0F808C00268F7
:10AAD000D20304D50122C8F80020D0F808C02568A8
:10AAE000D8F800A0DBB283F3118831684FF47A7292
:10AAF000554402FB01F3A3EB0C03B3FBF1F302FBA0
:10AB00000535A7E5EFF3118389F31288D0F808C063
:10AB10000268D20304D50122C8F80020D0F808C08A
:10AB20002568D8F800A0DBB283F3118831684FF4B0
:10AB30007A72554402FB01F3A3EB0C03B3FBF1F370
:10AB400002FB0535D6E4EFF3118389F31288D0F8C0
:10AB500008C00268D20304D50122C8F80020D0F84A
:10AB600008C02568D8F800A0DBB283F311883168EB
:10AB70004FF47A72554402FB01F3A3EB0C03B3FBD1
:10AB8000F1F302FB05350EE5EFF3118389F312882B
:10AB9000D0F808C00268D20304D50122C8F800200A
:10ABA000D0F808C02568D8F800A0DBB283F311887C
:10ABB00031684FF47A72554402FB01F3A3EB0C03A6
:10ABC000B3FBF1F302FB053528E4EFF3118389F3BE
:10ABD0001288D0F808C00268D20304D50122C8F850
:10ABE0000020D0F808C02568D8F800A0DBB283F3B5
:10ABF000118831684FF47A72554402FB01F3A3EBDC
:10AC00000C03B3FBF1F302FB0535FFF7B0BBEFF329
:10AC1000118389F31288D0F808C00268D20304D5E2
:10AC20000122C8F80020D0F808C02568D8F800A094
:10AC3000DBB283F3118831684FF47A72554402FB1A
:10AC400001F3A3EB0C03B3FBF1F302FB0535FFF7B4
:10AC500029BB019A21E490F85D3023B91023CDE996
:10AC60000433FFF7E7B910211823CDE90413FFF7E8
:10AC7000E1B900BF42697749138823F040032DE909
:10AC8000F04F1B041B0C1380138883B023F0380390
:10AC90001B048A4201904FEA134300F0D08001F573
:10ACA00080618A420CBF282130210B431380138816
:10ACB00043F040031380012029F07CFB019C2046D7
:10ACC000FFF7ACF9A36913B11A689B885383019B02
:10ACD000586940F2E933828902E0002B00F0B48029
:10ACE0000289013B12F0020F9BB2F6D06A238381E6
:10ACF00040F2E93302E0002B00F0A6800289013B1C
:10AD000012F0010F9BB2F6D08389838940F2E933B8
:10AD100002E0002B00F095800289013B12F0020F47
:10AD20009BB2F6D01023838140F2E93302E0002B7E
:10AD300000F087800289013B12F0010F9BB2F6D030
:10AD40008389019B9B6913B11A689B8813836423D1
:10AD5000414CDFF81091DFF81081404DDFF80CA175
:10AD60003F4E009329F0D4FA4FF47A774FF0100C4D
:10AD70004FF0010ED8F80430C3F30803002B3FD185
:10AD8000EFF31183002B3BD12368A968226893421B
:10AD9000FAD132689142F7D8D9F8002007FB02FBBC
:10ADA000ABEB0101B1FBF2F107FB03131B1AB3F587
:10ADB0007A7FDFD3009B013B0093D3D1019B2549D0
:10ADC0005A69138823F040031B041B0C138013885B
:10ADD00023F038031B048A424FEA134305D001F5E0
:10ADE00080618A4201D043F0080313801388012058
:10ADF00043F04003138003B0BDE8F04F29F0DABA06
:10AE0000EFF311818CF31288D5F808B02B68DB03BF
:10AE100044BFCAF800E0D5F808B02368DAF800208B
:10AE2000C9B281F31188D9F80010134407FB01F26D
:10AE3000A2EB0B02B2FBF1F207FB0323B6E72821DA
:10AE400033E72AF009FB7CE72AF006FB019B5869EF
:10AE50005BE700BF00380040DCC0002010E000E0ED
:10AE6000E4C00020E0C0002000ED00E0D8C00020D9
:10AE70002DE9F84F037C02681F2B86BF203B5168E9
:10AE80001168202202FA03F30B4214BF01230023AE
:10AE90000BB9BDE8F88F4569604F044629F038FAD0
:10AEA0004FF4B27303FB057306461A7C002A35D1B2
:10AEB0005B495A680978D2F80090D1B9D3F8D81014
:10AEC00058890A6822F001020A60B9F80C3023EAB6
:10AED0000003A9F80C30534B1B78002B32D1237C94
:10AEE00021681F2B13D8202202FA03F38B60BDE8E0
:10AEF000F88F5269136823F001031360B9F80C301E
:10AF000023F480731B041B0CA9F80C30E3E7203BEF
:10AF1000202202FA03F3CB60BDE8F88FD3F8D860A3
:10AF200041485F8901225A7431685A68036815687C
:10AF300021F001013160AA89013322EA0702AA81C6
:10AF40000360CCE74FF4B27A0AFB05FA07EB0A0577
:10AF5000D5F8D880404611F035F901232B74D5F887
:10AF6000DCB029F0D5F90AF18C013944CBF82C0179
:10AF7000484611F0E7F9D5E92B70D5F89830D5E9B6
:10AF80002D123B4303430B431343D5F8BC20D5F8A4
:10AF9000CC70D8F8000025491343D5F8C0201343DE
:10AFA000D5F8D0203B43014013430B430022C5F8A2
:10AFB000A420C8F80030D8F81420D5F8C430D5F84B
:10AFC000A81022F0070CD5F8C820D5E92770134344
:10AFD00043EA0C03C8F81430C8F80410C8F8087025
:10AFE000C8F80C00D8F80020D5F8D83095F8D4006F
:10AFF000696842F01002C8F8002058601A680968B1
:10B0000042F001021A608B896A8913438B8129F00F
:10B010007FF9074B801B186061E700BF60D90020F3
:10B020008C3400108834001030A100203F801CF0C8
:10B03000C80E001020B10078B0FA80F040097047C7
:10B040000120704708B520214CF0B9FC0346184692
:10B0500023B10278202A03F10103F8D008BD037957
:10B0600003F01803082B0AD002D82BB10020704738
:10B07000102B16D0182BF9D1B0F80B007047124BDB
:10B08000B0F80B0093F90030591C06BF0F4B1B782A
:10B09000DBB2C3EBC30203EB820300EB830080B29D
:10B0A00070470B4BB0F80B0093F900305A1C06BFE9
:10B0B000064B5B78DBB203EB430203EB820300EB4E
:10B0C000430080B2704700BF890D0020BCD600202D
:10B0D000880D0020F0B5067906F0E003402B09D179
:10B0E00044794FF0FF350023012006F00706A34204
:10B0F0000BD1F0BD602B08BF45794FF001040CBFA8
:10B1000004FA05F54FF0FF35EDE7042E0CD8DFE823
:10B1100006F0030D18242E0030B1C85CD75C7840CF
:10B1200028420CBF012000200133E0E70028FBD0BB
:10B13000C856D756A0EB070CDCF1000040EB0C0022
:10B14000F2E70028F0D031F8130032F8137078409D
:10B1500028420CBF01200020E6E70028E4D031F9A6
:10B16000130032F91370C71B78427841DCE70028DE
:10B17000DAD051F8230052F82370784028420CBFEF
:10B1800001200020D0E7024B014618682AF07ABB64
:10B190000844002038B5064D441E14F8011F2868E5
:10B1A00019B9BDE838402AF0E7BA2AF06BFBF4E79A
:10B1B000084400200048EDE72D2E060808B5FFF7EB
:10B1C000E9FFBDE80840F5E710B504460348FFF77E
:10B1D000E1FF2046BDE81040F0E700BFC8F80508D1
:10B1E00038B5074C074DAC4203D3074B00221A7009
:10B1F00038BD6288D4E901014BF0A4F81434F2E7B9
:10B2000090010008BC070008189E0020024A13683D
:10B2100023EA0000106070477CEE0020DFED2E7AFC
:10B22000B4EEE70AF1EE10FA4ADDDFED2C6A9FED8D
:10B230002C7A01E0B0EE670AB4EEC70AF1EE10FA1C
:10B2400070EE667AF6DC9FED277AF4EEC77AF1EEBF
:10B2500010FA3ED5DFED216A9FED237A01E0F0EE92
:10B26000407AF4EEC77AF1EE10FA37EEA60AF6D479
:10B27000DFED1E7AB4EEE70AF1EE10FA14DDDFED31
:10B28000167A37EEC00A60EE006A9FED196A9FEDEC
:10B29000197ADFED197AA6EE867A20EE266AE6EEB6
:10B2A000877AA6EE270A7047DFED147AB4EEE70A34
:10B2B000F1EE10FA44BFDFED0B7A37EEC00AE2E799
:10B2C0009FED087AF0EE407AF4EEC77AF1EE10FACC
:10B2D000C0D4B0EE670ACBE7DB0F4940DB0FC940B3
:10B2E000E4CB1641DB0F49C0E4CB16C1DB0FC93FED
:10B2F00092E741B99730083C15A82ABEDB0FC9BFB9
:10B30000F0EEC07AB0EEE07AB4EEE77AF1EE10FA41
:10B31000B4BFB0EE676AB0EE476AB5EE406AF1EED0
:10B3200010FA46D0B4EEE77AF1EE10FA8CBFF0EEE8
:10B33000675AF0EE475AC5EE866A9FED1F3A9FEDB9
:10B340001F6A9FED1F4A9FED1F5ADFED1F3ADFED89
:10B350001F4ADFED1F5AA6EEC36AE6EEA34AA6EE29
:10B36000864AB7EE006AA6EE845AA6EEA46AE6EE16
:10B37000855AC5EE866AB4EEE77AF1EE10FA48BF58
:10B38000DFED147AF5EEC00A48BF77EEE66AF1EE1B
:10B3900010FA48BFDFED107AB5EEC00A48BF77EE6D
:10B3A000E66AF1EE10FA48BFF1EE666AB0EE660AA0
:10B3B0007047DFED076ADEE739094E3DE3B59E3E93
:10B3C00088FA163E45FE7F3F99FB243F69A2163E50
:10B3D000A7DFA834DB0FC93FDB0F4940DFED317A2F
:10B3E00030EE277AFDEEC76A16EE903A2033402BF6
:10B3F00002D99FED2D0A7047B4EEE70AF1EE10FA7C
:10B400004DDD9FED2A6ADFED2A6A01E0B0EE677A32
:10B41000B4EEE67AF1EE10FA77EE467AF6DC9FEDBE
:10B42000257AF4EEC77AF1EE10FA35D5DFED1F6A12
:10B430009FED217A01E0F0EE407AF4EEC77AF1EE6A
:10B4400010FA37EEA60AF6D4DFED167AB4EEE70A64
:10B45000F1EE10FA1BDCDFED197AB4EEE70AF1EE3B
:10B4600010FA44BFDFED137A37EEC00A60EE006ACF
:10B470009FED136A9FED137ADFED137AA6EE867ABD
:10B4800020EE266AE6EE877AA6EE270A7047DFED01
:10B490000F7A37EEC00AE9E7B0EE670AD4E7F0EEBC
:10B4A000477ABCE7DB0FC93F00000000DB0FC94053
:10B4B000E4CB1641DB0F49C0E4CB16C1DB0FC9BF9B
:10B4C00092E741B99730083C15A82ABEDB0F4940E6
:10B4D00010B44C09012250F8243001F01F0102FA87
:10B4E00001F123EA010340F824305DF8044B704772
:10B4F00010B44C09012250F8243001F01F0102FA67
:10B5000001F10B4340F824305DF8044B704700BF55
:10B510004B0901F01F0150F82320012303FA01F128
:10B52000114214BF18460020704700BF2DE9F043B8
:10B53000002489B006460D461F46A04605E0252991
:10B540000CD030460134A847039A531C039311785A
:10B550000029F4D1204609B0BDE8F083931CCDE961
:10B5600003385078302842D0A0F13003DBB2092BE9
:10B570004FF0000945D96C282AD0642873D019D916
:10B58000732858D063D9752840F0828007F1040CE5
:10B59000386805AB00220A216746FCF761FE05AB5F
:10B5A000049A009329464B463046FCF72FFD039A38
:10B5B0000444CAE725283CD051D958286BD06328C9
:10B5C000C2D139783046A84704370134039ABCE722
:10B5D000039B5A1C03921B78642B52D016D8252B40
:10B5E00027D064D9582B18D0632BEAD0ADE7D31CF1
:10B5F00003939078A0F13003DBB2092B4FF00109DF
:10B60000B9D804AA03A946F097FBB4E7732B12D06C
:10B6100051D9752B2DD0782B97D1A3F15802B2FABE
:10B6200082F23868520905AB10210437FCF718FE86
:10B63000B5E7252185E73B68049A00932946002356
:10B640003046FCF7E3FC04370444039A7DE76E2898
:10B650007FF47AAF039A3B6804371C6075E70028D3
:10B660003FF478AF70E7386805A9FCF7C3FD0437ED
:10B6700095E7386805AB00220A21FCF7F1FD043795
:10B680008DE73B1D386805A91F46FCF7B3FD86E72B
:10B6900078287FF459AFA0F15802B2FA82F23868E4
:10B6A000520905AB1021FCF7DBFD043777E7002BCF
:10B6B0003FF450AF49E76E2BCDD046E710B5064CAE
:10B6C0000B46024605492068FFF730FF2068BDE8B9
:10B6D00010402AF051B800BF08440020A191000892
:10B6E00038B504460D460848FFF754FD2946204664
:10B6F000FFF7E4FF0548FFF74DFD054B1B7813B13D
:10B70000044B01221A7038BDCDF80508D8F8050899
:10B7100064450020654500200FB407B504A951F821
:10B72000040B0191FFF7DCFFFFF744FD03B05DF868
:10B7300004EB04B0704713460A4601460048EBE7A5
:10B74000DCF805080048E7E7F5F805080FB407B589
:10B7500004A951F8040B0191FFF7C2FF03B05DF893
:10B7600004EB04B070470FB407B504A951F8040BFB
:10B770000191FFF7A3FFFFF71DFD03B05DF804EB98
:10B7800004B070470FB407B504A951F8040B019138
:10B79000FFF794FF03B05DF804EB04B070472DE9A8
:10B7A000F843037903F0E001202928D002D849B1F9
:10B7B000BDE8F883402945D06029F9D12448BDE887
:10B7C000F843D0E703F00703022B02D0042B08D084
:10B7D0006BB9B0F80720B0F805101E48BDE8F84373
:10B7E000C1E7D0F805201B48BDE8F843BBE7B0F936
:10B7F0000720B0F905101748BDE8F843B3E74579CD
:10B80000154E1648FFF7C6FC06EBC502002492F859
:10B8100004800123A04502D8BDE8F843CAE456F8E5
:10B82000357057F824204FEA84094AB113B90C48FF
:10B83000FFF7B0FC57F809100A48FFF7A3FF0023F1
:10B840000134E7E741790848BDE8F8438BE700BFDA
:10B850003DF9050801F90508B8B3050818F9050808
:10B8600029F90508C02206082CF905082DE9F04140
:10B870001746027902F0E003402B05460E462BD115
:10B880000024554FDFF8708115E02B7903F0070392
:10B89000022B15D0032B19D0012B14BF315D31576A
:10B8A0003846FFF76FFF6B79013BA34202DD40464C
:10B8B000FFF770FC01346B79A342E6DCBDE8F08150
:10B8C00036F814103846FFF75DFFECE736F9141030
:10B8D0003846FFF757FFE6E702F00702042A5CD874
:10B8E000DFE802F0031D25272A003478202B3AD008
:10B8F00067D8002BE2D1B5F80560B5F80780364867
:10B900002146FFF73FFFA6423FDCA0453DDB002F6D
:10B91000D4D0424631463148BDE8F04132E796F98D
:10B920000040202B1FD04CD8002B3CD0C6E73488D9
:10B93000DCE7B6F90040F4E7D6F80080202B444657
:10B9400011D03ED8002BB9D141462348FFF71AFF4A
:10B95000D5F80510884518D8002FAFD02048BDE88D
:10B96000F0410FE700246A791E4B03EBC20109790D
:10B97000A1420ADD53F8323053F82400BDE8F0410B
:10B9800008E41948BDE8F041FCE6FFF713FC224645
:10B9900029681648BDE8F041D8E6202BE2D007D848
:10B9A000002B8BD11C46B5F90560B5F90780A6E7D9
:10B9B000602BE6D0802B81D131460D48BDE8F041A7
:10B9C000E0E6602BF6D16A791441E307D9D509483E
:10B9D000BDE8F041D6E600BF15F90508F2220608D9
:10B9E00057F90508B8B30508081B06085DF90508EE
:10B9F000C022060852F9050855F905080CB407B528
:10BA000010F020000BD079B92320FFF7BCFB05A96B
:10BA100004980191FFF752FEFFF7CCFB012003B021
:10BA20005DF804EB02B070470020F8E70CB4C306E1
:10BA300007B500D561B905A904980191FFF73EFE4D
:10BA4000FFF7B8FB012003B05DF804EB02B07047CC
:10BA50000020F8E70EB400B584B005AB019053F8B0
:10BA6000042B0649039301A8FFF760FD019B002208
:10BA70001A7004B05DF804EB03B070470180000851
:10BA800070B406688E4217D90139751E002311F86B
:10BA9000014F0822634013F0800F4FEA430318BFA1
:10BAA00083F0D503013ADBB2F5D18D42EFD1721CA0
:10BAB0000260337070BC7047721C002302603370E8
:10BAC00070BC70470A44914215D010B40139541E1D
:10BAD00011F8012F0823504010F0800F4FEA40006A
:10BAE00018BF80F0D500013BC0B2F5D1A142EFD123
:10BAF0005DF8044B704770474840082310F0800FF2
