:020000040800F2
:10000000F0FF00109D58050809330108712B030803
:100010003D5905083D5905083D59050800000000F7
:10002000000000000000000000000000153301087F
:1000300011330108000000000D330108D52B03081F
:100040003D5905083D5905083D5905083D59050824
:100050003D5905083D590508E1C304080DC50408CC
:10006000D1C4040895C4040859C404080D09010842
:10007000FD080108ED080108DD080108C9080108AC
:10008000B5080108A10801083D5905083D590508B2
:100090003D5905083D5905083D5905081DC404088A
:1000A00021130308BD180308511203088D19030812
:1000B000FD1703083D17030871160308F50E010824
:1000C000FD0E0108E90E0108F10E01083D59050871
:1000D0003D590508693A0308CD3903083139030849
:1000E000A5C304083D590508F980010881110308DA
:1000F000F1130308B1100308D11403088D08010897
:100100003D5905083D590508A11503083D59050845
:1001100095380308F937030831BB0308B9B9030858
:100120007908010865080108510801083D0801081F
:10013000290801083D5905083D5905083D5905089C
:100140003D5905083D5905083D590508D14D01089F
:100150001508010801080108ED0701083D590508C7
:10016000DD0E0108E50E01083D5905083D59050859
:100170003D5905083D5905083D5905083D590508F3
:080180003D5905083D59050831
:080188004454050001000000D1
:100190001002010034210020302100200000000066
:1001A000800700081F02100048210020382100208D
:1001B000000000007185000814000300745A00203C
:1001C000E05A002000000000840700080B301A00ED
:1001D000804A0020E45A0020000000008807000840
:1001E0001F3024009C4A0020005B0020000000001B
:1001F000A40700080502040008560020245B002024
:1002000000000000C807000803010A00DC4A0020C3
:10021000285B002000000000CC0700081302040047
:10022000B4480020345B002000000000D60700081E
:10023000281010006076002050760020000000009A
:10024000718B010820320A007C7600207076002035
:1002500000000000F58A01081C0210002C7200202A
:100260008876002000000000B183000801200C0007
:10027000186E00209876002000000000DA070008C1
:100280000A702800746D0020A47600200000000091
:10029000158B01080EA05C01186C0020CC760020A4
:1002A00000000000B5E6030801010400786B00209F
:1002B0002878002000000000000000000001040079
:1002C000706B00202C78002000000000E60700087A
:1002D000020103006C6B0020307800200000000059
:1002E000451E020807020200D0790020147A00207F
:1002F00000000000EC070008F6210C00087900203F
:10030000187A002000000000F007000802000C002E
:10031000B4780020247A00200000000000000000D3
:1003200006020C00A8790020307A002000000000AE
:100330009594000808120F00287900203C7A0020CC
:100340000000000001850008F70106001C7900206C
:100350004C7A002000000000FC0700081D0202008B
:1003600018790020547A00200000000002080008DC
:10037000220214016C940020BC96002000000000B2
:100380003D9600080C109C0090840020D09700201F
:1003900000000000191E02080102050084840020EC
:1003A0006C9800200000000049830208000205004C
:1003B0007C840020749800200000000000000000F1
:1003C0001B021000508400207C98002000000000D8
:1003D000DD8300081E000600A88100208C98002004
:1003E00000000000040800081B100C00AC7C00207A
:1003F0009498002000000000919802082102F0006B
:100400002C7B0020A0980020000000000586020838
:1004100023121000FC8600209099002000000000AC
:100420000C08000805100600F4860020A0990020A2
:10043000000000001C08000837102800D8830020A6
:10044000A899002000000000220800080E02020007
:10045000F0860020D0990020000000004A08000823
:1004600016100600207B0020D49900200000000018
:100470004C0800082F10220098960020DC990020DC
:10048000000000005208000823100E00F880002031
:10049000009A002000000000898B0108F5518C00B3
:1004A000587A0020109A00200000000079D302083A
:1004B00026100C00A89A00209C9A00200000000042
:1004C000917802081A023C00989C0020D49E0020DB
:1004D00000000000F993000827000400949C00200D
:1004E000109F002000000000740800083810010070
:1004F000D09A0020149F0020000000007808000817
:100500000A020A0034A7002088A900200000000089
:10051000457003080300010008A2002094A90020F0
:10052000000000000000000003123D0048A9002068
:1005300098A90020000000007A08000825102C016E
:1005400068A70020D8A900200000000000000000DB
:1005500010100200D4A1002004AB00200000000015
:10056000B808000819000500D0B10020E8B200204A
:1005700000000000BA0800081A000E005CB100205C
:10058000F0B2002000000000C0080008F8210600BA
:1005900030B0002000B3002000000000CE080008AA
:1005A00015007000A8AE002008B300200000000075
:1005B000000000002A00600034B2002078B3002060
:1005C000000000008DE603082C001000E8B30020B6
:1005D000D8B300200000000085E503082B002400AC
:1005E0001CB40020F8B300200000000055E503080B
:1005F0002920780094AC002040B4002000000000C6
:10060000000000000D00440024E30020E0E300208F
:1006100000000000D1F102080902010090E2002070
:1006200024E4002000000000D4080008040080003A
:1006300010E2002028E4002000000000000000007C
:1006400013000400F0E10020A8E4002000000000F6
:10065000D8080008FD012400CCE10020ACE4002013
:100660000000000099EF020818202E0098E10020F9
:10067000D0E40020000000009D95000806101A003C
:10068000B8CC002000E5002000000000CDE8030801
:10069000FB010100B4CC00201CE50020000000009C
:1006A00011960008FC01090080CB002020E5002005
:1006B000000000002196000816023F0040CB0020F9
:1006C0002CE5002000000000218400083400100008
:1006D00070CA00206CE5002000000000A1E80308BB
:1006E0001102080048CA00207CE50020000000003C
:1006F000DC0800081212040040CA002084E5002033
:1007000000000000E40800081220100030CA002099
:1007100088E5002000000000E8080008F901040056
:10072000A0C6002098E500200000000011960408F3
:10073000FA01020088C000209CE5002000000000B3
:100740009D8600080202030088B50020A0E5002075
:1007500000000000000000000C02040044B500206E
:10076000A4E500200000000059850008FE011400E7
:1007700054C00020A8E5002000000000F18300081C
:100780000000000003000000AE014A015E012C01E0
:1007900064010100000001000A019A01001E0A0024
:1007A0000000000000000000000100000005000043
:1007B0000102030000000000000000000000000033
:1007C000000000000080070000000000040101009C
:1007D0006C160000000000000100E8036400040A39
:1007E000000114001E00900100000000013C000008
:1007F0000000000001000000020200003E010000B5
:1008000000000000000001000000000000000000E7
:1008100000000000000000000000000020000101B6
:10082000000020003200C800D007960014003200FB
:100830002800B00440060005500014000F00080016
:1008400064000100000005000A000000C409000067
:10085000190000000000000000000000000000007F
:100860000000000000000000000000000000000088
:100870000000000020030000000000000000000055
:100880000000000000000000000000000000000068
:100890000000000000000000000000000000000058
:1008A0000000000000000000000000000000000048
:1008B0000000000000000100000500002801000009
:1008C0007E05EA05B4053200E803D0070000040104
:1008D000F401140013000000080040300000000084
:1008E00001010101FFFFFFFF0000000100000548BA
:0808F0004B4634000008000033
:1008F8001A030000000000000000000000000000D3
:1009080000000000000000000000000004030904CB
:100918001201000200000040830420570002010277
:1009280003010000E9D10008F9850008F5850008F1
:10093800F185000885960008ED850008E98500081E
:1009480078730508A93401088D160108E93F0108E4
:100958000000000000000000ED3C0108093C01080F
:10096800000000000000000000000000C5110108A0
:100978009186000885860008299C0008459C000887
:100988003D8600080D9C0008F19B00080068214C7A
:100998001F0000001C0000001F0000001E000000D7
:1009A8001F0000001E0000001F0000001F000000C4
:1009B8001E0000001F0000001E0000001F000000B5
:1009C800FF01FF0000000401000000000000000219
:1009D80010000000070000000000000000000000F8
:1009E80001020304060708090403090412010002AE
:1009F800EF020140830456320002010203010000A5
:100A08001201000202020040830440570002010262
:100A18000301000009022000010104C0320904009A
:100A2800000208065005070581024000000705017D
:100A38000240000009026400030100C032090400FA
:100A4800000103000000092111010001222600070E
:100A580005830308000A080B0102020201000904C9
:100A68000100010202010005240010010524010013
:100A78000204240202052406010207058203080075
:100A8800FF09040200020A000000070501024000F5
:100A9800000705810240000009024300020100C06E
:100AA80032090400000102020100052400100105BA
:100AB800240100010424020205240600010705821E
:100AC800030800FF09040100020A000000070501ED
:100AD800024000000705810240000000FF000000FE
:100AE800C07D0508000000000000000000000000B4
:100AF80000000000000000000000000000000000EE
:100B0800000000000000000000FFFF0000000000DF
:100B1800AA55050100000100947D050800000000A9
:100B280000000000000000000000000000000000BD
:100B380000000000000000000000000000000000AD
:100B4800FF1FFF1F05010905A101A10005010930CB
:100B58000931093209330935093409400938158141
:100B6800257F750895088102C0C00000090222008F
:100B7800010100E03209040000010301020009211B
:100B8800110100012226000705830308000A00005E
:100B9800000000000102030401020304060708091B
:100BA8004D3F0108513E0108A94201088912010878
:100BB8000118010899120108B5120108611201080B
:100BC8005112010800000000000000002D202D2D0A
:100BD800202D2D2D2D202D2D2D2D00000000000065
:100BE8000000000000000000000000AA550B0100F2
:100BF80000AA5507010000AA550902000000AA55DD
:100C080003009F0001000000C0120000B45A002039
:100C180000000000D85A0020000000000100000079
:100C28006581010800000000E87E050820700020AA
:100C3800702D7200FFFFFFFFD6010000B80B000007
:100C48000101010000010101002D202D2D202D2D75
:100C58002D2D202D2D2D000000000000000000008B
:100C6800000000000000000000000000000000007C
:100C7800649505080000000000000000F0950508D4
:100C880001000000FA00000001000000010000005F
:100C980001010000166E00200000F40101000000B0
:100CA800146E00200000F40101000000126E002004
:100CB8000000F40101000000106E00200000F401A3
:100CC800010000000E6E00200000F4010100000089
:100CD8000C6E00200000F401010000000A6E0020E4
:100CE8000000F401010000007D8901084189010824
:100CF80064830508046E002005320100026E00209E
:100D0800E803D00701000000006E0020E803D007C8
:100D180001000000FE6D0020E803D007010000007C
:100D2800FC6D00201E00B80B01000000FA6D0020C9
:100D38001E00F40101000000F86D0020140064009A
:100D480001000000066E00203200E80301000000E8
:100D5800F66D00200000C80001000000CA6D0020E8
:100D680000C80100C96D002000500100C86D0020B6
:100D7800005A0100C66D002002000000F08305083B
:100D880034F105083CF10508CAE300200100C40954
:100D980000000000C8E300200100C40900000000B2
:100DA800C6E300200100C40900000000C4E30020DD
:100DB8000100C40900000000C0E300200100C409CC
:100DC80000000000C2E300200100C4090000000088
:100DD800BEE300200100C40900000000BCE30020BD
:100DE8000100C40900000000916B002000C8010048
:100DF800906B002000C801008E6B00200100C80025
:100E0800010000008C6B00203200307532000000B9
:100E18008A6B0020055A0500876B002000FF01003F
:100E2800896B00200100000018060020856B002057
:100E38000300000088A40508866B002000FF01005D
:100E4800886B00200100000018060020846B002039
:100E58000300000088A40508F1880108A18801089A
:100E6800FC830508286E0020EE02CA080100000075
:100E7800266E002000C8010064000000256E0020D6
:100E880000C8010064000000246E00200200000079
:100E9800C08405087E6B002080C1803E05000000EC
:100EA8007C6B002080C1803E05000000766B00202E
:100EB80080C1803E05000000746B002080C1803E28
:100EC800050000006F6B002000FF0100686B002028
:100ED8006400F40101000000676B002004000000BA
:100EE800CC840508666B002002000000E084050839
:100EF800076C00200D000000EC840508046C00203D
:100F080000640100026C0020320010270A00000073
:100F1800016C00200D000000EC840508006C002026
:100F28000D000000EC840508FF6B002002000000A3
:100F38002485050800000000000000003085050831
:100F4800C05500209CFF2C01000000006E7100209D
:100F5800E0150C170000000070710020020000006E
:100F680068850508346E00200100FF7F010000003D
:100F7800336E00200200000074850508096C00200B
:100F88000300000084850508086C002003000000A9
:100F980084850508A86D00200000E8030100000012
:100FA800A66D00200000E80301000000A46D0020E9
:100FB8000000E80301000000A26D00200000E80323
:100FC80001000000A06D00200000E80301000000FF
:100FD8009E6D00200000E803010000009D6D0020C8
:100FE800001401009C6D0020030000009485050892
:100FF800B46D00200000F40101000000B26D002073
:101008000000F40101000000B06D00200000F401B0
:1010180001000000AE6D00200000F4010100000096
:10102800AC6D00200000803E01000000AA6D002089
:101038000000803E01000000DD6D00201964010001
:10104800DC6D002002000000A4850508DA6D002090
:10105800E803D0070A000000D86D002000640100F2
:101068000A000000CD6D002000640100CC6D002056
:1010780000640100D46D0020006401000A00000033
:10108800D36D0020006401000A000000D26D00202A
:10109800006401000A000000D76D00200064010010
:1010A8000A000000D66D0020006401000A0000005C
:1010B800D56D0020006401000A000000D16D0020F9
:1010C80001FF01000A000000D06D002001FF0100AF
:1010D8000A000000CF6D002001FF01000A00000097
:1010E800126C00200000F40101000000106C0020C8
:1010F8000000F401010000000E6C00200000F40163
:10110800010000000C6C00200000F4010100000048
:101118000A6C00200000F40101000000C56D0020E9
:1011280000640100C46D002000640100C36D00204C
:1011380000640100C26D0020FF080100C16D00209D
:10114800016401006D87010831870108B085050831
:10115800C06D002000640100BE6D00201400E8038B
:1011680001000000BC6D0020E80330750A00000093
:10117800BA6D002000C80100B96D002000C8010048
:10118800B86D002000C80100B76D002000640100A0
:101198000A000000F46D00200000D00701000000E4
:1011A800EF6D002000C80100EE6D002000C80100AE
:1011B800ED6D002000C80100F26D00200000D0078E
:1011C80001000000EC6D002000C80100EB6D00205C
:1011D80000C80100EA6D002000C80100F06D002081
:1011E8000000D00701000000E96D002000C80100E0
:1011F800E86D002000C80100E76D002000C801006C
:1012080000000000A184010820860508FD6B00206D
:1012180035000000BC860508FC6B002000C80100F2
:10122800FA6B0020E803D0070100000048414B5248
:101238004346343035000000836B00200003010072
:10124800826B002000030100ED830108B1830108CF
:10125800948705086D83010821830108048805081F
:1012680029840108E5A8010884880508806B002006
:1012780001030100E5890108B9890108788B05088F
:10128800B182010871820108E88B0508B78401085A
:1012980009B70108848C0508DDA4010800000000D6
:1012A8002C8D05086DAC0108458A0108C88D050814
:1012B8000985010800000000488E0508E18501083D
:1012C8008D850108AC8E05087186010835860108F0
:1012D800488F0508A9870108F1870108C88F050804
:1012E800CB6D002001060100518501081D8501080C
:1012F800C4900508AD86010849A90108349105087C
:1013080025880108D1A9010814920508B66D0020A6
:10131800010301007184010841840108E89205086D
:10132800118A0108000000004C930508F1820108A9
:10133800B5A80108B09305080000000000000000EF
:101348003C9405087988010849AA0108BC94050855
:10135800626B002088136F1701000000646B002087
:1013680088136F17000000003E4B002000000000AB
:10137800000000003C4B00200000000000000000BE
:101388003A4B00200000000000000000384B00200D
:101398000000000000000000364B002000000000A4
:1013A80000000000344B0020000000000000000096
:1013B800A00400200000000000000000386B00209E
:1013C8000200000044960508606B002088136F1720
:1013D800010000000056002088136F17000000006D
:1013E800058201080000000050960508A27100203F
:1013F80001000000A4960508025600200100000024
:10140800B0960508F855002002000000B8960508B7
:101418000000000000000000C4960508F1810108E2
:1014280000000000609705080000000000000000B0
:10143800B497050800000000000000002498050883
:10144800FC550020E0150C1700000000000000000B
:10145800047A00200800000000000000F479002051
:1014680008000000700306087C03060888030608C5
:1014780094030608A0030608AC030608E40006085F
:1014880044380608503706081C0306080461060895
:1014980074EE050864030608680306086C0306086A
:1014A800B8030608BC030608C0030608B8350608D2
:1014B800C40306081900C800F40120030100000055
:1014C80000000100E0010000FFFFFFFF0801FFFF2F
:1014D800FF000000685E0C00E5170108D11601083E
:1014E80085420108000000004D1201083D3E010838
:1014F80021160108B53D01080000000000000000A9
:10150800091201089D11010891110108B933010858
:10151800D53301089D33010881330108653301087B
:101528009D170108AD160108C5410108000000001B
:1015380021120108B93D0108F5150108153D0108FA
:101548000000000000000000151201080100000062
:10155800A00F0000B80B00000102FFFF010000000F
:101568000000803F000000000000000000000000B4
:10157800FFFFFFFFFF0000007D000000FFFFFFFFEF
:101588000000803F00000000000000000000000094
:101598000000803F00000000000000000000000084
:1015A8000000000000000000000000000000000033
:1015B80000000000000000000000803F0000000064
:1015C8000000000000000000010000000000803F53
:1015D800FFFF0000FFFFFFFF045D06080000080290
:1015E800050303000C5D060801000802050403005A
:1015F8004C2006080200FE010110030054F50508FE
:101608000300140200030000145D060804001F0212
:10161800010008001C5D060805001F020101080002
:10162800080000008D1101088911010885110108C1
:101638007911010875110108811101087D1101084E
:10164800010000000060024010600240000000003D
:1016580000000000000B0000000000000000000077
:101668000000000000600240286002400100000005
:1016780000000000060C0000000000000000000050
:1016880000000000006002404060024002000000CC
:1016980000000000100D0000000000000000000025
:1016A8000000000000600240586002400300000093
:1016B80000000000160E00000000000000000000FE
:1016C800000000000060024070600240040000005A
:1016D80000000000200F00000000000000000000D3
:1016E8000000000000600240886002400500000021
:1016F80000000000261000000000000000000000AC
:101708000000000000600240A060024006000000E7
:101718000000000030110000000000000000000080
:101728000000000000600240B860024007000000AE
:1017380000000000362F000000000000000000003C
:101748000000000000640240106402400000000035
:101758000000000000380000000000000000000049
:1017680000000000006402402864024001000000FC
:101778000000000006390000000000000000000022
:1017880000000000006402404064024002000000C3
:1017980000000000103A00000000000000000000F7
:1017A800000000000064024058640240030000008A
:1017B80000000000163B00000000000000000000D0
:1017C8000000000000640240706402400400000051
:1017D80000000000203C00000000000000000000A5
:1017E8000000000000640240886402400500000018
:1017F8000000000026440000000000000000000077
:101808000000000000640240A064024006000000DE
:10181800000000003045000000000000000000004B
:101828000000000000640240B864024007000000A5
:101838000000000036460000000000000000000024
:1018480000000000A05D0608AC0B060800000000C0
:10185800591E0208A08601000400000000000000D4
:101868000000000000000000000000000000000070
:101878000000000000000000000000000000000060
:1018880000000000A05D06081861060800000000BE
:1018980035EE0208E8030000040000000000000024
:1018A8000000000000000000000000000000000030
:1018B8000000000000000000000000000000000020
:1018C800000000008CF80508343606080000000007
:1018D800557803087D0000000600000000000000A5
:1018E80000000000000000000000000000000000F0
:1018F80000000000000000000000000000000000E0
:1019080000000000F05C0608000000000000000075
:10191800D52F0308E80300000300000000000000C2
:1019280000000000000000000000000000000000AF
:10193800000000000000000000000000000000009F
:101948000000000020610608000000000000000000
:10195800396604081027000003000000000000009A
:10196800000000000000000000000000000000006F
:10197800000000000000000000000000000000005F
:1019880000000000105D06080000000079A20108B0
:1019980055FA02085F76000005000000000000000C
:1019A800000000000000000000000000000000002F
:1019B800000000000000000000000000000000001F
:1019C80000000000A45F06080000000000000000FE
:1019D800615A030810270000010000000000000001
:1019E80000000000000000000000000000000000EF
:1019F80000000000000000000000000000000000DF
:101A0800000000002C610608000000000000000033
:101A180039EE0208E803000005000000000000009D
:101A280000000000000000000000000000000000AE
:101A3800000000000000000000000000000000009E
:101A480000000000386106080000000000000000E7
:101A58001D260208204E00000300000000000000C0
:101A6800000000000000000000000000000000006E
:101A7800000000000000000000000000000000005E
:101A88000000000048610608000000000000000097
:101A980021240208204E000003000000000000007E
:101AA800000000000000000000000000000000002E
:101AB800000000000000000000000000000000001E
:101AC8000000000058610608000000000000000047
:101AD80069340308400D0300030000000000000003
:101AE80000000000000000000000000000000000EE
:101AF80000000000000000000000000000000000DE
:101B080000000000EC0106080000000000000000D2
:101B1800212D03081027000001000000000000002C
:101B280000000000000000000000000000000000AD
:101B3800000000000000000000000000000000009D
:101B480000000000F0080608000000000000000087
:101B5800F9A302081027000003000000000000009D
:101B6800000000000000000000000000000000006D
:101B7800000000000000000000000000000000005D
:101B880000000000F45C06080000000000000000EF
:101B980001F5020850C30000010000000000000029
:101BA800000000000000000000000000000000002D
:101BB800000000000000000000000000000000001D
:101BC8000000000040F405080000000000000000CC
:101BD80019F20208A86100000100000000000000DE
:101BE80000000000000000000000000000000000ED
:101BF80000000000000000000000000000000000DD
:101C080000000000686106080000000000000000F5
:101C1800CDE40208A08601000100000000000000D9
:101C280000000000000000000000000000000000AC
:101C3800000000000000000000000000000000009C
:101C48000000000014020608000000000000000068
:101C5800B93B0308A00F00000100000000000000CD
:101C6800000000000000000000000000000000006C
:101C7800000000000000000000000000000000005C
:101C88000000000074610608000000000000000069
:101C980075D40208102700000100000000000000B1
:101CA800000000000000000000000000000000002C
:101CB800000000000000000000000000000000001C
:101CC80000000000E4FF050800000000000000001C
:101CD80011CD02081A4100000100000000000000B8
:101CE80000000000000000000000000000000000EC
:101CF80000000000000000000000000000000000DC
:101D08000000000000F405080000000000000000CA
:101D1800B91A0108102700000100000000000000A7
:101D280000000000000000000000000000000000AB
:101D3800000000000000000000000000000000009B
:101D480000000000B80B06080000000000000000BA
:101D580091BE01081A4100000100000000000000C7
:101D6800000000000000000000000000000000006B
:101D7800000000000000000000000000000000005B
:101D8800000000008061060800000000000000005C
:101D980021210108400D03000000000000000000A0
:101DA800000000000000000000000000000000002B
:101DB800000000000000000000000000000000001B
:101DC8000000000088610608000000000000000014
:101DD800F1ED0208400D03000000000000000000C3
:101DE80000000000000000000000000000000000EB
:101DF80000000000000000000000000000000000DB
:101E080000000000906106080000000000000000CB
:101E1800F1DE020850C300000300000000000000CB
:101E280000000000000000000000000000000000AA
:101E3800000000000000000000000000000000009A
:101E4800000000009C61060800000000000000007F
:101E58009523020840420F00000000000000000027
:101E6800000000000000000000000000000000006A
:101E7800000000000000000000000000000000005A
:101E880000000000A8610608000000000000000033
:101E9800395A030850C30000000000000000000089
:101EA800000000000000000000000000000000002A
:101EB800000000000000000000000000000000001A
:081EC800000000000000803F53
:1080000003685A1C02601970704700BF2DE9F047E1
:10801000089C2578002B804689460CBF4FF0200A2B
:108020004FF0300A661C25B3002A26DD334601E0F6
:10803000024698B113F8011B501E0029F8D1971E73
:1080400060B13D46013D51464046C8476B1C002B80
:10805000F8DC257827EAE770013045B1041B294692
:108060004046C847301916F8015B002DF7D1BDE82E
:10807000F087002A03DC2846F9E70020EEE7571EC8
:10808000DFE700BF2DE9F04714461D4606464FF4D2
:108090007A720023204629464DF034FA4D4BDFF822
:1080A00048814D4A4D4F034488FB03101844D917AB
:1080B00082FB032CC1EB601088FB002887FB0327A1
:1080C0009C44474AC1EBEC2CC0EB001E82FB0C2900
:1080D000A3EB8E0E1F44434A86F806E0C1EB274708
:1080E0004FEAEC7E08EB000ACEEBA90E82FB07827A
:1080F0004FEAE0780EEB4E0EC8EB6A18ACEBCE0CF4
:10810000C8EB0818DFF8E4E086F804C0A0EB8800AC
:1081100070718EFB0303F817C0EBE21240F2B5500A
:1081200000FB1272C1EBE353B2F5896F4FEA83078C
:108130003CDA40F2DA239A4242DCB2F5B77FB4BFB0
:108140004FF0000E4FF0010E4FEA4E09DFF8A0800D
:1081500009EB0E0308EBC3031FFA8EFCD88A09EB68
:108160000E0108EBC10116310B2301E031F8020DBD
:10817000904218DD013BF9D1CE44012338F83E008E
:10818000B37007F5FA670132121ABC44F270A6F810
:1081900000C0204629464FF47A7200234DF0B2F910
:1081A0003281BDE8F0870133DBB2E9E74FF0030C21
:1081B000E64640F29650DFF838804FF00609CEE7E9
:1081C0004FF0020CDFF82880E64640F229404FF0DD
:1081D0000409C4E780BC92C7C5B3A29107452EC26B
:1081E000ABAAAA2A73B06D1689888888792D0311E5
:1081F000307105080028F0B403DA2D230B704042DB
:108200000131092804464FF0010307DD03EB830326
:108210005B00B0FBF3F2092AF8D883B10F48A0FB4A
:108220000326B4FBF3F2092A02F1570C02F13007DE
:1082300009DD03FB1244F30801F801CBEFD1002361
:108240000B70F0BC704703FB1244F30801F8017B8C
:10825000E5D100230B70F0BC704700BFCDCCCCCC77
:10826000884270B44FF0010442D301FB04F4B0FB28
:10827000F4F58D42F9D2ECB142BB092D04FB150097
:1082800005F1570605F130020EDDB4FBF1F403F8F9
:10829000016B7CB1B0FBF4F5092D04FB150005F171
:1082A000570605F13002F0DCB4FBF1F403F8012BC2
:1082B000002CEFD100221A7070BC704703F8016BDC
:1082C000B4FBF1F4002CF5D0B0FBF4F5092D04FB60
:1082D000150005F1370605F13002EFDCB4FBF1F4CF
:1082E00003F8012B002CEFD100221A7070BC7047EC
:1082F0000546002AEAD1C0E790ED057A90ED004AE4
:10830000D0ED066AD0ED014AD0ED047A90ED035A23
:10831000D0ED025AA4EE007AB0EE406AB0EE470A01
:10832000B0EE667AA4EE867A67EEC07AA5EE407A61
:10833000E5EE867A80ED057AC0ED067A704700BFDB
:10834000D0ED057A90ED013AD0ED003AD0ED064A35
:1083500090ED024A90ED077A90ED035A90ED086A8D
:10836000D0ED045AC0ED067AF0EE406A27EE830A9B
:10837000C0ED056AA3EEA60A80ED087AA4EE240AF1
:10838000A5EE470AA5EEC60A80ED070A704700BFB2
:10839000D0ED007A90ED017A30EE670AE7EE007AD0
:1083A000B0EE670AC0ED007A704700BF704700BFAB
:1083B00030B414220023342504240221C270012287
:1083C0008571C4710370C3728373C373417041724A
:1083D00082700272827230BC704700BF0023062197
:1083E0004FF47A720170C0E901230373704700BF34
:1083F00030B43123322230254FF47F44FF214370C3
:10840000427101230022C5700482817403720370DB
:108410000371837042818281C28130BC704700BF8A
:108420002DE9F04F3149324B83B001F5807B01904B
:108430002F274FF000092F481022012603E020309B
:1084400098420BD002799742F9D102680C68A24297
:1084500009D02030984206F10106F3D12031594568
:108460003AD00F79E7E744794D79A542F1D19446A6
:10847000019A214809EB490502EB050A57558AF88C
:10848000016000F572751D4E624603E0A8421AD0E5
:1084900050F82C6FB242F9D10679A642F6D1CF68D6
:1084A00006464FF0000C96468046F268BA4216D057
:1084B0000CF1010CBCF1030F06F10C06F5D140469E
:1084C000A8427246E4D14FF0FF3C203159458AF86A
:1084D00002C009F10109C4D103B0BDE8F08F0869F9
:1084E00032698242E4D14FFA8CFCEEE748B30508CA
:1084F00080E20508C0D8050880E2050800000140B8
:10850000144BFF22F0B54FF0FF34C27002710272BB
:1085100042724273827303F10C0EA446172716268B
:108520002325002202EB820281189E4585544E705D
:108530008F7081F803C00C710AD093F90620DD79A1
:108540001E7A5F7A93F90AC093F90B400633E9E784
:10855000F0BD00BF9071050810B41F210124032253
:108560000023047041708270C3705DF8044B704743
:1085700070B4034600F11001FF221A705A700233E2
:108580008B42FAD10E4B00224FF0FF3103F10C0663
:1085900000EB42050C469E4200F8124069700CD078
:1085A00093F9044093F9051013F8032F00EB4205EB
:1085B0009E4200F812406970F2D170BC704700BF53
:1085C000A471050830B41D6995420AD314460A46C1
:1085D00021448D42996938BF2A1B214430BC4DF09B
:1085E0002FBA30BC704700BF002070470120704791
:1085F00001207047002070474FF40070024B10605C
:108600009B680B6000207047A8C60020013A30B478
:10861000D2B28C1C04EB42040025020F092AD3B20B
:1086200003F130028ABF37330A700B704D7002318C
:108630008C424FEA0010F0D130BC70470B4A0C4B13
:1086400010681B681A22C0180A8001D109487047B7
:1086500010B5094B09491C680822FFF7D7FF2046CF
:1086600004220749FFF7D2FF024810BDE8F7FF1FB9
:10867000ECF7FF1F88010020EAF7FF1F8A010020A6
:108680009A01002004230B8000487047A4010020B9
:1086900012230B8000487047A80100202C220223DF
:1086A00002704370704700BF08307047704700BFCA
:1086B000816170472A4A13685268A3F5000307EEE8
:1086C000903A284BB8EEE77AD3ED016AD3ED027AFF
:1086D00093ED046AD3ED085A93ED075AE7EE276A43
:1086E000A2F50002D3ED007AE7EE267A07EE102A13
:1086F000F8EEC76A93ED057AA7EE276A93ED037A41
:10870000A7EE867A93ED0B6AE6EE865A93ED0A6A37
:10871000E6EE275A93ED096AA6EE275A93ED066A0C
:10872000A5EE276AA5EEA66AA6EE867AB5EE407A91
:10873000F1EE10FA18BFBDEEC77AF5EE407A18BF19
:1087400080ED007AF1EE10FA08D0FDEEE77A4FF4F2
:10875000807317EE902A92FBF3F30B60704700BF13
:1087600060170020DC7500207047704770476D4B24
:108770002DE9F04F9C686C4BB3F80AE0B3F8048025
:108780009A894FEA0E2AB4EB0A044FEA1E6B4FF0A7
:10879000000587B065EB0B05CDE900450746009C59
:1087A0001889019EA0FB044500FB0655E00940EA3C
:1087B00045604FEA08448C46E9114FEA184510EB32
:1087C0000408D888009C41EB0509CDE90489A0FB89
:1087D0000445B3F8028000FB0655200A40EA056014
:1087E0004FEAC83429124FEA584510EB040841EB10
:1087F00005090099A2FB010102FB06114FEAD05ABC
:108800004AEA412A1AF5FA634FEAE15B4BF10004A8
:10881000B3F5FA6FCDE9023474F10003414E64DA26
:108820000524AAFB040104FB0B1100FB0BF40AFB5B
:108830000144DDE90423A0FB0A0121444D104FEA65
:108840003004121B4FEA900463EB050344EA817481
:10885000B8EB0408CDE90423DDE9023433484FEADC
:10886000A10569EB05094FF0FF31834274EB010369
:1088700026DA40F6AC501AEB00024FF000014BEB49
:10888000010302FB03F1A2FB022303EB4103D4002B
:10889000DD00101B45EA527563EB0501DDE9044577
:1088A00024184D41CDE904450B24A2FB040104FB2F
:1088B000031149104FEA3000B8EB000869EB0109D9
:1088C000DDE900325343009ADDE90201A2FB02AB6D
:1088D0000BEB430B4FEADA7242EA4B02801A4FEA83
:1088E000EB7361EB0301CDE9020197B1F168A1FBE4
:1088F000082301FB0933540D5D1544EAC324DDE967
:108900000423A21A65EB03031D46D30B43EA454338
:108910003B60BCF1000F02D0029BCCF8003007B0E6
:10892000BDE8F08F60170020A875002024FAFFFF33
:108930002DE9F04FDFF8DCC1754CDCF810502288CF
:10894000B4F90AA0C2EB25135200C2EBE502B4F958
:1089500002505B436A43B4F904501B135D43AD13EB
:1089600005EBE225B5F5FA324FEAE57B85B04BF130
:10897000FF33CDE90023DDE900325343009AA561BE
:10898000A2FB0289CDE90201B4F9082001990098FF
:1089900009EB43095143D31700FB0311A2FB00234A
:1089A0000B444FEAEA7B0AFB09F11F0308FB0B1398
:1089B000AAFB080119444FEA102A4AEA016A160381
:1089C0004FEA212B47EA12571AEB0602E6884BEBD7
:1089D000070312F1000A43F5004BAAFB060106FB50
:1089E0000B114A10CB1752EA030100F08E80B4F944
:1089F0001060009806FB09F1F71708FB0711A6FBAA
:108A000008673944B4F90E808B4601994FEAE8793A
:108A100008FB01F100FB0911A8FB00898944DCF87F
:108A200014104FEA4947C1F5801C47EAD837B246CF
:108A30004FEA4846B4F90C801AEB060A66464BEB3F
:108A4000070BF7174FEAC806019600260096F907AC
:108A5000DDE900674FEACC7016EB0A0647EB0B071F
:108A600041EA5C01801B61EB070140F6354C894609
:108A7000A0FB0C010CFB09114CF044FDB4F91620CD
:108A8000B4F914A04E13470B47EAC14702FB06FC9A
:108A9000D31707FB03CCA2FB07236344564307FB12
:108AA0000366A2FB07233344560E46EAC316321868
:108AB0004FEA636747EB010380460AFB01F14FEA87
:108AC000EA7B08FB0B17AAFB08013944C60C46EAEF
:108AD000413612EB06084FEAE147B4F9122043EBA6
:108AE00007094FEA182141EA096113010B44029A70
:108AF0000AB11B0A1360039B23B105EB8505803582
:108B00002D121D6005B0BDE8F08F0023EFE700BF18
:108B1000BC7500206017002070472DE9F041334BF1
:108B2000334E1A8B7489B6F91450B6F90480B6F92D
:108B30000E70B6F920C0DB69121B34895443E2136E
:108B4000B6F912401544E40294FBF5F4B6F902506C
:108B50001444A4F57A6E0EFB0EF20EFB05F50EFB27
:108B600008FEB6F90C80F4611213574302FB08F2B9
:108B7000121402EB6E32ED1205EBE7270232B6F962
:108B80000050B6F806E0921002F5004207EB8507A8
:108B90000EFB02F207FA0CF74FEAD23E02374CF214
:108BA0005032A3EBA70742FA0CF37B4355BF5B009F
:108BB000B3FBFEF3B3FBFEF35B0078B11A1202FBCA
:108BC00002F540F6DE326A430A4D12145D4302EBB1
:108BD000254202F6CF6203EB2213036021B10A2380
:108BE0005C43083424110C60BDE8F081601700205C
:108BF0008475002043E3FFFF4FF400630383704755
:108C00004FF4006303837047012380F850307047AE
:108C1000F0B4037C456902681F2B37D9203B202123
:108C2000546899400C4223D010249C40D160D460F9
:108C30005168D940CE074ED4EFF31183502282F30E
:108C40001288EA6B1168C90709D45468002C52D104
:108C5000D5E909618E4243D1012285F86020DBB25B
:108C600083F31188037C02681F2B194614D9203B1B
:108C7000082150689940084200D0D1600421506812
:108C800001FA03F3184223D1F0BC70472024166880
:108C90009C4026420FD11946082310688B40184289
:108CA00000D093600423106803FA01F10842EBD06E
:108CB0009160F0BC704710219940946091601168F8
:108CC000D940CC07B8D5012101FA03F39360B3E78B
:108CD000D360F0BC7047012101FA03F3D360ABE726
:108CE000AF690F44D7600ED82E69711A5160AC621B
:108CF000002185F86010116841F00101DBB21160BC
:108D000083F31188AEE7711A5160AE62F0E700BFDD
:108D1000F0B4B34BB3491A780B789A4240F007810C
:108D2000B14B1A78002A68D0B04B1978B04B0029A3
:108D300065D11868B3F8305141628489012A44EA48
:108D400005048481A3F8301157D0D3F83401B3F867
:108D5000645241628489022A44EA05048481A3F8AA
:108D600064124AD0D3F86802B3F8985341628489F8
:108D7000032A44EA05048481A3F898133DD0D3F86C
:108D80009C03B3F8CC5441628489042A44EA050464
:108D90008481A3F8CC1430D0D3F8D004B3F80056B3
:108DA00041628489052A44EA05048481A3F80016F7
:108DB00023D0D3F80406B3F8345741628489062AD5
:108DC00044EA05048481A3F8341716D0D3F8380791
:108DD000B3F8685841628489072A44EA050484810B
:108DE000A3F8681809D0D3F86C28B3F89C495162ED
:108DF000908920439081A3F89C19F0BC70475C686F
:108E0000198961602568186845F0010540F20D3147
:108E10002560A0F848108489012A44F48074848174
:108E2000EBD0D3F83841B3F83C51D3F83401656046
:108E3000256845F001052560A0F848108489022ABC
:108E400044F480748481D8D0D3F86C42B3F8705263
:108E5000D3F868026560256845F001052560A0F833
:108E600048108489032A44F480748481C5D0D3F8DF
:108E7000A043B3F8A453D3F89C036560256845F07C
:108E800001052560A0F848108489042A44F4807400
:108E90008481B2D0D3F8D444B3F8D854D3F8D004F2
:108EA0006560256845F001052560A0F848108489B3
:108EB000052A44F4807484819FD0D3F80846B3F81F
:108EC0000C56D3F804066560256845F00105256059
:108ED000A0F848108489062A44F4807484818CD0D8
:108EE000D3F83C47B3F84057D3F838076560256896
:108EF00045F001052560A0F848108489072A44F44C
:108F0000807484813FF479AFD3F87028B3F8740883
:108F1000D3F86C385060106840F001001060A3F87E
:108F200048109A8942F480729A81F0BC70475C00C4
:108F3000E618304D15F83660032E3FF6F1AEDFE847
:108F400006F05D261C02E01805EBC0004468661EB2
:108F5000012C46603FF651AF013303F00303D8B252
:108F6000824208703FF4DCAE03EB4303DB00EA18F7
:108F700002200021E85451603FE7E11805EBC101F0
:108F80004868461E01284E603FF637AF0DE0E118F5
:108F9000C90068184668771E012E47603FF62DAF5E
:108FA00002274FF0FF366F544660E618F600AF19FF
:108FB0001148397B00680139C9B23973002940D0A2
:108FC0004FF47A722344B2FBF0F200FB02F0B0F5EA
:108FD0007A7F05EBC30518BF01326A60A0E600BFC7
:108FE0004CA100204DA10020A4320010A03200109E
:108FF000F4D7002050A10020100E002070B11D49B0
:10900000012600220F890132002F18BF002690424E
:1090100001F5B271F6D1002E3FF482AE164A126805
:1090200042F21076E018B6FBF2F102FB1162012663
:1090300005F8306002B13144234405EBC305696093
:109040006EE6BF68B7FBF0F100FB11700327AF5568
:1090500000B101311C44013305EBC40503F00303E7
:10906000934269603FF45CAE00293FF459AE013988
:10907000696055E6D4CC0020100E002010B5027CAB
:1090800001681F2A4FF020030ED94C68203A934004
:109090001C4208D00B4A406800241470026822F079
:1090A00001020260CB6010BD0C6893401C42FAD0F4
:1090B000044A406800241470026822F00102026031
:1090C0008B60F0E72F8700202DE9F041C4002318C2
:1090D0009B00BA49CA585268958AADB2EFB2FE07F2
:1090E0000B4465D4BE073AD5BFF35F8F1D7EEDB24A
:1090F000012D00F0C480B24E138BBFF35F8F231895
:1091000001EB83031D7E022D00F0D980231801EBB3
:1091100083031D7E032D06D19B7E23B196F821305B
:10912000002B40F02681938896F920C043F4806399
:109130009380231801EB83031B7E013363450CD11D
:1091400096F82230002586F82150002B40F09080C0
:10915000204401EB800000234375BDE8F081984E68
:1091600017F0040F96F920C051D117F0400700F016
:10917000BB80178A1D6AFFB205F80C705FFA8CF588
:109180006F1C93F818E07BB2DF1CBE4586F82030D8
:109190009C4600F01781271801EB87073F7EBB42F2
:1091A000C7D105F1020C4FFA8CFC86F820C0C0E74D
:1091B0001588834E25F400652D042D0C1580158827
:1091C00045F4806515809D7E002786F82070002D6F
:1091D00040D096F82150002D39D0231801EB83039D
:1091E00001251B7E86F82150022B03D1138843F4FE
:1091F00000631380231801EB83039B7D43F001037D
:109200001382204401EB8000037EBDE8F0819F7E45
:1092100096F821504FF0010E86F822E0002F60D022
:10922000002D7DD1231801EB83035B7E002B00F022
:10923000A98013880CF1010C4FFA8CFC43F40073E5
:1092400086F820C013801388DF05FCD471E7DB7D2E
:10925000FF2BC2D0231801EB83039D7D05F0FE0593
:109260001582DB7DFF2BCCD0FF2386F82030C8E7AA
:10927000938823F440731B041B0C938068E79B7E48
:109280004F4E002B3FF438AF96F82130002B3FF4BF
:1092900033AF138823F480631B041B0C1380BFF3CC
:1092A0005F8F138B138886F8225043F4007313806A
:1092B000938896F920C043F48063938039E79B7EBE
:1092C000002B3FF423AF96F82130002B3FF41EAF64
:1092D000138896F920C023F480631B041B0C1380B1
:1092E00017E0002D9ED0A4E72D067FF522AFBCF13C
:1092F000FF3F6ED0DD6915F80C5015820CF1010CA2
:109300001D7E4FFA8CF39D429C4686F820307FF4F8
:1093100010AF938823F480631B041B0C938008E731
:109320001F7ED3F820805FFA8CF5AE44022F4FFAEF
:109330008EFE17882ED927F480673F043F0C1780D4
:10934000178AFFB208F80C701788D3F820C047F4CA
:1093500000731380138ADBB20CF80E30938805F18A
:10936000020C4FFA8CFC43F4806386F820C0938093
:1093700069E7938896F920C023F480631B041B0CD3
:109380009380D6E61388012543F48073138086F812
:10939000215058E747F400771780178AFFB208F882
:1093A0000C70178AD3F8208005F1030C4FFA8CFC5F
:1093B000FBB286F820C008F80E3044E73C79002064
:1093C00060170020978827F480673F043F0C978040
:1093D000E1E6DD7D15829D7E86F820701DB91B7E3D
:1093E000002B7FF40EAF938823F480631B041B0CC7
:1093F000938006E743F0FABC38B51D4B1B78044652
:1094000000F1250593B104221A4920304DF07AFE6F
:109410002846142218494DF075FE012384F83A308D
:10942000164B1B7873B984F83B3038BD284614229C
:1094300013494DF067FE012384F83A300F4B1B7837
:10944000002BF0D00F4B186859689A68DD68E5600A
:1094500020606160A260DD69186959699A69A2613A
:109460000123E5612061616184F83B3038BD00BFB4
:1094700015790020D8780020C078002016790020C7
:109480006CEE0508E0780020014B18682AF090BBCC
:10949000809E0020012328212922017042708370C0
:1094A000C37070472DE9F84FDDE90A648946174615
:1094B00000212022984605464DF0E6FD5EB1D6E932
:1094C00000327189EB81C3F30F432B82C2F30F4348
:1094D000EA822B83698248464BF01EFB17F0100B83
:1094E00010D1431E70B119F803202E2A18BF09EBC2
:1094F000030104D14AE011F8016D2E2E3ED013F184
:10950000FF33F8D208280246CA46A8BF08224FF007
:10951000000B4FF020336B602B60C5F807304946D5
:10952000284605F108064CF08BFA5A46514630465B
:109530004CF086FA6B1EE81D13F8012FA2F16101B1
:1095400019299CBF203A1A708342F5D105F10B010D
:1095500016F8013BA3F16102192A9CBF203B06F8D3
:10956000013CB142F4D11823C8F30F42EF722B73C0
:10957000A5F81A80AA82EC61BDE8F88FC01A00F144
:10958000FF3BBBF1030FA8BF4FF0030B082B03F108
:10959000010AA8BF0823CA441A46BAE738B52E22E2
:1095A00000214DF071FD0346642440F2DC5040F28E
:1095B0001A4140F26C7240F202251C745882132446
:1095C00019209982DA8240F2753140F643021D83F8
:1095D0009C760E250A241877D9831E2002211A842E
:1095E000012283F82C00197283F82A1083F8225084
:1095F00083F82B409A7383F8252083F82920194695
:109600000248BDE8384018F0FFB900BF78EE050801
:1096100010B500210446012028F0F8FB207010BD91
:1096200038B500240472451EE1B2022028F0EEFB9A
:109630000134082C05F8010FF6D138BD38B50024E7
:109640000546048021462846013425F03FF9082CC0
:10965000F8D1002185F8E210A5F8E410A5F8E6108D
:10966000A5F8E810A5F8EA10A5F8EC10A5F8EE109A
:10967000A5F8F010A5F8F2102846BDE8384025F00E
:10968000E7B800BF2DE9F04F002087B00C461D461B
:109690000121924627F08EF9002D63D005EB0A03D5
:1096A000DFF8D094DFF8D0B4039355461CE0002DCA
:1096B00000F0C581D9F81430AB4264D0D9F810302D
:1096C000AB4200F09780D9E90631AB4252D8A942AB
:1096D00000F26F81691A204647F08AFE039B01352C
:1096E0009D4204F500743DD0D9F82060AE42DED82A
:1096F000D9F83080AE1B4FEAD60AD8F830300AF1DC
:10970000020A9A4506F0070603D3D8F838309A457E
:1097100009D94146504647F039FE8046002800F0FE
:109720004D81C9F8300098F80430002B40F0E280F9
:10973000D8F82870002F00F0DF81D8F83030D8F842
:109740000C20AAEB030A06EBCA0A4346204602EBAA
:109750004A224FF40071B847039B01359D4204F53E
:109760000074C1D10021084627F024F9002007B079
:10977000BDE8F08FA942ADD94FF400720021204618
:109780004DF082FCAAE7522261204123002622707C
:109790006270A070722284F8E70184F8E631D9F88B
:1097A0002800E3704FF0FF33314684F8E42184F859
:1097B000E521C4F8E8014FF4F07284F8EC3184F844
:1097C000ED3184F8EE3184F8EF31201D4DF05CFC72
:1097D00055216FF05502C4F8F061C4F8F461C4F883
:1097E000F86184F8FC6184F8FD6184F8FE1184F866
:1097F000FF2173E74FF40072002120464DF044FC36
:10980000D44BD54F03CBEB23022223704FF0080C2F
:109810009026F8234FF0580EC4F80300227484F801
:109820000DC0C4F8071084F801E0A6706375D9F87C
:109830001010D9F80830D9F81C602273591A216227
:109840004FF0FF3100233F20A1763E21A273E37247
:10985000E3736374A374E3742375A375E37563768C
:10986000E3766377A377E3772076217784F82C205B
:1098700007CFD9F8187084F82830F61B84F82930FF
:1098800084F82A3084F82B3084F82D3084F82E3078
:1098900084F82F3084F8313084F8323084F8333053
:1098A00080236662C4F8470004F1470684F840301C
:1098B00029209423A94F84F846C084F8420084F8F4
:1098C00043300E200D234FF0010C84F8440084F83F
:1098D000453084F830C0716003CF33465527AA263F
:1098E0009A60C4F85200C4F8561084F8FE7184F8E7
:1098F000FF61F3E64FF40072002120464DF0C4FBF7
:10990000D8F84030002E61D104F12007002B77D029
:10991000D8F8303092491122CDE900662046FFF791
:10992000C1FDD8F840301A6C04F1400A002A79D001
:109930001B6B8C49CDE9006638461122FFF7B2FD5A
:10994000D8F84460002E3FF4C9AE4FF4E078CDE97A
:1099500004450CE00024CDE900C4FFF7A3FDB66C7C
:10996000BA46A8F120080EB3B8F11F0F1ED934680B
:10997000356B96F804E011222B46214650460AF139
:10998000200706F11C0CBEF1000FE3D17279336998
:10999000019342F021022B46CDF800C0FFF782FD73
:1099A000B66CBA46A8F12008002EDDD1DDE90445E9
:1099B00094E6E91A204647F01BFD8FE6231F04F5C5
:1099C000FE7243F804BF9A42FBD187E6002BD8F819
:1099D00044200CBF01230223C3EB0613002A3FF4EB
:1099E0007DAE966C013B002E3FF478AE013BB66C29
:1099F000F9D1002E3FF472AEA2464FF40078A6E7EC
:109A0000CDE900663346D9F80C1008222046FFF74E
:109A100049FDD8F84460002E3FF460AEBA464FF4DA
:109A2000F07894E7CDE900663346384611224D4977
:109A3000FFF738FDD8F84460002E86D14EE64FF48B
:109A40000072294620464DF01FFB80220C2384F82B
:109A5000BE2184F8C231D9F81000434BD9F8086010
:109A600084F8B85183FB0032C117C1EB2232B2F542
:109A7000806F84F8B95184F8BA5184F8BB5184F8E6
:109A8000BC5184F8BD51C4F8C601C4F8CA6142DBB8
:109A9000FF2384F8BF3184F8C13184F8C031324BE0
:109AA000711E83FB0132CE17C6EB2232B2F5806FF6
:109AB00029DA2E4B84F8C52183FB01030B442C4883
:109AC000C6EB6313C3EB831680FB0370891B18443A
:109AD000DE17921022F03F020131C6EBE0100A437C
:109AE000034484F8C42184F8C3315522AA2384F89E
:109AF000FE2184F8FF31F1E539464FF4007220462B
:109B00004DF0C2FAEAE5FF2384F8C33184F8C53189
:109B100084F8C431E9E7154B84F8C12183FB007355
:109B20000344134FC1EB631387FB0317C3EB831C81
:109B30009110A0EB0C02F818DF1721F03F01013261
:109B4000C7EBE0100A43034484F8C02184F8BF3116
:109B5000A5E700BF8CEE050898EE0508A8EE0508FD
:109B600084EE050888EE0508975545418320088254
:109B700081808080A8C60020DEADBEEF08B5012040
:109B80000AF0DEFE174A936803F00C03042B1ED084
:109B9000082B18D151685368490203F03F0319D4C8
:109BA00052681148B0FBF3F0C2F3881300FB03F0D6
:109BB0000C4B0E4A5B68C3F3014301335B00B0FBFF
:109BC000F3F0106008BD094B074A1A6008BD074B47
:109BD000186008BDB0FBF3F05368C3F3881300FBB3
:109BE00003F0E5E7003802400024F40090B50020BF
:109BF00010B5044C04480A46214609F08DFB204666
:109C000010BD00BF84170020B4EE050810B5044C49
:109C100004480A46214609F07FFB204610BD00BFDC
:109C200084170020C4EE050810B5044C04480A4609
:109C3000214609F071FB204610BD00BF84170020AB
:109C4000D0EE05080A4608B5054920B1054809F0D7
:109C500063FB034808BD044809F05EFB004808BDEB
:109C600084170020FCEE0508E4EE050808B583899A
:109C700040F2E93300E0A3B10289013B12F0020F88
:109C80009BB2F8D089B2818140F2E93300E043B160
:109C90000289013B12F0010F9BB2F8D08089C0B25B
:109CA00008BD42F099FEC0B208BD00BF2DE9F04FDB
:109CB00087B0A94A02904068038823F040031B0440
:109CC0001B0C0380038823F038031B0490424FEAE7
:109CD000134300F03F8102F5806290420CBF3022B6
:109CE000382213430380029B02889B6842F04002A3
:109CF000028013B11A689B885383838940F2E93349
:109D000002E0002B00F090810289013B12F0020F6B
:109D10009BB2F6D06B23838140F2E93302E0002B43
:109D200000F082810289013B12F0010F9BB2F6D054
:109D30008389838940F2E93302E0002B00F07181CE
:109D40000289013B12F0020F9BB2F6D0802383817F
:109D500040F2E93302E0002B00F063810289013B0D
:109D600012F0010F9BB2F6D08389029B9B6813B15E
:109D70001A689B8813830623784CDFF8EC81DFF8A0
:109D8000ECA1774D774E04939623DFF8E4C101935D
:109D90004FF0100EDAF80430C3F30803002B40F044
:109DA000B280EFF31183002B40F0AD802068AA68E9
:109DB00023689842FAD133689A42F7D8D8F80070ED
:109DC0004FF47A7101FB07F39B1AB3FBF7F301FB26
:109DD00000304FF47A774FF00109DAF80430C3F31A
:109DE0000803002B70D1EFF31183002B6CD1236893
:109DF000A96822689342FAD132689142F7D8D8F81C
:109E0000002007FB02FBABEB0101B1FBF2F107FB0A
:109E100003131B1AB3F57A7FDFD3019B013B019338
:109E2000B8D1029B9B6813B11A689B885383029B2D
:109E3000586840F2E933828902E0002B00F0858007
:109E40000289013B12F0020F9BB2F6D0F523838109
:109E500040F2E93301E0002B77D00289013B12F098
:109E6000010F9BB2F7D08389838940F2E93301E087
:109E7000002B67D00289013B12F0020F9BB2F7D092
:109E8000FF23838140F2E93301E0002B5AD002899D
:109E9000013B12F0010F9BB2F7D08389DBB2039331
:109EA000029B9A6812B1136891881983039B682BEF
:109EB00060D0049B013B13F0FF0304937FF464AF75
:109EC000184607B0BDE8F08FEFF311818EF31288CA
:109ED000D5F808B02B68DB0344BFCCF80090D5F868
:109EE00008B02368DCF80020C9B281F31188D8F8E3
:109EF0000010134407FB01F2A2EB0B02B2FBF1F2DC
:109F000007FB032385E7EFF311838EF31288AF6815
:109F10002A68D20303D50122CCF80020AF6820685C
:109F2000DCF80090DBB283F31188D8F800104FF40E
:109F30007A72484402FB01F3DB1BB3FBF1F302FB33
:109F4000003046E742F048FDAAE742F045FD029B9B
:109F5000586889E73022C4E60038004000C000207D
:109F600010E000E008C0002004C0002000ED00E088
:109F7000FCBF002012B1136892885A83029B586874
:109F800040F2E933828901E0002B45D00289013B90
:109F900012F0020F9BB2F7D08C23838140F2E93399
:109FA00001E0002B38D00289013B12F0010F9BB277
:109FB000F7D08389838940F2E9330289013B12F0AB
:109FC000020F9BB215D1002BF7D142F005FD029B89
:109FD0009B6813B11A689B881383059B142B04D3C9
:109FE000182B17D9543B062B14D9002007B0BDE815
:109FF000F08FFF23838140F2E93301E0002BE4D0AE
:10A000000289013B12F0010F9BB2F7D08389DBB2CA
:10A010000593DCE7032054E742F0DEFC029B58681E
:10A02000C8E742F0D9FCA0E642F0D6FC029B586893
:10A030007FE600BF2DE9F04FB04C436894F8232130
:10A0400085B00190002A00F03A811A88AC4922F0CC
:10A0500040021204120C1A801A8822F038021204EC
:10A060008B424FEA124200F0288101F580618B4259
:10A070000CBF302138210A431A801A880198A14C5C
:10A08000A14FDFF890A2A14DA14E42F040021A80EC
:10A090006B21802242F0C2FC152303939623DFF844
:10A0A00078E200934FF01008DAF80430C3F30803A5
:10A0B000002B40F0D180EFF31183002B40F0CC80D7
:10A0C0002068AA6823689842FAD133689A42F7D880
:10A0D000D7F800C04FF47A7101FB0CF39B1AB3FB65
:10A0E000FCF301FB00304FF47A7C4FF00109DAF801
:10A0F0000430C3F30803002B40F09080EFF311838A
:10A10000002B40F08B802368A96822689342FAD123
:10A1100032689142F7D83A680CFB02FBABEB0101C5
:10A12000B1FBF2F10CFB03131B1AB3F57A7FDED3FC
:10A13000009B013B0093B7D1019B9B6813B11A6848
:10A140009B885383019B586840F2E933828902E07F
:10A15000002B00F0AD800289013B12F0020F9BB290
:10A16000F6D0F523838140F2E93302E0002B00F0C2
:10A170009F800289013B12F0010F9BB2F6D08389C8
:10A18000838940F2E93302E0002B00F086800289E7
:10A19000013B12F0020F9BB2F6D0FF23838140F205
:10A1A000E93301E0002B78D00289013B12F0010F66
:10A1B0009BB2F7D08389DBB20293019B9B6813B1FA
:10A1C0001A689B881383029B982B00F0B08069D992
:10A1D000AC2B65D0AF2B40F0A1800920019B4849F2
:10A1E0005B681A8822F040021204120C1A801A8846
:10A1F00022F0380212048B424FEA124256D001F587
:10A2000080618B420CBF082110210A431A801A88F2
:10A2100042F040021A8005B0BDE8F08FEFF31181E3
:10A2200088F31288D5F808B02B68DB0344BFCEF85A
:10A230000090D5F808B02368DEF80020C9B281F399
:10A240001188396813440CFB01F2A2EB0B02B2FB3C
:10A25000F1F20CFB032367E7EFF3118388F3128815
:10A26000D5F808C02A68D20304D50122CEF8002010
:10A27000D5F808C02068DEF80090DBB283F31188BF
:10A2800039684FF47A72484402FB01F3A3EB0C03E4
:10A29000B3FBF1F302FB003025E742F09DFB8CE7B6
:10A2A00007209BE7122B39D1082097E70821ACE75C
:10A2B00042F092FB019B586862E73021DBE61A8886
:10A2C0000F4922F040021204120C1A801A8822F060
:10A2D000380212048B424FEA12422AD001F5806103
:10A2E0008B420CBF082110210A431A801A880121D1
:10A2F00042F040021A8084F82311A6E6601700207D
:10A300000038004000C0002004C0002010E000E041
:10A3100008C0002000ED00E0FCBF0020039B013BD3
:10A3200013F0FF0303937FF4B9AE039873E70B2098
:10A3300054E70821D8E700BFF0B5876983B0064627
:10A3400017B13B68BA885A837069DFF8A8E083893F
:10A35000C3244FF47A734FF0060C6D464FF6FF712D
:10A360000EF1010E03E0013B9BB28B4220D002892B
:10A370009207F8D5A3B283814FF47A7302E0A3B2B7
:10A380008B4215D00289D20703F1FF34F7D58289B9
:10A3900092B20DB12A700135BCF1000F0BD00CF157
:10A3A000FF3CFF24BEF1000FE1D09EF80040D7E74C
:10A3B00042F012FBB76917B13B68BA881A839DF85F
:10A3C00005009DF801509DF802109DF803409DF88E
:10A3D00004209DF8063041EA052143EA002342EAC1
:10A3E00004220120A6F85010A6F85220A6F85430F6
:10A3F00003B0F0BDB471050807B506236A46F7211E
:10A4000042F054FB9DF801309DF800100A4A1B02EF
:10A4100043EA01439DF802100B4353609DF804305A
:10A420009DF803101B0243EA01439DF805100B43FE
:10A43000136003B05DF804FB6017002007B5032329
:10A4400001AA002142F032FB9DF805309DF804007E
:10A450001B0243EA00439DF80600184303B05DF871
:10A4600004FB08B5FFF7EAFF014BD86008BD00BF49
:10A470006017002008B5FFF7E1FF014B986008BDA9
:10A480006017002007B506236A46F72142F00EFB4D
:10A490009DF801309DF800100B4A1B0143EA01337F
:10A4A0009DF8021043EA111353619DF804309DF8A2
:10A4B00003101B0143EA01339DF8051043EA111311
:10A4C000136103B05DF804FB6017002007B5032398
:10A4D00001AAF62142F0EAFA9DF805309DF8042021
:10A4E0001B0243EA02439DF806201343054AB2F9D2
:10A4F0002020C2F10802D340034AD36103B05DF8C3
:10A5000004FB00BF847500206017002007B50223FC
:10A5100001AAF62142F0CAFA9DF804209DF8053000
:10A5200043EA0223024A138303B05DF804FB00BF31
:10A530006017002070B582B0044606230C306A46CE
:10A540003B2142F0B3FAA8B19DF804009DF80060E9
:10A550009DF801109DF802509DF803209DF80530EC
:10A5600041EA062143EA002342EA05226183A283ED
:10A57000E383012002B070BD7B22F42142F09ABB3C
:10A580000122482142F096BB0122582142F092BBA1
:10A590003122F42142F08EBB044B93F8202092012B
:10A5A000343202F0FC02F42142F084BB84750020B6
:10A5B0002E22F42142F07EBB2DE9F04F85B00346F8
:10A5C000039090F86100002840F02C85039BC4495B
:10A5D0005A69138823F040031B041B0C1380138853
:10A5E00023F038031B048A424FEA134300F03985F5
:10A5F00001F580618A420CBF302138210B43138062
:10A6000013880399B74CB84EDFF8E882B74F43F090
:10A610004003103113800291084680226B2142F0E2
:10A62000FDF96423DFF8D0E2B14801934FF010093F
:10A63000DEF80430C3F30803002B40F0E883EFF3A7
:10A640001183002B40F0E3832568826823689D42D4
:10A65000FAD13B689A42F7D8D6F800C04FF47A7125
:10A6600001FB0CF39B1AB3FBFCF301FB05354FF424
:10A670007A7C4FF0010ADEF80430C3F30803002BA4
:10A6800040F0A783EFF31183002B40F0A2832368EF
:10A69000816822689342FAD13A689142F7D83268C9
:10A6A0000CFB02FBABEB0101B1FBF2F10CFB031362
:10A6B0005B1BB3F57A7FDED3019B013B0193B7D1DE
:10A6C000032268210298DFF82C82884F42F0A6F915
:10A6D0006423DFF824E2864801934FF01009DEF886
:10A6E0000430C3F30803002B40F01584EFF311830B
:10A6F000002B40F010842568826823689D42FAD1BF
:10A700003B689A42F7D8D6F800C04FF47A7101FB43
:10A710000CF39B1AB3FBFCF301FB05354FF47A7C79
:10A720004FF0010ADEF80430C3F30803002B40F0B9
:10A730003283EFF31183002B40F02D83236881686F
:10A7400022689342FAD13A689142F7D832680CFBFA
:10A7500002FBABEB0101B1FBF2F10CFB03135B1B42
:10A76000B3F57A7FDED3019B013B0193B7D1012280
:10A770006B210298DFF87C815C4F42F04FF90F2388
:10A78000DFF874E15A4801934FF01009DEF8043005
:10A79000C3F30803002B40F09D83EFF31183002BDC
:10A7A00040F098832568826823689D42FAD13B680F
:10A7B0009A42F7D8D6F800C04FF47A7101FB0CF337
:10A7C0009B1AB3FBFCF301FB05354FF47A7C4FF089
:10A7D000010ADEF80430C3F30803002B40F0BD8209
:10A7E000EFF31183002B40F0B88223688168226860
:10A7F0009342FAD13A689142F7D832680CFB02FBD7
:10A80000ABEB0101B1FBF2F10CFB03135B1BB3F5E6
:10A810007A7FDED3019B013B0193B7D118221B2124
:10A820000298DFF8D080314F42F0F8F80F23DFF8BC
:10A83000C8E02F4801934FF01009DEF80430C3F34D
:10A840000803002B40F02583EFF31183002B40F029
:10A8500020832568826823689D42FAD13B689A422A
:10A86000F7D8D6F800C04FF47A7101FB0CF39B1AAD
:10A87000B3FBFCF301FB05354FF47A7C4FF0010A82
:10A88000DEF80430C3F30803002B40F04882EFF3F6
:10A890001183002B40F04382236881682268934231
:10A8A000FAD13A689142F7D832680CFB02FBABEB65
:10A8B0000101B1FBF2F10CFB03135B1BB3F57A7FD3
:10A8C000DED3019B013B0193B7D118221C210298D2
:10A8D000DFF82080054F42F0A1F80F230EE000BF03
:10A8E0000038004000C0002004C0002008C0002044
:10A8F00010E000E0FCBF002000ED00E0DFF814E312
:10A90000C14801934FF01009DEF80430C3F3080387
:10A91000002B40F09D82EFF31183002B40F09882D2
:10A920002568826823689D42FAD13B689A42F7D82D
:10A93000D6F800C04FF47A7101FB0CF39B1AB3FBFD
:10A94000FCF301FB05354FF47A7C4FF0010ADEF889
:10A950000430C3F30803002B40F0C381EFF31183ED
:10A96000002B40F0BE812368816822689342FAD1AF
:10A970003A689142F7D832680CFB02FBABEB01015D
:10A98000B1FBF2F10CFB03135B1BB3F57A7FDED353
:10A99000019B013B0193B7D1039A92F85B30032BE3
:10A9A00000F23E8392F85E20012A0BD0022A40F08A
:10A9B0003783039B93F8633003F0FB03022B0CBF38
:10A9C000002207221A210298DFF84C828F4F42F0B2
:10A9D00025F80F23DFF83CE28B4801934FF0100974
:10A9E000DEF80430C3F30803002B40F0F882EFF3E5
:10A9F0001183002B40F0F3822568826823689D4212
:10AA0000FAD13B689A42F7D8D6F800C04FF47A7171
:10AA100001FB0CF39B1AB3FBFCF301FB05354FF470
:10AA20007A7C4FF0010ADEF80430C3F30803002BF0
:10AA300040F03981EFF31183002B40F0348123681B
:10AA4000816822689342FAD13A689142F7D8326815
:10AA50000CFB02FBABEB0101B1FBF2F10CFB0313AE
:10AA60005B1BB3F57A7FDED3019B013B0193B7D12A
:10AA7000039B029893F86020DFF89C81634F1921B3
:10AA800041F0CCFF6423DFF88CE15F4801934FF085
:10AA90001009DEF80430C3F30803002B40F07E8277
:10AAA000EFF31183002B40F07982256882682368D8
:10AAB0009D42FAD13B689A42F7D8D6F800C04FF4CD
:10AAC0007A7101FB0CF39B1AB3FBFCF301FB053518
:10AAD0004FF47A7C4FF0010ADEF80430C3F3080328
:10AAE000002B40F0C280EFF31183002B40F0BD80BB
:10AAF0002368816822689342FAD13A689142F7D874
:10AB000032680CFB02FBABEB0101B1FBF2F10CFB79
:10AB100003135B1BB3F57A7FDED3019B013B0193EB
:10AB2000B7D1102237210298DFF8EC80374F41F07F
:10AB300075FF0F23DFF8DCE0334801934FF0100975
:10AB4000DEF80430C3F30803002B40F00682EFF375
:10AB50001183002B40F001822568826823689D42A2
:10AB6000FAD13B689A42F7D8D6F800C04FF47A7110
:10AB700001FB0CF39B1AB3FBFCF301FB05354FF40F
:10AB80007A7C4FF0010ADEF80430C3F30803002B8F
:10AB90004DD1EFF31183002B49D1236881682268DE
:10ABA0009342FAD13A689142F7D832680CFB02FB23
:10ABB000ABEB0101B1FBF2F10CFB03135B1BB3F533
:10ABC0007A7FE0D3019B013B0193B9D10122382167
:10ABD000029841F023FF039B0D495A69138823F023
:10ABE00040031B041B0C1380138823F038031B0441
:10ABF0008A424FEA134300F0378201F580618A42AE
:10AC00000CBF0821102109E010E000E008C000207E
:10AC10000038004000ED00E0FCBF00200B43138033
:10AC2000138843F04003138005B0BDE8F08FEFF3C5
:10AC3000118189F31288D0F808B00368DB0344BFA0
:10AC4000C8F800A0D0F808B02368D8F80020C9B22E
:10AC500081F31188316813440CFB01F2A2EB0B0263
:10AC6000B2FBF1F20CFB0323A8E7EFF3118189F3A8
:10AC70001288D0F808B00368DB0344BFC8F800A00E
:10AC8000D0F808B02368D8F80020C9B281F3118841
:10AC9000316813440CFB01F2A2EB0B02B2FBF1F2A0
:10ACA0000CFB032335E7EFF3118189F31288D0F809
:10ACB00008B00368DB0344BFC8F800A0D0F808B0B0
:10ACC0002368D8F80020C9B281F311883168134491
:10ACD0000CFB01F2A2EB0B02B2FBF1F20CFB032323
:10ACE000BEE6EFF3118189F31288D0F808B003684B
:10ACF000DB0344BFC8F800A0D0F808B02368D8F838
:10AD00000020C9B281F31188316813440CFB01F2B1
:10AD1000A2EB0B02B2FBF1F20CFB032334E6EFF3E0
:10AD2000118189F31288D0F808B00368DB0344BFAF
:10AD3000C8F800A0D0F808B02368D8F80020C9B23D
:10AD400081F31188316813440CFB01F2A2EB0B0272
:10AD5000B2FBF1F20CFB0323AFE5EFF3118189F3B2
:10AD60001288D0F808B00368DB0344BFC8F800A01D
:10AD7000D0F808B02368D8F80020C9B281F3118850
:10AD8000316813440CFB01F2A2EB0B02B2FBF1F2AF
:10AD90000CFB03233AE5EFF3118189F31288D0F815
:10ADA00008B00368DB0344BFC8F800A0D0F808B0BF
:10ADB0002368D8F80020C9B281F3118831681344A0
:10ADC0000CFB01F2A2EB0B02B2FBF1F20CFB032332
:10ADD000C5E4EFF3118189F31288D0F808B0036855
:10ADE000DB0344BFC8F800A0D0F808B02368D8F847
:10ADF0000020C9B281F31188316813440CFB01F2C1
:10AE0000A2EB0B02B2FBF1F20CFB032350E4EFF3D5
:10AE1000118389F31288D0F808C00268D20304D5E0
:10AE20000122C8F80020D0F808C02568D8F800A092
:10AE3000DBB283F3118831684FF47A72554402FB18
:10AE400001F3A3EB0C03B3FBF1F302FB05350EE4B6
:10AE5000EFF3118389F31288D0F808C00268D20397
:10AE600004D50122C8F80020D0F808C02568D8F819
:10AE700000A0DBB283F3118831684FF47A72554435
:10AE800002FB01F3A3EB0C03B3FBF1F302FB05356B
:10AE900059E5EFF3118389F31288D0F808C00268EE
:10AEA000D20304D50122C8F80020D0F808C02568D4
:10AEB000D8F800A0DBB283F3118831684FF47A72BE
:10AEC000554402FB01F3A3EB0C03B3FBF1F302FBCC
:10AED0000535D1E4EFF3118389F31288D0F808C067
:10AEE0000268D20304D50122C8F80020D0F808C0B7
:10AEF0002568D8F800A0DBB283F3118831684FF4DD
:10AF00007A72554402FB01F3A3EB0C03B3FBF1F39C
:10AF100002FB053559E4EFF3118389F31288D0F869
:10AF200008C00268D20304D50122C8F80020D0F876
:10AF300008C02568D8F800A0DBB283F31188316817
:10AF40004FF47A72554402FB01F3A3EB0C03B3FBFD
:10AF5000F1F302FB0535FFF7E1BBEFF3118389F352
:10AF60001288D0F808C00268D20304D50122C8F8BC
:10AF70000020D0F808C02568D8F800A0DBB283F321
:10AF8000118831684FF47A72554402FB01F3A3EB48
:10AF90000C03B3FBF1F302FB0535F0E5EFF311838E
:10AFA00089F31288D0F808C00268D20304D50122C0
:10AFB000C8F80020D0F808C02568D8F800A0DBB297
:10AFC00083F3118831684FF47A72554402FB01F320
:10AFD000A3EB0C03B3FBF1F302FB053578E5EFF3CC
:10AFE000118389F31288D0F808C00268D20304D50F
:10AFF0000122C8F80020D0F808C02568D8F800A0C1
:10B00000DBB283F3118831684FF47A72554402FB46
:10B0100001F3A3EB0C03B3FBF1F302FB0535FEE4F4
:10B02000019ACFE41D4640F087FF05F10C0104466C
:10B03000E0B12023002283710F4BC271EB6044F01A
:10B04000EDFAA388B3FA83F3C3F11F03012212FAC6
:10B0500003F33FF4BBAA09490A6813430B60FFF7E7
:10B06000B5BA3021FFF7CABA0821D7E5024BEB6029
:10B0700044F0D4FAFFF7AABA098C0008003C01405A
:10B080002DE9F84F037C02681F2B86BF203B5168D7
:10B090001168202202FA03F30B4214BF012300239C
:10B0A0000BB9BDE8F88F4569604F044627F00CFCEA
:10B0B0004FF4B27303FB057306461A7C002A35D1A0
:10B0C0005B495A680978D2F80090D1B9D3F8D81002
:10B0D00058890A6822F001020A60B9F80C3023EAA4
:10B0E0000003A9F80C30534B1B78002B32D1237C82
:10B0F00021681F2B13D8202202FA03F38B60BDE8CE
:10B10000F88F5269136823F001031360B9F80C300B
:10B1100023F480731B041B0CA9F80C30E3E7203BDD
:10B12000202202FA03F3CB60BDE8F88FD3F8D86091
:10B1300041485F8901225A7431685A68036815686A
:10B1400021F001013160AA89013322EA0702AA81B4
:10B150000360CCE74FF4B27A0AFB05FA07EB0A0565
:10B16000D5F8D880404609F083FB01232B74D5F82D
:10B17000DCB027F0A9FB0AF18C013944CBF82C0193
:10B18000484609F035FCD5E92B70D5F89830D5E95B
:10B190002D123B4303430B431343D5F8BC20D5F892
:10B1A000CC70D8F8000025491343D5F8C0201343CC
:10B1B000D5F8D0203B43014013430B430022C5F890
:10B1C000A420C8F80030D8F81420D5F8C430D5F839
:10B1D000A81022F0070CD5F8C820D5E92770134332
:10B1E00043EA0C03C8F81430C8F80410C8F8087013
:10B1F000C8F80C00D8F80020D5F8D83095F8D4005D
:10B20000696842F01002C8F8002058601A6809689E
:10B2100042F001021A608B896A8913438B8127F0FF
:10B2200053FB074B801B186061E700BFD4CC0020A4
:10B23000A03200109C320010B0A100203F801CF012
:10B240004831001020B10078B0FA80F04009704712
:10B250000120704708B520214BF02DFF034618460A
:10B2600023B10278202A03F10103F8D008BD037945
:10B2700003F01803082B0AD002D82BB10020704726
:10B28000102B16D0182BF9D1B0F80B007047124BC9
:10B29000B0F80B0093F90030591C06BF0F4B1B7818
:10B2A000DBB2C3EBC30203EB820300EB830080B28B
:10B2B00070470B4BB0F80B0093F900305A1C06BFD7
:10B2C000064B5B78DBB203EB430203EB820300EB3C
:10B2D000430080B2704700BF690E002030CA0020D2
:10B2E000680E0020F0B5067906F0E003402B09D186
:10B2F00044794FF0FF350023012006F00706A342F2
:10B300000BD1F0BD602B08BF45794FF001040CBF95
:10B3100004FA05F54FF0FF35EDE7042E0CD8DFE811
:10B3200006F0030D18242E0030B1C85CD75C7840BD
:10B3300028420CBF012000200133E0E70028FBD0A9
:10B34000C856D756A0EB070CDCF1000040EB0C0010
:10B35000F2E70028F0D031F8130032F8137078408B
:10B3600028420CBF01200020E6E70028E4D031F994
:10B37000130032F91370C71B78427841DCE70028CC
:10B38000DAD051F8230052F82370784028420CBFDD
:10B3900001200020D0E7024B0146186841F026BD8D
:10B3A000749D002038B5064D441E14F8011F28680E
:10B3B00019B9BDE8384041F093BC41F017FDF4E7FE
:10B3C000749D00200048EDE7C32C060808B5FFF780
:10B3D000E9FFBDE80840F5E710B504460348FFF76C
:10B3E000E1FF2046BDE81040F0E700BFB0ED0508E2
:10B3F00038B5074C074DAC4203D3074B00221A70F7
:10B4000038BD6288D4E901014AF01AFB1434F2E72E
:10B410009001000880070008B8B4002038B5074C38
:10B42000074DAC4203D3074B01221A7038BD628826
:10B43000D4E901104AF004FB1434F2E7900100084B
:10B4400080070008B8B40020024A136823EA00000D
:10B4500010607047F0E10020DFED2E7AB4EEE70ACD
:10B46000F1EE10FA4ADDDFED2C6A9FED2C7A01E057
:10B47000B0EE670AB4EEC70AF1EE10FA70EE667A23
:10B48000F6DC9FED277AF4EEC77AF1EE10FA3ED59E
:10B49000DFED216A9FED237A01E0F0EE407AF4EED1
:10B4A000C77AF1EE10FA37EEA60AF6D4DFED1E7A6F
:10B4B000B4EEE70AF1EE10FA14DDDFED167A37EE9E
:10B4C000C00A60EE006A9FED196A9FED197ADFED00
:10B4D000197AA6EE867A20EE266AE6EE877AA6EE3E
:10B4E000270A7047DFED147AB4EEE70AF1EE10FA9E
:10B4F00044BFDFED0B7A37EEC00AE2E79FED087A32
:10B50000F0EE407AF4EEC77AF1EE10FAC0D4B0EE65
:10B51000670ACBE7DB0F4940DB0FC940E4CB16419C
:10B52000DB0F49C0E4CB16C1DB0FC93F92E741B93D
:10B530009730083C15A82ABEDB0FC9BFF0EEC07AD1
:10B54000B0EEE07AB4EEE77AF1EE10FAB4BFB0EE06
:10B55000676AB0EE476AB5EE406AF1EE10FA46D07F
:10B56000B4EEE77AF1EE10FA8CBFF0EE675AF0EE27
:10B57000475AC5EE866A9FED1F3A9FED1F6A9FED01
:10B580001F4A9FED1F5ADFED1F3ADFED1F4ADFED27
:10B590001F5AA6EEC36AE6EEA34AA6EE864AB7EEA7
:10B5A000006AA6EE845AA6EEA46AE6EE855AC5EEB7
:10B5B000866AB4EEE77AF1EE10FA48BFDFED147A4E
:10B5C000F5EEC00A48BF77EEE66AF1EE10FA48BF22
:10B5D000DFED107AB5EEC00A48BF77EEE66AF1EE0D
:10B5E00010FA48BFF1EE666AB0EE660A7047DFED0A
:10B5F000076ADEE739094E3DE3B59E3E88FA163EFE
:10B6000045FE7F3F99FB243F69A2163EA7DFA83481
:10B61000DB0FC93FDB0F4940DFED317A30EE277A8F
:10B62000FDEEC76A16EE903A2033402B02D99FED0B
:10B630002D0A7047B4EEE70AF1EE10FA4DDD9FEDEA
:10B640002A6ADFED2A6A01E0B0EE677AB4EEE67AA4
:10B65000F1EE10FA77EE467AF6DC9FED257AF4EEFD
:10B66000C77AF1EE10FA35D5DFED1F6A9FED217A2A
:10B6700001E0F0EE407AF4EEC77AF1EE10FA37EE20
:10B68000A60AF6D4DFED167AB4EEE70AF1EE10FA68
:10B690001BDCDFED197AB4EEE70AF1EE10FA44BFD5
:10B6A000DFED137A37EEC00A60EE006A9FED136A91
:10B6B0009FED137ADFED137AA6EE867A20EE266AE6
:10B6C000E6EE877AA6EE270A7047DFED0F7A37EEAF
:10B6D000C00AE9E7B0EE670AD4E7F0EE477ABCE7C4
:10B6E000DB0FC93F00000000DB0FC940E4CB16416F
:10B6F000DB0F49C0E4CB16C1DB0FC9BF92E741B9EC
:10B700009730083C15A82ABEDB0F494010B44C09FD
:10B71000012250F8243001F01F0102FA01F123EA5E
:10B72000010340F824305DF8044B704710B44C0915
:10B73000012250F8243001F01F0102FA01F10B43FD
:10B7400040F824305DF8044B704700BF4B0901F00E
:10B750001F0150F82320012303FA01F1114214BF05
:10B7600018460020704700BF2DE9F043002489B03F
:10B7700006460D461F46A04605E025290CD030465A
:10B780000134A847039A531C039311780029F4D17C
:10B79000204609B0BDE8F083931CCDE9033850780A
:10B7A000302842D0A0F13003DBB2092B4FF0000962
:10B7B00045D96C282AD0642873D019D9732858D059
:10B7C00063D9752840F0828007F1040C386805AB16
:10B7D00000220A216746FCF743FD05AB049A00935B
:10B7E00029464B463046FCF711FC039A0444CAE74D
:10B7F00025283CD051D958286BD06328C2D139783C
:10B800003046A84704370134039ABCE7039B5A1C0F
:10B8100003921B78642B52D016D8252B27D064D9DD
:10B82000582B18D0632BEAD0ADE7D31C0393907844
:10B83000A0F13003DBB2092B4FF00109B9D804AAFB
:10B8400003A945F027FEB4E7732B12D051D9752B0D
:10B850002DD0782B97D1A3F15802B2FA82F2386832
:10B86000520905AB10210437FCF7FAFCB5E7252196
:10B8700085E73B68049A0093294600233046FCF78D
:10B88000C5FB04370444039A7DE76E287FF47AAF42
:10B89000039A3B6804371C6075E700283FF478AFD3
:10B8A00070E7386805A9FCF7A5FC043795E7386808
:10B8B00005AB00220A21FCF7D3FC04378DE73B1DC2
:10B8C000386805A91F46FCF795FC86E778287FF4C1
:10B8D00059AFA0F15802B2FA82F23868520905ABAA
:10B8E0001021FCF7BDFC043777E7002B3FF450AF85
:10B8F00049E76E2BCDD046E710B5064C0B46024605
:10B9000005492068FFF730FF2068BDE8104041F08E
:10B91000E7B900BF749D0020F593000838B50446D0
:10B920000D460848FFF73EFD29462046FFF7E4FF95
:10B930000548FFF737FD054B1B7813B1044B012277
:10B940001A7038BDB5ED0508C0ED0508D09E002081
:10B95000D19E00200FB407B504A951F8040B019142
:10B96000FFF7DCFFFFF72EFD03B05DF804EB04B03A
:10B97000704713460A4601460048EBE7C4ED050848
:10B980000048E7E7DDED05080FB407B504A951F855
:10B99000040B0191FFF7C2FF03B05DF804EB04B0A4
:10B9A00070470FB407B504A951F8040B0191FFF7D4
:10B9B000A3FFFFF707FD03B05DF804EB04B0704789
:10B9C0000FB407B504A951F8040B0191FFF794FFD8
:10B9D00003B05DF804EB04B070472DE9F843037938
:10B9E00003F0E001202928D002D849B1BDE8F8834E
:10B9F000402945D06029F9D12448BDE8F843D0E773
:10BA000003F00703022B02D0042B08D06BB9B0F867
:10BA10000720B0F805101E48BDE8F843C1E7D0F88C
:10BA200005201B48BDE8F843BBE7B0F90720B0F993
:10BA300005101748BDE8F843B3E74579154E164899
:10BA4000FFF7B0FC06EBC502002492F80480012346
:10BA5000A04502D8BDE8F843B4E456F8357057F86D
:10BA600024204FEA84094AB113B90C48FFF79AFC25
:10BA700057F809100A48FFF7A3FF00230134E7E74E
:10BA800041790848BDE8F8438BE700BF25EE05087B
:10BA9000E9ED050808BA050800EE050811EE0508ED
:10BAA0004A21060814EE05082DE9F04117460279EF
:10BAB00002F0E003402B05460E462BD10024554FE3
:10BAC000DFF8708115E02B7903F00703022B15D006
:10BAD000032B19D0012B14BF315D31573846FFF7C6
:10BAE0006FFF6B79013BA34202DD4046FFF75AFC32
:10BAF00001346B79A342E6DCBDE8F08136F814101E
:10BB00003846FFF75DFFECE736F914103846FFF7CB
:10BB100057FFE6E702F00702042A5DD8DFE802F0EB
:10BB2000031D25272A003478202B3AD068D8002B13
:10BB3000E2D1B5F80560B5F8078036482146FFF731
:10BB40003FFFA64240DCA0453EDB002FD4D042465A
:10BB500031463148BDE8F04132E796F90040202BEC
:10BB60001FD04DD8002B3DD0C6E73488DCE7B6F9AE
:10BB70000040F4E7D6F80080202B444611D03FD88F
:10BB8000002BB9D141462348FFF71AFFD5F805101D
:10BB9000884519D8002FAFD02048BDE8F0410FE705
:10BBA00000246A791E4B03EBC2010979A1420BDD27
:10BBB00053F8323053F82400BDE8F041FFF7F2BBF0
:10BBC0001848BDE8F041FBE6FFF7FCFB2246296878
:10BBD0001548BDE8F041D7E6202BE1D007D8002B6F
:10BBE0008AD11C46B5F90560B5F90780A5E7602B39
:10BBF000E6D0802B80D131460C48BDE8F041DFE62D
