:020000040800F2
:1000000000000120ED6205086D63050855D3030863
:10001000B9D303086D6305086D630508000000008F
:100020000000000000000000000000006D630508F3
:100030006D630508000000006D63050805D4030822
:100040006D6305086D6305086D6305086D6305083C
:100050006D6305086D6305082D2B0408592C0408F1
:100060001D2C0408E12B0408A52B0408CD1601085B
:10007000BD160108AD1601089D1601088916010874
:1000800075160108611601086D6305086D630508A2
:100090006D6305086D6305086D630508692B040829
:1000A000A9F2000831F3000899F2000859F300089A
:1000B00021F3000811F3000801F30008DD16010820
:1000C000011701086D6305086D6305086D63050878
:1000D0006D63050841EE000835EE000829EE0008C2
:1000E000F12A04086D6305086D63050889F20008AC
:1000F000B9F200086D630508E1F200084D16010829
:100100006D6305086D630508F1F200086D6305086D
:100110001DEE000811EE00086D6305082B5F010855
:10012000391601082516010811160108FD150108E8
:10013000E9150108000000000000000000000000B8
:100140000000000000000000000000006B690108D2
:10015000D5150108C1150108AD1501086D63050825
:100160006D6305086D6305086D6305086D6305081B
:100170006D6305086D6305080000000000000000C5
:100180006D6305086D6305086D6305086D630508FB
:100190006D6305086D630508000000006D630508C8
:1001A0000000000000000000000000006D63050872
:1001B0006D6305086D630508000000000000000085
:1001C000000000000000000000000000000000002F
:1001D0000000000000000000000000006D63050842
:0801E0003C5E05000100000077
:1001E80010020100C81B0120C41B012000000000F0
:1001F800C40700081F021000E41B0120D41B0120C3
:1002080000000000D584000803010A00802C0120AA
:100218008C2C012000000000C6070008051006000D
:10022800742C0120982C012000000000D007000841
:100238002312100040390120CC39012000000000B1
:10024800D8070008371028007C390120DC39012044
:1002580000000000E80700080E02020038390120FB
:10026800043A0120000000001008000816100600DB
:10027800E82E0120083A01200000000012080008BA
:100288002F102200A8390120103A01200000000098
:1002980018080008F5518C001C2E0120343A012062
:1002A80000000000CD22030826100C00CC3A0120E3
:1002B800C03A012000000000D58C0108140003009A
:1002C80088350120043B0120000000003A0800089E
:1002D8000B301A00C82D0120083B01200000000047
:1002E8003E0800081F302400E42D0120243B012093
:1002F800000000005808000805020400C83001206A
:10030800483B0120000000007C08000803000100B1
:1003180080420120904201200000000000000000FF
:1003280010100200884201209442012000000000C1
:100338008008000825102C01104001209842012057
:10034800000000000000000019000500AC3F01207B
:10035800C443012000000000820800081A000E00B3
:10036800543C0120CC43012000000000880800080C
:10037800F8210600C03E0120DC43012000000000F7
:100388009608000815007000D03D0120E4430120C4
:1003980000000000000000002A006000E83E012084
:1003A800544401200000000049F501082C00100009
:1003B800284E0120184E0120000000009DA00208D0
:1003C8002B0024005C4E0120384E01200000000064
:1003D8006DA00208292078001C4D0120804E0120C4
:1003E8000000000000000000F6210C00884C0120ED
:1003F800F84E0120000000009C08000820320A0086
:10040800544F0120484F012000000000B583020826
:100418001C021000CC480120604F012000000000A1
:10042800F582000828101000944B0120704F01201D
:10043800000000002585020801200C009C560120C0
:10044800645E012000000000A80800080A70280067
:1004580058550120705E012000000000CD8402087C
:100468000EA05C01FC530120985E012000000000F2
:1004780071F501080101040058530120F45F0120BF
:10048800000000000000000000010400505301209B
:10049800F85F012000000000B40800080201030012
:1004A8004C530120FC5F01200000000089A80408CB
:1004B800220214014C5B01200060012000000000B2
:1004C800018F00080C109C00CC55012014610120FC
:1004D800000000004DA80408010205006453012033
:1004E800B061012000000000A918030800020500FF
:1004F800E8590120B8610120000000000000000058
:100508001B021000B4590120C06101200000000046
:10051800218300081E00060038570120D061012001
:1005280000000000B80800081B100C00045101204E
:10053800D861012000000000B52403082102F00062
:10054800884F0120E461012000000000992303087E
:100558001A023C00D4630120AC66012000000000B0
:10056800A98D000827000400D0630120E866012057
:1005780000000000BE08000838100100F0620120E9
:10058800EC66012000000000C20800080702020013
:10059800386C0120BC6C012000000000C408000871
:1005A80003123D005C6C0120C06C012000000000BB
:1005B800C608000802000C000C6C0120006D012028
:1005C800000000000000000006021000FC6B012083
:1005D8000C6D012000000000458E0008F7010600A0
:1005E800F46B01201C6D01200000000004090008C4
:1005F8001D020200F06B0120246D012000000000A4
:100608000A0900080A020A00606B0120286D01200F
:100618000000000025AB040823100E00948A012076
:10062800188C0120000000003D8502080D003C00E8
:10063800148A0120288C012000000000E5600408CD
:100648000400800084850120648C012000000000E3
:10065800000000001300040064850120E48C0120E0
:10066800000000000C09000818202E003085012029
:10067800E88C0120000000005D8E000806101A00BA
:1006880014850120188D012000000000D1F5010813
:10069800FB01010010850120348D012000000000BD
:1006A800D18E0008FC010900DC830120388D01206F
:1006B80000000000E18E0008F9010400D483012045
:1006C800448D012000000000EDFB030816023F00E6
:1006D80094830120488D01200000000065830008F4
:1006E80034001000C4820120888D01200000000021
:1006F800A1F50108110208009C820120988D0120B3
:100708000000000010090008121204009482012061
:10071800A08D012000000000180900081220100018
:1007280084820120A48D0120000000001C0900081B
:10073800FF110600C07F0120B48D012000000000D9
:10074800B984000808121400CC7F0120BC8D012058
:10075800000000004584000813020400A07F012067
:10076800D08D0120000000002C090008FD012100A7
:10077800487D0120D48D012000000000CD830308AE
:100788000202030068760120F88D012000000000B5
:10079800000000000C02040054760120FC8D0120AA
:1007A80000000000A1840008FE011400507301201D
:0C07B800008E01200000000035830008C6
:1007C4000000040101006C1600000000200002017A
:1007D4000000000000000000000000000000000015
:1007E4000000000020003200C800D007960014006A
:1007F40032002800B00440060005500014000F0029
:10080400080064000100010005000A000000C4099A
:1008140000001900000000000000000000000000BB
:1008240000000000000000000000000000000000C4
:1008340000000000000003000000AE014A015E0158
:100844002C0164010100000001000A019A01001E4C
:100854000A00000000000000000100000005000084
:10086400010203000000000000000000000000007E
:1008740000000000008007000000000000050000E8
:10088400280100007E05EA05B4053200E803D0071C
:1008940000000401F4011400000000000100000045
:1008A40002020000E8036400040A000114001E00B0
:1008B400B30000000000010000002003000000005D
:1008C400013C0000000000000000000000000000E7
:1008D4000000000000000000000000000000000014
:1008E4000000000000000000000000000000000004
:1008F40000000000000000000000000000000100F3
:100904003D01000000000000080444300000000025
:1009140001010101FFFFFFFF000000010000054D80
:0C0924004B463700000800000000012CCA
:10093000FF01FF00000000000401000000070000AC
:100940000000000000000000000200001000000095
:10095000000000000000000007000000B0010000DF
:10096000020000000900000000C2010000000800B1
:100970001A0300000000000000000000000000005A
:100980000000000000000000000000000403090453
:100990000A060002000000400100000009072000D4
:1009A000010104C0320904000002080650050705D1
:1009B00081024000000705010240000009022000FA
:1009C000010104C0320904000002080650050705B1
:1009D00081024000000705010240000009022000DA
:1009E000010104C032090400000208065005070591
:1009F0008102000200070501020002000A0600024F
:100A0000000000400100000009026400030100C072
:100A10003209040000010300000009211101000156
:100A20002226000705830308000A080B01020202C0
:100A30000100090401000102020100052400100167
:100A40000524010002042402020524060102070510
:100A500082030800FF09040200020A0000000705E3
:100A60000102400000070581024000004F330108E9
:100A700083300108FD78010800000000C52301084B
:100A800023240108F12301080000000000000000F9
:100A900000000000AD230108B9230108A1230108CB
:100AA000952301080A060002000000400100000032
:100AB00009022200010100E03209040000010301E3
:100AC0000200092111010001222600070583030805
:100AD000000A00000A0600020000004001000000B9
:100AE00009074300020104C03209040000010202A8
:100AF0000100052400100105240100010424020264
:100B00000524060001070582030800FF090401000F
:100B1000020A0000000705010240000007058102EB
:100B20004000000009024300020100C03209040035
:100B3000000102020100052400100105240100014A
:100B400004240202052406000107058203080010A0
:100B500009040100020A000000070501020002006A
:100B6000070581020002000009024300020100C0E3
:100B700032090400000102020100052400100105F1
:100B80002401000104240202052406000107058255
:100B90000308001009040100020A00000007050113
:100BA0000240000007058102400000007082050835
:100BB0000000000000000000000000000000000035
:100BC0000000000000000000000000000000000025
:100BD00000000000120100020000004083042A57B8
:100BE00000020102030100001201000202000040A5
:100BF00083044057000201020301000012010002B9
:100C0000EF0201408304563200020102030100009A
:100C100005010905A101A1000501093009310932C9
:100C2000093309350934094009381581257F7508CC
:100C300095088102C0C0000009211101000122268F
:100C400000000000452D0108552101080D2D010867
:100C5000212D01080D210108F92C0108E32C0108C0
:100C6000B932010839300108F976010800000000A6
:100C700000000000F9680108F567010800000000A5
:100C800000000000000000009522010889220108F0
:100C90007D22010871220108E94B0108F94A010887
:100CA000D94B010861210108894B0108314B01082A
:100CB000E11F010888030120008002021F000000DC
:100CC00053544D202020202050726F6475742020D2
:100CD0002020202020202020302E303100FFFF0057
:100CE00000000000AA55050100000101FFFFFFFF01
:100CF000B0850508000000000000000000000000B2
:100D000000000000000000000000000000000000E3
:100D10000000000000000000FF1FFF1F2D202D2DF0
:100D2000202D2D2D2D202D2D2D2D0000000000001B
:100D30000000000000000000000000AA550B0100A8
:100D400000AA5507010000AA550902000000AA5593
:100D500003009F0001000000C0120000D83A0120EB
:100D600000000000FC3A012000000000010000002B
:100D7000FFFFFFFF7D0000000000803F000000003B
:100D800000000000000000000000803F00000000A4
:100D90000000000000000000000000000000000053
:100DA0000000000000000000000000000000000043
:100DB0000000803F00000000000000000000000074
:100DC00001000000FFFFFFFF0000803F0000000067
:100DD00000000000000000000000803FD60100007D
:100DE000B80B00000100000000010101000101003A
:100DF00000000100E0010100E91803080000000004
:100E0000A08E050820700020702D7200FFFFFFFFEC
:100E100008FF0101FFFF2D202D2D202D2D2D2D2030
:100E20002D2D2D000000000000000000000000003B
:100E300000000000000000000000000000000000B2
:100E400044A605080000000000000000D0A6050828
:100E500001000000FA000000010000000100000095
:100E6000985601200000F401010000009656012070
:100E70000000F40101000000945601200000F4017C
:100E800001000000925601200000F4010100000062
:100E9000905601200000F401010000008E56012050
:100EA0000000F401010000008C5601200000F40154
:100EB0000100000039210308FD20030854940508AF
:100EC000865601200532010084560120E803D00730
:100ED0000100000082560120E803D0070100000055
:100EE00080560120E803D007010000007E56012053
:100EF0001E00B80B010000007C5601201E00F4010A
:100F0000010000007A560120140064000100000076
:100F1000885601203200E8030100000078560120C5
:100F20000000C80001000000AE55012000C801000B
:100F3000AD55012000500100AC550120005A0100C0
:100F4000AA55012002000000E09405088CFE050867
:100F500094FE0508C28A01200100C40900000000B7
:100F6000C08A01200100C40900000000BE8A0120DF
:100F70000100C40900000000BC8A01200100C4096E
:100F800000000000B88A01200100C4090000000030
:100F9000BA8A01200100C40900000000B68A0120BD
:100FA0000100C40900000000B48A01200100C40946
:100FB000000000007753012000C801007653012093
:100FC00000C80100745301200100C80001000000A6
:100FD000725301203200307532000000715301203D
:100FE000055A05006E53012000FF010070530120D7
:100FF000010000001C0601206C53012003000000CA
:10100000CC8405086D53012000FF01006F530120BF
:10101000010000001C0601206B53012003000000AA
:10102000CC840508AD2003085D200308EC94050876
:10103000AC560120EE02CA0801000000AA560120A9
:1010400000C8010064000000A956012000C801008A
:1010500064000000A856012002000000B0950508B9
:101060005E53012080C1803E050000005C530120DA
:1010700080C1803E050000005653012080C1803EA3
:10108000050000005453012080C1803E050000008F
:101090004F53012000FF0100485301206400F40178
:1010A000010000004753012004000000BC95050822
:1010B0004653012002000000D0950508ED530120A1
:1010C0000D000000DC950508EA53012000640100D2
:1010D000E8530120320010270A000000E7530120E6
:1010E0000D000000DC950508E65301200D0000000E
:1010F000DC950508E5530120020000001496050860
:10110000000000000000000020960508803001204B
:101110009CFF2C0100000000705D0120E0150C1701
:10112000000000006D5A01200200000058960508DA
:10113000B85601200100FF7F01000000B7560120D2
:101140000200000064960508EF5301200300000030
:1011500074960508EE5301200300000074960508FC
:101160008C5501200000E803010000008A55012091
:101170000000E80301000000885501200000E8039A
:1011800001000000865501200000E8030100000076
:10119000845501200000E803010000008255012071
:1011A0000000E80301000000815501200014010047
:1011B0008055012003000000849605089855012001
:1011C0000000F40101000000965501200000F40128
:1011D00001000000945501200000F401010000000E
:1011E000925501200000F4010100000090550120FB
:1011F0000000803E010000008E5501200000803E6E
:1012000001000000C155012019640100C0550120F2
:101210000200000094960508BE550120E803D0079F
:101220000A000000BC550120006401000A00000013
:10123000B155012000640100B05501200064010097
:10124000B8550120006401000A000000B7550120D4
:10125000006401000A000000B6550120006401008E
:101260000A000000BB550120006401000A000000D4
:10127000BA550120006401000A000000B9550120A0
:10128000006401000A000000B555012001FF0100C3
:101290000A000000B455012001FF01000A0000000F
:1012A000B355012001FF01000A000000F85301209E
:1012B0000000F40101000000F65301200000F401D9
:1012C00001000000F45301200000F40101000000BF
:1012D000F25301200000F40101000000F05301204E
:1012E0000000F40101000000A95501200064010084
:1012F000A855012000640100A755012000640100E9
:10130000A6550120FF080100A55501200164010038
:101310002D1F0308F11E0308A0960508A4550120FF
:1013200000640100A25501201400E8030100000040
:10133000A0550120E80330750A0000009E550120E9
:1013400000C801009D55012000C801009C550120E6
:1013500000C801009B550120006401000A00000044
:10136000765601200000D0070100000071560120D0
:1013700000C801007056012000C801006F5601200E
:1013800000C80100745601200000D00701000000D1
:101390006E56012000C801006D56012000C80100F2
:1013A0006C56012000C80100725601200000D007D1
:1013B000010000006B56012000C801006A560120A0
:1013C00000C801006956012000C8010000000000AB
:1013D000591C030810970508E3530120350000004D
:1013E000AC970508E253012000C80100E05301203A
:1013F000E803D007010000004D4154454B46373209
:10140000320000006A5301200003010069530120EB
:1014100000030100A51B0308691B03088498050845
:10142000251B0308D91A0308F4980508E11B0308D3
:10143000794E0308749905086053012001030100E7
:10144000A121030875210308689C05085D1A03089B
:10145000111A0308D89C05086F1C03081D6E0308A9
:10146000749D050809640308000000001C9E05081F
:10147000F94F030801220308B89E0508C91C030898
:1014800000000000289F0508A11D03084D1D03084A
:101490008C9F0508311E0308F51D030828A00508C8
:1014A000691F0308B11F0308A8A00508AF55012054
:1014B00001060100111D0308DD1C0308A4A1050895
:1014C0006D1E0308DD4E030814A20508E11F030882
:1014D000654F0308F4A205089A5501200103010095
:1014E000291C0308F91B0308C8A30508CD2103081C
:1014F000000000002CA40508A91A0308494E03089F
:1015000090A4050800000000000000001CA50508CC
:1015100035200308DD4F03089CA505084253012030
:1015200088136F17010000004453012088136F17C0
:1015300000000000068B01200000000000000000F9
:10154000048B01200000000000000000028B01203D
:101550000000000000000000008B012000000000DF
:1015600000000000FE8A01200000000000000000D2
:10157000FC8A012000000000000000002804012077
:1015800000000000000000001853012002000000CD
:1015900024A705084053012088136F17010000009D
:1015A000C030012088136F1700000000A119030844
:1015B0000000000030A705086E5A0120010000005D
:1015C00084A70508C23001200100000090A705088B
:1015D000B83001200200000098A7050800000000B4
:1015E00000000000A4A705088919030800000000F6
:1015F00040A80508000000000000000094A80508AD
:10160000000000000000000004A90508BC30012013
:10161000E0150C1700000000685E0C00FF010000E0
:10162000A00F0000B80B00000102FFFF0100000046
:10163000FFFF0000FFFFFFFF805A060800000802BE
:1016400005030400885A0608010008020504040086
:10165000446506080200FE0101100300A00206080E
:101660000300140200030000905A060804001F0241
:1016700001000800985A060805001F020101080031
:101680005123010831230108ED2201080000000068
:10169000E1220108CD220108B92201080000000062
:1016A000000000000000000000000000AD22010862
:1016B00000000000A1220108F15A0108E51F0108FD
:1016C000611F0108491F010800000000AC6C0120E7
:1016D00008000000000000009C6C012008000000D1
:1016E000FCFD0508CC630608D8630608E463060819
:1016F000F0630608FC630608E40D06080C320608D1
:1017000084F305088C630608945E0608BC6306082B
:10171000C0630608C4630608C863060808640608B0
:101720000C64060810640608682F0608146406088E
:101730001900C800F401200310000000952F0108D3
:10174000552E0108C52F0108754C0108F17D0108CF
:10175000F14C01085D2201084922010841220108DB
:101760000100000000600240106002400000000024
:1017700000000000000B000000000000000000005E
:1017800000000000006002402860024001000000EC
:1017900000000000060C0000000000000000000037
:1017A00000000000006002404060024002000000B3
:1017B00000000000100D000000000000000000000C
:1017C000000000000060024058600240030000007A
:1017D00000000000160E00000000000000000000E5
:1017E0000000000000600240706002400400000041
:1017F00000000000200F00000000000000000000BA
:101800000000000000600240886002400500000007
:101810000000000026100000000000000000000092
:101820000000000000600240A060024006000000CE
:101830000000000030110000000000000000000067
:101840000000000000600240B86002400700000095
:1018500000000000362F0000000000000000000023
:10186000000000000064024010640240000000001C
:101870000000000000380000000000000000000030
:1018800000000000006402402864024001000000E3
:101890000000000006390000000000000000000009
:1018A00000000000006402404064024002000000AA
:1018B00000000000103A00000000000000000000DE
:1018C0000000000000640240586402400300000071
:1018D00000000000163B00000000000000000000B7
:1018E0000000000000640240706402400400000038
:1018F00000000000203C000000000000000000008C
:1019000000000000006402408864024005000000FE
:10191000000000002644000000000000000000005D
:101920000000000000640240A064024006000000C5
:101930000000000030450000000000000000000032
:101940000000000000640240B8640240070000008C
:10195000000000003646000000000000000000000B
:10196000000000001C5B0608B0F90508000000003C
:101970009DA80408A08601000400000000000000EB
:101980000000000000000000000000000000000057
:101990000000000000000000000000000000000047
:1019A000000000001C5B0608B4650608000000008B
:1019B0001D880308E8030000040000000000000088
:1019C0000000000000000000000000000000000017
:1019D0000000000000000000000000000000000007
:1019E00000000000D8050608E42F060800000000EB
:1019F000AD0A00007D0000000600000000000000AD
:101A000000000000000000000000000000000000D6
:101A100000000000000000000000000000000000C6
:101A2000000000006C5A06080000000000000000E2
:101A3000D99B0308E8030000030000000000000039
:101A40000000000000000000000000000000000096
:101A50000000000000000000000000000000000086
:101A600000000000BC650608000000000000000047
:101A7000D941020810270000030000000000000008
:101A80000000000000000000000000000000000056
:101A90000000000000000000000000000000000046
:101AA000000000008C5A060800000000099D020892
:101AB00095A703085F760000050000000000000005
:101AC0000000000000000000000000000000000016
:101AD0000000000000000000000000000000000006
:101AE00000000000285D0608000000000000000063
:101AF000F1F30308102700000100000000000000BF
:101B000000000000000000000000000000000000D5
:101B100000000000000000000000000000000000C5
:101B200000000000C865060800000000000000007A
:101B300095830308E8030000050000000000000092
:101B40000000000000000000000000000000000095
:101B50000000000000000000000000000000000085
:101B600000000000D465060800000000000000002E
:101B700051D20408204E00000300000000000000C5
:101B80000000000000000000000000000000000055
:101B90000000000000000000000000000000000045
:101BA00000000000E46506080000000000000000DE
:101BB0003DD00408204E000003000000000000009B
:101BC0000000000000000000000000000000000015
:101BD0000000000000000000000000000000000005
:101BE00000000000F465060800000000000000008E
:101BF000A98C0308400D0300030000000000000052
:101C000000000000000000000000000000000000D4
:101C100000000000000000000000000000000000C4
:101C200000000000DC5B060800000000000000006F
:101C3000AD7904081027000001000000000000003A
:101C40000000000000000000000000000000000094
:101C50000000000000000000000000000000000084
:101C600000000000DCF90508000000000000000092
:101C700021300308102700000300000000000000CE
:101C80000000000000000000000000000000000054
:101C90000000000000000000000000000000000044
:101CA00000000000046606080000000000000000BC
:101CB0007DEE0208A0860100010000000000000087
:101CC0000000000000000000000000000000000014
:101CD0000000000000000000000000000000000004
:101CE00000000000705A060800000000000000001C
:101CF0004587030850C300000100000000000000F9
:101D000000000000000000000000000000000000D3
:101D100000000000000000000000000000000000C3
:101D2000000000008C010608000000000000000018
:101D300049840308A86100000100000000000000C1
:101D40000000000000000000000000000000000093
:101D50000000000000000000000000000000000083
:101D6000000000000C6606080000000000000000F3
:101D70004D6F0308A0860100010000000000000074
:101D80000000000000000000000000000000000053
:101D90000000000000000000000000000000000043
:101DA00000000000305D0608000000000000000098
:101DB00005D50308A00F000001000000000000008E
:101DC0000000000000000000000000000000000013
:101DD0000000000000000000000000000000000003
:101DE0000000000018660608000000000000000067
:101DF00059690308102700000100000000000000DE
:101E000000000000000000000000000000000000D2
:101E100000000000000000000000000000000000C2
:101E200000000000E40C06080000000000000000B4
:101E3000A1EE01081A4100000100000000000000AE
:101E40000000000000000000000000000000000092
:101E50000000000000000000000000000000000082
:101E6000000000004C010608000000000000000017
:101E70001D8901081027000001000000000000007B
:101E80000000000000000000000000000000000052
:101E90000000000000000000000000000000000042
:101EA00000000000C4F90508000000000000000068
:101EB000317703081A410000010000000000000013
:101EC0000000000000000000000000000000000012
:101ED0000000000000000000000000000000000002
:101EE000000000002466060800000000000000005A
:101EF000CD950108400D0300000000000000000027
:101F000000000000000000000000000000000000D1
:101F100000000000000000000000000000000000C1
:101F2000000000002C660608000000000000000011
:101F3000A3600408400D0300000000000000000042
:101F40000000000000000000000000000000000091
:101F50000000000000000000000000000000000081
:101F600000000000346606080000000000000000C9
:101F70007558030850C30000030000000000000073
:101F80000000000000000000000000000000000051
:101F90000000000000000000000000000000000041
:101FA000000000004066060800000000000000007D
:101FB000B5CF040840420F00000000000000000000
:101FC0000000000000000000000000000000000011
:101FD0000000000000000000000000000000000001
:101FE000000000004C660608000000000000000031
:101FF0008576040850C300000000000000000000C7
:1020000000000000000000000000000000000000D0
:1020100000000000000000000000000000000000C0
:10202000000000000000803FFC16012000000000BE
:1020300000000000000000000000000000000000A0
:102040000000000000000000000000000000000090
:102050000000000000000000000000000000000080
:102060000000000000000000000000000000000070
:102070000000000000000000000000000000000060
:0C20800000000000000000000000000054
:10208C000000803F0000803F0000000001000000C5
:0C209C00BC12002000000000200000002A
:1080000003685A1C02601970704700BF2DE9F047E1
:10801000089C002B8846074621780CBF4FF02009AA
:108020004FF03009651C29B3002A27DD2B4601E0FB
:108030000246A8B113F8016B501E002EF8D1961E0F
:1080400070B1B2460AF1FF3A49463846C0470AF1D4
:108050000103002BF6DC26EAE6702178013039B105
:10806000041B3846C047281915F8011B0029F8D110
:10807000BDE8F087002A03DC0846F9E70020EFE7B7
:10808000561EDEE72DE9F84F14461D4606464FF40E
:108090007A720023204629464E4F4DF05BFF4E4B2F
:1080A0004E4A40F2B55C0344DFF83CA182FB030179
:1080B000D81787FB03784A4F1944984487FB037EFF
:1080C000C0EB6111C0EBE8279E4482FB01824FEABE
:1080D000E179C0EB2E4E8AFB078A0A44C1EB011BF3
:1080E000C9EB62193F4AA3EB8B0BC9EB091982FB61
:1080F0000E824FEAE77886F806B0A1EB8901DFF837
:10810000EC90C8EBAA08717189FB03134FEAEE717A
:1081100008EB4808C1EBE212A7EBC8080CFB12E21F
:10812000C0EBE35386F80480B2F5896F4FEA830011
:108130003CDA40F2DA239A4242DCB2F5B77FDFF84C
:10814000B080B4BF4FF0000E4FF0010E4FEA4E0961
:108150001FFA8EFC09EB0E0308EBC303DF8A09EB61
:108160000E010B2308EBC101163101E031F8027D4D
:10817000974218DD013BF9D1CE44012338F83E7017
:1081800000F5FA6E0132B3702046F444D71B29463D
:108190004FF47A720023A6F800C0F7704DF0DAFEB3
:1081A0003281BDE8F88F0133DBB2E9E74FF0030C11
:1081B00040F29657DFF838804FF00609E646CEE7E2
:1081C0004FF0020C40F22947DFF824804FF00409F9
:1081D000E646C4E7C5B3A29180BC92C78988888867
:1081E00007452EC273B06D16ABAAAA2A792D0311CA
:1081F000508105080028F0B504DA2D2340420131F2
:1082000001F8013C092804464FF0010307DD03EBA8
:1082100083035B00B0FBF3F2092AF8D883B10E4860
:10822000A0FB0356B4FBF3F2092A02F1570C02F14A
:10823000300708DD03FB1244F30801F801CBEFD14E
:1082400000230B70F0BD03FB1244F30801F8017B1F
:10825000E6D100230B70F0BDCDCCCCCC884270B4FD
:108260004FF0010442D301FB04F4B0FBF4F58D425E
:10827000F9D2ECB142BB092D04FB150005F15706FC
:1082800005F130020EDD03F8016BB4FBF1F47CB1B3
:10829000B0FBF4F5092D04FB150005F1570605F1B7
:1082A0003002F0DC03F8012BB4FBF1F4002CEFD129
:1082B000002270BC1A707047B4FBF1F403F8016B34
:1082C000002CF5D0B0FBF4F5092D04FB150005F1E9
:1082D000370605F13002EFDC03F8012BB4FBF1F4B3
:1082E000002CEFD1002270BC1A7070470546002A9E
:1082F000EAD1C0E7322200230221C27001220370BA
:10830000C3728373C373417041728270027282724E
:1083100030B4332503248571C47130BC704700BF6D
:10832000002306214FF47A7201700373C0E9012320
:10833000704700BF30233422FF2143700123427174
:108340000022817403720370037183704281828101
:10835000C28130B420254FF47F44C570048230BC04
:10836000704700BF3249334B2DE9F04F804683B050
:1083700013274FF0000A01F5C07B2F481022012679
:1083800003E0203098420AD002799742F9D102687E
:108390000C68A24208D0203001369842F4D1203136
:1083A00059453AD00F79E8E744794D79A542F2D1A1
:1083B0000AEB4A099646214808F80970C144DFF8DB
:1083C00080C000F5727589F801607246664603E068
:1083D000A84219D050F82C6FB242F9D10679A642C2
:1083E000F6D1CF6806464FF0000C96460190F26831
:1083F000BA4215D00CF1010C0C36BCF1030FF6D1CA
:1084000001987246A842E5D14FF0FF3C203189F82F
:1084100002C00AF1010A5945C4D103B0BDE8F08F8A
:10842000086932698242E5D14FFA8CFCEEE700BF61
:10843000A0880508C4E7050804DE0508C4E70508A8
:1084400000000140F0B5154B4FF0FF34FF21172716
:1084500003F10C0EA446162615250022C1700171E9
:1084600001724172417381738174C17402EB8202A3
:10847000734500EB020185544E708F7081F803C084
:108480000C710AD093F9062006335D789E78DF7868
:1084900093F904C093F90540E8E7F0BDB081050801
:1084A00010B42A210124022200230470417082703A
:1084B000C3705DF8044B7047002331210122C17065
:1084C000427183700371037010B4032444705DF82B
:1084D000044B7047FF22034600F1100170B41A707C
:1084E000023303F8012C8B42F9D10E4B4FF0FF31D0
:1084F000002203F10C060C4600EB42059E4200F8F8
:10850000124069700CD093F9044093F9051013F8E8
:10851000032F00EB42059E4200F812406970F2D131
:1085200070BC7047C48105086B4B8C462DE9F04F39
:108530001C680025694B87B00746B3F80AE0188924
:108540004FEA0E2AB3F804804FEA1E6B9A89B4EB07
:108550000A0465EB0B05CDE90045009C019EA0FBDC
:10856000044500FB0655E0094FEA084440EA45602F
:10857000E9114FEA184510EB0408D888009C41EB3C
:108580000509A0FB0445CDE9048900FB0655B3F8B5
:108590000280200A4FEAC83440EA056029124FEAF7
:1085A000584510EB040841EB05090099A2FB0101B5
:1085B00002FB06114FEAD05A474E4AEA412A4FEAD7
:1085C000E15B1AF5FA634BF10004B3F5FA6FCDE9FC
:1085D000023474F1000362DA0524AAFB040104FBEF
:1085E0000B1100FB0BF40AFB0144A0FB0A01214420
:1085F000DDE904234D104FEA3004121B4FEA9004CA
:10860000374863EB050344EA81748D104FF0FF3166
:10861000B8EB0408CDE90423DDE9023469EB050970
:10862000834274EB010325DA40F6AC5000211AEBCB
:1086300000024BEB010302FB03F1A2FB022303EB5D
:108640004103D400DD00101B45EA527563EB0501C0
:10865000DDE9044524184D41CDE904450B24A2FB76
:10866000040104FB031149104FEA3000B8EB000885
:1086700069EB0109DDE90032DDE902015343009AAB
:10868000A2FB02AB0BEB430B4FEADA724FEAEB7340
:1086900042EA4B02801A61EB0301CDE9020197B176
:1086A0007168A1FB082301FB0933540D5D1544EAF1
:1086B000C324DDE90423A21A65EB03031D46D30B93
:1086C00043EA45433B60BCF1000F02D0029BCCF86B
:1086D000003007B0BDE8F08F60170120344C012056
:1086E00024FAFFFF2DE9F04FDFF8D8C185B0744CB4
:1086F000DCF808502288B4F90AA0C2EB2513520016
:108700005B43C2EBE502B4F902501B136A43B4F9B0
:1087100004505D43AD1305EBE225B5F5FA324FEA9F
:10872000E57BA5614BF1FF334FEAEA7BCDE90023FE
:10873000DDE90032CDE902015343009A0199A2FB21
:108740000289B4F90820009809EB43095143D31773
:1087500000FB0311A2FB00230B440AFB09F11603E3
:108760001F0308FB0B13AAFB080147EA1257194421
:108770004FEA102A4AEA016A4FEA212B1AEB060255
:10878000E6884BEB070312F1000A43F5004BAAFB06
:10879000060106FB0B114A10CB1752EA030100F049
:1087A0008C80B4F91060009806FB09F1F71708FBFC
:1087B0000711A6FB0867B4F90E8039444FEAE8793F
:1087C000B2468B46019908FB01F100FB0911A8FB99
:1087D00000898944DCF80C104FEA4846C1F5801C3A
:1087E0004FEA49471AEB060A47EAD8376646B4F912
:1087F0000C804FEACC704BEB070BF7174FEAC8061B
:10880000F9070196002641EA5C0140F6354C0096D6
:10881000DDE9006716EB0A0647EB0B07801B61EBEF
:1088200007018946A0FB0C010CFB09114DF092FBDE
:10883000B4F916204E13B4F914A0470B804602FB7E
:1088400006FCD31747EAC1474FEAEA7B07FB03CC94
:10885000A2FB07236344564307FB0366A2FB0723DF
:108860003344560E46EAC3165F16321847EB01032F
:108870000AFB01F108FB0B17AAFB08013944C60CDF
:1088800046EA4136CF1412EB0608B4F9122043EB46
:1088900007094FEA1821130141EA09610B44029AC2
:1088A0000AB11B0A1360039B23B105EB85058035D4
:1088B0002D121D6005B0BDE8F08F0023EFE700BF6B
:1088C000484C012060170120704770472DE9F041A6
:1088D000334B344E1A8A7489B6F91450121B3489FA
:1088E000B6F904805443B6F90E70B6F920C0E2130D
:1088F000B6F912405B691544E40294FBF5F41444A4
:10890000B6F90250A4F57A6EF4610EFB0EF20EFB7E
:1089100005F512130EFB08FEB6F90C80ED12574355
:1089200002FB08F205EBE727B6F90050121407EB3B
:10893000850702EB6E32B6F806E007FA0CF7023252
:1089400002379210A3EBA70702F500420EFB02F2DA
:108950004FEAD23E4CF2503242FA0CF37B431BD426
:108960005B00B3FBFEF378B11A1202FB02F540F68E
:10897000DE326A430C4D12145D4302EB254202F6CF
:10898000CF6203EB2213036021B10A235C43083456
:1089900024110C60BDE8F081B3FBFEF35B00E2E75D
:1089A00060170120104C012043E3FFFF012380F8F2
:1089B000543070474FF40063838370474FF4006373
:1089C000838370474FF4006383837047034610B47A
:1089D000D0F8F840D968406964B1D3F810218C1AF6
:1089E000013A005D08BF0A465DF8044BC0B2C3F807
:1089F000102170471A6A805C01328A4228BF2246E1
:108A0000C0B25DF8044B1A62704700BFD0F8FC306A
:108A100013B190F890017047D0E90903181AB0FA21
:108A200080F04009704700BFD0E909120369914204
:108A300038BFC918013B8A1AD0F8FC1031B1D0F800
:108A40007C11096849680A449A4201D2981A704711
:108A500000207047D0F8F8306BB1D0F88031D0F8F2
:108A600010211B685B689A4201D8981A7047C06849
:108A7000801A18447047D0E907239A4203D2C0688D
:108A80001044C01A7047D01A704700BFF0B4C769CD
:108A900082B006461FB1BB883A681B0493617269B5
:108AA00003206D463E4C536823F48053536040F2DC
:108AB000E93301E0013B54D091688907FAD5002CD5
:108AC0004CD034F8023B938140F2E93301E0013BA2
:108AD00047D09168C907FAD5D3680DB125F8023B94
:108AE0000138E4D1516840F2E93341F480515160DA
:108AF00001E0013B35D091688807FAD5002C47D0BA
:108B00002378137340F2E93301E0013B42D09168CE
:108B1000C907FAD5D368F76905B12B7017B13B685F
:108B2000BA889A619DF8014001209DF803309DF8B4
:108B300002109DF8042041EA04219DF8054042EA14
:108B400003229DF80630A6F8541043EA0423A6F841
:108B50005620A6F8583002B0F0BC70474FF6FF73AD
:108B6000B1E710498A4207D00F4B9A420ED003F565
:108B700080639A42D2D102230C4AD82101FB0323FD
:108B80009A89013292B29A819B89C7E70123F3E760
:108B9000FF23B6E70349F7698A42E5D1ECE700BF56
:108BA000D48105080030014000380040788601205B
:108BB00013B506230C466A4628210C303AF080FA99
:108BC000F0B19DF8013004219DF8002042EA032213
:108BD0009DF8033012B292FBF1F222809DF8022040
:108BE00042EA03229DF8043012B292FBF1F2628055
:108BF0009DF8052043EA02231BB293FBF1F3A38007
:108C000002B010BD7FB5002500F10C060C46012313
:108C10000D800DF107024D8030468D8006213AF01F
:108C20004FFA10B9002004B070BD9DF807305B0703
:108C3000F8D5062302AA294630463AF041FA002820
:108C4000F0D09DF809209DF8083043EA02239DF8F2
:108C50000B2023809DF80A3043EA02239DF80D2063
:108C600063809DF80C3043EA0223A380DBE713B551
:108C700006230C466A4603210C303AF021FAA0B1D3
:108C80009DF800209DF8013043EA02239DF8022060
:108C900023809DF8033043EA02239DF80420A3803B
:108CA0009DF8053043EA0223638002B010BD07B58A
:108CB000032301AA00213AF003FA9DF805309DF83C
:108CC00004001B0243EA00439DF80600184303B06A
:108CD0005DF804FB08B5FFF7EAFF014B586008BDDB
:108CE0006017012008B5FFF7E2FF014B186008BDCF
:108CF0006017012007B506236A46F7213AF0E0F92C
:108D00009DF801309DF800101B010B4A43EA013326
:108D10009DF8021043EA11139DF80310D3609DF8EB
:108D200004301B0143EA01339DF8051043EA111397
:108D3000936003B05DF804FB6017012007B50323BF
:108D400001AAF6213AF0BCF99DF805309DF80420FF
:108D50001B0243EA02439DF806201343054AB2F979
:108D60002020C2F10802D340034A536103B05DF8EA
:108D700004FB00BF104C01206017012007B502233F
:108D800001AAF6213AF09CF99DF804209DF80530DF
:108D900043EA0223024A138203B05DF804FB00BFDA
:108DA000601701203AF0A0BE1D4B1B7870B5044639
:108DB00000F1250593B104221A4920304FF08EF9B5
:108DC0002846142218494FF089F9012384F83A30D3
:108DD000164B1B7873B984F83B3070BD28461422BB
:108DE00013494FF07BF9012384F83A300F4B1B787D
:108DF000002BF0D00F4A0123166855689068D1689F
:108E000026606560A060E160D16916695569906966
:108E100084F83B3026616561A061E16170BD00BFEF
:108E200010680120D8670120C06701201168012067
:108E30007CF30508E0670120014B186834F05EBB45
:108E40005866012010B42721262401220023047033
:108E500041708270C3705DF8044B704738B52E22A4
:108E600000214FF045F840F2DC540346642140F203
:108E70001A4040F26C7240F2022519745C82132190
:108E800019249882DA8240F2753040F643021D833D
:108E900099760E250A211C77D8831E2402201A8475
:108EA000012283F82B101872194683F82A0083F8E0
:108EB000225083F82C409A7383F8252083F82920C8
:108EC0000248BDE8384026F015BE00BF88F305080B
:108ED00010B504460021012030F09AFA207010BD30
:108EE00038B50023451E1C460372E1B2013402204E
:108EF00030F08EFA082C05F8010FF6D138BD00BF0E
:108F000038B5002305461C46038021460134284617
:108F10002DF082F8082CF8D10023284685F8E2309D
:108F20001946A5F8E430A5F8E630A5F8E830A5F82C
:108F3000EA30A5F8EC30A5F8EE30A5F8F030A5F849
:108F4000F230BDE838402DF02BB810B500F10C041C
:108F50000022212120463AF0EDFBFC222021204670
:108F60003AF0E8FB4022242120463AF0E3FB0C22B1
:108F7000232120463AF0DEFB0022222120463AF04F
:108F8000D9FB642034F042F9012010BD10B500F186
:108F90000C0401220B2120463AF0CCFB20B11D220B
:108FA000092120463AF0C6FB00F0010010BD10B5C3
:108FB00000F10C047022002120463AF0BBFB202275
:108FC000012120463AF0B6FB0022022120463AF069
:108FD000B1FB642034F01AF9012010BD01224821B0
:108FE0003AF0A8BB012258213AF0A4BB3122F42167
:108FF0003AF0A0BB044BF42193F8202092013432C4
:1090000002F0FC023AF096BB104C01202E22F42113
:109010003AF090BB2DE9F04F8DB090F86530039099
:10902000002B40F02A86039B93F85C30072B00F05E
:109030001A861823CDE90433039B80226B21BF4C91
:109040001033DFF804934FF01008BD4E184602931A
:109050003AF070FB6423DFF8F4C2BA48DFF8F0E2BC
:109060000193DCF80430C3F30803002B40F0BE8406
:10907000EFF31183002B40F0B984256882682368E0
:109080009D42FAD133689A42F7D8D9F800704FF46C
:109090007A7101FB07F39B1AB3FBF7F301FB05356C
:1090A0004FF47A774FF0010ADCF80430C3F3080379
:1090B000002B40F07B84EFF31183002B40F076848B
:1090C0002368816822689342FAD132689142F7D8C6
:1090D000D9F8002007FB02FBABEB0101B1FBF2F179
:1090E00007FB03135B1BB3F57A7FDDD3019B013BC9
:1090F0000193B6D10722682102984FF010083AF088
:1091000019FB8F4E6423DFF844C28E48DFF840E23B
:109110000193DCF80430C3F30803002B40F0A6846D
:10912000EFF31183002B40F0A18425688268236847
:109130009D42FAD133689A42F7D8D9F800704FF4BB
:109140007A7101FB07F39B1AB3FBF7F301FB0535BB
:109150004FF47A774FF0010ADCF80430C3F30803C8
:10916000002B40F00384EFF31183002B40F0FE83CB
:109170002368816822689342FAD132689142F7D815
:10918000D9F8002007FB02FBABEB0101B1FBF2F1C8
:1091900007FB03135B1BB3F57A7FDDD3019B013B18
:1091A0000193B6D11A466B2102984FF010083AF09D
:1091B000C1FA634E6423DFF894C16248DFF890E19E
:1091C0000193DCF80430C3F30803002B40F02E8435
:1091D000EFF31183002B40F029842568826823680F
:1091E0009D42FAD133689A42F7D8D9F800704FF40B
:1091F0007A7101FB07F39B1AB3FBF7F301FB05350B
:109200004FF47A774FF0010ADCF80430C3F3080317
:10921000002B40F08C83EFF31183002B40F0878309
:109220002368816822689342FAD132689142F7D864
:10923000D9F8002007FB02FBABEB0101B1FBF2F117
:1092400007FB03135B1BB3F57A7FDDD3019B013B67
:109250000193B6D101226B2102984FF010083AF029
:1092600069FA374E0F23DFF8E4C03648DFF8E0E054
:109270000193DCF80430C3F30803002B40F0D184E1
:10928000EFF31183002B40F0CC84256882682368BB
:109290009D42FAD133689A42F7D8D9F800704FF45A
:1092A0007A7101FB07F39B1AB3FBF7F301FB05355A
:1092B0004FF47A774FF0010ADCF80430C3F3080367
:1092C000002B40F01583EFF31183002B40F0108347
:1092D0002368816822689342FAD132689142F7D8B4
:1092E000D9F8002007FB02FBABEB0101B1FBF2F167
:1092F00007FB03135B1BB3F57A7FDDD3019B013BB7
:109300000193B6D1049A1B2102984FF010083AF04D
:1093100011FA0B4E0F23DFF834C00A48DFF830E0B3
:109320000193DCF80430C3F30803002B40F05984A8
:10933000EFF31183002B40F054840BE0FC7201200A
:109340000473012010E000E00073012000ED00E054
:10935000F87201202568826823689D42FAD133683B
:109360009A42F7D8D9F800704FF47A7101FB07F3ED
:109370009B1AB3FBF7F301FB05354FF47A774FF0F7
:10938000010ADCF80430C3F30803002B40F091829B
:10939000EFF31183002B40F08C82236881682268F0
:1093A0009342FAD132689142F7D8D9F8002007FBEE
:1093B00002FBABEB0101B1FBF2F107FB03135B1BFB
:1093C000B3F57A7FDDD3019B013B0193A9D1059AC7
:1093D0001C2102984FF010083AF0ACF9C54E0F234B
:1093E000DFF818C3C448DFF818E30193DCF8043051
:1093F000C3F30803002B40F0D583EFF31183002B58
:1094000040F0D0832568826823689D42FAD1336892
:109410009A42F7D8D9F800704FF47A7101FB07F33C
:109420009B1AB3FBF7F301FB05354FF47A774FF046
:10943000010ADCF80430C3F30803002B40F01A8261
:10944000EFF31183002B40F01582236881682268B6
:109450009342FAD132689142F7D8D9F8002007FB3D
:1094600002FBABEB0101B1FBF2F107FB03135B1B4A
:10947000B3F57A7FDDD3019B013B0193B6D1039A0B
:1094800092F85F30032B00F2EC8392F86220012AFD
:109490000BD0022A40F0E583039B93F8673003F07A
:1094A000FB03022B0CBF002207221A2102983AF07C
:1094B00041F94FF010080F23DFF840C28E48DFF863
:1094C00040E28C4E0193DCF80430C3F30803002B18
:1094D00040F02A83EFF31183002B40F025832568A9
:1094E000826823689D42FAD133689A42F7D8D9F846
:1094F00000704FF47A7101FB07F39B1AB3FBF7F38B
:1095000001FB05354FF47A774FF0010ADCF804309F
:10951000C3F30803002B40F08E81EFF31183002B7F
:1095200040F089812368816822689342FAD13268C9
:109530009142F7D8D9F8002007FB02FBABEB010101
:10954000B1FBF2F107FB03135B1BB3F57A7FDDD3AD
:10955000019B013B0193B6D1039B192102984FF067
:10956000100893F864203AF0E5F8624E6423DFF8BF
:109570008CC16148DFF888E10193DCF80430C3F363
:109580000803002B40F0EF82EFF31183002B40F033
:10959000EA822568826823689D42FAD133689A423C
:1095A000F7D8D9F800704FF47A7101FB07F39B1AD2
:1095B000B3FBF7F301FB05354FF47A774FF0010A5F
:1095C000DCF80430C3F30803002B40F01581EFF3FF
:1095D0001183002B40F01081236881682268934238
:1095E000FAD132689142F7D8D9F8002007FB02FB84
:1095F000ABEB0101B1FBF2F107FB03135B1BB3F50E
:109600007A7FDDD3019B013B0193B6D11022372134
:1096100002984FF010083AF08DF8364E0F23DFF81D
:10962000DCC03548DFF8D8E00193DCF80430C3F340
:109630000803002B40F05982EFF31183002B40F018
:1096400054822568826823689D42FAD133689A4221
:10965000F7D8D9F800704FF47A7101FB07F39B1A21
:10966000B3FBF7F301FB05354FF47A774FF0010AAE
:10967000DCF80430C3F30803002B40F09E80EFF3C6
:109680001183002B40F099802368816822689342FF
:10969000FAD132689142F7D8D9F8002007FB02FBD3
:1096A000ABEB0101B1FBF2F107FB03135B1BB3F55D
:1096B0007A7FDDD3019B013B0193B6D10298012251
:1096C00038214FF010083AF035F80A4E0F23DFF832
:1096D0002CC00948DFF828E00193DCF80430C3F31C
:1096E0000803002B40F0E281EFF31183002B40F0E0
:1096F000DD8107E00473012010E000E000ED00E0F0
:10970000F87201202568826823689D42FAD1336887
:109710009A42F7D8D9F800704FF47A7101FB07F339
:109720009B1AB3FBF7F301FB05354FF47A774FF043
:10973000010ADCF80430C3F30803FBB9EFF311832B
:10974000E3B92368816822689342FAD13268914272
:10975000F7D8D9F8002007FB02FBABEB0101B1FB06
:10976000F2F107FB03135B1BB3F57A7FE1D3019B97
:10977000013B0193B1D10DB0BDE8F08FEFF3118142
:1097800088F31288D0F808B00368DB0303D5CEF85D
:1097900000A0D0F808B02368C9B2DEF8002081F339
:1097A0001188D9F80010134407FB01F2A2EB0B0259
:1097B000B2FBF1F207FB0323D5E7EFF3118188F346
:1097C0001288D0F808B00368DB0303D5CEF800A0F8
:1097D000D0F808B02368C9B2DEF8002081F3118800
:1097E000D9F80010134407FB01F2A2EB0B02B2FB05
:1097F000F1F207FB032359E7EFF3118188F3128895
:10980000D0F808B00368DB0303D5CEF800A0D0F889
:1098100008B02368C9B2DEF8002081F31188D9F8B6
:109820000010134407FB01F2A2EB0B02B2FBF1F2B2
:1098300007FB0323E2E6EFF3118188F31288D0F8E7
:1098400008B00368DB0303D5CEF800A0D0F808B059
:109850002368C9B2DEF8002081F31188D9F800101E
:10986000134407FB01F2A2EB0B02B2FBF1F207FB80
:10987000032369E6EFF3118188F31288D0F808B06A
:109880000368DB0303D5CEF800A0D0F808B0236846
:10989000C9B2DEF8002081F31188D9F80010134412
:1098A00007FB01F2A2EB0B02B2FBF1F207FB032371
:1098B000DDE5EFF3118188F31288D0F808B0036872
:1098C000DB0303D5CEF800A0D0F808B02368C9B2F6
:1098D000DEF8002081F31188D9F80010134407FB4B
:1098E00001F2A2EB0B02B2FBF1F207FB032366E5E8
:1098F000EFF3118188F31288D0F808B00368DB0316
:1099000003D5CEF800A0D0F808B02368C9B2DEF8BD
:10991000002081F31188D9F80010134407FB01F2ED
:10992000A2EB0B02B2FBF1F207FB0323E2E4EFF33D
:10993000118188F31288D0F808B00368DB0303D5DF
:10994000CEF800A0D0F808B02368C9B2DEF8002035
:1099500081F31188D9F80010134407FB01F2A2EB40
:109960000B02B2FBF1F207FB03236BE4EFF311816F
:1099700088F31288D0F808B00368DB0303D5CEF86B
:1099800000A0D0F808B02368C9B2DEF8002081F347
:109990001188D9F80010134407FB01F2A2EB0B0267
:1099A000B2FBF1F207FB0323FFF7F4BBEFF31181E6
:1099B00088F31288D0F808B00368DB0303D5CEF82B
:1099C00000A0D0F808B02368C9B2DEF8002081F307
:1099D0001188D9F80010134407FB01F2A2EB0B0227
:1099E000B2FBF1F207FB0323FFF77CBBEFF311831C
:1099F00088F3128881680268D20303D50122CEF869
:109A0000002081682568DBB2DEF800A083F31188AE
:109A10004FF47A72D9F80070554402FB07F35B1AD1
:109A2000B3FBF7F302FB0535FFF73ABBEFF3118306
:109A300088F3128881680268D20303D50122CEF828
:109A4000002081682568DBB2DEF800A083F311886E
:109A50004FF47A72D9F80070554402FB07F35B1A91
:109A6000B3FBF7F302FB0535FFF7CABBEFF3118336
:109A700088F3128881680268D20303D50122CEF8E8
:109A8000002081682568DBB2DEF800A083F311882E
:109A90004FF47A72D9F80070554402FB07F35B1A51
:109AA000B3FBF7F302FB0535FFF752BBEFF311836E
:109AB00088F3128881680268D20303D50122CEF8A8
:109AC000002081682568DBB2DEF800A083F31188EE
:109AD0004FF47A72D9F80070554402FB07F35B1A11
:109AE000B3FBF7F302FB05351FE6EFF3118388F3B1
:109AF000128881680268D20303D50122CEF80020C3
:109B000081682568DBB2DEF800A083F311884FF48A
:109B10007A72D9F80070554402FB07F35B1AB3FB65
:109B2000F7F302FB05359FE5EFF3118388F3128805
:109B300081680268D20303D50122CEF80020816833
:109B40002568DBB2DEF800A083F311884FF47A7247
:109B5000D9F80070554402FB07F35B1AB3FBF7F327
:109B600002FB0535CEE4EFF3118388F31288816898
:109B70000268D20303D50122CEF80020816825684F
:109B8000DBB2DEF800A083F311884FF47A72D9F8C3
:109B90000070554402FB07F35B1AB3FBF7F302FBBB
:109BA000053509E5EFF3118388F3128881680268AF
:109BB000D20303D50122CEF8002081682568DBB2EC
:109BC000DEF800A083F311884FF47A72D9F80070A0
:109BD000554402FB07F35B1AB3FBF7F302FB0535B1
:109BE00023E4EFF3118388F3128881680268D203BB
:109BF00003D50122CEF8002081682568DBB2DEF8AB
:109C000000A083F311884FF47A72D9F8007055449C
:109C100002FB07F35B1AB3FBF7F302FB0535FFF713
:109C2000ACBBEFF3118388F3128881680268D2031A
:109C300003D50122CEF8002081682568DBB2DEF86A
:109C400000A083F311884FF47A72D9F8007055445C
:109C500002FB07F35B1AB3FBF7F302FB0535FFF7D3
:109C600027BB019A21E4039B93F86130002B59D163
:109C70001023CDE90433FFF7DFB91C0903F00F030C
:109C8000013C032C00F28280454A32F8140040FA6D
:109C900003F2D1077AD5012202FA03F3013B1840FF
:109CA0004CF0A8F93F4B40491B5D184411EBC0052F
:109CB0006CD0AF8820263D4A0024B7FA87F3AE71F6
:109CC000039EC3F11F03EC71F2605A1C3FF4ABA971
:109CD0003246DFF8F8C0364E0C3251F8300006EB51
:109CE000030E07A94CF82320324B079708939EF8E0
:109CF0008C700994CDE90A440BF0B6FB2E4BDA5D6B
:109D0000F02A15D8AB880122B3FA83F3C3F11F03FD
:109D100012FA03F33FF487A928490A6813430B603A
:109D2000FFF781B918231021CDE90431FFF784B979
:109D3000F021234A3E44D955D36896F89C20C3F3BA
:109D4000022351B2C3F107001E1D042828BF0420BE
:109D5000062E88BFDC1E4FF0FF33002903FA00F304
:109D60006FEA030303F0030303FA04F34FEA031358
:109D7000DBB210DB02F01F06124801224C0901443D
:109D8000B24081F8003340F82420BBE7074B039A28
:109D9000D360FFF748B902F00F020B498B54B1E7CB
:109DA000F8DD050800DE050838710120AD890008DE
:109DB0005081050800001110E86B0120003C0140B3
:109DC00000ED00E000E100E014ED00E0A86B0120F0
:109DD0004369B3491A688B4222F040022DE9F04FE3
:109DE00083B01A60019000F01181AE4A934200F0F6
:109DF0000D8138211A6822F038020A431A601A6865
:109E000042F040021A6030F07BFC044630F078FCEF
:109E10008442FBD0019C2046FFF7FCF8E2691AB1AE
:109E2000938812681B049361019B5A6940F2E933DD
:109E300002E0002B00F004819168013B11F0020F59
:109E40009BB2F6D06A2140F2E933117302E0002B95
:109E500000F00C819168013B11F0010F9BB2F6D02C
:109E6000D368019B5A6940F2E93302E0002B00F00D
:109E7000CF809168013B11F0020F9BB2F6D0102108
:109E800040F2E933117302E0002B00F0C1809168C9
:109E9000013B11F0010F9BB2F6D0D368019BDB6947
:109EA00013B11A689B88936164237F48DFF80CE242
:109EB0004FF01009DFF808C27C4CDFF808827C4EB6
:109EC0000093DCF80430C3F30803002B7DD1EFF3DB
:109ED0001183002B79D10568A26803689D42FAD1ED
:109EE00033689A42F7D8DEF800704FF47A7101FBBC
:109EF00007F39B1AB3FBF7F301FB05354FF47A77B1
:109F00004FF0010ADCF80430C3F30803002B3DD105
:109F1000EFF31183002B39D10368A16802689342E3
:109F2000FAD132689142F7D8DEF8002007FB02FB35
:109F3000ABEB0101B1FBF2F107FB03135B1BB3F5C4
:109F40007A7FDFD3009B013B0093BAD1019B544938
:109F50005B691A688B4222F040021A6054D0514A61
:109F6000934251D010211A6822F038020A431A6035
:109F70001A6842F040021A6030F0C2FB044630F02A
:109F8000BFFB8442FBD003B0BDE8F08FEFF311813B
:109F900089F31288D4F808B02368DB0303D5C8F826
:109FA00000A0D4F808B00368C9B2D8F8002081F343
:109FB0001188DEF80010134407FB01F2A2EB0B023C
:109FC000B2FBF1F207FB0323B8E7EFF3118389F348
:109FD0001288A1682268D20303D50122C8F80020A4
:109FE000A1680568DBB2D8F800A083F311884FF4AC
:109FF0007A72DEF80070554402FB07F35B1AB3FB7C
:10A00000F7F302FB053579E70821ACE73021F1E6EB
:10A0100028498A4208D0224B9A420FD003F5806328
:10A020009A427FF43BAF0223234AD82101FB03234A
:10A030009A89013292B29A819B892FE70123F3E733
:10A040001C498A4208D0164B9A4224D003F58063FB
:10A050009A427FF408AF02231749D82000FB03136C
:10A060009989013189B299819B89FCE6114801994E
:10A070008242496907D00A4B9A420ED003F58063A9
:10A080009A4206D102230C48D8240A4604FB030353
:10A09000E6E70A46E7E60123DEE70123F3E700BF30
:10A0A00000380040003C0040FC72012010E000E05D
:10A0B00004730120003001407886012000730120E4
:10A0C00000ED00E0F87201202DE9F04F89B090F822
:10A0D00065300090002B40F073870099AA4C4A69C4
:10A0E000AA481368824218BFA242C96923F04003FC
:10A0F0000CBF30243824136008BF0120136818BF38
:10A10000002023F0380323431360136843F0400317
:10A11000136019B18B8809681B048B6140F2E93325
:10A1200002E0002B01F05D819168013B11F0020F0C
:10A130009BB2F6D06B2140F2E933117302E0002BA1
:10A1400001F08F819168013B11F0010F9BB2F6D0B5
:10A15000D368009B5A6940F2E93302E0002B00F01B
:10A16000CF879168013B11F0020F9BB2F6D080219E
:10A1700040F2E933117302E0002B00F0C1879168CF
:10A18000013B11F0010F9BB2F6D0D368009BDB6955
:10A1900013B11A689B88936164237D4E4FF01009B8
:10A1A000DFF8FCE101937B4C7B4BDFF8F8817B4FC0
:10A1B000DEF80420C2F30802002A40F02086EFF304
:10A1C0001182002A40F01B861D68A1681A6895421A
:10A1D000FAD13A689142F7D8D6F800C04FF47A70B5
:10A1E00000FB0CF2521AB2FBFCF200FB05254FF407
:10A1F0007A7C4FF0010ADEF80420C2F30802002A3C
:10A2000040F0BE85EFF31182002A40F0B98519684D
:10A21000A0681A689142FAD13A689042F7D8326839
:10A220000CFB02FBABEB0000B0FBF2F00CFB0101FE
:10A23000491BB1F57A7FDED3019901390191B7D17C
:10A240000099C86920B1818800680904816100997A
:10A25000486940F2E93102E0002901F0AA808468EF
:10A26000013914F0020F89B2F6D0682440F2E931C6
:10A27000047302E0002901F007818468013914F0B9
:10A28000010F89B2F6D0C1680099486940F2E931FE
:10A2900002E0002900F01C878468013914F0020FE5
:10A2A00089B2F6D0032440F2E931047302E00029B8
:10A2B00000F00E878468013914F0010F89B2F6D0DE
:10A2C000C1680099C96911B10868898881616421F0
:10A2D000DFF8CCE04FF010092E4CDFF8C8802F4F8C
:10A2E0000191DEF80410C1F30801002940F06785F0
:10A2F000EFF31181002940F062851D68A06819689C
:10A300008D42FAD139688842F7D84FF47A7101FB4F
:10A3100002FCACEB0000B0FBF2F201FB05254FF4B0
:10A320007A7C4FF0010ADEF80420C2F30802002A0A
:10A3300040F00785EFF31182002A40F0028519688A
:10A34000A0681A689142FAD13A689042F7D8326808
:10A350000CFB02FBABEB0000B0FBF2F00CFB0101CD
:10A36000491BB1F57A7FDED3019901390191B8D14A
:10A370000099C86920B18188006809048161009949
:10A38000486940F2E93112E000380040003C0040EA
:10A390000073012010E000E0FC7201200473012032
:10A3A00000ED00E0F8720120002900F05C8784686D
:10A3B000013914F0020F89B2F6D06B2440F2E93172
:10A3C000047302E0002900F066878468013914F004
:10A3D000010F89B2F6D0C1680099486940F2E931AD
:10A3E00002E0002900F05C868468013914F0020F55
:10A3F00089B2F6D0012440F2E931047302E0002969
:10A4000000F04E868468013914F0010F89B2F6D04D
:10A41000C1680099C96911B10868898881610F21F3
:10A42000DFF844E24FF010098D4CDFF840828D4F89
:10A430000191DEF80410C1F30801002940F07C8589
:10A44000EFF31181002940F077851D68A068196835
:10A450008D42FAD139688842F7D84FF47A7101FBFE
:10A4600002FCACEB0000B0FBF2F201FB05254FF45F
:10A470007A7C4FF0010ADEF80420C2F30802002AB9
:10A4800040F04084EFF31182002A40F03B841968C9
:10A49000A0681A689142FAD13A689042F7D83268B7
:10A4A0000CFB02FBABEB0000B0FBF2F00CFB01017C
:10A4B000491BB1F57A7FDED3019901390191B8D1F9
:10A4C0000099C86920B181880068090481610099F8
:10A4D000486940F2E93102E0002900F00D87846804
:10A4E000013914F0020F89B2F6D01B2440F2E93191
:10A4F000047302E0002900F017878468013914F022
:10A50000010F89B2F6D0C1680099486940F2E9317B
:10A5100002E0002900F0AC858468013914F0020FD4
:10A5200089B2F6D0182440F2E931047302E0002920
:10A5300000F09E858468013914F0010F89B2F6D0CD
:10A54000C1680099C96911B10868898881610F21C2
:10A55000DFF814E14FF01009414CDFF81081414F52
:10A560000191DEF80410C1F30801002940F0C48411
:10A57000EFF31181002940F0BF841D68A0681968BD
:10A580008D42FAD139688842F7D84FF47A7101FBCD
:10A5900002FCACEB0000B0FBF2F201FB05254FF42E
:10A5A0007A7C4FF0010ADEF80420C2F30802002A88
:10A5B00040F08A83EFF31182002A40F08583196806
:10A5C000A0681A689142FAD13A689042F7D8326886
:10A5D0000CFB02FBABEB0000B0FBF2F00CFB01014B
:10A5E000491BB1F57A7FDED3019901390191B8D1C8
:10A5F0000099C86920B181880068090481610099C7
:10A60000486940F2E93102E0002900F0A28684683E
:10A61000013914F0020F89B2F6D01C2440F2E9315E
:10A62000047302E0002900F0F2868468013914F016
:10A63000010F89B2F6D0C1680099486940F2E9314A
:10A6400002E0002900F074858468013914F0020FDB
:10A6500089B2F6D0182440F2E93104730BE000BF50
:10A6600010E000E00473012000ED00E0F87201202A
:10A67000002900F05D858468013914F0010F89B26A
:10A68000F6D0C1680099C96911B1086889888161EB
:10A690000F21DFF870E24FF01009984DDFF8688263
:10A6A000974F0191DEF80410C1F30801002940F032
:10A6B000E583EFF31181002940F0E0831C68A8686E
:10A6C00019688C42FAD139688842F7D84FF47A7108
:10A6D00001FB02FCACEB0000B0FBF2F201FB042436
:10A6E0004FF47A7C4FF0010ADEF80420C2F308022E
:10A6F000002A40F0CB82EFF31182002A40F0C6829C
:10A700001968A8681A689142FAD13A689042F7D855
:10A7100032680CFB02FBABEB0000B0FBF2F00CFB71
:10A720000101091BB1F57A7FDED30199013901914D
:10A73000B8D1009890F85F10032900F23C8490F89B
:10A740006240012C0AD0022C40F0358490F867104A
:10A7500001F0FB0102290CBF002407240099C869FD
:10A7600020B181880068090481610099486940F23C
:10A77000E93102E0002900F09C868568013915F076
:10A78000020F89B2F6D01A2540F2E931057302E0D2
:10A79000002900F0BE868568013915F0010F89B2E5
:10A7A000F6D0C1680099486940F2E93102E0002919
:10A7B00000F003858568013915F0020F89B2F6D0E3
:10A7C000047340F2E93102E0002900F0F684846865
:10A7D000013914F0010F89B2F6D0C1680099C96936
:10A7E00011B10868898881610F21DFF818E14FF005
:10A7F0001009424CDFF81081414F0191DEF804103E
:10A80000C1F30801002940F05883EFF311810029BA
:10A8100040F053831D68A06819688D42FAD13968E9
:10A820008842F7D84FF47A7101FB02FCACEB0000D0
:10A83000B0FBF2F201FB05254FF47A7C4FF0010AE0
:10A84000DEF80420C2F30802002A40F00182EFF390
:10A850001182002A40F0FC811968A0681A689142B0
:10A86000FAD13A689042F7D832680CFB02FBABEBA6
:10A870000000B0FBF2F00CFB0101491BB1F57A7F3F
:10A88000DED3019901390191B8D10099C86991F8D5
:10A89000644020B181880068090481610099486999
:10A8A00040F2E93102E0002900F01B868568013999
:10A8B00015F0020F89B2F6D0192540F2E93105737F
:10A8C00002E0002900F03A868568013915F0010F91
:10A8D00089B2F6D0C1680099486940F2E93102E0D6
:10A8E000002900F053848568013915F0020F89B200
:10A8F000F6D0047340F2E9310BE000BF10E000E055
:10A900000473012000ED00E0F8720120002900F03E
:10A910003D848468013914F0010F89B2F6D0C16812
:10A920000099C96911B10868898881616421DFF8DB
:10A93000DCE24FF01009B14CDFF8D482B04F019146
:10A94000DEF80410C1F30801002940F07882EFF32B
:10A950001181002940F073821D68A06819688D423A
:10A96000FAD139688842F7D84FF47A7101FB02FCBA
:10A97000ACEB0000B0FBF2F201FB05254FF47A7C52
:10A980004FF0010ADEF80420C2F30802002A40F06A
:10A990004181EFF31182002A40F03C811968A068E0
:10A9A0001A689142FAD13A689042F7D832680CFBA3
:10A9B00002FBABEB0000B0FBF2F00CFB0101491B0A
:10A9C000B1F57A7FDED3019901390191B8D1009AAE
:10A9D000D16921B18A88096812048A61009A516993
:10A9E00040F2E93202E0002A00F0CB848868013AA4
:10A9F00010F0020F92B2F6D0372040F2E93208731D
:10AA000002E0002A00F018858868013A10F0010F72
:10AA100092B2F6D0CA68009A516940F2E93202E077
:10AA2000002A00F09D838868013A10F0020F92B26C
:10AA3000F6D0102040F2E932087302E0002A00F05C
:10AA40008F838868013A10F0010F92B2F6D0CA687D
:10AA5000009AD26912B1116892888A610F22DFF8D8
:10AA6000ACE14FF01009654CDFF8A481644F01920E
:10AA7000DEF80420C2F30802002A40F07D82EFF3E2
:10AA80001182002A40F078821D68A1681A689542F8
:10AA9000FAD13A689142F7D8D6F800C04FF47A70EC
:10AAA00000FB0CF2521AB2FBFCF200FB05254FF43E
:10AAB0007A7C4FF0010ADEF80420C2F30802002A73
:10AAC0007ED1EFF31182002A7AD11A68A068196842
:10AAD0008A42FAD139688842F7D831680CFB01FB09
:10AAE000ABEB0000B0FBF1F00CFB0202521BB2F525
:10AAF0007A7FE0D3019A013A0192B9D1009BDA69D9
:10AB000022B1938812681B049361009B5A6940F23A
:10AB1000E93302E0002B00F05F859168013B11F002
:10AB2000020F9BB2F6D0382140F2E933117302E0F4
:10AB3000002B00F019859168013B11F0010F9BB2C9
:10AB4000F6D0D368009B5A6940F2E93302E0002B4B
:10AB500000F024859168013B11F0020F9BB2F6D002
:10AB6000012140F2E933117302E0002B00F045852A
:10AB70009168013B11F0010F9BB2F6D0D368009BA6
:10AB80005969009BDB6913B11A689B8893610B6854
:10AB90001C4A23F0400391420B6000F00F821A4BD5
:10ABA000994200F00B8218200B6823F0380303430E
:10ABB0000B600B6843F040030B6009B0BDE8F08FF9
:10ABC000EFF3118089F31288D4F808B02268D20319
:10ABD00003D5C8F800A0D4F808B01A68C0B2D8F8F5
:10ABE000001080F3118830680A440CFB00F1A1EBDF
:10ABF0000B01B1FBF0F10CFB021277E710E000E073
:10AC00000473012000380040003C004000ED00E0EB
:10AC1000F8720120EFF3118289F31288D4F808B09A
:10AC20002168C80303D5C8F800A0D4F808B0196893
:10AC3000D2B2D8F8000082F31188326801440CFBCC
:10AC400002F0A0EB0B00B0FBF2F00CFB0101B6E64A
:10AC5000EFF3118289F31288D4F808B02168C90390
:10AC600003D5C8F800A0D4F808B01968D2B2D8F853
:10AC7000000082F31188326801440CFB02F0A0EB63
:10AC80000B00B0FBF2F00CFB0101F6E5EFF31182D3
:10AC900089F31288D5F808B02968C90303D5C8F824
:10ACA00000A0D5F808B01968D2B2D8F8000082F335
:10ACB0001188326801440CFB02F0A0EB0B00B0FBE2
:10ACC000F2F00CFB01012CE5EFF3118289F31288FD
:10ACD000D4F808B02168C90303D5C8F800A0D4F897
:10ACE00008B01968D2B2D8F8000082F3118832682F
:10ACF00001440CFB02F0A0EB0B00B0FBF2F00CFBEC
:10AD000001016DE4EFF3118289F31288D4F808B0E1
:10AD10002168C90303D5C8F800A0D4F808B01968A1
:10AD2000D2B2D8F8000082F31188326801440CFBDB
:10AD300002F0A0EB0B00B0FBF2F00CFB0101FFF7FF
:10AD4000B7BBEFF3118289F31288D4F808B02168F9
:10AD5000C90303D5C8F800A0D4F808B01968D2B266
:10AD6000D8F8000082F31188326801440CFB02F02D
:10AD7000A0EB0B00B0FBF2F00CFB0101FFF7F0BA07
:10AD8000EFF3118289F31288D4F808B02168C9035F
:10AD900003D5C8F800A0D4F808B01968D2B2D8F822
:10ADA000000082F31188326801440CFB02F0A0EB32
:10ADB0000B00B0FBF2F00CFB0101FFF739BAEFF327
:10ADC000118289F31288A0682168CD0303D501217F
:10ADD000C8F80010A0681D68D2B2D8F800A082F3AD
:10ADE00011884FF47A71D6F800C0554401FB0CF27B
:10ADF000121AB2FBFCF201FB0525FFF790BAEFF344
:10AE0000118289F31288A0682168CD0303D501213E
:10AE1000C8F80010A0681D68D2B2D8F800A082F36C
:10AE200011884FF47A71D6F800C0554401FB0CF23A
:10AE3000121AB2FBFCF201FB0525FFF7D8B9EFF3BC
:10AE4000118289F31288A0682168CD0303D50121FE
:10AE5000C8F80010A0681D68D2B2D8F800A082F32C
:10AE600011884FF47A71D6F800C0554401FB0CF2FA
:10AE7000121AB2FBFCF201FB05257FE5EFF311820C
:10AE800089F31288A8682968CC0303D50121C8F882
:10AE90000010A8681C68D2B2D8F800A082F311880C
:10AEA0004FF47A71D6F800C0544401FB0CF2121A28
:10AEB000B2FBFCF201FB042412E4EFF3118289F3EC
:10AEC0001288A0682168CD0303D50121C8F80010BD
:10AED000A0681D68D2B2D8F800A082F311884FF4A0
:10AEE0007A71D6F800C0554401FB0CF2121AB2FB7D
:10AEF000FCF201FB05259FE4EFF3118289F3128830
:10AF0000A0682168CD0303D50121C8F80010A0680E
:10AF10001D68D2B2D8F800A082F311884FF47A717C
:10AF2000D6F800C0554401FB0CF2121AB2FBFCF239
:10AF300001FB0525FFF733BBEFF3118289F312887C
:10AF4000A0682168CD0303D50121C8F80010A068CE
:10AF50001D68D2B2D8F800A082F311884FF47A713C
:10AF6000D6F800C0554401FB0CF2121AB2FBFCF2F9
:10AF700001FB0525FFF77BBAEFF3118289F31288F5
:10AF8000A0682168C90303D50121C8F80010A06892
:10AF90001D68D2B2D8F800A082F311884FF47A71FC
:10AFA000D6F800C0554401FB0CF2121AB2FBFCF2B9
:10AFB00001FB05257BE5019CFFF7D0BB1020F3E5E5
:10AFC0001C0903F00F03013C032C00F23B83BC4A35
:10AFD00032F8140040FA03F2D10740F13383012222
:10AFE00002FA03F3013B18404BF004F8B54BB649A5
:10AFF0001B5D184411EBC00500F02483AF882026A8
:10B00000B24A0024B7FA87F3AE71009EC3F11F0362
:10B01000EC71F2605A1C3FF460A83246DFF8D4C2EB
:10B02000AB4E0C3251F8300006EB030E03A94CF87E
:10B030002320A84B039704939EF88C700594CDE9C8
:10B0400006440AF011FAA44BDA5DF02A00F2CC8033
:10B05000AB880122B3FA83F3C3F11F0312FA03F39F
:10B060003FF43BA89D490A6813430B60FFF735B8CE
:10B070009B4CA04209D09B49884200F0F28001F528
:10B08000806188427FF45DAA02219748D82404FB9E
:10B0900001018889013080B288818989FFF751BA1E
:10B0A0008F4CA04209D08F49884200F0CC8001F536
:10B0B000806188427FF4ADA902218B48D82404FB2B
:10B0C00001018889013080B288818989FFF7A1B99F
:10B0D000834CA04209D08349884200F0BE8001F52C
:10B0E000806188427FF4EDA802217F48D82404FBC8
:10B0F00001018889013080B288818989FFF7E1B830
:10B1000077498A4209D0774B9A4200F0A48003F530
:10B1100080639A427FF43AA80223734AD82101FB44
:10B1200003239A89013292B29A819B89FFF72EB844
:10B130006B4CA04209D06B49884200F08A8001F52F
:10B14000806188427FF49EAA02216748D82404FBCC
:10B1500001018889013080B288818989FFF792BA1C
:10B160005F48814208D05F4A914278D002F5806200
:10B1700091427FF46DAC02225B49D82000FB0212A1
:10B180009189013189B29181928961E4544CA04244
:10B1900008D05449884258D001F5806188427FF434
:10B1A000BFAB02215048D82404FB0101888901303B
:10B1B00080B288818989FFF7B3BB494CA04208D08F
:10B1C0004849884243D001F5806188427FF406AB4C
:10B1D00002214548D82404FB01018889013080B24E
:10B1E00088818989FFF7FABAF021404A3E44D9554F
:10B1F000D36896F89C20C3F3022351B2C3F1070031
:10B200001E1D042828BF0420062E88BFDC1E4FF018
:10B21000FF33002903FA00F36FEA030303F003038B
:10B2200003FA04F34FEA0313DBB2C0F2278202F001
:10B230001F062F4801224C090144B24081F8003317
:10B2400040F8242004E7012137E70121AAE7012182
:10B25000BFE7012179E701235FE7012145E70122EB
:10B260008AE7012111E71E4CA04209D01D498842FE
:10B2700000F0028201F5806188427FF4AFA80221CC
:10B28000194CD82505FB01418C890134A4B28C816D
:10B290008989FFF7A3B8124D009CA842646909D0C0
:10B2A0001049884200F0E28101F58061884240F057
:10B2B000D78102210C4DD827204607FB0151E3E737
:10B2C000F8DD050800DE050838710120AD890008A9
:10B2D0005081050800001110E86B0120003C01407E
:10B2E00000300140003800407886012000ED00E089
:10B2F00000E100E0A86B0120B44CA04209D0B449A1
:10B30000884200F0B78101F5806188427FF4FEA891
:10B310000221B04CD82505FB01418C890134A4B22F
:10B320008C818989FFF7F2B8A84D009CA842646916
:10B3300009D0A749884200F09B8101F580618842CD
:10B3400040F091810221A34DD827204607FB0151EF
:10B35000E3E79E4CA04209D09D49884200F09F81BE
:10B3600001F5806188427FF469A90221994CD825B2
:10B3700005FB01418C890134A4B28C818989FFF7D6
:10B380005DB99248814209D0914A914200F0898189
:10B3900002F5806291427FF440AB02228D48D824AE
:10B3A00004FB02029089013080B290819289FFF7FC
:10B3B00034BB864CA04209D08549884200F0758193
:10B3C00001F5806188427EF461AF0221814CD8256D
:10B3D00005FB01418C890134A4B28C818989FEF777
:10B3E00055BF7A498A4207D0794B9A4200F05B8177
:10B3F00000283EF4B0AE02237649D82000FB0313A8
:10B400009989013189B299819B89FEF7A4BE6F4D5C
:10B41000009CA842646909D06D49884200F03B81D4
:10B4200001F58061884240F0FB800221694DD827F8
:10B43000204607FB01519DE7644C0098A1424069FA
:10B4400009D0634A914200F0288102F5806291425E
:10B4500040F0E98002225F4CD825014605FB0242FC
:10B46000A0E75A4C0099A242496907D0584B9A422A
:10B4700000F02F81002800F0EA8002235548D824EC
:10B480000A4604FB0303BBE7504D009CA8426469D5
:10B4900009D04F49884200F00E8101F58061884251
:10B4A00040F0D88002214B4DD827204607FB0151A0
:10B4B00090E7464DA84209D04549884200F0F78000
:10B4C00001F5806188427FF46FA90221414DD827A0
:10B4D00007FB01518D890135ADB28D818989FFF757
:10B4E00063B93A4DA84209D03949884200F0E18059
:10B4F00001F5806188427FF4F0A90221354DD827FB
:10B5000007FB01518D890135ADB28D818989FFF726
:10B51000E4B92E4F009DB8426D6908D02C4988428D
:10B5200000F0D18001F5806188427FD10221294F4E
:10B530004FF0D80C28460CFB0171CBE7234F009D40
:10B54000B8426D6909D02249884200F0B68001F501
:10B550008061884240F0818002211E4F4FF0D80C5C
:10B5600028460CFB0171CDE71848009982424969D1
:10B5700008D0174B9A4200F0A88003F580639A42E6
:10B5800057D102231348D8240A4604FB03039989A0
:10B59000013189B299819B89FFF7D6BA0B498A425A
:10B5A00008D00B4B9A4200F0928003F580639A42D8
:10B5B00042D102230748D824114604FB03039A8989
:10B5C000013292B29A819B89FFF7DBBA00300140C9
:10B5D00000380040788601203F498A4208D03F4B1E
:10B5E0009A426CD003F580639A427FF4ADAA02239D
:10B5F0003B49D82000FB0313C9E737480099824232
:10B60000496908D0354B9A425BD003F580639A4272
:10B610007FF4B7AA0223324AD82000FB0323CEE7E7
:10B620002046FFF70BB80146FFF7F7B92846FFF7AA
:10B63000BBB80A46FFF788BA009BDB691BB311460B
:10B64000FFF7A2BA274B009AD360FEF746BD0A4621
:10B65000FEF781BD2046FEF719BE2846FFF73DB92B
:10B660002046FEF7BBBE2046FEF750BF012121E673
:10B67000012168E601214CE6012101E602F00F02FA
:10B6800019498B54E4E413681146182023F0400351
:10B690001360FFF789BA0121C8E60122DBE6012128
:10B6A00064E601227AE60123A6E601218EE6012165
:10B6B0000CE7012122E70121F5E601214DE70123F5
:10B6C00096E70123A7E7012131E701235AE7012388
:10B6D00070E70123D2E600BF00300140003800408F
:10B6E00078860120AD89000814ED00E00269C36886
:10B6F0002DE9F04712EA030927D00E4605464FF020
:10B7000000474FF00008B9FA89F327FA03F21B3B10
:10B71000D2432A6109EA0209042B13D8DFE803F0B7
:10B72000322920170300736A002B34D1EB6A1FFA09
:10B7300083FA346A34B123682046514698476468D6
:10B74000002CF8D1B9F1000FDDD1BDE8F0873068E9
:10B75000696B036889B29847B9F1000FD3D1F4E758
:10B760007068A96B036889B29847B9F1000FCAD114
:10B77000EBE7B068E96B036889B29847B9F1000F4D
:10B78000C1D1E2E7F068296C036889B29847B9F142
:10B79000000FB8D1D9E703F1FF3AC6F824801FFAA9
:10B7A0008AFAC6E7F8B5EFF31184502383F31288C1
:10B7B000D0F8FC301B6813F0010303D0E4B284F32B
:10B7C0001188F8BD90F8852190F886110A4302F09F
:10B7D0002102212AF2D0D0E90912914245D095B236
:10B7E00047D94B1B9BB28162002590F8851180F8E8
:10B7F00090512029E2D18569D54205EB0201DDD0C7
:10B80000B3FA83F56D09002DD8D190F88421012A6F
:10B81000D4D0064621220120DFF864C0A6F86E319C
:10B82000D6F87C71C6F8885186F88521134AA6F8A7
:10B830006C3186F884013846C6F868113D65C7E961
:10B840000FC2D6F81C21DFF83CC02832C7F84CC024
:10B850000CF0F8FDD6F81C3140221A6286F88451AB
:10B860009A6842F080029A60A8E7012380F890313C
:10B87000A4E706691946731B9BB2B4E725250108A6
:10B880005B250108BF240108426A10B48469A154F1
:10B89000426A04690132D0F8FC10A24228BF00229B
:10B8A000426241B9D0F81C215DF8044B136843F0A3
:10B8B0008003136070475DF8044B73E7406998306C
:10B8C0000CF022BB426910B50832184C54F8220023
:10B8D0000CF01AFB164B1A8823460C2A0DD8DFE809
:10B8E00002F0070C0C0C130C0C0C190C0C0C1F00A8
:10B8F0002168CA6822F40072CA60012283F83D20E0
:10B9000000220C4B1A7010BD2168CA6822F48062B4
:10B91000CA60F2E72168CA6822F40062CA60ECE7F4
:10B920002168CA6822F48052CA60E6E7005A012002
:10B93000FC590120F0590120F8B5D0F81C3104461B
:10B94000DA69910615D5586AE36AC0B2002B00F097
:10B95000CB80216B9847D4F81C311A6822F480728E
:10B960001A609A6822F001029A609A6942F008020D
:10B970009A61DA69D20701D501221A62DA6997075A
:10B9800001D502221A62DA69560701D504221A6229
:10B99000DA69150701D508221A62D4F8FC20FAB139
:10B9A000D969490600D4F8BDD96904F58E701E68BE
:10B9B0000F079D682CD18F0602D5B50600F1DA80FD
:10B9C0000F0602D5350600F1B980480602D571068A
:10B9D00000F18280002AE6D02046BDE8F840E1E68A
:10B9E000D9690806DCD594F885112129D8D0D4E985
:10B9F0000901814200F09B80A069405C0131C0B226
:10BA000098622569B1FBF5F005FB1011A162C7E74B
:10BA100015F0010502D116F4907FD1D0CF0701D5E2
:10BA2000F7057BD48F074AD5002D6CD10F0709D5B8
