:020000040800F2
:100000000000022035C40508B5C40508994003085E
:10001000FD400308B5C40508B5C40508000000008C
:10002000000000000000000000000000B5C405084A
:10003000B5C4050800000000B5C40508494103081F
:10004000B5C40508B5C40508B5C40508B5C4050898
:10005000B5C40508B5C40508758F0408A190040847
:100060006590040829900408ED8F04087583010841
:100070006583010855830108458301083183010820
:100080001D83010809830108B5C40508B5C4050826
:10009000B5C40508B5C40508B5C40508B18F040882
:1000A000DD61010865620108CD6101088D6201080A
:1000B000556201084562010835620108858301081F
:1000C000A9830108B5C40508B5C40508B5C4050869
:1000D000B5C40508755D0108695D01085D5D01082D
:1000E000398F0408B5C40508B5C40508BD61010809
:1000F000ED610108B5C4050815620108F582010823
:10010000B5C40508B5C4050825620108B5C40508CD
:10011000515D0108B5C40508B5C40508AFCB010899
:10012000E1820108CD820108B9820108A582010897
:1001300091820108B5C40508B5C40508B5C4050811
:10014000B5C40508B5C40508B5C40508EFD5010850
:100150007D8201086982010855820108455D010818
:10016000B5C40508B5C40508B5C40508B5C4050877
:10017000B5C40508B5C40508B5C4050800000000ED
:10018000B5C40508B5C40508395D0108B5C405083E
:10019000B5C40508B5C40508B5C40508B5C4050847
:1001A0000000000000000000B5C40508B5C4050843
:1001B000B5C40508B5C40508B5C40508B5C4050827
:1001C000B5C40508B5C4050800000000B5C405089D
:1001D000B5C40508B5C40508B5C40508B5C4050807
:1001E000B5C40508B5C40508B5C40508B5C40508F7
:0801F00000000000B5C4050881
:0801F8006CBF050001000000CE
:1002000010020100681C0020641C00200000000097
:10021000DC0700081F021000841C0020741C002052
:1002200000000000D504010803010A001C2D002075
:10023000282D002000000000DE0700080510060041
:10024000102D0020342D002000000000E8070008D9
:1002500023121000E8390020743A0020000000004A
:10026000F007000837102800243A0020843A0020C4
:1002700000000000000800080E020200E039002023
:10028000AC3A002000000000280800081610060004
:10029000882F0020B03A0020000000002A08000843
:1002A0002F102200503A0020B83A00200000000031
:1002B00030080008F5518C00BC2E0020DC3A0020EC
:1002C000000000004104040826100C00743B0020CC
:1002D000683B0020000000008DF9010814000300B5
:1002E00030360020AC3B002000000000520800081F
:1002F0000B301A00682E0020B03B002000000000E8
:10030000560800081F302400842E0020CC3B00201B
:100310000000000070080008050204007031002091
:10032000F03B0020000000009408000803000100DA
:100330002843002038430020000000000000000097
:1003400010100200304300203C4300200000000059
:100350009808000825102C01B840002040430020D8
:1003600000000000000000001900050054400020BB
:100370006C440020000000009A0800081A000E00DB
:10038000FC3C00207444002000000000A00800088D
:10039000F8210600683F002084440020000000008F
:1003A000AE08000815007000783E00208C44002044
:1003B00000000000000000002A006000903F0020C4
:1003C000FC44002000000000696202081A023C00A0
:1003D0005C4600203449002000000000990A010812
:1003E000270004005446002070490020000000004F
:1003F000B408000838100100784500207449002036
:1004000000000000B80800082C001000B4520020C2
:10041000A452002000000000198603082B002400CD
:10042000E8520020C452002000000000E9850308C3
:1004300029207800A85100200C5300200000000063
:1004400000000000F6210C0014510020845300200D
:1004500000000000BC08000820320A00E053002021
:10046000D453002000000000316903081C02100072
:10047000904D0020EC53002000000000F502010820
:100480002810100058500020FC53002000000000ED
:10049000A16A030801200C00285B002044620020B0
:1004A00000000000C80800080A702800E459002075
:1004B0005062002000000000496A03080EA05C01A1
:1004C0008858002078620020000000009162020835
:1004D00001010400E4570020D46300200000000064
:1004E0000000000000010400DC570020D863002059
:1004F00000000000D408000802010300D8570020C3
:10050000DC63002000000000C50805082202140179
:10051000B85F0020E063002000000000F10B01083C
:100520000C109C00585A0020F464002000000000C9
:100530008908050801020500F05700209065002099
:100540000000000039FA030800020500A45E002044
:100550009865002000000000000000001B02100051
:10056000705E0020A065002000000000210301084B
:100570001E000600F45B0020B065002000000000B3
:10058000D80800081B100C0090550020B86500200A
:10059000000000001D0B04082102F000145400208C
:1005A000C4650020000000000D05040807020200D9
:1005B000D47000205871002000000000DE08000800
:1005C00003123D00F87000205C7100200000000064
:1005D000E008000802000C00A87000209C710020B8
:1005E00000000000000000000602100098700020CB
:1005F000A871002000000000350B0108F70106007B
:1006000090700020B8710020000000001E09000852
:100610001D0202008C700020C0710020000000004C
:10062000240900080A020A00FC6F0020C47100209F
:1006300000000000C10D050823100E00DC8D002015
:10064000608F002000000000B96A030804008000E9
:10065000F8880020708F00200000000000000000DB
:1006600013000400D8880020F08F00200000000054
:1006700028090008FD012400B4880020F48F002020
:10068000000000000DF1020818202E0080880020D4
:1006900018900020000000004D0B010806101A0001
:1006A000648800204890002000000000F1620208E9
:1006B000FB01010060880020649000200000000021
:1006C000C10B0108FC0109002C8700206890002064
:1006D00000000000D10B0108F9010400248700206C
:1006E00074900020000000003960040816023F00EA
:1006F000E4860020789000200000000065030108D7
:100700003400100014860020B89000200000000083
:10071000C162020811020800EC850020C890002088
:10072000000000002C09000812120400E4850020DB
:10073000D0900020000000003409000812201000B2
:10074000D4850020D4900020000000003809000863
:10075000FF11060010830020E4900020000000003C
:10076000B9040108081214001C830020EC9000203A
:10077000000000004504010813020400F08200207C
:100780000091002000000000480900080D004C0006
:10079000C47F0020049100200000000001C1040873
:1007A00002020300FC7B00205091002000000000AA
:1007B000000000000C020400E87B0020549100209F
:1007C00000000000A1040108FE011400E4780020EC
:0C07D000589100200000000035030108D3
:1007DC000000040101006C16000000002000020162
:1007EC0000000000000000000000000000000000FD
:1007FC000000000020003200C800D0079600140052
:10080C0032002800B00440060005500014000F0010
:10081C00080064000100010005000A000000C40982
:10082C0000001900000000000000000000000000A3
:10083C0000000000000000000000000000000000AC
:10084C0000000000000003000000AE014A015E0140
:10085C002C0164010100000001000A019A01001E34
:10086C000A0000000000000000010000000500006C
:10087C000102030000000000000000000000000066
:10088C0000000000008007000000000000050000D0
:10089C00280100007E05EA05B4053200E803D00704
:1008AC0000000401F401140020030000000000000B
:1008BC00000000000100000002020000E8036400D8
:1008CC00040A000114001E00900100000000010049
:1008DC000000013C000000000000000000000000CF
:1008EC0000000000000000000000000000000000FC
:1008FC0000000000000000000000000000000000EC
:10090C0000000000000000000000000000000000DB
:10091C0001004F01000000000000000008004430FE
:10092C000000000001010101FFFFFFFF00000001BA
:10093C000000054B54373600000800000000011879
:10094C00FF01FF0000000000040100000007000090
:10095C000000000000000000000200001000000079
:10096C00000000000000000007000000B0010000C3
:10097C00020000000900000000C201000000080095
:10098C001A0300000000000000000000000000003E
:10099C000000000000000000000000000403090437
:1009AC000A060002000000400100000009072000B8
:1009BC00010104C0320904000002080650050705B5
:1009CC0081024000000705010240000009022000DE
:1009DC00010104C032090400000208065005070595
:1009EC0081024000000705010240000009022000BE
:1009FC00010104C032090400000208065005070575
:100A0C008102000200070501020002000A06000232
:100A1C00000000400100000009026400030100C056
:100A2C00320904000001030000000921110100013A
:100A3C002226000705830308000A080B01020202A4
:100A4C00010009040100010202010005240010014B
:100A5C0005240100020424020205240601020705F4
:100A6C0082030800FF09040200020A0000000705C7
:100A7C00010240000007058102400000AB9F010805
:100A8C005B9D010881E50108000000009D900108B4
:100A9C00FB900108C9900108000000000000000054
:100AAC0000000000859001089190010879900108E0
:100ABC006D9001080A0600020000004001000000D1
:100ACC0009022200010100E03209040000010301C7
:100ADC0002000921110100012226000705830308E9
:100AEC00000A00000A06000200000040010000009D
:100AFC0009074300020104C032090400000102028C
:100B0C000100052400100105240100010424020247
:100B1C000524060001070582030800FF09040100F3
:100B2C00020A0000000705010240000007058102CF
:100B3C004000000009024300020100C03209040019
:100B4C00000102020100052400100105240100012E
:100B5C000424020205240600010705820308001084
:100B6C0009040100020A000000070501020002004E
:100B7C00070581020002000009024300020100C0C7
:100B8C0032090400000102020100052400100105D5
:100B9C002401000104240202052406000107058239
:100BAC000308001009040100020A000000070501F7
:100BBC0002400000070581024000000088E505089E
:100BCC000000000000000000000000000000000019
:100BDC000000000000000000000000000000000009
:100BEC0000000000120100020000004083042A579C
:100BFC000002010203010000120100020200004089
:100C0C00830440570002010203010000120100029C
:100C1C00EF0201408304563200020102030100007E
:100C2C0005010905A101A1000501093009310932AD
:100C3C00093309350934094009381581257F7508B0
:100C4C0095088102C0C00000092111010001222673
:100C5C00000000001D9A01082D8E0108E59901087D
:100C6C00F9990108E58D0108D1990108BB99010892
:100C7C00159F0108119D01087DE30108000000008B
:100C8C00000000007DD5010879D4010800000000A7
:100C9C0000000000000000006D8F0108618F01084A
:100CAC00558F0108498F010845B8010855B701084F
:100CBC0035B80108398E0108E5B701088DB7010870
:100CCC00B98C010888030020008002021F0000007C
:100CDC0053544D202020202050726F6475742020B6
:100CEC002020202020202020302E303100FFFF003B
:100CFC0000000000AA55050100000101C4E8050828
:100D0C0000000000000000000000000000000000D7
:100D1C0000000000000000000000000000000000C7
:100D2C0000000000FFFFFFFFFF1FFF1F2D202D2DD8
:100D3C00202D2D2D2D202D2D2D2D000000000000FF
:100D4C000000000000000000000000AA550B01008C
:100D5C0000AA5507010000AA550902000000AA5577
:100D6C0003009F0001000000C0120000803B002027
:100D7C0000000000A43B0020000000000100000067
:100D8C00FFFFFFFF7D0000000000803F000000001F
:100D9C0000000000000000000000803F0000000088
:100DAC000000000000000000000000000000000037
:100DBC000000000000000000000000000000000027
:100DCC000000803F00000000000000000000000058
:100DDC0001000000FFFFFFFF0000803F000000004B
:100DEC0000000000000000000000803F685E0C0066
:100DFC00FF010000A00F0000B80B00000102FFFF74
:100E0C0001000000D6010000B80B0000010000003A
:100E1C00000101010001010000000100E0010100DE
:100E2C005DFA030800000000F0F5050820700020B2
:100E3C00702D7200FFFFFFFFFF080101FFFF2D2047
:100E4C002D2D202D2D2D2D202D2D2D0000000000C1
:100E5C000000000000000000000000000000000086
:100E6C000000000000000000780D060800000000E3
:100E7C0000000000040E060801000000FA0000004B
:100E8C000100000001000000245B00200000F401C0
:100E9C0001000000225B00200000F40101000000B2
:100EAC00205B00200000F401010000001E5B00200C
:100EBC000000F401010000001C5B00200000F401A4
:100ECC00010000001A5B00200000F401010000008A
:100EDC00185B00200000F40101000000AD020408C2
:100EEC007102040888FB0508125B00200532010022
:100EFC00105B0020E803D007010000000E5B00200F
:100F0C00E803D007010000000C5B0020E803D007C9
:100F1C00010000000A5B00201E00B80B010000005D
:100F2C00085B00201E00F40101000000065B00209D
:100F3C001400640001000000145B00203200E80380
:100F4C0001000000045B00200000C800010000004C
:100F5C003A5A002000C80100395A00200050010004
:100F6C00385A0020005A0100365A002002000000B6
:100F7C0014FC05088C6C0608946C06080A8E00207C
:100F8C000100C40900000000088E00200100C40903
:100F9C0000000000068E00200100C40900000000C3
:100FAC00048E00200100C40900000000008E002007
:100FBC000100C40900000000028E00200100C409D9
:100FCC0000000000FE8D00200100C409000000009C
:100FDC00FC8D00200100C409000000000358002013
:100FEC0000C801000258002000C801000058002071
:100FFC000100C80001000000FE57002032003075CF
:10100C0032000000FD570020055A0500FA57002059
:10101C0000FF0100FC5700200100000034060020F6
:10102C00F857002003000000E4E70508F9570020FA
:10103C0000FF0100FB5700200100000034060020D7
:10104C00F757002003000000E4E70508210204081C
:10105C00D101040820FC0508385B0020EE02CA0808
:10106C0001000000365B002000C801006400000095
:10107C00355B002000C8010064000000345B0020D8
:10108C0002000000E4FC0508EA57002080C1803E05
:10109C0005000000E857002080C1803E05000000DC
:1010AC00E257002080C1803E05000000E057002080
:1010BC0080C1803E05000000DB57002000FF0100CE
:1010CC00D45700206400F40101000000D357002025
:1010DC0004000000F0FC0508D257002002000000BC
:1010EC0004FD0508795800200D00000010FD0508CE
:1010FC00765800200064010074580020320010273C
:10110C000A000000735800200D00000010FD0508B7
:10111C00725800200D00000010FD050871580020C9
:10112C000200000048FD050800000000000000005F
:10113C0054FD0508283100209CFF2C010000000004
:10114C00DC610020E0150C1700000000D95E0020C7
:10115C00020000008CFD0508445B00200100FF7FAD
:10116C0001000000435B00200200000098FD050810
:10117C007B58002003000000A8FD05087A580020C9
:10118C0003000000A8FD0508185A00200000E80321
:10119C0001000000165A00200000E80301000000C6
:1011AC00145A00200000E80301000000125A00202D
:1011BC000000E80301000000105A00200000E803C2
:1011CC00010000000E5A00200000E803010000009E
:1011DC000D5A0020001401000C5A002003000000DE
:1011EC00B8FD0508245A00200000F401010000009D
:1011FC00225A00200000F40101000000205A0020B7
:10120C000000F401010000001E5A00200000F4014F
:10121C00010000001C5A00200000803E010000006C
:10122C001A5A00200000803E010000004D5A002098
:10123C00196401004C5A002002000000C8FD05088A
:10124C004A5A0020E803D0070A000000485A002040
:10125C00006401000A0000003D5A002000640100F7
:10126C003C5A002000640100445A00200064010034
:10127C000A000000435A0020006401000A0000002C
:10128C00425A0020006401000A000000475A002066
:10129C00006401000A000000465A002000640100AE
:1012AC000A000000455A0020006401000A000000FA
:1012BC00415A002001FF01000A000000405A0020A2
:1012CC0001FF01000A0000003F5A002001FF01004D
:1012DC000A000000845800200000F4010100000006
:1012EC00825800200000F40101000000805800200A
:1012FC000000F401010000007E5800200000F40101
:10130C00010000007C5800200000F40101000000E6
:10131C00355A002000640100345A0020006401009A
:10132C00335A002000640100325A0020FF080100EB
:10133C00315A002001640100A10004086500040872
:10134C00D4FD0508305A0020006401002E5A0020FC
:10135C001400E803010000002C5A0020E80330754B
:10136C000A0000002A5A002000C80100295A002057
:10137C0000C80100285A002000C80100275A00208C
:10138C00006401000A000000025B00200000D0078E
:10139C0001000000FD5A002000C80100FC5A00208A
:1013AC0000C80100FB5A002000C80100005B0020AF
:1013BC000000D00701000000FA5A002000C801000C
:1013CC00F95A002000C80100F85A002000C801009A
:1013DC00FE5A00200000D00701000000F75A002040
:1013EC0000C80100F65A002000C80100F55A002080
:1013FC0000C8010000000000CDFD030844FE0508F4
:10140C006F58002035000000E0FE05086E580020E3
:10141C0000C801006C580020E803D0070100000050
:10142C004B414B555445463756320000F657002079
:10143C0000030100F55700200003010019FD03080B
:10144C00DDFC0308B8FF050899FC03084DFC0308F4
:10145C002800060855FD030821320408A8000608D8
:10146C00EC5700200103010015030408E9020408ED
:10147C009C030608D1FB030885FB03080C04060833
:10148C00E3FD03083D320408A80406082D480408AF
:10149C0000000000500506081D34040875030408FC
:1014AC00EC0506083DFE0308000000005C0606087B
:1014BC0015FF0308C1FE0308C0060608A5FF0308B4
:1014CC0069FF03085C070608DD0004082501040811
:1014DC00DC0706083B5A00200106010085FE0308C4
:1014EC0051FE0308D8080608E1FF0308013304087D
:1014FC00480906085501040889330408280A060817
:10150C00265A0020010301009DFD03086DFD030810
:10151C00FC0A06084103040800000000600B0608E2
:10152C001DFC0308F1310408C40B06080000000080
:10153C0000000000500C0608A9010408013404083E
:10154C00D00C0608CE57002088136F17010000003E
:10155C00D057002088136F17000000004E8E00201B
:10156C0000000000000000004C8E00200000000075
:10157C00000000004A8E0020000000000000000067
:10158C00488E00200000000000000000468E002065
:10159C000000000000000000448E0020000000004D
:1015AC0000000000280400200000000000000000E3
:1015BC00A457002002000000580E0608CC5700204B
:1015CC0088136F17010000006831002088136F1713
:1015DC000000000015FB030800000000640E060864
:1015EC00DA5E002001000000B80E06086A31002007
:1015FC0001000000C40E060860310020020000004B
:10160C00CC0E06080000000000000000D80E0608F2
:10161C00FDFA030800000000740F0608000000002B
:10162C0000000000C80F06080000000000000000C9
:10163C003810060864310020E0150C17000000007B
:10164C00FFFF0000FFFFFFFF38BD06080000080287
:10165C000503040040BD060801000802050404004F
:10166C00FCC706080200FE0101100300A07006086A
:10167C00030014020003000048BD060804001F020A
:10168C000100080050BD060805001F0201010800FA
:10169C002990010809900108C58F0108000000007D
:1016AC00B98F0108A58F0108918F01080000000077
:1016BC00000000000000000000000000858F010801
:1016CC0000000000798F010875C70108BD8C010866
:1016DC00398C0108218C01080000000048710020A1
:1016EC000800000000000000387100200800000015
:1016FC00FC6B060884C6060890C606089CC606083D
:10170C00A8C60608B4C60608E07B0608C4940608FA
:10171C00A893060844C606084CC1060874C60608F9
:10172C0078C606087CC6060880C60608C0C6060829
:10173C00C4C60608C8C6060820920608CCC6060809
:10174C001900C800F401200310000000060000047A
:10175C006D9C01082D9B01089D9C0108D1B80108C6
:10176C00A9EA01084DB90108358F0108218F01083C
:10177C00198F010801000000006002401060024057
:10178C000000000000000000000B00000000000042
:10179C0000000000000000000060024028600240D1
:1017AC000100000000000000060C0000000000001A
:1017BC000000000000000000006002404060024099
:1017CC000200000000000000100D000000000000EE
:1017DC000000000000000000006002405860024061
:1017EC000300000000000000160E000000000000C6
:1017FC000000000000000000006002407060024029
:10180C000400000000000000200F00000000000099
:10181C0000000000000000000060024088600240F0
:10182C000500000000000000261000000000000071
:10183C00000000000000000000600240A0600240B8
:10184C000600000000000000301100000000000045
:10185C00000000000000000000600240B860024080
:10186C000700000000000000362F00000000000000
:10187C000000000000000000006402401064024000
:10188C000000000000000000003800000000000014
:10189C0000000000000000000064024028640240C8
:1018AC0001000000000000000639000000000000EC
:1018BC000000000000000000006402404064024090
:1018CC000200000000000000103A000000000000C0
:1018DC000000000000000000006402405864024058
:1018EC000300000000000000163B00000000000098
:1018FC000000000000000000006402407064024020
:10190C000400000000000000203C0000000000006B
:10191C0000000000000000000064024088640240E7
:10192C00050000000000000026440000000000003C
:10193C00000000000000000000640240A0640240AF
:10194C000600000000000000304500000000000010
:10195C00000000000000000000640240B864024077
:10196C0007000000000000003646000000000000E8
:10197C000000000000000000D4BD0608605C0608F2
:10198C0000000000D9080508A08601000400000032
:10199C00000000000000000000000000000000003B
:1019AC00000000000000000000000000000000002B
:1019BC000000000000000000D4BD06086CC806083A
:1019CC00000000005DF50208E803000004000000C0
:1019DC0000000000000000000000000000000000FB
:1019EC0000000000000000000000000000000000EB
:1019FC000000000000000000D47306089C9206084A
:101A0C0000000000AD0A00007D0000000600000090
:101A1C0000000000000000000000000000000000BA
:101A2C0000000000000000000000000000000000AA
:101A3C00000000000000000024BD060800000000AB
:101A4C00000000001D090308E8030000030000006B
:101A5C00000000000000000000000000000000007A
:101A6C00000000000000000000000000000000006A
:101A7C00000000000000000074C806080000000010
:101A8C0000000000F9AE020810270000030000005F
:101A9C00000000000000000000000000000000003A
:101AAC00000000000000000000000000000000002A
:101ABC00000000000000000044BD0608000000000B
:101ACC0085820308D91403085F7600000500000026
:101ADC0000000000000000000000000000000000FA
:101AEC0000000000000000000000000000000000EA
:101AFC000000000000000000E0BF0608000000002D
:101B0C0000000000356103081027000001000000F0
:101B1C0000000000000000000000000000000000B9
:101B2C0000000000000000000000000000000000A9
:101B3C00000000000000000080C806080000000043
:101B4C0000000000D5F00208E803000005000000CA
:101B5C000000000000000000000000000000000079
:101B6C000000000000000000000000000000000069
:101B7C0000000000000000008CC8060800000000F7
:101B8C000000000045350508204E00000300000051
:101B9C000000000000000000000000000000000039
:101BAC000000000000000000000000000000000029
:101BBC0000000000000000009CC8060800000000A7
:101BCC000000000031330508204E00000300000027
:101BDC0000000000000000000000000000000000F9
:101BEC0000000000000000000000000000000000E9
:101BFC000000000000000000ACC806080000000057
:101C0C0000000000B9FA0208400D030003000000B8
:101C1C0000000000000000000000000000000000B8
:101C2C0000000000000000000000000000000000A8
:101C3C00000000000000000094BE06080000000038
:101C4C0000000000F5D90408102700000100000076
:101C5C000000000000000000000000000000000078
:101C6C000000000000000000000000000000000068
:101C7C0000000000000000008C5C06080000000062
:101C8C000000000089160408102700000300000063
:101C9C000000000000000000000000000000000038
:101CAC000000000000000000000000000000000028
:101CBC000000000000000000BCC806080000000086
:101CCC00000000000DD00308A086010001000000F8
:101CDC0000000000000000000000000000000000F8
:101CEC0000000000000000000000000000000000E8
:101CFC00000000000000000028BD060800000000E5
:101D0C000000000085F4020850C300000100000030
:101D1C0000000000000000000000000000000000B7
:101D2C0000000000000000000000000000000000A7
:101D3C0000000000000000008C6F0608000000008E
:101D4C000000000089F10208A861000001000000F9
:101D5C000000000000000000000000000000000077
:101D6C000000000000000000000000000000000067
:101D7C000000000000000000C4C8060800000000BD
:101D8C0000000000F14B0408A086010001000000D7
:101D9C000000000000000000000000000000000037
:101DAC000000000000000000000000000000000027
:101DBC000000000000000000E8BF06080000000062
:101DCC000000000049420308A00F000001000000C1
:101DDC0000000000000000000000000000000000F7
:101DEC0000000000000000000000000000000000E7
:101DFC000000000000000000D0C806080000000031
:101E0C000000000059060408102700000100000023
:101E1C0000000000000000000000000000000000B6
:101E2C0000000000000000000000000000000000A6
:101E3C000000000000000000E07A0608000000002E
:101E4C0000000000C15B02081A4100000100000004
:101E5C000000000000000000000000000000000076
:101E6C000000000000000000000000000000000066
:101E7C0000000000000000004C6F0608000000008D
:101E8C0000000000D5F5010810270000010000003B
:101E9C000000000000000000000000000000000036
:101EAC000000000000000000000000000000000026
:101EBC000000000000000000745C06080000000038
:101ECC0000000000D55304081A4100000100000076
:101EDC0000000000000000000000000000000000F6
:101EEC0000000000000000000000000000000000E6
:101EFC000000000000000000DCC806080000000024
:101F0C000000000085020208400D030000000000E4
:101F1C0000000000000000000000000000000000B5
:101F2C0000000000000000000000000000000000A5
:101F3C000000000000000000E4C8060800000000DB
:101F4C0000000000BFC00408400D030000000000AA
:101F5C000000000000000000000000000000000075
:101F6C000000000000000000000000000000000065
:101F7C000000000000000000ECC806080000000093
:101F8C0000000000993C040850C30000030000004E
:101F9C000000000000000000000000000000000035
:101FAC000000000000000000000000000000000025
:101FBC000000000000000000F8C806080000000047
:101FCC0000000000A932050840420F00000000008C
:101FDC0000000000000000000000000000000000F5
:101FEC0000000000000000000000000000000000E5
:101FFC00000000000000000004C9060800000000FA
:10200C0000000000A5D6040850C30000000000002A
:10201C0000000000000000000000000000000000B4
:10202C0000000000000000000000000000000000A4
:10203C0000000000000000000000803F001700209E
:10204C000000000000000000000000000000000084
:10205C000000000000000000000000000000000074
:10206C000000000000000000000000000000000064
:10207C000000000000000000000000000000000054
:10208C000000000000000000000000000000000044
:10209C000000000000000000000000000000000034
:1020AC000000803F0000803F0000000001000000A5
:0C20BC005CB700200000000020000000C5
:020000040801F1
:1000000003685A1C02601970704700BF2DE9F04761
:10001000089C002B8846074621780CBF4FF020092A
:100020004FF03009651C29B3002A27DD2B4601E07B
:100030000246A8B113F8016B501E002EF8D1961E8F
:1000400070B1B2460AF1FF3A49463846C0470AF154
:100050000103002BF6DC26EAE6702178013039B185
:10006000041B3846C047281915F8011B0029F8D190
:10007000BDE8F087002A03DC0846F9E70020EFE737
:10008000561EDEE72DE9F84F14461D4606464FF48E
:100090007A720023204629464E4F4BF0FFFF4E4B0D
:1000A0004E4A40F2B55C0344DFF83CA182FB0301F9
:1000B000D81787FB03784A4F1944984487FB037E7F
:1000C000C0EB6111C0EBE8279E4482FB01824FEA3E
:1000D000E179C0EB2E4E8AFB078A0A44C1EB011B73
:1000E000C9EB62193F4AA3EB8B0BC9EB091982FBE1
:1000F0000E824FEAE77886F806B0A1EB8901DFF8B7
:10010000EC90C8EBAA08717189FB03134FEAEE71FA
:1001100008EB4808C1EBE212A7EBC8080CFB12E29F
:10012000C0EBE35386F80480B2F5896F4FEA830091
:100130003CDA40F2DA239A4242DCB2F5B77FDFF8CC
:10014000B080B4BF4FF0000E4FF0010E4FEA4E09E1
:100150001FFA8EFC09EB0E0308EBC303DF8A09EBE1
:100160000E010B2308EBC101163101E031F8027DCD
:10017000974218DD013BF9D1CE44012338F83E7097
:1001800000F5FA6E0132B3702046F444D71B2946BD
:100190004FF47A720023A6F800C0F7704BF07EFF90
:1001A0003281BDE8F88F0133DBB2E9E74FF0030C91
:1001B00040F29657DFF838804FF00609E646CEE762
:1001C0004FF0020C40F22947DFF824804FF0040979
:1001D000E646C4E7C5B3A29180BC92C789888888E7
:1001E00007452EC273B06D16ABAAAA2A792D03114A
:1001F00048E405080028F0B504DA2D234042013117
:1002000001F8013C092804464FF0010307DD03EB28
:1002100083035B00B0FBF3F2092AF8D883B10E48E0
:10022000A0FB0356B4FBF3F2092A02F1570C02F1CA
:10023000300708DD03FB1244F30801F801CBEFD1CE
:1002400000230B70F0BD03FB1244F30801F8017B9F
:10025000E6D100230B70F0BDCDCCCCCC884270B47D
:100260004FF0010442D301FB04F4B0FBF4F58D42DE
:10027000F9D2ECB142BB092D04FB150005F157067C
:1002800005F130020EDD03F8016BB4FBF1F47CB133
:10029000B0FBF4F5092D04FB150005F1570605F137
:1002A0003002F0DC03F8012BB4FBF1F4002CEFD1A9
:1002B000002270BC1A707047B4FBF1F403F8016BB4
:1002C000002CF5D0B0FBF4F5092D04FB150005F169
:1002D000370605F13002EFDC03F8012BB4FBF1F433
:1002E000002CEFD1002270BC1A7070470546002A1E
:1002F000EAD1C0E7542200230221C2700422037015
:10030000C3728373C373417041728270C27182720F
:1003100030B4512501248571047230BC704700BF90
:10032000002306214FF47A7201700373C0E90123A0
:10033000704700BF33233222FF21437001234271F3
:100340000022817403720370037183704281828181
:10035000C28130B435254FF60174C570048230BCBB
:10036000704700BF3249334B2DE9F04F804683B0D0
:100370005D274FF0000A01F5807B2F4810220126EF
:1003800003E0203098420AD002799742F9D10268FE
:100390000C68A24208D0203001369842F4D12031B6
:1003A00059453AD00F79E8E744794D79A542F2D121
:1003B0000AEB4A099646214808F80970C144DFF85B
:1003C00080C000F5727589F801607246664603E0E8
:1003D000A84219D050F82C6FB242F9D10679A64242
:1003E000F6D1CF6806464FF0000C96460190F268B1
:1003F000BA4215D00CF1010C0C36BCF1030FF6D14A
:1004000001987246A842E5D14FF0FF3C203189F8AF
:1004100002C00AF1010A5945C4D103B0BDE8F08F0A
:10042000086932698242E5D14FFA8CFCEEE700BFE1
:10043000B4EB0508744A0608B4400608744A060876
:1004400000000140154BFF214FF0FF3C0022C1701E
:10045000017101724172417381738174C174F0B58D
:1004600003F10C0E012717261625152402EB820234
:10047000734500EB020184544D708E70CF7081F88B
:1004800004C00AD093F9062006335C789D78DE78A4
:1004900093F9047093F905C0E8E7F0BDA8E40508F6
:1004A00010B42C21012402220023047041708270B8
:1004B000C3705DF8044B70470123002114220170C2
:1004C000C27003714370437110B4482484705DF8A6
:1004D000044B7047FF22034600F1100170B41A70FC
:1004E000023303F8012C8B42F9D10B4B4FF0FF3153
:1004F000002203F10F060C4605E093F9044093F93E
:10050000051013F8032F00EB42059E4200F812403D
:100510006970F2D170BC7047BCE405082DE9F04F5A
:10052000DFF8D8C185B0744CDCF800502288B4F9EB
:100530000AA0C2EB251352005B43C2EBE502B4F9FB
:1005400002501B136A43B4F904505D43AD1305EB2D
:10055000E225B5F5FA324FEAE57BA5614BF1FF33B1
:100560004FEAEA7BCDE90023DDE90032CDE9020163
:100570005343009A0199A2FB0289B4F9082000981C
:1005800009EB43095143D31700FB0311A2FB0023DE
:100590000B440AFB09F116031F0308FB0B13AAFB0C
:1005A000080147EA125719444FEA102A4AEA016A39
:1005B0004FEA212B1AEB0602E6884BEB070312F1F8
:1005C000000A43F5004BAAFB060106FB0B114A107B
:1005D000CB1752EA030100F08C80B4F91060009848
:1005E00006FB09F1F71708FB0711A6FB0867B4F92A
:1005F0000E8039444FEAE879B2468B46019908FBF0
:1006000001F100FB0911A8FB00898944DCF8041002
:100610004FEA4846C1F5801C4FEA49471AEB060AE3
:1006200047EAD8376646B4F90C804FEACC704BEBFA
:10063000070BF7174FEAC806F9070196002641EAAB
:100640005C0140F6354C0096DDE9006716EB0A06C2
:1006500047EB0B07801B61EB07018946A0FB0C01F0
:100660000CFB09114BF01AFDB4F916204E13B4F926
:1006700014A0470B804602FB06FCD31747EAC1478C
:100680004FEAEA7B07FB03CCA2FB072363445643F4
:1006900007FB0366A2FB07233344560E46EAC31644
:1006A0005F16321847EB01030AFB01F108FB0B1739
:1006B000AAFB08013944C60C46EA4136CF1412EBB6
:1006C0000608B4F9122043EB07094FEA1821130179
:1006D00041EA09610B44029A0AB11B0A1360039BA9
:1006E00023B105EB850580352D121D6005B0BDE8F1
:1006F000F08F0023EFE700BFD450002060170020E8
:1007000070477047012380F8543070474FF40063FE
:1007100083837047034610B4D0F8F840D968406925
:1007200064B1D3F810218C1A013A005D08BF0A4663
:100730005DF8044BC0B2C3F8102170471A6A805CA0
:1007400001328A4228BF2246C0B25DF8044B1A62C9
:10075000704700BFD0F8FC3013B190F8900170479B
:10076000D0E90903181AB0FA80F04009704700BFB9
:10077000D0E909120369914238BFC918013B8A1AAE
:10078000D0F8FC1031B1D0F87C11096849680A44EE
:100790009A4201D2981A704700207047D0F8F8307A
:1007A0006BB1D0F88031D0F810211B685B689A4299
:1007B00001D8981A7047C068801A18447047D0E969
:1007C00007239A4203D2C0681044C01A7047D01A57
:1007D000704700BF0138F0B54001104C104E83B097
:1007E000255804440F4F306BBD420CBF4FF4001529
:1007F0004FF4800528433063366B94F9110035407F
:10080000E160636191090195019B45F09BFB94F9BF
:10081000110003B0BDE8F04009F046BB380E0020DF
:100820000038024000600240F0B4C76982B006465A
:100830001FB1BB883A681B049361726903206D463F
:100840003E4C536823F48053536040F2E93301E097
:10085000013B54D091688907FAD5002C4CD034F86C
:10086000023B938140F2E93301E0013B47D09168BC
:10087000C907FAD5D3680DB125F8023B0138E4D198
:10088000516840F2E93341F48051516001E0013B8D
:1008900035D091688807FAD5002C47D02378137398
:1008A00040F2E93301E0013B42D09168C907FAD533
:1008B000D368F76905B12B7017B13B68BA889A61A4
:1008C0009DF8014001209DF803309DF802109DF82D
:1008D000042041EA04219DF8054042EA03229DF8E4
:1008E0000630A6F8541043EA0423A6F85620A6F8CA
:1008F000583002B0F0BC70474FF6FF73B1E71049B3
:100900008A4207D00F4B9A420ED003F57C439A429D
:10091000D2D103230C4AD82101FB03239A89013247
:1009200092B29A819B89C7E70123F3E7FF23B6E7D9
:100930000349F7698A42E5D1ECE700BFD0E4050836
:100940000030014000380040EC89002013B5062338
:100950000C466A4628210C3038F0D6FDF0B19DF8DF
:10096000013004219DF8002042EA03229DF8033063
:1009700012B292FBF1F222809DF8022042EA032299
:100980009DF8043012B292FBF1F262809DF80520CE
:1009900043EA02231BB293FBF1F3A38002B010BD24
:1009A0007FB5002500F10C060C4601230D800DF1EA
:1009B00007024D8030468D80062138F0A5FD10B924
:1009C000002004B070BD9DF807305B07F8D5062302
:1009D00002AA2946304638F097FD0028F0D09DF84D
:1009E00009209DF8083043EA02239DF80B2023805C
:1009F0009DF80A3043EA02239DF80D2063809DF89C
:100A00000C3043EA0223A380DBE713B506230C4630
:100A10006A4603210C3038F077FDA0B19DF8002024
:100A20009DF8013043EA02239DF8022023809DF8BF
:100A3000033043EA02239DF80420A3809DF805308B
:100A400043EA0223638002B010BD07B506236A465D
:100A5000F72138F059FD9DF801309DF800101B0179
:100A60000B4A43EA01339DF8021043EA11139DF843
:100A7000031053609DF804301B0143EA01339DF8D5
:100A8000051043EA1113136003B05DF804FB00BFC7
:100A90006017002039F036B81D4B1B7870B504463E
:100AA00000F1250593B104221A4920304DF092FC43
:100AB0002846142218494DF08DFC012384F83A3061
:100AC000164B1B7873B984F83B3070BD284614224E
:100AD00013494DF07FFC012384F83A300F4B1B780B
:100AE000002BF0D00F4A0123166855689068D16832
:100AF00026606560A060E160D169166955699069FA
:100B000084F83B3026616561A061E16170BD00BF82
:100B1000D46700209C67002084670020D5670020F0
:100B20002C560608A4670020014B186823F088BBE8
:100B3000E048002010B4272126240122002304705D
:100B400041708270C3705DF8044B704738B52E2237
:100B500000214DF049FB40F2DC540346642140F291
:100B60001A4040F26C7240F2022519745C82132123
:100B700019249882DA8240F2753040F643021D83D0
:100B800099760E250A211C77D8831E2402201A8408
:100B9000012283F82B101872194683F82A0083F873
:100BA000225083F82C409A7383F8252083F829205B
:100BB0000248BDE838402DF065B800BF3856060839
:100BC00010B50446002101201FF0C2FA207010BDAC
:100BD00038B50023451E1C460372E1B201340220E1
:100BE0001FF0B6FA082C05F8010FF6D138BD00BF8A
:100BF00038B5002305461C460380214601342846AB
:100C000033F01CFC082CF8D10023284685F8E2308C
:100C10001946A5F8E430A5F8E630A5F8E830A5F8BF
:100C2000EA30A5F8EC30A5F8EE30A5F8F030A5F8DC
:100C3000F230BDE8384033F0C5BB00BFF8B5EFF384
:100C40001184502383F31288D0F8FC301B6813F012
:100C5000010303D0E4B284F31188F8BD90F8852134
:100C600090F886110A4302F02102212AF2D0D0E93D
:100C70000912914245D095B247D94B1B9BB2816274
:100C8000002590F8851180F890512029E2D18569DE
:100C9000D54205EB0201DDD0B3FA83F56D09002DD5
:100CA000D8D190F88421012AD4D0064621220120EF
:100CB000DFF864C0A6F86E31D6F87C71C6F88851AA
:100CC00086F88521134AA6F86C3186F884013846E7
:100CD000C6F868113D65C7E90FC2D6F81C21DFF8D8
:100CE0003CC02832C7F84CC00EF008FAD6F81C31C8
:100CF00040221A6286F884519A6842F080029A6013
:100D0000A8E7012380F89031A4E706691946731B10
:100D10009BB2B4E7FD910108339201089791010855
:100D2000426A10B48469A154426A04690132D0F85D
:100D3000FC10A24228BF0022426241B9D0F81C2117
:100D40005DF8044B136843F08003136070475DF84F
:100D5000044B73E7436910B5184C04EB8303986A9E
:100D60000DF02EFFB4F8482023460C2A0DD8DFE8FA
:100D700002F0070C0C0C130C0C0C190C0C0C1F00C3
:100D8000A168CA6822F40072CA60012283F8452073
:100D900000220B4B1A7010BDA168CA6822F4806251
:100DA000CA60F2E7A168CA6822F40062CA60ECE790
:100DB000A168CA6822F48052CA60E6E76017002082
:100DC0006F5B0020406998300DF0FABE10B500F15D
:100DD0000C0400222121204638F0B4FDFC22202101
:100DE000204638F0AFFD40222421204638F0AAFDED
:100DF0000C222321204638F0A5FD00222221204686
:100E000038F0A0FD642023F0A3F8012010BD10B538
:100E100000F10C0401220B21204638F093FD20B193
:100E20001D220921204638F08DFD00F0010010BD83
:100E300010B500F10C0470220021204638F082FD2C
:100E400020220121204638F07DFD0022022120468B
:100E500038F078FD642023F07BF8012010BD3122AA
:100E6000F42138F06FBD00BF0269C3682DE9F04777
:100E700012EA030927D00E4605464FF000474FF00F
:100E80000008B9FA89F327FA03F21B3BD2432A611F
:100E900009EA0209042B13D8DFE803F032292017EE
:100EA0000300736A002B34D1EB6A1FFA83FA346AA9
:100EB00034B123682046514698476468002CF8D125
:100EC000B9F1000FDDD1BDE8F0873068696B0368C8
:100ED00089B29847B9F1000FD3D1F4E77068A96BD4
:100EE000036889B29847B9F1000FCAD1EBE7B0683F
:100EF000E96B036889B29847B9F1000FC1D1E2E705
:100F0000F068296C036889B29847B9F1000FB8D12D
:100F1000D9E703F1FF3AC6F824801FFA8AFAC6E738
:100F20002DE9F04F89B090F865300090002B40F02B
:100F30007587009BA9495A6913688A4223F04003C8
:100F4000136000F06687A64B9A4200F06287382053
:100F50001368009923F03803C969034313601368C9
:100F600043F04003136019B18B8809681B048B613F
:100F700040F2E93302E0002B01F061819168013B0E
:100F800011F0020F9BB2F6D06B2140F2E9331173DE
:100F900002E0002B01F095819168013B11F0010FF7
:100FA0009BB2F6D0D368009B5A6940F2E93302E065
:100FB000002B00F0D3879168013B11F0020F9BB228
:100FC000F6D0802140F2E933117302E0002B00F0EB
:100FD000C5879168013B11F0010F9BB2F6D0D36831
:100FE000009BDB6913B11A689B88936164237D4E73
:100FF0004FF01009DFF8FCE101937B4C7B4BDFF8ED
:10100000F8817B4FDEF80420C2F30802002A40F08A
:101010002086EFF31182002A40F01B861D68A1682C
:101020001A689542FAD13A689142F7D8D6F800C0CA
:101030004FF47A7000FB0CF2521AB2FBFCF200FB88
:1010400005254FF47A7C4FF0010ADEF80420C2F344
:101050000802002A40F0BE85EFF31182002A40F01A
:10106000B9851968A0681A689142FAD13A68904225
:10107000F7D832680CFB02FBABEB0000B0FBF2F0E0
:101080000CFB0101491BB1F57A7FDED301990139CF
:101090000191B7D10099C86920B18188006809041D
:1010A00081610099486940F2E93102E0002901F0CC
:1010B000AE808468013914F0020F89B2F6D068243A
:1010C00040F2E931047302E0002901F00F818468E5
:1010D000013914F0010F89B2F6D0C168009948694E
:1010E00040F2E93102E0002900F0208784680139EC
:1010F00014F0020F89B2F6D0032440F2E9310473F0
:1011000002E0002900F012878468013914F0010F11
:1011100089B2F6D0C1680099C96911B10868898897
:1011200081616421DFF8CCE04FF010092E4CDFF82C
:10113000C8802F4F0191DEF80410C1F30801002987
:1011400040F06785EFF31181002940F062851D684A
:10115000A06819688D42FAD139688842F7D84FF4EF
:101160007A7101FB02FCACEB0000B0FBF2F201FB78
:1011700005254FF47A7C4FF0010ADEF80420C2F313
:101180000802002A40F00785EFF31182002A40F0A0
:1011900002851968A0681A689142FAD13A689042AB
:1011A000F7D832680CFB02FBABEB0000B0FBF2F0AF
:1011B0000CFB0101491BB1F57A7FDED3019901399E
:1011C0000191B8D10099C86920B1818800680904EB
:1011D00081610099486940F2E93112E0003800402D
:1011E000003C0040D871002010E000E0D4710020E5
:1011F000DC71002000ED00E0D0710020002900F03B
:1012000060878468013914F0020F89B2F6D06B242C
:1012100040F2E931047302E0002900F06A87846833
:10122000013914F0010F89B2F6D0C16800994869FC
:1012300040F2E93102E0002900F06086846801395B
:1012400014F0020F89B2F6D0012440F2E9310473A0
:1012500002E0002900F052868468013914F0010F81
:1012600089B2F6D0C1680099C96911B10868898846
:1012700081610F21DFF844E24FF010098D4CDFF857
:1012800040828D4F0191DEF80410C1F3080100295E
:1012900040F07C85EFF31181002940F077851D68CF
:1012A000A06819688D42FAD139688842F7D84FF49E
:1012B0007A7101FB02FCACEB0000B0FBF2F201FB27
:1012C00005254FF47A7C4FF0010ADEF80420C2F3C2
:1012D0000802002A40F04084EFF31182002A40F017
:1012E0003B841968A0681A689142FAD13A68904222
:1012F000F7D832680CFB02FBABEB0000B0FBF2F05E
:101300000CFB0101491BB1F57A7FDED3019901394C
:101310000191B8D10099C86920B181880068090499
:1013200081610099486940F2E93102E0002900F04A
:1013300011878468013914F0020F89B2F6D01B249A
:1013400040F2E931047302E0002900F01B87846851
:10135000013914F0010F89B2F6D0C16800994869CB
:1013600040F2E93102E0002900F0B08584680139DB
:1013700014F0020F89B2F6D0182440F2E931047358
:1013800002E0002900F0A2858468013914F0010F01
:1013900089B2F6D0C1680099C96911B10868898815
:1013A00081610F21DFF814E14FF01009414CDFF8A3
:1013B0001081414F0191DEF80410C1F308010029AA
:1013C00040F0C484EFF31181002940F0BF841D6810
:1013D000A06819688D42FAD139688842F7D84FF46D
:1013E0007A7101FB02FCACEB0000B0FBF2F201FBF6
:1013F00005254FF47A7C4FF0010ADEF80420C2F391
:101400000802002A40F08A83EFF31182002A40F09C
:1014100085831968A0681A689142FAD13A689042A7
:10142000F7D832680CFB02FBABEB0000B0FBF2F02C
:101430000CFB0101491BB1F57A7FDED3019901391B
:101440000191B8D10099C86920B181880068090468
:1014500081610099486940F2E93102E0002900F019
:10146000A6868468013914F0020F89B2F6D01C24D4
:1014700040F2E931047302E0002900F0F886846844
:10148000013914F0010F89B2F6D0C168009948699A
:1014900040F2E93102E0002900F0788584680139E2
:1014A00014F0020F89B2F6D0182440F2E931047327
:1014B0000BE000BF10E000E0DC71002000ED00E078
:1014C000D0710020002900F061858468013914F092
:1014D000010F89B2F6D0C1680099C96911B10868D5
:1014E000898881610F21DFF870E24FF01009984D73
:1014F000DFF86882974F0191DEF80410C1F308010C
:10150000002940F06384EFF31181002940F05E84EC
:101510001C68A86819688C42FAD139688842F7D8E3
:101520004FF47A7101FB02FCACEB0000B0FBF2F26D
:1015300001FB04244FF47A7C4FF0010ADEF804200A
:10154000C2F30802002A40F0CB82EFF31182002A96
:1015500040F0C6821968A8681A689142FAD13A68C0
:101560009042F7D832680CFB02FBABEB0000B0FBFB
:10157000F2F00CFB0101091BB1F57A7FDED3019972
:1015800001390191B8D1009890F85F10032900F259
:101590003D8490F86240012C0AD0022C40F0368441
:1015A00090F8671001F0FB0102290CBF002407240A
:1015B0000099C86920B18188006809048161009997
:1015C000486940F2E93102E0002900F0A48685680C
:1015D000013915F0020F89B2F6D01A2540F2E9312F
:1015E000057302E0002900F0C6868568013915F010
:1015F000010F89B2F6D0C1680099486940F2E9311B
:1016000002E0002900F007858568013915F0020F16
:1016100089B2F6D0047340F2E93102E0002900F00B
:10162000FA848468013914F0010F89B2F6D0C168D8
:101630000099C96911B10868898881610F21DFF8B3
:1016400018E14FF01009424CDFF81081414F019131
:10165000DEF80410C1F30801002940F03983EFF3EC
:101660001181002940F034831D68A06819688D42FB
:10167000FAD139688842F7D84FF47A7101FB02FC3D
:10168000ACEB0000B0FBF2F201FB05254FF47A7CD5
:101690004FF0010ADEF80420C2F30802002A40F0ED
:1016A0000182EFF31182002A40F0FC811968A068E2
:1016B0001A689142FAD13A689042F7D832680CFB26
:1016C00002FBABEB0000B0FBF2F00CFB0101491B8D
:1016D000B1F57A7FDED3019901390191B8D1009932
:1016E000C86991F8644020B181880068090481616B
:1016F0000099486940F2E93102E0002900F02386B0
:101700008568013915F0020F89B2F6D0192540F22B
:10171000E931057302E0002900F04386856801394C
:1017200015F0010F89B2F6D0C1680099486940F2FE
:10173000E93102E0002900F057848568013915F08D
:10174000020F89B2F6D0047340F2E9310BE000BF1A
:1017500010E000E0DC71002000ED00E0D07100201E
:10176000002900F041848468013914F0010F89B226
:10177000F6D0C1680099C96911B10868898881618A
:101780006421DFF8DCE24FF01009B14CDFF8D482BD
:10179000B04F0191DEF80410C1F30801002940F0B8
:1017A0007882EFF31181002940F073821D68A068F0
:1017B00019688D42FAD139688842F7D84FF47A71A6
:1017C00001FB02FCACEB0000B0FBF2F201FB0525D3
:1017D0004FF47A7C4FF0010ADEF80420C2F30802CD
:1017E000002A40F04181EFF31182002A40F03C8151
:1017F0001968A0681A689142FAD13A689042F7D8FD
:1018000032680CFB02FBABEB0000B0FBF2F00CFB10
:101810000101491BB1F57A7FDED3019901390191AC
:10182000B8D1009AD16921B18A88096812048A6105
:10183000009A516940F2E93202E0002A00F0CF84B8
:101840008868013A10F0020F92B2F6D0372040F2C9
:10185000E932087302E0002A00F01E858868013A28
:1018600010F0010F92B2F6D0CA68009A516940F2A6
:10187000E93202E0002A00F0A1838868013A10F002
:10188000020F92B2F6D0102040F2E932087302E063
:10189000002A00F093838868013A10F0010F92B299
:1018A000F6D0CA68009AD26912B1116892888A612A
:1018B0000F22DFF8ACE14FF01009654CDFF8A4818E
:1018C000644F0192DEF80420C2F30802002A40F0BF
:1018D0001E82EFF31182002A40F019821D68A16870
:1018E0001A689542FAD13A689142F7D8D6F800C002
:1018F0004FF47A7000FB0CF2521AB2FBFCF200FBC0
:1019000005254FF47A7C4FF0010ADEF80420C2F37B
:101910000802002A7ED1EFF31182002A7AD11A68D8
:10192000A06819688A42FAD139688842F7D83168C4
:101930000CFB01FBABEB0000B0FBF1F00CFB020277
:10194000521BB2F57A7FE0D3019A013A0192B9D1E4
:10195000009BDA6922B1938812681B049361009B93
:101960005B6940F2E93202E0002A00F0658599687F
:10197000013A11F0020F92B2F6D0382140F2E9326A
:10198000197302E0002A00F021859968013A11F0EC
:10199000010F92B2F6D0DB68009B5B6940F2E9323E
:1019A00002E0002A00F02B859968013A11F0020F3D
:1019B00092B2F6D0012140F2E932197302E0002A16
:1019C00000F04B859968013A11F0010F92B2F6D000
:1019D000DB68009B5B69009AD26912B1116892883A
:1019E0008A611A681C4922F040028B421A6000F09A
:1019F00013821A4A934200F00F8218211A6822F0CB
:101A000038020A431A601A6842F040021A6009B0AC
:101A1000BDE8F08FEFF3118089F31288D4F808B095
:101A20002268D20303D5C8F800A0D4F808B01A6819
:101A3000C0B2D8F8001080F3118830680A440CFB5B
:101A400000F1A1EB0B01B1FBF0F10CFB021277E707
:101A500010E000E0DC71002000380040003C004055
:101A600000ED00E0D0710020EFF3118289F31288BD
:101A7000D4F808B02168C80303D5C8F800A0D4F88A
:101A800008B01968D2B2D8F8000082F31188326821
:101A900001440CFB02F0A0EB0B00B0FBF2F00CFBDE
:101AA0000101B6E6EFF3118289F31288D4F808B089
:101AB0002168C90303D5C8F800A0D4F808B0196894
:101AC000D2B2D8F8000082F31188326801440CFBCE
:101AD00002F0A0EB0B00B0FBF2F00CFB0101F6E50D
:101AE000EFF3118289F31288D5F808B02968C90389
:101AF00003D5C8F800A0D5F808B01968D2B2D8F854
:101B0000000082F31188326801440CFB02F0A0EB64
:101B10000B00B0FBF2F00CFB01012CE5EFF311829E
:101B200089F31288D4F808B02168C90303D5C8F82E
:101B300000A0D4F808B01968D2B2D8F8000082F337
:101B40001188326801440CFB02F0A0EB0B00B0FBE3
:101B5000F2F00CFB01016DE4EFF3118289F31288BE
:101B6000D4F808B02168C90303D5C8F800A0D4F898
:101B700008B01968D2B2D8F8000082F31188326830
:101B800001440CFB02F0A0EB0B00B0FBF2F00CFBED
:101B90000101FFF7B7BBEFF3118289F31288D4F884
:101BA00008B02168C90303D5C8F800A0D4F808B06C
:101BB0001968D2B2D8F8000082F311883268014463
:101BC0000CFB02F0A0EB0B00B0FBF2F00CFB0101F0
:101BD000FFF7F0BAEFF3118289F31288D4F808B056
:101BE0002168C90303D5C8F800A0D4F808B0196863
:101BF000D2B2D8F8000082F31188326801440CFB9D
:101C000002F0A0EB0B00B0FBF2F00CFB0101FFF7C0
:101C100039BAEFF3118289F31288A0682168CD03E5
:101C200003D50121C8F80010A0681D68D2B2D8F809
:101C300000A082F311884FF47A71D6F800C05544A1
:101C400001FB0CF2121AB2FBFCF201FB0525FFF7B7
:101C500090BAEFF3118289F31288A0682168CD034E
:101C600003D50121C8F80010A0681D68D2B2D8F8C9
:101C700000A082F311884FF47A71D6F800C0554461
:101C800001FB0CF2121AB2FBFCF201FB0525FFF777
:101C9000D8B9EFF3118289F31288A0682168CD03C7
:101CA00003D50121C8F80010A0681D68D2B2D8F889
:101CB00000A082F311884FF47A71D6F800C0554421
:101CC00001FB0CF2121AB2FBFCF201FB05257FE5C9
:101CD000EFF3118289F31288A0682168CD0303D540
:101CE0000121C8F80010A0681D68D2B2D8F800A081
:101CF00082F311884FF47A71D6F800C0554401FB85
:101D00000CF2121AB2FBFCF201FB0525BEE4EFF364
:101D1000118289F31288A0682168C90303D50121C3
:101D2000C8F80010A0681D68D2B2D8F800A082F3ED
:101D300011884FF47A71D6F800C0554401FB0CF2BB
:101D4000121AB2FBFCF201FB0525DAE5EFF3118272
:101D500089F31288A0682168CD0303D50121C8F852
:101D60000010A0681D68D2B2D8F800A082F31188D4
:101D70004FF47A71D6F800C0554401FB0CF2121AE8
:101D8000B2FBFCF201FB0525FFF733BBEFF3118239
:101D900089F31288A0682168CD0303D50121C8F812
:101DA0000010A0681D68D2B2D8F800A082F3118894
:101DB0004FF47A71D6F800C0554401FB0CF2121AA8
:101DC000B2FBFCF201FB0525FFF77BBAEFF31182B2
:101DD00089F31288A8682968CC0303D50121C8F8C3
:101DE0000010A8681C68D2B2D8F800A082F311884D
:101DF0004FF47A71D6F800C0544401FB0CF2121A69
:101E0000B2FBFCF201FB0424FFF794BB019CFFF73B
:101E1000CFBB3020FFF79CB81021EFE51C0903F081
:101E20000F03013C042C00F23483BC4A32F8140046
:101E300040FA03F2D10740F12C83012202FA03F3A6
:101E4000013B18404AF07AF9B54BB6491B5D18447E
:101E500011EBC00500F01D83AF882026B24A002494
:101E6000B7FA87F3AE71009EC3F11F03EC71F26005
:101E70005A1C3FF45EA83246DFF8D4C2AB4E0C3297
:101E800051F8300006EB030E03A94CF82320A84BB1
:101E9000039704939EF890700594CDE906440AF0E8
:101EA00011F9A44BDA5DF02A00F2CC80AB88012254
:101EB000B3FA83F3C3F11F0312FA03F33FF439A813
:101EC0009D490A6813430B60FFF733B89B4CA0424F
:101ED00009D09B49884200F0F28001F57C4188429C
:101EE0007FF459AA03219748D82404FB010188896B
:101EF000013080B288818989FFF74DBA8F4CA042AA
:101F000009D08F49884200F0CC8001F57C4188429D
:101F10007FF4A9A903218B48D82404FB01018889F7
:101F2000013080B288818989FFF79DB9834CA04236
:101F300009D08349884200F0BE8001F57C41884287
:101F40007FF4E9A803217F48D82404FB0101888994
:101F5000013080B288818989FFF7DDB877498A42EC
:101F600009D0774B9A4200F0A48003F57C439A4253
:101F70007FF436A80323734AD82101FB03239A89EF
:101F8000013292B29A819B89FFF72AB86B4CA0422A
:101F900009D06B49884200F08A8001F57C41884273
:101FA0007FF49AAA03216748D82404FB0101888999
:101FB000013080B288818989FFF78EBA5F488142FB
:101FC00008D05F4A914278D002F57C4291427FF47A
:101FD00069AC03225B49D82000FB021291890131D0
:101FE00089B2918192895DE4544CA04208D0544951
:101FF000884258D001F57C4188427FF4BBAB032175
:102000005048D82404FB01018889013080B28881BE
:102010008989FFF7AFBB494CA04208D048498842A4
:1020200043D001F57C4188427FF402AB032145484F
:10203000D82404FB01018889013080B28881898914
:10204000FFF7F6BAF021404A3E44D955D36896F8D6
:10205000A020C3F3022351B2C3F107001E1D0428C0
:1020600028BF0420062E88BFDC1E4FF0FF33002956
:1020700003FA00F36FEA030303F0030303FA04F324
:102080004FEA0313DBB2C0F2328202F01F062F4880
:1020900001224C090144B24081F8003340F8242069
:1020A00004E7012137E70121AAE70121BFE7012168
:1020B00079E701235FE7012145E701228AE7012152
:1020C00011E71E4CA04209D01D49884200F016823B
:1020D00001F57C4188427FF4ABA80321194CD82537
:1020E00005FB01418C890134A4B28C818989FFF7F9
:1020F0009FB8124D009CA842646909D010498842DB
:1021000000F0068201F57C41884240F0C78103213E
:102110000C4DD827204607FB0151E3E7A0400608F5
:10212000AC400608E47500200507010848E40508EE
:102130000000111084700020003C0140003001407C
:1021400000380040EC89002000ED00E000E100E0F4
:1021500044700020B54CA04209D0B549884200F037
:10216000CB8101F57C4188427FF4FAA80321B14C70
:10217000D82505FB01418C890134A4B28C81898961
:10218000FFF7EEB8A94D009CA842646909D0A849A0
:10219000884200F0BF8101F57C41884240F0818196
:1021A0000321A44DD827204607FB0151E3E79F4CAC
:1021B000A04209D09E49884200F0A68101F57C41E9
:1021C00088427FF465A903219A4CD82505FB01417B
:1021D0008C890134A4B28C818989FFF759B993485D
:1021E000814209D0924A914200F0908102F57C42EE
:1021F00091427FF43CAB03228E48D82404FB0202B8
:102200009089013080B290819289FFF730BB874C72
:10221000A04209D08649884200F0808101F57C41C6
:1022200088427EF45DAF0321824CD82505FB014135
:102230008C890134A4B28C818989FEF751BF7B4916
:102240008A4209D07A4B9A4200F0668103F57C43BA
:102250009A427EF4AAAE03237649D82000FB0313EA
:102260009989013189B299819B89FEF79EBE6F4D94
:10227000009CA842646909D06D49884200F0408101
:1022800001F57C41884240F00F810321694DD82738
:10229000204607FB01519BE7644C0098A14240692E
:1022A00009D0634A914200F02D8102F57C429142AF
:1022B00040F0FD8003225F4CD825014605FB024219
:1022C0009EE75A4800998242496909D0584B9A4280
:1022D00000F0098103F57C439A4240F0D480032347
:1022E0005448D8240A4604FB0303B9E74F4D009C29
:1022F000A842646909D04E49884200F0F68001F591
:102300007C41884240F0C28003214A4DD8272046B4
:1023100007FB01518CE7454DA84209D0444988424A
:1023200000F0D38001F57C4188427FF467A9032146
:10233000404DD82707FB01518D890135ADB28D8104
:102340008989FFF75BB9394DA84209D038498842DD
:1023500000F0BD8001F57C4188427FF4E8A90321AB
:10236000344DD82707FB01518D890135ADB28D81E0
:102370008989FFF7DCB92D4F009DB8426D6909D0FE
:102380002B49884200F0A58001F57C41884240F04D
:1023900091800321274F4FF0D80C28460CFB017188
:1023A000CAE7224F009DB8426D6908D02049884293
:1023B00000F0978001F57C41884261D103211D4FD7
:1023C0004FF0D80C28460CFB0171CDE71748009957
:1023D0008342496907D0164A93427CD002F57C4279
:1023E00093426AD103221348D8240B4604FB02020D
:1023F0009189013189B291819289FFF7CFBA0B4956
:102400008B4208D00A4A934269D002F57C4293423B
:102410007FF4E1AA03220749D82000FB0212918928
:10242000013189B291819289FFF7D5BA003001401C
:1024300000380040EC89002039498B4208D0394AE5
:1024400093424AD002F57C4293427FF4A7AA03222A
:102450003549D82000FB0212CAE73148009983426F
:10246000496907D02F4A93422DD002F57C4293420E
:1024700026D103222C48D8240B4604FB0202CEE7C7
:102480002846FFF754B90A46FEF78FBD2046FEF7EF
:1024900027BE264B009AD360FEF74BBD2046FEF7C1
:1024A000C7BE2046FEF75CBF2046FEF7F1BF0146DF
:1024B000FFF7DDB92846FFF7A1B80B46FFF76EBA64
:1024C0000B46FFF788BA0122D4E7012130E701214A
:1024D00046E701215EE7012285E70122B8E70122F4
:1024E00099E701216BE70123FAE601210DE702F0EC
:1024F0000F020F498B54D9E4012138E60121EDE5A3
:102500000121C3E60122D6E601215DE6012273E640
:102510000121FDE5012144E601239DE6012183E639
:102520000030014000380040EC8900200507010818
:1025300014ED00E0F8B5D0F81C310446DA699106D4
:1025400015D5586AE36AC0B2002B00F0CC80216B2D
:102550009847D4F81C311A6822F480721A609A687D
:1025600022F001029A609A6942F008029A61DA69DF
:10257000D20701D501221A62DA69970701D5022232
:102580001A62DA69560701D504221A62DA69150758
:1025900001D508221A62D4F8FC2002B3D969490691
:1025A00000D4F8BDD96904F58E701E680F079D68C8
:1025B0002DD18F0602D5B50600F1DB800F0602D5BE
:1025C000350600F1BA80480602D5710600F1838015
:1025D000002AE6D02046BDE8F840FEF72FBBD969B7
:1025E0000806DBD594F885112129D7D0D4E9090153
:1025F000814200F09B80A069405C0131C0B29862CA
:102600002569B1FBF5F005FB1011A162C6E715F0D5
:10261000010502D116F4907FD0D0CF0701D5F70580
:102620007BD48F074AD5002D6CD10F0709D5B7068B
:1026300065D508251D62D4F8885145F00805C4F811
:102640008851D4F88851002DC2D08F0605D5B50623
:1026500003D509F007FFD4F81C31D4F888211107FD
:1026600008D49A6812F0400204D1C4F88821D4F842
:10267000FC20ADE71A68202122F490721A609A6853
:1026800022F001029A6084F886119A685206EED50B
:102690009A68D4F8801122F040029A600029E6D0AE
:1026A000414B08460B650CF065FB0028DFD0D4F8E1
:1026B0008001036D9847D4F8FC2089E74F07B4D513
:1026C000002DB2D004271F62D4F8887147F00207AA
:1026D000C4F88871A9E71968202021F04001196029
:1026E00084F8850174E7E3696269D054E369E168BD
:1026F0000133B3FBF1F201FB1233E36129E7002D53
:102700009FD096E702271F62D4F8887147F004072C
:10271000C4F888714F0788D5D4E701271F62D4F821
:10272000887147F00107C4F888717AE7A4F86E2130
:10273000196821F08001196030E794F8851121298A
:102740007FF446AFB4F86E1189B2B9B1D4F8240160
:10275000D4F86811B0F5805F19D0481CC4F868013E
:1027600009789962B4F86E31013B9BB2A4F86E31DE
:102770002EE709F077FED4F8FC2029E7196821F04C
:1027800080011960196841F04001196020E7D4F810
:102790002C010028E1D131F8020BC0F30800986247
:1027A000C4F86811DEE700BF899101082DE9F84FF0
:1027B000037C01681F2B0BD9203B2022496802FAB9
:1027C00003F30B4214BF012300235BB9BDE8F88F6C
:1027D0002022096802FA03F30B4214BF01230023ED
:1027E000002BF3D047690446934E1EF02BFE4FF4A6
:1027F000BC73804603FB07631A7C002A2ED18F49E5
:102800005A6809781568C1B9D3F8EC1058890A6874
:1028100022F001020A60EB6823EA0003EB60884BB8
:102820001B78002B33D1237C21681F2B0FD820224B
:1028300002FA03F38B60BDE8F88F5269136823F046
:1028400001031360EB6823F48073EB60E7E7203B40
:10285000202202FA03F3CB60BDE8F88F774A01210A
:1028600012785974002A40F08880D3F8EC00596837
:102870000268096822F001025D890260CB6823EAE0
:102880000503CB606F4A136801331360CBE74FF445
:10289000BC726D4B02FB07F206EB020AA832DAF8B3
:1028A000EC0006EB0209C1B220F0FF001039A3FBD7
:1028B000013109090CF00EF80123DAF8F0B08AF8BA
:1028C00010301EF0BFFDDAF8E430CBF82C01102BED
:1028D00000F096805DD9B3F5807F76D0B3F5805F48
:1028E00019D12B6ADAF89C1023F48053DAE9280214
:1028F0002B621143EA69DAF89830014322F47F42EF
:102900001B0342EA112243F48053EA612A6A22F44B
:10291000204213432B624FF4BC7000214A4B4A46BD
:1029200000FB0766D6F8EC00C6F8B010C1B220F084
:10293000FF001039A3FB013109090BF085FFD6F820
:10294000EC3096F8E8101D68776845F0100572893C
:102950003E481D605E683D6830400143596019681B
:1029600041F001011960EB681343EB601EF06AFD52
:10297000374BA0EB0800186055E75B6859691A6887
:102980000B6823F001030B60D36823F48073D360DA
:1029900078E7012BBFD12B6ADAF89C1023F00103F2
:1029A000DAE928022B621143AA69DAF89830014368
:1029B00022F0FF0243F0010342EA1142AA612A6AAF
:1029C00022F00A0213432B62A5E72B6ADAF89C1067
:1029D00023F48073DAE928022B621143EA69DAF8FA
:1029E0009830014322F0FF021B0242EA114243F4F5
:1029F0008073EA612A6A22F4206213432B628AE719
:102A00002B6ADAF89C1023F01003DAE928022B6213
:102A10001143AA69DAF89830014322F47F421B017E
:102A200042EA112243F01003AA612A6A22F0A002AE
:102A300013432B626FE700BFACEC0020A8EC002032
:102A4000A4EC0020986A0020ABAAAAAA0000FFFF0D
:102A50006CD8002020B10078B0FA80F040097047AF
:102A60000120704708B520214BF08DFC0346184625
:102A70001BB102780133202AF9D008BD037903F095
:102A80001803082B0AD002D82BB100207047102B56
:102A900017D0182BF9D1B0F80B007047124BB0F8D3
:102AA0000B0093F90030591C09D1104B1B78C3EB74
:102AB000C30203EB820300EB830080B27047DBB2FA
:102AC000F5E70B4BB0F80B0093F900305A1C09D115
:102AD000064B5B7803EB430203EB820300EB4300FE
:102AE00080B27047DBB2F5E7010D0020D4850020ED
:102AF000000D0020F0B5067906F0E003402B09D167
:102B000044794FF0FF350023012006F00706A34269
:102B10000BD1F0BD602B4FF0010403D1457904FACD
:102B200005F5F0E74FF0FF35EDE7042E0CD8DFE8B0
:102B300006F0030D18242E0030B1C85CD75C784035
:102B400028420CBF012000200133E0E70028FBD021
:102B5000C856D756A0EB070CDCF1000040EB0C0088
:102B6000F2E70028F0D031F8130032F81370784003
:102B700028420CBF01200020E6E70028E4D031F90C
:102B8000130032F91370C71B78427841DCE7002844
:102B9000DAD051F8230052F82370784028420CBF55
:102BA00001200020D0E7024B0146186836F0AABF8A
:102BB000D447002038B5441E054D14F8011F28687D
:102BC00019B9BDE8384036F08FBF36F09BFFF4E707
:102BD000D44700200048EDE7EB88060808B5FFF76A
:102BE000E9FFBDE80840F5E710B504460348FFF7E4
:102BF000E1FF2046BDE81040F0E700BF725506082F
:102C000038B5074C074DAC4203D3074B00221A706E
:102C100038BD6288D4E901014AF058F81434F2E76B
:102C200000020008DC070008B4660020024A1368AE
:102C300023EA000010607047D8880020DFED2A7A70
:102C4000B4EEE70AF1EE10FA4BDDDFED286A9FEDF6
:102C5000287AB4EEC70A70EE667AF1EE10FAB0EE9A
:102C6000670AF6DC9FED237AF4EEC77AF1EE10FAEC
:102C700034D5DFED1E6A9FED207AF4EEC77A37EE89
:102C8000A60AF1EE10FAF0EE407AF6D4DFED1B7AE8
:102C9000B4EEE70AF1EE10FA14DDDFED137A37EE49
:102CA000C00A60EE006A9FED166A9FED167ADFEDAE
:102CB000167AA6EE867A20EE266AE6EE877AA6EEE9
:102CC000270A7047DFED117AB4EEE70AF1EE10FA49
:102CD000E7D5DFED087A37EEC00AE2E7B0EE670A23
:102CE000D4E7F0EE407ABDE7DB0F4940DB0FC94087
:102CF000E4CB1641DB0F49C0E4CB16C1DB0FC93F63
:102D000092E741B99730083C15A82ABEDB0FC9BF2E
:102D1000B0EEC07AF0EEE06A86FE876AB5EE406AF1
:102D2000F1EE10FA3DD0C6FEC75AC5EE867ADFED49
:102D30001E2ADFED1E3ADFED1E4A9FED1E5A9FED63
:102D40001E3AB7EE006A9FED1D4ADFED1D5AE7EE11
:102D5000E23AA7EE834AE7EEA34AA7EE846AA7EE1B
:102D6000A45AE7EE855AC5EE867AF4EEC76AF1EE0C
:102D700010FA03D59FED137A77EE677AF5EEC00A65
:102D8000F1EE10FA03D59FED107A77EE677AB5EE83
:102D9000C00AF1EE10FA48BFF1EE677AB0EE670AAA
:102DA0007047DFED077AE0E739094E3DE3B59E3E17
:102DB00088FA163E45FE7F3F99FB243F69A2163EE6
:102DC000A7DFA834DB0FC93FDB0F4940DFED307AC6
:102DD00030EE277AFDEEC76A16EE903A2033402B8C
:102DE00002D99FED2C0A7047B4EEE70AF1EE10FA13
:102DF0004BDD9FED296ADFED296AB4EEE67A77EEC6
:102E0000467AF1EE10FAB0EE677AF6DC9FED247A9E
:102E1000F4EEC77AF1EE10FA34D5DFED1F6A9FEDBC
:102E2000217AF4EEC77A37EEA60AF1EE10FAF0EE48
:102E3000407AF6D4DFED167AB4EEE70AF1EE10FA36
:102E40001BDCDFED197AB4EEE70AF1EE10FA03D5D8
:102E5000DFED137A37EEC00A60EE006A9FED136A69
:102E60009FED137ADFED137AA6EE867A20EE266ABE
:102E7000E6EE877AA6EE270A7047DFED0F7A37EE87
:102E8000C00AE9E7B0EE670AD4E7F0EE477ABDE79B
:102E9000DB0FC93F00000000DB0FC940E4CB164147
:102EA000DB0F49C0E4CB16C1DB0FC9BF92E741B9C4
:102EB0009730083C15A82ABEDB0F494010B4012208
:102EC0004C0901F01F0150F8243002FA01F123EA05
:102ED000010340F824305DF8044B704710B4012220
:102EE0004C0901F01F0150F8243002FA01F10B43A4
:102EF00040F824305DF8044B704700BF01234A09B5
:102F000001F01F0150F8222003FA01F1114214BF11
:102F100018460020704700BF2DE9F043002489B017
:102F200006460D461F46A04605E025290CD0304632
:102F30000134A847039A531C039311780029F4D154
:102F4000204609B0BDE8F083931CCDE903385378DF
:102F5000302B43D0A3F130024FF00009D2B2092A3E
:102F600046D96C2B2BD0642B7AD019D9732B5DD01A
:102F70006AD9752B40F08B8007F1040C386805ABDB
:102F800000220A216746FDF769F905A9049A4B4614
:102F9000304600912946FDF739F8039A0444CAE700
:102FA000252B41D058D9582B74D0632BC2D13B1D4F
:102FB0003978304601341F46A847039ABBE7039B84
:102FC0005A1C03921B78642B5AD018D8252B2BD06F
:102FD0006DD9582B1AD0632BE9D0ACE7D31C4FF036
:102FE000010903939378A3F13002D2B2092AB8D829
:102FF000184604AA03A945F05DFC0346B1E7732B0C
:1030000014D058D9752B32D0782B94D1A3F1580213
:1030100007F1040C386805ABB2FA82F2102167465A
:103020005209FDF71BF9B0E7252180E7386807F161
:10303000040C049A00230090294630466746FCF7AA
:10304000E5FF039A044476E76E2B7FF473AF039A8F
:103050003B6804371C606EE7002B3FF471AF69E7F3
:103060003B1D386805A91F46FDF7C4F88DE7391DDB
:10307000386805AB00220F460A21FDF7EFF884E718
:103080003B1D386805A91F46FDF7B4F87DE7782B8E
:103090007FF450AFA3F15802391D386805ABB2FA7E
:1030A00082F20F4610215209FDF7D8F86DE7002B88
:1030B0003FF446AF3FE76E2BCAD03CE710B5064C55
:1030C0000B46024605492068FFF726FF2068BDE849
:1030D000104036F009BD00BFD4470020950A010812
:1030E00038B504460D460848FFF764FD29462046DA
:1030F000FFF7E4FF0548FFF75DFD054B1B7813B1B3
:10310000044B01221A7038BD77550608825506080F
:1031100030490020314900200FB407B504A951F807
:10312000040B0191FFF7DCFFFFF754FD03B05DF8DE
:1031300004EB04B0704713460A4601460048EBE72B
:10314000865506080048E7E79F5506080FB407B5FF
:1031500004A951F8040B0191FFF7C2FF03B05DF819
:1031600004EB04B070470FB407B504A951F8040B81
:103170000191FFF7A3FFFFF72DFD03B05DF804EB0E
:1031800004B070470FB407B504A951F8040B0191BE
:10319000FFF794FF03B05DF804EB04B070472DE92E
:1031A000F843037903F0E001202928D002D849B17F
:1031B000BDE8F883402945D06029F9D12448BDE80D
:1031C000F843D0E703F00703022B02D0042B08D00A
:1031D0006BB9B0F80720B0F805101E48BDE8F843F9
:1031E000C1E7D0F805201B48BDE8F843BBE7B0F9BC
:1031F0000720B0F905101748BDE8F843B3E7457953
:103200000024154E1548FFF7D5FC012306EBC50237
:1032100092F80480A04502D8BDE8F843DAE456F8F5
:1032200035704FEA840957F824204AB113B90C4885
:10323000FFF7C0FC57F809100A48FFF7A3FF002367
:103240000134E7E741790848BDE8F8438BE700BF60
:10325000E7550608AB5506086C160608C255060861
:10326000D35506083B7E0608D65506082DE9F041E1
:103270001746027905460E4602F0E003402B2BD19B
:103280000024554FDFF8708115E02B7903F0070318
:10329000022B15D0032B19D0012B384614BF315DFA
:1032A0003157FFF76FFF6B79013BA34202DD4046C8
:1032B000FFF780FC01346B79A342E6DCBDE8F081C6
:1032C00036F814103846FFF75DFFECE736F91410B6
:1032D0003846FFF757FFE6E702F00702042A5CD8FA
:1032E000DFE802F0031D25272A003478202B3AD08E
:1032F00067D8002BE2D1B5F80560B5F80780214604
:103300003548FFF73FFFA6423FDCA0453DDB002FDD
:10331000D4D0424631463148BDE8F04132E796F913
:103320000040202B1FD04CD8002B3CD0C6E734885F
:10333000DCE7B6F90040F4E7D6F80080202B4446DD
:1033400011D03ED8002BB9D141462348FFF71AFFD0
:10335000D5F80510884518D8002FAFD02048BDE813
:10336000F0410FE700246A791E4B03EBC201097993
:10337000A1420ADD53F8323053F82400BDE8F04191
:1033800018E41948BDE8F041FCE6FFF723FC2246AB
:1033900029681648BDE8F041D8E6202BE2D007D8CE
:1033A000002B8BD11C46B5F90560B5F90780A6E75F
:1033B000602BE6D0802B81D131460D48BDE8F0412D
:1033C000E0E6602BF6D16A791441E307D9D50948C4
:1033D000BDE8F041D6E600BFBF5506086D7E060881
:1033E000015606086C160608D65806080756060841
:1033F0003B7E0608FC550608FF5506080CB407B5C9
:1034000010F020000BD079B92320FFF7CCFB05A9E1
:1034100004980191FFF752FEFFF7DCFB012003B097
:103420005DF804EB02B070470020F8E70CB4C30667
:1034300007B500D561B905A904980191FFF73EFED3
:10344000FFF7C8FB012003B05DF804EB02B0704742
:103450000020F8E70EB410B585B0094907AC01901B
:1034600001A854F8042B23460394FFF755FD019B54
:1034700000221A7005B0BDE8104003B0704700BFCD
:103480000100010870B406688E4219D94C1E751EE1
:10349000002314F8011F08224B4002E0013ACBB28E
:1034A00007D059001B06F9D581F0D503013ADBB2EC
:1034B000F7D1A542EDD1721C0260337070BC704729
:1034C000721C00230260337070BC70470A44914242
:1034D00017D0013910B4541E11F8012F08235040A1
:1034E00002E0013BD0B207D042000006F9D582F0DD
:1034F000D500013BC0B2F7D1A142EDD15DF8044B3C
:10350000704770474840082302E0013BD0B208D022
:1035100001064FEA4002F8D582F0D500013BC0B267
:10352000F6D170470A4491421BD0013930B4551E80
:1035300041F2210411F8012F082380EA022002E061
:10354000013B90B209D010F4004F4FEA4002F7D08F
:1035500084EA4000013B80B2F5D18D42EAD130BC13
:103560007047704770B5144C0222144E4FF6FF702E
:103570001349FFF7D7FF22884AB1A518B54218D2E0
:10358000052A16D921462C46FFF7CCFFF3E7214642
:103590000222FFF7C7FF0222A118FFF7C3FF094B62
:1035A000E41A094B1C8041F60F53C31A5842584184
:1035B00070BD0020FCE700BF028000080000010889
:1035C00000800008FA7F00082A670020104A2DE9D1
:1035D0003048D2E9004554EA05020BD103460022E7
:1035E00040F2011110461A809A809A711A8159800E
:1035F000BDE83088074B1A6814EB020B45F1000C4C
:103600005A466346FCF73EFD0120BDE8308800BF06
:10361000D0300020D47100200288A2F5FA6270B484
:1036200002F003018478C37840F2B55601EB410102
:10363000013C124D013B04EB81040179920806FB29
:10364000023235F814300489002513444279807918
:103650004FF47A7603EB430301EBC3030849C3EB52
:1036600003130144204602EB8303C3EB031301EB76
:1036700083032946C6FB030170BC704748E4050874
:1036800080436D382DE9F04707468CB01E469246C0
:10369000002A60D1154614460A88B2F5FA6F37D36E
:1036A0008B78581E0B2833D891F803C00CF1FF30EB
:1036B0001E282DD891F804E0BEF1170F28D891F8F4
:1036C0000590B9F13B0F23D888793B2820D8B1F871
:1036D0000880B8F57A7F1BD24FF001086EBB002C32
:1036E0000E890795B4BF2D212B21002CCDF800C0E9
:1036F000B8BF6442CDE90306CDE9051438462D492B
:10370000CDE901E9FFF7A6FE40460CB0BDE8F08721
:103710000022DFF8ACA04FF0010C09A91046ADF86B
:1037200028208DF82A206346ADF82C209146964635
:103730009046CDF824A0002ED1D0CDF804E0CDF8ED
:1037400000C01D49CDE902903846FFF783FE404690
:103750000CB0BDE8F087194BD417084683FB0A2349
:103760005344C4EB6314C4EB041524B2AAEB8505DF
:103770002DB2002DB8BF6D42FFF74EFF4FF47A72A5
:1037800000238046894648F089FC3C214FF47A7238
:1037900000230AFB010A4046494648F07FFC4FF4EB
:1037A0007A7192B2002309A8C1FB0A23FCF76AFCD4
:1037B00009A971E76456060844560608898888886E
:1037C000000001010378092B01D0202B05D110F84E
:1037D000013F202BFBD0092BF9D02D2B00F0A98025
:1037E0002B2B75D0B7EE000AA3F13002D1B2092914
:1037F00077D8F2EE046ADFED5F7A07EE102A10F850
:10380000013FB8EEC77AA3F13002D1B2A7EEA67A93
:103810000929F0EE477AF0D92E2B66D003F0DF03AA
:10382000452B40F0838010B442782D2A00F096801A
:103830002B2A00F08380A2F130030130092B00F223
:1038400084800024002303EB830302EB430310F87E
:10385000012FA2F13001303B0929F4D9B3F59A7F49
:103860001A46B7EE007A28BF4FF49A72072B09D98F
:103870001346DFED416A083B27EE267A072BFAD87C
:1038800002F00702DAB1F2EE046A012A27EE267A84
:1038900015D0022A27EE267A11D0032A27EE267A9F
:1038A0000DD0042A27EE267A09D0052A27EE267A9B
:1038B00005D027EE267A062A18BF27EE267A002C96
:1038C00045D0C7EE877A5DF8044B20EE270A704793
:1038D0004378B7EE000A0130A3F13002D1B20929D2
:1038E00087D92E2BDFED237A98D143780130A3F1CD
:1038F0003002D1B2092991D8B2EE047AF0EE475ADB
:1039000006EE902A10F8013FB8EEE66AA3F1300205
:10391000D1B2C6EE076A092927EE257A77EEA67A94
:10392000EED903F0DF03452B3FF47DAF20EE270AED
:1039300070474378BFEE000A013055E782780230C5
:10394000A2F13003092B7FF67CAFB7EE007A67EE69
:10395000877A5DF8044B20EE270A704782780230A0
:10396000A2F13003092B01D801246BE7B7EE007AEE
:10397000A7E700BF0000000020BCBE4CF8B506461B
:1039800015460846B6FBF2F434B905FB14640C4B3B
:103990001B5D00F8013BF8BDB4FBF2F75FB905FB16
:1039A0001747074B05FB1464DA5D1B5D00F8012B1C
:1039B00000F8013BF8BD3846FFF7E0FFEFE700BF36
:1039C00094560608B5EEC00ADFED6D7A00236D4A05
:1039D000F1EE10FA2DE9F047C8BF30EE270A88B0A3
:1039E000D8BF30EE670ADFED687A0493054620EE13
:1039F000270ACDE90233FDEEC07A17EE904A84EA39
