:020000040800F2
:10000000F0FF00107DC60408452E0308FD700108AE
:100010001DC704081DC704081DC704080000000010
:100020000000000000000000000000004B2E03084C
:10003000492E030800000000472E030861710108E3
:100040001DC704081DC704081DC704081DC70408F0
:100050001DC704081DC7040879B60008A5B7000825
:1000600069B700082DB70008F1B60008C92B0108D0
:10007000B92B0108A92B0108992B0108852B010830
:10008000712B01085D2B01081DC704081DC704085A
:100090001DC704081DC704081DC70408B5B600081D
:1000A00029510108C5560108595001089557010802
:1000B0000556010845550108795401081DC7040873
:1000C0001DC704081DC704081DC704081DC7040870
:1000D0001DC7040875730108D97201083D72010833
:1000E0003DB600081DC70408556D0308894F010877
:1000F000F9510108B94E0108D9520108492B0108EC
:100100001DC704081DC70408A95301081DC704081A
:100110001DC704081DC70408F17702087976020894
:10012000352B0108212B01080D2B0108F92A0108A4
:10013000E52A01081DC704081DC704081DC70408D7
:100140001DC704081DC704081DC70408253F030870
:10015000D12A0108BD2A0108A92A0108A1710108B4
:100160001DC704081DC704081DC704081DC70408CF
:100170001DC704081DC704081DC704081DC70408BF
:080180001DC704081DC7040897
:0801880024C204000100000084
:1001900002020300181600201416002000000000C0
:1001A0000000000010020100201600201C16002094
:1001B00000000000E00600081F02100034160020B6
:1001C0002416002000000000918B00081A023C0059
:1001D000FC1600207C1B002000000000E9940008B1
:1001E00027000400F8160020B81B002000000000C3
:1001F000E20600083810010050160020BC1B002049
:1002000000000000E6060008F6210C00901C00200B
:10021000641D002000000000E806000802000C0039
:100220003C1C0020701D00200000000000000000A9
:1002300008120F00141D00207C1D0020000000008B
:1002400091890008F7010600081D00208C1D002080
:1002500000000000F40600081D020200041D00203A
:10026000941D002000000000FA0600080A020A009F
:10027000B4250020082800200000000051120208C8
:100280000300010088200020142800200000000046
:100290000000000003123D00C8270020182800209D
:1002A00000000000FC06000825102C01E8250020B5
:1002B000582800200000000000000000101002007C
:1002C0005020002084290020000000003A07000888
:1002D00001200C00642D0020E0350020000000000B
:1002E0003C0700080C109C006C2C0020EC35002012
:1002F00000000000791202080A702800F82B002084
:100300008836002000000000C16D03080EA05C01CB
:100310009C2A0020B0360020000000008946040816
:1003200001010400602A00200C38002000000000B9
:100330000000000000010400582A002010380020AE
:10034000000000004807000802010300542A0020B2
:1003500014380020000000008DAC010822021401B6
:10036000483300201838002000000000F9950008EC
:10037000000205006C3200202C3900200000000033
:10038000000000001B021000583200203439002009
:10039000000000006D8800081E000600DC2F002011
:1003A00044390020000000004C0700082312100010
:1003B000B03200204C390020000000005407000833
:1003C00037102800182D00205C39002000000000A4
:1003D000640700080E020200AC32002084390020BD
:1003E000000000008C070008161006008C29002071
:1003F00088390020000000008E0700082F1022001E
:10040000BC3500209039002000000000940700084F
:1004100005100600802D0020B439002000000000E7
:10042000B6070008122010007C2A0020BC390020EA
:1004300000000000BC07000823100E00542E00200E
:10044000CC39002000000000356E0308F5518C0007
:1004500094290020DC390020000000002DEE020865
:100460000B301A0078440020FC4B002000000000F4
:10047000CC0700081F302400E83B0020184C002067
:1004800000000000E80700080502040010460020F4
:100490003C4C0020000000000C08000803010A008A
:1004A00014440020404C0020000000001008000808
:1004B000130204008C3A00204C4C00200000000085
:1004C0001A0800082C0010003C5500202C55002074
:1004D00000000000ED8803082B0024007055002068
:1004E0004C55002000000000BD880308292078003A
:1004F000305400209455002000000000000000004F
:10050000281010001C5600200C560020000000008F
:100510001D6E03081C0210008C5000202C56002079
:10052000000000004188000820320A0048560020E0
:100530003C56002000000000A16D030814000300D9
:100540009453002054560020000000001E080008AC
:100550000D004400D0830020A88D00200000000082
:10056000D9AD0108090201003C830020EC8D002078
:10057000000000002408000804008000BC82002065
:10058000F08D00200000000000000000F9010400D0
:10059000A8820020708E002000000000018000086A
:1005A00013000400A4820020748E002000000000CC
:1005B00028080008FD01240080820020788E002099
:1005C000000000006931010818202E004C82002034
:1005D0009C8E0020000000008595000806101A007F
:1005E0006C6D0020CC8E002000000000CD4404087B
:1005F000FB010100686D0020E88E00200000000073
:100600007D970008FC010900346C0020EC8E00206E
:10061000000000008D97000816023F00F46B0020D8
:10062000F88E002000000000B1880008340010009F
:10063000246B0020388F002000000000A144040833
:1006400011020800FC6A0020488F00200000000012
:100650002C08000812120400F46A0020508F0020B9
:100660000000000034080008FE0114009C61002016
:10067000548F002000000000818800081900050048
:10068000B0930020C094002000000000380800084B
:100690001A000E003C930020C894002000000000C7
:1006A0003E080008F821060014920020D89400208B
:1006B000000000004C080008150070008C9000201D
:1006C000E094002000000000000000002A0060000C
:1006D0000C940020509500200000000061460408A2
:1006E00000002003000000000000000001000000E6
:1006F00002020000100100000000000000000000E5
:1007000000000000000000000000000000000000E9
:1007100000000000000000000000000000000000D9
:1007200000000000000000000000000000000000C9
:10073000000000000000000001000005E803640064
:10074000040A000114001E009001000000000100D6
:100750000000000000000000000000000000000099
:100760000000000020003200C800D00796001400EE
:1007700032002800B00440060005500014000F00AD
:10078000080064000100000005000A000000C40920
:100790000000190000000000000000000000000040
:1007A0000000000000000000000000000000000049
:1007B0000000000000002000030100000000000114
:1007C000000005565252410000080000AE014A01E7
:1007D0005E012C0164010200000001000A019A017F
:1007E000001E0A00000000000000000000010000E0
:1007F00000050000010203000000000000000000EE
:100800000000000000000000008007000000000061
:10081000040101006C160000000000000119030033
:1008200000000000590000004804403000000000B3
:1008300001010101FFFFFFFF0000280100007E050C
:10084000EA05B4053200E803D00700000401F40112
:02085000140092
:10085200FFFF0000448105080000080205030300B1
:100862004C8105080100080205040300DC98050814
:100872000200FE0101100300548105080300140266
:10088200000300005C81050804001F02010008004B
:100892006481050805001F0201010800FFFFFFFF38
:1008A200000004010000000000000002100000002F
:1008B2000700000000000000000000000102030425
:1008C2000607080901000000A00F0000B80B000095
:1008D2000102FFFF0100000000000000541D002083
:1008E2000800000000000000441D00200800000075
:1008F200D1160308031503080134030800000000A1
:100902002D120308E130030841160308653003087D
:100912000000000000000000ED1103084316030868
:10092200C514030849330308000000000512030838
:100932006730030815160308D32F030800000000D0
:1009420000000000F91103081C940508289405080A
:1009520034940508409405084C94050858940508F9
:1009620054AA0508005C0508285B0508A893050839
:100972008C8505080C940508109405081494050844
:100982001894050864940508689405086C94050891
:1009920064590508709405081900C800F401200381
:1009A200FFFFFFFF0000803F00000000000000008A
:1009B20000000000FFFFFFFFFF0000000100000039
:1009C200E5A40208000000005C1005082070002069
:1009D200702D7200FFFFFFFFFFFFFFFF010101010A
:1009E2002D202D2D202D2D2D2D202D2D2D000000E3
:1009F20000000000000000000000000000000000F5
:100A02000000000000000000B824050800000000FB
:100A1200000000004425050801000000FA00000063
:100A22000100000001000000602D00200000F40120
:100A3200010000005E2D00200000F4010100000012
:100A42005C2D00200000F401010000005A2D00205E
:100A52000000F40101000000582D00200000F40104
:100A620001000000562D00200000F40101000000EA
:100A7200542D00200000F40101000000A5AC020882
:100A820061AC0208EC1305084E2D0020053201006E
:100A92004C2D0020E803D007010000004A2D002061
:100AA200E803D00701000000482D0020E803D0072A
:100AB20001000000462D00201E00B80B01000000BE
:100AC200442D00201E00F40101000000422D0020F0
:100AD2001400640001000000502D00203200E803E1
:100AE20001000000402D00200000C80001000000AD
:100AF2004E2C002000C801004D2C002000500100A7
:100B02004C2C0020005A01004A2C00200200000058
:100B120078140508249D05082C9D0508122E002036
:100B22000100C40900000000102E00200100C409C9
:100B3200000000000E2E00200100C4090000000089
:100B42000C2E00200100C40900000000082E002025
:100B52000100C409000000000A2E00200100C4099F
:100B620000000000062E00200100C4090000000061
:100B7200042E00200100C40900000000752A002094
:100B820000C80100742A002000C80100722A002057
:100B92000100C80001000000702A002032003075F8
:100BA200320000006F2A0020055A05006C2A00203E
:100BB20000FF01006E2A0020010000004C0400200A
:100BC2006A2A0020030000000C1305086B2A00208B
:100BD20000FF01006D2A0020010000004C040020EB
:100BE200692A0020030000000C13050805AC020866
:100BF200A9AB020884140508742D0020EE02CA086D
:100C020001000000722D002000C8010064000000F5
:100C1200712D002000C8010064000000702D00202A
:100C22000200000048150508662A002080C1803EA7
:100C320005000000642A002080C1803E05000000FB
:100C42005E2A002080C1803E050000005C2A002050
:100C520080C1803E05000000572A002000FF0100ED
:100C6200502A00206400F401010000004F2A0020F5
:100C720004000000541505084E2A0020020000005E
:100C82006815050800000000000000007415050842
:100C9200C84500209CFF2C01000000006C3500209C
:100CA200E0150C1700000000763200200200000060
:100CB200AC150508862D00200100FF7F0100000011
:100CC2007F2D002002000000B81505088E2A0020A2
:100CD20003000000C81505088D2A0020030000004B
:100CE200C81505082C2C00200000E80301000000B4
:100CF2002A2C00200000E80301000000282C00201C
:100D02000000E80301000000262C00200000E80398
:100D120001000000242C00200000E8030100000074
:100D2200222C00200000E80301000000212C0020FA
:100D320000140100202C002003000000D815050833
:100D4200382C00200000F40101000000362C0020A5
:100D52000000F40101000000342C00200000F40126
:100D620001000000322C00200000F401010000000C
:100D7200302C00200000803E010000002E2C0020BC
:100D82000000803E01000000612C00201964010077
:100D9200602C002002000000E81505085E2C0020EF
:100DA200E803D0070A0000005C2C00200064010068
:100DB2000A000000512C002000640100502C002089
:100DC20000640100582C0020006401000A000000A9
:100DD200572C0020006401000A000000562C00205D
:100DE200006401000A0000005B2C00200064010086
:100DF2000A0000005A2C0020006401000A000000D2
:100E0200592C0020006401000A000000552C00202B
:100E120001FF01000A000000542C002001FF010024
:100E22000A000000532C002001FF01000A0000000C
:100E3200982A00200000F40101000000962A0020F8
:100E42000000F40101000000942A00200000F401D7
:100E520001000000922A00200000F40101000000BD
:100E6200902A00200000F40101000000492C00201B
:100E720000640100482C002000640100472C00207F
:100E820000640100462C0020FF080100452C0020D0
:100E92000164010079AA02083DAA0208F4150508B6
:100EA200442C002000640100422C00201400E803BE
:100EB20001000000402C0020E80330750A00000009
:100EC2003E2C002000C801003D2C002000C801007B
:100ED2003C2C002000C801003B2C002000640100D3
:100EE2000A000000162D00200000D00701000000BB
:100EF200112D002000C80100102D002000C80100A3
:100F02000F2D002000C80100142D00200000D00782
:100F1200010000000E2D002000C801000D2D002050
:100F220000C801000C2D002000C80100122D002075
:100F32000000D007010000000B2D002000C80100B6
:100F42000A2D002000C80100092D002000C8010060
:100F52000000000001A80208641605088C2A00207F
:100F62003500000000170508782A002000C801009B
:100F7200762A0020E803D0070100000056525241B1
:100F82004345000075A7020841A70208D8170508C3
:100F920001A70208B9A602084818050875C0020888
:100FA20051C10208C8180508682A0020010301007F
:100FB20015AD0208E9AC0208BC1B050859A60208D7
:100FC2000DA602082C1C050835FA020800000000D4
:100FD200C81C050805B2020875AD0208641D0508A3
:100FE20017A8020800000000D41D0508EDA8020899
:100FF20099A80208381E05087DA9020841A902081D
:10100200D41E0508B5AA0208FDAA0208541F050845
:101012004F2C0020010601005DA8020829A8020841
:1010220050200508B9A9020859E00208C0200508A5
:101032002DAB0208E1E00208A02105083A2C0020AD
:1010420001030100D5A70208A9A702087422050816
:1010520041AD020800000000D8220508A5A602083A
:10106200FDED02083C23050800000000000000001E
:10107200A023050881AB020859E1020810240508E3
:101082004A2A002088136F17010000004C2A002012
:1010920088136F17000000009684002000000000F3
:1010A2000000000094840020000000000000000006
:1010B20092840020000000000000000090840020C4
:1010C20000000000000000008E84002000000000EC
:1010D200000000008C8400200000000000000000DE
:1010E200B40C00200000000000000000202A0020B4
:1010F2000200000098250508482A002088136F176F
:10110200010000000846002088136F17000000004D
:101112009DA5020800000000A425050877320020E2
:1011220001000000F82505080A4600200100000021
:101132000426050800460020020000000C260508CF
:1011420000000000000000001826050885A502081E
:1011520000000000B42605080000000000000000A6
:101162000827050800000000000000007827050895
:1011720004460020E0150C170000000004030904D7
:1011820012010002EF020140830456320002010202
:1011920003010000120100020202004083044057D2
:1011A200000201020301000009026400030100C001
:1011B20032090400000103000000092111010001AD
:1011C2002226000705830308000A080B0102020217
:1011D20001000904010001020201000524001001BE
:1011E2000524010002042402020524060102070567
:1011F20082030800FF09040200020A00000007053A
:10120200010240000007058102400000090243007C
:10121200020100C03209040000010202010005249B
:101222000010010524010001042402020524060025
:1012320001070582030800FF09040100020A0000F9
:10124200000705010240000007058102400000007E
:10125200FF000000F4280508000000000000000064
:10126200000000000000000000000000000000007C
:1012720000000000000000000000000000FFFF006E
:1012820000000000AA55050100000100C828050859
:10129200000000000000000000000000000000004C
:1012A200000000000000000000000000000000003C
:1012B20000000000FF1FFF1F05010905A101A10099
:1012C2000501093009310932093309350934094068
:1012D20009381581257F750895088102C0C0000074
:1012E20009022200010100E03209040000010301A9
:1012F20002000921110100012226000705830308CB
:10130200000A0000000000000102030401020304BD
:1013120006070809EF310308F330030823340308F2
:10132200631203087B150308731203088F12030864
:101332003D1203082F120308000000000000000005
:101342002D202D2D202D2D2D2D202D2D2D2D00004C
:10135200000000000000000000000000000000AAE1
:10136200550B010000AA5507010000AA5509020009
:101372000000AA5503009F0001000000C0120000F7
:10138200D04B002000000000F44B002000000000C1
:10139200D6010000B80B00000100000000010101AD
:1013A20000010100B5110308B3110308B1110308CC
:1013B200AB110308A9110308AF110308AD1103080B
:1013C200C5110308B7110308E11D0308F51D030841
:1013D200CD1D0308B91D0308A31D03080100000069
:1013E20000600240106002400000000000000000A7
:1013F200000B0000000000000000000000000000E0
:10140200006002402860024001000000000000006D
:10141200060C0000000000000000000000000000B8
:101422000060024040600240020000000000000034
:10143200100D00000000000000000000000000008D
:1014420000600240586002400300000000000000FB
:10145200160E000000000000000000000000000066
:1014620000600240706002400400000000000000C2
:10147200200F00000000000000000000000000003B
:101482000060024088600240050000000000000089
:101492002610000000000000000000000000000014
:1014A20000600240A0600240060000000000000050
:1014B20030110000000000000000000000000000E9
:1014C20000600240B8600240070000000000000017
:1014D200362F0000000000000000000000000000A5
:1014E200006402401064024000000000000000009E
:1014F20000380000000000000000000000000000B2
:101502000064024028640240010000000000000064
:10151200063900000000000000000000000000008A
:10152200006402404064024002000000000000002B
:10153200103A00000000000000000000000000005F
:1015420000640240586402400300000000000000F2
:10155200163B000000000000000000000000000038
:1015620000640240706402400400000000000000B9
:10157200203C00000000000000000000000000000D
:101582000064024088640240050000000000000080
:1015920026440000000000000000000000000000DF
:1015A20000640240A0640240060000000000000047
:1015B20030450000000000000000000000000000B4
:1015C20000640240B864024007000000000000000E
:1015D200364600000000000000000000000000008D
:1015E200F081050874AD0508000000009DAC0108FB
:1015F200A0860100040000000000000000000000BE
:1016020000000000000000000000000000000000D8
:1016120000000000000000000000000000000000C8
:10162200F08105083CAE0508000000000530010805
:10163200E8030000040000000000000000000000B9
:101642000000000000000000000000000000000098
:101652000000000000000000000000000000000088
:1016620020A30508E859050800000000751A0208C1
:101672007D000000060000000000000000000000E5
:101682000000000000000000000000000000000058
:101692000000000000000000000000000000000048
:1016A20020810508000000000000000031630108ED
:1016B200E80300000300000000000000000000003A
:1016C2000000000000000000000000000000000018
:1016D2000000000000000000000000000000000008
:1016E20044AE05080000000000000000F189040873
:1016F20010270000030000000000000000000000AE
:1017020000000000000000000000000000000000D7
:1017120000000000000000000000000000000000C7
:101722005081050800000000A5840308B5340108B3
:101732005F760000050000000000000000000000CD
:101742000000000000000000000000000000000097
:101752000000000000000000000000000000000087
:10176200048405080000000000000000FDA4010838
:10177200102700000100000000000000000000002F
:101782000000000000000000000000000000000057
:101792000000000000000000000000000000000047
:1017A20050AE0508000000000000000009300108EA
:1017B200E803000005000000000000000000000037
:1017C2000000000000000000000000000000000017
:1017D2000000000000000000000000000000000007
:1017E2005CAE0508000000000000000035B50108ED
:1017F200204E000003000000000000000000000076
:1018020000000000000000000000000000000000D6
:1018120000000000000000000000000000000000C6
:101822006CAE0508000000000000000039B301089A
:10183200204E000003000000000000000000000035
:101842000000000000000000000000000000000096
:101852000000000000000000000000000000000086
:101862007CAE050800000000000000006944010889
:10187200400D030003000000000000000000000013
:101882000000000000000000000000000000000056
:101892000000000000000000000000000000000046
:1018A200B4820508000000000000000031F70108C2
:1018B20010270000010000000000000000000000EE
:1018C2000000000000000000000000000000000016
:1018D2000000000000000000000000000000000006
:1018E2003881050800000000000000001DCE02083B
:1018F20010270000030000000000000000000000AC
:1019020000000000000000000000000000000000D5
:1019120000000000000000000000000000000000C5
:10192200349F05080000000000000000D52E0108C9
:10193200A86100000100000000000000000000009B
:101942000000000000000000000000000000000095
:101952000000000000000000000000000000000085
:101962000C8405080000000000000000C574010896
:10197200A00F0000010000000000000000000000B5
:101982000000000000000000000000000000000055
:101992000000000000000000000000000000000045
:1019A200BC8205080000000000000000A1E7020858
:1019B2001A410000010000000000000000000000C9
:1019C2000000000000000000000000000000000015
:1019D2000000000000000000000000000000000005
:1019E2006C84050800000000000000008119030853
:1019F20010270000010000000000000000000000AD
:101A020000000000000000000000000000000000D4
:101A120000000000000000000000000000000000C4
:101A220080AD05080000000000000000D504030896
:101A32001A41000001000000000000000000000048
:101A42000000000000000000000000000000000094
:101A52000000000000000000000000000000000084
:101A62008CAE05080000000000000000291F0308DA
:101A7200400D030000000000000000000000000014
:101A82000000000000000000000000000000000054
:101A92000000000000000000000000000000000044
:101AA20094AE05080000000000000000912E01081D
:101AB200400D0300000000000000000000000000D4
:101AC2000000000000000000000000000000000014
:101AD2000000000000000000000000000000000004
:101AE2009CAE0508000000000000000069F002083A
:101AF20050C30000030000000000000000000000CE
:101B020000000000000000000000000000000000D3
:101B120000000000000000000000000000000000C3
:101B2200A8AE05080000000000000000ADB20108E8
:101B320040420F0000000000000000000000000012
:101B42000000000000000000000000000000000093
:101B52000000000000000000000000000000000083
:101B6200B4AE05080000000000000000B5B0010896
:101B720050C3000000000000000000000000000050
:101B82000000000000000000000000000000000053
:101B92000000000000000000000000000000000043
:101BA2000000803F7D0000000000803F0000000038
:101BB20000000000000000000000803F0000000064
:101BC2000000000000000000000000000000000013
:101BD2000000000000000000000000000000000003
:101BE2000000803F00000000000000000000000034
:081BF200010000000000803F2B
:1080000000234E214F22017042708370C37070476D
:10801000D3B2022B23D8F0B4124F134D02EB420619
:108020003C46B600002304E00133172B14D054F86B
:108030002C5FA842F8D125798D42F5D1A519ED68BC
:10804000002DF1D02C2101FB03F30C20083310FB91
:108050000233F818F0BC70470020F0BC70470020D5
:10806000704700BFAC3405080000014010B40B4954
:10807000002301E0152B0BD003EB430201338C5C92
:1080800084420A44F6D192F902005DF8044B70472D
:108090004FF0FF305DF8044B704700BFF46B0020D9
:1080A0000B4B984211D0A3F57843984202D04FF081
:1080B000FF3070470122074B03EB02135A8901324C
:1080C00092B25A81588980B270470022F3E700BF0C
:1080D000003001400C510020437A5A1C0344D2B2B4
:1080E00042729972037A93420AD84AB110B5044693
:1080F00004F10A01D0E9003098470023637210BDF3
:10810000704773B50446184623091646069D40334A
:1081100004F00F0439B10139CDE90041064A314676
:10812000A84702B070BD054A06943146AC4602B07D
:10813000BDE87040604700BF8443050894430508CC
:108140002DE9F04385B0B2F1FF3F894690461946CC
:10815000BDF830500D9F23D0060900F00F044036C3
:10816000CDE900423346154A2846B847A8B14246F1
:1081700099F80510D9F80000FFF74AFF68B10388A5
:10818000DAB20392C3F303221B0B0292CDE9004340
:108190000B4A334600212846B84705B0BDE8F083B6
:1081A0006B06FAD40309074A00F00F000C90403325
:1081B0002846BC4605B0BDE8F0436047A643050825
:1081C000B8430508E143050820B10078B0FA80F013
:1081D0004009704701207047037903F01803082B0A
:1081E0000AD002D82BB100207047102B16D0182BC4
:1081F000F9D1B0F80B007047114BB0F80B0093F9B0
:108200000030591C06BF0F4B1B78DBB2C3EBC30217
:1082100003EB820300EB830080B27047084BB0F899
:108220000B0093F901305A1C06BF064B5B78DBB29A
:1082300003EB430203EB820300EB430080B2704781
:10824000880100207C2A0020F0B5067906F0E003C2
:10825000402B09D144794FF0FF350023012006F06F
:108260000706A3420BD1F0BD602B08BF45794FF044
:1082700001040CBF04FA05F54FF0FF35EDE7042EBD
:108280000CD8DFE806F0030D18242E0030B1C85CCE
:10829000D75C784028420CBF012000200133E0E782
:1082A0000028FBD0C856D756A0EB070CDCF1000025
:1082B00040EB0C00F2E70028F0D031F8130032F860
:1082C0001370784028420CBF01200020E6E7002808
:1082D000E4D031F9130032F91370C71B78427841AA
:1082E000DCE70028DAD051F8230052F823707840F8
:1082F00028420CBF01200020D0E7EDE603685A1C9D
:1083000002601970704700BF2DE9F047089C25787E
:10831000002B804689460CBF4FF0200A4FF0300AF0
:10832000661C25B3002A26DD334601E0024698B1DB
:1083300013F8011B501E0029F8D1971E60B13D466D
:10834000013D51464046C8476B1C002BF8DC2578A0
:1083500027EAE770013045B1041B29464046C8476B
:10836000301916F8015B002DF7D1BDE8F087002A1F
:1083700003DC2846F9E70020EEE7571EDFE700BFE1
:108380002DE9F04714461D4606464FF47A72002345
:108390002046294643F0A6FF4D4BDFF848814D4A61
:1083A0004D4F034488FB03101844D91782FB032C5C
:1083B000C1EB601088FB002887FB03279C44474AD9
:1083C000C1EBEC2CC0EB001E82FB0C29A3EB8E0E44
:1083D0001F44434A86F806E0C1EB27474FEAEC7E8C
:1083E00008EB000ACEEBA90E82FB07824FEAE07889
:1083F0000EEB4E0EC8EB6A18ACEBCE0CC8EB0818AF
:10840000DFF8E4E086F804C0A0EB880070718EFB12
:108410000303F817C0EBE21240F2B55000FB1272F2
:10842000C1EBE353B2F5896F4FEA83073CDA40F2C0
:10843000DA239A4242DCB2F5B77FB4BF4FF0000EA8
:108440004FF0010E4FEA4E09DFF8A08009EB0E0352
:1084500008EBC3031FFA8EFCD88A09EB0E0108EB68
:10846000C10116310B2301E031F8020D904218DDF5
:10847000013BF9D1CE44012338F83E00B37007F533
:10848000FA670132121ABC44F270A6F800C0204606
:1084900029464FF47A72002343F024FF3281BDE86D
:1084A000F0870133DBB2E9E74FF0030CE64640F218
:1084B0009650DFF838804FF00609CEE74FF0020CF7
:1084C000DFF82880E64640F229404FF00409C4E76F
:1084D00080BC92C7C5B3A29107452EC2ABAAAA2AF7
:1084E00073B06D1689888888792D03110CDF040814
:1084F0000378202B024600F10100F9D0092BF7D0B8
:108500002D2B00F0A4802B2B03BF5378B7EE000A6D
:108510000246B7EE000AA3F13001C8B209289FED68
:10852000577A10D8F2EE046A07EE901AF8EEE77A5E
:1085300012F8013FE7EE267AA3F13001C8B209280C
:10854000B0EE677AF0D92E2B63D003F0DF03452B12
:1085500002D020EE070A704710B451782D294FD071
:108560002B2979D0A1F13003092B02F101027AD82D
:108570000024002303EB830301EB430312F8011FE4
:10858000A1F130000928A3F13003F3D9B3F59A7FA4
:108590001A4628BF4FF49A72072B6CD9DFED386A60
:1085A0001346F7EE007A083B072B67EEA67AFAD857
:1085B00002F00702DAB1F2EE046A012A67EEA67A47
:1085C00015D0022A67EEA67A11D0032A67EEA67AA2
:1085D0000DD0042A67EEA67A09D0052A67EEA67A9E
:1085E00005D067EEA67A062A18BF67EEA67A002C99
:1085F0003BD087EE277A5DF8044B20EE070A7047E0
:108600009178A1F13003092B02F1020230D8012444
:10861000AFE75378A3F13001C8B2092802F1010293
:1086200093D8F2EE046AF0EE665A07EE901AF8EE6E
:10863000E77A12F8013F87EEA66AA3F13001C8B2CB
:10864000092866EEA56A37EE067AEED97DE75378FB
:10865000BFEE000A02465EE79178A1F13003092BD4
:1086600002F1020284D9F7EE007A27EE277AC2E7F8
:10867000F7EE007ABDE7F7EE007A9BE70000000016
:1086800020BCBE4C0028F0B403DA2D230B7040420E
:108690000131092804464FF0010307DD03EB830392
:1086A0005B00B0FBF3F2092AF8D883B10F48A0FBB6
:1086B0000326B4FBF3F2092A02F1570C02F130074A
:1086C00009DD03FB1244F30801F801CBEFD10023CD
:1086D0000B70F0BC704703FB1244F30801F8017BF8
:1086E000E5D100230B70F0BC704700BFCDCCCCCCE3
:1086F000884270B44FF0010442D301FB04F4B0FB94
:10870000F4F58D42F9D2ECB142BB092D04FB150002
:1087100005F1570605F130020EDDB4FBF1F403F864
:10872000016B7CB1B0FBF4F5092D04FB150005F1DC
:10873000570605F13002F0DCB4FBF1F403F8012B2D
:10874000002CEFD100221A7070BC704703F8016B47
:10875000B4FBF1F4002CF5D0B0FBF4F5092D04FBCB
:10876000150005F1370605F13002EFDCB4FBF1F43A
:1087700003F8012B002CEFD100221A7070BC704757
:108780000546002AEAD1C0E790ED057A90ED004A4F
:10879000D0ED066AD0ED014AD0ED047A90ED035A8F
:1087A000D0ED025AA4EE007AB0EE406AB0EE470A6D
:1087B000B0EE667AA4EE867A67EEC07AA5EE407ACD
:1087C000E5EE867A80ED057AC0ED067A704700BF47
:1087D000D0ED057A90ED013AD0ED003AD0ED064AA1
:1087E00090ED024A90ED077A90ED035A90ED086AF9
:1087F000D0ED045AC0ED067AF0EE406A27EE830A07
:10880000C0ED056AA3EEA60A80ED087AA4EE240A5C
:10881000A5EE470AA5EEC60A80ED070A704700BF1D
:10882000D0ED007A90ED017A30EE670AE7EE007A3B
:10883000B0EE670AC0ED007A704700BF704700BF16
:1088400030B45A2300224A2504240121C370022394
:108850008571C47101720270C2728273C2734370F7
:1088600083704372837230BC704700BF00230621BF
:108870004FF47A720170C0E901230373704700BF9F
:1088800030B43023152221254FF60174FF214370A7
:10889000427101230022C570048281740372037047
:1088A0000371837042818281C28130BC704700BFF6
:1088B0002DE9F04F3149324B83B001F5C07B019077
:1088C00059274FF000092F481022012603E02030DD
:1088D00098420BD002799742F9D102680C68A24203
:1088E00009D02030984206F10106F3D120315945D4
:1088F0003AD00F79E7E744794D79A542F1D1944612
:10890000019A214809EB490502EB050A57558AF8F7
:10891000016000F572751D4E624603E0A8421AD050
:1089200050F82C6FB242F9D10679A642F6D1CF6841
:1089300006464FF0000C96468046F268BA4216D0C2
:108940000CF1010CBCF1030F06F10C06F5D1404609
:10895000A8427246E4D14FF0FF3C203159458AF8D5
:1089600002C009F10109C4D103B0BDE8F08F086964
:1089700032698242E4D14FFA8CFCEEE704420508EA
:10898000AC340508EC2A0508AC34050800000140A9
:1089900030B41522162317252D242E210270437082
:1089A0002F22FF23857044718171C27143738373D9
:1089B000C37003710372437230BC7047084B09499E
:1089C0008B4203D309E014338B4206D21A88C2F3D8
:1089D0000B029042F7D118467047002318467047A3
:1089E00090010008E00600082DE9F04F064689B026
:1089F00040F21620FFF7E2FF364A1478D0E90173FF
:108A00000CB13C461F460DF10809152200214846CD
:108A100045F029FA002517F80580B8F1000F26D097
:108A20007B1993F801A0002C51D022460023117825
:108A3000414545D1517808AA1344012203F8182C66
:108A4000A1EB0A03D3F1000B4BEB030B3CB131B1AB
:108A5000214B00935A4633464046FFF752FB1F4BCB
:108A600000935A46334651464046FFF74AFB0335CA
:108A70003F2DD0D10CB3DFF860A0DFF860B0002547
:108A800019F80570B7B905EB450814F8080088B166
:108A900004EB08033A465978CDF800A03346FFF7B7
:108AA00030FB14F80800CDF800B033463A4639469A
:108AB000FFF727FB0135152DE2D109B0BDE8F08F96
:108AC0000133152B02F10302B1D10021B8E7214691
:108AD000B6E700BF301500206DC2000889C100084C
:108AE00070B50546B0F80900FFF768FF064B1E7821
:108AF00004462846FFF770FB16B1A368184470BD02
:108B000063681844FBE700BF3015002038B5054600
:108B10000C46FFF7E5FF2A7902F0070302F0E002B6
:108B2000602A28D1022B0ED0042B18D03BB96A79C9
:108B300001239340DBB2027814B11343037038BDB4
:108B400022EA0303FAE76A79012393409BB2028881
:108B500014B113430380F2E722EA0303FAE76A79C8
:108B6000012303FA02F2036814B113430360E6E73A
:108B700023EA0203FAE7042BE1D8DFE803F003035A
:108B8000050507000470DAE70480D8E70460D6E73B
:108B9000034600F11001FF221A705A7002338B4213
:108BA000FAD1027042708270C27002714271827298
:108BB000C272704708B5838940F2E93300E0A3B17F
:108BC0000289013B12F0020F9BB2F8D089B2818179
:108BD00040F2E93300E043B10289013B12F0010F9A
:108BE0009BB2F8D08089C0B208BDFFF759FAC0B275
:108BF00008BD00BF012380F8503070474FF4006378
:108C0000038370474FF4006303837047F8B584898A
:108C10004FF6FF764FF47A7413F1FF3326D319B36E
:108C20000F78013101E0B44218D00589013CAD074D
:108C3000A4B2F8D5BCB284814FF47A7402E0BCB21D
:108C4000B4420BD00589ED0704F1FF37F7D58589CC
:108C5000ADB2002AE0D015700132DDE7FFF720FA4F
:108C6000003018BF0120F8BDFF27DEE70120F8BD66
:108C7000F0B4037C456902681F2B37D9203B2021C3
:108C8000546899400C4223D010249C40D160D46099
:108C90005168D940CE074ED4EFF31183502282F3AE
:108CA0001288EA6B1168C90709D45468002C52D1A4
:108CB000D5E909618E4243D1012285F86020DBB2FB
:108CC00083F31188037C02681F2B194614D9203BBB
:108CD000082150689940084200D0D16004215068B2
:108CE00001FA03F3184223D1F0BC70472024166820
:108CF0009C4026420FD11946082310688B40184229
:108D000000D093600423106803FA01F10842EBD00D
:108D10009160F0BC70471021994094609160116897
:108D2000D940CC07B8D5012101FA03F39360B3E72A
:108D3000D360F0BC7047012101FA03F3D360ABE7C5
:108D4000AF690F44D7600ED82E69711A5160AC62BA
:108D5000002185F86010116841F00101DBB211605B
:108D600083F31188AEE7711A5160AE62F0E700BF7D
:108D7000F0B4B34BB3491A780B789A4240F00781AC
:108D8000B14B1A78002A68D0B04B1978B04B002943
:108D900065D11868B3F8305141628489012A44EAE8
:108DA00005048481A3F8301157D0D3F83401B3F807
:108DB000645241628489022A44EA05048481A3F84A
:108DC00064124AD0D3F86802B3F898534162848998
:108DD000032A44EA05048481A3F898133DD0D3F80C
:108DE0009C03B3F8CC5441628489042A44EA050404
:108DF0008481A3F8CC1430D0D3F8D004B3F8005653
:108E000041628489052A44EA05048481A3F8001696
:108E100023D0D3F80406B3F8345741628489062A74
:108E200044EA05048481A3F8341716D0D3F8380730
:108E3000B3F8685841628489072A44EA05048481AA
:108E4000A3F8681809D0D3F86C28B3F89C4951628C
:108E5000908920439081A3F89C19F0BC70475C680E
:108E6000198961602568186845F0010540F20D31E7
:108E70002560A0F848108489012A44F48074848114
:108E8000EBD0D3F83841B3F83C51D3F834016560E6
:108E9000256845F001052560A0F848108489022A5C
:108EA00044F480748481D8D0D3F86C42B3F8705203
:108EB000D3F868026560256845F001052560A0F8D3
:108EC00048108489032A44F480748481C5D0D3F87F
:108ED000A043B3F8A453D3F89C036560256845F01C
:108EE00001052560A0F848108489042A44F48074A0
:108EF0008481B2D0D3F8D444B3F8D854D3F8D00492
:108F00006560256845F001052560A0F84810848952
:108F1000052A44F4807484819FD0D3F80846B3F8BE
:108F20000C56D3F804066560256845F001052560F8
:108F3000A0F848108489062A44F4807484818CD077
:108F4000D3F83C47B3F84057D3F838076560256835
:108F500045F001052560A0F848108489072A44F4EB
:108F6000807484813FF479AFD3F87028B3F8740823
:108F7000D3F86C385060106840F001001060A3F81E
:108F800048109A8942F480729A81F0BC70475C0064
:108F9000E618304D15F83660032E3FF6F1AEDFE8E7
:108FA00006F05D261C02E01805EBC0004468661E52
:108FB000012C46603FF651AF013303F00303D8B2F2
:108FC000824208703FF4DCAE03EB4303DB00EA1897
:108FD00002200021E85451603FE7E11805EBC10190
:108FE0004868461E01284E603FF637AF0DE0E11895
:108FF000C90068184668771E012E47603FF62DAFFE
:1090000002274FF0FF366F544660E618F600AF199E
:109010001148397B00680139C9B23973002940D041
:109020004FF47A722344B2FBF0F200FB02F0B0F589
:109030007A7F05EBC30518BF01326A60A0E600BF66
:10904000CC1F0020CD1F00202C1800102818001065
:10905000A8780020D01F0020DC14002070B11D492A
:10906000012600220F890132002F18BF00269042EE
:1090700001F5B271F6D1002E3FF482AE164A1268A5
:1090800042F21076E018B6FBF2F102FB1162012603
:1090900005F8306002B13144234405EBC305696033
:1090A0006EE6BF68B7FBF0F100FB11700327AF5508
:1090B00000B101311C44013305EBC40503F0030387
:1090C000934269603FF45CAE00293FF459AE013928
:1090D000696055E6886D0020DC140020F0B58769D2
:1090E00083B0064617B13B68BA885A837069DFF8C7
:1090F000A8E08389C3244FF47A734FF0060C6D46C1
:109100004FF6FF710EF1010E03E0013B9BB28B4263
:1091100020D002899207F8D5A3B283814FF47A73E5
:1091200002E0A3B28B4215D00289D20703F1FF34CB
:10913000F7D5828992B20DB12A700135BCF1000FCA
:109140000BD00CF1FF3CFF24BEF1000FE1D09EF8E4
:109150000040D7E7FEF7A4FFB76917B13B68BA88AC
:109160001A839DF805009DF801509DF802109DF8A6
:1091700003409DF804209DF8063041EA052143EAAA
:10918000002342EA04220120A6F85010A6F852203B
:10919000A6F8543003B0F0BD6CDF0408037C022B4A
:1091A00001D000207047F0B5836983B013B11A680D
:1091B0009B8853830146406940F2E933828901E08C
:1091C000002B60D00289013B12F0020F9BB2F7D056
:1091D000C323838140F2E93301E0002B53D002899D
:1091E000013B12F0010F9BB2F7D083898389038979
:1091F0009C074FF005076E464FF47A724FF0FF0C54
:109200004FF6FF7506D4531E9BB2D2B11A4603899E
:109210009C07F8D5A0F80CC04FF47A7302E0A3B213
:10922000AB420ED00289D20703F1FF34F7D5828911
:1092300092B20EB1327001367A1E27B117461A4625
:10924000E5E7FEF72DFF8B6913B11A689B8813833E
:109250009DF800609DF801009DF802509DF80320E4
:109260009DF804409DF8053040EA062042EA0522B8
:1092700043EA0423A1F850000120A1F85220A1F8EC
:10928000543003B0F0BDFEF70BFF4869AEE700BFF6
:10929000037B022B01D000207047F0B5436983B0F7
:1092A00013B11A689B8853830146006940F2E93381
:1092B000828901E0002B5DD00289013B12F0020F90
:1092C0009BB2F7D0BB23838140F2E93301E0002B4E
:1092D00050D00289013B12F0010F9BB2F7D0838975
:1092E000838903899C074FF005076E464FF47A7215
:1092F0004FF0FF0C4FF6FF7506D4531E9BB2D2B150
:109300001A4603899C07F8D5A0F80CC04FF47A736D
:1093100002E0A3B2AB420ED00289D20703F1FF34C0
:10932000F7D5828992B20EB1327001367A1E27B11A
:1093300017461A46E5E7FEF7B3FE4B6913B11A6804
:109340009B8813839DF800609DF801009DF80250F2
:109350009DF803209DF804409DF8053040EA062062
:1093600042EA052243EA0423488301208A83CB830F
:1093700003B0F0BDFEF794FE0869B1E738B5074CBD
:10938000074DAC4203D3074B00221A7038BD6288E8
:10939000D4E9010144F043FD1434F2E790010008E0
:1093A000E00600083015002038B5074C074DAC42E8
:1093B00003D3074B01221A7038BD6288D4E901102B
:1093C00044F02DFD1434F2E790010008E006000897
:1093D0003015002010B5044640683B4A038823F04E
:1093E00040031B041B0C0380038823F038031B0479
:1093F00090424FEA134305D002F58062904201D0BB
:1094000043F0080303800388A26843F0400303800D
:1094100012B1136892885A83838940F2E93301E0DC
:10942000002B43D00289013B12F0020F9BB2F7D010
:10943000F523838140F2E93301E0002B36D0028925
:10944000013B12F0010F9BB2F7D08389838940F270
:10945000E93300E00BB30289013B12F0020F9BB22B
:10946000F8D0FF23838140F2E93300E0ABB10289F9
:10947000013B12F0010F9BB2F8D08189C9B2A368F9
:1094800013B11A689B881383712919D008D9AC29A4
:1094900014D0AF290ED1092010BDFEF701FEEEE772
:1094A00012290FD0702907D1052010BDFEF7F8FD55
:1094B0006068CBE7732903D0002010BD072010BDE2
:1094C000062010BD082010BD0038004008B520213E
:1094D00044F0E0FC0346184623B10278202A03F149
:1094E0000103F8D008BD00BF38B51D4B1B780446FA
:1094F00000F1250593B104221A49203044F0F1FC13
:1095000028461422184944F0ECFC012384F83A3030
:10951000164B1B7873B984F83B3038BD28461422AB
:10952000134944F0DEFC012384F83A300F4B1B78DA
:10953000002BF0D00F4B186859689A68DD68E56019
:1095400020606160A260DD69186959699A69A26149
:109550000123E5612061616184F83B3038BD00BFC3
:109560009D1C0020601C0020481C00209E1C002028
:10957000EC570508681C0020014B186825F0BEBC9C
:10958000201A002038B52E22002144F06CFC03463E
:10959000642440F2DC5040F21A4140F26C7240F216
:1095A00002251C745882132419209982DA8240F211
:1095B000753140F643021D839C760E250A241877E8
:1095C000D9831E2002211A84012283F82C001972EB
:1095D00083F82A1083F8225083F82B409A7383F87B
:1095E000252083F8292019460248BDE8384034F088
:1095F000E7BC00BFF457050838B5002405460480D1
:1096000021462846013425F0EFFF082CF8D100212F
:1096100085F8E210A5F8E410A5F8E610A5F8E81022
:10962000A5F8EA10A5F8EC10A5F8EE10A5F8F010D2
:10963000A5F8F2102846BDE8384025F097BF2DE97F
:10964000F341134D134F002305F8013F044600EB8F
:109650008106B44203D1104802B0BDE8F08139461A
:10966000284644F008FC2146684644F020FC4FF0B0
:1096700000082021684644F00DFC28B969462846B8
:1096800044F0F9FB0434E4E780F80080F1E700BF20
:1096900030150020C446050831150020B5EEC00A7B
:1096A000DFED317AF1EE10FACCBF30EE270A30EE62
:1096B000670ADFED2E7A20EE270A30B5FDEEC07A7C
:1096C00087B017EE904A054684EAE470002303A9A8
:1096D000A0EBE470CDE90033029339F0A3FC002C39
:1096E000ACBF20232D2303A88DF8003042F004F9ED
:1096F000012803A924D002282DD0032805BF302338
:10970000684668468DF8013044F0B5FB684642F083
:10971000F3F80338C4B222466946284644F0E1FB18
:1097200000232B55284642F0E7F82E22431C2A54EA
:109730000DEB0401E81844F0BAFB284607B030BD31
:10974000302368468DF801308DF802308DF80330F3
:1097500044F091FBDAE7302368468DF801308DF84C
:10976000023044F088FBD1E76F12033A00007A44DC
:10977000014B18680DF0A2BE281B002010B5002177
:10978000044601200CF0EAF9207010BD38B5002421
:109790000472451EE1B202200CF0E0F90134082CFD
:1097A00005F8010FF6D138BD08B501202AF072F98D
:1097B000174A936803F00C03042B1ED0082B18D112
:1097C00051685368490203F03F0319D452681148A5
:1097D000B0FBF3F0C2F3881300FB03F00C4B0E4A0E
:1097E0005B68C3F3014301335B00B0FBF3F010602F
:1097F00008BD094B074A1A6008BD074B186008BD31
:10980000B0FBF3F05368C3F3881300FB03F0E5E704
:10981000003802400024F400585600202DE9F84F8B
:10982000037C02681F2B86BF203B516811682022F1
:1098300002FA03F30B4214BF012300230BB9BDE866
:10984000F88F4569604F04460DF0DAFA4FF4B273B1
:1098500003FB057306461A7C002A35D15B495A681A
:109860000978D2F80090D1B9D3F8D81058890A688D
:1098700022F001020A60B9F80C3023EA0003A9F8CB
:109880000C30534B1B78002B32D1237C21681F2BCB
:1098900013D8202202FA03F38B60BDE8F88F5269D7
:1098A000136823F001031360B9F80C3023F48073BC
:1098B0001B041B0CA9F80C30E3E7203B202202FA22
:1098C00003F3CB60BDE8F88FD3F8D86041485F89D7
:1098D00001225A7431685A680368156821F0010141
:1098E0003160AA89013322EA0702AA810360CCE72A
:1098F0004FF4B27A0AFB05FA07EB0A05D5F8D880CF
:1099000040462AF05FF801232B74D5F8DCB00DF047
:1099100077FA0AF18C013944CBF82C0148462AF039
:1099200011F9D5E92B70D5F89830D5E92D123B43C4
:1099300003430B431343D5F8BC20D5F8CC70D8F8BB
:10994000000025491343D5F8C0201343D5F8D02093
:109950003B43014013430B430022C5F8A420C8F841
:109960000030D8F81420D5F8C430D5F8A81022F06B
:10997000070CD5F8C820D5E92770134343EA0C0338
:10998000C8F81430C8F80410C8F80870C8F80C00FB
:10999000D8F80020D5F8D83095F8D400696842F09E
:1099A0001002C8F8002058601A68096842F00102E5
:1099B0001A608B896A8913438B810DF021FA074B5A
:1099C000801B186061E700BF886D00202818001018
:1099D00024180010302000203F801CF01C000010D4
:1099E000064B53F820302BB11A689B8851690B4203
:1099F00001D1138370475383704700BF4861002033
:109A0000036803F13F4202F57E022DE9F04F920A0E
:109A1000464DAA5C02F01F0552090124032A04FAEC
:109A200005F47ED0042A77D0022A30D001F0030654
:109A3000721E012AC1F3810EC1F300188588C1F39B
:109A400041114FF000024FF0010C25D94FF0030EE9
:109A50000CFA02F0A84315D150001F680EFA00F46A
:109A6000E44327401F60D3F8008006FA00F747EA76
:109A700008071F60DF683C40DC60DC6801FA00F02A
:109A80002043D8600132102AE2D1BDE8F08F284A85
:109A9000556C2C435464C9E74FF003090CFA02F7E4
:109AA00037EA050033D15000D3F800A009FA00F4DA
:109AB000E4430AEA040AC3F800A0D3F800B006FAA7
:109AC00000FA4AEA0B0AC3F800A0D3F808A004EA97
:109AD0000A0AC3F808A0D3F808B00EFA00FA4AEA56
:109AE0000B0AC3F808A0D3F804A02AEA07075F60AE
:109AF000D3F804A008FA02F747EA0A075F60DF68B4
:109B00003C40DC60DC6801FA00F02043D8600132A0
:109B1000102AC3D1BDE8F08F054A156B2C4314639E
:109B200084E7034A156C2C4314647FE7B82A0508C0
:109B30000038024010B50409013C042C17D80E4B24
:109B400033F8142000F00F0042FA00F313F0010381
:109B50000FD0012303FA00F00138104042F012FC4C
:109B6000064A074B125D104403EBC00010BD0020F5
:109B700010BD184610BD00BFD82A0508E42A050804
:109B8000C45E00202DE9F04F87B0009090F861008E
:109B9000002841F03080009B93F85830072B01F0EB
:109BA0001F801823CDE90233009B1B7C022B00F0A1
:109BB000CD876423B949BA4EDFF8F0E2B94CDFF83B
:109BC000F082B94F01934FF01009DEF80430C3F36F
:109BD0000803002B40F0A884EFF31183002B40F022
:109BE000A3840D68A2680B689D42FAD13B689A4233
:109BF000F7D8D6F800C04FF47A7000FB0CF39B1A2C
:109C0000B3FBFCF300FB05354FF47A7C4FF0010AFF
:109C1000DEF80430C3F30803002B40F06684EFF352
:109C20001183002B40F061840B68A0680A6893429E
:109C3000FAD13A689042F7D832680CFB02FBABEBE2
:109C40000000B0FBF2F00CFB03035B1BB3F57A7F63
:109C5000DED3019B013B0193B7D1009B1B7C022B00
:109C600000F02A876423DFF844E28E4CDFF840825C
:109C70008D4F01934FF01009DEF80430C3F3080351
:109C8000002B40F09584EFF31183002B40F090847B
:109C90000D68A2680B689D42FAD13B689A42F7D8DA
:109CA000D6F800C04FF47A7000FB0CF39B1AB3FB9C
:109CB000FCF300FB05354FF47A7C4FF0010ADEF827
:109CC0000430C3F30803002B40F0F183EFF311835A
:109CD000002B40F0EC830B68A0680A689342FAD12D
:109CE0003A689042F7D832680CFB02FBABEB0000FD
:109CF000B0FBF2F00CFB03035B1BB3F57A7FDED302
:109D0000019B013B0193B7D1009B1B7C022B00F010
:109D100089866423DFF894E1624CDFF89481624F16
:109D200001934FF01009DEF80430C3F30803002B51
:109D300040F01C84EFF31183002B40F017840D6872
:109D4000A2680B689D42FAD13B689A42F7D8D6F8D0
:109D500000C04FF47A7000FB0CF39B1AB3FBFCF3CA
:109D600000FB05354FF47A7C4FF0010ADEF8043031
:109D7000C3F30803002B40F07C83EFF31183002B27
:109D800040F077830B68A0680A689342FAD13A687A
:109D90009042F7D832680CFB02FBABEB0000B0FB43
:109DA000F2F00CFB03035B1BB3F57A7FDED3019B60
:109DB000013B0193B7D1009B1B7C022B00F0E8858F
:109DC0000F23DFF8E8E0374CDFF8E480364F0193EB
:109DD0004FF01009DEF80430C3F30803002B40F005
:109DE000D084EFF31183002B40F0CB840D68A26880
:109DF0000B689D42FAD13B689A42F7D8D6F800C06A
:109E00004FF47A7000FB0CF39B1AB3FBFCF300FBDE
:109E100005354FF47A7C4FF0010ADEF80430C3F3C5
:109E20000803002B40F00783EFF31183002B40F071
:109E300002830B68A0680A689342FAD13A6890429C
:109E4000F7D832680CFB02FBABEB0000B0FBF2F082
:109E50000CFB03035B1BB3F57A7FDED3019B013B55
:109E60000193B7D1009B1B7C022B00F046850F238A
:109E7000DFF838E00B4CDFF838800B4F01934FF0E0
:109E80001009DEF80430C3F30803002B40F05784B8
:109E9000EFF31183002B40F052840BE07C61002033
:109EA0008061002010E000E08461002000ED00E00F
:109EB000786100200D68A2680B689D42FAD13B686A
:109EC0009A42F7D8D6F800C04FF47A7000FB0CF332
:109ED0009B1AB3FBFCF300FB05354FF47A7C4FF083
:109EE000010ADEF80430C3F30803002B40F085823A
:109EF000EFF31183002B40F080820B68A0680A68A2
:109F00009342FAD13A689042F7D832680CFB02FBD0
:109F1000ABEB0000B0FBF2F00CFB03035B1BB3F5F3
:109F20007A7FDED3019B013B0193AAD1009B1B7C6E
:109F3000022B00F097840F23DFF814E3C24CDFF804
:109F40001483C24F01934FF01009DEF80430C3F3BD
:109F50000803002B40F0D283EFF31183002B40F075
:109F6000CD830D68A2680B689D42FAD13B689A4286
:109F7000F7D8D6F800C04FF47A7000FB0CF39B1AA8
:109F8000B3FBFCF300FB05354FF47A7C4FF0010A7C
:109F9000DEF80430C3F30803002B40F01082EFF327
:109FA0001183002B40F00B820B68A0680A68934273
:109FB000FAD13A689042F7D832680CFB02FBABEB5F
:109FC0000000B0FBF2F00CFB03035B1BB3F57A7FE0
:109FD000DED3019B013B0193B7D1009A92F85B302D
:109FE000032B00F2F08392F85E40012C0AD0022C81
:109FF00040F0E98392F8633003F0FB03022B0CBFBF
:10A0000000240724009B1B7C022B00F0E2830F231B
:10A01000DFF83CE28C4CDFF83C828C4F01934FF030
:10A020001009DEF80430C3F30803002B40F024834A
:10A03000EFF31183002B40F01F830D68A2680B68BB
:10A040009D42FAD13B689A42F7D8D6F800C04FF447
:10A050007A7000FB0CF39B1AB3FBFCF300FB053595
:10A060004FF47A7C4FF0010ADEF80430C3F30803A2
:10A07000002B40F08681EFF31183002B40F08181AB
:10A080000B68A0680A689342FAD13A689042F7D800
:10A0900032680CFB02FBABEB0000B0FBF2F00CFBF8
:10A0A00003035B1BB3F57A7FDED3019B013B019376
:10A0B000B7D1009B1B7C022B00F0CC866423DFF819
:10A0C00090E1614CDFF88C81604F01934FF01009F3
:10A0D000DEF80430C3F30803002B40F0EE82EFF308
:10A0E0001183002B40F0E9820D68A2680B689D4245
:10A0F000FAD13B689A42F7D8D6F800C04FF47A708C
:10A1000000FB0CF39B1AB3FBFCF300FB05354FF48B
:10A110007A7C4FF0010ADEF80430C3F30803002B09
:10A1200040F01181EFF31183002B40F00C810B689C
:10A13000A0680A689342FAD13A689042F7D8326828
:10A140000CFB02FBABEB0000B0FBF2F00CFB0303DB
:10A150005B1BB3F57A7FDED3019B013B0193B7D143
:10A16000009B1B7C022B00F02B860F23DFF8E0E026
:10A17000354CDFF8E080354F01934FF01009DEF8E1
:10A180000430C3F30803002B40F05582EFF3118332
:10A19000002B40F050820D68A2680B689D42FAD1F6
:10A1A0003B689A42F7D8D6F800C04FF47A7000FBAB
:10A1B0000CF39B1AB3FBFCF300FB05354FF47A7CE0
:10A1C0004FF0010ADEF80430C3F30803002B40F01F
:10A1D0009C80EFF31183002B40F097800B68A06800
:10A1E0000A689342FAD13A689042F7D832680CFB79
:10A1F00002FBABEB0000B0FBF2F00CFB03035B1BBC
:10A20000B3F57A7FDED3019B013B0193B7D1009B6D
:10A210001B7C022B00F08A850F23DFF834E00A4C08
:10A22000DFF83080094F00934FF01009DEF804305A
:10A23000C3F30803002B40F0DD81EFF31183002B03
:10A2400040F0D88108E000BF10E000E08461002009
:10A2500000ED00E0786100200D68A2680B689D4267
:10A26000FAD13B689A42F7D8D6F800C04FF47A701A
:10A2700000FB0CF39B1AB3FBFCF300FB05354FF41A
:10A280007A7C4FF0010ADEF80430C3F30803F3B917
:10A29000EFF31183DBB90B68A0680A689342FAD127
:10A2A0003A689042F7D832680CFB02FBABEB000037
:10A2B000B0FBF2F00CFB03035B1BB3F57A7FE2D338
:10A2C000009B013B0093B1D107B0BDE8F08FEFF3E5
:10A2D000118089F31288D4F808B02368DB0344BFE7
:10A2E000C8F800A0D4F808B00B68D8F80020C0B2B5
:10A2F00080F31188306813440CFB00F2A2EB0B02D0
:10A30000B2FBF0F20CFB0323D6E7EFF3118089F3E5
:10A310001288D4F808B02368DB0344BFC8F800A053
:10A32000D4F808B00B68D8F80020C0B280F31188C8
:10A33000306813440CFB00F2A2EB0B02B2FBF0F20C
:10A340000CFB03235BE7EFF3118089F31288D4F849
:10A3500008B02368DB0344BFC8F800A0D4F808B0F5
:10A360000B68D8F80020C0B280F31188306813441D
:10A370000CFB00F2A2EB0B02B2FBF0F20CFB03238E
:10A38000E6E6EFF3118089F31288D4F808B0236869
:10A39000DB0344BFC8F800A0D4F808B00B68D8F8B5
:10A3A0000020C0B280F31188306813440CFB00F227
:10A3B000A2EB0B02B2FBF0F20CFB032371E6EFF30E
:10A3C000118089F31288D4F808B02368DB0344BFF6
:10A3D000C8F800A0D4F808B00B68D8F80020C0B2C4
:10A3E00080F31188306813440CFB00F2A2EB0B02DF
:10A3F000B2FBF0F20CFB0323E7E5EFF3118089F3E6
:10A400001288D4F808B02368DB0344BFC8F800A062
:10A41000D4F808B00B68D8F80020C0B280F31188D7
:10A42000306813440CFB00F2A2EB0B02B2FBF0F21B
:10A430000CFB032372E5EFF3118089F31288D4F843
:10A4400008B02368DB0344BFC8F800A0D4F808B004
:10A450000B68D8F80020C0B280F31188306813442C
:10A460000CFB00F2A2EB0B02B2FBF0F20CFB03239D
:10A47000F0E4EFF3118089F31288D4F808B0236870
:10A48000DB0344BFC8F800A0D4F808B00B68D8F8C4
:10A490000020C0B280F31188306813440CFB00F236
:10A4A000A2EB0B02B2FBF0F20CFB03237BE4EFF315
:10A4B000118089F31288D4F808B02368DB0344BF05
:10A4C000C8F800A0D4F808B00B68D8F80020C0B2D3
:10A4D00080F31188306813440CFB00F2A2EB0B02EE
:10A4E000B2FBF0F20CFB032306E4EFF3118089F3D7
:10A4F0001288D4F808B02368DB0344BFC8F800A072
:10A50000D4F808B00B68D8F80020C0B280F31188E6
:10A51000306813440CFB00F2A2EB0B02B2FBF0F22A
:10A520000CFB0323FFF791BBEFF3118389F3128830
:10A53000D4F808C02268D20304D50122C8F800204C
:10A54000D4F808C00D68D8F800A0DBB283F31188F6
:10A5500030684FF47A72554402FB00F3A3EB0C030E
:10A56000B3FBF0F302FB0535FFF74EBBEFF31183AE
:10A5700089F31288D4F808C02268D20304D50122D6
:10A58000C8F80020D4F808C00D68D8F800A0DBB2E5
:10A5900083F3118830684FF47A72554402FB00F35C
:10A5A000A3EB0C03B3FBF0F302FB0535FFF7DABBBB
:10A5B000EFF3118389F31288D4F808C02268D2031C
:10A5C00004D50122C8F80020D4F808C00D68D8F8D6
:10A5D00000A0DBB283F3118830684FF47A725544DF
:10A5E00002FB00F3A3EB0C03B3FBF0F302FB053516
:10A5F000FFF761BBEFF3118389F31288D4F808C029
:10A600002268D20304D50122C8F80020D4F808C07B
:10A610000D68D8F800A0DBB283F3118830684FF4DE
:10A620007A72554402FB00F3A3EB0C03B3FBF0F387
:10A6300002FB053523E6EFF3118389F31288D4F882
:10A6400008C02268D20304D50122C8F80020D4F83B
:10A6500008C00D68D8F800A0DBB283F31188306819
:10A660004FF47A72554402FB00F3A3EB0C03B3FBE7
:10A67000F0F302FB0535A1E5EFF3118389F31288AE
:10A68000D4F808C02268D20304D50122C8F80020FB
:10A69000D4F808C00D68D8F800A0DBB283F31188A5
:10A6A00030684FF47A72554402FB00F3A3EB0C03BD
:10A6B000B3FBF0F302FB0535D2E4EFF3118389F32A
:10A6C0001288D4F808C02268D20304D50122C8F841
:10A6D0000020D4F808C00D68D8F800A0DBB283F3DE
:10A6E000118830684FF47A72554402FB00F3A3EBF3
:10A6F0000C03B3FBF0F302FB053508E5EFF3118320
:10A7000089F31288D4F808C02268D20304D5012244
:10A71000C8F80020D4F808C00D68D8F800A0DBB253
:10A7200083F3118830684FF47A72554402FB00F3CA
:10A73000A3EB0C03B3FBF0F302FB053524E4EFF3CA
:10A74000118389F31288D4F808C02268D20304D593
:10A750000122C8F80020D4F808C00D68D8F800A07D
:10A76000DBB283F3118830684FF47A72554402FBF0
:10A7700000F3A3EB0C03B3FBF0F302FB0535FFF78B
:10A78000ACBBEFF3118389F31288D4F808C02268B8
:10A79000D20304D50122C8F80020D4F808C00D68FF
:10A7A000D8F800A0DBB283F3118830684FF47A72D6
:10A7B000554402FB00F3A3EB0C03B3FBF0F302FBE5
:10A7C0000535FFF726BB009B019C1B7C022B7FF409
:10A7D0001EAC009B9B6913B11A689B885383009B36
:10A7E000586940F2E933828902E0002B00F0E683E9
:10A7F0000289013B12F0020F9BB2F6D01A2383812B
:10A8000040F2E93302E0002B00F0D8830289013BDB
:10A8100012F0010F9BB2F6D08389838940F2E933AD
:10A8200002E0002B00F0C7830289013B12F0020F07
:10A830009BB2F6D0848140F2E93302E0002B00F0B5
:10A84000BA830289013B12F0010F9BB2F6D08389D3
:10A85000009B9B69002B3FF4DAAB1A689B8813833B
:10A86000FFF7D5BB009B9B6913B11A689B88538384
:10A87000009B586940F2E933828902E0002B00F026
:10A8800095830289013B12F0020F9BB2F6D01C2384
:10A89000838140F2E93302E0002B00F087830289D4
:10A8A000013B12F0010F9BB2F6D08389838940F2FD
:10A8B000E93302E0002B00F076830289013B12F0BD
:10A8C000020F9BB2F6D0BDF80830838140F2E93325
:10A8D00002E0002B00F067830289013B12F0010FB8
:10A8E0009BB2F6D08389009B9B69002B3FF423AB7E
:10A8F0001A689B881383FFF71EBB009B9B6913B1EB
:10A900001A689B885383009B586940F2E933828917
:10A9100002E0002B00F042830289013B12F0020F9B
:10A920009BB2F6D01B23838140F2E93302E0002B77
:10A9300000F034830289013B12F0010F9BB2F6D084
:10A940008389838940F2E93302E0002B00F02383FE
:10A950000289013B12F0020F9BB2F6D0BDF80C3019
:10A96000838140F2E93302E0002B00F01483028976
:10A97000013B12F0010F9BB2F6D08389009B9B69CB
:10A98000002B3FF474AA1A689B881383FFF76FBAF1
:10A99000009B9B6913B11A689B885383009B58697D
:10A9A00040F2E933828902E0002B00F0EF82028955
:10A9B000013B12F0020F9BB2F6D06B23838140F271
:10A9C000E93302E0002B00F0E1820289013B12F042
:10A9D000010F9BB2F6D08389838940F2E93302E00C
:10A9E000002B00F0D0820289013B12F0020F9BB2D3
:10A9F000F6D00123838140F2E93302E0002B00F01E
:10AA0000C2820289013B12F0010F9BB2F6D083890A
:10AA1000009B9B69002B3FF4D3A91A689B88138382
:10AA2000FFF7CEB9009B9B6913B11A689B885383CB
:10AA3000009B586940F2E933828902E0002B00F064
:10AA40009D820289013B12F0020F9BB2F6D06B236C
:10AA5000838140F2E93302E0002B00F08F8202890B
:10AA6000013B12F0010F9BB2F6D08389838940F23B
:10AA7000E93302E0002B00F07E820289013B12F0F4
:10AA8000020F9BB2F6D00023838140F2E93302E04B
:10AA9000002B00F070820289013B12F0010F9BB283
:10AAA000F6D08389009B9B69002B3FF432A91A687A
:10AAB0009B881383FFF72DB9009B9B6913B11A681C
:10AAC0009B885383009B586940F2E933828902E0F6
:10AAD000002B00F04B820289013B12F0020F9BB267
:10AAE000F6D06823838140F2E93302E0002B00F0C6
:10AAF0003D820289013B12F0010F9BB2F6D083899F
:10AB0000838940F2E93302E0002B00F02C820289B5
:10AB1000013B12F0020F9BB2F6D00723838140F273
:10AB2000E93302E0002B00F01E820289013B12F0A3
:10AB3000010F9BB2F6D08389009B9B69002B3FF4E9
:10AB400091A81A689B881383FFF78CB8009B9B69B8
:10AB500013B11A689B885383009B586940F2E9330C
:10AB6000828902E0002B00F0F9810289013B12F09A
:10AB7000020F9BB2F6D06B23838140F2E93302E0EF
:10AB8000002B00F0EB810289013B12F0010F9BB218
:10AB9000F6D08389838940F2E93302E0002B00F08C
:10ABA000DA810289013B12F0020F9BB2F6D08023BA
:10ABB000838140F2E93302E0002B00F0CC8102896E
:10ABC000013B12F0010F9BB2F6D08389009B9B6979
:10ABD000002B3EF4EEAF1A689B881383FEF7E9BFA3
:10ABE000009B93F85D30002B40F08B811023CDE962
:10ABF0000233FEF7D9BFFEF79DFF0446002800F0A0
:10AC0000A581B0F804C0AF4A20218171BCFA8CF351
:10AC10000021C171C3F11F030099581CCA603EF4A2
:10AC2000BAAF2068A84FA94EA94D00F13F4202F5E6
:10AC30007E02920AF118BA5C009F91F8688005EBD9
:10AC4000830102F01F0352094FF0010E0C37032A53
:10AC50000EFA03F34F6200F07481042A00F0D081F1
:10AC6000022A00F0C88104A90027CDE904C729F011
:10AC700007F8A3882268B3FA83F3C3F11F03D9B29C
:10AC800001F0FC0000F1804000F59C3001F0030170
:10AC90004FEA810C4FF00F0E81680EFA0CFE21EA8C
:10ACA0000E0102F13F42816002F57E02D0F808E019
:10ACB000C2F3872101FA0CF1864A4FF0010909FA23
:10ACC00003F341EA0E0181605361D2F800C082486B
:10ACD000D9430CEA010CC2F800C0D2F804C001EA62
:10ACE0000C0CC2F804C0D2F800C043EA0C0CC2F845
:10ACF00000C0D2F808C001EA0C0CC2F808C0D2F8B3
:10AD00000CC001EA0C01D160026845441A4302609C
:10AD100095F86420F02A00F2FA80002B3EF43BAF55
:10AD20006C490A6813430B60FEF735BF009B9B69B3
:10AD300013B11A689B885383009B586940F2E9332A
:10AD4000828902E0002B00F051810289013B12F060
:10AD5000020F9BB2F6D03823838140F2E93302E040
:10AD6000002B00F043810289013B12F0010F9BB2DE
:10AD7000F6D08389838940F2E93302E0002B00F0AA
:10AD800032810289013B12F0020F9BB2F6D00123FF
:10AD9000838140F2E93302E0002B00F02481028934
:10ADA000013B12F0010F9BB2F6D08389009B9B6997
:10ADB000002B3FF431AA1A689B881383FFF72CBA43
:10ADC000009B9B6913B11A689B885383009B586949
:10ADD00040F2E933828902E0002B00F0FF80028913
:10ADE000013B12F0020F9BB2F6D03723838140F271
:10ADF000E93302E0002B00F0F1800289013B12F000
:10AE0000010F9BB2F6D08389838940F2E93302E0D7
:10AE1000002B00F0E0800289013B12F0020F9BB290
:10AE2000F6D01023838140F2E93302E0002B00F0DA
:10AE3000D2800289013B12F0010F9BB2F6D08389C8
:10AE4000009B9B69002B3FF490A91A689B88138391
:10AE5000FFF78BB9009A936992F8604013B11A68B2
:10AE60009B885383009B586940F2E933828902E052
:10AE7000002B00F0AB800289013B12F0020F9BB265
:10AE8000F6D01923838140F2E93302E0002B00F071
:10AE90009D800289013B12F0010F9BB2F6D083899D
:10AEA000838940F2E93302E0002B00F08C800289B4
:10AEB000013B12F0020F9BB2F6D0A4B2848140F2A3
:10AEC000E9330DE0F58B0008B82A05080CDF04080B
:10AED00030150020003C0140083C0140002B72D09E
:10AEE0000289013B12F0010F9BB2F7D08389009BCE
:10AEF0009B69002B3FF4E2A81A689B881383FFF735
:10AF0000DDB810211823CDE90213FEF74DBE4644EB
:10AF1000F02296F878308DF8103004A803238DF8CD
:10AF200011308DF812708DF8139085F8642028F098
:10AF3000D1FDA388B3FA83F3C3F11F0309FA03F326
:10AF4000EBE632490A6C13430B648CE6009A304BF3
:10AF5000D360FEF720BEFDF7A3F837E6FDF7A0F8B3
:10AF6000009B586916E6FDF79BF8E5E5FDF798F8B4
:10AF7000009B5869C4E5FDF793F893E5FDF790F859
:10AF8000009B586972E5FDF78BF841E5FDF788F8FD
:10AF9000009B586920E5FDF783F8EFE4FDF780F8A2
:10AFA000009B5869CDE4FDF77BF89CE4FDF778F849
:10AFB000009B58697AE4FDF773F849E4FDF770F8EF
:10AFC000009B586929E4FDF76BF890E7FDF768F8F6
:10AFD000009B586964E7FDF763F831E7FDF760F817
:10AFE000009B586910E7FDF75BF8DFE6FDF758F8BE
:10AFF000009B5869BEE605494A6C13434B6432E630
:10B00000024A116B0B4313632DE600BF0038024068
:10B01000F58B000842697B49138823F040032DE932
:10B02000F04F1B041B0C1380138883B023F03803EC
:10B030001B048A4201904FEA134300F0D88001F5C7
:10B0400080618A420CBF282130210B431380138872
:10B0500043F0400313800BF0D3FE04460BF0D0FE08
:10B060008442FBD0019C2046FEF78CFDA36913B1FE
:10B070001A689B885383019B586940F2E93382899F
:10B0800002E0002B00F0B8800289013B12F0020FB1
:10B090009BB2F6D06A23838140F2E93302E0002BB1
:10B0A00000F0AA800289013B12F0010F9BB2F6D09A
:10B0B0008389838940F2E93302E0002B00F0998014
:10B0C0000289013B12F0020F9BB2F6D0102383815C
:10B0D00040F2E93302E0002B00F08B800289013B53
:10B0E00012F0010F9BB2F6D08389019B9B6913B1CB
:10B0F0001A689B8813836423434CDFF81891DFF8A8
:10B100001881424DDFF814A1414E00930BF078FEF8
:10B110004FF47A774FF0100C4FF0010ED8F804304E
:10B12000C3F30803002B43D1EFF31183002B3FD16E
:10B130002368A96822689342FAD132689142F7D80D
:10B14000D9F8002007FB02FBABEB0101B1FBF2F1E8
:10B1500007FB03131B1AB3F57A7FDFD3009B013B78
:10B160000093D3D1019B27495A69138823F04003E8
:10B170001B041B0C1380138823F038031B048A4222
:10B180004FEA134305D001F580618A4201D043F0B4
:10B1900008031380138843F0400313800BF030FE44
:10B1A00004460BF02DFE8442FBD003B0BDE8F08FC7
:10B1B000EFF311818CF31288D5F808B02B68DB030C
:10B1C00044BFCAF800E0D5F808B02368DAF80020D8
:10B1D000C9B281F31188D9F80010134407FB01F2BA
:10B1E000A2EB0B02B2FBF1F207FB0323B2E728212B
:10B1F0002BE7FCF755FF78E7FCF752FF019B5869F6
:10B2000057E700BF003800407C61002010E000E0FC
:10B21000846100208061002000ED00E07861002062
:10B220002DE9F04F4A484B494B4B4C4C4FF0010A2B
:10B230004FF002094FF004084FF0080E4FF0100CC9
:10B2400020274026802530F8022B12F0010F03D072
:10B250001960A3F804A0083312F0020F03D019609C
:10B26000A3F80490083312F0040F03D01960A3F878
:10B270000480083312F0080F03D01960A3F804E02B
:10B28000083312F0100F03D01960A3F804C008337C
:10B2900012F0200F02D019609F80083312F0400F87
:10B2A00002D019609E80083312F0800F02D019601E
:10B2B0009D80083312F4807F05D04FF4807B1960A5
:10B2C000A3F804B0083312F4007F05D04FF4007BDC
:10B2D0001960A3F804B0083312F4806F05D04FF45E
:10B2E000806B1960A3F804B0083312F4006F05D026
:10B2F0004FF4006B1960A3F804B0083312F4805FB8
:10B3000005D04FF4805B1960A3F804B0083312F441
:10B31000005F05D04FF4005B1960A3F804B0083358
:10B3200012F4804F05D04FF4804B1960A3F804B09D
:10B330000833D20B04D04FF4004219609A800833CE
:10B3400001F58061A1427FF47EAFBDE8F08F00BFC0
:10B35000D82A050800000240C45E00200014024004
:10B3600000B9704703682DE9F04F03F13F4404F53D
:10B370007E04534EA40A0125345D04F01F066409BF
:10B38000032C05FA06F500F09580042C00F08D8062
:10B39000022C45D08588B5FA85F0C0F11F0080B237
:10B3A000C40803EB840400F00700266A80000F271E
:10B3B000874026EA07062662276A01F003068240D4
:10B3C000701E3A4301282262C1F3810EC1F30018B6
:10B3D0004FF000024FEA51114FF0010C25D94FF008
:10B3E000030E0CFA02F0A84315D150001F680EFAA4
:10B3F00000F4E44327401F60D3F8008006FA00F70A
:10B4000047EA08071F60DF683C40DC60DC6801FA3F
:10B4100000F02043D8600132102AE2D1BDE8F08F5D
:10B42000284C666C35436564B4E74FF003090CFAA9
:10B4300002F737EA050033D15000D3F800A009FA2B
:10B4400000F4E4430AEA040AC3F800A0D3F800B009
:10B4500006FA00FA4AEA0B0AC3F800A0D3F808A0DB
:10B4600004EA0A0AC3F808A0D3F808B00EFA00FAF2
:10B470004AEA0B0AC3F808A0D3F804A02AEA07078F
:10B480005F60D3F804A008FA02F747EA0A075F6092
:10B49000DF683C40DC60DC6801FA00F02043D860E3
:10B4A0000132102AC3D1BDE8F08F064C266B35431C
:10B4B00025636FE7034C266C354325646AE700BFBC
:10B4C000B82A05080038024000B97047036803F144
:10B4D0003F4202F57E022DE9F04F920A464DAA5CEA
:10B4E00002F01F0552090124032A04FA05F47ED054
:10B4F000042A77D0022A30D001F00306721E012AF6
:10B50000C1F3810EC1F300188588C1F341114FF0DA
:10B5100000024FF0010C25D94FF0030E0CFA02F097
:10B52000A84315D150001F680EFA00F4E4432740E9
:10B530001F60D3F8008006FA00F747EA08071F608B
:10B54000DF683C40DC60DC6801FA00F02043D86032
:10B550000132102AE2D1BDE8F08F284A556C2C4305
:10B560005464C9E74FF003090CFA02F737EA050003
:10B5700033D15000D3F800A009FA00F4E4430AEAFA
:10B58000040AC3F800A0D3F800B006FA00FA4AEAA9
:10B590000B0AC3F800A0D3F808A004EA0A0AC3F80B
:10B5A00008A0D3F808B00EFA00FA4AEA0B0AC3F86A
:10B5B00008A0D3F804A02AEA07075F60D3F804A024
:10B5C00008FA02F747EA0A075F60DF683C40DC6080
:10B5D000DC6801FA00F02043D8600132102AC3D1A0
:10B5E000BDE8F08F054A156B2C43146384E7034ACA
:10B5F000156C2C4314647FE7B82A05080038024014
:10B6000010B1036882885A83704700BF10B1036885
:10B6100082881A83704700BF18B10368828809B90D
:10B620005A8370471A83704730B1036882881B6958
:10B630001A4214BF01200020704700BF2DE9F041DD
:10B640000B4E356873691D4010D0DFF82880012744
:10B65000B5FA85F4C4F11F0408EB840307FA04F477
:10B66000586A03689847A5437461F1D1BDE8F08139
:10B67000003C0140301500202DE9F0410B4E3568AB
:10B6800073691D4010D0DFF828800127B5FA85F4D2
:10B69000C4F11F0408EB840307FA04F4586A036832
:10B6A0009847A5437461F1D1BDE8F081003C0140A9
:10B6B000301500202DE9F0410B4E356873691D40AF
:10B6C00010D0DFF828800127B5FA85F4C4F11F04F3
:10B6D00008EB840307FA04F4586A03689847A54303
:10B6E0007461F1D1BDE8F081003C014030150020CB
:10B6F0002DE9F0410B4E356873691D4010D0DFF81D
:10B7000028800127B5FA85F4C4F11F0408EB8403EF
:10B7100007FA04F4586A03689847A5437461F1D1A5
:10B72000BDE8F081003C0140301500202DE9F041DA
:10B730000B4E356873691D4010D0DFF82880012753
:10B74000B5FA85F4C4F11F0408EB840307FA04F486
:10B75000586A03689847A5437461F1D1BDE8F08148
:10B76000003C0140301500202DE9F0410B4E3568BA
:10B7700073691D4010D0DFF828800127B5FA85F4E1
:10B78000C4F11F0408EB840307FA04F4586A036841
:10B790009847A5437461F1D1BDE8F081003C0140B8
:10B7A000301500202DE9F0410B4E356873691D40BE
:10B7B00010D0DFF828800127B5FA85F4C4F11F0402
:10B7C00008EB840307FA04F4586A03689847A54312
:10B7D0007461F1D1BDE8F081003C014030150020DA
:10B7E000094A10B5536C094C43F48043536404F187
:10B7F00024004022002142F036FB4FF0FF33636605
:10B80000C4F8673010BD00BF00380240301500207A
:10B81000D3B2012B23D8F0B4124F02EB420600251D
:10B820003C46B6002B4604E00133152B14D014F827
:10B830001C5FA842F8D165788D42F5D1A519AD6895
:10B84000002DF1D0C3EBC3039B000C20043310FB8D
:10B850000233F818F0BC70470020F0BC704700209D
:10B86000704700BF8CDF04082DE9FF47B2F1FF3FAE
:10B870000546894692461F46BDF830400D9E20D0B1
:10B8800001F10108CDE9008239460368134A2046D8
:10B89000B04752465FFA89F12879FFF7B9FF00B146
:10B8A00000880F4AC3B20393C0F30323000B029333
:10B8B000CDE900802B6839462046B04704B0BDE88A
:10B8C000F0876306FAD44B1C0C930368054A39468B
:10B8D0002046B44604B0BDE8F0476047F54305088C
:10B8E00002440508264405082DE9F04F5F4CDFF8B7
:10B8F00088918BB0054604F1480ADFF874B1002640
:10B90000A37A99F80070B3427DDC0C34A245F4D1DF
:10B9100040F21620FDF752F8D0E901480FB9A046D1
:10B920003C461522002104A842F09DFA002606EBB1
:10B93000460B18F80B7087B308EB0B0A38469AF8D9
:10B9400001100AF03FFF9AF902A08146002C00F096
:10B950008980002303EB4302A25CBA427ED1A34458
:10B9600004A901239BF902208B55AAEB0200D0F118
:10B97000000B4BEB000B3CB13D4B4946CDE900536E
:10B9800038465B46FCF7DCFB3A4B5246CDE90053A8
:10B9900049465B463846FCF7D3FB0136152EC6D127
:10B9A00074B3DFF8D0B0002604AB9F5D2FBB06EB6D
:10B9B000460814F80890B9F1000F1ED004EB0803F4
:10B9C00093F902200392511C17D0597848460AF087
:10B9D000F9FE274B039A01468246CDE900534846BB
:10B9E0003B46FCF7ADFB14F808003B46CDE9005B95
:10B9F0004FF0FF325146FCF7A3FB0136152ED3D191
:10BA00000BB0BDE8F08FE088FCF7D8FFD0E901313A
:10BA10000FB919463B46227A607A06FB02028F561E
:10BA2000CBB19A56A7EB020CDCF1000848EB0C08EE
:10BA300033B1CDE9005B434631462046FFF714FFA2
:10BA40000C4B3146CDE900533A4643462046FFF7BA
:10BA50000BFF013654E74FF0FF32E3E70133152BBC
:10BA60007FF478AF4FF0FF327FE700BF8C010020FA
:10BA70006DC2000889C100083015002010B58B6820
:10BA8000016004469847FF2300210122E3812173CE
:10BA9000627310BD03681B6A184700BF70B44E1C68
:10BAA0000568C2728672AC69A44670BC604700BF6C
:10BAB0002DE9F041044618460D4616461F463FF054
:10BAC0001BFF2844A0722068E672294645693B4660
:10BAD00032462046AC46BDE8F0416047036810B5E9
:10BAE00004461B689847236820469B689847E37B79
:10BAF0000133E37310BD00BF10B5036804469B68B3
:10BB00009847FF230122A373627310BD70B50546E9
:10BB100000780E46FEF70EF8044618B138230136B9
:10BB20008371C67120466978FFF7CEFCAB7820465A
:10BB300013B1BDE8704069E5BDE8704060E500BF45
:10BB4000427A4AB110B5044604F10A01D0E9003046
:10BB500098470023637210BD704700BF48B10123AE
:10BB6000302803FA01F101D0312803D14A0709D165
:10BB7000002070473228F9D03328F7D0342803D179
:10BB80008B07F5D0012070473528F9D02028F7D051
:10BB90002128F5D01028E9D01128E7D01228E5D0C7
:10BBA0001328E3D01428EBD01528E9D0162804D1A7
:10BBB00011F0030018BF012070471728D8D111F0E9
:10BBC000030018BF01207047302829D0312829D020
:10BBD000322829D0332829D0342829D0352829D013
:10BBE00020282BD021282BD0102825D0112829D06F
:10BBF000122829D0132829D0142829D0152829D073
:10BC0000162805D0172808BF0F2302D00020704740
:10BC10000E23114A03EB4303134493F8CE027047FB
:10BC20000023F6E70123F4E70223F2E70323F0E71A
:10BC30000423EEE70523ECE70823EAE70623E8E719
:10BC40000723E6E70923E4E70A23E2E70B23E0E71B
:10BC50000C23DEE70D23DCE70CDF0408024B014672
:10BC60001868FCF739BA00BF1C1A002038B5064D19
:10BC7000441E14F8011F286811B9BDE838405FE779
:10BC8000FCF72AFAF5E700BF1C1A00200048EDE790
:10BC90009E54050808B5FFF7E9FFBDE80840F5E741
:10BCA00010B504460348FFF7E1FF2046BDE8104009
:10BCB000F0E700BF35440508024A136823EA000094
:10BCC00010607047A4820020DFED2E7AB4EEE70A00
:10BCD000F1EE10FA4ADDDFED2C6A9FED2C7A01E0DF
:10BCE000B0EE670AB4EEC70AF1EE10FA70EE667AAB
:10BCF000F6DC9FED277AF4EEC77AF1EE10FA3ED526
:10BD0000DFED216A9FED237A01E0F0EE407AF4EE58
:10BD1000C77AF1EE10FA37EEA60AF6D4DFED1E7AF6
:10BD2000B4EEE70AF1EE10FA14DDDFED167A37EE25
:10BD3000C00A60EE006A9FED196A9FED197ADFED87
:10BD4000197AA6EE867A20EE266AE6EE877AA6EEC5
:10BD5000270A7047DFED147AB4EEE70AF1EE10FA25
:10BD600044BFDFED0B7A37EEC00AE2E79FED087AB9
:10BD7000F0EE407AF4EEC77AF1EE10FAC0D4B0EEED
:10BD8000670ACBE7DB0F4940DB0FC940E4CB164124
:10BD9000DB0F49C0E4CB16C1DB0FC93F92E741B9C5
:10BDA0009730083C15A82ABEDB0FC9BFF0EEC07A59
:10BDB000B0EEE07AB4EEE77AF1EE10FAB4BFB0EE8E
:10BDC000676AB0EE476AB5EE406AF1EE10FA46D007
:10BDD000B4EEE77AF1EE10FA8CBFF0EE675AF0EEAF
:10BDE000475AC5EE866A9FED1F3A9FED1F6A9FED89
:10BDF0001F4A9FED1F5ADFED1F3ADFED1F4ADFEDAF
:10BE00001F5AA6EEC36AE6EEA34AA6EE864AB7EE2E
:10BE1000006AA6EE845AA6EEA46AE6EE855AC5EE3E
:10BE2000866AB4EEE77AF1EE10FA48BFDFED147AD5
:10BE3000F5EEC00A48BF77EEE66AF1EE10FA48BFA9
:10BE4000DFED107AB5EEC00A48BF77EEE66AF1EE94
:10BE500010FA48BFF1EE666AB0EE660A7047DFED91
:10BE6000076ADEE739094E3DE3B59E3E88FA163E85
:10BE700045FE7F3F99FB243F69A2163EA7DFA83409
:10BE8000DB0FC93FDB0F4940DFED317A30EE277A17
:10BE9000FDEEC76A16EE903A2033402B02D99FED93
:10BEA0002D0A7047B4EEE70AF1EE10FA4DDD9FED72
:10BEB0002A6ADFED2A6A01E0B0EE677AB4EEE67A2C
:10BEC000F1EE10FA77EE467AF6DC9FED257AF4EE85
