:020000040800F2
:1000000000000120897D0508097E0508F59F030889
:1000100059A00308097E0508097E050800000000B4
:10002000000000000000000000000000097E05083C
:10003000097E050800000000097E0508A5A0030848
:10004000097E0508097E0508097E0508097E050860
:10005000097E0508097E05084DF8030879F90308AB
:100060003DF9030801F90308C5F8030861680508AC
:100070005168050841680508316805081D680508CC
:1000800009680508F5670508097E0508097E050861
:10009000097E0508097E0508097E050889F8030818
:1000A000B1490508394A0508A1490508614A05080A
:1000B000294A0508194A0508094A0508716805080A
:1000C00095680508097E0508097E0508097E05086A
:1000D000097E0508494505083D45050831450508DF
:1000E00011F80308097E0508097E050891490508ED
:1000F000C1490508097E0508E9490508E1670508C1
:10010000097E0508097E0508F9490508097E0508E4
:1001100025450508097E0508097E05089F2D01086B
:10012000CD670508B9670508A56705089167050843
:100130007D670508000000000000000000000000CE
:10014000000000000000000000000000DF37010890
:1001500069670508556705084167050819450508D9
:10016000097E0508097E0508097E0508097E05083F
:10017000097E0508097E0508000000000000000057
:10018000097E0508097E0508097E0508097E05081F
:10019000097E0508097E050800000000097E0508A3
:1001A000000000000000000000000000097E0508BB
:1001B000097E0508097E0508000000000000000017
:1001C000000000000000000000000000000000002F
:1001D000000000000000000000000000097E05088B
:0801E000D878050001000000C1
:1001E8001F0210006C2001205C200120000000008C
:1001F800DD84000803010A00285001203450012042
:1002080000000000D807000823121000E85C012055
:10021800745D012000000000E407000805100600D6
:10022800E05C0120845D012000000000F407000864
:1002380037102800245D01208C5D0120000000009B
:10024800FA0700080E020200D85C0120B45D012004
:10025800000000002208000816100600885201203D
:10026800B85D012000000000240800082F102200BB
:10027800505D0120C05D0120000000002A08000830
:10028800F5518C00BC510120E45D01200000000004
:10029800DDD4010826100C007C5E0120705E012070
:1002A80000000000B15A0108140003002859012079
:1002B800B45E0120000000004C0800080B301A0052
:1002C80068510120B85E01200000000050080008B5
:1002D8001F30240084510120D45E0120000000005A
:1002E8006C0800080502040068540120F85E01202B
:1002F800000000009008000801200C00186601208A
:100308006C6E012000000000940800080A702800A4
:10031800D4640120786E01200000000085C702081F
:100328000EA05C0178630120A06E0120000000008F
:100338002938020801010400D4620120FC6F012061
:10034800000000000000000000010400CC62012051
:100358000070012000000000A0080008020103004E
:10036800C86201200470012000000000FDD80408C4
:1003780022021401C86A0120087001200000000050
:10038800818C00080C109C00486501201C7101201C
:1003980000000000C1D8040801020500E062012045
:1003A800B871012000000000B9CA01080002050068
:1003B80064690120C07101200000000000000000F5
:1003C8001B02100030690120C871012000000000E4
:1003D800258300081E000600B4660120D87101209C
:1003E80000000000A40800081B100C008060012019
:1003F800E071012000000000C5D601082102F000CC
:10040800045F0120EC71012000000000A9D501085B
:1004180003000100107A0120207A0120000000006A
:100428000000000010100200187A0120247A012030
:1004380000000000AA08000825102C01A077012060
:10044800287A0120000000000000000019000500C3
:100458003C770120547B012000000000AC08000814
:100468001A000E00E47301205C7B012000000000EC
:10047800B2080008F8210600507601206C7B0120A4
:1004880000000000C0080008150070006075012019
:10049800747B012000000000000000002A006000BA
:1004A80078760120E47B0120000000000138020872
:1004B8002C001000B8850120A8850120000000004C
:1004C80055E302082B002400EC850120C885012093
:1004D8000000000025E3020829207800AC840120F0
:1004E800108601200000000000000000F6210C002A
:1004F800188401208886012000000000C808000830
:1005080020320A00E4860120D8860120000000007D
:100518006DC602081C0210005C800120F0860120D4
:1005280000000000F5820008281010002483012034
:100538000087012000000000DDC702081A023C0005
:1005480010880120E88A012000000000318A000894
:100558002700040008880120248B012000000000E7
:10056800D4080008381001002C870120288B0120AE
:1005780000000000D808000823100E0094AA0120EB
:1005880018AC012000000000F5C702080D003C006F
:1005980014AA012028AC012000000000C52F04087F
:1005A8000400800084A5012064AC01200000000044
:1005B800000000001300040064A50120E4AC012041
:1005C80000000000DC08000818202E0030A50120DB
:1005D800E8AC012000000000DD8B000806101A00BE
:1005E80014A5012018AD0120000000008938020878
:1005F800FB01010010A5012034AD0120000000001E
:10060800518C0008FC010900DCA3012038AD012051
:1006180000000000618C000816023F009CA3012026
:1006280044AD0120000000006D8300083400100074
:10063800CCA2012084AD0120000000005938020836
:1006480011020800A4A2012094AD012000000000BE
:10065800E0080008121204009CA201209CAD0120B1
:1006680000000000E8080008122010008CA20120F9
:10067800A0AD012000000000EC080008FD012100E9
:10068800A89F0120B0AD012000000000F553030829
:10069800FF110600389C0120D4AD012000000000A5
:1006A800C184000808121400449C0120DCAD01201C
:1006B800000000004D840008F9010400349C01206A
:1006C800F0AD012000000000E9C80308130204008F
:1006D800309C0120F4AD012000000000FC08000857
:1006E800FA010200D8990120F8AD012000000000AD
:1006F8008985000802020300FC950120FCAD012059
:1007080000000000000000000C020400E895012031
:1007180000AE012000000000A9840008FE011400BA
:10072800E492012004AE0120000000003983000893
:100738000702020064C40120E8C401200000000090
:100748000009000803123D0088C40120ECC4012000
:10075800000000000209000802000C0038C4012053
:100768002CC5012000000000000000000602100057
:1007780028C4012038C5012000000000CD8A0008E7
:10078800F70106001CC4012048C501200000000034
:10079800400900081D02020018C4012050C50120AC
:1007A80000000000460900080A020A0088C3012068
:1007B80054C501200000000099DB04081002010064
:1007C80064C5012060C50120000000004809000838
:1007D800040101006C160000000000000000000089
:1007E80000000000000000000000000020000201DE
:1007F800000020003200C800D00796001400320024
:100808002800B00440060005500014000F0008003E
:1008180064000100010005000A000000C40900008E
:1008280019000000000000000000000000000000A7
:1008380000000000000000000000000000000000B0
:100848000000000003000000AE014A015E012C0117
:1008580064010100000001000A019A01001E0A005B
:10086800000000000000000000010000000500007A
:10087800010203000000000000000000000000006A
:10088800000000000080070000000000E80364008A
:10089800040A000114001E00B3000000000001005B
:1008A800000000050000280100007E05EA05B405E7
:1008B8003200E803D00700000401F401140000002E
:1008C80000000000010000000202000020030000F8
:1008D800000000000804443038390000010101011B
:1008E800FFFFFFFF000000010000054D46375300E1
:1008F800000800000000013E003C0000000000006D
:1009080000000000000000000000000000000000DF
:1009180000000000000000000000000000000000CF
:1009280000000000000000000000000000000000BF
:1009380000000000000001003D0100000000000070
:0109480000AE
:1009490071020108F1FF00086D450108000000006F
:10095900000000006D370108693601080000000039
:1009690000000000000000004DF2000841F20008FC
:1009790035F2000829F20008A992000891920008AE
:10098900819200086585000831920008D991000814
:1009990055850008B000012075CF00086D85000855
:1009A9006985000861850008CD8C00085D8500080F
:1009B90059850008109E05080068214C1F00000099
:1009C9001C0000001F0000001E0000001F000000A6
:1009D9001E0000001F0000001F0000001E00000094
:1009E9001F0000001E0000001F000000FF01FF00A3
:1009F900008002021F00000053544D2020202020B7
:100A090050726F647574202020202020202020201F
:100A1900302E303100C20100000008001A03000026
:100A290000000000000000000000000000000000BD
:100A39000000000000000000040309040A06000287
:100A4900000000400100000009072000010104C066
:100A5900320904000002080650050705810240001A
:100A6900000705010240000009022000010104C03D
:100A790032090400000208065005070581024000FA
:100A8900000705010240000009022000010104C01D
:100A99003209040000020806500507058102000218
:100AA90000070501020002000A06000200000040DA
:100AB9000100000009026400030100C032090400BA
:100AC900000103000000092111010001222600078D
:100AD90005830308000A080B010202020100090448
:100AE9000100010202010005240010010524010092
:100AF90002042402020524060102070582030800F4
:100B0900FF09040200020A00000007050102400073
:100B19000007058102400000070301083B000108A6
:100B290071470108000000007DF30008DBF30008AD
:100B3900A9F3000800000000000000000000000008
:100B490065F3000871F3000859F300084DF3000834
:100B59000A0600020000004001000000090222000C
:100B6900010100E03209040000010301020009212A
:100B7900110100012226000705830308000A00006D
:100B89000A060002000000400100000009074300B6
:100B9900020104C032090400000102020100052417
:100BA90000100105240100010424020205240600A5
:100BB90001070582030800FF09040100020A000079
:100BC90000070501024000000705810240000000FE
:100BD90009024300020100C03209040000010202B7
:100BE900010005240010010524010001042402026A
:100BF9000524060001070582030800100904010005
:100C0900020A00000007050102000200070581022F
:100C19000002000009024300020100C03209040079
:100C29000001020201000524001001052401000150
:100C390004240202052406000107058203080010A6
:100C490009040100020A0000000705010240000032
:100C59000705810240000000F8A705080000000010
:100C6900000000000000000000000000000000007B
:100C7900000000000000000000000000000000006B
:100C8900120100020000004083042A5700020102F9
:100C990003010000120100020200004083044057D2
:100CA900000201020301000012010002EF020140EB
:100CB90083045632000201020301000005010905FF
:100CC900A101A100050109300931093209330935AA
:100CD9000934094009381581257F7508950881026D
:100CE900C0C00000092111010001222600000000F6
:100CF90000FFFF0000000000AA55050100000101E6
:100D0900FFFFFFFF38AB05080000000000000000EE
:100D190000000000000000000000000000000000CA
:100D2900000000000000000000000000FF1FFF1F7E
:100D39002D202D2D202D2D2D2D202D2D2D2D00005B
:100D4900000000000000000000000000000000AAF0
:100D5900550B010000AA5507010000AA5509020018
:100D69000000AA5503009F0001000000C012000006
:100D7900885E012000000000AC5E01200000000038
:100D89000100000000000100E0010100F9CA0108AA
:100D99000000000098AC050820700020702D72003A
:100DA900FFFFFFFF08FF0101FFFF2D202D2D202D43
:100DB9002D2D2D202D2D2D000000000000000000FC
:100DC900000000000000000000000000000000001A
:100DD900000000004CC405080000000000000000ED
:100DE900D8C4050801000000FA0000000100000055
:100DF90001000000146601200000F4010100000058
:100E0900126601200000F4010100000010660120B3
:100E19000000F401010000000E6601200000F40149
:100E2900010000000C6601200000F401010000002F
:100E39000A6601200000F401010000000866012093
:100E49000000F4010100000049D301080DD3010895
:100E59004CB2050802660120053201000066012036
:100E6900E803D00701000000FE650120E803D00770
:100E790001000000FC650120E803D0070100000023
:100E8900FA6501201E00B80B01000000F865012079
:100E99001E00F40101000000F66501201400640041
:100EA90001000000046601203200E803010000008F
:100EB900F46501200000C800010000002A65012036
:100EC90000C80100296501200050010028650120A2
:100ED900005A01002665012002000000D8B2050869
:100EE900FC27060804280608C2AA01200100C40933
:100EF90000000000C0AA01200100C4090000000090
:100F0900BEAA01200100C40900000000BCAA0120FA
:100F19000100C40900000000B8AA01200100C409A9
:100F290000000000BAAA01200100C4090000000065
:100F3900B6AA01200100C40900000000B4AA0120DA
:100F49000100C40900000000F362012000C801008B
:100F5900F262012000C80100F06201200100C8000E
:100F690001000000EE6201203200307532000000FD
:100F7900ED620120055A0500EA62012000FF010027
:100F8900EC62012001000000A0050120E8620120B7
:100F99000300000054AA0508E962012000FF0100CE
:100FA900EB62012001000000A0050120E762012099
:100FB9000300000054AA0508BDD201086DD201083A
:100FC900E4B2050828660120EE02CA080100000003
:100FD9002666012000C80100640000002566012082
:100FE90000C801006400000024660120020000001E
:100FF900A8B30508DA62012080C1803E050000001F
:10100900D862012080C1803E05000000D262012023
:1010190080C1803E05000000D062012080C1803E71
:1010290005000000CB62012000FF0100C46201201D
:101039006400F40101000000C36201200400000003
:10104900B4B30508C262012002000000C8B3050854
:10105900696301200D000000D4B30508666301200F
:101069000064010064630120320010270A000000B7
:10107900636301200D000000D4B3050862630120F9
:101089000D000000D4B305086163012002000000CF
:101099000CB40508000000000000000018B40508A1
:1010A900205401209CFF2C0100000000EC6C012061
:1010B900E0150C1700000000E9690120020000009A
:1010C90050B40508346601200100FF7F01000000CB
:1010D90033660120020000005CB405086B6301203F
:1010E900030000006CB405086A63012003000000D6
:1010F9006CB40508086501200000E8030100000040
:10110900066501200000E8030100000004650120D4
:101119000000E80301000000026501200000E80367
:1011290001000000006501200000E8030100000043
:10113900FE6401200000E80301000000FD640120B5
:1011490000140100FC640120030000007CB40508C0
:10115900146501200000F40101000000126501205E
:101169000000F40101000000106501200000F401F5
:10117900010000000E6501200000F40101000000DB
:101189000C6501200000803E010000000A65012075
:101199000000803E010000003D6501201964010046
:1011A9003C650120020000008CB405083A65012065
:1011B900E803D0070A000000386501200064010037
:1011C9000A0000002D650120006401002C65012042
:1011D9000064010034650120006401000A00000078
:1011E90033650120006401000A0000003265012016
:1011F900006401000A000000376501200064010055
:101209000A00000036650120006401000A000000A0
:1012190035650120006401000A00000031650120E4
:1012290001FF01000A0000003065012001FF0100F3
:101239000A0000002F65012001FF01000A000000DB
:10124900746301200000F4010100000072630120B1
:101259000000F40101000000706301200000F401A6
:10126900010000006E6301200000F401010000008C
:101279006C6301200000F4010100000025650120D4
:101289000064010024650120006401002365012038
:101299000064010022650120FF0801002165012089
:1012A900016401003DD1010801D1010898B4050884
:1012B90020650120006401001E6501201400E80377
:1012C900010000001C650120E80330750A000000D8
:1012D9001A65012000C801001965012000C8010034
:1012E9001865012000C8010017650120006401008C
:1012F9000A000000F26501200000D007010000008B
:10130900ED65012000C80100EC65012000C801005D
:10131900EB65012000C80100F06501200000D0073D
:1013290001000000EA65012000C80100E96501200B
:1013390000C80100E865012000C80100EE65012030
:101349000000D00701000000E765012000C8010086
:10135900E665012000C80100E565012000C801001B
:101369000000000069CE010808B505085F63012087
:1013790035000000A4B505085E63012000C801001E
:101389005C630120E803D007010000004D4154458A
:101399004B46373232534500E66201200003010013
:1013A900E562012000030100B5CD010879CD0108EE
:1013B9007CB6050835CD0108E9CC0108ECB605086D
:1013C900F1CD0108890002086CB70508DC6201202B
:1013D90001030100B1D3010885D3010860BA0508EA
:1013E9006DCC010821CC0108D0BA05087FCE0108CF
:1013F900D12002086CBB0508BD16020800000000D8
:1014090014BC05089504020811D40108B0BC0508EC
:10141900D9CE01080000000030BD0508B1CF010890
:101429005DCF010894BD050841D0010805D0010828
:1014390030BE050879D10108C1D10108B0BE05083F
:101449002B6501200106010021CF0108EDCE01081D
:10145900ACBF05087DD00108ED0002081CC00508D5
:10146900F1D1010875010208FCC0050816650120C3
:101479000103010039CE010809CE0108D0C10508D0
:10148900DDD301080000000034C20508B9CC010809
:101499005900020898C20508000000000000000079
:1014A90024C3050845D20108ED010208A4C30508B3
:1014B900BE62012088136F1701000000C06201207D
:1014C90088136F170000000006AB01200000000020
:1014D9000000000004AB0120000000000000000033
:1014E90002AB0120000000000000000000AB012059
:1014F9000000000000000000FEAA0120000000001A
:1015090000000000FCAA012000000000000000000B
:101519002C0401200000000000000000946201205A
:10152900020000002CC50508BC62012088136F1752
:10153900010000006054012088136F1700000000AB
:10154900B1CB01080000000038C50508EA6901208F
:10155900010000008CC5050862540120010000004B
:1015690098C505085854012002000000A0C50508C7
:101579000000000000000000ACC5050899CB010877
:101589000000000048C60508000000000000000037
:101599009CC6050800000000000000000CC70508F3
:1015A9005C540120E0150C1700000000FFFFFFFF4D
:1015B9007D0000000000803F0000000000000000E6
:1015C900000000000000803F000000000000000053
:1015D9000000000000000000000000000000000002
:1015E9000000000000000000000000000000803F33
:1015F90000000000000000000000000001000000E1
:10160900FFFFFFFF0000803F000000000000000016
:10161900000000000000803FD6010000B80B000068
:10162900010000000001010100010100685E0C00D9
:10163900FF010000A00F0000B80B00000102FFFF2E
:1016490001000000FFFF0000FFFFFFFF688606089A
:10165900000008020503040070860608010008025C
:1016690005040400289206080200FE010110030087
:10167900102C0608030014020003000078860608EF
:1016890004001F02010008008086060805001F02E9
:1016990001010800FDFC000811F10008C5FC000863
:1016A900D9FC0008C9F00008B1FC00089BFC00083F
:1016B90009F30008E9F20008A5F20008000000009B
:1016C90099F2000885F2000871F200080000000094
:1016D90000000000000000000000000065F20008A2
:1016E9000000000059F2000865290108A1EF00086F
:1016F90021EF000809EF0008100000004DFF000865
:101709000DFE00087DFF0008E91A0108CD4B01080C
:10171900651B010815F2000801F20008F9F100083B
:10172900010000000060024010600240000000005B
:1017390000000000000B0000000000000000000095
:101749000000000000600240286002400100000023
:1017590000000000060C000000000000000000006E
:1017690000000000006002404060024002000000EA
:1017790000000000100D0000000000000000000043
:1017890000000000006002405860024003000000B1
:1017990000000000160E000000000000000000001C
:1017A9000000000000600240706002400400000078
:1017B90000000000200F00000000000000000000F1
:1017C900000000000060024088600240050000003F
:1017D90000000000261000000000000000000000CA
:1017E9000000000000600240A06002400600000006
:1017F900000000003011000000000000000000009F
:101809000000000000600240B860024007000000CC
:1018190000000000362F000000000000000000005A
:101829000000000000640240106402400000000053
:101839000000000000380000000000000000000067
:10184900000000000064024028640240010000001A
:101859000000000006390000000000000000000040
:1018690000000000006402404064024002000000E1
:1018790000000000103A0000000000000000000015
:1018890000000000006402405864024003000000A8
:1018990000000000163B00000000000000000000EE
:1018A900000000000064024070640240040000006F
:1018B90000000000203C00000000000000000000C3
:1018C9000000000000640240886402400500000036
:1018D9000000000026440000000000000000000095
:1018E9000000000000640240A064024006000000FD
:1018F900000000003045000000000000000000006A
:101909000000000000640240B864024007000000C3
:101919000000000036460000000000000000000042
:101929000000000004870608A4240608000000003F
:1019390011D90408A086010004000000000000007D
:10194900000000000000000000000000000000008E
:10195900000000000000000000000000000000007E
:101969000000000004870608FC8A06080000000041
:1019790045580308E80300000400000000000000C7
:10198900000000000000000000000000000000004E
:10199900000000000000000000000000000000003E
:1019A90000000000482F0608BC5B06080000000084
:1019B900CD0700007D0000000600000000000000C7
:1019C900000000000000000000000000000000000E
:1019D90000000000000000000000000000000000FE
:1019E9000000000054860608000000000000000006
:1019F900096C0308E8030000030000000000000070
:101A090000000000000000000000000000000000CD
:101A190000000000000000000000000000000000BD
:101A290000000000048B0608000000000000000010
:101A39009184020810270000030000000000000044
:101A4900000000000000000000000000000000008D
:101A5900000000000000000000000000000000007D
:101A6900000000007486060800000000C1DF0208BB
:101A7900917403085F760000050000000000000073
:101A8900000000000000000000000000000000004D
:101A9900000000000000000000000000000000003D
:101AA9000000000010890608000000000000000086
:101AB900EDC003081027000001000000000000002D
:101AC900000000000000000000000000000000000D
:101AD90000000000000000000000000000000000FD
:101AE90000000000108B0608000000000000000044
:101AF900BD530308E80300000500000000000000D2
:101B090000000000000000000000000000000000CC
:101B190000000000000000000000000000000000BC
:101B2900000000001C8B06080000000000000000F7
:101B3900C5020508204E0000030000000000000057
:101B4900000000000000000000000000000000008C
:101B5900000000000000000000000000000000007C
:101B6900000000002C8B06080000000000000000A7
:101B7900B1000508204E000003000000000000002D
:101B8900000000000000000000000000000000004C
:101B9900000000000000000000000000000000003C
:101BA900000000003C8B0608000000000000000057
:101BB900A15D0308400D03000300000000000000C0
:101BC900000000000000000000000000000000000C
:101BD90000000000000000000000000000000000FC
:101BE90000000000C4870608000000000000000093
:101BF900014904081027000001000000000000004E
:101C090000000000000000000000000000000000CB
:101C190000000000000000000000000000000000BB
:101C290000000000D02406080000000000000000A9
:101C390031E2010810270000030000000000000045
:101C4900000000000000000000000000000000008B
:101C5900000000000000000000000000000000007B
:101C6900000000004C8B0608000000000000000086
:101C790011310308A08601000100000000000000E6
:101C8900000000000000000000000000000000004B
:101C9900000000000000000000000000000000003B
:101CA900000000005886060800000000000000003F
:101CB9006D57030850C30000010000000000000038
:101CC900000000000000000000000000000000000B
:101CD90000000000000000000000000000000000FB
:101CE90000000000FC2A06080000000000000000B7
:101CF90071540308A8610000010000000000000001
:101D090000000000000000000000000000000000CA
:101D190000000000000000000000000000000000BA
:101D290000000000548B06080000000000000000BD
:101D390001220208A0860100010000000000000045
:101D4900000000000000000000000000000000008A
:101D5900000000000000000000000000000000007A
:101D690000000000188906080000000000000000BB
:101D790001A20308A00F00000100000000000000FC
:101D8900000000000000000000000000000000004A
:101D9900000000000000000000000000000000003A
:101DA90000000000608B0608000000000000000031
:101DB9000D1C0208102700000100000000000000AF
:101DC900000000000000000000000000000000000A
:101DD90000000000000000000000000000000000FA
:101DE9000000000060360608000000000000000046
:101DF9007DBC01081A41000001000000000000003C
:101E090000000000000000000000000000000000C9
:101E190000000000000000000000000000000000B9
:101E290000000000BC2A06080000000000000000B5
:101E3900F956010810270000010000000000000009
:101E49000000000000000000000000000000000089
:101E59000000000000000000000000000000000079
:101E690000000000B824060800000000000000007F
:101E7900E52902081A4100000100000000000000E5
:101E89000000000000000000000000000000000049
:101E99000000000000000000000000000000000039
:101EA900000000006C8B0608000000000000000024
:101EB900A9630108400D03000000000000000000B4
:101EC9000000000000000000000000000000000009
:101ED90000000000000000000000000000000000F9
:101EE90000000000748B06080000000000000000DC
:101EF900832F0408400D03000000000000000000CB
:101F090000000000000000000000000000000000C8
:101F190000000000000000000000000000000000B8
:101F2900000000007C8B0608000000000000000093
:101F3900290B020850C30000030000000000000044
:101F49000000000000000000000000000000000088
:101F59000000000000000000000000000000000078
:101F690000000000888B0608000000000000000047
:101F79002900050840420F00000000000000000091
:101F89000000000000000000000000000000000048
:101F99000000000000000000000000000000000038
:101FA90000000000948B06080000000000000000FB
:101FB900A545040850C3000000000000000000000F
:101FC9000000000000000000000000000000000008
:101FD90000000000000000000000000000000000F8
:101FE900000000000000803F00000000D8C401206C
:101FF9000800000000000000C8C40120080000001B
:102009006C270608B0900608BC900608C890060818
:10201900D4900608E090060860370608E45D0608D3
:10202900C85C0608709006087C8A0608A090060815
:10203900A4900608A8900608AC900608EC9006083B
:10204900F0900608F4900608405B0608F890060828
:102059001900C800F4012003000000000401000079
:10206900000700000000000000000000000200005E
:102079001000000000000000000000000700000040
:10208900B001000002000000090000005017012003
:102099000000000000000000000000000000000037
:1020A9000000000000000000000000000000000027
:1020B9000000000000000000000000000000000017
:1020C9000000000000000000000000000000000007
:1020D90000000000000000000000000000000000F7
:1020E90000000000000000000000000000000000E7
:1020F9000000803F0000803F000000000100000058
:0C210900641F0020000000002000000007
:1080000003685A1C02601970704700BF2DE9F047E1
:10801000089C002B8846074621780CBF4FF02009AA
:108020004FF03009651C29B3002A27DD2B4601E0FB
:108030000246A8B113F8016B501E002EF8D1961E0F
:1080400070B1B2460AF1FF3A49463846C0470AF1D4
:108050000103002BF6DC26EAE6702178013039B105
:10806000041B3846C047281915F8011B0029F8D110
:10807000BDE8F087002A03DC0846F9E70020EFE7B7
:10808000561EDEE72DE9F84F14461D4606464FF40E
:108090007A720023204629464E4F4FF0A9FC4E4BE2
:1080A0004E4A40F2B55C0344DFF83CA182FB030179
:1080B000D81787FB03784A4F1944984487FB037EFF
:1080C000C0EB6111C0EBE8279E4482FB01824FEABE
:1080D000E179C0EB2E4E8AFB078A0A44C1EB011BF3
:1080E000C9EB62193F4AA3EB8B0BC9EB091982FB61
:1080F0000E824FEAE77886F806B0A1EB8901DFF837
:10810000EC90C8EBAA08717189FB03134FEAEE717A
:1081100008EB4808C1EBE212A7EBC8080CFB12E21F
:10812000C0EBE35386F80480B2F5896F4FEA830011
:108130003CDA40F2DA239A4242DCB2F5B77FDFF84C
:10814000B080B4BF4FF0000E4FF0010E4FEA4E0961
:108150001FFA8EFC09EB0E0308EBC303DF8A09EB61
:108160000E010B2308EBC101163101E031F8027D4D
:10817000974218DD013BF9D1CE44012338F83E7017
:1081800000F5FA6E0132B3702046F444D71B29463D
:108190004FF47A720023A6F800C0F7704FF028FC65
:1081A0003281BDE8F88F0133DBB2E9E74FF0030C11
:1081B00040F29657DFF838804FF00609E646CEE7E2
:1081C0004FF0020C40F22947DFF824804FF00409F9
:1081D000E646C4E7C5B3A29180BC92C78988888867
:1081E00007452EC273B06D16ABAAAA2A792D0311CA
:1081F000E89B05080028F0B504DA2D234042013140
:1082000001F8013C092804464FF0010307DD03EBA8
:1082100083035B00B0FBF3F2092AF8D883B10E4860
:10822000A0FB0356B4FBF3F2092A02F1570C02F14A
:10823000300708DD03FB1244F30801F801CBEFD14E
:1082400000230B70F0BD03FB1244F30801F8017B1F
:10825000E6D100230B70F0BDCDCCCCCC884270B4FD
:108260004FF0010442D301FB04F4B0FBF4F58D425E
:10827000F9D2ECB142BB092D04FB150005F15706FC
:1082800005F130020EDD03F8016BB4FBF1F47CB1B3
:10829000B0FBF4F5092D04FB150005F1570605F1B7
:1082A0003002F0DC03F8012BB4FBF1F4002CEFD129
:1082B000002270BC1A707047B4FBF1F403F8016B34
:1082C000002CF5D0B0FBF4F5092D04FB150005F1E9
:1082D000370605F13002EFDC03F8012BB4FBF1F4B3
:1082E000002CEFD1002270BC1A7070470546002A9E
:1082F000EAD1C0E700212222342301703321C27069
:10830000022283710123817342704272C2738370AF
:108310000372837230B407253F24C571C47230BC28
:10832000704700BF002306214FF47A720170037377
:10833000C0E90123704700BF32211423312241706C
:10834000FF21C37101234271002281740372037003
:1083500083710371837042818281C28130B4302580
:108360004FF47F44C570048230BC70473249334BB0
:108370002DE9F04F804683B024274FF0000A01F525
:10838000D07B2F481022012603E0203098420AD0EB
:1083900002799742F9D102680C68A24208D02030D5
:1083A00001369842F4D1203159453AD00F79E8E7A7
:1083B00044794D79A542F2D10AEB4A099646214803
:1083C00008F80970C144DFF880C000F5727589F8BB
:1083D00001607246664603E0A84219D050F82C6F3F
:1083E000B242F9D10679A642F6D1CF6806464FF0DF
:1083F000000C96460190F268BA4215D00CF1010CBF
:108400000C36BCF1030FF6D101987246A842E5D1B3
:108410004FF0FF3C203189F802C00AF1010A5945AA
:10842000C4D103B0BDE8F08F086932698242E5D15A
:108430004FFA8CFCEEE700BF14CA0508D8090608FD
:1084400018000608D809060800000140F0B5154BD1
:108450004FF0FF34FF21172703F10C0EA446162618
:1084600015250022C170017101724172417381733F
:108470008174C17402EB8202734500EB02018554E2
:108480004E708F7081F803C00C710AD093F90620EA
:1084900006335D789E78DF7893F904C093F9054040
:1084A000E8E7F0BD489C050810B42C210124022205
:1084B0000023047041708270C3705DF8044B7047F4
:1084C000002342210122C170427183700371037045
:1084D00010B4032444705DF8044B7047FF22034638
:1084E00000F1100170B41A70023303F8012C8B42B2
:1084F000F9D10E4B4FF0FF31002203F10C060C4670
:1085000000EB42059E4200F8124069700CD093F9CE
:10851000044093F9051013F8032F00EB42059E4227
:1085200000F812406970F2D170BC70475C9C05087D
:1085300030B41D6995420AD314460A4621448D423F
:10854000996938BF2A1B214430BC4FF091BF30BC21
:10855000704700BF0020704700207047012070471F
:10856000012070470020704700207047054B002015
:1085700010B49B684FF4007414800B605DF8044BDA
:10858000704700BF589C01204222032302704370B1
:10859000704700BF08307047704700BF8161704767
:1085A0006B4B8C462DE9F04F1C680025694B87B05A
:1085B0000746B3F80AE018894FEA0E2AB3F8048098
:1085C0004FEA1E6B9A89B4EB0A0465EB0B05CDE903
:1085D0000045009C019EA0FB044500FB0655E009F8
:1085E0004FEA084440EA4560E9114FEA184510EBAC
:1085F0000408D888009C41EB0509A0FB0445CDE99F
:10860000048900FB0655B3F80280200A4FEAC834FB
:1086100040EA056029124FEA584510EB040841EB87
:1086200005090099A2FB010102FB06114FEAD05A8D
:10863000474E4AEA412A4FEAE15B1AF5FA634BF1E9
:108640000004B3F5FA6FCDE9023474F1000362DA85
:108650000524AAFB040104FB0B1100FB0BF40AFB2D
:108660000144A0FB0A012144DDE904234D104FEA37
:108670003004121B4FEA9004374863EB050344EAC9
:1086800081748D104FF0FF31B8EB0408CDE904235D
:10869000DDE9023469EB0509834274EB010325DA55
:1086A00040F6AC5000211AEB00024BEB010302FB39
:1086B00003F1A2FB022303EB4103D400DD00101BF6
:1086C00045EA527563EB0501DDE9044524184D4187
:1086D000CDE904450B24A2FB040104FB031149105E
:1086E0004FEA3000B8EB000869EB0109DDE9003220
:1086F000DDE902015343009AA2FB02AB0BEB430BF3
:108700004FEADA724FEAEB7342EA4B02801A61EBEE
:108710000301CDE9020197B17168A1FB082301FBB8
:108720000933540D5D1544EAC324DDE90423A21A7C
:1087300065EB03031D46D30B43EA45433B60BCF1A5
:10874000000F02D0029BCCF8003007B0BDE8F08FDC
:10875000B0170120C483012024FAFFFF2DE9F04166
:10876000334B344E1A897489B6F91450121B34896C
:10877000B6F904805443B6F90E70B6F920C0E2137E
:10878000B6F91240DB681544E40294FBF5F4144496
:10879000B6F90250A4F57A6EF4610EFB0EF20EFBF0
:1087A00005F512130EFB08FEB6F90C80ED125743C7
:1087B00002FB08F205EBE727B6F90050121407EBAD
:1087C000850702EB6E32B6F806E007FA0CF70232C4
:1087D00002379210A3EBA70702F500420EFB02F24C
:1087E0004FEAD23E4CF2503242FA0CF37B431BD498
:1087F0005B00B3FBFEF378B11A1202FB02F540F600
:10880000DE326A430C4D12145D4302EB254202F640
:10881000CF6203EB2213036021B10A235C430834C7
:1088200024110C60BDE8F081B3FBFEF35B00E2E7CE
:10883000B0170120A083012043E3FFFF2DE9F04F93
:10884000DFF8D8C185B0744CDCF810502288B4F938
:108850000AA0C2EB251352005B43C2EBE502B4F958
:1088600002501B136A43B4F904505D43AD1305EB8A
:10887000E225B5F5FA324FEAE57BA5614BF1FF330E
:108880004FEAEA7BCDE90023DDE90032CDE90201C0
:108890005343009A0199A2FB0289B4F90820009879
:1088A00009EB43095143D31700FB0311A2FB00233B
:1088B0000B440AFB09F116031F0308FB0B13AAFB69
:1088C000080147EA125719444FEA102A4AEA016A96
:1088D0004FEA212B1AEB0602E6884BEB070312F155
:1088E000000A43F5004BAAFB060106FB0B114A10D8
:1088F000CB1752EA030100F08C80B4F910600098A5
:1089000006FB09F1F71708FB0711A6FB0867B4F986
:108910000E8039444FEAE879B2468B46019908FB4C
:1089200001F100FB0911A8FB00898944DCF814104F
:108930004FEA4846C1F5801C4FEA49471AEB060A40
:1089400047EAD8376646B4F90C804FEACC704BEB57
:10895000070BF7174FEAC806F9070196002641EA08
:108960005C0140F6354C0096DDE9006716EB0A061F
:1089700047EB0B07801B61EB07018946A0FB0C014D
:108980000CFB09114FF034F8B4F916204E13B4F96A
:1089900014A0470B804602FB06FCD31747EAC147E9
:1089A0004FEAEA7B07FB03CCA2FB07236344564351
:1089B00007FB0366A2FB07233344560E46EAC316A1
:1089C0005F16321847EB01030AFB01F108FB0B1796
:1089D000AAFB08013944C60C46EA4136CF1412EB13
:1089E0000608B4F9122043EB07094FEA18211301D6
:1089F00041EA09610B44029A0AB11B0A1360039B06
:108A000023B105EB850580352D121D6005B0BDE84D
:108A1000F08F0023EFE700BFD8830120B0170120BB
:108A2000704770474FF400638383704738F00EB887
:108A30001D4B1B7870B5044600F1250593B1042247
:108A40001A49203051F096F828461422184951F05E
:108A500091F8012384F83A30164B1B7873B984F8E7
:108A60003B3070BD28461422134951F083F801238E
:108A700084F83A300F4B1B78002BF0D00F4A0123BB
:108A8000166855689068D16826606560A060E160EE
:108A9000D16916695569906984F83B302661656132
:108AA000A061E16170BD00BF4C8C0120148C0120DD
:108AB000FC8B01204D8C0120E41D06081C8C01203C
:108AC000014B186831F098BB948A012010B4292119
:108AD000282401220023047041708270C3705DF865
:108AE000044B70472DE9F84F0A9E8946174600212E
:108AF0002022984605460B9C50F046FF5EB17189D6
:108B0000D6E900236982C2F30F40EA81C3F30F4222
:108B1000EB8228822A8348464EF074FA17F0100A36
:108B20000FD1431E68B119F803202E2A4DD009EB4E
:108B3000030103E011F8016D2E2E3ED013F1FF3337
:108B4000F8D208280246CB464FF0000AA8BF0822F8
:108B50004FF0203305F10806494628466B602B602C
:108B6000C5F807304FF084FC5246594630464FF066
:108B70007FFC6A1EE81D12F8013FA3F16101203B52
:108B8000192998BF13708242F5D105F10B0116F82F
:108B9000013BA3F16102203B192A98BF06F8013C72
:108BA000B142F4D1C8F30F421823EF72A5F81A802E
:108BB000AA82EC612B73BDE8F88FC01A00F1FF3A6E
:108BC000BAF1030FA8BF4FF0030A082B03F1010B02
:108BD000A8BF0823CB441A46BAE700BF38B52E22F7
:108BE000002150F0D1FE40F2DC540346642140F2F3
:108BF0001A4040F26C7240F2022519745C82132113
:108C000019249882DA8240F2753040F643021D83BF
:108C100099760E250A211C77D8831E2402201A84F7
:108C2000012283F82B101872194683F82A0083F862
:108C3000225083F82C409A7383F8252083F829204A
:108C40000248BDE838402BF0A7B800BFF01D060869
:108C500010B50446002101202DF0EAFB207010BD64
:108C600038B50023451E1C460372E1B201340220D0
:108C70002DF0DEFB082C05F8010FF6D138BD00BF42
:108C800038B5002305461C4603802146013428469A
:108C900018F01CFB082CF8D10023284685F8E23098
:108CA0001946A5F8E430A5F8E630A5F8E830A5F8AF
:108CB000EA30A5F8EC30A5F8EE30A5F8F030A5F8CC
:108CC000F230BDE8384018F0C5BA00BF2DE9F04FCA
:108CD0001E4685B00C460020012115462DF024F8D3
:108CE000002E61D07319DFF870B3D54E02931CE0EB
:108CF000002D00F0DD81DBF81430AB4265D0DBF8ED
:108D00001030AB4200F09B80DBE90631AB4253D818
:108D10008D42C0F07881691A204641F041F9013551
:108D2000029B04F500749D423ED0DBF82070AF42F8
:108D3000DED8EF1BDBF830804FEAD70AD8F83030A6
:108D400007F007070AF1020A9A4503D3D8F838302A
:108D50009A4509D94146504641F0F0F8804600282E
:108D600000F05681CBF8300098F80430002B40F02A
:108D7000E980D8F82890B9F1000F00F0F781D8F811
:108D800030104346D8F80C202046AAEB010A4FF4D5
:108D90000071013504F5007407EBCA0A02EB4A22A0
:108DA000C847029B9D42C0D1002108462CF0BCFF61
:108DB000002005B0BDE8F08F8D42ACD24FF40072B8
:108DC0000021204650F0E0FDA9E7722300274FF074
:108DD000FF3C4FF0520E6122412084F8E4313946C5
:108DE00084F8E531DBF82830A27084F8E7214FF4ED
:108DF000F072E07084F8E601201D84F800E084F849
:108E000001E084F8ECC1C4F8E83184F8EDC184F8DD
:108E1000EEC184F8EFC150F0B7FD55216FF0550257
:108E2000C4F8F071C4F8F471C4F8F87184F8FC71F6
:108E300084F8FD7184F8FE1184F8FF216FE74FF488
:108E40000072002120467F4F50F09EFD5821EB20FC
:108E500002226170F82120704FF0080C61753F21EB
:108E6000902384F80DC021764FF0FF3EA3700023BD
:108E700022744FF080082273A273E372E373637469
:108E8000A374E3742375A375E3756376E376637760
:108E9000A377E37784F81AE04FF0010E03CF3E2763
:108EA000C4F80300C4F80710DBF80810DBF8100062
:108EB0002777081ADBF81C10634F2062DBF81800D4
:108EC00084F82C200E22091A84F8283084F82930DE
:108ED00029206162942184F82A3084F82B3084F8A8
:108EE0002D3084F82E3084F82F3084F8313084F817
:108EF000323084F833300D2384F846C004F1470C37
:108F000084F8420084F8431084F8442084F8453003
:108F10004E4B84F830E04FF0AA0E84F840804FF0BA
:108F2000550807CFC4F84700CCF80410CCF8082047
:108F300084F8FE8184F8FFE103CBC4F85200C4F842
:108F40005610ECE64FF400720021204650F01CFD54
:108F5000D8F84030002F63D104F120020392002B97
:108F600000F08980D8F83030112201972046009710
:108F700004F140093649FFF7B5FDD8F840301A6CC6
:108F8000002A00F08A801B6B112201974FF4E07ACF
:108F9000039800972F49FFF7A5FDD8F8448018F1F2
:108FA000000318BF0123002B3FF4B9AE47460394DA
:108FB0000CE00024AAF1200AC146CDE900C4FFF765
:108FC00091FDBF6CEFB1BAF11F0F1AD997F804E009
:108FD0001122484609F12008396807F11C0C3B6B47
:108FE000BEF1000FE5D17A79AAF1200A3C69C146A9
:108FF00042F02102CDE900C4FFF774FDBF6C002FE1
:10900000E1D1039C8BE6E91A204640F0C9FF86E6D1
:10901000231F04F5FE7243F8046F9A42FBD17EE6EB
:10902000002BD8F8448014BF02230123B8F1000FAD
:10903000C3EB071714BF012300232AD042460EE0DA
:10904000DEADBEEF041E0608101E0608201E060830
:10905000FC1D0608001E0608589C012033B1926CC6
:10906000013F131C18BF0123002FF7DC9046A146D7
:109070004FF4007A97E7DBF80C103B460197082283
:1090800000972046DDF80C904FF4F07AFFF72AFDA8
:1090900083E7A1464FF4007A85E701973B460097A6
:1090A000112203984FF4E07A4749FFF71BFD74E75C
:1090B0004FF400722946204650F066FC80220C23B3
:1090C00084F8B85184F8BE2184F8C2313F4BDBF8F4
:1090D0001020DBF8080083FB02314FEAE27C84F8C1
:1090E000B951CCEB213184F8BA5184F8BB51B1F5B8
:1090F000806F84F8BC5184F8BD51C4F8C621C4F80F
:10910000CA0142DBFF2384F8BF3184F8C13184F8FF
:10911000C031421E2D4BD71783FB0231C7EB2131E3
:10912000B1F5806F29DA2A4B84F8C511891083FBC9
:109130000203284821F03F011344C7EB6313C3EB3C
:10914000831780FB03C0D21B1844DF170132C7EB23
:10915000E0100A43034484F8C42184F8C331552243
:10916000AA2384F8FE2184F8FF31D8E549464FF45C
:109170000072204650F008FCD1E5FF2384F8C3318B
:1091800084F8C53184F8C431E9E7114B84F8C11182
:10919000891083FB02730F4F21F03F011344CCEB86
:1091A0006313C3EB831C87FB03E7A2EB0C021F4492
:1091B0004FEAE37C0132CCEBE7170A433B4484F8E7
:1091C000C02184F8BF31A4E7001E06089755454129
:1091D00083200882818080802DE9F0410D460121A5
:1091E0001C46164608462CF09FFDBCB10F4F05EB00
:1091F000442801E008F03AFC3A680023294630464A
:1092000014691A46A0470028F4D108F02FFC002862
:10921000FBD005F5007501364545EDD10021012053
:109220002CF082FD0020BDE8F08100BF409C0120B1
:109230002DE9F0410D4601211C46164608462CF04A
:1092400073FDA4B10D4F05EB44283A68002329466D
:10925000304694681A46A0470028F6D008F006FC6D
:109260000028FBD005F5007501364545EDD10021FC
:1092700001202CF059FD0020BDE8F081409C012028
:1092800008B508F0F3FB80F00100404240B208BD91
:1092900038B514460D4608F0DBFB4FF40073026846
:1092A00000202A60238038BD002108B508462CF034
:1092B0003BFD40F02BFE08F0D9FB0028FBD001213C
:1092C00000202CF031FD002008BD00BF437F30B5E9
:1092D000044683B01BB90120637703B030BD05237A
:1092E0000568ADF8043000BFE86836F073FA6A46E6
:1092F00001A9022368684CF08DFBE86836F070FA2B
:1093000000BF9DF8013003F0010383F00100637793
:1093100003B030BDF8B5074C05460F46266803E09C
:1093200023689B1BBB4204D82846FFF7CFFF0028C9
:10933000F6D0F8BD90920120F0B590F81CC083B033
:1093400000254FF0030E04461746009508461E46BA
:109350008DF804508DF800E0BCF1000F2ED00A0EFD
:109360000DF102038DF80120050C9870020A062108
:109370001D7020465A70FFF7CDFFE8B1236800BF8B
:10938000D86836F027FA227F23686946002A4FF012
:109390000002586814BF052304234CF03BFB2168EE
:1093A0003A463346486800214CF034FB2368D868BD
:1093B00036F016FA00BF304603B0F0BD0DF10103E0
:1093C000D2E700BF2DE9F04F87B00346AC4C0290C6
:1093D0004068DA680368AB4923F04003884218BF4D
:1093E000A042036003680ABF30243824012123F01F
:1093F000380318BF002123430360036843F0400390
:1094000003601AB1938812681B04936140F2E93338
:1094100002E0002B00F09E818268013B12F0020FF7
:109420009BB2F6D06B2240F2E933027302E0002BCC
:1094300000F07A818268013B12F0010F9BB2F6D0F6
:10944000C368029B586840F2E93302E0002B00F049
:1094500092818268013B12F0020F9BB2F6D080220B
:1094600040F2E933027302E0002B00F0848182684D
:10947000013B12F0010F9BB2F6D0C368029BDB6880
:1094800013B11A689B88936106237F4C7F4FDFF8E6
:1094900010A27F4D7F4E039396234FF01008DFF804
:1094A00004E20193DAF80430C3F30803002B40F020
:1094B0009D80EFF31183002B40F098802068AA680C
:1094C00023689842FAD133689A42F7D8D7F800C097
:1094D0004FF47A7101FB0CF39B1AB3FBFCF301FB15
:1094E00000304FF47A7C4FF00109DAF80430C3F30E
:1094F0000803002B5CD1EFF31183002B58D12368B4
:10950000A96822689342FAD132689142F7D83A6842
:109510000CFB02FBABEB0101B1FBF2F10CFB031303
:109520001B1AB3F57A7FE0D3019B013B0193B9D1BC
:10953000029BDA6822B1938812681B049361029B34
:10954000586840F2E93301E0002B6ED08268013B9D
:1095500012F0020F9BB2F7D0F52240F2E93302730A
:1095600001E0002B71D08268013B12F0010F9BB229
:10957000F7D0C368029B586801230DF11702002140
:109580004CF048FA029BDB6813B11A689988916124
:109590009DF81720682A00F08780039B013B13F099
:1095A000FF0303937FF478AF184607B0BDE8F08F50
:1095B000EFF3118188F31288D5F808B02B68DB032C
:1095C00003D5CEF80090D5F808B02368C9B2DEF80C
:1095D000002081F31188396813440CFB01F2A2EBDF
:1095E0000B02B2FBF1F20CFB032399E7EFF31183BB
:1095F00088F31288A9682A68D20303D50122CEF81D
:109600000020A9682068DBB2DEF8009083F311889F
:109610004FF47A72D7F800C0484402FB0CF35B1A8F
:10962000B3FBFCF302FB00305BE71B4A904207D020
:10963000134B984274D003F5806398429CD1022367
:10964000164AD82101FB032312E01349029A8842EB
:10965000526807D00A4B984264D003F58063984261
:109660000CD102230D494FF0D80C10460CFB03130C
:109670009A89013292B29A819B897DE710467BE7F5
:1096800000380040003C004090920120949201205C
:1096900010E000E0989201200030014078A60120FF
:1096A00000ED00E08C9201201BB19A881968120429
:1096B0008A61029B586840F2E93302E0002B00F017
:1096C00087808268013B12F0020F9BB2F6D08C2299
:1096D00040F2E933027301E0002B62D08268013B63
:1096E00012F0010F9BB2F7D0C368029B58680123A8
:1096F0000DF1170200214CF08DF9029BDB6813B1CC
:109700001A689B8893619DF81730142B04D3182B8B
:109710006CD9543B062B69D9002007B0BDE8F08F07
:1097200001238DE701239DE7344A904206D0344B54
:1097300098421CD000293FF484AE02230298D8211D
:10974000304A406801FB03239A89013292B29A8120
:109750009B8978E6294A904206D0294B984208D046
:1097600000293FF470AE0223264AD821EAE70123FC
:10977000E4E70123F8E7214A904208D0204B9842C1
:1097800038D003F5806398427FF478AE02231D4AF7
:10979000D82101FB03239A89013292B29A819B89D5
:1097A0006CE6164A904207D0154B984220D003F53C
:1097B0008063984299D102230298D821114A4068C7
:1097C00001FB03239A89013292B29A819B898EE729
:1097D0000A4A904207D00A4B98420DD003F58063A5
:1097E000984284D10223074AD821E9E70320DCE626
:1097F0000123E1E70123CAE70123F4E70030014038
:109800000038004078A6012010B500F10C040022B9
:109810002121204636F0C8FEFC222021204636F0C9
:10982000C3FE40222421204636F0BEFE0C22232116
:10983000204636F0B9FE00222221204636F0B4FE42
:10984000642030F033FB012010BD10B500F10C0492
:1098500001220B21204636F0A7FE20B11D2209214E
:10986000204636F0A1FE00F0010010BD10B500F159
:109870000C0470220021204636F096FE20220121A1
:10988000204636F091FE00220221204636F08CFE62
:10989000642030F00BFB012010BD0122482136F07E
:1098A00083BE0122582136F07FBE054BF42193F888
:1098B00020209201343202F0FC0236F075BE00BF67
:1098C000A08301202E22F42136F06EBE3122F42135
:1098D00036F06ABE13B506230C466A4628210C30C2
:1098E00036F028FBF0B19DF8013004219DF80020EE
:1098F00042EA03229DF8033012B292FBF1F2228079
:109900009DF8022042EA03229DF8043012B292FB35
:10991000F1F262809DF8052043EA02231BB293FB1B
:10992000F1F3A38002B010BD7FB5002500F10C0655
:109930000C4601230D800DF107024D8030468D80CD
:10994000062136F0F7FA10B9002004B070BD9DF87A
:1099500007305B07F8D5062302AA2946304636F0C1
:10996000E9FA0028F0D09DF809209DF8083043EA74
:1099700002239DF80B2023809DF80A3043EA02233E
:109980009DF80D2063809DF80C3043EA0223A380EC
:10999000DBE713B506230C466A4603210C3036F08C
:1099A000C9FAA0B19DF800209DF8013043EA0223D6
:1099B0009DF8022023809DF8033043EA02239DF89E
:1099C0000420A3809DF8053043EA0223638002B09F
:1099D00010BD07B5032301AA002136F0ABFA9DF8AC
:1099E00005309DF804001B0243EA00439DF8060081
:1099F000184303B05DF804FB08B5FFF7EAFF014B1D
:109A0000586008BDB017012008B5FFF7E2FF014B11
:109A1000186008BDB017012007B5032301AAF6217D
:109A200036F088FA9DF805309DF804201B0243EAC1
:109A300002439DF806201343054AB2F92020C2F1E3
:109A40000802D340034AD36003B05DF804FB00BFB3
:109A5000A0830120B017012007B5022301AAF62137
:109A600036F068FA9DF804209DF8053043EA022399
:109A7000024A138103B05DF804FB00BFB017012058
:109A800007B506236A46F72136F054FA9DF80130EF
:109A90009DF800101B010B4A43EA01339DF80210A8
:109AA00043EA11139DF8031053619DF804301B0124
:109AB00043EA01339DF8051043EA1113136103B023
:109AC0005DF804FBB01701202DE9F04F90F86530E8
:109AD0008BB00546002B40F0A78405AB01936B6962
:109AE000A94C1A68A94922F04002E8698B4218BFC4
:109AF000A3421A601A680ABF30243824012122F0D8
:109B0000380218BF002122431A601A6842F040024E
:109B10001A6018B1828800681204826140F2E9324A
:109B200004E0013A92B2002A00F07B859868800731
:109B3000F7D56B2040F2E932187304E0013A92B293
:109B4000002A00F06E859868C707F7D5DB686A6958
:109B500040F2E93304E0013B9BB2002B01F0E080CE
:109B600091688E07F7D5802140F2E933117304E044
:109B7000013B9BB2002B01F0D3809168CC07F7D555
:109B8000D368EB6913B11A689B8893619623804C64
:109B9000DFF808A24FF0100BDFF804E27D49DFF890
:109BA00004C27D4E02930395DEF80430C3F308032C
:109BB000002B40F01484EFF31183002B40F00F844E
:109BC00020688A6823689842FAD133689A42F7D8A5
:109BD000DAF800504FF47A7707FB05F39B1AB3FBD2
:109BE000F5F307FB00304FF47A77DEF80430C3F367
:109BF0000803002B40F0B783EFF31183002B40F0F4
:109C0000B28323688D6822689342FAD13268954204
:109C1000F7D8DAF8008007FB08F2521BB2FBF8F223
:109C200007FB03231B1AB3F57A7FDED3029B013BAC
:109C30000293B9D1039DEA691AB1938812681B0493
:109C400093616B6940F2E93204E0013A92B2002A72
:109C500001F0508099688807F7D5682140F2E93211
:109C6000197304E0013A92B2002A01F02580996844
:109C7000C907F7D5DB686B6940F2E93204E0013AC5
:109C800092B2002A01F0018099688F07F7D503216D
:109C900040F2E932197304E0013A92B2002A00F06E
:109CA000F4879968CE07F7D5DB68EB6913B11A68BA
:109CB0009B8893619623DFF8E8E04FF0100B35495D
:109CC000DFF8E0C0344E02930395DEF80430C3F3AE
:109CD0000803002B40F06483EFF31183002B40F066
:109CE0005F8320688A6823689842FAD133689A4271
:109CF000F7D8DAF800504FF47A7707FB05F39B1A90
:109D0000B3FBF5F307FB00304FF47A77DEF804304D
:109D1000C3F30803002B40F00983EFF31183002BFA
:109D200040F0048323688D6822689342FAD1326838
:109D30009542F7D8DAF8008007FB08F2521BB2FB15
:109D4000F8F207FB03231B1AB3F57A7FDED3029BDD
:109D5000013B0293B9D1039DEA691AB19388126855
:109D60001B0493616B6940F2E93204E0013A92B25C
:109D7000002A01F0258099688F07F7D56B2140F202
:109D8000E932197315E000BF00380040003C004084
:109D90009092012010E000E098920120949201201E
:109DA00000ED00E08C920120013A92B2002A00F00E
:109DB000D2879968CE07F7D5DB686B6940F2E93244
:109DC00004E0013A92B2002A00F0DD879968880722
:109DD000F7D5032140F2E932197304E0013A92B257
:109DE000002A00F0D0879968C907F7D5DB68EB69CE
:109DF00013B11A689B8893610F202FF0F9FFEA696D
:109E00001AB1938812681B0493616B6940F2E932BE
:109E100004E0013A92B2002A00F0278799688F0780
:109E2000F7D56A2140F2E932197304E0013A92B29F
:109E3000002A00F0E9869968CE07F7D5DB686B69E0
:109E400040F2E93204E0013A92B2002A00F0C586FD
:109E500099688807F7D5102140F2E932197304E0B8
:109E6000013A92B2002A00F0B8869968C907F7D57E
:109E7000DB68EB6913B11A689B8893610F202FF0A0
:109E8000B7FFEA691AB1938812681B0493616B6982
:109E900040F2E93204E0013A92B2002A00F0D286A0
:109EA00099688F07F7D56C2140F2E932197304E005
:109EB000013A92B2002A00F078869968CE07F7D569
:109EC000DB686B6940F2E93204E0013A92B2002AA1
:109ED00000F04E8699688807F7D5002140F2E932F4
:109EE000197304E0013A92B2002A00F041869968A1
:109EF000C907F7D5DB68EB6913B11A689B889361D2
:109F00000F202FF075FFEA6995F864101AB1938855
:109F100012681B0493616B6940F2E93204E0013A74
:109F200092B2002A00F0158698688707F7D51920A5
:109F300040F2E932187304E0013A92B2002A00F0CC
:109F4000EA859868C607F7D5DB686B6940F2E932A5
:109F500004E0013A92B2002A00F0C68598688007B2
:109F6000F7D5197340F2E93204E0013A92B2002ABF
:109F700000F0BA859968C907F7D5DB68EB6913B1BA
:109F80001A689B8893610F202FF032FFEA691AB19B
:109F9000938812681B0493616B6940F2E93204E014
:109FA000013A92B2002A00F08C8599688F07F7D5A4
:109FB0001B2140F2E932197304E0013A92B2002AFF
:109FC00000F04A859968CE07F7D5DB686B6940F2E7
:109FD000E93204E0013A92B2002A00F0558599680E
:109FE0008807F7D5182140F2E932197304E0013AE5
:109FF00092B2002A00F048859968C907F7D5DB6856
:10A00000EB6913B11A689B8893610F202FF0F0FE63
:10A01000EA691AB1938812681B0493616B6940F274
:10A02000E93204E0013A92B2002A00F0A68499686D
:10A030008F07F7D51C2140F2E932197304E0013A89
:10A0400092B2002A00F0C8849968CE07F7D5DB6881
:10A050006B6940F2E93204E0013A92B2002A00F062
:10A06000A48499688807F7D5182140F2E93219735A
:10A0700004E0013A92B2002A00F097849968C90777
:10A08000F7D5DB68EB6913B11A689B8893610F20E1
:10A090002FF0AEFEEA691AB1938812681B0493612F
:10A0A0006B6940F2E93204E0013A92B2002A00F012
:10A0B000A98499688F07F7D5372140F2E9321973DF
:10A0C00004E0013A92B2002A00F03F849968CE077A
:10A0D000F7D5DB686B6940F2E93204E0013A92B2ED
:10A0E000002A00F0158499688807F7D5102140F2FE
:10A0F000E932197304E0013A92B2002A00F00884B0
:10A100009968C907F7D5DB68EB6913B11A689B88B2
:10A1100093610F202FF06CFEEA691AB193881268E0
:10A120001B0493616B6940F2E93204E0013A92B298
:10A13000002A00F0DE8399688F07F7D5382140F2B6
:10A14000E932197304E0013A92B2002A00F0B483B4
:10A150009968CE07F7D5DB686B6940F2E93204E015
:10A16000013A92B2002A00F0918399688807F7D5E6
:10A17000012140F2E932197304E0013A92B2002A57
:10A1800000F084839968C907F7D5DB68EB6913B1E0
:10A190001A689B8893610F202FF02AFE6B69A049F3
:10A1A0001A688B4222F040021A6000F038829D4A01
:10A1B000934200F0348210211A68012022F0380204
:10A1C0000A431A601A6842F040021A602FF010FE2B
:10A1D0006B6994491A68924822F040028B4218BF7A
:10A1E00083421A601A680ABF30213821012022F008
:10A1F000380218BF00200A431A601A6842F0400271
:10A200001A6095F85F20032A00F2078295F8621021
:10A2100001290AD0022940F0008295F8672002F057
:10A22000FB02022A0CBF00210721EE691EB1B28891
:10A2300036681204B26140F2E93204E0013A92B2A7
:10A24000002A00F0D5829E68B707F7D51A2640F29B
:10A25000E9321E7304E0013A92B2002A00F0C8828B
:10A260009E68F607F7D5DB686A6940F2E93304E0D7
:10A27000013B9BB2002B00F0A38290688007F7D5CA
:10A28000117340F2E93304E0013B9BB2002B00F074
:10A2900097829168C907F7D5D368EB6913B11A683B
:10A2A0009B88936101202FF0A3FD6E695C4A33689F
:10A2B000964223F04003336000F0AD81594B9E423B
:10A2C00000F0A981102037680623019A432127F066
:10A2D0003807074305F110003760376847F040073B
:10A2E000376035F027FE002800F092819DF8162097
:10A2F0009DF817309DF8146043EA02239DF815106D
:10A300009DF818009DF819201BB241EA062142EA87
:10A310000022A5F85630A5F85410A5F858205BB2D5
:10A32000013300F0C5800BB0BDE8F08FEFF3118270
:10A330008BF312888D680B68DB0303D50123CCF8FF
:10A3400000308D682368D2B2DCF8009082F3118867
:10A35000DAF800804B4407FB08F2521BB2FBF8F21C
:10A3600007FB0323EFE4EFF311828BF312888D6870
:10A370000B68DB0303D50123CCF800308D6823681C
:10A38000D2B2DCF8009082F31188DAF800804B44F6
:10A3900007FB08F2521BB2FBF8F207FB032341E470
:10A3A000EFF311828BF312888D680B68D80303D505
:10A3B0000123CCF800308D682368D2B2DCF80000AD
:10A3C00082F311884FF47A72DAF80070184402FBB5
:10A3D00007F35B1BB3FBF7F302FB003094E4EFF3EE
:10A3E00011828BF312888D680B68D80303D5012383
:10A3F000CCF800308D682368D2B2DCF8000082F31C
:10A4000011884FF47A72DAF80070184402FB07F3EF
:10A410005B1BB3FBF7F302FB0030FFF7E4BB00BFAD
:10A4200000380040003C00401C0903F00F03013CD1
:10A43000032C00F2A581C54A32F8140040FA03F259
:10A44000D20740F19D81012202FA03F3013B18403B
:10A450004DF01EFBBE4BBF4A1B5D184412EBC004FF
:10A4600000F08E8152F83000A38806691E407FF408
:10A4700034ABB3FA83F22027B74905F10C0EC2F1D1
:10A480001F02A771E671571CE96040F07F8105AAA1
:10A490000192B3FA83F30122C3F11F0312FA03F30B
:10A4A0003FF41DABAD490A6813430B60FFF717BBC0
:10A4B00095F9543001337FF436AF0A23A84FA94DE4
:10A4C000A94E02933DF006FC4FF010084FF4FA73CA
:10A4D000DFF8A4E201937B68C3F30803002B40F08C
:10A4E000F580EFF31183002B40F0F0802068AA681C
:10A4F00023689842FAD133689A42F7D8DAF800C054
:10A500004FF47A7101FB0CF39B1AB3FBFCF301FBD4
:10A5100000304FF47A7C4FF001097B68C3F30803E5
:10A52000002B40F0B480EFF31183002B40F0AF809C
:10A530002368A96822689342FAD132689142F7D819
:10A54000DAF800200CFB02FBABEB0101B1FBF2F1EE
:10A550000CFB03131B1AB3F57A7FDED3019B013B7F
:10A560000193B8D107204FF010083DF007FA4FF4DF
:10A570007A73DFF804E201937B68C3F30803002BCE
:10A5800040F0C380EFF31183002B40F0BE802068C1
:10A59000AA6823689842FAD133689A42F7D8DAF861
:10A5A00000C04FF47A7101FB0CF39B1AB3FBFCF370
:10A5B00001FB00304FF47A7C4FF001097B68C3F354
:10A5C0000803002B44D1EFF31183002B40D1236803
:10A5D000A96822689342FAD132689142F7D8DAF832
:10A5E00000200CFB02FBABEB0101B1FBF2F10CFB19
:10A5F00003131B1AB3F57A7FE0D3019B013B019350
:10A60000BAD1029B013B02937FF45CAF4CF088FC13
:10A61000B5F9563083E6082055E6002105E6082105
:10A62000CAE55248834200F0A980514A934200F0A3
:10A630008B8000293FF48BAA02234E4AD82101FBCC
:10A6400003239A89013292B29A819B89FFF77FBADC
:10A65000EFF3118188F31288D5F808B02B68DB037B
:10A6600003D5CEF80090D5F808B02368C9B2DEF85B
:10A67000002081F31188DAF8001013440CFB01F27A
:10A68000A2EB0B02B2FBF1F20CFB0323B1E7EFF3F9
:10A69000118188F31288D5F808B02B68DB0303D545
:10A6A000CEF80090D5F808B02368C9B2DEF80020D3
:10A6B00081F31188DAF8001013440CFB01F2A2EBCD
:10A6C0000B02B2FBF1F20CFB032343E7EFF3118320
:10A6D00088F31288A9682A68D20303D50122CEF82C
:10A6E0000020A9682068DBB2DEF8009083F31188AF
:10A6F0004FF47A72DAF800C0484402FB0CF35B1A9C
:10A70000B3FBFCF302FB003003E7EFF3118388F3A4
:10A710001288A9682A68D20303D50122CEF8002046
:10A72000A9682068DBB2DEF8009083F311884FF44B
:10A730007A72DAF800C0484402FB0CF35B1AB3FBF0
:10A74000FCF302FB003035E7012376E70C00060836
:10A750001400060854900120452A0508003C0140D9
:10A7600000ED00E010E000E0989201200030014090
:10A770000038004078A601208C92012013465CE747
:10A78000AA4B05AAEB600192FFF7A9B9A84F05A94A
:10A79000DFF8C0C207EB02080593A64B4CF822E095
:10A7A00098F88480069301910796CDE9086607F032
:10A7B00095FDA14B13F80820F02A2DD8A38868E650
:10A7C0009E498A4208D09E4B9A420FD003F580637F
:10A7D0009A427FF462AD02239A4AD82101FB0323F7
:10A7E0009A89013292B29A819B8956E50123F3E757
:10A7F000924EB34243D0924A93423ED000283FF457
:10A8000033AD02238F4AD82000FB03239A890132FB
:10A8100092B29A819B8927E5F0208B4907EB0802C9
:10A8200003F80800CB6892F89420C3F3022351B2D6
:10A83000C3F107001F1D042828BF0420062F88BF6E
:10A84000DE1E4FF0FF33002903FA00F36FEA030323
:10A8500003F0030303FA06F34FEA0313DBB210DB42
:10A8600002F01F07794801224E090144BA4081F8DD
:10A87000003340F82620A3880BE60123C2E71346E5
:10A88000C0E702F00F0272498B5497E76B498B4285
:10A890002DD06B4A934228D002F5806293427FF418
:10A8A00075AC0223674AD82101FB03239A89013240
:10A8B00092B29A819B8969E460498B4208D0604AD0
:10A8C000934210D002F5806293427FF445AC02229D
:10A8D0005C49D8206B6900FB02129189013189B271
:10A8E0009181928939E40122F2E70123DAE71346E4
:10A8F000D8E752498B4208D0514A93421FD002F503
:10A90000806293427FF429AC02224E49D820E2E7CC
:10A910004A498B4217D04A4A934212D002F58062CC
:10A9200093427FF4F1AB0223464AD82101FB032373
:10A930009A89013292B29A819B89FFF7E5BB012285
:10A94000E3E70123F0E71346EEE73C498B4208D0EA
:10A950003B4A934265D002F5806293427FF4BAABE2
:10A9600002223849D8206B6900FB0212918901311B
:10A9700089B291819289FFF7AEBB30498B4209D0F1
:10A980002F4A934200F0978002F5806293427FF451
:10A9900060AB02222B49D82000FB021291890131C1
:10A9A00089B291819289FFF754BB24498B4227D009
:10A9B000234A934222D002F5806293427FF462AB35
:10A9C0000223204AD82101FB03239A89013292B243
:10A9D0009A819B89FFF756BB18498B4208D0184AC9
:10A9E000934209D002F5806293427FF431AB022298
:10A9F0001449D8206B69CFE70122F9E70123E0E78A
:10AA00001346DEE70D498B4208D00D4A93420AD027
:10AA100002F5806293427FF45EAB02220949D8209E
:10AA2000A2E701229DE70122F8E700BF452A0508B9
:10AA3000E89B05080000111010C4012000300140FF
:10AA40000038004078A6012000ED00E000E100E0C1
:10AA500014ED00E0D0C30120AE498B4208D0AE4ACD
:10AA600093423DD002F5806293427FF4AFAA022266
:10AA7000AA49D8206B6900FB02129189013189B281
:10AA800091819289FFF7A3BAA2498B4217D0A24ABB
:10AA9000934212D002F5806293427FF4B1AA02235E
:10AAA0009E4AD82101FB03239A89013292B29A81EE
:10AAB0009B89FFF7A5BA01226CE70123F0E7134653
:10AAC000EEE794498B4208D0934A93420AD002F5AC
:10AAD000806293427FF47BAA02229049D820CAE781
:10AAE0000122C5E70122F8E78A498B422FD08A4A22
:10AAF00093422AD002F5806293427FF43FAA022358
:10AB0000864AD82101FB03239A89013292B29A81A5
:10AB10009B89FFF733BA7F48834208D07E4A93422D
:10AB200011D002F5806293427FF40FAA02227B4883
:10AB3000D8266B6906FB02029089013080B29081B1
:10AB40009289FFF703BA0122F1E70123D8E7134600
:10AB5000D6E77048834208D06F4A93421FD002F56F
:10AB6000806293427FF4F2A902226C48D826E1E782
:10AB700068498B4217D0684A934212D002F580622E
:10AB800093427FF4B8A90223644AD82101FB03232E
:10AB90009A89013292B29A819B89FFF7ACB901225E
:10ABA000E3E70123F0E71346EEE75A498B4208D06A
:10ABB000594A934255D002F5806293427FF481A9AD
:10ABC00002225649D8206B6900FB0212918901319B
:10ABD00089B291819289FFF775B94E498B422FD086
:10ABE0004D4A93422AD002F5806293427FF441A9F4
:10ABF00002234A4AD82101FB03239A89013292B2E7
:10AC00009A819B89FFF735B942498B4208D0424A65
:10AC1000934211D002F5806293427FF410A9022280
:10AC20003E49D8206B6900FB02129189013189B23B
:10AC300091819289FFF704B90122F1E70123D8E756
:10AC40001346D6E733498B4208D0334A93420AD0A1
:10AC500002F5806293427FF435A902222F49D82061
:10AC6000B2E70122ADE70122F8E72A498B4209D079
:10AC7000294A934200F09E8002F5806293427FF45D
:10AC8000DFA802222549D820CDE722498B422FD0C8
:10AC9000214A93422AD002F5806293427FF405A8AC
:10ACA00002231E4AD82101FB03239A89013292B262
:10ACB0009A819B89FEF7F9BF16498B4208D0164A44
:10ACC000934211D002F5806293427EF4D4AF022207
:10ACD0001249D8206B6900FB02129189013189B2B7
:10ACE00091819289FEF7C8BF0122F1E70123D8E7DD
:10ACF0001346D6E707498B4208D0074A934226D02D
:10AD000002F5806293427EF4B7AF02220349D82055
:10AD1000E1E700BF003001400038004078A6012084
:10AD200031498A4208D0314B9A4212D003F58063F0
:10AD30009A427EF426AF02232D4AD82101FB032339
:10AD40009A89013292B29A819B89FEF71ABF012239
:10AD5000DCE70123F0E724498B4208D0234A9342E1
:10AD60003DD002F5806293427FF427A80222204959
:10AD7000D8206B6900FB02129189013189B291815F
:10AD80009289FFF71BB818498B4217D0174A934294
:10AD900012D002F5806293427FF429A80223144A5C
:10ADA000D82101FB03239A89013292B29A819B89AF
:10ADB000FFF71DB8012265E70123F0E71346EEE730
:10ADC00009498B4208D0094A93420AD002F58062B1
:10ADD00093427EF4F3AF02220549D820CAE701224C
:10ADE000C5E70122F8E700BF00300140003800400D
:10ADF00078A6012020B10078B0FA80F040097047B1
:10AE00000120704708B520214EF08DFE03461846FC
:10AE10001BB102780133202AF9D008BD037903F071
:10AE20001803082B0AD002D82BB100207047102B32
:10AE300017D0182BF9D1B0F80B007047124BB0F8AF
:10AE40000B0093F90030591C09D1104B1B78C3EB50
:10AE5000C30203EB820300EB830080B27047DBB2D6
:10AE6000F5E70B4BB0F80B0093F900305A1C09D1F1
:10AE7000064B5B7803EB430203EB820300EB4300DA
:10AE800080B27047DBB2F5E7050D01208CA20120EE
:10AE9000040D0120F0B5067906F0E003402B09D13E
:10AEA00044794FF0FF350023012006F00706A34246
:10AEB0000BD1F0BD602B4FF0010403D1457904FAAA
:10AEC00005F5F0E74FF0FF35EDE7042E0CD8DFE88D
:10AED00006F0030D18242E0030B1C85CD75C784012
:10AEE00028420CBF012000200133E0E70028FBD0FE
:10AEF000C856D756A0EB070CDCF1000040EB0C0065
:10AF0000F2E70028F0D031F8130032F813707840DF
:10AF100028420CBF01200020E6E70028E4D031F9E8
:10AF2000130032F91370C71B78427841DCE7002820
:10AF3000DAD051F8230052F82370784028420CBF31
:10AF400001200020D0E7024B0146186835F07EBD95
:10AF50008889012038B5441E054D14F8011F286862
:10AF600019B9BDE8384035F0EBBC35F06FFDF4E7BA
:10AF7000888901200048EDE78052060808B5FFF7F0
:10AF8000E9FFBDE80840F5E710B504460348FFF7C0
:10AF9000E1FF2046BDE81040F0E700BF281D06088D
:10AFA00038B5074C074DAC4203D3074B00221A704B
:10AFB00038BD6288D4E901014DF05AFA1434F2E741
:10AFC000E8010008D80700082C8B012003682DE950
:10AFD000F0410D46C3F30D0186B00746394E0029F6
:10AFE00044D1394A0120394C0223A242CDE9021151
:10AFF000CDE904031ED936498A4225D901F580419D
:10B000008A4218D9334B9A4220D903F580339A42A9
:10B010001ED903F500339A421CD903F500339A4236
:10B020001AD903F500339A4218D905203CF0F2FFF3
:10B030004BF076FF0B460393337D012B10D14FF07D
:10B04000FF3006B0BDE8F0810346F4E70323F2E7E2
:10B050000423F0E70523EEE70623ECE70723EAE7FE
:10B0600001A902A809F000FC0028E8D1337D012BDA
:10B0700002D16FF00100E4E70123D7F800803375B7
:10B080003FF07CFAB0B9144C236923F44073236178
:10B09000236943F400732361236943F001032361AF
:10B0A000C8F80050BFF34F8F3FF068FA236923F0D0
:10B0B00001032361002333750028DAD13B68043390
:10B0C0003B60BEE7CC9F012000400008FF3F000826
:10B0D000FF7F0008FFFF0008003C0240F8B504466F
:10B0E0000D468E180027B542206900D1F8BDE368EF
:10B0F000591C2344E160042915F8012B1A72F2D17E
:10B1000018B9A1682046FFF761FFC4E90370EAE7B8
:10B11000024A136823EA00001060704764A501200A
:10B12000DFED2A7AB4EEE70AF1EE10FA4BDDDFED3F
:10B13000286A9FED287AB4EEC70A70EE667AF1EEBF
:10B1400010FAB0EE670AF6DC9FED237AF4EEC77AC8
:10B15000F1EE10FA34D5DFED1E6A9FED207AF4EEA1
:10B16000C77A37EEA60AF1EE10FAF0EE407AF6D47E
:10B17000DFED1B7AB4EEE70AF1EE10FA14DDDFED35
:10B18000137A37EEC00A60EE006A9FED166A9FEDF3
:10B19000167ADFED167AA6EE867A20EE266AE6EEBD
:10B1A000877AA6EE270A7047DFED117AB4EEE70A38
:10B1B000F1EE10FAE7D5DFED087A37EEC00AE2E7E4
:10B1C000B0EE670AD4E7F0EE407ABDE7DB0F494006
:10B1D000DB0FC940E4CB1641DB0F49C0E4CB16C1FD
:10B1E000DB0FC93F92E741B99730083C15A82ABE4A
:10B1F000DB0FC9BFB0EEC07AF0EEE06A86FE876A68
:10B20000B5EE406AF1EE10FA3DD0C6FEC75AC5EE63
:10B21000867ADFED1E2ADFED1E3ADFED1E4A9FED36
:10B220001E5A9FED1E3AB7EE006A9FED1D4ADFEDF4
:10B230001D5AE7EEE23AA7EE834AE7EEA34AA7EEED
:10B24000846AA7EEA45AE7EE855AC5EE867AF4EE34
:10B25000C76AF1EE10FA03D59FED137A77EE677A9D
:10B26000F5EEC00AF1EE10FA03D59FED107A77EEF5
:10B27000677AB5EEC00AF1EE10FA48BFF1EE677AD0
:10B28000B0EE670A7047DFED077AE0E739094E3D17
:10B29000E3B59E3E88FA163E45FE7F3F99FB243F6C
:10B2A00069A2163EA7DFA834DB0FC93FDB0F494078
:10B2B000DFED307A30EE277AFDEEC76A16EE903A6F
:10B2C0002033402B02D99FED2C0A7047B4EEE70AD9
:10B2D000F1EE10FA4BDD9FED296ADFED296AB4EE3D
:10B2E000E67A77EE467AF1EE10FAB0EE677AF6DC9F
:10B2F0009FED247AF4EEC77AF1EE10FA34D5DFED43
:10B300001F6A9FED217AF4EEC77A37EEA60AF1EEB6
:10B3100010FAF0EE407AF6D4DFED167AB4EEE70AD2
:10B32000F1EE10FA1BDCDFED197AB4EEE70AF1EE6C
:10B3300010FA03D5DFED137A37EEC00A60EE006A2B
:10B340009FED136A9FED137ADFED137AA6EE867AEE
:10B3500020EE266AE6EE877AA6EE270A7047DFED32
:10B360000F7A37EEC00AE9E7B0EE670AD4E7F0EEED
:10B37000477ABDE7DB0FC93F00000000DB0FC94083
:10B38000E4CB1641DB0F49C0E4CB16C1DB0FC9BFCC
:10B3900092E741B99730083C15A82ABEDB0F494017
:10B3A00010B401224C0901F01F0150F8243002FAB8
:10B3B00001F123EA010340F824305DF8044B7047A3
:10B3C00010B401224C0901F01F0150F8243002FA98
:10B3D00001F10B4340F824305DF8044B704700BF87
:10B3E00001234A0901F01F0150F8222003FA01F15C
:10B3F000114214BF18460020704700BF2DE9F043EA
:10B40000002489B006460D461F46A04605E02529C2
:10B410000CD030460134A847039A531C039311788B
:10B420000029F4D1204609B0BDE8F083931CCDE992
:10B4300003385378302B43D0A3F130024FF000098A
:10B44000D2B2092A46D96C2B2BD0642B7AD019D9C9
:10B45000732B5DD06AD9752B40F08B8007F1040CFB
:10B46000386805AB00220A216746FCF7F7FE05A9FC
:10B47000049A4B46304600912946FCF7C7FD039AD3
:10B480000444CAE7252B41D058D9582B74D0632BDC
:10B49000C2D13B1D3978304601341F46A847039A74
:10B4A000BBE7039B5A1C03921B78642B5AD018D815
:10B4B000252B2BD06DD9582B1AD0632BE9D0ACE7B4
:10B4C000D31C4FF0010903939378A3F13002D2B259
:10B4D000092AB8D8184604AA03A93EF0B3FD0346CA
:10B4E000B1E7732B14D058D9752B32D0782B94D167
:10B4F000A3F1580207F1040C386805ABB2FA82F2E6
:10B50000102167465209FCF7A9FEB0E7252180E724
:10B51000386807F1040C049A00230090294630464D
:10B520006746FCF773FD039A044476E76E2B7FF4BD
:10B5300073AF039A3B6804371C606EE7002B3FF43F
:10B5400071AF69E73B1D386805A91F46FCF752FE3D
:10B550008DE7391D386805AB00220F460A21FCF73C
:10B560007DFE84E73B1D386805A91F46FCF742FEB7
:10B570007DE7782B7FF450AFA3F15802391D38686E
:10B5800005ABB2FA82F20F4610215209FCF766FEB3
:10B590006DE7002B3FF446AF3FE76E2BCAD03CE788
:10B5A00010B5064C0B46024605492068FFF726FFFA
:10B5B0002068BDE8104035F0C3B900BF888901207C
:10B5C0002D8A000838B504460D460848FFF7C2FC2E
:10B5D00029462046FFF7E4FF0548FFF7BBFC054B73
:10B5E0001B7813B1044B01221A7038BD2D1D0608BB
:10B5F000381D0608E48A0120E58A01200FB407B54A
:10B6000004A951F8040B0191FFF7DCFFFFF7B2FC2E
:10B6100003B05DF804EB04B0704713460A460146D8
:10B620000048EBE73C1D06080048E7E7551D060803
:10B630000FB407B504A951F8040B0191FFF7C2FF3D
:10B6400003B05DF804EB04B070470FB407B504A96C
:10B6500051F8040B0191FFF7A3FFFFF78BFC03B038
:10B660005DF804EB04B070470FB407B504A951F8B6
:10B67000040B0191FFF794FF03B05DF804EB04B0F5
:10B6800070472DE9F843037903F0E001202928D021
:10B6900002D849B1BDE8F883402945D06029F9D1E5
:10B6A0002448BDE8F843D0E703F00703022B02D09B
:10B6B000042B08D06BB9B0F80720B0F805101E486D
:10B6C000BDE8F843C1E7D0F805201B48BDE8F843C2
:10B6D000BBE7B0F90720B0F905101748BDE8F843FB
:10B6E000B3E745790024154E1548FFF733FC0123D5
:10B6F00006EBC50292F80480A04502D8BDE8F843E5
:10B7000038E456F835704FEA840957F824204AB1D6
:10B7100013B90C48FFF71EFC57F809100A48FFF749
:10B72000A3FF00230134E7E741790848BDE8F84367
:10B730008BE700BF9D1D0608611D0608D8D90508C6
:10B74000781D0608891D0608E44606088C1D0608B3
:10B750002DE9F0411746027905460E4602F0E00356
:10B76000402B2BD10024554FDFF8708115E02B7949
:10B7700003F00703022B15D0032B19D0012B3846F9
:10B7800014BF315D3157FFF76FFF6B79013BA34267
:10B7900002DD4046FFF7DEFB01346B79A342E6DCB5
:10B7A000BDE8F08136F814103846FFF75DFFECE78E
:10B7B00036F914103846FFF757FFE6E702F00702A4
:10B7C000042A5DD8DFE802F0031D25272A0034781B
:10B7D000202B3AD068D8002BE2D1B5F80560B5F837
:10B7E000078021463548FFF73FFFA64240DCA045D1
:10B7F0003EDB002FD4D0424631463148BDE8F0410F
:10B8000032E796F90040202B1FD04DD8002B3DD0B9
:10B81000C6E73488DCE7B6F90040F4E7D6F80080E4
:10B82000202B444611D03FD8002BB9D141462348A4
:10B83000FFF71AFFD5F80510884519D8002FAFD0AB
:10B840002048BDE8F0410FE700246A791E4B03EB66
:10B85000C2010979A1420BDD53F8323053F82400BC
:10B86000BDE8F041FFF776BB1848BDE8F041FBE6C4
:10B87000FFF780FB224629681548BDE8F041D7E66E
:10B88000202BE1D007D8002B8AD11C46B5F90560E2
:10B89000B5F90780A5E7602BE6D0802B80D1314633
:10B8A0000C48BDE8F041DFE6602BF6D16A7914411F
:10B8B000E307D9D50848BDE8F041D5E6751D06086F
:10B8C00016470608B71D0608D8D905081921060825
:10B8D000BD1D0608E4460608B21D0608B51D06088B
:10B8E0000CB407B510F020000BD079B92320FFF776
:10B8F0002AFB05A904980191FFF752FEFFF73AFBD6
:10B90000012003B05DF804EB02B070470020F8E7B7
:10B910000CB4C30607B500D561B905A90498019117
:10B92000FFF73EFEFFF726FB012003B05DF804EBB6
:10B9300002B070470020F8E70EB410B585B0094991
:10B9400007AC019001A854F8042B23460394FFF799
:10B9500055FD019B00221A7005B0BDE8104003B0F0
:10B96000704700BF0180000870B406688E4219D984
:10B970004C1E751E002314F8011F08224B4002E0E4
:10B98000013ACBB207D059001B06F9D581F0D50397
:10B99000013ADBB2F7D1A542EDD1721C02603370DF
:10B9A00070BC7047721C00230260337070BC70471B
:10B9B0000A44914217D0013910B4541E11F8012FD6
