:020000040800F2
:10000000F0FF0010658205086953030865A8010820
:100010000583050805830508058305080000000021
:1000200000000000000000000000000075530308FD
:1000300071530308000000006D530308C9A80108AC
:10004000058305080583050805830508058305085C
:10005000058305080583050805590408315A040875
:10006000F5590408B95904087D59040871F10008CC
:1000700061F1000851F1000841F100082DF100087C
:1000800019F1000805F10008058305080583050836
:1000900005830508058305080583050841590408FB
:1000A00005900108A1950108358F01087D9601088A
:1000B000E19401082194010855930108310B0108CE
:1000C000390B0108210B0108290B010805830508DC
:1000D0000583050835B601080583050899B50108AB
:1000E000C9580408058305088D9C0308658E01081E
:1000F000D5900108958D0108B5910108F1F000082F
:100100000583050805830508859201080583050810
:100110000583050805830508F9B4020881B30208C0
:10012000DDF00008C9F00008B5F00008A1F00008F3
:100130008DF000080583050805830508058305087B
:10014000058305080583050805830508F98B030861
:1001500079F0000865F0000851F00008FDB40108CE
:10016000110B0108190B0108058305080583050813
:10017000058305080583050805830508058305082B
:0801800005830508058305084D
:080188000C7E050001000000DF
:10019000020203001C1D0020181D002000000000AA
:1001A0000000000010020100241D0020201D00207E
:1001B000000000006C0700081F021000381D00201E
:1001C000281D0020000000007585000807020200BD
:1001D000F43D0020383E0020000000006E070008BB
:1001E00002000C00F43C00203C3E00200000000017
:1001F0000000000006020C00CC3D0020483E00201C
:100200000000000039910008F7010600503D002071
:10021000543E002000000000700700081D0202008C
:100220004C3D00205C3E00200000000076070008E6
:100230001A023C00444000207442002000000000EC
:100240009D9000082700040040400020B04200209C
:100250000000000078070008381001007C3E0020F4
:10026000B4420020000000007C07000801200C00C0
:1002700080540020185C0020000000007E07000869
:100280000A7028003C530020245C0020000000007D
:10029000019E03080EA05C01E05100204C5C002090
:1002A00000000000ADDE04080101040044510020FC
:1002B000A85D002000000000000000000001040014
:1002C0003C510020AC5D0020000000008A070008BF
:1002D0000201030038510020B05D00200000000042
:1002E0003D0C010822021401D0580020B45D00200A
:1002F00000000000E19200080C109C00B0530020A8
:10030000C85E002000000000110C0108000205007A
:10031000CC570020645F00200000000000000000B7
:100320001B021000985700206C5F002000000000A6
:10033000DD8300081E0006001C5500207C5F0020A5
:10034000000000008E0700081B100C003C44002039
:10035000845F00200000000089F401082102F00001
:10036000C0420020905F00200000000065F30108FB
:100370000A020A00B4680020086B00200000000098
:10038000F5630208F6210C0054630020146B002072
:1003900000000000940700080300010088630020AB
:1003A000206B0020000000000000000003123D0050
:1003B000C86A0020246B002000000000A00700088D
:1003C00025102C01E8680020646B0020000000006C
:1003D00000000000101002003C630020906C002020
:1003E00000000000DE07000823121000EC78002057
:1003F0007879002000000000E007000805100600E2
:10040000E47800208879002000000000F007000850
:100410003710280028790020907900200000000083
:10042000F60700080E020200DC780020B8790020F0
:10043000000000001E08000816100600B06E002024
:10044000BC79002000000000200800082F102200C6
:1004500054790020C479002000000000260800081C
:1004600012201000E86F0020E87900200000000052
:100470004808000823100E0090700020F879002032
:1004800000000000759E0308F5518C00E46D00200B
:10049000087A00200000000099F2010826100C00E4
:1004A000A07A0020947A002000000000C9E402082D
:1004B000140003002C750020D87A002000000000F2
:1004C000580800080B301A00886D0020DC7A0020E4
:1004D000000000005C0800081F302400A46D00200C
:1004E000F87A0020000000007808000805020400E7
:1004F0005C7000201C7B0020000000009C080008AD
:1005000003010A00948D0020348E002000000000BA
:10051000A0080008130204004C830020408E002035
:1005200000000000AA0800082C001000C0A600204F
:10053000B0A600200000000031B903082B00240001
:10054000F4A60020D0A600200000000001B9030896
:1005500029207800B4A5002018A700200000000082
:100560000000000028101000A0A7002090A7002085
:10057000000000005D9E030820320A00BCA7002096
:10058000B0A7002000000000E19D03081C0210003D
:1005900060A20020C8A7002000000000B18300086E
:1005A0000D00340084D6002020D700200000000079
:1005B000A56A01080902010080D5002054D7002057
:1005C00000000000B00800080400800000D50020F2
:1005D00058D70020000000000000000013000400B5
:1005E000E0D40020D8D7002000000000B4080008A4
:1005F000FD012400BCD40020DCD700200000000056
:100600009D68010818202E0088D4002000D8002002
:10061000000000004192000806101A00A8BF002048
:1006200030D800200000000009DF0408FB010100B1
:10063000A4BF00204CD8002000000000B5920008A4
:10064000FC01090070BE002050D80020000000000E
:10065000C592000816023F0030BE00205CD8002082
:1006600000000000218400083400100060BD00205C
:100670009CD8002000000000DDDE04081102080004
:1006800038BD0020ACD8002000000000B8080008E9
:100690001212040030BD0020B4D800200000000079
:1006A000C0080008FF1106009CB90020B8D800203F
:1006B000000000005985000808120F00A8B90020AA
:1006C000C0D800200000000001850008F9010400E6
:1006D00098B90020D0D80020000000004D2A04085E
:1006E000FA01020050B30020D4D80020000000001E
:1006F00075860008FE0114001CB30020D8D8002025
:1007000000000000F1830008190005005CEF0020E4
:1007100074F0002000000000C40800081A000E0059
:10072000E8EE00207CF0002000000000CA0800086D
:10073000F8210600BCED00208CF000200000000035
:10074000D80800081500700034EC002094F0002058
:1007500000000000000000002A006000C0EF002040
:0C07600004F100200000000085DE040809
:10076C000000013C18010000000000002003000004
:10077C000000E8036400040A000114001E0090014C
:10078C00000000000100000000000000010000005B
:10079C000202000000000000000000000000000049
:1007AC00000000000000000000000000000000003D
:1007BC00000000000000000000000000000000002D
:1007CC00000000000000000000000000000000001D
:1007DC000100000500000000000000000000000007
:1007EC000000000020000201000020003200C800C0
:1007FC00D0079600140032002800B0044006000513
:10080C00500014000F0008006400010000000500F7
:10081C000A000000C40900001900000000000000DC
:10082C0000000000000000000000000000000000BC
:10083C0000000000000000000000000000000001AB
:10084C000000054659463400000800000300000073
:10085C00AE014A015E012C0164010200000001009E
:10086C000A019A01001E0A000000000000000000AE
:10087C000001000000050000010203000000000060
:10088C0000000000000000000000000000800700D5
:10089C0000000000040101006C16000000000000C4
:1008AC000135000039000000080040300000000055
:1008BC0001010101FFFFFFFF0000280100007E0580
:1008CC00EA05B4053200E803D00700000401F40186
:0208DC00140006
:1008DE001A030000000000000000000000000000ED
:1008EE0000000000000000000000000004030904E6
:1008FE001201000200000040830420570002010292
:10090E0003010000699900085199000841990008F7
:10091E00C9850008ED98000895980008B98500086B
:10092E009C020020A9D20008D1850008CD850008C0
:10093E00C585000829930008C1850008BD850008FB
:10094E00289D050895710308514A0308D57C0308B4
:10095E000000000000000000D9790308F5780308B4
:10096E0000000000000000000000000089450308A0
:10097E00698600085D860008C5990008E19900089F
:10098E0015860008A99900088D9900080068214C69
:10099E001F0000001C0000001F0000001E000000D1
:1009AE001F0000001E0000001F0000001F000000BE
:1009BE001E0000001F0000001E0000001F000000AF
:1009CE000000040100000000000000021000000002
:1009DE0007000000000000000000000001020304F8
:1009EE0006070809008002021F00000053544D2024
:1009FE002020202050726F6475742020202020202B
:100A0E0020202020302E303100000000283E002013
:100A1E000800000000000000183E00200800000042
:100A2E00C01A0608CC1A0608D81A0608E41A0608D0
:100A3E00F01A0608FC1A06082839060890610608FE
:100A4E009C6006084C1A0608A0890608B01A06080B
:100A5E00B41A0608B81A0608BC1A0608081B0608B7
:100A6E000C1B0608101B0608185F0608141B060848
:100A7E001900C800F4012003685E0C00A94B03089E
:100A8E00954A0308717F0308000000001146030811
:100A9E00297B0308E5490308A17A0308000000003A
:100AAE0000000000CD4503085D44030851440308CF
:100ABE00A5700308C1700308897003086D700308E0
:100ACE0051700308614B0308714A0308B17E030895
:100ADE0000000000E5450308A57A0308B94903089C
:100AEE00017A03080000000000000000D945030849
:100AFE0001000000A00F0000B80B00000102FFFF74
:100B0E0001000000000001FF01000000B5E801082F
:100B1E000000000054B5050820700020702D7200F2
:100B2E00FFFFFFFF0101FFFF2D202D2D202D2D2D6D
:100B3E002D202D2D2D0000000000000000000000D3
:100B4E000000000000000000000000000000000097
:100B5E00B8CC0508000000000000000044CD0508D8
:100B6E0001000000FA00000001000000010000007A
:100B7E007C5400200000F401010000007A54002093
:100B8E000000F40101000000785400200000F40180
:100B9E0001000000765400200000F4010100000066
:100BAE00745400200000F401010000007254002073
:100BBE000000F40101000000705400200000F40158
:100BCE000100000009F10108CDF00108E0BA0508A6
:100BDE006A5400200532010068540020E803D00753
:100BEE000100000066540020E803D0070100000059
:100BFE0064540020E803D007010000006254002076
:100C0E001E00B80B01000000605400201E00F4010D
:100C1E00010000005E54002014006400010000007A
:100C2E006C5400203200E803010000005C540020E8
:100C3E000000C800010000009253002000C801000F
:100C4E00915300200050010090530020005A0100E3
:100C5E008E530020020000006CBB0508F029060828
:100C6E00F82906080AD700200100C4090000000078
:100C7E0008D700200100C4090000000006D700209C
:100C8E000100C4090000000004D700200100C409BF
:100C9E000000000000D700200100C4090000000081
:100CAE0002D700200100C40900000000FED600207B
:100CBE000100C40900000000FCD600200100C40998
:100CCE00000000005951002000C8010058510020BA
:100CDE0000C80100565100200100C80001000000AC
:100CEE005451002032003075320000005351002064
:100CFE00055A05005051002000FF010052510020FE
:100D0E0001000000140500204E51002003000000D9
:100D1E0030D705084F51002000FF0100515100202F
:100D2E0001000000140500204D51002003000000BA
:100D3E0030D705087DF001082DF0010878BB0508B5
:100D4E0090540020EE02CA08010000008E540020CC
:100D5E0000C80100640000008D54002000C801008E
:100D6E00640000008C540020020000003CBC05080A
:100D7E004A51002080C1803E0500000048510020ED
:100D8E0080C1803E050000004251002080C1803E9F
:100D9E00050000004051002080C1803E050000008B
:100DAE003B51002000FF0100345100206400F4018B
:100DBE0001000000335100200400000048BC05086B
:100DCE0032510020020000005CBC0508CF5100200B
:100DDE000D00000068BC0508CC5100200064010025
:100DEE00CA510020320010270A000000C95100200D
:100DFE000D00000068BC0508C85100200D00000061
:100E0E0068BC0508C751002002000000A0BC050800
:100E1E000000000000000000ACBC0508D88D0020CA
:100E2E009CFF2C0100000000F45A0020E0150C1766
:100E3E0000000000F157002002000000E4BC05088D
:100E4E009C5400200100FF7F010000009B540020F5
:100E5E0002000000F0BC0508D15100200300000084
:100E6E0000BD0508D05100200300000000BD05089C
:100E7E00705300200000E803010000006E530020B4
:100E8E000000E803010000006C5300200000E8039E
:100E9E00010000006A5300200000E803010000007A
:100EAE00685300200000E803010000006653002094
:100EBE000000E8030100000065530020001401004B
:100ECE00645300200300000010BD05087C53002071
:100EDE000000F401010000007A5300200000F4012C
:100EEE0001000000785300200000F4010100000012
:100EFE00765300200000F40101000000745300201E
:100F0E000000803E01000000725300200000803E71
:100F1E0001000000A553002019640100A453002015
:100F2E000200000020BD0508A2530020E803D007F0
:100F3E000A000000A0530020006401000A00000017
:100F4E0095530020006401009453002000640100BA
:100F5E009C530020006401000A0000009B530020F7
:100F6E00006401000A0000009A5300200064010092
:100F7E000A0000009F530020006401000A000000D8
:100F8E009E530020006401000A0000009D530020C3
:100F9E00006401000A0000009953002001FF0100C7
:100FAE000A0000009853002001FF01000A00000013
:100FBE009753002001FF01000A000000DA510020C3
:100FCE000000F40101000000D85100200000F401DF
:100FDE0001000000D65100200000F40101000000C5
:100FEE00D45100200000F40101000000D251002075
:100FFE000000F401010000008D5300200064010088
:10100E008C530020006401008B530020006401000B
:10101E008A530020FF08010089530020016401005B
:10102E00F5EE0108B1EE01082CBD0508885300202D
:10103E0000640100865300201400E8030100000044
:10104E0084530020E80330750A000000825300200C
:10105E0000C801008153002000C801008053002009
:10106E0000C801007F530020006401000A00000048
:10107E005A5400200000D0070100000055540020F3
:10108E0000C801005454002000C801005354002031
:10109E0000C80100585400200000D00701000000D5
:1010AE005254002000C801005154002000C8010015
:1010BE005054002000C80100565400200000D007F4
:1010CE00010000004F54002000C801004E540020C3
:1010DE0000C801004D54002000C8010000000000AF
:1010EE000DEC01089CBD0508C5510020350000001F
:1010FE0038BE0508C451002000C80100C2510020AE
:10110E00E803D0070100000046555259463400004E
:10111E0059EB01081DEB010810BF0508D9EA0108BB
:10112E008DEA010880BF050895EB0108B919020880
:10113E0000C005084C5100200103010071F10108A7
:10114E0045F10108F4C2050829EA0108DDE90108A4
:10115E0064C3050823EC0108D93E020800C4050843
:10116E001130020800000000A8C40508DD1D0208A9
:10117E00D1F1010844C505087DEC0108000000000E
:10118E00C4C5050855ED010801ED010828C605087E
:10119E00EDED0108B1ED0108C4C6050839EF0108EF
:1011AE0079EF010844C7050893530020010601009A
:1011BE00C5EC010891EC010840C8050829EE0108AC
:1011CE001D1A0208B0C80508A5EF0108A91A0208E1
:1011DE0090C905087E53002001030100DDEB0108D4
:1011EE00ADEB010864CA05089DF10108000000007E
:1011FE00C8CA050875EA0108A11902082CCB050812
:10120E00000000000000000090CB0508FDEF010873
:10121E00291B020810CC05082E51002088136F17C9
:10122E00010000003051002088136F1700000000ED
:10123E00228C00200000000000000000208C002006
:10124E0000000000000000001E8C002000000000C6
:10125E00000000001C8C00200000000000000000B8
:10126E001A8C00200000000000000000188C0020E6
:10127E000000000000000000200E00200000000012
:10128E0000000000055100200200000098CD050866
:10129E002C51002088136F1701000000248E0020AF
:1012AE0088136F17000000006DE9010800000000B0
:1012BE00A4CD0508F257002001000000F8CD050866
:1012CE00268E00200100000004CE05081C8E002092
:1012DE00020000000CCE0508000000000000000017
:1012EE0018CE050855E9010800000000B4CE050827
:1012FE00000000000000000008CF050800000000FC
:10130E000000000078CF0508208E0020E0150C1795
:10131E00000000000000803F000000000000000000
:10132E0000000000FFFFFFFFFF00000001010000B2
:10133E00FF1FFF1FFFFFFFFFAC7A00200000000021
:10134E00D07A002000000000010000000403090410
:10135E0012010002EF020140830456320002010224
:10136E0003010000120100020202004083044057F4
:10137E00000201020301000009022000010104C065
:10138E0032090400000208065005070581024000DC
:10139E00000705010240000009026400030100C0BD
:1013AE0032090400000103000000092111010001AF
:1013BE002226000705830308000A080B0102020219
:1013CE0001000904010001020201000524001001C0
:1013DE000524010002042402020524060102070569
:1013EE0082030800FF09040200020A00000007053C
:1013FE00010240000007058102400000090243007F
:10140E00020100C03209040000010202010005249D
:10141E000010010524010001042402020524060027
:10142E0001070582030800FF09040100020A0000FB
:10143E000007050102400000070581024000000080
:10144E00FF0000007CD8050800000000000000002E
:10145E00000000000000000000000000000000007E
:10146E0000000000000000000000000000FFFF0070
:10147E000000000050D80508000000000000000029
:10148E00000000000000000000000000000000004E
:10149E00000000000000000000000000AA55050139
:1014AE000000000005010905A101A1000501093098
:1014BE0009310932093309350934094009381581D2
:1014CE00257F750895088102C0C000000902220020
:1014DE00010100E0320904000001030102000921AC
:1014EE00110100012226000705830308000A0000EF
:1014FE0000000000010203040102030406070809AC
:10150E00397C03083D7B0308957F03084D4603088D
:10151E00C54B03085D4603087946030825460308B4
:10152E001546030800000000000000002D202D2DA0
:10153E00202D2D2D2D202D2D2D2D000000000000F5
:10154E000000000000000000000000AA550B010082
:10155E0000AA5507010000AA550902000000AA556D
:10156E0003009F0001000000C0120000D601000021
:10157E00B80B000001000000000101010001010094
:10158E00FFFF0000FFFFFFFFA08506080000080216
:10159E0005030300A88506080100080205040300E0
:1015AE009C4306080200FE0101100300182E0608D7
:1015BE000300140200030000B085060804001F0299
:1015CE0001000800B885060805001F020101080089
:1015DE004D440308494403084544030839440308AD
:1015EE0035440308414403083D440308F5500308FD
:1015FE00B94F0308255103081D6A03082D860308F9
:10160E00996A03087545030861450308594503089F
:10161E000100000000600240106002400000000067
:10162E0000000000000B00000000000000000000A1
:10163E00000000000060024028600240010000002F
:10164E0000000000060C000000000000000000007A
:10165E0000000000006002404060024002000000F6
:10166E0000000000100D000000000000000000004F
:10167E0000000000006002405860024003000000BD
:10168E0000000000160E0000000000000000000028
:10169E000000000000600240706002400400000084
:1016AE0000000000200F00000000000000000000FD
:1016BE00000000000060024088600240050000004B
:1016CE0000000000261000000000000000000000D6
:1016DE000000000000600240A06002400600000012
:1016EE0000000000301100000000000000000000AB
:1016FE000000000000600240B860024007000000D9
:10170E0000000000362F0000000000000000000066
:10171E00000000000064024010640240000000005F
:10172E000000000000380000000000000000000073
:10173E000000000000640240286402400100000026
:10174E00000000000639000000000000000000004C
:10175E0000000000006402404064024002000000ED
:10176E0000000000103A0000000000000000000021
:10177E0000000000006402405864024003000000B4
:10178E0000000000163B00000000000000000000FA
:10179E00000000000064024070640240040000007B
:1017AE0000000000203C00000000000000000000CF
:1017BE000000000000640240886402400500000042
:1017CE0000000000264400000000000000000000A1
:1017DE000000000000640240A06402400600000009
:1017EE000000000030450000000000000000000076
:1017FE000000000000640240B864024007000000D0
:10180E00000000003646000000000000000000004E
:10181E00000000003C860608544806080000000040
:10182E00510C0108A0860100040000000000000019
:10183E00000000000000000000000000000000009A
:10184E00000000000000000000000000000000008A
:10185E00000000003C860608B4890608000000005F
:10186E00C56E0108E803000004000000000000003F
:10187E00000000000000000000000000000000005A
:10188E00000000000000000000000000000000004A
:10189E000000000034310608945F060800000000C6
:1018AE00696C02087D0000000600000000000000C8
:1018BE00000000000000000000000000000000001A
:1018CE00000000000000000000000000000000000A
:1018DE00000000008C8506080000000000000000DB
:1018EE00D9AC0108E803000003000000000000006E
:1018FE0000000000000000000000000000000000DA
:10190E0000000000000000000000000000000000C9
:10191E0000000000BC890608000000000000000066
:10192E0069420508102700000300000000000000B7
:10193E000000000000000000000000000000000099
:10194E000000000000000000000000000000000089
:10195E0000000000AC85060800000000ADB50308CD
:10196E004D7701085F7600000500000000000000C2
:10197E000000000000000000000000000000000059
:10198E000000000000000000000000000000000049
:10199E000000000040880608000000000000000063
:1019AE002DD60108102700000100000000000000E5
:1019BE000000000000000000000000000000000019
:1019CE000000000000000000000000000000000009
:1019DE0000000000C889060800000000000000009A
:1019EE003D670108E803000005000000000000004C
:1019FE0000000000000000000000000000000000D9
:101A0E0000000000000000000000000000000000C8
:101A1E0000000000D489060800000000000000004D
:101A2E0015140108204E0000030000000000000005
:101A3E000000000000000000000000000000000098
:101A4E000000000000000000000000000000000088
:101A5E0000000000E48906080000000000000000FD
:101A6E0019120108204E00000300000000000000C3
:101A7E000000000000000000000000000000000058
:101A8E000000000000000000000000000000000048
:101A9E0000000000F48906080000000000000000AD
:101AAE006DB10108400D03000300000000000000AE
:101ABE000000000000000000000000000000000018
:101ACE000000000000000000000000000000000008
:101ADE0000000000041906080000000000000000CD
:101AEE0019AA0108102700000100000000000000E4
:101AFE0000000000000000000000000000000000D8
:101B0E0000000000000000000000000000000000C7
:101B1E0000000000A83906080000000000000000C8
:101B2E00F9FF01081027000003000000000000006C
:101B3E000000000000000000000000000000000097
:101B4E000000000000000000000000000000000087
:101B5E000000000090850608000000000000000054
:101B6E00F16D010850C300000100000000000000EC
:101B7E000000000000000000000000000000000057
:101B8E000000000000000000000000000000000047
:101B9E0000000000042D06080000000000000000F8
:101BAE00096B0108A86100000100000000000000A0
:101BBE000000000000000000000000000000000017
:101BCE000000000000000000000000000000000007
:101BDE0000000000048A060800000000000000005B
:101BEE00A13F0208A08601000100000000000000D5
:101BFE0000000000000000000000000000000000D7
:101C0E0000000000000000000000000000000000C6
:101C1E00000000002C190608000000000000000063
:101C2E0085B70108A00F00000100000000000000B1
:101C3E000000000000000000000000000000000096
:101C4E000000000000000000000000000000000086
:101C5E0000000000108A06080000000000000000CE
:101C6E00213A0208102700000100000000000000C9
:101C7E000000000000000000000000000000000056
:101C8E000000000000000000000000000000000046
:101C9E0000000000283806080000000000000000C8
:101CAE00AD3B03081A4100000100000000000000D7
:101CBE000000000000000000000000000000000016
:101CCE000000000000000000000000000000000006
:101CDE0000000000C42C06080000000000000000F8
:101CEE0039E102081027000001000000000000008A
:101CFE0000000000000000000000000000000000D6
:101D0E0000000000000000000000000000000000C5
:101D1E0000000000604806080000000000000000FF
:101D2E008D4702081A41000001000000000000006B
:101D3E000000000000000000000000000000000095
:101D4E000000000000000000000000000000000085
:101D5E00000000001C8A06080000000000000000C1
:101D6E0085E70208400D030000000000000000009F
:101D7E000000000000000000000000000000000055
:101D8E000000000000000000000000000000000045
:101D9E0000000000248A0608000000000000000079
:101DAE00F9660108400D030000000000000000006D
:101DBE000000000000000000000000000000000015
:101DCE000000000000000000000000000000000005
:101DDE00000000002C8A0608000000000000000031
:101DEE007D24020850C30000030000000000000024
:101DFE0000000000000000000000000000000000D5
:101E0E0000000000000000000000000000000000C4
:101E1E0000000000388A06080000000000000000E4
:101E2E008D11010840420F0000000000000000006C
:101E3E000000000000000000000000000000000094
:101E4E000000000000000000000000000000000084
:101E5E0000000000448A0608000000000000000098
:101E6E0005D6010850C3000000000000000000006D
:101E7E000000000000000000000000000000000054
:101E8E000000000000000000000000000000000044
:101E9E00000000000000803F7D000000FFFFFFFFFC
:101EAE000000803F00000000000000000000000065
:101EBE000000803F00000000000000000000000055
:101ECE000000000000000000000000000000000004
:101EDE0000000000000000000000803F0000000035
:101EEE000000000000000000010000000000803F24
:1080000003685A1C02601970704700BF2DE9F047E1
:10801000089C2578002B804689460CBF4FF0200A2B
:108020004FF0300A661C25B3002A26DD334601E0F6
:10803000024698B113F8011B501E0029F8D1971E73
:1080400060B13D46013D51464046C8476B1C002B80
:10805000F8DC257827EAE770013045B1041B294692
:108060004046C847301916F8015B002DF7D1BDE82E
:10807000F087002A03DC2846F9E70020EEE7571EC8
:10808000DFE700BF2DE9F04714461D4606464FF4D2
:108090007A720023204629464FF018FF4D4BDFF837
:1080A00048814D4A4D4F034488FB03101844D917AB
:1080B00082FB032CC1EB601088FB002887FB0327A1
:1080C0009C44474AC1EBEC2CC0EB001E82FB0C2900
:1080D000A3EB8E0E1F44434A86F806E0C1EB274708
:1080E0004FEAEC7E08EB000ACEEBA90E82FB07827A
:1080F0004FEAE0780EEB4E0EC8EB6A18ACEBCE0CF4
:10810000C8EB0818DFF8E4E086F804C0A0EB8800AC
:1081100070718EFB0303F817C0EBE21240F2B5500A
:1081200000FB1272C1EBE353B2F5896F4FEA83078C
:108130003CDA40F2DA239A4242DCB2F5B77FB4BFB0
:108140004FF0000E4FF0010E4FEA4E09DFF8A0800D
:1081500009EB0E0308EBC3031FFA8EFCD88A09EB68
:108160000E0108EBC10116310B2301E031F8020DBD
:10817000904218DD013BF9D1CE44012338F83E008E
:10818000B37007F5FA670132121ABC44F270A6F810
:1081900000C0204629464FF47A7200234FF096FE25
:1081A0003281BDE8F0870133DBB2E9E74FF0030C21
:1081B000E64640F29650DFF838804FF00609CEE7E9
:1081C0004FF0020CDFF82880E64640F229404FF0DD
:1081D0000409C4E780BC92C7C5B3A29107452EC26B
:1081E000ABAAAA2A73B06D1689888888792D0311E5
:1081F000F09A05080028F0B403DA2D230B704042F2
:108200000131092804464FF0010307DD03EB830326
:108210005B00B0FBF3F2092AF8D883B10F48A0FB4A
:108220000326B4FBF3F2092A02F1570C02F13007DE
:1082300009DD03FB1244F30801F801CBEFD1002361
:108240000B70F0BC704703FB1244F30801F8017B8C
:10825000E5D100230B70F0BC704700BFCDCCCCCC77
:10826000884270B44FF0010442D301FB04F4B0FB28
:10827000F4F58D42F9D2ECB142BB092D04FB150097
:1082800005F1570605F130020EDDB4FBF1F403F8F9
:10829000016B7CB1B0FBF4F5092D04FB150005F171
:1082A000570605F13002F0DCB4FBF1F403F8012BC2
:1082B000002CEFD100221A7070BC704703F8016BDC
:1082C000B4FBF1F4002CF5D0B0FBF4F5092D04FB60
:1082D000150005F1370605F13002EFDCB4FBF1F4CF
:1082E00003F8012B002CEFD100221A7070BC7047EC
:1082F0000546002AEAD1C0E790ED057A90ED004AE4
:10830000D0ED066AD0ED014AD0ED047A90ED035A23
:10831000D0ED025AA4EE007AB0EE406AB0EE470A01
:10832000B0EE667AA4EE867A67EEC07AA5EE407A61
:10833000E5EE867A80ED057AC0ED067A704700BFDB
:10834000D0ED057A90ED013AD0ED003AD0ED064A35
:1083500090ED024A90ED077A90ED035A90ED086A8D
:10836000D0ED045AC0ED067AF0EE406A27EE830A9B
:10837000C0ED056AA3EEA60A80ED087AA4EE240AF1
:10838000A5EE470AA5EEC60A80ED070A704700BFB2
:10839000D0ED007A90ED017A30EE670AE7EE007AD0
:1083A000B0EE670AC0ED007A704700BF704700BFAB
:1083B00030B414220023342503240221C270012288
:1083C0008571C4710370C3728373C373417041724A
:1083D00082700272827230BC704700BF0023062197
:1083E0004FF47A720170C0E901230373704700BF34
:1083F00030B43123332232254FF60174FF2143700C
:10840000427101230022C5700482817403720370DB
:108410000371837042818281C28130BC704700BF8A
:108420002DE9F04F3149324B83B001F1C00B01907F
:1084300039274FF000092F481022012603E0203091
:1084400098420BD002799742F9D102680C68A24297
:1084500009D02030984206F10106F3D12031594568
:108460003AD00F79E7E744794D79A542F1D19446A6
:10847000019A214809EB490502EB050A57558AF88C
:10848000016000F572751D4E624603E0A8421AD0E5
:1084900050F82C6FB242F9D10679A642F6D1CF68D6
:1084A00006464FF0000C96468046F268BA4216D057
:1084B0000CF1010CBCF1030F06F10C06F5D140469E
:1084C000A8427246E4D14FF0FF3C203159458AF86A
:1084D00002C009F10109C4D103B0BDE8F08F0869F9
:1084E00032698242E4D14FFA8CFCEEE76815060847
:1084F000E007060820FE0508E00706080000014026
:10850000144BFF22F0B54FF0FF34C27002710272BB
:1085100042724273827303F10C0EA446172716268B
:108520001525002202EB820281189E4585544E706B
:108530008F7081F803C00C710AD093F90620DD79A1
:108540001E7A5F7A93F90AC093F90B400633E9E784
:10855000F0BD00BF509B050830B401234225002424
:1085600002212C22857004704170C2700371437126
:1085700030BC7047034600F11001FF221A705A7098
:1085800002339942FAD102704270027142718272D2
:10859000C272704730B41D6995420AD314460A4628
:1085A00021448D42996938BF2A1B214430BC4FF0C9
:1085B00027BF30BC704700BF0020704700207047C5
:1085C000012070470120704700207047002070474D
:1085D0004FF40070024B10609B680B6000207047E6
:1085E000B8B90020013A30B4D2B28C1C04EB42047A
:1085F0000025020F092AD3B203F130028ABF3733B4
:108600000A700B704D7002318C424FEA0010F0D1AD
:1086100030BC70470B4A0C4B10681B681A22C018FC
:108620000A8001D10948704710B5094B09491C68F7
:108630000822FFF7D7FF204604220749FFF7D2FFA1
:10864000024810BDE8F7FF1FECF7FF1F880100206C
:10865000EAF7FF1F8A0100209A01002004230B8003
:1086600000487047A401002012230B800048704787
:10867000A80100202322032302704370704700BF2B
:1086800008307047704700BF816170476D4B2DE91E
:10869000F04F1C686C4BB3F80AE0B3F804809A8979
:1086A0004FEA0E2AB4EB0A044FEA1E6B4FF00005A6
:1086B00087B065EB0B05CDE900450746009C18899E
:1086C000019EA0FB044500FB0655E00940EA456019
:1086D0004FEA08448C46E9114FEA184510EB0408AC
:1086E000D888009C41EB0509CDE90489A0FB04452D
:1086F000B3F8028000FB0655200A40EA05604FEA05
:10870000C83429124FEA584510EB040841EB05091B
:108710000099A2FB010102FB06114FEAD05A4AEA76
:10872000412A1AF5FA634FEAE15B4BF10004B3F515
:10873000FA6FCDE9023474F10003424E64DA052485
:10874000AAFB040104FB0B1100FB0BF40AFB014420
:10875000DDE90423A0FB0A0121444D104FEA300457
:10876000121B4FEA900463EB050344EA8174B8EBF3
:108770000408CDE90423DDE9023434484FEAA105B9
:1087800069EB05094FF0FF31834274EB010326DAF0
:1087900040F6AC501AEB00024FF000014BEB010326
:1087A00002FB03F1A2FB022303EB4103D400DD0033
:1087B000101B45EA527563EB0501DDE904452418F9
:1087C0004D41CDE904450B24A2FB040104FB031138
:1087D00049104FEA3000B8EB000869EB0109DDE908
:1087E00000325343009ADDE90201A2FB02AB0BEB1E
:1087F000430B4FEADA7242EA4B02801A4FEAEB73FC
:1088000061EB0301CDE9020197B17168A1FB082377
:1088100001FB0933540D5D1544EAC324DDE904234B
:10882000A21A65EB03031D46D30B43EA45433B60A5
:10883000BCF1000F02D0029BCCF8003007B0BDE8BD
:10884000F08F00BFA817002020A5002024FAFFFF0A
:10885000012380F8503070474FF400630383704762
:108860004FF4006303837047012248213DF0E8BCC8
:10887000012258213DF0E4BC4FF4006303837047AC
:108880004FF4006303837047F0B4037C45690268CA
:108890001F2B37D9203B2021546899400C4223D00C
:1088A00010249C40D160D4605168D940CE074ED48A
:1088B000EFF31183502282F31288EA6B1168C90723
:1088C00009D45468002C52D1D5E909618E4243D1B4
:1088D000012285F86020DBB283F31188037C0268F3
:1088E0001F2B194614D9203B082150689940084293
:1088F00000D0D1600421506801FA03F3184223D15B
:10890000F0BC7047202416689C4026420FD11946BF
:10891000082310688B40184200D09360042310682D
:1089200003FA01F10842EBD09160F0BC70471021CE
:108930009940946091601168D940CC07B8D5012165
:1089400001FA03F39360B3E7D360F0BC70470121F1
:1089500001FA03F3D360ABE7AF690F44D7600ED8D9
:108960002E69711A5160AC62002185F8601011689F
:1089700041F00101DBB2116083F31188AEE7711A97
:108980005160AE62F0E700BFF0B4B34BB3491A7860
:108990000B789A4240F00781B14B1A78002A68D0D0
:1089A000B04B1978B04B002965D11868B3F8305135
:1089B00041628489012A44EA05048481A3F83011C4
:1089C00057D0D3F83401B3F8645241628489022A43
:1089D00044EA05048481A3F864124AD0D3F86802FB
:1089E000B3F8985341628489032A44EA05048481D8
:1089F000A3F898133DD0D3F89C03B3F8CC5441624C
:108A00008489042A44EA05048481A3F8CC1430D074
:108A1000D3F8D004B3F8005641628489052A44EAA9
:108A200005048481A3F8001623D0D3F80406B3F814
:108A3000345741628489062A44EA05048481A3F8F4
:108A4000341716D0D3F83807B3F8685841628489D0
:108A5000072A44EA05048481A3F8681809D0D3F8EA
:108A60006C28B3F89C495162908920439081A3F807
:108A70009C19F0BC70475C681989616025681868AA
:108A800045F0010540F20D312560A0F848108489B9
:108A9000012A44F480748481EBD0D3F83841B3F8D0
:108AA0003C51D3F834016560256845F00105256027
:108AB000A0F848108489022A44F480748481D8D0B4
:108AC000D3F86C42B3F87052D3F868026560256839
:108AD00045F001052560A0F848108489032A44F474
:108AE00080748481C5D0D3F8A043B3F8A453D3F8DD
:108AF0009C036560256845F001052560A0F84810D5
:108B00008489042A44F480748481B2D0D3F8D44494
:108B1000B3F8D854D3F8D0046560256845F0010552
:108B20002560A0F848108489052A44F48074848163
:108B30009FD0D3F80846B3F80C56D3F80406656006
:108B4000256845F001052560A0F848108489062AAB
:108B500044F4807484818CD0D3F83C47B3F84057F8
:108B6000D3F838076560256845F001052560A0F851
:108B700048108489072A44F4807484813FF479AFD3
:108B8000D3F87028B3F87408D3F86C3850601068C4
:108B900040F001001060A3F848109A8942F48072F6
:108BA0009A81F0BC70475C00E618304D15F83660CD
:108BB000032E3FF6F1AEDFE806F05D261C02E0185A
:108BC00005EBC0004468661E012C46603FF651AFBD
:108BD000013303F00303D8B2824208703FF4DCAEE5
:108BE00003EB4303DB00EA1802200021E854516044
:108BF0003FE7E11805EBC1014868461E01284E60B9
:108C00003FF637AF0DE0E118C90068184668771ED7
:108C1000012E47603FF62DAF02274FF0FF366F540D
:108C20004660E618F600AF191148397B0068013933
:108C3000C9B23973002940D04FF47A722344B2FB91
:108C4000F0F200FB02F0B0F57A7F05EBC30518BF28
:108C500001326A60A0E600BFB4620020B562002065
:108C60002816001024160010E4CA0020B862002064
:108C70005017002070B11D49012600220F890132D2
:108C8000002F18BF0026904201F5B271F6D1002ED8
:108C90003FF482AE164A126842F21076E018B6FB34
:108CA000F2F102FB1162012605F8306002B1314495
:108CB000234405EBC30569606EE6BF68B7FBF0F1BE
:108CC00000FB11700327AF5500B101311C44013383
:108CD00005EBC40503F00303934269603FF45CAE07
:108CE00000293FF459AE0139696055E6C4BF002040
:108CF0005017002010B5027C01681F2A4FF0200396
:108D00000ED94C68203A93401C4208D00B4A406868
:108D100000241470026822F001020260CB6010BDD2
:108D20000C6893401C42FAD0044A40680024147036
:108D3000026822F0010202608B60F0E749440020E3
:108D40002DE9F041C40023189B00B749CA58526866
:108D5000958AADB2EFB2FE070B4461D4BE0737D59A
:108D6000BFF35F8F1D7EEDB2012D00F0BB80AF4ED3
:108D7000138BBFF35F8F231801EB83031D7E022D3E
:108D800000F0CE80231801EB83031D7E032D05D157
:108D90009B7E1BB1737A002B40F01A81938896F961
:108DA00008C043F480639380231801EB83031B7E88
:108DB000013363450AD1B37A00257572002B40F068
:108DC0008A80204401EB800000234375BDE8F081D8
:108DD000964E17F0040F96F908C04DD117F04007D2
:108DE00000F0B280178A1D6AFFB205F80C705FFAB6
:108DF0008CF56F1C93F818E07BB2DF1CBE45337214
:108E00009C4600F00981271801EB87073F7EBB4293
:108E1000CAD105F1020C4FFA8CFC86F808C0C3E7F2
:108E20001588824E25F400652D042D0C15801588BB
:108E300045F4806515809D7E00273772002D3DD05A
:108E4000757A002D37D0231801EB830301251B7E93
:108E50007572022B03D1138843F400631380231827
:108E600001EB83039B7D43F001031382204401EB5C
:108E70008000037EBDE8F0819F7E757A4FF0010E81
:108E800086F80AE0002F5CD0002D78D1231801EB82
:108E900083035B7E002B00F0A48013880CF1010C8F
:108EA0004FFA8CFC43F4007386F808C013801388D3
:108EB000DF05FCD478E7DB7DFF2BC4D0231801EB62
:108EC00083039D7D05F0FE051582DB7DFF2BCDD054
:108ED000FF233372CAE7938823F440731B041B0CEF
:108EE00093806EE79B7E514E002B3FF441AF737A27
:108EF000002B3FF43DAF138823F480631B041B0C4D
:108F00001380BFF35F8F138B1388B57243F4007324
:108F10001380938896F908C043F48063938043E7F5
:108F20009B7E002B3FF42EAF737A002B3FF42AAFC9
:108F3000138896F908C023F480631B041B0C13806C
:108F400016E0002DA2D0A8E72D067FF52DAFBCF1CD
:108F5000FF3F6DD0DD6915F80C5015820CF1010C46
:108F60001D7E4FFA8CF39D429C4633727FF41CAFFA
:108F7000938823F480631B041B0C938014E71F7EEB
:108F8000D3F820805FFA8CF5AE44022F4FFA8EFEA4
:108F900017882DD927F480673F043F0C1780178A64
:108FA000FFB208F80C701788D3F820C047F400739C
:108FB0001380138ADBB20CF80E30938805F1020C93
:108FC0004FFA8CFC43F4806386F808C093806EE708
:108FD000938896F908C023F480631B041B0C9380CC
:108FE000E2E61388012543F48073138075725EE70F
:108FF00047F400771780178AFFB208F80C70178AB9
:10900000D3F8208005F1030C4FFA8CFCFBB286F8F4
:1090100008C008F80E304AE7978827F480673F04B5
:109020003F0C9780EFE600BF603D0020A8170020AE
:10903000DD7D15829D7E37721DB91B7E002B7FF46E
:1090400015AF938823F480631B041B0C93800DE7FA
:1090500007B5032301AA00213CF0C6FF9DF80530A7
:109060009DF804001B0243EA00439DF806001843E4
:1090700003B05DF804FB08B5FFF7EAFF014B586049
:1090800008BD00BFA817002008B5FFF7E1FF014B9E
:10909000186008BDA81700203DF06EB938B51D4B0B
:1090A0001B78044600F1250593B104221A492030AB
:1090B00050F008FD28461422184950F003FD012302
:1090C00084F83A30164B1B7873B984F83B3038BDBE
:1090D00028461422134950F0F5FC012384F83A3055
:1090E0000F4B1B78002BF0D00F4B186859689A680B
:1090F000DD68E56020606160A260DD69186959691A
:109100009A69A2610123E5612061616184F83B30C5
:1091100038BD00BF493D0020183D0020003D002023
:109120004A3D0020E4160608203D0020014B186847
:1091300012F024BB204200200123262127220170A7
:1091400042708370C37070472DE9F84FDDE90A64FF
:1091500089461746002120229846054650F074FCA7
:109160005EB1D6E900327189EB81C3F30F432B82E4
:10917000C2F30F43EA822B83698248464EF0B0F96E
:1091800017F0100B10D1431E70B119F803202E2ACE
:1091900018BF09EB030104D14AE011F8016D2E2E2E
:1091A0003ED013F1FF33F8D208280246CA46A8BFC2
:1091B00008224FF0000B4FF020336B602B60C5F896
:1091C00007304946284605F108064FF019F95A4676
:1091D000514630464FF014F96B1EE81D13F8012F6D
:1091E000A2F1610119299CBF203A1A708342F5D17E
:1091F00005F10B0116F8013BA3F16102192A9CBF8E
:10920000203B06F8013CB142F4D11823C8F30F42C9
:10921000EF722B73A5F81A80AA82EC61BDE8F88F73
:10922000C01A00F1FF3BBBF1030FA8BF4FF0030BC7
:10923000082B03F1010AA8BF0823CA441A46BAE75B
:1092400038B52E22002150F0FFFB0346642440F283
:10925000DC5040F21A4140F26C7240F202251C745C
:109260005882132419209982DA8240F2753140F62F
:1092700043021D839C760E250A241877D9831E206D
:1092800002211A84012283F82C00197283F82A1013
:1092900083F8225083F82B409A7383F8252083F8B3
:1092A000292019460248BDE8384038F0CBB800BF45
:1092B000EC16060810B500210446012010F01EFC33
:1092C000207010BD38B500240472451EE1B20220A2
:1092D00010F014FC0134082C05F8010FF6D138BD4C
:1092E00038B500240546048021462846013419F08B
:1092F00095FC082CF8D1002185F8E210A5F8E410BF
:10930000A5F8E610A5F8E810A5F8EA10A5F8EC1005
:10931000A5F8EE10A5F8F010A5F8F2102846BDE863
:10932000384019F03DBC00BF2DE9F04F002087B058
:109330000C461D46012192460FF0B8F9002D63D06E
:1093400005EB0A03DFF8D094DFF8D0B40393554659
:109350001CE0002D00F0C581D9F81430AB4264D078
:10936000D9F81030AB4200F09780D9E90631AB4212
:1093700052D8A94200F26F81691A204641F04AFA98
:10938000039B01359D4204F500743DD0D9F820605F
:10939000AE42DED8D9F83080AE1B4FEAD60AD8F8F4
:1093A00030300AF1020A9A4506F0070603D3D8F8CE
:1093B00038309A4509D94146504641F0F9F980467E
:1093C000002800F04D81C9F8300098F80430002BD7
:1093D00040F0E280D8F82870002F00F0DF81D8F844
:1093E0003030D8F80C20AAEB030A06EBCA0A434631
:1093F000204602EB4A224FF40071B847039B013527
:109400009D4204F50074C1D1002108460FF04EF9C9
:10941000002007B0BDE8F08FA942ADD94FF400722B
:109420000021204650F010FBAAE752226120412380
:10943000002622706270A070722284F8E70184F81E
:10944000E631D9F82800E3704FF0FF33314684F855
:10945000E42184F8E521C4F8E8014FF4F07284F8BF
:10946000EC3184F8ED3184F8EE3184F8EF31201DD1
:1094700050F0EAFA55216FF05502C4F8F061C4F8D3
:10948000F461C4F8F86184F8FC6184F8FD6184F843
:10949000FE1184F8FF2173E74FF40072002120468B
:1094A00050F0D2FAD44BD54F03CBEB2302222370DA
:1094B0004FF0080C9026F8234FF0580EC4F8030024
:1094C000227484F80DC0C4F8071084F801E0A67077
:1094D0006375D9F81010D9F80830D9F81C602273D8
:1094E000591A21624FF0FF3100233F20A1763E211F
:1094F000A273E372E3736374A374E3742375A375B7
:10950000E3756376E3766377A377E3772076217755
:1095100084F82C2007CFD9F8187084F82830F61B6F
:1095200084F8293084F82A3084F82B3084F82D30E0
:1095300084F82E3084F82F3084F8313084F83230BB
:1095400084F8333080236662C4F8470004F147068C
:1095500084F8403029209423A94F84F846C084F829
:10956000420084F843300E200D234FF0010C84F8A4
:10957000440084F8453084F830C0716003CF33462E
:109580005527AA269A60C4F85200C4F8561084F8E9
:10959000FE7184F8FF61F3E64FF40072002120466B
:1095A00050F052FAD8F84030002E61D104F1200773
:1095B000002B77D0D8F8303092491122CDE90066DF
:1095C0002046FFF7C1FDD8F840301A6C04F1400A7C
:1095D000002A79D01B6B8C49CDE9006638461122F0
:1095E000FFF7B2FDD8F84460002E3FF4C9AE4FF447
:1095F000E078CDE904450CE00024CDE900C4FFF794
:10960000A3FDB66CBA46A8F120080EB3B8F11F0F3F
:109610001ED93468356B96F804E011222B4621469A
:1096200050460AF1200706F11C0CBEF1000FE3D1F1
:1096300072793369019342F021022B46CDF800C0C4
:10964000FFF782FDB66CBA46A8F12008002EDDD1E6
:10965000DDE9044594E6E91A204641F0DBF88FE69F
:10966000231F04F5FE7243F804BF9A42FBD187E63C
:10967000002BD8F844200CBF01230223C3EB0613B0
:10968000002A3FF47DAE966C013B002E3FF478AE8D
:10969000013BB66CF9D1002E3FF472AEA2464FF4F6
:1096A0000078A6E7CDE900663346D9F80C10082209
:1096B0002046FFF749FDD8F84460002E3FF460AE25
:1096C000BA464FF4F07894E7CDE900663346384661
:1096D00011224D49FFF738FDD8F84460002E86D19D
:1096E0004EE64FF400722946204650F0ADF9802234
:1096F0000C2384F8BE2184F8C231D9F81000434B02
:10970000D9F8086084F8B85183FB0032C117C1EB67
:109710002232B2F5806F84F8B95184F8BA5184F8D6
:10972000BB5184F8BC5184F8BD51C4F8C601C4F8DB
:10973000CA6142DBFF2384F8BF3184F8C13184F869
:10974000C031324B711E83FB0132CE17C6EB223281
:10975000B2F5806F29DA2E4B84F8C52183FB010313
:109760000B442C48C6EB6313C3EB831680FB0370DA
:10977000891B1844DE17921022F03F020131C6EB1C
:10978000E0100A43034484F8C42184F8C33155220D
:10979000AA2384F8FE2184F8FF31F1E539464FF41D
:1097A0000072204650F050F9EAE5FF2384F8C331F7
:1097B00084F8C53184F8C431E9E7154B84F8C12138
:1097C00083FB00730344134FC1EB631387FB031741
:1097D000C3EB831C9110A0EB0C02F818DF1721F0EB
:1097E0003F010132C7EBE0100A43034484F8C02173
:1097F00084F8BF31A5E700BF001706080C1706085C
:109800001C170608F8160608FC1606089755454169
:109810008320088281808080B8B90020DEADBEEF51
:1098200008B501202EF0A0FF174A936803F00C033F
:10983000042B1ED0082B18D151685368490203F03D
:109840003F0319D452681148B0FBF3F0C2F38813F8
:1098500000FB03F00C4B0E4A5B68C3F3014301337A
:109860005B00B0FBF3F0106008BD094B074A1A60BB
:1098700008BD074B186008BDB0FBF3F05368C3F395
:10988000881300FB03F0E5E7003802400024F400F1
:1098900058A800202DE9F0410D4601211C4608463C
:1098A00016460EF003FFC4B105EB44280E4F01E04D
:1098B0002DF076F83A680023146929461A46304696
:1098C000A0470028F4D12DF06BF80028FBD005F557
:1098D0000075454506F10106ECD1002101200EF08E
:1098E000E5FE0020BDE8F081A4B900202DE9F0419B
:1098F0000D4601211C46084616460EF0D7FEACB1B7
:109900000E4F05EB44283A680023946829461A460E
:109910003046A0470028F6D02DF042F80028FBD0B2
:1099200005F50075454506F10106ECD10021012041
:109930000EF0BCFE0020BDE8F08100BFA4B90020FD
:1099400008B52DF02DF880F00100404240B208BD6E
:1099500038B514460D462DF015F84FF40073026823
:109960002A600020236038BD002108B508460EF0AB
:109970009DFE40F007FF2DF013F80028FBD00121D9
:1099800000200EF093FE002008BD00BF10B5044C6F
:1099900004480A4621462DF035FB204610BD00BF85
:1099A000B41700202817060810B5044C04480A46CE
:1099B00021462DF027FB204610BD00BFB417002024
:1099C0003817060810B5044C04480A4621462DF005
:1099D00019FB204610BD00BFB4170020441706082D
:1099E0000A4608B5054920B105482DF00BFB034890
:1099F00008BD04482DF006FB004808BDB417002040
:109A00007017060858170608F8B584894FF6FF76D0
:109A10004FF47A7433B319B30F78013101E0B442D3
:109A200018D00589013CAD07A4B2F8D5BCB2848139
:109A30004FF47A7402E0BCB2B4420BD00589ED0752
:109A400004F1FF37F7D58589ADB20AB1157001323F
:109A5000013BDFE73CF020FA003018BF0120F8BDE1
:109A6000FF27DEE70120F8BD30B5437F83B0044611
:109A70001BB90120637703B030BD0523ADF8043076
:109A8000056800BFA8683BF001FF6A4601A90223F0
:109A90006868FFF7B9FFA8683BF0FEFE00BF9DF8BD
:109AA000013003F0010383F00100637703B030BDA0
:109AB000F8B5074C05460F46266803E023689B1B54
:109AC000BB4204D82846FFF7CFFF0028F6D0F8BDE8
:109AD000C8B20020F0B5077F83B004464FF0030CF6
:109AE0000020009016461D468DF804008DF800C039
:109AF0006FB30B0E8DF801300DF10203080C0A0A4A
:109B000099701870062120465A70FFF7D1FFE0B116
:109B1000236800BF98683BF0B9FE237F2268002BC2
:109B200014BF05230423694650680022FFF76CFF29
:109B300023683246002158682B46FFF765FF2368EB
:109B400098683BF0A9FE00BF284603B0F0BD0DF1B8
:109B50000103D3E7F0B5876983B0064617B13B68C8
:109B6000BA885A837069DFF8A8E08389C3244FF468
:109B70007A734FF0060C6D464FF6FF710EF1010E31
:109B800003E0013B9BB28B4220D002899207F8D5BB
:109B9000A3B283814FF47A7302E0A3B28B4215D053
:109BA0000289D20703F1FF34F7D5828992B20DB151
:109BB0002A700135BCF1000F0BD00CF1FF3CFF24E3
:109BC000BEF1000FE1D09EF80040D7E73CF064F909
:109BD000B76917B13B68BA881A839DF805009DF8EC
:109BE00001509DF802109DF803409DF804209DF857
:109BF000063041EA052143EA002342EA042201201B
:109C0000A6F85010A6F85220A6F8543003B0F0BDC4
:109C1000649B05082DE9F04FB04C436894F80B2184
:109C200085B00190002A00F03A811A88AC4922F0F0
:109C300040021204120C1A801A8822F03802120410
:109C40008B424FEA124200F0288101F580618B427D
:109C50000CBF302138210A431A801A880198A14C80
:109C6000A14FDFF890A2A14DA14E42F040021A8010
:109C70006B2180223CF032F9152303939623DFF801
:109C800078E200934FF01008DAF80430C3F30803C9
:109C9000002B40F0D180EFF31183002B40F0CC80FB
:109CA0002068AA6823689842FAD133689A42F7D8A4
:109CB000D7F800C04FF47A7101FB0CF39B1AB3FB89
:109CC000FCF301FB00304FF47A7C4FF00109DAF825
:109CD0000430C3F30803002B40F09080EFF31183AE
:109CE000002B40F08B802368A96822689342FAD148
:109CF00032689142F7D83A680CFB02FBABEB0101EA
:109D0000B1FBF2F10CFB03131B1AB3F57A7FDED320
:109D1000009B013B0093B7D1019B9B6813B11A686C
:109D20009B885383019B586840F2E933828902E0A3
:109D3000002B00F0AD800289013B12F0020F9BB2B4
:109D4000F6D0F523838140F2E93302E0002B00F0E6
:109D50009F800289013B12F0010F9BB2F6D08389EC
:109D6000838940F2E93302E0002B00F0868002890B
:109D7000013B12F0020F9BB2F6D0FF23838140F229
:109D8000E93301E0002B78D00289013B12F0010F8A
:109D90009BB2F7D08389DBB20293019B9B6813B11E
:109DA0001A689B881383029B982B00F0B08069D9B6
:109DB000AC2B65D0AF2B40F0A1800920019B484916
:109DC0005B681A8822F040021204120C1A801A886A
:109DD00022F0380212048B424FEA124256D001F5AB
:109DE00080618B420CBF082110210A431A801A8817
:109DF00042F040021A8005B0BDE8F08FEFF3118108
:109E000088F31288D5F808B02B68DB0344BFCEF87E
:109E10000090D5F808B02368DEF80020C9B281F3BD
:109E20001188396813440CFB01F2A2EB0B02B2FB60
:109E3000F1F20CFB032367E7EFF3118388F3128839
:109E4000D5F808C02A68D20304D50122CEF8002034
:109E5000D5F808C02068DEF80090DBB283F31188E3
:109E600039684FF47A72484402FB01F3A3EB0C0308
:109E7000B3FBF1F302FB003025E73CF00DF88CE773
:109E800007209BE7122B39D1082097E70821ACE780
:109E90003CF002F8019B586862E73021DBE61A8843
:109EA0000F4922F040021204120C1A801A8822F084
:109EB000380212048B424FEA12422AD001F5806127
:109EC0008B420CBF082110210A431A801A880121F5
:109ED00042F040021A8084F80B11A6E6A817002071
:109EE00000380040C8B20020CCB2002010E000E0F2
:109EF000D0B2002000ED00E0C4B20020039B013B83
:109F000013F0FF0303937FF4B9AE039873E70B20BC
:109F100054E70821D8E700BF38B5054640683B4AFA
:109F2000038823F040031B041B0C0380038823F0E9
:109F300038031B0490424FEA134305D002F58062B8
:109F4000904201D043F0080303800388AA6843F0DD
:109F50004003038012B1136892885A83838940F2C8
:109F6000E93301E0002B43D00289013B12F0020FDC
:109F70009BB2F7D0F523838140F2E93301E0002B57
:109F800036D00289013B12F0010F9BB2F7D08389D2
:109F9000838940F2E93300E00BB30289013B12F000
:109FA000020F9BB2F8D0FF23838140F2E93300E037
:109FB000ABB10289013B12F0010F9BB2F8D084894A
:109FC000E4B2AB6813B11A689B881383712C19D063
:109FD00008D9AC2C14D0AF2C0ED1092038BD3BF0E1
:109FE0005BFFEEE7122C0FD0702C07D1052038BD97
:109FF0003BF052FF6868CBE7732C03D0002038BDDC
:10A00000072038BD062038BD082038BD0038004084
:10A010004268AC49138823F040032DE9F04F1B043C
:10A020001B0C1380138887B023F038031B048A426B
:10A0300002904FEA134300F0FF8001F580618A42ED
:10A040000CBF302138210B431380138802989E4C9B
:10A050009E4FDFF884A29E4D9E4E43F04003138036
:10A060006B2180223BF03AFF062304939623DFF80E
:10A070006CE201934FF01008DAF80430C3F30803E0
:10A08000002B40F0B080EFF31183002B40F0AB8049
:10A090002068AA6823689842FAD133689A42F7D8B0
:10A0A000D7F800C04FF47A7101FB0CF39B1AB3FB95
:10A0B000FCF301FB00304FF47A7C4FF00109DAF831
:10A0C0000430C3F30803002B6FD1EFF31183002B8F
:10A0D0006BD12368A96822689342FAD13268914211
:10A0E000F7D83A680CFB02FBABEB0101B1FBF2F1D4
:10A0F0000CFB03131B1AB3F57A7FE0D3019B013BE2
:10A100000193B9D1029B9B6813B11A689B88538352
:10A11000029B586840F2E933828902E0002B00F08C
:10A1200086800289013B12F0020F9BB2F6D0F52324
:10A13000838140F2E93301E0002B78D00289013BB2
:10A1400012F0010F9BB2F7D08389838940F2E93383
:10A1500001E0002B68D00289013B12F0020F9BB294
:10A16000F7D0FF23838140F2E93301E0002B5BD07D
:10A170000289013B12F0010F9BB2F7D08389DBB259
:10A180000393029B9B6813B11A6899881183039A01
:10A19000682A53D0049B013B13F0FF0304937FF420
:10A1A00065AF184607B0BDE8F08FEFF3118188F373
:10A1B0001288D5F808B02B68DB0344BFCEF80090B6
:10A1C000D5F808B02368DEF80020C9B281F3118801
:10A1D000396813440CFB01F2A2EB0B02B2FBF1F263
:10A1E0000CFB032386E7EFF3118388F31288D5F87D
:10A1F00008C02A68D20304D50122CEF80020D5F881
:10A2000008C02068DEF80090DBB283F3118839685B
:10A210004FF47A72484402FB01F3A3EB0C03B3FB47
:10A22000F1F302FB003046E73BF036FEA9E73BF0D6
:10A2300033FE029B586888E7302104E713B11A689F
:10A240009B885383029B586840F2E933828901E07E
:10A25000002B53D00289013B12F0020F9BB2F7D0C2
:10A260008C23838140F2E93301E0002B46D0028940
:10A27000013B12F0010F9BB2F7D08389838940F232
:10A28000E9330289013B12F0020F9BB215D1002B7A
:10A29000F7D13BF001FE029B9B6813B11A689B88C3
:10A2A0001383059B142B04D3182B25D9543B062B61
:10A2B00022D9002007B0BDE8F08FFF23838140F250
:10A2C000E9330FE000380040C8B20020CCB20020D3
:10A2D00010E000E0D0B2002000ED00E0C4B20020A9
:10A2E000002BD6D00289013B12F0010F9BB2F7D0B0
:10A2F0008389DBB20593CEE7032053E73BF0CCFD27
:10A30000029B5868BAE700BF2DE9F04F85B090F87E
:10A3100061300290002B40F02B85029BC3495A69A3
:10A32000138823F040031B041B0C1380138823F0B5
:10A3300038031B048A424FEA134300F0508501F5AD
:10A3400080618A420CBF302138210B43138013886F
:10A350000299B74CB74EDFF8E882B74F43F040039D
:10A36000103113800391084680226B213BF0B6FD2B
:10A370006423DFF8D0E2B14801934FF01009DEF812
:10A380000430C3F30803002B40F0E783EFF311839D
:10A39000002B40F0E2832568826823689D42FAD151
:10A3A0003B689A42F7D8D6F800C04FF47A7101FBA7
:10A3B0000CF39B1AB3FBFCF301FB05354FF47A7CDD
:10A3C0004FF0010ADEF80430C3F30803002B40F01D
:10A3D000A683EFF31183002B40F0A18323688168EB
:10A3E00022689342FAD13A689142F7D832680CFB5E
:10A3F00002FBABEB0101B1FBF2F10CFB03135B1BA6
:10A40000B3F57A7FDED3019B013B0193B7D10322E1
:10A4100068210398DFF82882874F3BF05FFD6423B3
:10A42000DFF820E2854801934FF01009DEF8043090
:10A43000C3F30803002B40F01484EFF31183002BC7
:10A4400040F00F842568826823689D42FAD13B68FA
:10A450009A42F7D8D6F800C04FF47A7101FB0CF39A
:10A460009B1AB3FBFCF301FB05354FF47A7C4FF0EC
:10A47000010ADEF80430C3F30803002B40F03183F7
:10A48000EFF31183002B40F02C832368816822684E
:10A490009342FAD13A689142F7D832680CFB02FB3A
:10A4A000ABEB0101B1FBF2F10CFB03135B1BB3F54A
:10A4B0007A7FDED3019B013B0193B7D101226B214F
:10A4C0000398DFF87C815C4F3BF008FD0F23DFF839
:10A4D00074E15A4801934FF01009DEF80430C3F3D9
:10A4E0000803002B40F09C83EFF31183002B40F016
:10A4F00097832568826823689D42FAD13B689A4217
:10A50000F7D8D6F800C04FF47A7101FB0CF39B1A10
:10A51000B3FBFCF301FB05354FF47A7C4FF0010AE5
:10A52000DEF80430C3F30803002B40F0BC82EFF3E5
:10A530001183002B40F0B782236881682268934220
:10A54000FAD13A689142F7D832680CFB02FBABEBC8
:10A550000101B1FBF2F10CFB03135B1BB3F57A7F36
:10A56000DED3019B013B0193B7D118221B21039835
:10A57000DFF8CC80304F3BF0B1FC0F23DFF8C4E0B4
:10A580002E4801934FF01009DEF80430C3F308039E
:10A59000002B40F02483EFF31183002B40F01F8346
:10A5A0002568826823689D42FAD13B689A42F7D8B1
:10A5B000D6F800C04FF47A7101FB0CF39B1AB3FB81
:10A5C000FCF301FB05354FF47A7C4FF0010ADEF80D
:10A5D0000430C3F30803002B40F04782EFF31183EC
:10A5E000002B40F042822368816822689342FAD1AE
:10A5F0003A689142F7D832680CFB02FBABEB0101E1
:10A60000B1FBF2F10CFB03135B1BB3F57A7FDED3D6
:10A61000019B013B0193B7D118221C210398DFF85D
:10A620002080054F3BF05AFC0F230DE0003800401E
:10A63000C8B20020CCB20020D0B2002010E000E070
:10A64000C4B2002000ED00E0DFF814E3C14801933C
:10A650004FF01009DEF80430C3F30803002B40F07C
:10A660009D82EFF31183002B40F098822568826869
:10A6700023689D42FAD13B689A42F7D8D6F800C0C9
:10A680004FF47A7101FB0CF39B1AB3FBFCF301FB53
:10A6900005354FF47A7C4FF0010ADEF80430C3F33D
:10A6A0000803002B40F0C381EFF31183002B40F02F
:10A6B000BE812368816822689342FAD13A68914248
:10A6C000F7D832680CFB02FBABEB0101B1FBF2F1F6
:10A6D0000CFB03135B1BB3F57A7FDED3019B013BBD
:10A6E0000193B7D1029A92F85B30032B00F23E83BC
:10A6F00092F85E20012A0BD0022A40F03783029B99
:10A7000093F8633003F0FB03022B0CBF00220722F7
:10A710001A210398DFF84C828F4F3BF0DFFB0F23A9
:10A72000DFF83CE28B4801934FF01009DEF804306B
:10A73000C3F30803002B40F0F882EFF31183002BE2
:10A7400040F0F3822568826823689D42FAD13B6815
:10A750009A42F7D8D6F800C04FF47A7101FB0CF397
:10A760009B1AB3FBFCF301FB05354FF47A7C4FF0E9
:10A77000010ADEF80430C3F30803002B40F03981EE
:10A78000EFF31183002B40F0348123688168226845
:10A790009342FAD13A689142F7D832680CFB02FB37
:10A7A000ABEB0101B1FBF2F10CFB03135B1BB3F547
:10A7B0007A7FDED3019B013B0193B7D1029B0398C3
:10A7C00093F86020DFF89C81634F19213BF086FBF2
:10A7D0006423DFF88CE15F4801934FF01009DEF845
:10A7E0000430C3F30803002B40F07E82EFF31183A3
:10A7F000002B40F079822568826823689D42FAD157
:10A800003B689A42F7D8D6F800C04FF47A7101FB42
:10A810000CF39B1AB3FBFCF301FB05354FF47A7C78
:10A820004FF0010ADEF80430C3F30803002B40F0B8
:10A83000C280EFF31183002B40F0BD802368816854
:10A8400022689342FAD13A689142F7D832680CFBF9
:10A8500002FBABEB0101B1FBF2F10CFB03135B1B41
:10A86000B3F57A7FDED3019B013B0193B7D1102270
:10A8700037210398DFF8EC80374F3BF02FFB0F2395
:10A88000DFF8DCE0334801934FF01009DEF80430C4
:10A89000C3F30803002B40F00682EFF31183002B73
:10A8A00040F001822568826823689D42FAD13B68A6
:10A8B0009A42F7D8D6F800C04FF47A7101FB0CF336
:10A8C0009B1AB3FBFCF301FB05354FF47A7C4FF088
:10A8D000010ADEF80430C3F30803002B4DD1EFF377
:10A8E0001183002B49D12368816822689342FAD1F1
:10A8F0003A689142F7D832680CFB02FBABEB0101DE
:10A90000B1FBF2F10CFB03135B1BB3F57A7FE0D3D1
:10A91000019B013B0193B9D10122382103983BF0FF
:10A92000DDFA029B0D495A69138823F040031B048A
:10A930001B0C1380138823F038031B048A424FEA50
:10A94000134300F04F8201F580618A420CBF082159
:10A95000102109E010E000E0D0B2002000380040F3
:10A9600000ED00E0C4B200200B431380138843F0D5
:10A970004003138005B0BDE8F08FEFF3118189F338
:10A980001288D0F808B00368DB0344BFC8F800A001
:10A99000D0F808B02368D8F80020C9B281F3118834
:10A9A000316813440CFB01F2A2EB0B02B2FBF1F293
:10A9B0000CFB0323A8E7EFF3118189F31288D0F889
:10A9C00008B00368DB0344BFC8F800A0D0F808B0A3
:10A9D0002368D8F80020C9B281F311883168134484
:10A9E0000CFB01F2A2EB0B02B2FBF1F20CFB032316
:10A9F00035E7EFF3118189F31288D0F808B00368C6
:10AA0000DB0344BFC8F800A0D0F808B02368D8F82A
:10AA10000020C9B281F31188316813440CFB01F2A4
:10AA2000A2EB0B02B2FBF1F20CFB0323BEE6EFF349
:10AA3000118189F31288D0F808B00368DB0344BFA2
:10AA4000C8F800A0D0F808B02368D8F80020C9B230
:10AA500081F31188316813440CFB01F2A2EB0B0265
:10AA6000B2FBF1F20CFB032334E6EFF3118189F31F
:10AA70001288D0F808B00368DB0344BFC8F800A010
:10AA8000D0F808B02368D8F80020C9B281F3118843
:10AA9000316813440CFB01F2A2EB0B02B2FBF1F2A2
:10AAA0000CFB0323B0E5EFF3118189F31288D0F892
:10AAB00008B00368DB0344BFC8F800A0D0F808B0B2
:10AAC0002368D8F80020C9B281F311883168134493
:10AAD0000CFB01F2A2EB0B02B2FBF1F20CFB032325
:10AAE0003BE5EFF3118189F31288D0F808B00368D1
:10AAF000DB0344BFC8F800A0D0F808B02368D8F83A
:10AB00000020C9B281F31188316813440CFB01F2B3
:10AB1000A2EB0B02B2FBF1F20CFB0323C6E4EFF352
:10AB2000118189F31288D0F808B00368DB0344BFB1
:10AB3000C8F800A0D0F808B02368D8F80020C9B23F
:10AB400081F31188316813440CFB01F2A2EB0B0274
:10AB5000B2FBF1F20CFB032351E4EFF3118389F311
:10AB60001288D0F808C00268D20304D50122C8F8C0
:10AB70000020D0F808C02568D8F800A0DBB283F325
:10AB8000118831684FF47A72554402FB01F3A3EB4C
:10AB90000C03B3FBF1F302FB05350FE4EFF3118374
:10ABA00089F31288D0F808C00268D20304D50122C4
:10ABB000C8F80020D0F808C02568D8F800A0DBB29B
:10ABC00083F3118831684FF47A72554402FB01F324
:10ABD000A3EB0C03B3FBF1F302FB053559E5EFF3EF
:10ABE000118389F31288D0F808C00268D20304D513
:10ABF0000122C8F80020D0F808C02568D8F800A0C5
:10AC0000DBB283F3118831684FF47A72554402FB4A
:10AC100001F3A3EB0C03B3FBF1F302FB0535D2E424
:10AC2000EFF3118389F31288D0F808C00268D203C9
:10AC300004D50122C8F80020D0F808C02568D8F84B
:10AC400000A0DBB283F3118831684FF47A72554467
:10AC500002FB01F3A3EB0C03B3FBF1F302FB05359D
:10AC60005AE4EFF3118389F31288D0F808C0026820
:10AC7000D20304D50122C8F80020D0F808C0256806
:10AC8000D8F800A0DBB283F3118831684FF47A72F0
:10AC9000554402FB01F3A3EB0C03B3FBF1F302FBFE
:10ACA0000535FFF7E2BBEFF3118389F31288D0F883
:10ACB00008C00268D20304D50122C8F80020D0F8E9
:10ACC00008C02568D8F800A0DBB283F3118831688A
:10ACD0004FF47A72554402FB01F3A3EB0C03B3FB70
:10ACE000F1F302FB0535F0E5EFF3118389F31288E8
:10ACF000D0F808C00268D20304D50122C8F80020A9
:10AD0000D0F808C02568D8F800A0DBB283F311881A
:10AD100031684FF47A72554402FB01F3A3EB0C0344
:10AD2000B3FBF1F302FB053578E5EFF3118389F30B
:10AD30001288D0F808C00268D20304D50122C8F8EE
:10AD40000020D0F808C02568D8F800A0DBB283F353
:10AD5000118831684FF47A72554402FB01F3A3EB7A
:10AD60000C03B3FBF1F302FB0535FEE4019ACFE4DB
:10AD70001E09013E032E03F00F0300F10C0733D828
:10AD80001E4A32F8160040FA03F2D1072CD50125ED
:10AD900005FA03F3013B18404DF0E8F8184B194C45
:10ADA0009B5D184414EBC0041ED00022E2712023E6
:10ADB000029AA371144BD360394620463DF02CFE15
:10ADC000A388B3FA83F3C3F11F0315FA03F33FF427
:10ADD000A4AA0E490A6813430B60FFF79EBA3021FC
:10ADE000FFF7B3BA0821BFE5029A074BD360394693
:10ADF00000203DF011FEFFF790BA00BF14FE0508D9
:10AE00001CFE0508C4B0002051880008003C014029
:10AE10002DE9F84F037C02681F2B86BF203B516849
:10AE20001168202202FA03F30B4214BF012300230E
:10AE30000BB9BDE8F88F4569824F04460FF0BEFBA1
:10AE40004FF4B27303FB057380461A7C002A35D198
:10AE50007D495A680978D2F80090D1B9D3F8D81052
:10AE600058890A6822F001020A60B9F80C3023EA16
:10AE70000003A9F80C30754B1B78002B32D1237CD2
:10AE800021681F2B13D8202202FA03F38B60BDE840
:10AE9000F88F5269136823F001031360B9F80C307E
:10AEA00023F480731B041B0CA9F80C30E3E7203B50
:10AEB000202202FA03F3CB60BDE8F88FD3F8D86004
:10AEC00063485F8901225A7431685A6803681568BB
:10AED00021F001013160AA89013322EA0702AA8127
:10AEE0000360CCE74FF4B27303FB0573594AD3F800
:10AEF000D860336823F00103336000233360964247
:10AF00007360B360F36033614FF0210373617AD0F3
:10AF1000514B9E4272D0514B9E4278D0504B9E4234
:10AF20007AD0504B9E427CD04F4B9E427DD04F4BAF
:10AF30009E427ED04E4B9E427FD030462DF07EFA10
:10AF40004FF4B27A0AFB05FA07EB0A0501232B74CA
:10AF5000D5F8DCB00FF032FB0AF18C013944CBF8A4
:10AF60002C0148462DF058FCD5E92B70D5F89830C7
:10AF7000D5E92D123B4303430B431343D5F8BC20C3
:10AF8000D5F8CC7030683B491343D5F8C020134343
:10AF9000D5F8D0203B43014013430B430022C5F8B2
:10AFA000A42033607269D5F8C430D5F8A81022F017
:10AFB000070CD5F8C820D5E92770134343EA0C03E2
:10AFC00073617160B760F0603268D5F8D83095F879
:10AFD000D400696842F01002326058601A6809684B
:10AFE00042F001021A608B896A8913438B810FF04A
:10AFF000E5FA214BA0EB0800186040E74FF47462BB
:10B0000043F8202C9CE71D4B3D229A6098E74FF4B3
:10B01000741243F8382C93E74FF0746243F8502CC5
:10B020008EE7174A43F8642C8AE7164A43F87C2CCB
:10B0300086E7154A43F8942C82E74FF03D5243F8D7
:10B04000AC2C7DE7C4BF0020241600102016001091
:10B0500018630020106002402860024040600240F7
:10B06000586002407060024088600240A060024068
:10B07000B86002403F801CF0CC1400100060024019
:10B080003D000020400F002000003D2020B100784E
:10B09000B0FA80F0400970470120704708B52021C0
:10B0A0004EF0E9FC0346184623B10278202A03F14A
:10B0B0000103F8D008BD037903F01803082B0AD068
:10B0C00002D82BB100207047102B16D0182BF9D1C5
:10B0D000B0F80B007047124BB0F80B0093F900303A
:10B0E000591C06BF0F4B1B78DBB2C3EBC30203EB4B
:10B0F000820300EB830080B270470B4BB0F80B006B
:10B1000093F900305A1C06BF064B5B78DBB203EBA9
:10B11000430203EB820300EB430080B2704700BFA1
:10B12000390E0020E86F0020380E0020F0B50679B7
:10B1300006F0E003402B09D144794FF0FF3500239E
:10B14000012006F00706A3420BD1F0BD602B08BF1B
:10B1500045794FF001040CBF04FA05F54FF0FF35B7
:10B16000EDE7042E0CD8DFE806F0030D18242E00BE
:10B1700030B1C85CD75C784028420CBF0120002069
:10B180000133E0E70028FBD0C856D756A0EB070CE8
:10B19000DCF1000040EB0C00F2E70028F0D031F8C1
:10B1A000130032F81370784028420CBF01200020B1
:10B1B000E6E70028E4D031F9130032F91370C71B19
:10B1C00078427841DCE70028DAD051F8230052F8C1
:10B1D0002370784028420CBF01200020D0E7024BAA
:10B1E000014618683BF0C8B81441002038B5064D38
:10B1F000441E14F8011F286819B9BDE838403BF017
:10B2000035B83BF0B9F8F4E7144100200048EDE709
:10B210002556060808B5FFF7E9FFBDE80840F5E741
:10B2200010B504460348FFF7E1FF2046BDE8104093
:10B23000F0E700BF2816060838B5074C074DAC42AA
:10B2400003D3074B00221A7038BD6288D4E901018C
:10B250004DF0D6F81434F2E7900100086C070008AE
:10B26000D8A7002038B5074C074DAC4203D3074B95
:10B2700001221A7038BD6288D4E901104DF0C0F87F
:10B280001434F2E7900100086C070008D8A70020EA
:10B29000024A136823EA000010607047E0D40020DF
:10B2A000DFED2E7AB4EEE70AF1EE10FA4ADDDFEDBB
:10B2B0002C6A9FED2C7A01E0B0EE670AB4EEC70A63
:10B2C000F1EE10FA70EE667AF6DC9FED277AF4EE76
:10B2D000C77AF1EE10FA3ED5DFED216A9FED237AB1
:10B2E00001E0F0EE407AF4EEC77AF1EE10FA37EEB4
:10B2F000A60AF6D4DFED1E7AB4EEE70AF1EE10FAF4
:10B3000014DDDFED167A37EEC00A60EE006A9FEDBD
:10B31000196A9FED197ADFED197AA6EE867A20EE8A
:10B32000266AE6EE877AA6EE270A7047DFED147AE2
:10B33000B4EEE70AF1EE10FA44BFDFED0B7A37EE18
:10B34000C00AE2E79FED087AF0EE407AF4EEC77AA1
:10B35000F1EE10FAC0D4B0EE670ACBE7DB0F49403C
:10B36000DB0FC940E4CB1641DB0F49C0E4CB16C16B
:10B37000DB0FC93F92E741B99730083C15A82ABEB8
:10B38000DB0FC9BFF0EEC07AB0EEE07AB4EEE77A38
:10B39000F1EE10FAB4BFB0EE676AB0EE476AB5EEF0
:10B3A000406AF1EE10FA46D0B4EEE77AF1EE10FA08
:10B3B0008CBFF0EE675AF0EE475AC5EE866A9FEDF5
:10B3C0001F3A9FED1F6A9FED1F4A9FED1F5ADFED49
:10B3D0001F3ADFED1F4ADFED1F5AA6EEC36AE6EE05
:10B3E000A34AA6EE864AB7EE006AA6EE845AA6EEF7
:10B3F000A46AE6EE855AC5EE866AB4EEE77AF1EE07
:10B4000010FA48BFDFED147AF5EEC00A48BF77EEB8
:10B41000E66AF1EE10FA48BFDFED107AB5EEC00A29
:10B4200048BF77EEE66AF1EE10FA48BFF1EE666AC1
:10B43000B0EE660A7047DFED076ADEE739094E3D78
:10B44000E3B59E3E88FA163E45FE7F3F99FB243FBA
:10B4500069A2163EA7DFA834DB0FC93FDB0F4940C6
:10B46000DFED317A30EE277AFDEEC76A16EE903ABC
:10B470002033402B02D99FED2D0A7047B4EEE70A26
:10B48000F1EE10FA4DDD9FED2A6ADFED2A6A01E048
:10B49000B0EE677AB4EEE67AF1EE10FA77EE467A1D
:10B4A000F6DC9FED257AF4EEC77AF1EE10FA35D589
:10B4B000DFED1F6A9FED217A01E0F0EE407AF4EEB5
:10B4C000C77AF1EE10FA37EEA60AF6D4DFED167A57
:10B4D000B4EEE70AF1EE10FA1BDCDFED197AB4EEF8
:10B4E000E70AF1EE10FA44BFDFED137A37EEC00A37
:10B4F00060EE006A9FED136A9FED137ADFED137A19
:10B50000A6EE867A20EE266AE6EE877AA6EE270A6F
:10B510007047DFED0F7A37EEC00AE9E7B0EE670A51
:10B52000D4E7F0EE477ABCE7DB0FC93F000000002C
:10B53000DB0FC940E4CB1641DB0F49C0E4CB16C199
:10B54000DB0FC9BF92E741B99730083C15A82ABE66
:10B55000DB0F494010B44C09012250F8243001F0AF
:10B560001F0102FA01F123EA010340F824305DF8DB
:10B57000044B704710B44C09012250F8243001F0FC
:10B580001F0102FA01F10B4340F824305DF8044B2F
:10B59000704700BF4B0901F01F0150F82320012321
:10B5A00003FA01F1114214BF18460020704700BF92
:10B5B0002DE9F043002489B006460D461F46A046FB
:10B5C00005E025290CD030460134A847039A531CC6
:10B5D000039311780029F4D1204609B0BDE8F08327
:10B5E000931CCDE903385078302842D0A0F13003C5
:10B5F000DBB2092B4FF0000945D96C282AD064280A
:10B6000073D019D9732858D063D9752840F0828037
:10B6100007F1040C386805AB00220A216746FCF7E5
:10B620001FFE05AB049A009329464B463046FCF7B3
:10B63000EDFC039A0444CAE725283CD051D9582888
:10B640006BD06328C2D139783046A847043701341B
:10B65000039ABCE7039B5A1C03921B78642B52D0BD
:10B6600016D8252B27D064D9582B18D0632BEAD0B5
:10B67000ADE7D31C03939078A0F13003DBB2092B24
:10B680004FF00109B9D804AA03A93FF015F9B4E7AE
:10B69000732B12D051D9752B2DD0782B97D1A3F1C4
:10B6A0005802B2FA82F23868520905AB1021043709
:10B6B000FCF7D6FDB5E7252185E73B68049A0093A2
:10B6C000294600233046FCF7A1FC04370444039AC2
:10B6D0007DE76E287FF47AAF039A3B6804371C60DD
:10B6E00075E700283FF478AF70E7386805A9FCF7E4
:10B6F00081FD043795E7386805AB00220A21FCF785
:10B70000AFFD04378DE73B1D386805A91F46FCF7E0
:10B7100071FD86E778287FF459AFA0F15802B2FA9C
:10B7200082F23868520905AB1021FCF799FD043705
:10B7300077E7002B3FF450AF49E76E2BCDD046E7BB
:10B7400010B5064C0B46024605492068FFF730FF4E
:10B750002068BDE810403AF089BD00BF14410020C8
:10B760009990000838B504460D460848FFF73EFD9D
:10B7700029462046FFF7E4FF0548FFF737FD054B54
:10B780001B7813B1044B01221A7038BD2D16060820
:10B790003816060870420020714200200FB407B529
:10B7A00004A951F8040B0191FFF7DCFFFFF72EFD10
:10B7B00003B05DF804EB04B0704713460A46014637
:10B7C0000048EBE73C1606080048E7E75516060870
:10B7D0000FB407B504A951F8040B0191FFF7C2FF9C
:10B7E00003B05DF804EB04B070470FB407B504A9CB
:10B7F00051F8040B0191FFF7A3FFFFF707FD03B01A
:10B800005DF804EB04B070470FB407B504A951F814
:10B81000040B0191FFF794FF03B05DF804EB04B053
:10B8200070472DE9F843037903F0E001202928D07F
:10B8300002D849B1BDE8F883402945D06029F9D143
:10B840002448BDE8F843D0E703F00703022B02D0F9
:10B85000042B08D06BB9B0F80720B0F805101E48CB
:10B86000BDE8F843C1E7D0F805201B48BDE8F84320
:10B87000BBE7B0F90720B0F905101748BDE8F84359
:10B88000B3E74579154E1648FFF7B0FC06EBC50245
:10B89000002492F804800123A04502D8BDE8F843B3
:10B8A000B4E456F8357057F824204FEA84094AB1B9
:10B8B00013B90C48FFF79AFC57F809100A48FFF72C
:10B8C000A3FF00230134E7E741790848BDE8F843C6
:10B8D0008BE700BF9D1606086116060808E00508FC
:10B8E0007816060889160608034A06088C16060804
:10B8F0002DE9F0411746027902F0E003402B05469E
:10B900000E462BD10024554FDFF8708115E02B79BE
:10B9100003F00703022B15D0032B19D0012B14BF02
:10B92000315D31573846FFF76FFF6B79013BA3421A
:10B9300002DD4046FFF75AFC01346B79A342E6DC96
:10B94000BDE8F08136F814103846FFF75DFFECE7EC
:10B9500036F914103846FFF757FFE6E702F0070202
:10B96000042A5DD8DFE802F0031D25272A00347879
:10B97000202B3AD068D8002BE2D1B5F80560B5F895
:10B98000078036482146FFF73FFFA64240DCA0452E
:10B990003EDB002FD4D0424631463148BDE8F0416D
:10B9A00032E796F90040202B1FD04DD8002B3DD018
:10B9B000C6E73488DCE7B6F90040F4E7D6F8008043
:10B9C000202B444611D03FD8002BB9D14146234803
:10B9D000FFF71AFFD5F80510884519D8002FAFD00A
:10B9E0002048BDE8F0410FE700246A791E4B03EBC5
:10B9F000C2010979A1420BDD53F8323053F824001B
:10BA0000BDE8F041FFF7F2BB1848BDE8F041FBE6A6
:10BA1000FFF7FCFB224629681548BDE8F041D7E650
:10BA2000202BE1D007D8002B8AD11C46B5F9056040
:10BA3000B5F90780A5E7602BE6D0802B80D1314691
:10BA40000C48BDE8F041DFE6602BF6D16A7914417D
:10BA5000E307D9D50848BDE8F041D5E675160608D4
:10BA6000354A0608B716060808E0050834450608F2
:10BA7000BD160608034A0608B2160608B5160608DB
:10BA80000CB407B510F020000BD079B92320FFF7D4
:10BA9000A6FB05A904980191FFF752FEFFF7B6FB3C
:10BAA000012003B05DF804EB02B070470020F8E716
:10BAB0000CB4C30607B500D561B905A90498019176
:10BAC000FFF73EFEFFF7A2FB012003B05DF804EB99
:10BAD00002B070470020F8E70EB400B584B005ABA3
:10BAE000019053F8042B0649039301A8FFF760FD6A
:10BAF000019B00221A7004B05DF804EB03B070479C
:10BB00000180000870B406688E4217D90139751E8D
:10BB1000002311F8014F0822634013F0800F4FEA11
:10BB2000430318BF83F0D503013ADBB2F5D18D4250
:10BB3000EFD1721C0260337070BC7047721C00231E
:10BB40000260337070BC70470A44914215D010B443
:10BB50000139541E11F8012F0823504010F0800FB6
:10BB60004FEA400018BF80F0D500013BC0B2F5D1CC
:10BB7000A142EFD15DF8044B70477047484008235D
:10BB800010F0800F4FEA400018BF80F0D500013B55
:10BB9000C0B2F5D1704700BF0A44914215D030B40D
:10BBA0000139551E41F2210211F8014F082380EAA4
:10BBB000042004044CBF82EA40004000013B80B2F4
:10BBC000F7D18D42F0D130BC7047704770B502227A
