:020000040800F2
:10000000F0FF001055420508456F0208F9F7010896
:10001000F5420508F5420508F54205080000000014
:10002000000000000000000000000000516F020806
:100030004D6F020800000000496F02087DEC0208C5
:10004000F5420508F5420508F5420508F5420508A0
:10005000F5420508F54205081DFB020849FC0208A7
:100060000DFC0208D1FB020895FB0208598F03081A
:10007000498F0308398F0308298F0308158F030858
:10008000018F0308ED8E0308F5420508F5420508C7
:10009000F5420508F5420508F542050859FB020836
:1000A000093C0208A5410208393B020875420208D2
:1000B000E540020825400208593F020895980308C8
:1000C0009D9803088998030891980308F54205084C
:1000D000F542050891EE0208F5420508F5ED020823
:1000E000E1FA0208F542050845B90208693A020832
:1000F000D93C020899390208B93D0208D98E030893
:10010000F5420508F5420508893E0208F542050852
:1001100059ED0208F542050801C30008EDC20008C8
:10012000C58E0308B18E03089D8E0308898E0308CF
:10013000758E0308F5420508F5420508F5420508E5
:10014000F5420508F5420508F54205080D8A020842
:10015000618E03084D8E0308398E0308BDEC02083A
:100160007D98030885980308F5420508F5420508BF
:10017000F5420508F5420508F5420508F54205086F
:08018000F5420508F5420508EF
:08018800FC3D05000100000030
:100190000702020090220020282300200000000017
:1001A0005807000803123D00C92200202C2300201C
:1001B000000000005A07000802000C00682200201E
:1001C0006C230020000000000000000006020C006C
:1001D0005C22002078230020000000001138030872
:1001E00008120F00DC210020842300200000000002
:1001F000D92D0308F7010600D02100209423002008
:1002000000000000980700081D020200CC21002019
:100210009C230020000000009E0700080A020A003C
:10022000941F0020A023002000000000BD9B0008B8
:1002300003000100C0210020AC23002000000000CA
:100240000000000010100200941A0020B0230020CB
:1002500000000000A007000825102C01A81F0020A6
:10026000B423002000000000000000002C0010005B
:10027000D4310020C4310020000000003F3E0108BE
:100280002B00240008320020E43100200000000090
:10029000113E010829207800CC3000202C320020AB
:1002A000000000000000000028101000B432002000
:1002B000A432002000000000092301081C021000E5
:1002C000C82C0020C432002000000000952C030838
:1002D000F6210C0054300020D43200200000000031
:1002E000A407000820320A00303300202433002005
:1002F000000000008D2201081400030018300020C7
:100300003C33002000000000B007000801200C0072
:10031000BC2700204033002000000000B407000884
:100320000A702800182700204C330020000000002D
:10033000AD2201080EA05C01BC2500207433002012
:100340000000000041A7040801010400202500204E
:10035000D034002000000000000000000001040074
:1003600018250020D434002000000000C007000839
:100370000201030014250020D834002000000000F2
:100380007D8800081A023C00A03800203C3A00207A
:10039000000000007537030827000400BC37002068
:1003A000783A002000000000C4070008381001005F
:1003B000E83400207C3A002000000000C807000854
:1003C0000B301A001C4D0020C85500200000000012
:1003D000CC0700081F30240054440020E4550020BE
:1003E00000000000E807000805020400DC4F0020C0
:1003F00008560020000000000C08000803010A0055
:100400007C4400200C56002000000000100800086A
:1004100013020400AC420020185600200000000027
:100420001A08000802020300506C00204C6C0020E7
:10043000000000000000000010020100586C0020C5
:10044000546C0020000000001E0800081F0210006D
:100450006C6C00205C6C002000000000312E030852
:10046000220214013CA00020C8A2002000000000CD
:10047000C13903080C109C00B09E0020DCA30020B2
:10048000000000005188000800020500889E00203E
:1004900078A4002000000000000000001B021000F3
:1004A0005C9E002080A4002000000000BD2C0308FA
:1004B0001E000600B49B002090A400200000000055
:1004C000200800081B100C00C88D002098A40020F4
:1004D00000000000D5B803082102F000488C00207D
:1004E000A4A40020000000000DB003082312100097
:1004F0008C9F002094A50020000000002808000820
:1005000005100600849F0020A4A500200000000024
:100510003808000837102800E49D0020ACA5002012
:10052000000000003E0800080E020200809F00202C
:10053000D4A5002000000000660800081610060080
:10054000AC8B0020D8A5002000000000680800083F
:100550002F102200A4A20020E0A50020000000002F
:100560006E08000812201000909A002004A60020B7
:10057000000000009008000823100E00FC9A0020E4
:1005800014A600200000000021230108F5518C0072
:10059000B48B002024A6002000000000D9E9030845
:1005A0000D003C0020E00020CCE000200000000016
:1005B000D50C0408090201008CDF002008E10020AE
:1005C00000000000A0080008040080000CDF0020EC
:1005D0000CE10020000000000000000013000400F7
:1005E000F8DE00208CE1002000000000A4080008D4
:1005F000FD012400D4DE002090E100200000000076
:100600002DBB020818202E00A0DE0020B4E100203F
:10061000000000002139030806101A00C0C900209C
:10062000E4E10020000000009DA70408FB01010098
:10063000BCC9002000E2002000000000953903083A
:10064000FC01090088C8002004E20020000000002E
:10065000A539030816023F0048C8002010E2002018
:1006600000000000F92C03083400100078C70020B7
:1006700050E200200000000071A7040811020800E9
:1006800050C7002060E2002000000000A808000819
:100690001212040048C7002068E200200000000099
:1006A000B0080008F9010400CCC300206CE200206F
:1006B00000000000A5BB0208FA01020084BD002072
:1006C00070E20020000000002D2F030811000C0034
:1006D0000DB2002074E2002000000000790B040835
:1006E000FE011400E8B1002080E2002000000000BC
:1006F000D12C030819000500F4E60020B0E7002023
:1007000000000000B40800081A000E0080E6002077
:10071000B8E7002000000000BA080008F821060031
:1007200054E50020C8E7002000000000C8080008C9
:1007300015007000CCE30020D0E70020000000008E
:10074000000000002A00600050E7002040E8002080
:080750000000000019A70408D5
:10075800013C000000000000000000000000000054
:100768000000000000000000000000000000000081
:100778000000000000000000000000000000000071
:100788000000000000000000000000000000010060
:100798002400010000000000000500000000000027
:1007A80001000000020200001A000000E8036400D3
:1007B800040A000114001E0090010000200300003C
:1007C80000000000AE014A015E012C016400020035
:1007D800000001000A019A01001E0A000000000042
:1007E80000000000000100000005000001020300F5
:1007F80000000000000000000000000000000000F1
:100808000080070000000000040101006C160000D1
:100818000000000001350000000001000000000099
:1008280000000000000000000000000000000000C0
:1008380020000301000020003200C800D007960005
:10084800140032002800B0044006000550001400CF
:100858000F00080064000100000005000A00000005
:10086800C40900001900000000000000000000009A
:100878000000000000000000000000000000000070
:100888000000000000000000000000010000055208
:10089800564C5400000800003600000008004030A4
:1008A8000000000001010101FFFFFFFF0000280117
:1008B80000007E05EA05B4053200E803D007000011
:0608C8000401F40114001C
:1008CE000000803F0000803F00000000000000009C
:1008DE0000000000FFFFFFFF0000000018230020B3
:1008EE00080000000000000008230020080000009F
:1008FE003CDC050848DC050854DC050860DC05080E
:10090E006CDC050878DC050850EE050810140608A6
:10091E004013060814470608883B06082CDC050819
:10092E0030DC050834DC050838DC050884DC0508F5
:10093E0088DC05088CDC0508B011060890DC05087B
:10094E001900C800F4012003010000001519010868
:10095E0000000000D861050820700020702D720084
:10096E00FFFFFFFFD6010000B80B000001010100E0
:10097E0000010101002D202D2D202D2D2D2D202D9E
:10098E002D2D0000000000000000000000000000FF
:10099E0000000000000000000000000020770508A5
:1009AE000000000000000000AC7705080100000008
:1009BE00FA0000000100000001000000010100002B
:1009CE00BA2700200000F40101000000B827002023
:1009DE000000F40101000000B62700200000F40121
:1009EE0001000000B42700200000F4010100000007
:1009FE00B22700200000F40101000000B027002003
:100A0E000000F40101000000AE2700200000F401F8
:100A1E000100000015210108D920010848650508CC
:100A2E00A827002005320100A6270020E803D007E2
:100A3E0001000000A4270020E803D00701000000F9
:100A4E00A2270020E803D00701000000A027002005
:100A5E001E00B80B010000009E2700201E00F401AE
:100A6E00010000009C27002014006400010000001B
:100A7E00AA2700203200E803010000009A27002078
:100A8E000000C800010000006E27002000C8010011
:100A9E006D270020005001006C270020005A010035
:100AAE006A27002002000000D4650508B8DE05089C
:100ABE00C0DE0508B6E000200100C40900000000F9
:100ACE00B4E000200100C40900000000B2E00020E4
:100ADE000100C40900000000B0E000200100C409BC
:100AEE0000000000ACE000200100C409000000007E
:100AFE00AEE000200100C40900000000AAE00020C2
:100B0E000100C40900000000A8E000200100C40993
:100B1E00000000003525002000C80100342500200B
:100B2E0000C80100322500200100C80001000000AD
:100B3E003025002032003075320000002F250020B5
:100B4E00055A05002C25002000FF01002E2500204F
:100B5E0001000000740300202A250020030000007D
:100B6E00A8B405082B25002000FF01002D2500202C
:100B7E00010000007403002029250020030000005E
:100B8E00A8B405088920010839200108E065050888
:100B9E00CC270020EE02CA0801000000CA27002060
:100BAE0000C8010064000000C927002000C8010031
:100BBE0064000000C827002002000000A46605089B
:100BCE002625002080C1803E05000000242500203F
:100BDE0080C1803E050000001E25002080C1803EA1
:100BEE00050000001C25002080C1803E050000008D
:100BFE001725002000FF0100102500206400F401DD
:100C0E00010000000F25002004000000B06605085A
:100C1E000E25002002000000C4660508AB2500204A
:100C2E000D000000D0660508A82500200064010014
:100C3E00A6250020320010270A000000A52500205E
:100C4E000D000000D0660508A42500200D00000050
:100C5E00D0660508A32500200200000008670508DD
:100C6E00000000000000000014670508944F0020EB
:100C7E009CFF2C01000000000A2C0020E0150C1730
:100C8E00000000000C2C0020020000004C6705083C
:100C9E00D82700200100FF7F01000000D727002089
:100CAE000200000058670508AD2500200300000073
:100CBE0068670508AC25002003000000686705087A
:100CCE004C2700200000E803010000004A27002006
:100CDE000000E80301000000482700200000E803A0
:100CEE0001000000462700200000E803010000007C
:100CFE00442700200000E8030100000042270020E6
:100D0E000000E8030100000041270020001401004C
:100D1E0040270020030000007867050858270020B0
:100D2E000000F40101000000562700200000F4012D
:100D3E0001000000542700200000F4010100000013
:100D4E00522700200000F40101000000502700206F
:100D5E000000803E010000004E2700200000803E73
:100D6E000100000081270020196401008027002067
:100D7E0002000000886705087E270020E803D007E0
:100D8E000A0000007C270020006401000A00000019
:100D9E00712700200064010070270020006401000C
:100DAE0078270020006401000A0000007727002049
:100DBE00006401000A000000762700200064010094
:100DCE000A0000007B270020006401000A000000DA
:100DDE007A270020006401000A0000007927002015
:100DEE00006401000A0000007527002001FF0100C9
:100DFE000A0000007427002001FF01000A00000015
:100E0E007327002001FF01000A000000B625002014
:100E1E000000F40101000000B42500200000F401E0
:100E2E0001000000B22500200000F40101000000C6
:100E3E00B02500200000F40101000000AE250020C6
:100E4E000000F40101000000692700200064010089
:100E5E00682700200064010067270020006401005D
:100E6E0066270020FF0801006527002001640100AD
:100E7E00051F0108C91E0108946705086427002094
:100E8E0000640100622700201400E8030100000046
:100E9E0060270020E80330750A0000005E2700205E
:100EAE0000C801005D27002000C801005C2700205B
:100EBE0000C801005B270020006401000A0000004A
:100ECE00982700200000D007010000009327002083
:100EDE0000C801009227002000C8010091270020C1
:100EEE0000C80100962700200000D0070100000076
:100EFE009027002000C801008F27002000C80100A5
:100F0E008E27002000C80100942700200000D00783
:100F1E00010000008D27002000C801008C27002052
:100F2E0000C801008B27002000C80100000000004F
:100F3E00391C010804680508A125002035000000B1
:100F4E00A0680508A025002000C801009E250020ED
:100F5E00E803D007010000005245564F4C540000E4
:100F6E00851B0108491B010878690508051B010846
:100F7E00B91A0108E8690508C11B01089144010866
:100F8E00686A050828250020010301007D2101085B
:100F9E00512101085C6D0508611A0108211A01082A
:100FAE00CC6D05084F1C0108AD440108686E05089C
:100FBE00A140010800000000106F050891480108CB
:100FCE00DD210108AC6F0508A11C0108000000001E
:100FDE002C700508791D0108251D01089070050863
:100FEE00091E0108CD1D01082C710508411F0108BD
:100FFE00891F0108AC7105086F270020010601004A
:10100E00E91C0108B51C0108A8720508451E010857
:10101E006D45010818730508BD1F0108F545010847
:10102E00F87305085A27002001030100091C010866
:10103E00D91B0108CC740508A92101080000000085
:10104E0030750508A11A0108794401089475050840
:10105E000000000000000000F875050811200108CE
:10106E006D460108787605080A25002088136F174B
:10107E00010000000C25002088136F1700000000EF
:10108E00DE4400200000000000000000DC440020D0
:10109E000000000000000000DA4400200000000004
:1010AE0000000000D84400200000000000000000F6
:1010BE00D64400200000000000000000D4440020B0
:1010CE000000000000000000600C00200000000086
:1010DE0000000000E0240020020000000078050857
:1010EE000825002088136F1701000000D44F002040
:1010FE0088136F1700000000B519010800000000EA
:10110E000C7805083E2C00200100000060780508D0
:10111E00D64F0020010000006C780508CC4F00204F
:10112E0002000000747805080000000000000000B6
:10113E0080780508A1190108000000001C79050837
:10114E00000000000000000070790508000000009B
:10115E0000000000E0790508D04F0020E0150C17C4
:10116E000000000001000000A00F0000B80B0000FE
:10117E000102FFFF01FF0000040309041201000237
:10118E00EF02014083045632000201020301000007
:10119E0012010002020200408304405700020102C5
:1011AE000301000009022000010104C032090400FD
:1011BE0000020806500507058102400000070501E0
:1011CE000240000009026400030100C0320904005D
:1011DE000001030000000921110100012226000771
:1011EE0005830308000A080B01020202010009042C
:1011FE000100010202010005240010010524010076
:10120E0002042402020524060102070582030800D7
:10121E00FF09040200020A00000007050102400057
:10122E00000705810240000009024300020100C0D0
:10123E00320904000001020201000524001001051C
:10124E002401000104240202052406000107058280
:10125E00030800FF09040100020A0000000705014F
:10126E00024000000705810240000000FF00000060
:10127E00448005080000000000000000000000008F
:10128E000000000000000000000000000000000050
:10129E00000000000000000000FFFF000000000042
:1012AE00AA55050100000100188005080000000085
:1012BE000000000000000000000000000000000020
:1012CE000000000000000000000000000000000010
:1012DE00FF1FFF1F05010905A101A100050109302E
:1012EE0009310932093309350934094009381581A4
:1012FE00257F750895088102C0C0000009022200F2
:10130E00010100E03209040000010301020009217D
:10131E00110100012226000705830308000A0000C0
:10132E00000000000102030401020304060708097D
:10133E00897B02088D7A0208E57E02089D5102081B
:10134E0015570208AD510208C9510208755102081D
:10135E006551020800000000000000002D202D2D18
:10136E00202D2D2D2D202D2D2D2D000000000000C7
:10137E000000000000000000000000AA550B010054
:10138E0000AA5507010000AA550902000000AA553F
:10139E0003009F0001000000C01200009C550020B9
:1013AE0000000000C055002000000000FFFF0000FC
:1013BE00FFFFFFFF74370608000008020503030055
:1013CE007C3706080100080205040300B0DD05089D
:1013DE000200FE0101100300E8E2050803001402FA
:1013EE00000300008437060804001F0201000800F5
:1013FE008C37060805001F02010108001A030000C1
:10140E0000000000000000000000000000000000CE
:10141E000000000000000000040309041201000295
:10142E000000004083042057000201020301000067
:10143E00B5750308892E0308852E0308812E03082F
:10144E00093A03087D2E0308792E030888A505089E
:10145E00E5700208A1550208257C02080000000074
:10146E0000000000297902084578020800000000FB
:10147E000000000000000000D9500208212F0308D0
:10148E00152F0308AD3F0308C93F0308CD2E0308EF
:10149E00913F0308753F03080068214C1F000000B0
:1014AE001C0000001F0000001E0000001F000000B6
:1014BE001E0000001F0000001F0000001E000000A4
:1014CE001F0000001E0000001F00000000000401AD
:1014DE0000000000000000021000000007000000E5
:1014EE0000000000000000000102030406070809C6
:1014FE0000000100FFFFFFFF0101FFFFFF000000E2
:10150E00F9560208E5550208C17E020800000000E7
:10151E0061510208797A020835550208F1790208FC
:10152E0000000000000000001D510208B15002082A
:10153E00A5500208F56F020811700208D96F020853
:10154E00BD6F0208A16F0208B1560208C15502080C
:10155E00017E02080000000035510208F5790208EC
:10156E000955020851790208000000000000000031
:10157E0029510208A15002089D50020899500208F4
:10158E008D500208895002089550020891500208A9
:10159E0001000000006002401060024000000000E8
:1015AE0000000000000B0000000000000000000022
:1015BE0000000000006002402860024001000000B0
:1015CE0000000000060C00000000000000000000FB
:1015DE000000000000600240406002400200000077
:1015EE0000000000100D00000000000000000000D0
:1015FE00000000000060024058600240030000003E
:10160E0000000000160E00000000000000000000A8
:10161E000000000000600240706002400400000004
:10162E0000000000200F000000000000000000007D
:10163E0000000000006002408860024005000000CB
:10164E000000000026100000000000000000000056
:10165E000000000000600240A06002400600000092
:10166E00000000003011000000000000000000002B
:10167E000000000000600240B86002400700000059
:10168E0000000000362F00000000000000000000E7
:10169E0000000000006402401064024000000000E0
:1016AE0000000000003800000000000000000000F4
:1016BE0000000000006402402864024001000000A7
:1016CE0000000000063900000000000000000000CD
:1016DE00000000000064024040640240020000006E
:1016EE0000000000103A00000000000000000000A2
:1016FE000000000000640240586402400300000035
:10170E0000000000163B000000000000000000007A
:10171E0000000000006402407064024004000000FB
:10172E0000000000203C000000000000000000004F
:10173E0000000000006402408864024005000000C2
:10174E000000000026440000000000000000000021
:10175E000000000000640240A06402400600000089
:10176E0000000000304500000000000000000000F6
:10177E000000000000640240B86402400700000050
:10178E0000000000364600000000000000000000CF
:10179E0000000000103806088C4506080000000006
:1017AE0091880008A08601000400000000000000DF
:1017BE00000000000000000000000000000000001B
:1017CE00000000000000000000000000000000000B
:1017DE0000000000103806085447060800000000FC
:1017EE00B9C00108E803000004000000000000007A
:1017FE0000000000000000000000000000000000DB
:10180E0000000000000000000000000000000000CA
:10181E000000000020E605082C120608000000005B
:10182E00A5DE00087D00000006000000000000009C
:10183E00000000000000000000000000000000009A
:10184E00000000000000000000000000000000008A
:10185E00000000005C3706080000000000000000D9
:10186E000D300208E8030000030000000000000035
:10187E00000000000000000000000000000000005A
:10188E00000000000000000000000000000000004A
:10189E00000000005C470608000000000000000089
:1018AE00CD13050810270000030000000000000003
:1018BE00000000000000000000000000000000001A
:1018CE00000000000000000000000000000000000A
:1018DE00000000008037060800000000A93A010849
:1018EE009D0102085F760000050000000000000068
:1018FE0000000000000000000000000000000000DA
:10190E0000000000000000000000000000000000C9
:10191E00000000001C3A0608000000000000000055
:10192E0039470208102700000100000000000000E7
:10193E000000000000000000000000000000000099
:10194E000000000000000000000000000000000089
:10195E0000000000684706080000000000000000BC
:10196E00BDC00108E80300000500000000000000F3
:10197E000000000000000000000000000000000059
:10198E000000000000000000000000000000000049
:10199E000000000074470608000000000000000070
:1019AE0039D70008204E00000300000000000000A0
:1019BE000000000000000000000000000000000019
:1019CE000000000000000000000000000000000009
:1019DE000000000084470608000000000000000020
:1019EE0025D50008204E0000030000000000000076
:1019FE0000000000000000000000000000000000D9
:101A0E0000000000000000000000000000000000C8
:101A1E0000000000944706080000000000000000CF
:101A2E0069F40108400D03000300000000000000EF
:101A3E000000000000000000000000000000000098
:101A4E000000000000000000000000000000000088
:101A5E0000000000D0380608000000000000000062
:101A6E00D928040810270000010000000000000023
:101A7E000000000000000000000000000000000058
:101A8E000000000000000000000000000000000048
:101A9E00000000006837060800000000000000008B
:101AAE0039C40308102700000300000000000000E6
:101ABE000000000000000000000000000000000018
:101ACE000000000000000000000000000000000008
:101ADE0000000000D4E10508000000000000000036
:101AEE0089BF0108A861000001000000000000008D
:101AFE0000000000000000000000000000000000D8
:101B0E0000000000000000000000000000000000C7
:101B1E0000000000A44706080000000000000000BE
:101B2E0059080408A0860100010000000000000012
:101B3E000000000000000000000000000000000097
:101B4E000000000000000000000000000000000087
:101B5E0000000000243A060800000000000000000B
:101B6E00C5C20108A00F0000010000000000000027
:101B7E000000000000000000000000000000000057
:101B8E000000000000000000000000000000000047
:101B9E0000000000B0470608000000000000000032
:101BAE005903040810270000010000000000000087
:101BBE000000000000000000000000000000000017
:101BCE000000000000000000000000000000000007
:101BDE0000000000F83806080000000000000000B9
:101BEE00C10A0408A00F0000010000000000000060
:101BFE0000000000000000000000000000000000D7
:101C0E0000000000000000000000000000000000C6
:101C1E000000000050ED050800000000000000006C
:101C2E005DE303081A4100000100000000000000FF
:101C3E000000000000000000000000000000000096
:101C4E000000000000000000000000000000000086
:101C5E000000000094E105080000000000000000F4
:101C6E00CD590208102700000100000000000000FE
:101C7E000000000000000000000000000000000056
:101C8E000000000000000000000000000000000046
:101C9E0000000000A0450608000000000000000043
:101CAE00E15701081A410000010000000000000089
:101CBE000000000000000000000000000000000016
:101CCE000000000000000000000000000000000006
:101CDE0000000000BC4706080000000000000000E5
:101CEE00A55F0208400D0300000000000000000088
:101CFE0000000000000000000000000000000000D6
:101D0E0000000000000000000000000000000000C5
:101D1E0000000000C447060800000000000000009C
:101D2E00B10B0408400D030000000000000000008D
:101D3E000000000000000000000000000000000095
:101D4E000000000000000000000000000000000085
:101D5E0000000000CC470608000000000000000054
:101D6E00B5F0030850C3000003000000000000009F
:101D7E000000000000000000000000000000000055
:101D8E000000000000000000000000000000000045
:101D9E0000000000D8470608000000000000000008
:101DAE0099D4000840420F0000000000000000001F
:101DBE000000000000000000000000000000000015
:101DCE000000000000000000000000000000000005
:101DDE0000000000E44706080000000000000000BC
:101DEE00610D040850C30000000000000000000058
:101DFE0000000000000000000000000000000000D5
:101E0E0000000000000000000000000000000000C4
:101E1E00000000000000803F7D000000FFFFFFFF7C
:101E2E000000803F000000000000000000000000E5
:101E3E000000803F000000000000000000000000D5
:101E4E000000000000000000000000000000000084
:101E5E0000000000000000000000803F00000000B5
:0C1E6E0000000000000000000100000067
:108000002C4B1B68184483799BB107EE903ADFED47
:108010002A6AF8EEE77A20EEA07A67EEA67A27EED3
:10802000207AF7EE006AD7EE877A77EEA67A20EE0E
:10803000270AC378DFED206A07EE903AF8EEE77A78
:10804000B0EE007A67EEA67AF4EEC77AF1EE10FA97
:1080500005DD37EEC77ADFED196AE7EE267A437A57
:108060009FED177A20EE070A20EE270A03B3DFED13
:10807000127A9FED147A06EE903A60EEA77AF8EE47
:10808000E60A60EEA70AF4EEC70AF1EE10FA04DD84
:10809000DFED0D7A20EE270A7047F5EEC00AF1EE0B
:1080A00010FA05D4F7EE007A77EEE00A80EE200AA7
:1080B000704700BFEC5100200AD7233CD7A368418A
:1080C00000004843A4707D3F0000C842174B9FED5D
:1080D000185A1B681844BFEE007A437A06EE103A2D
:1080E000C378A0EE007A07EE903A8379B8EE466A3C
:1080F00005EE903A60EE850AF7EE006AF2EE044A69
:10810000B0EE664A20EE240AA6EE204A27EE057A53
:10811000F8EEE55AF8EEE77AE5EE876A67EE807AE0
:1081200024EE270A20EE260A704700BFEC510020FB
:108130000AD7233CD0E90920101AB0FA80F0400990
:10814000704700BF0171704703799B070AD5436AE6
:108150008269D154436A01690133B3FBF1F201FB37
:1081600012334362704700BF037913F0010317D045
:10817000D0E90731C26810B45B1A541E23400BD0FB
:1081800043694C1C5B5CB4FBF2F102FB11420262DE
:108190005DF8044BD8B2704718465DF8044B704741
:1081A00018467047037913F0020308D0D0E909217B
:1081B0000369581E531A0340DBB2C01A70471846B1
:1081C000704700BF037913F0010306D0D0E90731EF
:1081D000C268581A531E184070471846704700BFAF
:1081E00010F8113C0133DBB20A2B00F8113C07D91F
:1081F000044A10F8131C002322F8113000F8113C37
:10820000704700BFC82A0020F0B45D4E5D48327848
:108210005D4B5E4DDC6B2D780132A0FB02700009D6
:1082200000EB8000A2EB80001A683070914201EBF5
:1082300004005C6811D293F84520002A4ED000F566
:108240008030B0FBF5F084420BD2041B4FF4803237
:1082500092FBF5F2A21A9A600AE0B0FBF5F08442B4
:1082600044D34FF4803292FBF5F2121B02449A6021
:1082700040F68C240025A242C3E9001083F8455043
:1082800017D993F8402093F942108A4256B241D050
:10829000002093F9411083F843008A4247D001211E
:1082A000002283F8426083F8441083F84020F0BC39
:1082B000704793F844100029F9D0A2F2EF2040F261
:1082C000DA5188421AD893F840100B2916D803EBDC
:1082D00081000131C26083F84010E8E7B0FBF5F09F
:1082E0008442BED2041BA21A9A60C1E793F84520CB
:1082F000002AAAD1041BA21A9A60B9E7244A0021D5
:1083000002F1300083F8441042F8041F8242FBD18E
:10831000F0BC7047111F0829BAD893F843101829E8
:1083200026D8013183F8431093F94110B5E793F84B
:1083300044100029B3D0FAB11649154C0FFA82FC4B
:10834000084601EB4C0754F8045F20F8025BB84282
:10835000F9D10B2A07DC104801EB4C02002122F86E
:10836000021B9042FBD10D490A7801320A7096E750
:1083700083F84160314690E794460649EBE700BF39
:1083800038170020CDCCCCCC74C90020580E00206A
:108390007CC90020C82A0020E02A0020BC2A002036
:1083A00030B40E4D0E4B2A780E4C0132A3FB020363
:1083B0001B09E06B03EB8303A2EB83034FF6FF7211
:1083C000914200F101002B70084408BF0123E063D3
:1083D00008BF84F8453030BC704700BF3817002014
:1083E000CDCCCCCC74C90020002800F0F180A94B82
:1083F0001A7CF0B4002A40F085801A680021012818
:10840000116043D093F82820002A41D19A690021B5
:10841000022811603AD093F84020002A55D11A6BF7
:1084200000210328116031D093F85820002A40F031
:1084300086809A6C00210428116027D093F8702060
:10844000002A40F0C6801A6E0021052811601DD058
:1084500093F88820002A40F0D9809A6F00210628DE
:10846000116013D093F8A020002A40F0EC80D3F8DC
:10847000902000210728116008D093F8B820002A26
:1084800040F08780D3F8A83000221A60F0BC704713
:10849000D9698A0AA2F58012522A76D87E4CA25C4B
:1084A000EFF31184502585F312887C4E4F6A8D8A34
:1084B00002EB820206EBC202013745F0010597622A
:1084C000E4B28D8284F31188A0E75A6B910AA1F57A
:1084D000801152295BD8704C615CEFF311845025F8
:1084E00085F312886D4E576A958A01EB810106EB80
:1084F000C101013745F001058F62E4B2958284F332
:1085000011888CE75A68910AA1F5801152293AD84E
:10851000614C615CEFF31184502585F312885F4E46
:10852000576A958A01EB810106EBC101013745F0DD
:1085300001058F62E4B2958284F311885DE7DA6CFD
:10854000910AA1F58011522900F29B80524C615C86
:10855000EFF31184502585F31288504E576A958A9F
:1085600001EB810106EBC101013745F001058F6286
:10857000E4B2958284F311889A6C0021042811607A
:108580007FF45CAF82E7FE21C4E7FE2288E7FE218C
:10859000A3E7D3F8AC20910AA1F58011522996BF28
:1085A0003D48FE21415CEFF31180502484F3128892
:1085B0003A4D566A948A01EB810105EBC1050136FB
:1085C00044F00104AE62C1B2948281F3118859E78C
:1085D0007047596E8A0AA2F58012522A53D82E4C3F
:1085E000A25CEFF31184502585F312882B4E4F6A5D
:1085F0008D8A02EB820206EBC202013745F00105CB
:108600009762E4B28D8284F311881CE7D96F8A0ADD
:10861000A2F58012522A38D81F4CA25CEFF31184C5
:10862000502585F312881D4E4F6A8D8A02EB820217
:1086300006EBC202013745F001059762E4B28D8274
:1086400084F3118809E7D3F89420910AA1F58011E9
:1086500052291CD8104C615CEFF31184502585F32E
:1086600012880E4E576A958A01EB810106EBC10113
:10867000013745F001058F62E4B2958284F31188D9
:10868000F5E6FE2164E7FE22ABE7FE22C6E7FE2107
:10869000E2E700BF7C1700104CCB0508381700201C
:1086A000704700BF0120704770B4150BC2F303245C
:1086B000C2F3031305EB45054E00183504EB4404E3
:1086C00003EB4303056018340D01183302F00F0269
:1086D00040F8214002EB420240F8263044190E4493
:1086E0000023183240F826204351062044F8213058
:1086F00070BC704712F4004F2DE9F04F14BF4FF0DB
:108700000E0A4FF0070A12F4804F4FEA410614BFD9
:108710004FF00E094FF0070912F4005F14BF4FF03D
:108720000E084FF007088D1912F4805F01EB050465
:1087300014BF4FF00E0E4FF0070E12F4006F01EB56
:10874000040314BF4FF00E0C4FF0070C12F4806FAF
:1087500014BF0E27072701EB030B12F4007FC0F8AC
:1087600000A040F8219018BF4FF00E0A40F8268074
:1087700008BF4FF0070A01EB0B0612F4807F40F8A8
:1087800025E018BF4FF00E0801EB060E08BF4FF0B2
:10879000070812F0800F40F824C040F8237014BF7F
:1087A0000E24072401EB0E0312F0400F01EB03052A
:1087B00014BF4FF00E0C4FF0070C12F0200F40F8D2
:1087C0002BA018BF0E2740F8268008BF072740F8C7
:1087D0002E4012F0100F01EB050440F823C014BF27
:1087E0000E2607260B1912F0080F40F8257001EB32
:1087F000030514BF0E27072712F0040F40F824606A
:1088000040F8237018BF0E2601EB050308BF0726AA
:1088100012F0020F40F825604FEA811401EB0305C6
:1088200014BF0E26072612F0010F40F8236000EB5C
:10883000040214BF0E23072340F825300023035100
:10884000122042F82130BDE8F08F00BF704700BF12
:1088500070B4054600F19C06074C0FCC2860696097
:1088600003CC2488AA60EB602C83286169611A35E7
:10887000B542F1D170BC7047E85A0508034B33F894
:108880001C2F02809B788370704700BFE85A050850
:10889000084B196869B110B49C680020642202FB7F
:1088A00004F21860B2FBF1F298609A805DF8044B14
:1088B000704770471C00001070B43B493B4B3C4E66
:1088C000487A3C4D3C4C0422327083F834226422B6
:1088D00083F83D2201284FF00002A3F83622A3F8C6
:1088E000382283F83C22C3F840222A7022602AD022
:1088F000022812D08C7A31480022012C026083F8C1
:108900005C22C0E9012234D0022C04D12C49C3F8E6
:108910007822C1E9012270BC7047487D9FED297A19
:10892000DFED296AC3F8442207EE900AF8EEE77AF1
:10893000B0EE476AA7EEA66AC3F84822C7EE067AE9
:10894000C3ED937AD6E7487D9FED1E7ADFED1E6A70
:10895000C3F8502207EE900AF8EEE77AB0EE476AC5
:10896000A7EEA66AC3F85422C7EE067AC3ED967A3C
:10897000C0E7897D9FED137ADFED136AC3F86022AB
:1089800007EE901AF8EEE77AB0EE476AA7EEA66A0D
:108990000E490020C7EE067A4A60C1E90222C3F8F8
:1089A0007002C3ED9D7AB6E71C4D002038170020F9
:1089B000C28D00200A4D0020044D0020384D0020BB
:1089C000B01900200AD7A33C3661823C98190020D8
:1089D00007280AD800EB4000044B10B553F830408C
:1089E00014B14BF0E7FD206010BD704788C7002030
:1089F000F8B5464C05464BF0DDFD4FF4B27303FB72
:108A000005431B7B03B9F8BD414B93F884C293F82F
:108A10008522944586B21ED051008F1803EBC707FC
:108A200097F8887207F1FF3EBEF1010F06D9032FB8
:108A300011D1571C07F0030767450CD00A4403EB1C
:108A4000C2022A4492F8952296B2212E3ED0002EE0
:108A500041D1324602E040F30E0252004FF4B273AD
:108A600003FB05432B4993F8E0001E81024392B2B9
:108A7000002083F8E0000978131283EA12135340B0
:108A800001B1DB43244925480978066803F00F0348
:108A900043EA021292B24FF4B27329BB03FB05F50D
:108AA00005F1E40020442C440121B047D4F8DC1047
:108AB0006589B1F83021D4F8D8302A43A1F83021A3
:108AC00058601A6842F001021A60F8BD144800218B
:108AD000C160C3F8E8124FF4B27303FB05430121F0
:108AE0008A4083F8E010B9E703FB0544042163687A
:108AF000D4F8DC005B7903F0FC030C331844B04776
:108B0000D4F8DC3080001881F8BD00BFDCC900203B
:108B1000381700204C180010501800104018001092
:108B20001C00001038B500EB4000084DC4002B19A4
:108B300093ED027AD3ED037AE7EE007AB0EE670A9E
:108B40004BF038FD2B59186038BD00BF7C17001062
:108B50002DE9F04FDFF8B0A22DED028B9AF8EC0270
:108B600083B0002840F09482984A92F82530012B77
:108B700040F0AA80964D974C95F810E0BEF1000F9A
:108B800040F0488192F82A102B7400274FF6FF76A8
:108B900092F8263084F800E0C4F898E0C4F8A0E029
:108BA000C4F89C70C4F8A460A4F89430002900F0C4
:108BB000378392F82710A4F89610002B40F0FC831E
:108BC000002940F09983844B01211F7829750028E2
:108BD00000F09983287D17F0010102D07F4A1668C2
:108BE000AE614FEA670B1BF0010F02D07B4A56685B
:108BF000EE61BE10F20704D5784AD2F808C0C5F875
:108C000020C04FEAE70919F0010F04D0734AD2F8E7
:108C10000CC0C5F824C0002800F00A81704908681B
:108C200041F28831884240F217846E490968002970
:108C300000F013846C490E78002E00F0EB84BAF833
:108C4000EEC24BF66871ACF57A778F4200F2E2849F
:108C5000AF6A002F40F05385BEF1000F14BF4FF4F0
:108C6000FA674FF47A770744AF620021B84240F2C6
:108C7000F483BEF1000F00F04B85D4F89820DFEDAF
:108C80005B5AACEB02010029B8BF494207EE901ACB
:108C900007EE102AF8EEE77AB8EEC77AB3EE046A68
:108CA000C7EE876A66EEA57AF4EEC67AF1EE10FAA0
:108CB00040F12E8500210020C4F89C104FF6FF7172
:108CC000C4E928010221C8E3404B1F7E002F40F079
:108CD00075813F4DDFF83481AF8598F80030072B60
:108CE00000F09A82002840F06481002F69D0022FA2
:108CF000A8BF0227DFF814810197DFF808B1374ECB
:108D0000DFF80C913A4F9FED3B8ADFED3B8A3B4DFC
:108D10005B460024B3461E46022C09EB840100F09A
:108D200006829BED000ADAF81C3320EE080A204682
:108D3000F0EEC00A85ED000AC1ED000A98473B68D5
:108D400003EB44030BF1040B5B8A07EE903AF8EE59
:108D5000E77A0435B1EE677AB4EEC07AF1EE10FA34
:108D600008DCF4EEC07AF1EE10FA8CBFB0EE407A77
:108D7000B0EE677A98F80030A6EC017A082B06D19D
:108D8000BDEEC00A1E4910EE102A21F81420019AE7
:108D900001349442C0DD072B08D11A4BD3ED007A81
:108DA000174BFDEEE77A17EE902ADA80074BDC7E50
:108DB000002C40F0E9819AF8EC3213B100238AF8D4
:108DC000EC3203B0BDEC028BBDE8F08FA0DE0020DA
:108DD0001C000010CC180010741900100C4D00205D
:108DE00094B10020C8180010BA8D00200000C842BD
:108DF000EC5100206F12033B0000000028E500202A
:108E0000AC43002010E5002038170020A8430020C4
:108E100034E50020CD4B94F800E01F7800287FF463
:108E2000D9AE07F001014FEA670BBE104FEAE70920
:108E3000BEF1000F00F06D82DFF8488398F8003033
:108E4000292B0FD1C24B019193F8283005EB8303F6
:108E500093ED060A4BF0AEFBBE4BD4F89820019977
:108E60001880DA80BA4B93F82930002900F06D821F
:108E700095ED067AD4ED016AD4ED027A002B00F06C
:108E8000A882D4ED065A94ED073AD4ED033A94ED56
:108E9000086A94ED044AD4ED094A94ED055AAE4AA5
:108EA00084ED067A65EEA77AC4ED075AE7EE267AD6
:108EB00084ED096AE3EE237AE6EE447AE4EEC57ABD
:108EC000C4ED087AC2ED007A1BF0010F00F0518268
:108ED00095ED077AD4ED0A6AD4ED0B7A002B00F0F9
:108EE0008282D4ED0F5A94ED103AD4ED0C3A94ED01
:108EF000116A94ED0D4AD4ED124A94ED0E5A84EDA8
:108F00000F7A65EEA77AC4ED105AE7EE267A84ED63
:108F1000126AE3EE237AE6EE447AE4EEC57AC4ED13
:108F2000117AC2ED017AF0072AD595ED087AD4EDD1
:108F3000136AD4ED147A002B00F04282D4ED185A53
:108F400094ED193AD4ED153A94ED1A6A94ED164A57
:108F5000D4ED1B4A94ED175A84ED187A65EEA77A82
:108F6000C4ED195AE7EE267A84ED1B6AE3EE237A04
:108F7000E6EE447AE4EEC57AC4ED1A7AC2ED027ADE
:108F800019F0010F10D095ED097AD4ED1C6AD4EDDB
:108F90001D7A002B40F0308237EE667AE7EE276AC2
:108FA000C4ED1C6AC2ED036A9AF8EC0200283FF493
:108FB0009CAEDFF8D081022301939EE6022F00F0E1
:108FC0004781032F40F0F181614B9B7EC3EB43113E
:108FD00003EB8101C90089B2002800F0418100291A
:108FE00000F03E815D48594B0468B1FBF4F10CB2CE
:108FF00007EE904A19785A4DF8EEE77AF7EE006AD4
:1090000011F00109AC8586EEA77A0AD0524AD5ED57
:10901000106AD2ED007A77EEE67A67EE877AC5EDD0
:109020000C7A4F10FE070AD54B4AD5ED116AD2EDE6
:10903000017A77EEE67A67EE877AC5ED0D7A8E10C3
:10904000F0070AD5444AD5ED126AD2ED027A77EEDE
:10905000E67A67EE877AC5ED0E7A4FEAE10B1BF0F0
:10906000010F0AD03C4AD5ED136AD2ED037A77EEB0
:10907000E67A67EE877AC5ED0F7ADFF8088198F80F
:109080000010072900F02882002C00F3F48092E7FA
:10909000344B1B78002B3FF467AD334B334CBAF89D
:1090A000EE12334D2C4A24682E68D2ED037A658E79
:1090B000A3FB01318B09642191FBF3F1DAF8F03263
:1090C0001429A8BF1421BDEEE77AF6040AEB430683
:1090D00003F101034CBF6D082DB28B4294F83010A0
:1090E000CAF8F03217EE107AA4BF0023CAF8F032A3
:1090F0000129A6F8F4727FF437AD0AEB4303B3F904
:10910000F43207EE103AB8EEC77A77EEC77AFDEE82
:10911000E77A17EE903A1BB2002BB8BF5B42AB4226
:1091200000F36482134B4FF07E5119601CE5124B23
:109130001B881B057FF5F5AD104B114AC9ED028A5E
:10914000C2ED028A93ED000AF9E500BF7419001020
:10915000A0DE0020AC4300200C4D0020C8180010F9
:109160001C000010481C0010D34D6210E851002074
:10917000F8DE00200C000010444D0020FCE600202A
:1091800028E50020A84300201621C6482CF0F2FC58
:1091900000283FF410AEC44B1B885D063FF50BAEB4
:1091A0009AF82033A34240F0B581C04BDAEDC97A7A
:1091B000D3ED006ABE4BDFEDBF5A93ED025AD3EDFB
:1091C000004A9FEDBD6A27EEC57A64EEA77AA4EE49
:1091D000A67AE5EE267AB4EEE57AF1EE10FA88BFCB
:1091E000B0EE657AB4EEC67AF1EE10FAF4EEE57AF6
:1091F000B8BFB0EE467AF1EE10FA88BFF0EE657AAD
:10920000F4EEC67AF1EE10FAB8BFF0EE467A83EDCE
:10921000007AC3ED027ACEE5A84BA98D998061E56D
:10922000002B69D000232B7540F062FD9AF8ECE228
:1092300001232370BEF1000F40F00981A04B1F787D
:1092400007F001014FEA670BBE104FEAE709F3E5AB
:10925000BAF8EE1201F57A7189B200287FF4BFAE38
:10926000984DAB8D013B1BB2002BAB8540F3A0802A
:10927000934BDFF86082197801F001094F108E10CE
:109280004FEAE10BB9F1000F0AD095ED107AD5ED58
:109290000C7A8D4A77EE877AC5ED107AC2ED007AA6
:1092A000F9070AD595ED117AD5ED0D7A864A77EE54
:1092B000877AC5ED117AC2ED017AF2070AD595EDEC
:1092C000127AD5ED0E7A804A77EE877AC5ED127A5A
:1092D000C2ED027A1BF0010F0AD0D5ED137A95ED9D
:1092E0000F7A794A77EE877AC5ED137AC2ED037A61
:1092F0009AF8EC020427F0E4714B01211F782975DC
:1093000000287FF468AC39404FEA670BBE104FEA83
:10931000E7096E4B93F8293000293BD095ED067A8A
:10932000694A1BF0010F82ED007A38D095ED077A7B
:1093300082ED017AF10735D419F0010F3FF434AE14
:1093400095ED097A82ED037A2EE61BF0010F76D1B6
:109350004FF0010EF20711D595ED087A5A4ABEF189
:10936000000F7FF4E4AD19F0010F82ED027AE7D12E
:109370001AE6F1073FF5D9AD4FF0010E19F0010FD4
:109380003FF412AE95ED097A4F4ABEF1000F7FF41B
:10939000FCADD7E71BF0010F55D18E46DAE716F08A
:1093A000010EEBD095ED087ADDE7494B598813E6BD
:1093B000DFF82081002790E400293FF404AC31E776
:1093C00037EE667AE7EE276AC4ED136AC2ED026AE9
:1093D000D6E537EE667A3C4AE7EE276AC4ED016AC5
:1093E000C2ED006A70E537EE667AE7EE276AC4EDF3
:1093F0000A6AC2ED016A96E5D4ED215AD4ED223A0B
:1094000094ED1E3A94ED236A94ED1F4A94ED245A8C
:10941000D4ED204A84ED217A65EEA77AC4ED225A74
:10942000E7EE267A84ED246AE3EE237AE4EE467AC8
:10943000E4EEC57AC4ED237AC2ED037AB4E595ED86
:10944000077A214A46E595ED077A1F4A70E71C4BDB
:10945000287D1F78FFF7BFBB0021DFF878801F78D9
:1094600098F800002B287FF4DCAC1448BAF8EE32F0
:109470000380D4F898308380144BC180FE07D4F861
:10948000A010418093F8293040F1BE8095ED067A16
:109490004FEA670BBE104FEAE709BEF1000F3FF439
:1094A0003FAFE7E4542E0020444D00208801002007
:1094B00010E5002000C0F94400C0F9C4AC4300200E
:1094C000741900101C0000100C4D0020A0DE0020BC
:1094D00020A00020A8430020B94A92ED000A4BF0DA
:1094E00069F8BAF8EE32B74AB749A2FB03239B09E1
:1094F00007EE903AF8EEE77A002CFDEEE77A088066
:1095000017EE903A4B803FF7BDAE02238C8001935B
:10951000FFF7F3BB07EE904ADFEDAC6A9FEDAC7A44
:109520008AF82043F8EEE77A67EEA67A77EE876A44
:10953000BDEEE66A16EE103A2033402B76D9DFED09
:10954000A56AA54BBDEEE77AC3ED006A17EE103AA7
:109550002033402B67D89FEDA17AF4EEC77AF1EE65
:1095600010FA40F3CF80DFED9E5A9FED9E6A01E036
:10957000F0EE477AF4EEC67AF1EE10FA37EEE57ABD
:10958000F6DCDFED997AB4EEE77AF1EE10FA40F10D
:10959000BC80DFED935A9FED956A01E0B0EE677AEB
:1095A000B4EEC67AF1EE10FA77EE257AF6D49FED96
:1095B000887AF4EEC77AF1EE10FA40F388809FEDD6
:1095C000877A77EE677A67EEA75A9FED895A9FED03
:1095D000896A9FED897AA5EE856A25EEA75AA5EEE0
:1095E000867AE5EE077ACAEDC97AE3E5A38E9FEDA8
:1095F000837A07EE903AF8EEE77A814B67EE877A46
:10960000C3ED007AFFF7B0BAB80755D4BE104FEAE1
:10961000E7099FE6002600214FF6FF70C4F89C6022
:10962000C4E9281019E7DFED6B7ADCE7F4EEC77ABE
:10963000F1EE10FA40F3BF80DFED695A9FED696AE1
:1096400001E0F0EE476AF4EEC66AF1EE10FA36EE8B
:10965000E57AF6DCDFED646AB4EEE67AF1EE10FA54
:1096600040F1A680DFED5E5A9FED606A01E0B0EE4A
:10967000667AB4EEC67AF1EE10FA77EE256AF6D481
:109680009FED537AF4EEC76AF1EE10FA2BDD9FEDF1
:10969000537A77EE666A26EEA66A9FED555ADFED9D
:1096A000555A9FED557AE6EE055A26EE865AA5EEF6
:1096B000867AE5EE076A44E795ED077A404ABE10E0
:1096C0004FEAE709BEF1000F3FF432AE02E49FED2E
:1096D0004D7AF4EEC77AF1EE10FA44BF9FED427A6C
:1096E00077EE677A6FE79FED477AF4EEC76AF1EE9F
:1096F00010FA44BF9FED3C7A77EE666ACBE7012112
:10970000FFF7B4BAB0EE677A3BE7F0EE477A4EE780
:10971000B4F8A600B4F8A470D4ED277AD4F8A01059
:1097200007EE10CA6045B8BF6046B8EEC77A674515
:10973000A8BF6746BEF1000F01F1010277EE277A5C
:1097400014BF4FF014084FF032084245A4F8A600A9
:10975000A4F8A470C4ED277AC4F8A0202EDB07EE8D
:10976000107AF8EEC76A07EE100A01934B1E00EE5E
:10977000103AB8EEC77A77EEE67AB8EEC00A77EE1E
:10978000C77A002787EE800A4AF014FF4FF6FF7170
:10979000C4E928710021C4F89C10C4F8980040F076
:1097A000A7FA01212170AF62B6460221019B54E65F
:1097B000F0EE476A64E7B0EE667A4BE702214CE6CA
:1097C0000C4D0020D34D6210AC43002035FA8E3C86
:1097D000DB0FC93F0000000088010020DB0F49407B
:1097E000DB0FC940E4CB1641DB0F49C0E4CB16C107
:1097F00092E741B99730083C15A82ABE6F12833A08
:109800000C000010DB0FC9BFF8B5A0F5197423795F
:109810006179DB0746D594F84832206C0BBB94F88D
:109820004B32012B3FD0002B41D194F84A3294F8AF
:1098300049629E420CD9B4F85222012707FA03F577
:1098400001332A43DDB2AE4292B2F7D8A4F85222D5
:109850000123C94384F84B321940BDE8F8403DF07C
:10986000B9BD0268D36A5B08536294F85932012B80
:1098700007D094F84D3223B1B4F854320133A4F830
:109880005432C94301F001013DF0A4FD002301223F
:1098900084F84B2284F8493284F84A32A4F85232D0
:1098A00084F84832F8BD94F8493284F84A320023EB
:1098B00084F84B3201F00101BDE8F8403DF08ABD6B
:1098C000436CC06B1BB11A7A012125F061BC0121E8
:1098D00025F012BD10B5437903F0200113F0010FFC
:1098E000036C04461A7A806B17D000290CBF422102
:1098F000022125F04DFC226C012384F84C32A4F89F
:109900004832517912688B40118C9BB221EA0301D5
:109910001184118C0B43138410BD00290CBF22212C
:10992000022125F035FCE6E770B5054600680E46D5
:109930002EF0A2FA02460446B4FBF6F1B1F5803FE0
:1099400007D3012CFAD96408B4FBF6F1B1F5803FD6
:10995000F7D2284689B2BDE870401AF063BD00BF57
:109960008160006CE0E700BF4379C06BDB0748BF54
:1099700081F0010109B925F05BBD25F05FBD00BF95
:1099800038B5A0F517742379990747D4D80700D4C0
:1099900038BD94F84832002BFAD194F8493201339B
:1099A000DBB2092B84F8493270D00A2BF0D194F83D
:1099B0004B52B4F85232002D00F0A980990503F003
:1099C000010200F1AB80002A00F0A8801A46E36A89
:1099D0005208002B00F0AC80D0B2216B984794F86D
:1099E0004B5201220023954284F8493284F84822E0
:1099F000CED1617984F84B321140206C3DF0EAFC05
:109A0000236C1A68597905FA01F3118C9BB221EA8B
:109A100003011184118C0B43138438BD94F84D223B
:109A20006ABBD4E90950854294F84C1246D0451CD3
:109A3000A369A5621B5C2069DBB285424FEA430340
:109A400028BFA26243F400730A200122A4F8503216
:109A500084F84E0284F84D2211B161790D073FD48C
:109A60005A08A4F8502203F001012046FFF77CFFBA
:109A700094F84E222379013A84F84E2286E794F92D
:109A80004E22002A63D184F84D227FE794F84B32AE
:109A9000002B7FF47DAF94F84A32082B3FF678AF65
:109AA000B4F85222012000FA03F101330A43D9B27B
:109AB000082992B2F7D9A4F8522238BD00297FF4C0
:109AC00065AF627912077FF561AF636CE06B5BB3E2
:109AD0001A7A25F05DFB2046FFF7FCFE237955E757
:109AE000216CA06B0B684D79198CAA4021EA020207
:109AF0001A841A8C92B21A84002125F0FDFB0023EF
:109B000084F84C322046FFF7DBFE23793EE743F032
:109B100001029B05A4F852227FF559AFB4F85632E2
:109B20000133A4F856325CE7194625F0E5FBD2E78D
:109B3000E3696169D2B2CA54E369E16894F84B52AF
:109B40000133B3FBF1F201FB1233E36149E7B4F8EF
:109B5000503285E7044B93F83C23D3F82C030AB921
:109B600025F066BC25F06ABC38170020044B93F83A
:109B70003C23D3F82C030AB925F060BC25F058BC6F
:109B80003817002010B525F03BFA044618B1112211
:109B900000238271C3712021204625F0ADFB0A20ED
:109BA00024F082FD204625F091FF034B002814BFCE
:109BB000022201221A7010BD96E2002038B54FF43F
:109BC000A5710025B4224FF4EB73044641808280D6
:109BD000C3800570294680201AF08CFD65722072C2
:109BE00038BD00BF054B93F8252022B9187E003000
:109BF00018BF012070470120704700BFA0DE002081
:109C00002DE9F041DE4BDF481D68DF4C2F786A7884
:109C1000BBB2594209B2002914BFBE464FF0010E33
:109C200001FB01FCC2F164060EFB0EFE02FB0CFC04
:109C30009CFBFEFCB44401FB0CF103EB830C80FBAA
:109C4000010EC8174FEA4C01C0EBAE0001F57A7166
:109C5000C3F10A0E0844C7F1640CBEF1000FA4F86A
:109C600040035FFA8CFC40F37E81E0460EFB0EF071
:109C700018FB08F802FB00F090FBF8F0DFF8048313
:109C800030440EFB00FE88FB0E804FEAEE7ECEEBEA
:109C9000A00EC3F114008E440028A4F842E340F360
:109CA0005B81E64600FB00F81EFB0EFE02FB08F897
:109CB00098FBFEF8DFF8CCE2B04400FB08F08EFB26
:109CC000008EC017C0EBAE0EC3F11E008E440028FC
:109CD000A4F844E340F33981E64600FB00F81EFB9C
:109CE0000EFE02FB08F898FBFEF8DFF898E2B0449D
:109CF00000FB08F08EFB008EC017C0EBAE0EC3F168
:109D000028008E440028A4F846E340F31781E64675
:109D100000FB00F81EFB0EFE02FB08F898FBFEF8A5
:109D2000DFF860E2B04400FB08F08EFB008EC01745
:109D3000C0EBAE0EC3F132008E440028A4F848E315
:109D400040F3F580E64600FB00F81EFB0EFE02FB2A
:109D500008F898FBFEF8DFF82CE2B04400FB08F0AE
:109D60008EFB008EC017C0EBAE0EC3F13C008E44DC
:109D70000028A4F84AE340F3D380E64600FB00F84D
:109D80001EFB0EFE02FB08F898FBFEF8DFF8F4E17C
:109D9000B04400FB08F08EFB008EC017C0EBAE0E87
:109DA000C3F146008E440028A4F84CE340F3B18090
:109DB000E64600FB00F81EFB0EFE02FB08F898FBCF
:109DC000FEF8DFF8C0E1B04400FB08F08EFB008E27
:109DD000C017C0EBAE0EC3F150008E440028A4F8AB
:109DE0004EE340F38F80E64600FB00F81EFB0EFEBC
:109DF00002FB08F898FBFEF8DFF888E1B04400FBAE
:109E000008F08EFB008EC017C0EBAE0EC3F15A00F7
:109E10008E440028A4F850E36EDDE64600FB00F80F
:109E20001EFB0EFE02FB08F898FBFEF8DFF854E17B
:109E3000B04400FB08F08EFB008EC017C0EBAE0EE6
:109E4000C3F164008E440028A4F852E34EDDE046DE
:109E500000FB00FE18FB08F802FB0EFE9EFBF8FE5E
:109E6000DFF82081B64400FB0EF088FB008EC0179F
:109E7000C0EBAE00C3F16E030844002BA4F85403FA
:109E800003DC0CBF4FF0010CBC4603FB03F002FBEC
:109E900000F21CFB0CFC3B4892FBFCF2324403FB3F
:109EA00002F380FB0302DB17C3EBA2031944A4F8FF
:109EB0005613AB78354A012B14BF354B354BC4F8DC
:109EC0001C33354B5B7E00211170042B06D8DFE874
:109ED00003F00A54075103000B231370BDE8F0810F
:109EE0000F231370FAE703231370F7E718BFB84680
:109EF000AED14FF00108ABE718BFBE468ED14FF090
:109F0000010E8BE718BFBE467FF46EAF4FF0010E17
:109F10006AE718BFBE467FF44CAF4FF0010E48E72A
:109F200018BFBE467FF42AAF4FF0010E26E718BFD8
:109F3000BE467FF408AF4FF0010E04E718BFBE46DF
:109F40007FF4E6AE4FF0010EE2E618BFBE467FF4A6
:109F5000C4AE4FF0010EC0E618BFBE467FF4A2AEFD
:109F60004FF0010E9EE618BFB8467FF47FAE4FF06B
:109F700001087BE608231370B0E707231370ADE7F1
:109F8000EC510020676666663817002074190010CF
:109F900001800008CD800008A0DE00202DE9F843F4
:109FA000A94D2C68A00500F17F81A84AA84B92F822
:109FB0000080A84F00221A70B8F1000F00F0308125
:109FC0000621A5482BF0D6FD002800F0208144F0A2
:109FD0001004A24AA24B16682C6016F48056B3F9FE
:109FE000069040F0D1809F4B9B8A4B4500F3E38065
:109FF00044F080049C4B2C6093F8009019F0080FFB
:10A0000006D11B2194482BF0B5FD002800F0658196
:10A0100024F48074954B9B88642BB7F85A338CBF1B
:10A0200044F4006424F4006423B1914B1B68990745
:10A0300000F1C4808F4B1B78012B07D0022B8E4B75
:10A04000D3F8AC3005D1002B40F0B8808B4BD3F85F
:10A05000AC30B3FA83F35B09002B00F0AF8024F43B
:10A060008054874B2C6003F1780102E006338B4269
:10A0700016D01A781C2AF9D19878DA78904202D34F
:10A080005A79002AF2D01C2173482BF073FD20B1BD
:10A090007C4B1B785A0740F13C8144F480642C606F
:10A0A000794BDB79022B03D0072048F0D1FE98B121
:10A0B000764B93F821301BB919F0020F00F005819F
:10A0C00024F48024072164482C602BF053FD0028E1
:10A0D00000F0F88044F400246D4B9B79002B38D0BD
:10A0E0006C4B1A7812B91B79002B32D06A4B1B7853
:10A0F0007BB36A4A117E002900F08C80012B28D99D
:10A1000092F87C11002900F08580022B21D092F872
:10A11000E01200297ED0032B1BD092F844140029B2
:10A1200078D0042B15D092F8A815002972D0052BF1
:10A130000FD092F80C1700296CD0062B09D092F89A
:10A140007018002966D0072B03D092F8D439002B61
:10A1500060D024F480142C601F213F482BF00AFDAE
:10A1600078BBB8F1000F32D0002C4ED1002387F815
:10A170005E3324F047FAD7F86033C01A00284DDB6D
:10A18000BDE8F84338F02CB9152133482BF0F2FC28
:10A1900000287FF428AF424B1A7B002A7FF423AFBC
:10A1A0003049DA884B8A991A4945BFF621AF1344E2
:10A1B0004B457FF71DAF24F080041BE744F4805427
:10A1C0004FE744F400342C60B8F1000F1DD197F82C
:10A1D0005C33002B40F084809846002E40F08B804A
:10A1E00000211D482BF0C6FC002800F09D80002CAB
:10A1F000BCD0B8F1000F08D1002E00F08E8020B93D
:10A2000024F400142C60002CB0D00223AFE724F01B
:10A210001004DEE644F480142C609DE7BDE8F8836A
:10A22000204A97F858331678002B6ED1002E6DD047
:10A23000414609482BF09EFC002840F08B8024F01A
:10A2400008042C6062E000BFDC51002030170020C1
:10A25000AA8B002038170020542E0020F8DE0020A2
:10A26000A8E00020A0DE0020EC4D00201C00001023
:10A27000E05100206C150010DC0E00104C0800109E
:10A28000CC30002086440020BC270020E49D002024
:10A29000C0C900203033002074160010DCC9002033
:10A2A00080E60020BA8D0020344A354B91791A6837
:10A2B0004FF47A7303FB01F393429CBF24F40074C0
:10A2C0002C6072E624F4002406E72E4B1B789B07D3
:10A2D0003FF5F6AE44F48024F4E644F4807499E645
:10A2E00024F4001828F48058B8FA88F84FEA58186F
:10A2F000002E3FF475AF152123482BF03BFC18BB13
:10A30000224B1B7B53B306466AE77EBB87F8586334
:10A3100056E624F480642C60C2E600283FF470AF57
:10A3200044F400142C6070E724F0600401461648E1
:10A330002C602BF01FFC4CB1B8F1000F7FF45FAF25
:10A34000002E7FF45CAFE8E7002649E700287FF4A1
:10A350000DAF55E744F008042C60D7E724F400164D
:10A3600026F08006B6FA86F6760939E741460648B1
:10A370002BF000FC0028C9D161E700BF909A0020B3
:10A3800094B1002086440020542E002080E6002056
:10A39000314A324B10B5B2F906401B68B4F5FA6F7A
:10A3A000A8BF4FF4FA64B4F57A7FB8BF4FF47A745B
:10A3B000DB0410D42A4B9B8A6420E41A00FB04F0CF
:10A3C000C3F5FA6390FBF3F06428A8BF642020EA89
:10A3D000E07040B210BD152122482BF0CBFBB8B97C
:10A3E000214B187B0028E5D11D49DA884B8A991842
:10A3F000A14225DB9B1AA342ECDD1C1B6FF063001E
:10A40000A3F57A7300FB04F090FBF3F040B210BDAB
:10A41000134A154B908A1A7B241A6423C0F5FA60FC
:10A4200003FB04F494FBF0F49C42A8BF1C4624EA0E
:10A43000E474E0B212B1404240B210BD60B210BD4F
:10A44000E01A841AC3F5FA6364209B1A00FB04F037
:10A4500090FBF3F040B210BDA8E00020F8DE002031
:10A46000A0DE0020542E002080E60020F0B4454CF1
:10A47000454BB4F90010454E5B8A327876786FF41C
:10A480007A7C01EB0C07BFB240F2E63C6745C3F5AE
:10A49000FA650CD89F188F4245DAC91A8F1A6421C1
:10A4A00001FB07F1AF1A91FBF7F1C9B200E064219B
:10A4B000884264D9B4F902106FF47A77CF19BFB229
:10A4C00040F2E63C67451ED96422904257D9B4F960
:10A4D00004206FF47A71511889B240F2E634A14237
:10A4E0002FD899198A4238DDD31A9B1B6422AD1BE1
:10A4F00002FB03F393FBF5F3DBB2834234BF00208E
:10A500000120F0BC70479F18B9421CDC9A1A914296
:10A51000DDDA511A6427A2F57A7207FB01F191FB8B
:10A52000F2F2D2B2D1E79F1A8F4223DDA7EB010CE2
:10A530006421A7F57A7701FB0CF191FBF7F1C9B221
:10A54000B6E76423D9E7C91A891A6427AA1A07FB50
:10A5500001F191FBF2F2D2B2B7E79B1B9A420BDA00
:10A56000991A6422A3F57A7302FB01F292FBF3F3CA
:10A57000DBB2C2E700219BE70020F0BC704701205E
:10A58000F0BC7047A8E00020A0DE0020F4E6002028
:10A59000B94A1378D90700D470472DE9F04723F062
:10A5A0000103B64C137024F02DF8B54D2378C5F88F
:10A5B00064033BBBB34B1B78012B23D0B24B9A787F
:10A5C000002A40F0B280B14B1B88002B40F008817C
:10A5D000AF4AB04B1178186881F0010124F034FFC4
:10A5E000AD4B1B78B3B9AD4A137B00212170002B12
:10A5F00040F0D480AA4B1B6813F0600F00F0BE80BF
:10A60000BDE8F087A74B01221A709F4B9A78002A69
:10A61000D9D08AE02678002EE5D0A34B1F6817F426
:10A620008057E0D195F8848295F8852208F10103DE
:10A6300003F003039342D6D04FEA48099B4A85F8BA
:10A64000843209EB080305EBC30392F800A00A2249
:10A6500083F894224FF47A72C3F89022BAF1000F73
:10A660004BD0934B182000FB083052460D3014217C
:10A670004BF0E6F98F4B1A89002A00F0E480BAF11A
:10A68000010F18BF3E4600F0CB80B3F86C21002AC2
:10A6900040F0DE80BAF1020F2CD0B3F8D022002AAD
:10A6A00040F0DB80BAF1030F24D0B3F83424002A41
:10A6B00040F0D880BAF1040F1CD0B3F89825002AD6
:10A6C00040F0D580BAF1050F14D0B3F8FC26002A6B
:10A6D00040F01081BAF1060F0CD0B3F86028002AC0
:10A6E00040F09E80BAF1070F04D0B3F8C439002BB4
:10A6F00040F09680002E00F093806F4A09EB08032B
:10A70000126842F2107005EBC303B0FBF2F102FBDA
:10A710001102012083F8880202B1013109EB08031C
:10A7200005EBC303C3F88C125DE71B79022B3FF4E2
:10A730004AAF624E33780B2B19D801229A4040F66B
:10A74000030112EA01077FF43EAF12F4C06F0ED08E
:10A75000093B012B0BD845200BF0D4FCFF200BF05C
:10A76000D1FC57480BF040FC38460BF0CBFC554A67
:10A77000554B12685A600B23337024E7534B1B6808
:10A780009B0358D4524900220B461878042803F141
:10A790000C032FD00132192AF7D131E74949D5F8F6
:10A7A00068430B684B481B1BA0FB03039B09092B49
:10A7B0007FF620AF4848D5F86C4300680968C5F8B3
:10A7C0007013464E9568011BD2E90004A6FB016197
:10A7D00005EB5111013023449160C2E9000309E700
:10A7E0003F4B5A69002A3FF4FBAE196800220A6009
:10A7F0005A74F5E63B4D2C6853003CB1981801EBB8
:10A80000800064784078A042BFF4FAAE1A44364C17
:10A810003648002301EB8201296023800360EFE6C4
:10A8200009EB080305EBC3030121002283F888121A
:10A83000C3F88C22D7E62E4B1B78032BA2D1BDE8A0
:10A84000F04737F0EBBFBAF1010F7FF41EAF54E7CA
:10A85000BAF1020FE4D000261FE7BAF1030FDFD0F0
:10A86000002622E7BAF1040FDAD0002625E7BAF174
:10A87000050FD5D0002628E786440020AA8B0020AB
:10A8800038170020F89A0020849F00206CB1002027
:10A890006EB1002070B10020DAC900208C9F00202A
:10A8A000DC510020A89F0020F8DE00207416001064
:10A8B000C0190020DCC90020E0160020D6270020A7
:10A8C000BCD5050894B100207C2E00205430002017
:10A8D00088630508D34D6210D49A00201F85EB5180
:10A8E00074B1002060300020643000206830002007
:10A8F000C28D0020BAF1060F92D00026EDE600BF0F
:10A900002DE9F04F914C247885B0002C49D02F2AA6
:10A9100047D88F4D95F8848206460F4695F88502F4
:10A9200008F1010101F0030181423AD0501E2028B4
:10A9300000F2A480DFE800F09C9C9C9C9CA238382C
:10A940003838A238A2A2A2A2A2A2A23838A2A2A2F9
:10A95000A2A2A2A2A2A2A2383800012F0BD0B2F864
:10A960006C11002940F09080022F40F09080234627
:10A97000002B00F0B880774A09EB0803126842F216
:10A98000107005EBC303B0FBF2F102FB11020120D2
:10A9900083F8880202B10131C84405EBC805C5F847
:10A9A0008C1205B0BDE8F08F0A204FF47A7CCDE917
:10A9B000000C002B40F0A1804FEA480909EB080089
:10A9C00005EBC00085F88412009980F89412019973
:10A9D000C0F89012002FCED0FF2E00F05B83002E27
:10A9E00000F01683012F80F8953238D0012E40F008
:10A9F0001483022F80F8962231D009EB080105EB71
:10AA0000C1010020032F81F8970228D9032E40F0BE
:10AA10001683042F81F8982221D009EB080105EB59
:10AA2000C1010020052F81F8990218D9052E40F0A8
:10AA30001883062F81F89A2211D009EB080105EB43
:10AA4000C1010020072F81F89B0208D9072E18BFEB
:10AA5000024609EB080105EBC10181F89C223E4A40
:10AA6000118900293FF479AF012F3CD0002476E70B
:10AA7000DFF8E8900120CDE900099AE701204FF4C2
:10AA80007A7ACDE9000A94E7022F2CD00024B2F89C
:10AA9000D012002940F0F982032F3FF468AFB2F8DA
:10AAA0003414002940F00283042F3FF460AFB2F861
:10AAB0009815002940F0FF82052F3FF458AFB2F8F7
:10AAC000FC16002940F0FD82062F23463FF450AFCC
:10AAD000B2F8601839B9072F3FF44AAFB2F8C42969
:10AAE000002A3FF445AFC84405EBC8050122002306
:10AAF00085F88822C5F88C3253E742F2283002925A
:10AB000023F0D2FD029ADFF8589053001BB207F1F0
:10AB1000FF3A5FFA8AFA039393B20AF1010A0293A9
:10AB20004FF47A7023F0C0FD23F06CFD044699F8D1
:10AB30000030002B40F0FF8095F8842295F8853294
:10AB4000002F7BD0DFF81CB0002410E0DAC9002011
:10AB500038170020E0160020DCC90020A086010084
:10AB60004C180010501800100134A24566D0E1B214
:10AB70008E4201D0FF2EF7D1C8484FF4B27101FBCD
:10AB800004F100EB01084FF0010C98F80C0088F874
:10AB9000E0C00028E8D09A4211D003FA0CF000EB94
:10ABA000030C05EBCC0C9CF888C20CF1FF3EBEF107
:10ABB000010F40F29381BCF1030F00F08881DDE9C1
:10ABC0000232B648A8F808304FF4B27C0CFB040CF3
:10ABD00099F800009CF8E0301A4300238CF8E0302C
:10ABE000131283EA2213534000B1DB4303F00F0C2E
:10ABF0009BF80000AA4B4CEA02121B6892B2002894
:10AC000040F06382A748084401219847D8F8DC1037
:10AC1000B8F80AC0B1F83021D8F8D83042EA0C02AE
:10AC2000A1F8302158601A68013442F001021A601C
:10AC3000A24595F8842295F8853298D19A4240F041
:10AC40003981994B1A78002A68D09849984B09782D
:10AC5000186800297DD141628489B3F830C1012A86
:10AC600044EA0C048481A3F8301157D9D3F8340195
:10AC7000B3F864C241628489022A44EA0C048481E4
:10AC8000A3F864124AD0D3F86802B3F898C34162BB
:10AC90008489032A44EA0C048481A3F898133DD0E4
:10ACA000D3F89C03B3F8CCC441628489042A44EAF3
:10ACB0000C048481A3F8CC1430D0D3F8D004B3F8BA
:10ACC00000C641628489052A44EA0C048481A3F801
:10ACD000001623D0D3F80406B3F834C74162848940
:10ACE000062A44EA0C048481A3F8341716D0D3F85A
:10ACF0003807B3F868C841628489072A44EA0C041B
:10AD00008481A3F8681809D0D3F86C28B3F89C495B
:10AD10005162908920439081A3F89C19009B013BCC
:10AD200013F0FF0300937FF4FBAE019805B0BDE87C
:10AD3000F04F23F0B9BC38462DF0ECFA00287FF430
:10AD4000FBAE23F05FFC001BB0F57A7FFFF6EFAEA1
:10AD5000F2E65C6819896160216841F0010C40F2FB
:10AD60000D31C4F800C0A0F848108489012A44F4C9
:10AD700080748481D2D9D3F83841B3F83C01606043
:10AD8000D4F800C0D3F834014CF0010CC4F800C072
:10AD9000A0F848108489022A44F480748481BDD0CC
:10ADA000D3F86C42B3F870026060D4F800C0D3F8F6
:10ADB00068024CF0010CC4F800C0A0F84810848967
:10ADC000032A44F480748481A8D0D3F8A043B3F854
:10ADD000A4036060D4F800C0D3F89C034CF0010CCD
:10ADE000C4F800C0A0F848108489042A44F4807490
:10ADF000848193D0D3F8D444B3F8D8046060D4F8F5
:10AE000000C0D3F8D0044CF0010CC4F800C0A0F886
:10AE100048108489052A44F4807484813FF47EAF0D
:10AE2000D3F80846B3F80C066060D4F800C0D3F835
:10AE300004064CF0010CC4F800C0A0F84810848946
:10AE4000062A44F4807484813FF468AFD3F83C4709
:10AE5000B3F840076060D4F800C0D3F838074CF06E
:10AE6000010CC4F800C0A0F848108489072A44F4F3
:10AE7000807484813FF452AFD3F87028B3F874081B
:10AE800050601068D3F86C3840F001001060A3F8EF
:10AE900048109A8942F480729A813FE7DCC9002009
:10AEA00040180010C0CA002054180010501800109C
:10AEB000FCD400205900C81805EBC00090F88802A7
:10AEC00003283FF6BEAEDFE800F079186C4D03F1C1
:10AED000010C0CF0030C94453FF471AE034405EBF8
:10AEE000C303234493F895E21FFA8EF3212B7CD001
:10AEF000002B40F081801A4663E6C81805EBC000BD
:10AF0000D0F88C4204F1FF3C012CC0F88CC23FF613
:10AF100005AF4FF0020C4FF0FF3480F888C2C0F844
:10AF20008C42C81805EBC000824C90F894C224688B
:10AF30000CF1FF3C5FFA8CFC80F894C2BCF1000F6E
:10AF400000F0D7804FF47A720B44B2FBF4F204FBAA
:10AF500002F4B4F57A7F05EBC30318BF0132C3F8DE
:10AF60008C226EE6194405EBC101D1F88C02441E17
:10AF70000128C1F88C423FF6D1AE013303F0030340
:10AF8000D9B2914285F885123FF45BAE03EB4303DF
:10AF900005EBC3030221002283F88812C3F88C2238
:10AFA000BCE6C81805EBC000D0F88C4204F1FF3CA9
:10AFB000012CC0F88CC23FF6B1AEB2E75D48CA18AA
:10AFC000006842F2107C05EBC202BCFBF0F400FB0F
:10AFD00014C04FF0010C82F888C200B164440B44E5
:10AFE00005EBC303C3F88C422BE6DFF854C1002005
:10AFF000CCF80C00C5F8E8024F4A4FF4B27000FBE1
:10B0000004204FF0010C0EFA0CF280F8E0C0D8E5F5
:10B01000012F80F895223FF422AD09EB080105EBE2
:10B02000C1010020022F81F896027FF618AD022E92
:10B030007FF4E3AC032F81F897223FF410AD09EBC6
:10B04000080105EBC1010020042F81F898027FF66A
:10B0500006AD042E7FF4E1AC052F81F899223FF470
:10B06000FEAC09EB080105EBC1010020062F81F8B9
:10B070009A027FF6F4AC062E7FF4DFAC072F81F83E
:10B080009B223FF4ECAC0246E3E4032F3FF42BADEC
:10B09000002404E529490093182000FB08100D3016
:10B0A00011463A464AF0CCFC009BD8E4042F3FF40A
:10B0B0001AAD0024FBE4052F18BF00247FF4FFAC79
:10B0C00011E5062F7FF404AD0DE5D8F80400D8F89B
:10B0D000DC10407900F0FC000C3008440421984753
:10B0E000D8F8DC1095F8842295F885328000088124
:10B0F0003AE5D0F890E2BEFBF4FC04FB1CE44FF010
:10B10000030E80F888E20CB10CF1010C19440133F4
:10B1100005EBC10103F003039342C1F88CC23FF475
:10B1200090ADBCF1000F3FF48CAD0CF1FF33C1F8D2
:10B130008C3286E5E0160020DCC90020C019002012
:10B140001C0000102DE9F04FC94C94F85C3383B01B
:10B15000002B40F08C80C74D2B78DE0725D4FEF7FE
:10B160001DFFC54B1B6863BB2B78D80702D503B006
:10B17000BDE8F08F23F046FAC04BC14A1B68C31AE2
:10B180009342074600F28B80DFF80883D8F800303E
:10B19000002BECD11B21BB482AF0ECFC002800F06E
:10B1A000B1820223C8F80030E1E7B74AB74B117803
:10B1B000186801F0010124F047F9AF4B1B68002B20
:10B1C000D2D0B34AB34912780020086092B1B24A93
:10B1D0001278012A06D0022AB04AD2F8AC2004D153
:10B1E000002AC4D1AE4AD2F8AC20B2FA82F2520997
:10B1F000002ABCD0002B93FAA3F3B3FA83F3D4F85C
:10B200007C2308BF4FF0FF3301339A42AFD0A548EB
:10B21000C4F87C33DBB2A0FB03208008A24900EB1A
:10B2200080029B1A43F205254FF00534DBB200F093
:10B23000FF020D81C1E90044002800F0D1831920EC
:10B24000012A887200F02582023AD2B207325200F7
:10B25000C8720C240855651C0234944201EB0406A4
:10B2600000F03682402C06F8010CF3D11CE2884A2B
:10B270001378002B7FF46FAF8C498D4B4E8B874D2D
:10B280001968874842F2107303FB06F3B3FBF1F32E
:10B290000121C5F8AC30C0F8AC3011705BE7854BCC
:10B2A0001B78002B40F05B82DFF8E881DFF84492E6
:10B2B000814EDFF844B29BF80030DFF840B2D9F895
:10B2C00000A09BF80090002B00F079822878DFF82E
:10B2D00030C27A497A4B40F003022A7000228CF87F
:10B2E0000020C8F80020C1E9002202E006339E4297
:10B2F0000CD01A781C2AF9D19978DA78914202D3C5
:10B300005A79002AF2D040F0070028706D4AB2F94D
:10B310000030002BB8BF5B42B3F5E17F80F2418182
:10B32000B2F90230002BB8BF5B42B3F5E17F80F287
:10B330003881654B93ED096AD3ED076AD3ED057A41
:10B3400093ED037A76EE866A37EE277A76EEA66A72
:10B35000F7EE007A37EEE66A37EE077AB0EEC66AA5
:10B36000F0EEC75AB4EEE56AF1EE10FAB4BFB0EEF3
:10B37000655AB0EE465AB5EE405AF1EE10FA00F0BA
:10B38000C482B4EEE56AF1EE10FA8CBFB0EE654A05
:10B39000B0EE464AC4EE054A9FED4C2A9FED4C5A4A
:10B3A000DFED4C1ADFED4C2A9FED4C3ADFED4C3AC5
:10B3B0009FED4C4AA4EE825AE4EEE12AE4EE857A4F
:10B3C000A4EEA23AB0EE675AF0EE637AE4EE837A26
:10B3D000A4EEA74AC4EE057AB4EEE56AF1EE10FADF
:10B3E00044BF9FED4B6A76EE677AB7EE006AF4EEE3
:10B3F000C66AF1EE10FAC8BFDFED466AB5EEC07A54
:10B40000C8BF76EEE77AF1EE10FA48BFF1EE677A40
:10B41000BEEE007A67EE877A9FED3D7A77EE876A17
:10B42000BDEEE66A16EE103A2033402B40F27382EE
:10B43000DFED2D6A2D4A9FED2C7AC2ED016AFDEEFB
:10B44000E76A82ED027A16EE903A2033402B82EDC5
:10B45000037A00F25D829FED2F7AF4EEC77AF1EE67
:10B4600010FA40F3D5829FED286ADFED216A5DE096
:10B470003817002086440020DC510020F49A002078
:10B480007F4F1200542E00205CB1002060B10020DC
:10B490002B300020F09A00206C150010DC0E0010FC
:10B4A0004C080010CDCCCCCCE03200201827002076
:10B4B00068170010DAC9002044310020281D001050
:10B4C000CC300020484D0020F816002099FB243F86
:10B4D00069A2163E39094E3DE3B59E3E88FA163EF6
:10B4E00045FE7F3FA7DFA834000000008801002050
:10B4F000E4CB1641F8DE0020AA8B0020EC4D0020A2
:10B50000A89F0020DB0F49C0DB0FC940E4CB16C168
:10B51000DB0FC93FDB0F494092E741B99730083C48
:10B5200015A82ABE00247449F0EE477AF4EEE67AB4
:10B53000F1EE10FA37EEC67AF6DC5FED0E7AB4EE75
:10B54000E77AF1EE10FA40F160821FED116A5FEDCB
:10B55000116A01E0B0EE677AB4EEE67AF1EE10FA25
:10B5600077EE067AF6D41FED167AF4EEC77AF1EE8E
:10B5700010FA40F323821FED197A77EE677A27EEEF
:10B58000A76A5FED1B5A5FED1B6A1FED1B7AE6EEA3
:10B59000256A67EE865AA6EE267AE5EE877AC2ED30
:10B5A000047A94F85D335FED216AAB4AAB4D07EE48
:10B5B000103A07EE907AB8EEC77AF8EE677A002371
:10B5C000E7EE267A19F0010F1380C4F87C33FCEE05
:10B5D000E77AD5E90071C4EDDE7A74D119F0020F73
:10B5E0001AD0AB7C042B17D907EE907AF8EEE77AE5
:10B5F0009FED9B0A9B4B0191F0EEE77A27EE800AC4
:10B60000C3E900712AF01CFA974B019983ED000AF7
:10B6100049F001098BF80090944E954A306810600B
:10B62000944B954ADFF89082DFF890C21B689348EC
:10B6300051600021C8F80010ACF800101AF0800F1B
:10B64000A968176003F40033018000F0C88019F086
:10B65000020F02D0AA7C042A5DD8002B40F0D480CF
:10B66000874B00211A461078182802F10C0261D08D
:10B6700001311929F7D100233268C4F86823002268
:10B68000C4F86C33C4F88023C4F88423C4F8882336
:10B690006DE53222CA720C2214462BB10520012B13
:10B6A000885402F1010407D1FF230E200B5503B08B
:10B6B000BDE8F04F37F0CEB8951C19263E2D0E553B
:10B6C0000BD92C46F0E76F4B5B79002B86D0A3E7B4
:10B6D00032203E2C4855DFD9E6E7022B485502F1CF
:10B6E0000304E1D0151D3E2D0E55EAD8032B485515
:10B6F00002EB0004D8D0931D3E2B0E5540F29881EA
:10B700001C46D1E7604B1B78D90640F1DD80012350
:10B71000C8F800302BE5002B40F05C81584B00212D
:10B720001A461078062802F10C0203D001311929BB
:10B73000F7D1A0E7554807684A0037B1551803EB21
:10B7400085057F786D78BD4295D20A44504D5149A8
:10B7500003EB8202002302602B800B608CE74E4BD0
:10B7600003F1780602E006339E4246D01A781B2A7F
:10B77000F9D19978DA78914202D35A79002AF2D035
:10B780001B214648DFF82C91DFF834812AF0F2F9CA
:10B79000D9F800A00AF48053002840F00181D8F8BD
:10B7A0000020022A00F0FC80DFF818B18BF80000BE
:10B7B000002B00F03081DFF8D0B09BF8009019F03A
:10B7C000100F2BD0D8F80030032B7FF47FAD344B13
:10B7D0001A78002A7FF47AAD01221A7076E5002BE0
:10B7E00035D1274B00211A461078052802F10C02AA
:10B7F000A0D001311929F7D13DE7DFF8C480DFF887
:10B80000B490DFF8C0B056E5264B1B78032B7FF4CD
:10B8100027AF37F003F8D8F800302DE7224B1B781C
:10B82000002BCFD127211D482AF0A4F90028C9D028
:10B830001AF0100F03D01D4B1B78002BC2D01AF446
:10B84000805FBFD11A4B1B88002BBBD1BFE7154BC4
:10B850001B78032BC5D1DCE7781700100CE0002023
:10B8600050E0EF30989B0020DC16002094B10020BF
:10B87000AC9B002054300020A09B0020AA9B0020FD
:10B8800088630508B49B0020EC4D00206030002048
:10B890006430002068300020CC300020542E00207E
:10B8A000F89A0020C28D002030170020A99A0020AD
:10B8B000444D0020F8DE0020D49A0020A89B0020F0
:10B8C000F09A0020AA8B00205B4B1B78002B7FF4A2
:10B8D0001EAF272159482AF04DF900283FF417AF31
:10B8E000574B1B68DA0604D5564A1278002A3FF4F3
:10B8F0000EAFDB043FF50BAF534B1B88002B7FF4DF
:10B9000006AF0323C8F8003031E4DFED507A63E579
:10B91000F0EE477A43E6F4EEC77AF1EE10FA40F320
:10B920008480DFED4B5A9FED4B6A01E0F0EE476AF1
:10B93000F4EEC66AF1EE10FA36EEE57AF6DCDFEDEB
:10B94000466AB4EEE67AF1EE10FA6BD5DFED405AB6
:10B950009FED426A01E0B0EE667AB4EEC67AF1EE8F
:10B9600010FA77EE256AF6D49FED3D7AF4EEC76AB9
:10B97000F1EE10FA36DD9FED3B7A77EE666A66EE01
:10B98000A65A9FED395A9FED396A9FED397AA5EE97
:10B99000856A26EEA55AA5EE867AE5EE076A49E5A0
:10B9A000DFF8DCB0012100228BF8001084F874234A
:10B9B00023B3DFF8D0B09BF8009087E49FED2D7A99
:10B9C000F4EEC77AF1EE10FA44BF9FED237A77EEDA
:10B9D000677AD4E5284B1B78032B7FF49FAE18E7DA
:10B9E0000A2259E69FED237AF4EEC76AF1EE10FAC7
:10B9F00044BF9FED197A77EE666AC0E71F4AFF20C1
:10BA000011781522FEF77CFF55E4F0EE477AAAE59F
:10BA1000B0EE677A91E5194AFF2011781422FEF7FB
:10BA20006FFF48E4F0EE476A9EE7B0EE667A86E77D
:10BA3000D41DC85438E600BF30170020542E002013
:10BA4000F8DE0020A99A0020444D0020A7DFA8348A
:10BA5000DB0FC940E4CB1641DB0F49C0E4CB16C174
:10BA6000DB0FC93FDB0F494092E741B99730083CF3
:10BA700015A82ABEDB0FC9BFC28D002074160010A6
:10BA8000AA8B0020EC4D00202DE9F04FDFF84CC2CE
:10BA900004460A300CEB000E87B09EF80C801CF8B0
:10BAA000009003914FF41A7C404601920CFB04FA7B
:10BAB000049322F077FD0646484622F073FD00907D
:10BAC000404623F09DFA9DF84450804B059048462F
:10BAD00003F5637B23F094FA15F008039DF840709A
:10BAE00002930BEB0A08DDE9001200F092800029B6
:10BAF00000F0E68091F807C01CF0020F40F0E080F3
:10BB0000724B03EB0A0C07F002030093CCF8CC1342
:10BB1000CCF8C803CCF8C40330B14FF00B0C04EBE5
:10BB20000C0180F806C0C171684B049E4FF41A796D
:10BB300009FB04390AF1480089F89073039FC9F89A
:10BB4000B8735844624FC9F88C730AF5A471002782
:10BB50005944C9F8A0034FF48070C9F8BC2389F890
:10BB60009153C9F8A413C9F89803C9F89C03314646
:10BB7000D9F8CC03C9F8946389F8E445C9F8AC73E3
:10BB8000C9F8A873C9F8B473C9F8B073C9F8E075F7
:10BB9000A9F8D875FDF7C8FE05F00101D9F8CC0366
:10BBA0003BF018FC009A4B484B49C9F8EC750AF574
:10BBB00019750AF517735D44C9F8F005C9F8E81559
:10BBC0009B44002A5DD0D9F8D003002859D0D9F879
:10BBD000CC2303681268934253D0012389F8E535DA
:10BBE0003146FDF7A1FE5A463946D9F8D00318F080
:10BBF000A1FB3A462946D9F8CC0318F09BFB029BDF
:10BC0000002B4FD04046FDF765FE404607B0BDE82B
:10BC1000F08F17F00103019318D117F0020300937E
:10BC200082D0B9F1000F4BD0284B4FF41A7C0CFB9B
:10BC3000043C019BCCF8C803002B3BD100293FD02A
:10BC4000CCF8CC1300287FF468AF6DE7002E37D016
