:020000040800F2
:10000000F0FF0010F1EC0408E9E0020811A4020876
:1000100091ED040891ED040891ED04080000000042
:10002000000000000000000000000000F5E00208F1
:10003000F1E0020800000000EDE00208216E020875
:1000400091ED040891ED040891ED040891ED040888
:1000500091ED040891ED04089DB20208C9B30208AD
:100060008DB3020851B3020815B302081DEB000856
:100070000DEB0008FDEA0008EDEA0008D9EA0008E7
:10008000C5EA0008B1EA000891ED040891ED040802
:1000900091ED040891ED040891ED0408D9B202082D
:1000A0007D52020861570208AD51020889570208C3
:1000B000A1560208E15502081555020891ED040801
:1000C00091ED040891ED040891ED040891ED040808
:1000D00091ED0408856E020891ED0408796E02081E
:1000E00061B2020891ED0408D1200308DD50020836
:1000F0004D5302080D500208755302089DEA00088E
:1001000091ED040891ED04084554020891ED0408AE
:100110006D6E020891ED0408555B0108415B010812
:1001200089EA000875EA000861EA00084DEA00085B
:1001300039EA000891ED040891ED040891ED0408F6
:1001400091ED040891ED040891ED04089DF1020879
:1001500025EA000811EA0008FDE90008616E0208BE
:1001600091ED040891ED040891ED040891ED040867
:1001700091ED040891ED040891ED040891ED040857
:0801800091ED040891ED040863
:0801880098E8040001000000EA
:10019000100201004C1A0020481A00200000000044
:1001A000300700081F021000601A0020501A0020BB
:1001B0000000000035850008F6210C00A02000207A
:1001C000EC200020000000003407000802000C00B2
:1001D00094200020F8200020000000000000000013
:1001E00008120F00842000200421002000000000DD
:1001F000F9840008F701060078200020142100206F
:1002000000000000400700081D02020074200020CA
:100210001C21002000000000460700080A020A0016
:100220000C1E00202021002000000000D5F900084D
:1002300003000100B01D00202C2100200000000060
:100240000000000003123D0020200020302100208B
:10025000000000004807000825102C01401E002067
:1002600070210020000000000000000010100200BB
:10027000781D00209C220020000000008607000856
:100280002C001000982F0020882F00200000000074
:10029000D7A901082B002400CC2F0020A82F002074
:1002A00000000000A9A9010829207800902E002054
:1002B000F02F0020000000000000000028101000B7
:1002C000783000206830002000000000999E01086E
:1002D0001C021000FC2900208830002000000000D3
:1002E000B183000820320A00A4300020983000209A
:1002F000000000001D9E010814000300F42D0020E2
:10030000B0300020000000008807000801200C0029
:1003100020260020B4300020000000008C070008D8
:100320000C109C0050250020C03000200000000070
:1003300095F600080A702800DC2400205C310020BB
:10034000000000003D9E01080EA05C0180230020FB
:1003500084310020000000001D1904080101040080
:10036000E0220020E0320020000000000000000039
:1003700000010400D8220020E43200200000000028
:100380009807000802010300D4220020E832002070
:1003900000000000C1F600081A023C0014330020DF
:1003A0002C38002000000000C98600082700040047
:1003B0000433002068380020000000009C0700087B
:1003C00038100100F83200206C38002000000000D6
:1003D000A00700080B301A00B84B0020345300204F
:1003E00000000000A40700081F302400F042002095
:1003F0005053002000000000C00700080502040060
:10040000484D00207453002000000000E40700085D
:1004100003010A0018430020785300200000000068
:10042000E8070008130204009C41002084530020C8
:1004300000000000F207000822021401406A0020B8
:10044000906C0020000000000588000801020500F3
:10045000985C0020A46D0020000000005D7503087A
:1004600000020500905C0020AC6D00200000000040
:10047000000000001B0210007C5C0020B46D002016
:1004800000000000DD8300081E000600D459002093
:10049000C46D002000000000F80700081B100C00CD
:1004A00098560020CC6D0020000000001189030840
:1004B0002102F000F0540020D86D00200000000060
:1004C0009580030823121000DC5C0020C86E002019
:1004D000000000000008000837102800045C00201D
:1004E000D86E002000000000100800080E02020074
:1004F000D85C0020006F00200000000038080008D1
:100500001610060054540020046F00200000000064
:100510003A0800082F1022006C6C00200C6F00209D
:10052000000000004008000805100600BC5800202C
:10053000306F0020000000006208000823100E0049
:100540001C590020386F002000000000B19E0108F7
:10055000F5518C005C540020486F00200000000022
:1005600011B503080D002C00409D0020A89D00201F
:10057000000000009D21030809020100AC9C00203E
:10058000D49D0020000000006808000804008000DE
:100590002C9C0020D89D00200000000000000000DE
:1005A000F9010400189C0020589E00200000000063
:1005B000413A020813000400149C00205C9E0020B5
:1005C000000000006C080008FD011E00F49B0020E4
:1005D000609E002000000000C939020818202E008B
:1005E000C09B0020809E002000000000658700085E
:1005F00006101A00E0860020B09E002000000000D7
:1006000079190408FB010100DC860020CC9E002043
:1006100000000000D9870008FC010900A88500201F
:10062000D09E002000000000E987000816023F006D
:1006300068850020DC9E002000000000198400086E
:1006400034001000988400201C9F0020000000004F
:100650004D19040811020800708400202C9F00200E
:1006600000000000700800081212040068840020D6
:10067000349F0020000000007808000812201000BD
:1006800058840020389F0020000000007C080008EB
:100690000202030024700020489F00200000000098
:1006A000000000000C020400E06F00204C9F0020BE
:1006B0000000000025850008FE011400F07A0020EB
:1006C000509F002000000000F18300081900050081
:1006D000ECA30020FCA40020000000008C0800080F
:1006E0001A000E0078A3002004A5002000000000DE
:1006F00092080008F821060050A2002014A500204E
:1007000000000000A008000815007000C8A000202C
:100710001CA5002000000000000000002A0060006E
:1007200048A400208CA5002000000000F518040853
:1007300000000000000000000100000002020000B4
:100740001E0100000000000000000000000000008A
:100750000000000000000000000000000000000099
:100760000000000000000000000000000000000089
:100770000000000000000000000000000000000079
:10078000000000000100000503000000E803640011
:10079000040A000114001E00FA00000020030000FB
:1007A00000000000AE014A015E012C01640101005D
:1007B000000001000A019A01001E0A00000000006A
:1007C000000000000001000000050000010203001D
:1007D0000000000000000000000000000000000019
:1007E0000080070000000000040101006C160000FA
:1007F00000000000010000000000010000000000F7
:1008000000000000000000000000000000000000E8
:1008100020003200C800D0079600140032002800E3
:10082000B00440060005500014000F0008006400EA
:100830000100000005000A000000C40900001900C2
:1008400000000000000000000000000000000000A8
:100850000000000000000000000000000000000098
:1008600000002000030100001300000008044430D1
:100870000000000001010101FFFFFFFF0000000177
:10088000000005504B4F53000008000000002801F5
:1008900000007E05EA05B4053200E803D007000039
:0608A0000401F401140044
:1008A600FF01FF000000040100000000000000023C
:1008B600100000000700000000000000000000001B
:1008C6000102030406070809FFFFFFFF0000803F3F
:1008D600000000000000000000000000FFFFFFFF16
:1008E600FF00000000000000DC20002008000000DF
:1008F60000000000CC200020080000004474050819
:10090600507405085C740508687405087474050855
:10091600807405083C86050864B5050894B4050886
:10092600F49805080C8C0508347405083874050815
:100936003C740508407405088C7405089074050815
:100946009474050804B30508987405081900C800CE
:10095600F401200301000000959401080000000046
:10096600500C050820700020702D7200FFFFFFFF5D
:10097600010101000001010100D60100B80B0000D1
:100986002D202D2D202D2D2D2D202D2D2D0000003F
:100996000000000000000000000000000000000051
:1009A6000000000000000000102005080000000004
:1009B600000000009C20050801000000FA0000006D
:1009C6000100000001000000010100001C260020BB
:1009D6000000F401010000001A2600200000F401C6
:1009E60001000000182600200000F40101000000AC
:1009F600162600200000F401010000001426002045
:100A06000000F40101000000122600200000F4019D
:100A160001000000102600200000F4010100000083
:100A2600A99C01086D9C0108200E05080A260020D5
:100A36000532010008260020E803D0070100000067
:100A460006260020E803D007010000000426002047
:100A5600E803D00701000000022600201E00B80BA4
:100A660001000000002600201E00F4010100000025
:100A7600FE25002014006400010000000C26002062
:100A86003200E80301000000FC2500200000C80039
:100A9600010000003225002000C801003125002099
:100AA6000050010030250020005A01002E250020AC
:100AB60002000000AC0E0508A0760508A876050819
:100AC600725600200100C409000000007056002084
:100AD6000100C409000000006E5600200100C40990
:100AE600000000006C5600200100C4090000000050
:100AF600685600200100C409000000006A56002064
:100B06000100C40900000000665600200100C40967
:100B160000000000645600200100C4090000000027
:100B2600F922002000C80100F822002000C80100B8
:100B3600F62200200100C80001000000F422002077
:100B46003200307532000000F2220020055A0500FE
:100B5600EF22002000FF0100F1220020010000002A
:100B6600A0030020ED2200200300000070330508DA
:100B7600EE22002000FF0100F0220020010000000C
:100B8600A0030020EC2200200300000070330508BB
:100B96001D9C0108CD9B0108B80E050830260020D3
:100BA600EE02CA08010000002E26002000C801003F
:100BB600640000002D26002000C80100640000002B
:100BC6002C260020020000007C0F0508E6220020EB
:100BD60080C1803E05000000E422002080C1803EE6
:100BE60005000000DE22002080C1803E05000000D6
:100BF600DC22002080C1803E05000000D7220020B4
:100C060000FF0100D02200206400F4010100000072
:100C1600CF22002004000000880F0508CE22002005
:100C2600020000009C0F05086F2300200D00000045
:100C3600A80F05086C230020006401006A23002029
:100C4600320010270A000000692300200D00000072
:100C5600A80F0508682300200D000000A80F05084E
:100C66006723002002000000E00F050800000000D6
:100C760000000000EC0F0508004D00209CFF2C0131
:100C86000000000040290020E0150C1700000000BD
:100C96004229002002000000241005083C260020FE
:100CA6000100FF7F010000003B260020020000003B
:100CB60030100508712300200300000040100508CD
:100CC60070230020030000004010050810250020B6
:100CD6000000E803010000000E2500200000E803E4
:100CE600010000000C2500200000E80301000000C0
:100CF6000A2500200000E803010000000825002066
:100D06000000E80301000000062500200000E803BB
:100D16000100000005250020001401000425002024
:100D260003000000501005081C2500200000F401F7
:100D3600010000001A2500200000F4010100000057
:100D4600182500200000F4010100000016250020EF
:100D56000000F40101000000142500200000803E80
:100D660001000000122500200000803E0100000066
:100D760045250020196401004425002002000000DA
:100D86006010050842250020E803D0070A0000008D
:100D960040250020006401000A00000035250020DF
:100DA6000064010034250020006401003C25002079
:100DB600006401000A0000003B25002000640100D9
:100DC6000A0000003A250020006401000A00000025
:100DD6003F250020006401000A0000003E25002097
:100DE600006401000A0000003D25002000640100A7
:100DF6000A0000003925002001FF01000A0000005A
:100E06003825002001FF01000A00000037250020D8
:100E160001FF01000A0000007A2300200000F4010F
:100E260001000000782300200000F401010000000A
:100E3600762300200000F401010000007423002046
:100E46000000F40101000000722300200000F401FC
:100E5600010000002D250020006401002C25002043
:100E6600006401002B250020006401002A250020D3
:100E7600FF08010029250020016401009D9A010850
:100E8600619A01086C1005082825002000640100FD
:100E9600262500201400E803010000002425002078
:100EA600E80330750A0000002225002000C8010072
:100EB6002125002000C801002025002000C80100CF
:100EC6001F250020006401000A000000FA2500200A
:100ED6000000D00701000000F525002000C8010031
:100EE600F425002000C80100F325002000C80100F9
:100EF600F82500200000D00701000000F2250020A0
:100F060000C80100F125002000C80100F0250020DE
:100F160000C80100F62500200000D00701000000EF
:100F2600EF25002000C80100EE25002000C80100C2
:100F3600ED25002000C8010000000000D19701083F
:100F4600DC1005086523002035000000781105082F
:100F56006423002000C8010062230020E803D007B4
:100F66000100000046465F50494B4F46344F5344FC
:100F760000000000EB22002000030100EA2200200E
:100F8600000301001D970108E196010850120508AB
:100F96009D96010851960108C01205085997010847
:100FA6001DAF010840130508E822002001030100D7
:100FB600119D0108E59C010834160508E195010814
:100FC600A1950108A4160508E797010805D00108B0
:100FD60040170508D5AA010800000000E817050813
:100FE60091AC0108719D010884180508399801081B
:100FF60000000000F418050811990108BD980108C1
:1010060058190508A199010865990108F4190508F8
:10101600D99A0108219B0108741A05083325002076
:1010260001060100819801084D980108701B05080A
:10103600DD99010881AF0108E01B0508519B0108F5
:1010460009B00108C01C05081E2500200103010087
:10105600A197010871970108941D05083D9D010897
:1010660000000000F81D050821960108EDAE0108F4
:101076005C1E05080000000000000000E81E0508D0
:10108600A59B010881B00108681F0508CA22002037
:1010960088136F1701000000CC22002088136F17F9
:1010A600000000007A43002000000000000000005D
:1010B6007843002000000000000000007643002076
:1010C6000000000000000000744300200000000043
:1010D6000000000072430020000000000000000035
:1010E600704300200000000000000000840C002077
:1010F6000000000000000000A02200200200000006
:10110600F0200508C822002088136F170100000090
:10111600404D002088136F17000000003595010828
:1011260000000000FC2005088A29002001000000BC
:1011360050210508424D0020010000005C210508F1
:10114600384D002002000000642105080000000060
:10115600000000007021050821950108000000002C
:101166000C220508000000000000000060220508AF
:101176000000000000000000D02205083C4D0020C1
:10118600E0150C1700000000FFFF0100A00F000093
:10119600B80B00000102FFFF010000000403090470
:1011A60012010002EF0201408304563200020102DE
:1011B60003010000120100020202004083044057AE
:1011C600000201020301000009026400030100C0DD
:1011D6003209040000010300000009211101000189
:1011E6002226000705830308000A080B01020202F3
:1011F600010009040100010202010005240010019A
:101206000524010002042402020524060102070542
:1012160082030800FF09040200020A000000070515
:101226000102400000070581024000000902430058
:10123600020100C032090400000102020100052477
:101246000010010524010001042402020524060001
:1012560001070582030800FF09040100020A0000D5
:10126600000705010240000007058102400000005A
:10127600FF000000682C05080000000000000000C8
:101286000000000000000000000000000000000058
:1012960000000000000000000000000000FFFF004A
:1012A60000000000AA550501000001003C2C0508BD
:1012B6000000000000000000000000000000000028
:1012C6000000000000000000000000000000000018
:1012D60000000000FF1FFF1F05010905A101A10075
:1012E6000501093009310932093309350934094044
:1012F60009381581257F750895088102C0C0000050
:1013060009022200010100E0320904000001030184
:1013160002000921110100012226000705830308A6
:10132600000A000000000000010203040102030499
:101336000607080931E4020835E3020875E60208E3
:10134600A9C30208EDC60208B9C30208D5C302083C
:1013560081C3020871C302080000000000000000FB
:101366002D202D2D202D2D2D2D202D2D2D2D000028
:10137600000000000000000000000000000000AABD
:10138600550B010000AA5507010000AA55090200E5
:101396000000AA5503009F0001000000C0120000D3
:1013A60008530020000000002C530020000000001D
:1013B600CDC8020871C6020851E602080000000006
:1013C6006DC3020821E3020839C8020899E202083F
:1013D600000000000000000029C302083DC8020802
:1013E60031C6020891E502080000000041C3020868
:1013F6009DE202080DC80208F9E10208000000009B
:101406000000000035C3020800000100E0010000F2
:10141600FFFFFFFF080101FFFFFF000008000000BB
:101426008DC2020889C2020885C2020879C2020872
:1014360075C2020881C202087DC2020801C3020801
:10144600F5C20208CDC20208E1C20208B9C202080A
:10145600A5C2020891C20208010000000060024015
:10146600106002400000000000000000000B0000B9
:1014760000000000000000000000000000600240C4
:10148600286002400100000000000000060C000079
:1014960000000000000000000000000000600240A4
:1014A600406002400200000000000000100D000035
:1014B6000000000000000000000000000060024084
:1014C600586002400300000000000000160E0000F5
:1014D6000000000000000000000000000060024064
:1014E600706002400400000000000000200F0000B1
:1014F6000000000000000000000000000060024044
:101506008860024005000000000000002610000070
:101516000000000000000000000000000060024023
:10152600A06002400600000000000000301100002C
:101536000000000000000000000000000060024003
:10154600B86002400700000000000000362F0000CF
:1015560000000000000000000000000000640240DF
:101566001064024000000000000000000038000087
:1015760000000000000000000000000000640240BF
:101586002864024001000000000000000639000047
:10159600000000000000000000000000006402409F
:1015A600406402400200000000000000103A000003
:1015B600000000000000000000000000006402407F
:1015C600586402400300000000000000163B0000C3
:1015D600000000000000000000000000006402405F
:1015E600706402400400000000000000203C00007F
:1015F600000000000000000000000000006402403F
:101606008864024005000000000000002644000037
:10161600000000000000000000000000006402401E
:10162600A0640240060000000000000030450000F3
:1016360000000000000000000000000000640240FE
:10164600B8640240070000000000000036460000B3
:10165600000000000000000000000000E49F0508F4
:101666009C9F0508000000001D210308A0860100BC
:101676000400000000000000000000000000000060
:101686000000000000000000000000000000000054
:10169600000000000000000000000000E49F0508B4
:1016A600EC9F05080000000065380208E80300000A
:1016B6000400000000000000000000000000000020
:1016C6000000000000000000000000000000000014
:1016D600000000000000000000000000F87D050882
:1016E600F49F050800000000850101087D00000048
:1016F60006000000000000000000000000000000DE
:1017060000000000000000000000000000000000D3
:10171600000000000000000000000000FC9F05081B
:101726000000000000000000F1630208E80300006A
:1017360003000000000000000000000000000000A0
:101746000000000000000000000000000000000093
:1017560000000000000000000000000000A00508D6
:101766000000000000000000296D0408102700009A
:101776000300000000000000000000000000000060
:101786000000000000000000000000000000000053
:1017960000000000000000000000000078D90508E5
:1017A600000000003DA7010875A402085F7600004E
:1017B600050000000000000000000000000000001E
:1017C6000000000000000000000000000000000013
:1017D600000000000000000000000000748A0508F8
:1017E6000000000000000000DDB80208102700001D
:1017F60001000000000000000000000000000000E2
:1018060000000000000000000000000000000000D2
:101816000000000000000000000000000CA0050809
:10182600000000000000000069380208E80300001C
:10183600050000000000000000000000000000009D
:101846000000000000000000000000000000000092
:1018560000000000000000000000000018A00508BD
:101866000000000000000000CD870108204E0000A7
:10187600030000000000000000000000000000005F
:101886000000000000000000000000000000000052
:1018960000000000000000000000000028A005086D
:1018A6000000000000000000B9850108204E00007D
:1018B600030000000000000000000000000000001F
:1018C6000000000000000000000000000000000012
:1018D60000000000000000000000000038A005081D
:1018E600000000000000000091460208400D0300C1
:1018F60003000000000000000000000000000000DF
:1019060000000000000000000000000000000000D1
:10191600000000000000000000000000D09705084D
:10192600000000000000000091430308102700009B
:1019360001000000000000000000000000000000A0
:101946000000000000000000000000000000000091
:101956000000000000000000000000007C8A05086E
:101966000000000000000000759403081027000026
:10197600030000000000000000000000000000005E
:101986000000000000000000000000000000000051
:10199600000000000000000000000000AC7905080F
:1019A600000000000000000035370208A8610000B2
:1019B6000100000000000000000000000000000020
:1019C6000000000000000000000000000000000011
:1019D600000000000000000000000000808A0508EA
:1019E6000000000000000000456F0208A00F000084
:1019F60001000000000000000000000000000000E0
:101A060000000000000000000000000000000000D0
:101A160000000000000000000000000048A00508CB
:101A2600000000000000000011B6030810270000A7
:101A3600010000000000000000000000000000009F
:101A46000000000000000000000000000000000090
:101A56000000000000000000000000003C850508B2
:101A66000000000000000000A5AE03081A410000B7
:101A7600010000000000000000000000000000005F
:101A86000000000000000000000000000000000050
:101A96000000000000000000000000006C7905084E
:101AA600000000000000000089CB0208102700009B
:101AB600010000000000000000000000000000001F
:101AC6000000000000000000000000000000000010
:101AD600000000000000000000000000A89F0508AC
:101AE600000000000000000085D601081A41000031
:101AF60001000000000000000000000000000000DF
:101B060000000000000000000000000000000000CF
:101B160000000000000000000000000054A00508BE
:101B2600000000000000000071D10208400D030013
:101B3600000000000000000000000000000000009F
:101B4600000000000000000000000000000000008F
:101B56000000000000000000000000005CA0050876
:101B6600000000000000000059210308400D03009A
:101B7600000000000000000000000000000000005F
:101B8600000000000000000000000000000000004F
:101B960000000000000000000000000064A005082E
:101BA6000000000000000000D1C0030850C3000080
:101BB600030000000000000000000000000000001C
:101BC600000000000000000000000000000000000F
:101BD60000000000000000000000000070A00508E2
:101BE60000000000000000002D85010840420F00A3
:101BF60000000000000000000000000000000000DF
:101C060000000000000000000000000000000000CE
:101C16000000000000000000000000007CA0050895
:101C260000000000000000000D23030850C3000060
:101C3600000000000000000000000000000000009E
:101C4600000000000000000000000000000000008E
:101C56000000000000000000000000000000803FBF
:101C66007D0000000000803F000000000000000032
:101C7600000000000000803F00000000000000009F
:101C8600000000000000000000000000000000004E
:101C96000000000000000000000000000000803F7F
:101CA600000000000000000000000000010000002D
:101CB6000000803FFFFFFFFF6CD905080000080207
:101CC6000503030074D90508010008020504030092
:101CD600B87505080200FE0101100300C07A050868
:101CE60003001402000300007CD9050804001F024B
:101CF6000100080084D9050805001F02010108003B
:1080000003685A1C02601970704700BF2DE9F047E1
:10801000089C2578002B804689460CBF4FF0200A2B
:108020004FF0300A661C25B3002A26DD334601E0F6
:10803000024698B113F8011B501E0029F8D1971E73
:1080400060B13D46013D51464046C8476B1C002B80
:10805000F8DC257827EAE770013045B1041B294692
:108060004046C847301916F8015B002DF7D1BDE82E
:10807000F087002A03DC2846F9E70020EEE7571EC8
:10808000DFE700BF2DE9F04714461D4606464FF4D2
:108090007A7200232046294646F05EFC4D4BDFF8FD
:1080A00048814D4A4D4F034488FB03101844D917AB
:1080B00082FB032CC1EB601088FB002887FB0327A1
:1080C0009C44474AC1EBEC2CC0EB001E82FB0C2900
:1080D000A3EB8E0E1F44434A86F806E0C1EB274708
:1080E0004FEAEC7E08EB000ACEEBA90E82FB07827A
:1080F0004FEAE0780EEB4E0EC8EB6A18ACEBCE0CF4
:10810000C8EB0818DFF8E4E086F804C0A0EB8800AC
:1081100070718EFB0303F817C0EBE21240F2B5500A
:1081200000FB1272C1EBE353B2F5896F4FEA83078C
:108130003CDA40F2DA239A4242DCB2F5B77FB4BFB0
:108140004FF0000E4FF0010E4FEA4E09DFF8A0800D
:1081500009EB0E0308EBC3031FFA8EFCD88A09EB68
:108160000E0108EBC10116310B2301E031F8020DBD
:10817000904218DD013BF9D1CE44012338F83E008E
:10818000B37007F5FA670132121ABC44F270A6F810
:1081900000C0204629464FF47A72002346F0DCFBEB
:1081A0003281BDE8F0870133DBB2E9E74FF0030C21
:1081B000E64640F29650DFF838804FF00609CEE7E9
:1081C0004FF0020CDFF82880E64640F229404FF0DD
:1081D0000409C4E780BC92C7C5B3A29107452EC26B
:1081E000ABAAAA2A73B06D1689888888792D0311E5
:1081F000880505080028F0B403DA2D230B704042EF
:108200000131092804464FF0010307DD03EB830326
:108210005B00B0FBF3F2092AF8D883B10F48A0FB4A
:108220000326B4FBF3F2092A02F1570C02F13007DE
:1082300009DD03FB1244F30801F801CBEFD1002361
:108240000B70F0BC704703FB1244F30801F8017B8C
:10825000E5D100230B70F0BC704700BFCDCCCCCC77
:10826000884270B44FF0010442D301FB04F4B0FB28
:10827000F4F58D42F9D2ECB142BB092D04FB150097
:1082800005F1570605F130020EDDB4FBF1F403F8F9
:10829000016B7CB1B0FBF4F5092D04FB150005F171
:1082A000570605F13002F0DCB4FBF1F403F8012BC2
:1082B000002CEFD100221A7070BC704703F8016BDC
:1082C000B4FBF1F4002CF5D0B0FBF4F5092D04FB60
:1082D000150005F1370605F13002EFDCB4FBF1F4CF
:1082E00003F8012B002CEFD100221A7070BC7047EC
:1082F0000546002AEAD1C0E790ED057A90ED004AE4
:10830000D0ED066AD0ED014AD0ED047A90ED035A23
:10831000D0ED025AA4EE007AB0EE406AB0EE470A01
:10832000B0EE667AA4EE867A67EEC07AA5EE407A61
:10833000E5EE867A80ED057AC0ED067A704700BFDB
:10834000D0ED057A90ED013AD0ED003AD0ED064A35
:1083500090ED024A90ED077A90ED035A90ED086A8D
:10836000D0ED045AC0ED067AF0EE406A27EE830A9B
:10837000C0ED056AA3EEA60A80ED087AA4EE240AF1
:10838000A5EE470AA5EEC60A80ED070A704700BFB2
:10839000D0ED007A90ED017A30EE670AE7EE007AD0
:1083A000B0EE670AC0ED007A704700BF704700BFAB
:1083B00030B41F220023342501240221C27003227D
:1083C000857104720370C3728373C3734170417209
:1083D0008270C271827230BC704700BF00230621D8
:1083E0004FF47A720170C0E901230373704700BF34
:1083F00030B43223012231254FF60174FF2143703E
:1084000000234571048281740272027002714381FB
:108410008381C38130BC70472DE9F04F3149324B25
:1084200083B001F1E00B019013274FF000092F48B2
:108430001022012603E0203098420BD002799742A7
:10844000F9D102680C68A24209D02030984206F1A6
:108450000106F3D1203159453AD00F79E7E7447945
:108460004D79A542F1D19446019A214809EB49057D
:1084700002EB050A57558AF8016000F572751D4E2A
:10848000624603E0A8421AD050F82C6FB242F9D1EC
:108490000679A642F6D1CF6806464FF0000C964604
:1084A0008046F268BA4216D00CF1010CBCF1030F01
:1084B00006F10C06F5D14046A8427246E4D14FF0D1
:1084C000FF3C203159458AF802C009F10109C4D1A5
:1084D00003B0BDE8F08F086932698242E4D14FFAF7
:1084E0008CFCEEE7544C0508C43E0508043505082D
:1084F000C43E05080000014030B41522162317259C
:108500003A243B21027043703C22FF238570847221
:10851000C1720273C3700371037243724373837336
:1085200030BC70470123142100224170C2700370D7
:1085300083707047034600F11001FF221A705A70D1
:1085400002338B42FAD10270427002714271827121
:10855000C2718272C27270474FF400630383704726
:108560004FF4006303837047012380F85030704755
:108570004FF4006303837047F0B4037C45690268DD
:108580001F2B37D9203B2021546899400C4223D01F
:1085900010249C40D160D4605168D940CE074ED49D
:1085A000EFF31183502282F31288EA6B1168C90736
:1085B00009D45468002C52D1D5E909618E4243D1C7
:1085C000012285F86020DBB283F31188037C026806
:1085D0001F2B194614D9203B0821506899400842A6
:1085E00000D0D1600421506801FA03F3184223D16E
:1085F000F0BC7047202416689C4026420FD11946D3
:10860000082310688B40184200D093600423106840
:1086100003FA01F10842EBD09160F0BC70471021E1
:108620009940946091601168D940CC07B8D5012178
:1086300001FA03F39360B3E7D360F0BC7047012104
:1086400001FA03F3D360ABE7AF690F44D7600ED8EC
:108650002E69711A5160AC62002185F860101168B2
:1086600041F00101DBB2116083F31188AEE7711AAA
:108670005160AE62F0E710B5027C01681F2A4FF02E
:1086800020030ED94C68203A93401C4208D00C4A73
:10869000406800241470026822F001020260CB607E
:1086A00010BD0C6893401C42FAD0054A4068002473
:1086B0001470026822F0010202608B60F0E700BFD4
:1086C0000F5D002023F074B838B51D4B1B780446AD
:1086D00000F1250593B104221A49203047F03EFFEE
:1086E00028461422184947F039FF012384F83A300C
:1086F000164B1B7873B984F83B3038BD28461422DA
:10870000134947F02BFF012384F83A300F4B1B78B5
:10871000002BF0D00F4B186859689A68DD68E56047
:1087200020606160A260DD69186959699A69A26177
:108730000123E5612061616184F83B3038BD00BFF1
:108740004D5400201C540020045400204E5400209E
:108750000C6D050824540020014B18681EF0EEBB78
:10876000D837002038B52E22002147F0B9FE034645
:10877000642440F2DC5040F21A4140F26C7240F244
:1087800002251C745882132419209982DA8240F23F
:10879000753140F643021D839C760E250A24187716
:1087A000D9831E2002211A84012283F82C00197219
:1087B00083F82A1083F8225083F82B409A7383F8A9
:1087C000252083F8292019460248BDE8384019F0D1
:1087D000E9BF00BF1C6D050810B50021044601204B
:1087E0001DF012FA207010BD38B500240472451E29
:1087F000E1B202201DF008FA0134082C05F8010F3F
:10880000F6D138BD38B500240546048021462846F7
:10881000013433F043FF082CF8D1002185F8E21031
:10882000A5F8E410A5F8E610A5F8E810A5F8EA10F8
:10883000A5F8EC10A5F8EE10A5F8F010A5F8F210C8
:108840002846BDE8384033F0EBBE00BF38B50546DA
:1088500040683B4A038823F040031B041B0C038041
:10886000038823F038031B0490424FEA134305D0DA
:1088700002F58062904201D043F008030380038830
:10888000AA6843F04003038012B1136892885A83A8
:10889000838940F2E93301E0002B43D00289013B98
:1088A00012F0020F9BB2F7D0F523838140F2E93337
:1088B00001E0002B36D00289013B12F0010F9BB280
:1088C000F7D08389838940F2E93300E00BB3028952
:1088D000013B12F0020F9BB2F8D0FF23838140F2DC
:1088E000E93300E0ABB10289013B12F0010F9BB20A
:1088F000F8D08489E4B2AB6813B11A689B881383FB
:10890000712C19D008D9AC2C14D0AF2C0ED1092061
:1089100038BD22F0DBFEEEE7122C0FD0702C07D111
:10892000052038BD22F0D2FE6868CBE7732C03D057
:10893000002038BD072038BD062038BD082038BDCE
:10894000003800402DE9F04F87B0A94A02904068F6
:10895000038823F040031B041B0C0380038823F0CF
:1089600038031B0490424FEA134300F03F8102F5A5
:10897000806290420CBF3022382213430380029B56
:1089800002889B6842F04002028013B11A689B88FB
:108990005383838940F2E93302E0002B00F0908199
:1089A0000289013B12F0020F9BB2F6D06B23838148
:1089B00040F2E93302E0002B00F082810289013BA2
:1089C00012F0010F9BB2F6D08389838940F2E9331C
:1089D00002E0002B00F071810289013B12F0020FCE
:1089E0009BB2F6D08023838140F2E93302E0002B72
:1089F00000F063810289013B12F0010F9BB2F6D0B7
:108A00008389029B9B6813B11A689B881383062392
:108A1000784CDFF8EC81DFF8ECA1774D774E0493CA
:108A20009623DFF8E4C101934FF0100EDAF804301A
:108A3000C3F30803002B40F0B280EFF31183002B47
:108A400040F0AD802068AA6823689842FAD1336864
:108A50009A42F7D8D8F800704FF47A7101FB07F307
:108A60009B1AB3FBF7F301FB00304FF47A774FF01A
:108A70000109DAF80430C3F30803002B70D1EFF3D7
:108A80001183002B6CD12368A96822689342FAD124
:108A900032689142F7D8D8F8002007FB02FBABEB15
:108AA0000101B1FBF2F107FB03131B1AB3F57A7F47
:108AB000DFD3019B013B0193B8D1029B9B6813B1AB
:108AC0001A689B885383029B586840F2E933828975
:108AD00002E0002B00F085800289013B12F0020FBA
:108AE0009BB2F6D0F523838140F2E93301E0002BFD
:108AF00077D00289013B12F0010F9BB2F7D0838936
:108B0000838940F2E93301E0002B67D00289013B01
:108B100012F0020F9BB2F7D0FF23838140F2E933BA
:108B200001E0002B5AD00289013B12F0010F9BB2E9
:108B3000F7D08389DBB20393029B9A6812B1136862
:108B400091881983039B682B60D0049B013B13F031
:108B5000FF0304937FF464AF184607B0BDE8F08FBD
:108B6000EFF311818EF31288D5F808B02B68DB0380
:108B700044BFCCF80090D5F808B02368DCF800209A
:108B8000C9B281F31188D8F80010134407FB01F231
:108B9000A2EB0B02B2FBF1F207FB032385E7EFF335
:108BA00011838EF31288AF682A68D20303D501229D
:108BB000CCF80020AF682068DCF80090DBB283F3CB
:108BC0001188D8F800104FF47A72484402FB01F380
:108BD000DB1BB3FBF1F302FB003046E722F076FD2E
:108BE000AAE722F073FD029B586889E73022C4E6A9
:108BF000003800409C7A002010E000E0A47A0020B9
:108C0000A07A002000ED00E0987A002012B11368ED
:108C100092885A83029B586840F2E933828901E0C6
:108C2000002B45D00289013B12F0020F9BB2F7D016
:108C30008C23838140F2E93301E0002B38D0028994
:108C4000013B12F0010F9BB2F7D08389838940F278
:108C5000E9330289013B12F0020F9BB215D1002BC0
:108C6000F7D122F033FD029B9B6813B11A689B88F1
:108C70001383059B142B04D3182B17D9543B062BB5
:108C800014D9002007B0BDE8F08FFF23838140F2A4
:108C9000E93301E0002BE4D00289013B12F0010F1F
:108CA0009BB2F7D08389DBB20593DCE7032054E75E
:108CB00022F00CFD029B5868C8E722F007FDA0E6F1
:108CC00022F004FD029B58687FE600BFF0B587697B
:108CD00083B0064617B13B68BA885A837069DFF8DB
:108CE000A8E08389C3244FF47A734FF0060C6D46D5
:108CF0004FF6FF710EF1010E03E0013B9BB28B4278
:108D000020D002899207F8D5A3B283814FF47A73F9
:108D100002E0A3B28B4215D00289D20703F1FF34DF
:108D2000F7D5828992B20DB12A700135BCF1000FDE
:108D30000BD00CF1FF3CFF24BEF1000FE1D09EF8F8
:108D40000040D7E722F0C2FCB76917B13B68BA8888
:108D50001A839DF805009DF801509DF802109DF8BA
:108D600003409DF804209DF8063041EA052143EABE
:108D7000002342EA04220120A6F85010A6F852204F
:108D8000A6F8543003B0F0BDE8050508037C022BBB
:108D900001D000207047F0B5836983B013B11A6821
:108DA0009B8853830446406940F2E933828901E09D
:108DB000002B60D00289013B12F0020F9BB2F7D06A
:108DC000C323838140F2E93301E0002B53D00289B1
:108DD000013B12F0010F9BB2F7D08389838903898D
:108DE00099074FF005076E464FF47A724FF0FF0C6B
:108DF0004FF6FF7506D4531E9BB2D2B11A460389B3
:108E00009907F8D5A0F80CC04FF47A7302E08BB242
:108E1000AB420ED00289D20703F1FF31F7D5828928
:108E200092B20EB1327001367A1E27B117461A4639
:108E3000E5E722F04BFCA36913B11A689B88138302
:108E40009DF804009DF800609DF801109DF8025007
:108E50009DF803209DF8053041EA062143EA0023EE
:108E600042EA05220120A4F85010A4F85220A4F8E8
:108E7000543003B0F0BD22F029FC6069AEE700BFBA
:108E8000037B022B01D000207047F0B5436983B00B
:108E900013B11A689B8853830446006940F2E93392
:108EA000828901E0002B5DD00289013B12F0020FA4
:108EB0009BB2F7D0BB23838140F2E93301E0002B62
:108EC00050D00289013B12F0010F9BB2F7D0838989
:108ED0008389038999074FF005076E464FF47A722C
:108EE0004FF0FF0C4FF6FF7506D4531E9BB2D2B164
:108EF0001A4603899907F8D5A0F80CC04FF47A7385
:108F000002E08BB2AB420ED00289D20703F1FF31EF
:108F1000F7D5828992B20EB1327001367A1E27B12E
:108F200017461A46E5E722F0D1FB636913B11A68C8
:108F30009B8813839DF804009DF800609DF8011044
:108F40009DF802509DF803209DF8053041EA062166
:108F500043EA002342EA052201206183A283E383DE
:108F600003B0F0BD22F0B2FB2069B1E72DE9F04F6C
:108F700087B0029090F86100002840F05586029B6F
:108F800093F85830072B00F046861823CDE90433B8
:108F9000029A137C1032022B039204D110466B21EB
:108FA000802222F0AFFB6423C14CC24EDFF810E3F5
:108FB000C148DFF81083C14F01934FF01009DEF86C
:108FC0000430C3F30803002B40F0D484EFF3118383
:108FD000002B40F0CF842568826823689D42FAD137
:108FE0003B689A42F7D8D6F800C04FF47A7101FB7B
:108FF0000CF39B1AB3FBFCF301FB05354FF47A7CB1
:109000004FF0010ADEF80430C3F30803002B40F0F0
:109010008C84EFF31183002B40F0878423688168F0
:1090200022689342FAD13A689142F7D832680CFB31
:1090300002FBABEB0101B1FBF2F10CFB03135B1B79
:10904000B3F57A7FDED3019B013B0193B7D1029B3D
:109050001B7C022B04D107226821039822F052FBCB
:109060006423DFF85CE29448DFF85882934F019361
:109070004FF01009DEF80430C3F30803002B40F072
:10908000BD84EFF31183002B40F0B884256882681B
:1090900023689D42FAD13B689A42F7D8D6F800C0BF
:1090A0004FF47A7101FB0CF39B1AB3FBFCF301FB49
:1090B00005354FF47A7C4FF0010ADEF80430C3F333
:1090C0000803002B40F01284EFF31183002B40F0D3
:1090D0000D842368816822689342FAD13A689142EC
:1090E000F7D832680CFB02FBABEB0101B1FBF2F1EC
:1090F0000CFB03135B1BB3F57A7FDED3019B013BB3
:109100000193B7D1029B1B7C022B04D1019A0398D7
:109110006B2122F0F7FA6423DFF8A4E16648DFF858
:10912000A481664F01934FF01009DEF80430C3F3B9
:109130000803002B40F04084EFF31183002B40F034
:109140003B842568826823689D42FAD13B689A4235
:10915000F7D8D6F800C04FF47A7101FB0CF39B1AD4
:10916000B3FBFCF301FB05354FF47A7C4FF0010AA9
:10917000DEF80430C3F30803002B40F09983EFF3CB
:109180001183002B40F09483236881682268934206
:10919000FAD13A689142F7D832680CFB02FBABEB8C
:1091A0000101B1FBF2F10CFB03135B1BB3F57A7FFA
:1091B000DED3019B013B0193B7D1029B1B7C022BA9
:1091C00004D101226B21039822F09CFA0F23DFF8CF
:1091D000F0E03948DFF8EC80384F01934FF0100988
:1091E000DEF80430C3F30803002B40F0F084EFF303
:1091F0001183002B40F0EB842568826823689D4230
:10920000FAD13B689A42F7D8D6F800C04FF47A7189
:1092100001FB0CF39B1AB3FBFCF301FB05354FF488
:109220007A7C4FF0010ADEF80430C3F30803002B08
:1092300040F02083EFF31183002B40F01B83236861
:10924000816822689342FAD13A689142F7D832682D
:109250000CFB02FBABEB0101B1FBF2F10CFB0313C6
:109260005B1BB3F57A7FDED3019B013B0193B7D142
:10927000029B1B7C022B04D1059A03981B2122F030
:1092800041FA0F23DFF838E00B48DFF838800B4F46
:1092900001934FF01009DEF80430C3F30803002BEC
:1092A00040F07384EFF31183002B40F06E840BE0E9
:1092B0009C7A0020A07A002010E000E0A47A002030
:1092C00000ED00E0987A00202568826823689D42BE
:1092D000FAD13B689A42F7D8D6F800C04FF47A71B9
:1092E00001FB0CF39B1AB3FBFCF301FB05354FF4B8
:1092F0007A7C4FF0010ADEF80430C3F30803002B38
:1093000040F09A82EFF31183002B40F0958223689E
:10931000816822689342FAD13A689142F7D832685C
:109320000CFB02FBABEB0101B1FBF2F10CFB0313F5
:109330005B1BB3F57A7FDED3019B013B0193AAD17E
:10934000029B1B7C022B04D1049A03981C2122F05F
:10935000D9F90F23DFF810E3C148DFF81083C14FBC
:1093600001934FF01009DEF80430C3F30803002B1B
:1093700040F0EA83EFF31183002B40F0E58325688A
:10938000826823689D42FAD13B689A42F7D8D6F8A2
:1093900000C04FF47A7101FB0CF39B1AB3FBFCF392
:1093A00001FB05354FF47A7C4FF0010ADEF80430FA
:1093B000C3F30803002B40F02182EFF31183002B4D
:1093C00040F01C822368816822689342FAD13A688F
:1093D0009142F7D832680CFB02FBABEB0101B1FB09
:1093E000F2F10CFB03135B1BB3F57A7FDED3019B19
:1093F000013B0193B7D1029A92F85B30032B00F244
:10940000088492F85E20012A0BD0022A40F00184E1
:10941000029B93F8633003F0FB03022B0CBF002286
:109420000722029B1B7C022B03D11A21039822F0F6
:1094300069F90F23DFF830E28948DFF83082894F7D
:1094400001934FF01009DEF80430C3F30803002B3A
:1094500040F03883EFF31183002B40F0338325680D
:10946000826823689D42FAD13B689A42F7D8D6F8C1
:1094700000C04FF47A7101FB0CF39B1AB3FBFCF3B1
:1094800001FB05354FF47A7C4FF0010ADEF8043019
:10949000C3F30803002B40F09381EFF31183002BFB
:1094A00040F08E812368816822689342FAD13A683D
:1094B0009142F7D832680CFB02FBABEB0101B1FB28
:1094C000F2F10CFB03135B1BB3F57A7FDED3019B38
:1094D000013B0193B7D1029B1B7C022B06D1029B5F
:1094E000039893F86020192122F00CF96423DFF827
:1094F00078E15B48DFF874815A4F01934FF010090F
:10950000DEF80430C3F30803002B40F0FC82EFF3D5
:109510001183002B40F0F7822568826823689D4202
:10952000FAD13B689A42F7D8D6F800C04FF47A7166
:1095300001FB0CF39B1AB3FBFCF301FB05354FF465
:109540007A7C4FF0010ADEF80430C3F30803002BE5
:1095500040F01881EFF31183002B40F01381236852
:10956000816822689342FAD13A689142F7D832680A
:109570000CFB02FBABEB0101B1FBF2F10CFB0313A3
:109580005B1BB3F57A7FDED3019B013B0193B7D11F
:10959000029B1B7C022B04D110223721039822F05E
:1095A000B1F80F23DFF8C0E02D48DFF8C0802D4F61
:1095B00001934FF01009DEF80430C3F30803002BC9
:1095C00040F05F82EFF31183002B40F05A82256850
:1095D000826823689D42FAD13B689A42F7D8D6F850
:1095E00000C04FF47A7101FB0CF39B1AB3FBFCF340
:1095F00001FB05354FF47A7C4FF0010ADEF80430A8
:10960000C3F30803002B40F09F80EFF31183002B7E
:1096100040F09A802368816822689342FAD13A68C0
:109620009142F7D832680CFB02FBABEB0101B1FBB6
:10963000F2F10CFB03135B1BB3F57A7FDED3019BC6
:10964000013B0193B7D1029B1B7C022B04D10398F1
:109650000122382122F056F80F23DFF80CE007E052
:1096600010E000E0A47A002000ED00E0987A0020ED
:10967000BD48DFF8FC82BD4F01934FF01009DEF8C2
:109680000430C3F30803002B40F0DA81EFF31183B9
:10969000002B40F0D5812568826823689D42FAD16D
:1096A0003B689A42F7D8D6F800C04FF47A7101FBB4
:1096B0000CF39B1AB3FBFCF301FB05354FF47A7CEA
:1096C0004FF0010ADEF80430C3F30803F3B9EFF3F7
:1096D0001183DBB92368816822689342FAD13A6822
:1096E0009142F7D832680CFB02FBABEB0101B1FBF6
:1096F000F2F10CFB03135B1BB3F57A7FE2D3019B02
:10970000013B0193BBD107B0BDE8F08FEFF31181AE
:1097100089F31288D0F808B00368DB0344BFC8F8A7
:1097200000A0D0F808B02368D8F80020C9B281F3AF
:109730001188316813440CFB01F2A2EB0B02B2FB5F
:10974000F1F20CFB0323D6E7EFF3118189F31288C2
:10975000D0F808B00368DB0344BFC8F800A0D0F815
:1097600008B02368D8F80020C9B281F311883168A5
:1097700013440CFB01F2A2EB0B02B2FBF1F20CFB67
:10978000032358E7EFF3118189F31288D0F808B06A
:109790000368DB0344BFC8F800A0D0F808B0236812
:1097A000D8F80020C9B281F31188316813440CFB4A
:1097B00001F2A2EB0B02B2FBF1F20CFB0323DFE69A
:1097C000EFF3118189F31288D0F808B00368DB0346
:1097D00044BFC8F800A0D0F808B02368D8F800202B
:1097E000C9B281F31188316813440CFB01F2A2EB7A
:1097F0000B02B2FBF1F20CFB032364E6EFF31181E1
:1098000089F31288D0F808B00368DB0344BFC8F8B6
:1098100000A0D0F808B02368D8F80020C9B281F3BE
:109820001188316813440CFB01F2A2EB0B02B2FB6E
:10983000F1F20CFB0323D6E5EFF3118189F31288D3
:10984000D0F808B00368DB0344BFC8F800A0D0F824
:1098500008B02368D8F80020C9B281F311883168B4
:1098600013440CFB01F2A2EB0B02B2FBF1F20CFB76
:1098700003235DE5EFF3118189F31288D0F808B076
:109880000368DB0344BFC8F800A0D0F808B0236821
:10989000D8F80020C9B281F31188316813440CFB59
:1098A00001F2A2EB0B02B2FBF1F20CFB0323D7E4B3
:1098B000EFF3118189F31288D0F808B00368DB0355
:1098C00044BFC8F800A0D0F808B02368D8F800203A
:1098D000C9B281F31188316813440CFB01F2A2EB89
:1098E0000B02B2FBF1F20CFB03235EE4EFF31181F8
:1098F00089F31288D0F808B00368DB0344BFC8F8C6
:1099000000A0D0F808B02368D8F80020C9B281F3CD
:109910001188316813440CFB01F2A2EB0B02B2FB7D
:10992000F1F20CFB0323FFF7E5BBEFF3118189F3A1
:109930001288D0F808B00368DB0344BFC8F800A061
:10994000D0F808B02368D8F80020C9B281F3118894
:10995000316813440CFB01F2A2EB0B02B2FBF1F2F3
:109960000CFB0323FFF76BBB10E000E0A47A0020A0
:10997000987A0020EFF3118389F31288D0F808C099
:109980000268D20304D50122C8F80020D0F808C02C
:109990002568D8F800A0DBB283F3118831684FF452
:1099A0007A72554402FB01F3A3EB0C03B3FBF1F312
:1099B00002FB0535FFF722BBEFF3118389F3128811
:1099C000D0F808C00268D20304D50122C8F80020EC
:1099D000D0F808C02568D8F800A0DBB283F311885E
:1099E00031684FF47A72554402FB01F3A3EB0C0388
:1099F000B3FBF1F302FB0535FFF7B6BBEFF31183C1
:109A000089F31288D0F808C00268D20304D5012275
:109A1000C8F80020D0F808C02568D8F800A0DBB24C
:109A200083F3118831684FF47A72554402FB01F3D5
:109A3000A3EB0C03B3FBF1F302FB0535FFF739BBD6
:109A4000EFF3118389F31288D0F808C00268D203BB
:109A500004D50122C8F80020D0F808C02568D8F83D
:109A600000A0DBB283F3118831684FF47A72554459
:109A700002FB01F3A3EB0C03B3FBF1F302FB05358F
:109A80001CE6EFF3118389F31288D0F808C002684E
:109A9000D20304D50122C8F80020D0F808C02568F8
:109AA000D8F800A0DBB283F3118831684FF47A72E2
:109AB000554402FB01F3A3EB0C03B3FBF1F302FBF0
:109AC000053597E5EFF3118389F31288D0F808C0C4
:109AD0000268D20304D50122C8F80020D0F808C0DB
:109AE0002568D8F800A0DBB283F3118831684FF401
:109AF0007A72554402FB01F3A3EB0C03B3FBF1F3C1
:109B000002FB0535BEE4EFF3118389F31288D0F828
:109B100008C00268D20304D50122C8F80020D0F89A
:109B200008C02568D8F800A0DBB283F3118831683B
:109B30004FF47A72554402FB01F3A3EB0C03B3FB21
:109B4000F1F302FB0535FAE4EFF3118389F3128890
:109B5000D0F808C00268D20304D50122C8F800205A
:109B6000D0F808C02568D8F800A0DBB283F31188CC
:109B700031684FF47A72554402FB01F3A3EB0C03F6
:109B8000B3FBF1F302FB05350CE4EFF3118389F32A
:109B90001288D0F808C00268D20304D50122C8F8A0
:109BA0000020D0F808C02568D8F800A0DBB283F305
:109BB000118831684FF47A72554402FB01F3A3EB2C
:109BC0000C03B3FBF1F302FB0535FFF790BBEFF39A
:109BD000118389F31288D0F808C00268D20304D533
:109BE0000122C8F80020D0F808C02568D8F800A0E5
:109BF000DBB283F3118831684FF47A72554402FB6B
:109C000001F3A3EB0C03B3FBF1F302FB0535FFF704
:109C100006BB019A05E4029B93F85D303BBB102321
:109C2000CDE90433FFF7B4B920F0ACF9044620B312
:109C300002688388126913407FF4A1A90299C37155
:109C40002022124B827141F80C3F33F08BF8A3882D
:109C5000B3FA83F3C3F11F03012212FA03F33FF4B3
:109C60008EA90B490A6813430B60FFF788B91021CE
:109C70001823CDE90413FFF78BB90299034B41F880
:109C80000C3F33F06FF8FFF77AB900BF6985000821
:109C9000003C014042697B49138823F040032DE9D1
:109CA000F04F1B041B0C1380138883B023F0380380
:109CB0001B048A4201904FEA134300F0D88001F55B
:109CC00080618A420CBF282130210B431380138806
:109CD00043F0400313801CF04FFF04461CF04CFF80
:109CE0008442FBD0019C2046FFF740F9A36913B1E1
:109CF0001A689B885383019B586940F2E933828933
:109D000002E0002B00F0B8800289013B12F0020F44
:109D10009BB2F6D06A23838140F2E93302E0002B44
:109D200000F0AA800289013B12F0010F9BB2F6D02D
:109D30008389838940F2E93302E0002B00F09980A7
:109D40000289013B12F0020F9BB2F6D010238381EF
:109D500040F2E93302E0002B00F08B800289013BE6
:109D600012F0010F9BB2F6D08389019B9B6913B15E
:109D70001A689B8813836423434CDFF81891DFF83B
:109D80001881424DDFF814A1414E00931CF0F4FEFF
:109D90004FF47A774FF0100C4FF0010ED8F80430E2
:109DA000C3F30803002B43D1EFF31183002B3FD102
:109DB0002368A96822689342FAD132689142F7D8A1
:109DC000D9F8002007FB02FBABEB0101B1FBF2F17C
:109DD00007FB03131B1AB3F57A7FDFD3009B013B0C
:109DE0000093D3D1019B27495A69138823F040037C
:109DF0001B041B0C1380138823F038031B048A42B6
:109E00004FEA134305D001F580618A4201D043F047
:109E100008031380138843F0400313801CF0ACFE4A
:109E200004461CF0A9FE8442FBD003B0BDE8F08FCD
:109E3000EFF311818CF31288D5F808B02B68DB039F
:109E400044BFCAF800E0D5F808B02368DAF800206B
:109E5000C9B281F31188D9F80010134407FB01F24D
:109E6000A2EB0B02B2FBF1F207FB0323B2E72821BE
:109E70002BE721F02BFC78E721F028FC019B5869A7
:109E800057E700BF003800409C7A002010E000E057
:109E9000A47A0020A07A002000ED00E0987A00204B
:109EA00008B5012024F032FF174A936803F00C0331
:109EB000042B1ED0082B18D151685368490203F0B7
:109EC0003F0319D452681148B0FBF3F0C2F3881372
:109ED00000FB03F00C4B0E4A5B68C3F301430133F4
:109EE0005B00B0FBF3F0106008BD094B074A1A6035
:109EF00008BD074B186008BDB0FBF3F05368C3F30F
:109F0000881300FB03F0E5E7003802400024F4006A
:109F10002C7000202DE9F84F037C02681F2B86BFB0
:109F2000203B51681168202202FA03F30B4214BF50
:109F3000012300230BB9BDE8F88F4569604F044643
:109F40001CF01AFE4FF4B27303FB057306461A7C2D
:109F5000002A35D15B495A680978D2F80090D1B906
:109F6000D3F8D81058890A6822F001020A60B9F8BB
:109F70000C3023EA0003A9F80C30534B1B78002B5C
:109F800032D1237C21681F2B13D8202202FA03F33D
:109F90008B60BDE8F88F5269136823F001031360EA
:109FA000B9F80C3023F480731B041B0CA9F80C3097
:109FB000E3E7203B202202FA03F3CB60BDE8F88FF1
:109FC000D3F8D86041485F8901225A7431685A68D1
:109FD0000368156821F001013160AA89013322EA82
:109FE0000702AA810360CCE74FF4B27A0AFB05FAB4
:109FF00007EB0A05D5F8D880404624F01FFE012360
:10A000002B74D5F8DCB01CF0B7FD0AF18C01394493
:10A01000CBF82C01484624F0D1FED5E92B70D5F8B9
:10A020009830D5E92D123B4303430B431343D5F836
:10A03000BC20D5F8CC70D8F8000025491343D5F8DA
:10A04000C0201343D5F8D0203B43014013430B43BA
:10A050000022C5F8A420C8F80030D8F81420D5F89C
:10A06000C430D5F8A81022F0070CD5F8C820D5E9DF
:10A070002770134343EA0C03C8F81430C8F80410DF
:10A08000C8F80870C8F80C00D8F80020D5F8D83007
:10A0900095F8D400696842F01002C8F800205860B2
:10A0A0001A68096842F001021A608B896A891343B1
:10A0B0008B811CF061FD074B801B186061E700BFBE
:10A0C000FC8600202818001024180010581D0020BD
:10A0D0003F801CF04C16001038B5894A894B127825
:10A0E0001B789A4240F00581874B1A78002A68D085
:10A0F000864B1978864B002964D11868B3F8305123
:10A1000041628489012A44EA05048481A3F830115C
:10A1100057D0D3F83401B3F8645241628489022ADB
:10A1200044EA05048481A3F864124AD0D3F8680293
:10A13000B3F8985341628489032A44EA0504848170
:10A14000A3F898133DD0D3F89C03B3F8CC544162E4
:10A150008489042A44EA05048481A3F8CC1430D00D
:10A16000D3F8D004B3F8005641628489052A44EA42
:10A1700005048481A3F8001623D0D3F80406B3F8AD
:10A18000345741628489062A44EA05048481A3F88D
:10A19000341716D0D3F83807B3F868584162848969
:10A1A000072A44EA05048481A3F8681809D0D3F883
:10A1B0006C28B3F89C495162908920439081A3F8A0
:10A1C0009C1938BD5C68198961602568186845F07C
:10A1D000010540F20D312560A0F848108489012A5C
:10A1E00044F480748481ECD0D3F83841B3F83C5106
:10A1F000D3F834016560256845F001052560A0F8B5
:10A2000048108489022A44F480748481D9D0D3F818
:10A210006C42B3F87052D3F868026560256845F067
:10A2200001052560A0F848108489032A44F480744D
:10A230008481C6D0D3F8A043B3F8A453D3F89C03C9
:10A240006560256845F001052560A0F848108489FF
:10A25000042A44F480748481B3D0D3F8D444B3F88E
:10A26000D854D3F8D0046560256845F00105256011
:10A27000A0F848108489052A44F480748481A0D011
:10A28000D3F80846B3F80C56D3F804066560256881
:10A2900045F001052560A0F848108489062A44F499
:10A2A000807484818DD0D3F83C47B3F84057D3F8FD
:10A2B00038076560256845F001052560A0F848105D
:10A2C0008489072A44F4807484813FF47AAFD3F8F8
:10A2D0007028B3F87408D3F86C385060106840F0F8
:10A2E00001001060A3F848109A8942F480729A81A4
:10A2F00038BD0AF0FFF900287FF4F6AE38BD00BF84
:10A30000F41C0020F51C00202C1800102818001048
:10A310001C920020037903F01803082B0AD002D8FE
:10A320002BB100207047102B16D0182BF9D1B0F8A4
:10A330000B007047114BB0F80B0093F90030591C1B
:10A3400006BF0F4B1B78DBB2C3EBC30203EB8203E8
:10A3500000EB830080B270470A4BB0F80B0093F912
:10A3600000305A1C06BF064B5B78DBB203EB43029E
:10A3700003EB820300EB430080B27047700A0020B9
:10A3800058840020710A0020F0B5067906F0E00339
:10A39000402B09D144794FF0FF350023012006F00E
:10A3A0000706A3420BD1F0BD602B08BF45794FF0E3
:10A3B00001040CBF04FA05F54FF0FF35EDE7042E5C
:10A3C0000CD8DFE806F0030D18242E0030B1C85C6D
:10A3D000D75C784028420CBF012000200133E0E721
:10A3E0000028FBD0C856D756A0EB070CDCF10000C4
:10A3F00040EB0C00F2E70028F0D031F8130032F8FF
:10A400001370784028420CBF01200020E6E70028A6
:10A41000E4D031F9130032F91370C71B7842784148
:10A42000DCE70028DAD051F8230052F82370784096
:10A4300028420CBF01200020D0E7024B01461868DB
:10A4400021F0B6B9CC36002038B5064D441E14F8BC
:10A45000011F286819B9BDE8384021F09BB921F0E7
:10A46000A7F9F4E7CC3600200048EDE7ACAB0508CF
:10A4700008B5FFF7E9FFBDE80840F5E710B5044669
:10A480000348FFF7E1FF2046BDE81040F0E700BFBA
:10A49000D36C050838B5074C074DAC4203D3074BC6
:10A4A00000221A7038BD6288D4E9010144F0F2FC40
:10A4B0001434F2E7900100083007000863A600207A
:10A4C00038B5074C074DAC4203D3074B01221A7035
:10A4D00038BD6288D4E9011044F0DCFC1434F2E7A2
:10A4E000900100083007000863A60020024A1368A4
:10A4F00023EA000010607047149C0020DFED2E7AE4
:10A50000B4EEE70AF1EE10FA4ADDDFED2C6A9FEDBA
:10A510002C7A01E0B0EE670AB4EEC70AF1EE10FA49
:10A5200070EE667AF6DC9FED277AF4EEC77AF1EEEC
:10A5300010FA3ED5DFED216A9FED237A01E0F0EEBF
:10A54000407AF4EEC77AF1EE10FA37EEA60AF6D4A6
:10A55000DFED1E7AB4EEE70AF1EE10FA14DDDFED5E
:10A56000167A37EEC00A60EE006A9FED196A9FED19
:10A57000197ADFED197AA6EE867A20EE266AE6EEE3
:10A58000877AA6EE270A7047DFED147AB4EEE70A61
:10A59000F1EE10FA44BFDFED0B7A37EEC00AE2E7C6
:10A5A0009FED087AF0EE407AF4EEC77AF1EE10FAF9
:10A5B000C0D4B0EE670ACBE7DB0F4940DB0FC940E0
:10A5C000E4CB1641DB0F49C0E4CB16C1DB0FC93F1A
:10A5D00092E741B99730083C15A82ABEDB0FC9BFE6
:10A5E000F0EEC07AB0EEE07AB4EEE77AF1EE10FA6F
:10A5F000B4BFB0EE676AB0EE476AB5EE406AF1EEFE
:10A6000010FA46D0B4EEE77AF1EE10FA8CBFF0EE15
:10A61000675AF0EE475AC5EE866A9FED1F3A9FEDE6
:10A620001F6A9FED1F4A9FED1F5ADFED1F3ADFEDB6
:10A630001F4ADFED1F5AA6EEC36AE6EEA34AA6EE56
:10A64000864AB7EE006AA6EE845AA6EEA46AE6EE43
:10A65000855AC5EE866AB4EEE77AF1EE10FA48BF85
:10A66000DFED147AF5EEC00A48BF77EEE66AF1EE48
:10A6700010FA48BFDFED107AB5EEC00A48BF77EE9A
:10A68000E66AF1EE10FA48BFF1EE666AB0EE660ACD
:10A690007047DFED076ADEE739094E3DE3B59E3EC0
:10A6A00088FA163E45FE7F3F99FB243F69A2163E7D
:10A6B000A7DFA834DB0FC93FDB0F4940DFED317A5C
:10A6C00030EE277AFDEEC76A16EE903A2033402B23
:10A6D00002D99FED2D0A7047B4EEE70AF1EE10FAA9
:10A6E0004DDD9FED2A6ADFED2A6A01E0B0EE677A60
:10A6F000B4EEE67AF1EE10FA77EE467AF6DC9FEDEC
:10A70000257AF4EEC77AF1EE10FA35D5DFED1F6A3F
:10A710009FED217A01E0F0EE407AF4EEC77AF1EE97
:10A7200010FA37EEA60AF6D4DFED167AB4EEE70A91
:10A73000F1EE10FA1BDCDFED197AB4EEE70AF1EE68
:10A7400010FA44BFDFED137A37EEC00A60EE006AFC
:10A750009FED136A9FED137ADFED137AA6EE867AEA
:10A7600020EE266AE6EE877AA6EE270A7047DFED2E
:10A770000F7A37EEC00AE9E7B0EE670AD4E7F0EEE9
:10A78000477ABCE7DB0FC93F00000000DB0FC94080
:10A79000E4CB1641DB0F49C0E4CB16C1DB0FC9BFC8
:10A7A00092E741B99730083C15A82ABEDB0F494013
:10A7B000FDEEC07A17EE903A2033402B45D8DFEDFE
:10A7C0002D7AB4EEE70AF1EE10FA4DDDDFED2A6ADC
:10A7D0009FED2A7A01E0B0EE670AB4EEC70AF1EE07
:10A7E00010FA70EE667AF6DC9FED257AF4EEC77A01
:10A7F000F1EE10FA3BD5DFED206A9FED227A01E001
:10A80000F0EE407AF4EEC77AF1EE10FA37EEA60ACF
:10A81000F6D4DFED1D7AB4EEE70AF1EE10FA17DD9B
:10A82000DFED147A37EEC00A60EE006A9FED176A1A
:10A830009FED177ADFED177AA6EE867A20EE266A6C
:10A84000E6EE877AA6EE270A70479FED130A704757
:10A85000DFED127AB4EEE70AF1EE10FA44BFDFED55
:10A86000087A37EEC00ADFE7F0EE407ABCE7B0EED8
:10A87000670ACEE7DB0F4940DB0FC940E4CB164146
:10A88000DB0F49C0E4CB16C1DB0FC93F92E741B9EA
:10A890009730083C15A82ABE00000000DB0FC9BF96
:10A8A00010B44C09012250F8243001F01F0102FAC3
:10A8B00001F123EA010340F824305DF8044B7047AE
:10A8C00010B44C09012250F8243001F01F0102FAA3
:10A8D00001F10B4340F824305DF8044B704700BF92
:10A8E0004B0901F01F0150F82320012303FA01F165
:10A8F000114214BF18460020704700BF2DE9F043F5
:10A90000002489B006460D461F46A04605E02529CD
:10A910000CD030460134A847039A531C0393117896
:10A920000029F4D1204609B0BDE8F083931CCDE99D
:10A9300003385078302842D0A0F13003DBB2092B25
:10A940004FF0000945D96C282AD0642873D019D952
:10A95000732858D063D9752840F0828007F1040C21
:10A96000386805AB00220A216746FDF779FC05AB84
:10A97000049A009329464B463046FDF747FB039A5D
:10A980000444CAE725283CD051D958286BD0632805
:10A99000C2D139783046A84704370134039ABCE75E
:10A9A000039B5A1C03921B78642B52D016D8252B7C
:10A9B00027D064D9582B18D0632BEAD0ADE7D31C2D
:10A9C00003939078A0F13003DBB2092B4FF001091B
:10A9D000B9D804AA03A933F0B9FFB4E7732B12D096
:10A9E00051D9752B2DD0782B97D1A3F15802B2FAFB
:10A9F00082F23868520905AB10210437FDF730FCAC
:10AA0000B5E7252185E73B68049A00932946002392
:10AA10003046FDF7FBFA04370444039A7DE76E28BD
:10AA20007FF47AAF039A3B6804371C6075E700280F
:10AA30003FF478AF70E7386805A9FDF7DBFB043712
:10AA400095E7386805AB00220A21FDF709FC0437B9
:10AA50008DE73B1D386805A91F46FDF7CBFB86E750
:10AA600078287FF459AFA0F15802B2FA82F2386820
:10AA7000520905AB1021FDF7F3FB043777E7002BF4
:10AA80003FF450AF49E76E2BCDD046E710B5064CEA
:10AA90000B46024605492068FFF730FF2068BDE8F5
:10AAA000104020F077BE00BFCC360020C5860008DD
:10AAB00038B504460D460848FFF7C6FC294620462F
:10AAC000FFF7E4FF0548FFF7BFFC054B1B7813B108
:10AAD000044B01221A7038BDD86C0508E36C0508D8
:10AAE00028380020293800200FB407B504A951F8F0
:10AAF000040B0191FFF7DCFFFFF7B6FC03B05DF834
:10AB000004EB04B070470FB407B504A951F8040B67
:10AB10000191FFF7CDFF03B05DF804EB04B070477F
:10AB20000FB407B504A951F8040B0191FFF7AEFF6C
:10AB3000FFF79AFC03B05DF804EB04B070470FB464
:10AB400007B504A951F8040B0191FFF79FFF03B06B
:10AB50005DF804EB04B070472DE9F0411746027927
:10AB600002F0E003402B05460E462BD10024554F42
:10AB7000DFF8708115E02B7903F00703022B15D065
:10AB8000032B19D0012B14BF315D31573846FFF725
:10AB9000D6FF6B79013BA34202DD4046FFF754FC30
:10ABA00001346B79A342E6DCBDE8F08136F814107D
:10ABB0003846FFF7C4FFECE736F914103846FFF7C4
:10ABC000BEFFE6E702F00702042A5DD8DFE802F0E4
:10ABD000031D25272A003478202B3AD068D8002B73
:10ABE000E2D1B5F80560B5F8078036482146FFF791
:10ABF000A6FFA64240DCA0453EDB002FD4D0424653
:10AC000031463148BDE8F04199E796F90040202BE4
:10AC10001FD04DD8002B3DD0C6E73488DCE7B6F90D
:10AC20000040F4E7D6F80080202B444611D03FD8EE
:10AC3000002BB9D141462348FFF781FFD5F8051015
:10AC4000884519D8002FAFD02048BDE8F04176E7FD
:10AC500000246A791E4B03EBC2010979A1420BDD86
:10AC600053F8323053F82400BDE8F041FFF7ECBB55
:10AC70001848BDE8F04162E7FFF7F6FB2246296875
:10AC80001548BDE8F0413EE7202BE1D007D8002B66
:10AC90008AD11C46B5F90560B5F90780A5E7602B98
:10ACA000E6D0802B80D131460C48BDE8F04146E724
:10ACB000602BF6D16A791441E307D9D50848BDE87D
:10ACC000F0413CE71DA305083DA90508E96C05080E
:10ACD000044F0508B19A0508EF6C0508CC860508F5
:10ACE0005AA30508E76C05080CB407B510F020005E
:10ACF0000BD079B92320FFF7A0FB05A90498019197
:10AD0000FFF7C4FEFFF7B0FB012003B05DF804EBD2
:10AD100002B070470020F8E70CB4C30607B500D5B1
:10AD200061B905A904980191FFF7B0FEFFF79CFBFC
:10AD3000012003B05DF804EB02B070470020F8E793
:10AD40000EB400B584B005AB019053F8042B06494E
:10AD5000039301A8FFF7D2FD019B00221A7004B0F3
:10AD60005DF804EB03B070470180000870B406681A
:10AD70008E4217D90139751E002311F8014F0822A0
:10AD8000634013F0800F4FEA430318BF83F0D503ED
:10AD9000013ADBB2F5D18D42EFD1721C0260337003
:10ADA00070BC7047721C00230260337070BC704727
:10ADB0000A44914215D010B40139541E11F8012FE4
:10ADC0000823504010F0800F4FEA400018BF80F079
:10ADD000D500013BC0B2F5D1A142EFD15DF8044BE3
:10ADE000704770474840082310F0800F4FEA40003A
:10ADF00018BF80F0D500013BC0B2F5D1704700BF4D
:10AE00000A44914215D030B40139551E41F2210255
:10AE100011F8014F082380EA042004044CBF82EAA1
:10AE200040004000013B80B2F7D18D42F0D130BCF0
:10AE30007047704770B502221349144C144E4FF6F8
:10AE4000FF70FFF7DDFF22884AB1A518B54218D27E
:10AE5000052A16D92146FFF7D3FF2C46F3E72146F2
:10AE60000222FFF7CDFF0222A118FFF7C9FF094B0D
:10AE7000E41A094B1C8041F60F53C31A584258413B
:10AE800070BD0020FCE700BF004000080240000841
:10AE900000800008FA3F0008ECA500200F4B2DE9C8
:10AEA0003048D3E9004554EA05020AD1034640F28E
:10AEB000011200201880988098715A801881BDE88E
:10AEC0003088074B1A6814EB020B45F1000C5A4608
:10AED0006346FDF7D7F80120BDE83088904C00208C
:10AEE0009C7A002030B403888278C478154DA3F58D
:10AEF000FA6303F0030101EB4101013A02EB810225
:10AF00009B0835F812500279611E40F2B55404FBDB
:10AF100003132B4403EB430302EBC303427984790D
:10AF200009490089C3EB031302EB83032144C3EBFC
:10AF3000031301EB83034FF47A720021C2FB030178
:10AF400030BC70478805050880436D382DE9F0470F
:10AF500007468CB01E469246002A5CD11546144620
:10AF60000A88B2F5FA6F36D38B78581E0B2832D880
:10AF700091F803C00CF1FF301E282CD891F804E0A2
:10AF8000BEF1170F27D891F80590B9F13B0F22D8E1
:10AF900088793B281FD8B1F80880B8F57A7F1AD293
:10AFA0004FF001085EBB09890491002CB4BF2D212C
:10AFB0002B21002CB8BF6442CDE90290CDE90514E5
:10AFC0000795CDE900CE38462A49FFF7B9FE40463D
:10AFD0000CB0BDE8F08700232749ADF828304FF0CA
:10AFE000010C18468DF82A30ADF82C3099469E4653
:10AFF0001A4698460991634609A9002ED3D0CDE997
:10B000000290CDE900CE38461C49FFF799FE404634
:10B010000CB0BDE8F0871A4C84FB0234A318D41797
:10B02000C4EB6314C4EB0415A2EB85052DB2002D0F
:10B030000846B8BF6D42FFF755FF4FF47A72002300
:10B040008046894643F088FC3C230AFB030A4FF400
:10B050007A7200234046494643F07EFC4FF47A71F1
:10B0600092B20023C1FB0A2309A8FDF70BF824B212
:10B0700009A975E7486D050800000101286D05085C
:10B08000898888880378202B024600F10100F9D0D6
:10B09000092BF7D02D2B00F0A4802B2B03BF537866
:10B0A000B7EE000A0246B7EE000AA3F13001C8B2BB
:10B0B00009289FED577A10D8F2EE046A07EE901A2D
:10B0C000F8EEE77A12F8013FE7EE267AA3F13001B5
:10B0D000C8B20928B0EE677AF0D92E2B63D003F0FE
:10B0E000DF03452B02D020EE070A704710B45178D9
:10B0F0002D294FD02B2979D0A1F13003092B02F152
:10B1000001027AD80024002303EB830301EB4303FD
:10B1100012F8011FA1F130000928A3F13003F3D97F
:10B12000B3F59A7F1A4628BF4FF49A72072B6CD951
:10B13000DFED386A1346F7EE007A083B072B67EE1F
:10B14000A67AFAD802F00702DAB1F2EE046A012A0E
:10B1500067EEA67A15D0022A67EEA67A11D0032AE6
:10B1600067EEA67A0DD0042A67EEA67A09D0052AE2
:10B1700067EEA67A05D067EEA67A062A18BF67EEB4
:10B18000A67A002C3BD087EE277A5DF8044B20EEA0
:10B19000070A70479178A1F13003092B02F10202EE
:10B1A00030D80124AFE75378A3F13001C8B20928A1
:10B1B00002F1010293D8F2EE046AF0EE665A07EE4D
:10B1C000901AF8EEE77A12F8013F87EEA66AA3F12B
:10B1D0003001C8B2092866EEA56A37EE067AEED9C4
:10B1E0007DE75378BFEE000A02465EE79178A1F151
:10B1F0003003092B02F1020284D9F7EE007A27EE20
:10B20000277AC2E7F7EE007ABDE7F7EE007A9BE710
:10B210000000000020BCBE4CB5EEC00ADFED317A64
:10B22000F1EE10FACCBF30EE270A30EE670ADFED00
:10B230002E7A20EE270A30B5FDEEC07A87B017EEE1
:10B24000904A054684EAE470002303A9A0EBE47069
:10B25000CDE90033029335F03FF9002CACBF202339
:10B260002D2303A88DF8003042F080FE012803A9A9
:10B2700024D002282DD0032805BF30236846684615
:10B280008DF8013045F034F9684642F06FFE03381E
:10B29000C4B222466946284645F060F900232B5582
:10B2A000284642F063FE2E22431C2A540DEB040173
:10B2B000E81845F039F9284607B030BD3023684614
:10B2C0008DF801308DF802308DF8033045F010F91B
:10B2D000DAE7302368468DF801308DF8023045F00A
:10B2E00007F9D1E76F12033A00007A44F8B5064631
:10B2F00015460846B6FBF2F434B905FB14640C4B52
:10B300001B5D00F8013BF8BDB4FBF2F75FB905FB2C
:10B310001747074B05FB1464DA5D00F8012B1B5D32
:10B3200000F8013BF8BD3846FFF7E0FFEFE700BF4C
:10B33000786D050802B370B48E1803E0121B14D1A7
:10B34000B14215D010F8012BA2F14103192B11F8CD
:10B35000013BA3F1410598BF2032192D03F12004D0
:10B36000ECD9D21A01D1002BEAD1104670BC70473B
:10B370000022104670BC70471046704770B50446F6
:10B3800008460D4642F0F2FD064602E014F8013F81
:10B3900043B1324629462046FFF7CCFF0028F5D1BD
:10B3A000204670BD1C46204670BD00BF4FF0FF32E6
:10B3B000FFF7C0BFA0F16103192B98BF2038704779
:10B3C000A0F14103192B98BF20307047202805D0E9
:10B3D000093804288CBF00200120704701207047E5
:10B3E0002DE9F0411F46064603461C782046FFF72C
:10B3F000EDFF1D4601330028F7D12B2C51D02D2C09
:10B4000024D0102A804628D04FF0FF33B3FBF2F34C
:10B4100002FB03FC6FEA0C0C5FFA8CFC0135002088
:10B420000BE0303CE4B2944225DA98422E461DD817
:10B430001AD002FB004015F8014B392CF1D944F029
:10B440002004602C17D9573CE4B2ECE74FF0010818
:10B45000102A6C7805F10105D6D1302C23D06FF07D
:10B4600070434FF00F0CD9E76445E2D907EA0808AA
:10B470004FF0FF30DFE701B10E60B8F1000F08D0E8
:10B4800027B1B0F1004F28BF4FF000404042BDE867
:10B49000F081002FFBD06FF00043984228BF184680
:10B4A000F5E78046D4E76C782046FFF789FF7828D7
:10B4B00005F1010605D035466FF070434FF00F0CD3
:10B4C000ACE7AC786FF0704302354FF00F0CA5E796
:10B4D00001230A22002183E7613819288CBF00204C
:10B4E00001207047413819288CBF00200120704787
:10B4F000303809288CBF002001207047A0F13003AC
:10B50000092B07D920F02000413819288CBF0020D2
:10B51000012070470120704707EE901AF8EE677A15
:10B520009FED807A27EE800A20EE070AFDEEC07AB2
:10B5300017EE903A2033402B7BD8DFED7B7AB4EEC8
:10B54000E70AF1EE10FA40F3E180B0EE407A9FEDA9
:10B55000776ADFED776A01E0B0EE677AB4EEE67AFB
:10B56000F1EE10FA77EE467AF6DC9FED727AF4EEA1
:10B57000C77AF1EE10FA40F1CC809FED6C6ADFEDF6
:10B580006E6A01E0F0EE477AF4EEE67AF1EE10FA38
:10B5900037EE867AF6D4DFED697AB4EEE77AF1EE2B
:10B5A00010FA40F3A280DFED607A37EEC77A27EE1B
:10B5B000076ADFED635ADFED637ADFED636A9FEDC3
:10B5C000635AE6EE257A67EE065AE6EE276AF7EE4C
:10B5D000007AA5EEA67AF0EE675AE7EE055AE7EE96
:10B5E000457A87EEA55ADFED557A30EE277AFDEEE3
:10B5F000C76A16EE903A2033402B1FD99FED547A3C
:10B60000F6EE006AB7EE006AF7EE004AC4EEA57ADD
:10B6100080ED045A67EEA66A27EE866A27EE877ADF
:10B62000C0ED006AC0ED026A80ED016A80ED037A28
:10B630007047B7EE005AF0EE455AD4E7B4EEE70A89
:10B64000F1EE10FA6BDD9FED396ADFED396A01E04A
:10B65000B0EE677AB4EEE67AF1EE10FA77EE467A5B
:10B66000F6DC9FED347AF4EEC77AF1EE10FA53D59A
:10B670009FED2E6ADFED306A01E0F0EE477AF4EEDE
:10B68000E67AF1EE10FA37EE867AF6D4DFED2B7A11
:10B69000B4EEE77AF1EE10FA33DCDFED2E7AB4EE99
:10B6A000E77AF1EE10FA44BFDFED227A37EEC77A7F
:10B6B00027EE076ADFED224ADFED226ADFED227A0C
:10B6C000E6EE246A67EE064AE6EE267AB7EE006AF0
:10B6D000A4EEA77AF6EE006A36EE476AF8EE007A34
:10B6E00027EE277A66EE266A8EE7DFED1A7AB4EE49
:10B6F000E77AF1EE10FA44BFDFED0E7A37EEC77A43
:10B7000055E7DFED097A37EEC77AD1E7F0EE407AF8
:10B710002BE7B0EE677A3EE7B0EE677AB6E7F0EE79
:10B72000477A9EE727D4D236DB0F4940DB0FC9406A
:10B73000E4CB1641DB0F49C0E4CB16C1DB0FC93F98
:10B7400092E741B99730083C15A82ABEF304353F6B
:10B7500000000000DB0FC9BF07EE901AF8EE677A11
:10B760009FED837A27EE800A20EE070AFDEEC07A6D
:10B7700017EE903A2033402B00F28180DFED7D7A86
:10B78000B4EEE70AF1EE10FA40F3E680B0EE407A4C
:10B790009FED796ADFED796A01E0B0EE677AB4EE89
:10B7A000E67AF1EE10FA77EE467AF6DC9FED747ADF
:10B7B000F4EEC77AF1EE10FA40F1D1809FED6E6A97
:10B7C000DFED706A01E0F0EE477AF4EEE67AF1EE32
:10B7D00010FA37EE867AF6D4DFED6B7AB4EEE77ABC
:10B7E000F1EE10FA40F3A780DFED627A37EEC77A08
:10B7F00027EE076ADFED655ADFED657ADFED656AF2
:10B800009FED655AE6EE257A67EE065AE6EE276A60
:10B81000F7EE007AA5EEA67AF0EE675AE7EE055A43
:10B82000E7EE457A87EEA55ADFED577A30EE277AB4
:10B83000FDEEC76A16EE903A2033402B24D99FEDD7
:10B84000577AF6EE006AB7EE006AF7EE004AC4EEE9
:10B85000A57A0023836143610362C36180ED045ACA
:10B8600067EEA66A27EE866A27EE877AC0ED006A41
:10B87000C0ED026A80ED016A80ED037A7047B7EE91
:10B88000005AF0EE455ACFE7B4EEE70AF1EE10FAAF
:10B890006BDD9FED396ADFED396A01E0B0EE677A62
:10B8A000B4EEE67AF1EE10FA77EE467AF6DC9FED2A
:10B8B000347AF4EEC77AF1EE10FA53D59FED2E6A82
:10B8C000DFED306A01E0F0EE477AF4EEE67AF1EE71
:10B8D00010FA37EE867AF6D4DFED2B7AB4EEE77AFB
:10B8E000F1EE10FA33DCDFED2E7AB4EEE77AF1EE0A
:10B8F00010FA44BFDFED227A37EEC77A27EE076AE7
:10B90000DFED224ADFED226ADFED227AE6EE246ADD
:10B9100067EE064AE6EE267AB7EE006AA4EEA77A4C
:10B92000F6EE006A36EE476AF8EE007A27EE277ADE
:10B9300066EE266A89E7DFED1A7AB4EEE77AF1EE71
:10B9400010FA44BFDFED0E7A37EEC77A50E7DFED2D
:10B95000097A37EEC77AD1E7F0EE407A26E7B0EE03
:10B96000677A39E7B0EE677AB6E7F0EE477A9EE796
:10B9700027D4D236DB0F4940DB0FC940E4CB164158
:10B98000DB0F49C0E4CB16C1DB0FC93F92E741B9D9
:10B990009730083C15A82ABEF304353F000000008C
:10B9A000DB0FC9BF30B402681146531C036011F8A5
:10B9B000024B0160D31C517803609378151D05601C
:10B9C0001B0443EA0123D078234343EA006030BCE0
:10B9D000704700BF0368591C1A46016012F8021B29
:10B9E0000260587841EA0020704700BF03685A1C83
:10B9F00002601878704700BF70B5044608460E46CE
:10BA000042F0B4FA314605460246206843F042FA55
:10BA100020682844206070BD38B50446006815468B
:10BA200043F038FA22682A44226038BD036810B413
:10BA30000A0E5C1C04601A7003680A0C5C1C04602B
:10BA40001A7003680A0A5C1C04601A7003685A1CA6
:10BA5000026019705DF8044B704700BF036810B4B2
:10BA60000A0A5C1C04601A7003685A1C0260197090
:10BA70005DF8044B704700BF03685A1C026010B4A5
:10BA8000197003680A0A5C1C04601A7003680A0CC7
:10BA90005C1C04601A700368090E5A1C026019705D
:10BAA0005DF8044B704700BF03685A1C02601970B0
:10BAB0000368090A5A1C02601970704770B54488FF
:10BAC0000546C4F30B0422460846002144F008FD55
:10BAD0002969094A9142034602D3084A914204D394
:10BAE00041B11846BDE8704008472246BDE87040A5
:10BAF00043F0D0B970BD00BF30070008A6080008A9
:10BB000038B5064C064DAC4206D261682046143466
:10BB1000FFF7D4FFAC42F8D338BD00BF9001000856
:10BB200030070008084B09498B4203D309E014335E
:10BB30008B4206D21A88C2F30B029042F7D1184604
:10BB4000704700231846704790010008300700082E
:10BB500070B50546B0F80900FFF7E4FF064B1E7804
:10BB600004462846FEF7D6FB16B1A368184470BDFC
:10BB700063681844FBE700BF63A600201378A3B1F5
:10BB80001D2812DC70B41E24084E14FB0101151A86
:10BB90002819314401E0824205D001F8013F12F832
:10BBA000013F002BF7D170BC70477047A3560020AF
:10BBB0002DE9F84FDFF8C88298F8003003B1FEE7AE
:10BBC000A94FAA4A7B6812881C88A94E24F0400419
:10BBD00024040125240C88F800501C801D8825F0C1
:10BBE00038052D04B3424FEA154500F0DD81A14C24
:10BBF000A34200F0D981B2F5807FA8BF4FF48072D4
:10BC0000022AB8BF0222002A92FAA2F2B2FA82F203
:10BC100008BF4FF0FF32013A45EAC20292B21A80E1
:10BC20001C88BA6844F040041C8012B114689288E1
:10BC30006283914A8B46998901211170044640F232
:10BC4000E93202E0002A00F0B1811989013A11F0CD
:10BC5000020F92B2F6D000229A8140F2E93202E05D
:10BC6000002A00F0A3811989013A11F0010F92B264
:10BC7000F6D09A899A8940F2E93202E0002A00F06F
:10BC8000AE811989013A11F0020F92B2F6D000226A
:10BC90009A8140F2E93202E0002A00F0A08119897D
:10BCA000013A11F0010F92B2F6D09A899A8940F2C6
:10BCB000E93202E0002A00F08D811989013A11F081
:10BCC000020F92B2F6D009229A8140F2E93202E0E4
:10BCD000002A00F07F811989013A11F0010F92B218
:10BCE000F6D09A899A8940F2E93202E0002A00F0FF
:10BCF0006C811989013A11F0020F92B2F6D0A4B208
:10BD00009C8140F2E93202E0002A00F05E8119894C
:10BD1000013A11F0010F92B2F6D09A89574E0BF109
:10BD2000FF3B00254FF00A0A4FF00B099A8940F2B9
:10BD3000E93202E0002A00F018811989013A11F075
:10BD4000020F92B2F6D0A3F80CA040F2E93202E062
:10BD5000002A00F00A811989013A11F0010F92B20C
:10BD6000F6D09A899A8940F2E93202E0002A00F07E
:10BD700006811989013A11F0020F92B2F6D0AAB2E7
:10BD80009A8140F2E93202E0002A00F0F880198935
:10BD9000013A11F0010F92B2F6D09A899A891BF8F4
:10BDA000014F40F2E93202E0002A00F0ED801989EB
:10BDB000013A11F0020F92B2F6D0A3F80C9040F2C3
:10BDC000E93202E0002A00F0DF801989013A11F01F
