:020000040800F2
:10000000F0FF00101950050821C20108516B0208C9
:10001000B9500508B9500508B9500508000000009E
:100020000000000000000000000000002DC20108D8
:1000300029C201080000000025C20108014502088C
:10004000B9500508B9500508B9500508B950050858
:10005000B9500508B9500508DD790208097B020886
:10006000CD7A0208917A0208557A020855060108ED
:100070004506010835060108250601081106010894
:10008000FD050108E9050108B9500508B950050842
:10009000B9500508B9500508B9500508197A020881
:1000A000FD270208992D02082D270208752E020847
:1000B000D92C0208192C02084D2B0208ED0E01085C
:1000C000F50E0108E10E0108E90E0108B950050816
:1000D000B95005081547020879460208DD450208AF
:1000E000A1790208B9500508111002085D2602081E
:1000F000CD2802088D250208AD290208D505010882
:10010000B9500508B95005087D2A0208B9500508FC
:1001100041450208B95005087D6801086968010871
:10012000C1050108AD05010899050108850501080B
:1001300071050108B9500508B9500508B9500508FE
:10014000B9500508B9500508B9500508E9DC01089F
:100150005D0501084905010835050108B950050884
:10016000D50E0108DD0E0108B9500508B950050883
:10017000B9500508B9500508B9500508B950050827
:08018000B9500508B95005084B
:08018800C04B0500010000005E
:10019000100201001C210020182100200000000096
:1001A000800700081F0210003021002020210020BD
:1001B000000000006D85000807020200AC4B002023
:1001C000D04B00200000000084070008F6210C003E
:1001D000844B0020D44B002000000000880700085A
:1001E00002000C00784B0020E04B002000000000D3
:1001F0000000000006020C006C4B0020EC4B0020BD
:1002000000000000D18D000808120F00EC4A002009
:10021000F84B002000000000FD840008F7010600F4
:10022000E04A0020084C002000000000940700086D
:100230001D020200DC4A0020104C002000000000DB
:100240009A0700080A020A0088480020144C00207F
:1002500000000000B11E0108030001005C43002003
:10026000204C0020000000000000000003123D00B0
:100270009C4A0020244C0020000000009C0700083D
:1002800025102C01BC480020644C00200000000018
:10029000000000001010020028430020904D0020B4
:1002A00000000000DA07000814000300886700203F
:1002B000F467002000000000DC0700080B301A0083
:1002C00090570020F867002000000000E0070008B9
:1002D0001F302400AC5700201468002000000000EC
:1002E000FC070008050204001C6300203868002099
:1002F000000000002008000803010A00EC5700205D
:100300003C680020000000002408000813020400DC
:10031000C455002048680020000000002E08000896
:100320001A023C004C790020107C002000000000E4
:10033000358D000827000400487900204C7C0020FF
:100340000000000032080008381001006878002022
:10035000507C002000000000360800082202140132
:1003600068960020B898002000000000818F0008E7
:100370000C109C008C860020CC990020000000000E
:100380003D1901080102050080860020689A0020BE
:1003900000000000C99402080002050078860020D1
:1003A000709A002000000000000000001B021000F6
:1003B0004C860020789A002000000000D9830008B5
:1003C0001E000600A4830020889A00200000000080
:1003D000380800081B100C00A87E0020909A00200E
:1003E0000000000011AA02082102F000287D002070
:1003F0009C9A00200000000085970208231210003C
:10040000F88800208C9B00200000000040080008B5
:1004100005100600F08800209C9B002000000000D2
:100420005008000837102800D4850020A49B002025
:1004300000000000560800080E020200EC880020B0
:10044000CC9B0020000000007E080008161006006B
:100450001C7D0020D09B00200000000080080008C8
:100460002F10220094980020D89B0020000000004C
:100470008608000823100E00F4820020FC9B002058
:1004800000000000B5090308F5518C00547C0020E1
:100490000C9C002000000000F9E4020826100C006B
:1004A000A49C0020989C002000000000118A0208F3
:1004B000281010006CA700205CA70020000000009E
:1004C0009D09030820320A0088A700207CA700208D
:1004D00000000000210903081C021000A8A200204F
:1004E00094A7002000000000B183000801200C0048
:1004F000909F0020A4A7002000000000A80800088A
:100500000A702800EC9E0020B0A700200000000028
:10051000410903080EA05C01909D0020D8A700208F
:100520000000000031EB030801010400F09C0020F2
:1005300034A90020000000000000000000010400B9
:10054000E89C002038A9002000000000B408000842
:1005500002010300E49C00203CA9002000000000F0
:10056000691901081900050050B1002068B2002087
:1005700000000000B80800081A000E00DCB00020DF
:1005800070B2002000000000BE080008F82106003C
:10059000B0AF002080B2002000000000CC080008AE
:1005A0001500700028AE002088B200200000000076
:1005B000000000002A006000B4B10020F8B2002062
:1005C0000000000009EB03082C00100068B30020B5
:1005D00058B300200000000001EA03082B002400AB
:1005E0009CB3002078B3002000000000D1E903088C
:1005F0002920780014AC0020C0B3002000000000C7
:10060000000000000D003C005CE2002008E3002038
:10061000000000005598030809020100C8E100200D
:1006200044E3002000000000D4080008040080001B
:1006300048E1002048E30020000000000000000026
:100640001300040028E10020C8E30020000000009F
:10065000D8080008FD01240004E10020CCE30020BC
:10066000000000000512020818202E00D0E0002033
:10067000F0E3002000000000E18E000806101A00E0
:10068000F0CB002020E400200000000049ED03082A
:10069000FB010100ECCB00203CE400200000000046
:1006A000558F0008FC010900B8CA002040E4002072
:1006B00000000000658F000816023F0078CA002085
:1006C0004CE40020000000001D84000834001000ED
:1006D000A8C900208CE40020000000001DED0308E4
:1006E0001102080080C900209CE4002000000000E6
:1006F000DC0800081212040078C90020A4E40020DD
:1007000000000000E40800081220100068C9002062
:10071000A8E4002000000000E8080008F901040037
:10072000D8C50020B8E40020000000007D120208B7
:10073000FA010200C0BF0020BCE40020000000005D
:10074000698600080202030008B50020C0E400200A
:1007500000000000000000000C020400C4B40020EF
:10076000C4E400200000000055850008FE011400CC
:100770008CBF0020C8E4002000000000ED830008CA
:1007800000000000013C000000000000010000002B
:10079000020200002501000000000000000000002F
:1007A0000000000000000000000000000000000049
:1007B0000000000000000000000000000000000039
:1007C0000000000000000000000000000000000029
:1007D0000000000000000000010000050300000010
:1007E000AE014A015E012C0164010100000001001C
:1007F0000A019A01001E0A0000000000000000002B
:1008000000010000000500000102030000000000DC
:100810000000000000000000000000000080070051
:1008200000000000040101006C1600000000000040
:100830000142200300000000000001000000000051
:1008400000000000000000000000000000000000A8
:1008500020000101000020003200C800D0079600EF
:10086000140032002800B0044006000550001400B7
:100870000F00080064000100000005000A000000ED
:10088000C409000019000000000000000000000082
:100890000000000000000000000000000000000058
:1008A0000000000000000000E8036400040A0001EA
:1008B00014001E00900100000000280100007E05C9
:1008C000EA05B4053200E803D00700000401F40192
:1008D0001400000026000000480044300000000022
:1008E00001010101FFFFFFFF0000000100000541C1
:0808F000494B34000008000030
:1008F8001A030000000000000000000000000000D3
:1009080000000000000000000000000004030904CB
:100918001201000200000040830420570002010277
:10092800030100003DCD0008C5850008C185000809
:10093800BD850008C98F0008B9850008B58500087D
:10094800E86A0508C1C301087DA5010801CF0108AF
:10095800000000000000000005CC010821CB0108C0
:10096800000000000000000000000000B5A0010821
:100978005D860008518600086D9500088995000875
:100988000986000851950008359500080068214C33
:100998001F0000001C0000001F0000001E000000D7
:1009A8001F0000001E0000001F0000001F000000C4
:1009B8001E0000001F0000001E0000001F000000B5
:1009C800FF01FF0000000401000000000000000219
:1009D80010000000070000000000000000000000F8
:1009E80001020304060708090000803F0000000018
:1009F8000000000000000000FFFFFFFFFF000000F4
:100A080088EE050894EE0508A0EE0508ACEE05088A
:100A1800B8EE0508C4EE0508641506082C3006086B
:100A2800382F060898180608EC58060878EE0508C6
:100A38007CEE050880EE050884EE0508D0EE050872
:100A4800D4EE0508D8EE0508A02D0608DCEE05084A
:100A58001900C800F401200304030904120100026C
:100A6800EF02014083045632000201020301000034
:100A780012010002020200408304405700020102F2
:100A88000301000009022000010104C0320904002A
:100A9800000208065005070581024000000705010D
:100AA8000240000009026400030100C0320904008A
:100AB800000103000000092111010001222600079E
:100AC80005830308000A080B010202020100090459
:100AD80001000102020100052400100105240100A3
:100AE8000204240202052406010207058203080005
:100AF800FF09040200020A00000007050102400085
:100B0800000705810240000009024300020100C0FD
:100B18003209040000010202010005240010010549
:100B280024010001042402020524060001070582AD
:100B3800030800FF09040100020A0000000705017C
:100B4800024000000705810240000000FF0000008D
:100B58001C7B0508000000000000000000000000E9
:100B6800000000000000000000000000000000007D
:100B7800000000000000000000FFFF00000000006F
:100B8800AA55050100000100F07A050800000000E0
:100B9800000000000000000000000000000000004D
:100BA800000000000000000000000000000000003D
:100BB800FF1FFF1F05010905A101A100050109305B
:100BC80009310932093309350934094009381581D1
:100BD800257F750895088102C0C00000090222001F
:100BE800010100E0320904000001030102000921AB
:100BF800110100012226000705830308000A0000EE
:100C080000000000010203040102030406070809AA
:100C180065CE010869CD0108C1D1010879A1010893
:100C2800F1A6010889A10108A5A1010851A101089F
:100C380041A1010800000000000000002D202D2D1A
:100C4800202D2D2D2D202D2D2D2D000000000000F4
:100C58000000000000000000000000AA550B010081
:100C680000AA5507010000AA550902000000AA556C
:100C780003009F0001000000C0120000C8670020A8
:100C880000000000EC67002000000000685E0C0017
:100C980001000000A00F0000B80B00000102FFFFD8
:100CA800010000000100000000000100E001000058
:100CB800FFFFFFFF0801FFFFFF0000000100000029
:100CC80091FF020800000000088905082070002034
:100CD800702D7200FFFFFFFF0101010000010101FB
:100CE80000D60100B80B00002D202D2D202D2D2D14
:100CF8002D202D2D2D000000000000000000000018
:100D080000000000000000000000000000000000DB
:100D1800849F0508000000000000000010A00508DE
:100D280001000000FA0000000100000001000000BE
:100D3800010100008E9F00200000F4010100000066
:100D48008C9F00200000F401010000008A9F002011
:100D58000000F40101000000889F00200000F40159
:100D680001000000869F00200000F401010000003F
:100D7800849F00200000F40101000000829F0020F1
:100D88000000F40101000000A90703086D0703082B
:100D9800848D05087C9F0020053201007A9F002081
:100DA800E803D00701000000789F0020E803D0077F
:100DB80001000000769F0020E803D0070100000032
:100DC800749F00201E00B80B01000000729F0020D5
:100DD8001E00F40101000000709F00201400640050
:100DE800010000007E9F00203200E803010000009F
:100DF8006E9F00200000C80001000000429F0020F4
:100E080000C80100419F002000500100409F0020C1
:100E1800005A01003E9F002002000000108E0508C5
:100E28000C06060814060608F2E200200100C409B0
:100E380000000000F0E200200100C40900000000EA
:100E4800EEE200200100C40900000000ECE20020EE
:100E58000100C40900000000E8E200200100C40904
:100E680000000000EAE200200100C40900000000C0
:100E7800E6E200200100C40900000000E4E20020CE
:100E88000100C40900000000099D002000C80100FD
:100E9800089D002000C80100069D00200100C80030
:100EA80001000000049D002032003075320000006F
:100EB800029D0020055A0500FF9C002000FF01004C
:100EC800019D002001000000B8060020FD9C0020C4
:100ED800030000003C860508FE9C002000FF01007E
:100EE800009D002001000000B8060020FC9C0020A6
:100EF800030000003C8605081D070308CD0603080B
:100F08001C8E0508A09F0020EE02CA080100000000
:100F18009E9F002000C80100640000009D9F0020E3
:100F280000C80100640000009C9F0020020000002F
:100F3800E08E0508F69C002080C1803E0500000078
:100F4800F49C002080C1803E05000000EE9C00203B
:100F580080C1803E05000000EC9C002080C1803EDE
:100F680005000000E79C002000FF0100E09C002035
:100F78006400F40101000000DF9C00200400000070
:100F8800EC8E0508DE9C002002000000008F05089A
:100F98007F9D00200D0000000C8F05087C9D00201F
:100FA800006401007A9D0020320010270A0000002A
:100FB800799D00200D0000000C8F0508789D002009
:100FC8000D0000000C8F0508779D0020020000002E
:100FD800448F05080000000000000000508F05083D
:100FE800D46200209CFF2C0100000000EAA1002030
:100FF800E0150C1700000000ECA100200200000022
:10100800888F0508AC9F00200100FF7F01000000C9
:10101800AB9F002002000000948F0508819D0020EE
:1010280003000000A48F0508809D00200300000035
:10103800A48F0508209F00200000E803010000009D
:101048001E9F00200000E803010000001C9F0020F4
:101058000000E803010000001A9F00200000E803D8
:1010680001000000189F00200000E80301000000B4
:10107800169F00200000E80301000000159F0020D3
:1010880000140100149F002003000000B48F05081D
:101098002C9F00200000F401010000002A9F00207E
:1010A8000000F40101000000289F00200000F40166
:1010B80001000000269F00200000F401010000004C
:1010C800249F00200000803E01000000229F002095
:1010D8000000803E01000000559F002019640100B7
:1010E800549F002002000000C48F0508529F002072
:1010F800E803D0070A000000509F002000640100A8
:101108000A000000459F002000640100449F002061
:10111800006401004C9F0020006401000A000000E8
:101128004B9F0020006401000A0000004A9F002035
:10113800006401000A0000004F9F002000640100C5
:101148000A0000004E9F0020006401000A00000011
:101158004D9F0020006401000A000000499F002004
:1011680001FF01000A000000489F002001FF010064
:101178000A000000479F002001FF01000A0000004C
:101188008A9D00200000F40101000000889D0020D5
:101198000000F40101000000869D00200000F40119
:1011A80001000000849D00200000F40101000000FF
:1011B800829D00200000F401010000003D9F0020F6
:1011C800006401003C9F0020006401003B9F002058
:1011D800006401003A9F0020FF080100399F0020A9
:1011E80001640100990503085D050308D08F05080F
:1011F800389F002000640100369F00201400E80397
:1012080001000000349F0020E80330750A00000048
:10121800329F002000C80100319F002000C8010053
:10122800309F002000C801002F9F002000640100AB
:101238000A0000006C9F00200000D0070100000099
:10124800679F002000C80100669F002000C80100B9
:10125800659F002000C801006A9F00200000D00799
:1012680001000000649F002000C80100639F002067
:1012780000C80100629F002000C80100689F00208C
:101288000000D00701000000619F002000C8010095
:10129800609F002000C801005F9F002000C8010077
:1012A80000000000CD02030840900508759D00204D
:1012B80035000000DC900508749D002000C801007E
:1012C800729D0020E803D0070100000041494B4F00
:1012D8004E463400FB9C002000030100FA9C0020CD
:1012E8000003010019020308DD010308B491050891
:1012F800990103084D0103082492050855020308C3
:1013080091180308A4920508F89C00200103010025
:1013180011080308E507030898950508DD00030888
:101328009D00030808960508E30203080D35030825
:10133800A49605089D140308000000004C970508B2
:10134800191C030871080308E89705083503030802
:1013580000000000689805080D040308B903030895
:10136800CC9805089D0403086104030868990508DA
:10137800D50503081D060308E8990508439F0020C2
:10138800010601007D03030849030308E49A0508E0
:10139800D9040308F5180308549B050851060308E7
:1013A8007D190308349C05082E9F002001030100C5
:1013B8009D0203086D020308089D05083D080308FF
:1013C800000000006C9D05081D0103086118030852
:1013D800D09D050800000000000000005C9E050884
:1013E800A5060308F5190308DC9E0508DA9C002009
:1013F80088136F1701000000DC9C002088136F170A
:10140800000000004E58002000000000000000000E
:101418004C58002000000000000000004A5800203E
:1014280000000000000000004858002000000000F4
:1014380000000000465800200000000000000000E6
:1014480044580020000000000000000010050020A3
:101458000000000000000000B09C00200200000016
:1014680064A00508D89C002088136F1701000000AD
:101478001463002088136F17000000003100030870
:101488000000000070A005081EA200200100000056
:10149800C4A005081663002001000000D0A00508BC
:1014A8000C63002002000000D8A00508000000001E
:1014B80000000000E4A005081D000308000000006B
:1014C80080A105080000000000000000D4A1050864
:1014D800000000000000000044A20508106300207E
:1014E800E0150C17000000000000000078AA00209A
:1014F800080000000000000068AA002008000000A2
:10150800D5A60108C1A501089DD101080000000069
:101518003DA1010855CD010811A50108CDCC010850
:101528000000000000000000F9A001088DA00108DB
:1015380081A00108D1C20108EDC20108B5C20108A5
:1015480099C201087DC201088DA601089DA5010860
:10155800DDD001080000000011A10108D1CC01086C
:10156800E5A401082DCC01080000000000000000DF
:1015780005A101087D000000FFFFFFFF0000803F7C
:101588000000000000000000000000000000803F94
:101598000000000000000000000000000000000043
:1015A8000000000000000000000000000000000033
:1015B800000000000000803F000000000000000064
:1015C80000000000010000000000803FEC54060805
:1015D8000000080205030300F4540608010008028D
:1015E8000504030004F005080200FE0101100300D1
:1015F800200A06080300140200030000FC54060831
:1016080004001F02010008000455060805001F0217
:1016180001010800FFFF0000FFFFFFFF08000000B6
:101628007DA0010879A0010875A0010869A001083A
:1016380065A0010871A001086DA001080100000063
:10164800006002401060024000000000000000003E
:10165800000B000000000000000000000000000077
:101668000060024028600240010000000000000005
:10167800060C000000000000000000000000000050
:1016880000600240406002400200000000000000CC
:10169800100D000000000000000000000000000025
:1016A8000060024058600240030000000000000093
:1016B800160E0000000000000000000000000000FE
:1016C800006002407060024004000000000000005A
:1016D800200F0000000000000000000000000000D3
:1016E8000060024088600240050000000000000021
:1016F80026100000000000000000000000000000AC
:1017080000600240A06002400600000000000000E7
:101718003011000000000000000000000000000080
:1017280000600240B86002400700000000000000AE
:10173800362F00000000000000000000000000003C
:101748000064024010640240000000000000000035
:101758000038000000000000000000000000000049
:1017680000640240286402400100000000000000FC
:101778000639000000000000000000000000000022
:1017880000640240406402400200000000000000C3
:10179800103A0000000000000000000000000000F7
:1017A800006402405864024003000000000000008A
:1017B800163B0000000000000000000000000000D0
:1017C8000064024070640240040000000000000051
:1017D800203C0000000000000000000000000000A5
:1017E8000064024088640240050000000000000018
:1017F8002644000000000000000000000000000077
:1018080000640240A06402400600000000000000DE
:10181800304500000000000000000000000000004B
:1018280000640240B86402400700000000000000A5
:101838003646000000000000000000000000000024
:1018480088550608E8040608000000001D960308ED
:10185800A086010004000000000000000000000055
:101868000000000000000000000000000000000070
:101878000000000000000000000000000000000060
:10188800885506080059060800000000A110020843
:10189800E803000004000000000000000000000051
:1018A8000000000000000000000000000000000030
:1018B8000000000000000000000000000000000020
:1018C800540D06081C2E060800000000C126010859
:1018D8007D0000000600000000000000000000007D
:1018E80000000000000000000000000000000000F0
:1018F80000000000000000000000000000000000E0
:10190800D85406080000000000000000C13A020890
:10191800E8030000030000000000000000000000D1
:1019280000000000000000000000000000000000AF
:10193800000000000000000000000000000000009F
:10194800085906080000000000000000D56D0408D2
:101958001027000003000000000000000000000045
:10196800000000000000000000000000000000006F
:10197800000000000000000000000000000000005F
:10198800F85406080000000041120308B56B02086D
:101998005F76000005000000000000000000000065
:1019A800000000000000000000000000000000002F
:1019B800000000000000000000000000000000001F
:1019C8008C57060800000000000000006182020831
:1019D80010270000010000000000000000000000C7
:1019E80000000000000000000000000000000000EF
:1019F80000000000000000000000000000000000DF
:101A0800145906080000000000000000A510020894
:101A1800E8030000050000000000000000000000CE
:101A280000000000000000000000000000000000AE
:101A3800000000000000000000000000000000009E
:101A4800205906080000000000000000619C0308FF
:101A5800204E00000300000000000000000000000D
:101A6800000000000000000000000000000000006E
:101A7800000000000000000000000000000000005E
:101A880030590608000000000000000059960308BD
:101A9800204E0000030000000000000000000000CD
:101AA800000000000000000000000000000000002E
:101AB800000000000000000000000000000000001E
:101AC800405906080000000000000000391B020809
:101AD800400D0300030000000000000000000000AB
:101AE80000000000000000000000000000000000EE
:101AF80000000000000000000000000000000000DE
:101B08007017060800000000000000000DBF030861
:101B18001027000001000000000000000000000085
:101B280000000000000000000000000000000000AD
:101B3800000000000000000000000000000000009D
:101B4800D0010608000000000000000079B5020876
:101B58001027000003000000000000000000000043
:101B6800000000000000000000000000000000006D
:101B7800000000000000000000000000000000005D
:101B8800DC5406080000000000000000751502087B
:101B980050C3000001000000000000000000000029
:101BA800000000000000000000000000000000002D
:101BB800000000000000000000000000000000001D
:101BC8000C09060800000000000000008D12020841
:101BD800A8610000010000000000000000000000F3
:101BE80000000000000000000000000000000000ED
:101BF80000000000000000000000000000000000DD
:101C08005059060800000000000000004DF60208C8
:101C1800A086010001000000000000000000000094
:101C280000000000000000000000000000000000AC
:101C3800000000000000000000000000000000009C
:101C48009017060800000000000000006548020820
:101C5800A00F0000010000000000000000000000CC
:101C6800000000000000000000000000000000006C
:101C7800000000000000000000000000000000005C
:101C88005C5906080000000000000000F5E50208A5
:101C98001027000001000000000000000000000004
:101CA800000000000000000000000000000000002C
:101CB800000000000000000000000000000000001C
:101CC80064140608000000000000000091DE02080D
:101CD8001A410000010000000000000000000000A0
:101CE80000000000000000000000000000000000EC
:101CF80000000000000000000000000000000000DC
:101D0800CC0806080000000000000000A9A901088E
:101D18001027000001000000000000000000000083
:101D280000000000000000000000000000000000AB
:101D3800000000000000000000000000000000009B
:101D4800FC0406080000000000000000953C0308A1
:101D58001A4100000100000000000000000000001F
:101D6800000000000000000000000000000000006B
:101D7800000000000000000000000000000000005B
:101D880068590608000000000000000011B00108B2
:101D9800400D0300000000000000000000000000EB
:101DA800000000000000000000000000000000002B
:101DB800000000000000000000000000000000001B
:101DC8007059060800000000000000005D100208BD
:101DD800400D0300000000000000000000000000AB
:101DE80000000000000000000000000000000000EB
:101DF80000000000000000000000000000000000DB
:101E080078590608000000000000000071F0020880
:101E180050C30000030000000000000000000000A4
:101E280000000000000000000000000000000000AA
:101E3800000000000000000000000000000000009A
:101E48008459060800000000000000002D9C0308CB
:101E580040420F00000000000000000000000000E9
:101E6800000000000000000000000000000000006A
:101E7800000000000000000000000000000000005A
:101E8800905906080000000000000000C5990308EA
:101E980050C3000000000000000000000000000027
:101EA800000000000000000000000000000000002A
:101EB800000000000000000000000000000000001A
:041EC8000000803F57
:1080000003685A1C02601970704700BF2DE9F047E1
:10801000089C2578002B804689460CBF4FF0200A2B
:108020004FF0300A661C25B3002A26DD334601E0F6
:10803000024698B113F8011B501E0029F8D1971E73
:1080400060B13D46013D51464046C8476B1C002B80
:10805000F8DC257827EAE770013045B1041B294692
:108060004046C847301916F8015B002DF7D1BDE82E
:10807000F087002A03DC2846F9E70020EEE7571EC8
:10808000DFE700BF2DE9F04714461D4606464FF4D2
:108090007A720023204629464CF0F2FD4D4BDFF862
:1080A00048814D4A4D4F034488FB03101844D917AB
:1080B00082FB032CC1EB601088FB002887FB0327A1
:1080C0009C44474AC1EBEC2CC0EB001E82FB0C2900
:1080D000A3EB8E0E1F44434A86F806E0C1EB274708
:1080E0004FEAEC7E08EB000ACEEBA90E82FB07827A
:1080F0004FEAE0780EEB4E0EC8EB6A18ACEBCE0CF4
:10810000C8EB0818DFF8E4E086F804C0A0EB8800AC
:1081100070718EFB0303F817C0EBE21240F2B5500A
:1081200000FB1272C1EBE353B2F5896F4FEA83078C
:108130003CDA40F2DA239A4242DCB2F5B77FB4BFB0
:108140004FF0000E4FF0010E4FEA4E09DFF8A0800D
:1081500009EB0E0308EBC3031FFA8EFCD88A09EB68
:108160000E0108EBC10116310B2301E031F8020DBD
:10817000904218DD013BF9D1CE44012338F83E008E
:10818000B37007F5FA670132121ABC44F270A6F810
:1081900000C0204629464FF47A7200234CF070FD4F
:1081A0003281BDE8F0870133DBB2E9E74FF0030C21
:1081B000E64640F29650DFF838804FF00609CEE7E9
:1081C0004FF0020CDFF82880E64640F229404FF0DD
:1081D0000409C4E780BC92C7C5B3A29107452EC26B
:1081E000ABAAAA2A73B06D1689888888792D0311E5
:1081F000B06805080028F0B403DA2D230B70404264
:108200000131092804464FF0010307DD03EB830326
:108210005B00B0FBF3F2092AF8D883B10F48A0FB4A
:108220000326B4FBF3F2092A02F1570C02F13007DE
:1082300009DD03FB1244F30801F801CBEFD1002361
:108240000B70F0BC704703FB1244F30801F8017B8C
:10825000E5D100230B70F0BC704700BFCDCCCCCC77
:10826000884270B44FF0010442D301FB04F4B0FB28
:10827000F4F58D42F9D2ECB142BB092D04FB150097
:1082800005F1570605F130020EDDB4FBF1F403F8F9
:10829000016B7CB1B0FBF4F5092D04FB150005F171
:1082A000570605F13002F0DCB4FBF1F403F8012BC2
:1082B000002CEFD100221A7070BC704703F8016BDC
:1082C000B4FBF1F4002CF5D0B0FBF4F5092D04FB60
:1082D000150005F1370605F13002EFDCB4FBF1F4CF
:1082E00003F8012B002CEFD100221A7070BC7047EC
:1082F0000546002AEAD1C0E790ED057A90ED004AE4
:10830000D0ED066AD0ED014AD0ED047A90ED035A23
:10831000D0ED025AA4EE007AB0EE406AB0EE470A01
:10832000B0EE667AA4EE867A67EEC07AA5EE407A61
:10833000E5EE867A80ED057AC0ED067A704700BFDB
:10834000D0ED057A90ED013AD0ED003AD0ED064A35
:1083500090ED024A90ED077A90ED035A90ED086A8D
:10836000D0ED045AC0ED067AF0EE406A27EE830A9B
:10837000C0ED056AA3EEA60A80ED087AA4EE240AF1
:10838000A5EE470AA5EEC60A80ED070A704700BFB2
:10839000D0ED007A90ED017A30EE670AE7EE007AD0
:1083A000B0EE670AC0ED007A704700BF704700BFAB
:1083B00030B400220123142534240221C5708471B5
:1083C0000270C2728273C273417041728370C37152
:1083D0000372837230BC7047002306214FF47A7217
:1083E0000170C0E901230373704700BF30B432232A
:1083F000312233254FF60174FF214370427101236E
:108400000022C5700482817403720370037183704B
:1084100042818281C28130BC704700BF2DE9F04F9C
:108420003149324B83B001F5D07B019023274FF0C7
:1084300000092F481022012603E0203098420BD07B
:1084400002799742F9D102680C68A24209D0203023
:10845000984206F10106F3D1203159453AD00F79FF
:10846000E7E744794D79A542F1D19446019A214834
:1084700009EB490502EB050A57558AF8016000F53A
:1084800072751D4E624603E0A8421AD050F82C6F58
:10849000B242F9D10679A642F6D1CF6806464FF02E
:1084A000000C96468046F268BA4216D00CF1010CD8
:1084B000BCF1030F06F10C06F5D14046A842724606
:1084C000E4D14FF0FF3C203159458AF802C009F150
:1084D0000109C4D103B0BDE8F08F08693269824256
:1084E000E4D14FFA8CFCEEE708AD05086CDA05081C
:1084F000ACD005086CDA050800000140144BFF22DF
:10850000F0B54FF0FF34C2700271027242724273D2
:10851000827303F10C0EA446172716261525002298
:1085200002EB820281189E4585544E708F7081F84F
:1085300003C00C710AD093F90620DD791E7A5F7AA8
:1085400093F90AC093F90B400633E9E7F0BD00BF89
:108550001069050810B41F210124032200230470B0
:1085600041708270C3705DF8044B7047034600F1A0
:108570001001FF221A705A7002338B42FAD1027036
:1085800042708270C270027142718271C271704712
:1085900030B41D6995420AD314460A4621448D42DF
:1085A000996938BF2A1B214430BC4CF007BE30BC4F
:1085B000704700BF002070470120704701207047BE
:1085C000002070474FF40070024B10609B680B60F6
:1085D00000207047E0C50020013A30B4D2B28C1CB4
:1085E00004EB42040025020F092AD3B203F1300242
:1085F0008ABF37330A700B704D7002318C424FEADC
:108600000010F0D130BC70470B4A0C4B10681B684F
:108610001A22C0180A8001D10948704710B5094BC9
:1086200009491C680822FFF7D7FF204604220749A2
:10863000FFF7D2FF024810BDE8F7FF1FECF7FF1F5E
:1086400088010020EAF7FF1F8A0100209A0100201C
:1086500004230B8000487047A401002012230B80E4
:1086600000487047A80100202C22022302704370AA
:10867000704700BF08307047704700BF8161704786
:108680002DE9F04FDFF8DCC1754CDCF80050228892
:10869000B4F90AA0C2EB25135200C2EBE502B4F90B
:1086A00002505B436A43B4F904501B135D43AD139E
:1086B00005EBE225B5F5FA324FEAE57B85B04BF1E3
:1086C000FF33CDE90023DDE900325343009AA56171
:1086D000A2FB0289CDE90201B4F9082001990098B2
:1086E00009EB43095143D31700FB0311A2FB0023FD
:1086F0000B444FEAEA7B0AFB09F11F0308FB0B134B
:10870000AAFB080119444FEA102A4AEA016A160333
:108710004FEA212B47EA12571AEB0602E6884BEB89
:10872000070312F1000A43F5004BAAFB060106FB02
:108730000B114A10CB1752EA030100F08E80B4F9F6
:108740001060009806FB09F1F71708FB0711A6FB5C
:1087500008673944B4F90E808B4601994FEAE879ED
:1087600008FB01F100FB0911A8FB00898944DCF832
:1087700004104FEA4947C1F5801C47EAD837B24692
:108780004FEA4846B4F90C801AEB060A66464BEBF2
:10879000070BF7174FEAC806019600260096F9075F
:1087A000DDE900674FEACC7016EB0A0647EB0B07D2
:1087B00041EA5C01801B61EB070140F6354C8946BC
:1087C000A0FB0C010CFB09114CF05AFAB4F916206D
:1087D000B4F914A04E13470B47EAC14702FB06FC4D
:1087E000D31707FB03CCA2FB07236344564307FBC5
:1087F0000366A2FB07233344560E46EAC31632181B
:108800004FEA636747EB010380460AFB01F14FEA39
:10881000EA7B08FB0B17AAFB08013944C60C46EAA1
:10882000413612EB06084FEAE147B4F9122043EB58
:1088300007094FEA182141EA096113010B44029A22
:108840000AB11B0A1360039B23B105EB8505803534
:108850002D121D6005B0BDE8F08F0023EFE700BFCB
:10886000FCA6002060170020704770474FF400639B
:10887000038370474FF40063038370474FF4006332
:1088800003837047012380F850307047F0B4037CB5
:10889000456902681F2B37D9203B20215468994035
:1088A0000C4223D010249C40D160D4605168D94040
:1088B000CE074ED4EFF31183502282F31288EA6B75
:1088C0001168C90709D45468002C52D1D5E909614F
:1088D0008E4243D1012285F86020DBB283F31188F8
:1088E000037C02681F2B194614D9203B08215068CD
:1088F0009940084200D0D1600421506801FA03F386
:10890000184223D1F0BC7047202416689C402642B0
:108910000FD11946082310688B40184200D093608D
:108920000423106803FA01F10842EBD09160F0BC17
:10893000704710219940946091601168D940CC072C
:10894000B8D5012101FA03F39360B3E7D360F0BC1B
:108950007047012101FA03F3D360ABE7AF690F441D
:10896000D7600ED82E69711A5160AC62002185F86B
:108970006010116841F00101DBB2116083F31188CE
:10898000AEE7711A5160AE62F0E710B5027C016883
:108990001F2A4FF020030ED94C68203A93401C4206
:1089A00008D00C4A406800241470026822F00102CA
:1089B0000260CB6010BD0C6893401C42FAD0054A9F
:1089C000406800241470026822F0010202608B608B
:1089D000F0E700BF2B8900202DE9F041C4002318E7
:1089E0009B00B749CA585268958AADB2EFB2FE07EC
:1089F0000B4461D4BE0737D5BFF35F8F1D7EEDB248
:108A0000012D00F0BB80AF4E138BBFF35F8F231897
:108A100001EB83031D7E022D00F0CE80231801EBB5
:108A200083031D7E032D05D19B7E1BB1737A002B22
:108A300040F01A81938896F908C043F480639380CC
:108A4000231801EB83031B7E013363450AD1B37AFC
:108A500000257572002B40F08A80204401EB8000D5
:108A600000234375BDE8F081964E17F0040F96F988
:108A700008C04DD117F0400700F0B280178A1D6A78
:108A8000FFB205F80C705FFA8CF56F1C93F818E0D4
:108A90007BB2DF1CBE4533729C4600F0098127186B
:108AA00001EB87073F7EBB42CAD105F1020C4FFAAA
:108AB0008CFC86F808C0C3E71588824E25F4006553
:108AC0002D042D0C1580158845F4806515809D7E3C
:108AD00000273772002D3DD0757A002D37D023182E
:108AE00001EB830301251B7E7572022B03D11388D2
:108AF00043F400631380231801EB83039B7D43F051
:108B000001031382204401EB8000037EBDE8F08165
:108B10009F7E757A4FF0010E86F80AE0002F5CD038
:108B2000002D78D1231801EB83035B7E002B00F02E
:108B3000A48013880CF1010C4FFA8CFC43F40073F1
:108B400086F808C013801388DF05FCD478E7DB7D46
:108B5000FF2BC4D0231801EB83039D7D05F0FE0598
:108B60001582DB7DFF2BCDD0FF233372CAE79388BC
:108B700023F440731B041B0C93806EE79B7E514EC5
:108B8000002B3FF441AF737A002B3FF43DAF1388C5
:108B900023F480631B041B0C1380BFF35F8F138BC4
:108BA0001388B57243F400731380938896F908C054
:108BB00043F48063938043E79B7E002B3FF42EAF0A
:108BC000737A002B3FF42AAF138896F908C023F478
:108BD00080631B041B0C138016E0002DA2D0A8E7B5
:108BE0002D067FF52DAFBCF1FF3F6DD0DD6915F887
:108BF0000C5015820CF1010C1D7E4FFA8CF39D4236
:108C00009C4633727FF41CAF938823F480631B046B
:108C10001B0C938014E71F7ED3F820805FFA8CF53D
:108C2000AE44022F4FFA8EFE17882DD927F48067A5
:108C30003F043F0C1780178AFFB208F80C701788A2
:108C4000D3F820C047F400731380138ADBB20CF80A
:108C50000E30938805F1020C4FFA8CFC43F48063CC
:108C600086F808C093806EE7938896F908C023F4CD
:108C700080631B041B0C9380E2E61388012543F4F8
:108C80008073138075725EE747F400771780178A48
:108C9000FFB208F80C70178AD3F8208005F1030C96
:108CA0004FFA8CFCFBB286F808C008F80E304AE791
:108CB000978827F480673F043F0C9780EFE600BF5A
:108CC000004B002060170020DD7D15829D7E3772ED
:108CD0001DB91B7E002B7FF415AF938823F48063AE
:108CE0001B041B0C93800DE707B506236A46F7218A
:108CF0001FF0D2F89DF801309DF800100B4A1B01BF
:108D000043EA01339DF8021043EA111353609DF8C2
:108D100004309DF803101B0143EA01339DF8051050
:108D200043EA1113136003B05DF804FB60170020E1
:108D30001FF002BA38B51D4B1B78044600F125051B
:108D400093B104221A4920304DF09CFD284614228C
:108D500018494DF097FD012384F83A30164B1B78E3
:108D600073B984F83B3038BD2846142213494DF0BE
:108D700089FD012384F83A300F4B1B78002BF0D08B
:108D80000F4B186859689A68DD68E560206061607B
:108D9000A260DD69186959699A69A2610123E561D8
:108DA0002061616184F83B3038BD00BF65AA0020B6
:108DB00034AA00201CAA002066AA002058E6050854
:108DC0003CAA0020014B18681BF048BDBC7B00206A
:108DD00010B42921282401220023047041708270DC
:108DE000C3705DF8044B70472DE9F84FDDE90A6464
:108DF0008946174600212022984605464DF004FD7D
:108E00005EB1D6E900327189EB81C3F30F432B8247
:108E1000C2F30F43EA822B83698248464BF03AFA49
:108E200017F0100B10D1431E70B119F803202E2A31
:108E300018BF09EB030104D14AE011F8016D2E2E91
:108E40003ED013F1FF33F8D208280246CA46A8BF25
:108E500008224FF0000B4FF020336B602B60C5F8F9
:108E600007304946284605F108064CF0A7F95A464E
:108E7000514630464CF0A2F96B1EE81D13F8012F45
:108E8000A2F1610119299CBF203A1A708342F5D1E1
:108E900005F10B0116F8013BA3F16102192A9CBFF1
:108EA000203B06F8013CB142F4D11823C8F30F422D
:108EB000EF722B73A5F81A80AA82EC61BDE8F88FD7
:108EC000C01A00F1FF3BBBF1030FA8BF4FF0030B2B
:108ED000082B03F1010AA8BF0823CA441A46BAE7BF
:108EE00038B52E2200214DF08FFC0346642440F259
:108EF000DC5040F21A4140F26C7240F202251C74C0
:108F00005882132419209982DA8240F2753140F692
:108F100043021D839C760E250A241877D9831E20D0
:108F200002211A84012283F82C00197283F82A1076
:108F300083F8225083F82B409A7383F8252083F816
:108F4000292019460248BDE8384030F05FB900BF1B
:108F500060E6050810B50021044601201AF0CAF9A0
:108F6000207010BD38B500240472451EE1B2022005
:108F70001AF0C0F90134082C05F8010FF6D138BDFC
:108F800038B500240546048021462846013426F0E1
:108F90005DFD082CF8D1002185F8E210A5F8E41059
:108FA000A5F8E610A5F8E810A5F8EA10A5F8EC1069
:108FB000A5F8EE10A5F8F010A5F8F2102846BDE8C7
:108FC000384026F005BD00BF2DE9F04F002087B0E6
:108FD0000C461D46012192461DF0A0FD002D63D0D8
:108FE00005EB0A03DFF8D094DFF8D0B403935546BD
:108FF0001CE0002D00F0C581D9F81430AB4264D0DC
:10900000D9F81030AB4200F09780D9E90631AB4275
:1090100052D8A94200F26F81691A204647F0B2FE89
:10902000039B01359D4204F500743DD0D9F82060C2
:10903000AE42DED8D9F83080AE1B4FEAD60AD8F857
:1090400030300AF1020A9A4506F0070603D3D8F831
:1090500038309A4509D94146504647F063FE80466C
:10906000002800F04D81C9F8300098F80430002B3A
:1090700040F0E280D8F82870002F00F0DF81D8F8A7
:109080003030D8F80C20AAEB030A06EBCA0A434694
:10909000204602EB4A224FF40071B847039B01358A
:1090A0009D4204F50074C1D1002108461DF036FD33
:1090B000002007B0BDE8F08FA942ADD94FF400728F
:1090C000002120464DF0A0FBAAE752226120412357
:1090D000002622706270A070722284F8E70184F882
:1090E000E631D9F82800E3704FF0FF33314684F8B9
:1090F000E42184F8E521C4F8E8014FF4F07284F823
:10910000EC3184F8ED3184F8EE3184F8EF31201D34
:109110004DF07AFB55216FF05502C4F8F061C4F8A8
:10912000F461C4F8F86184F8FC6184F8FD6184F8A6
:10913000FE1184F8FF2173E74FF4007200212046EE
:109140004DF062FBD44BD54F03CBEB2302222370AF
:109150004FF0080C9026F8234FF0580EC4F8030087
:10916000227484F80DC0C4F8071084F801E0A670DA
:109170006375D9F81010D9F80830D9F81C6022733B
:10918000591A21624FF0FF3100233F20A1763E2182
:10919000A273E372E3736374A374E3742375A3751A
:1091A000E3756376E3766377A377E37720762177B9
:1091B00084F82C2007CFD9F8187084F82830F61BD3
:1091C00084F8293084F82A3084F82B3084F82D3044
:1091D00084F82E3084F82F3084F8313084F832301F
:1091E00084F8333080236662C4F8470004F14706F0
:1091F00084F8403029209423A94F84F846C084F88D
:10920000420084F843300E200D234FF0010C84F807
:10921000440084F8453084F830C0716003CF334691
:109220005527AA269A60C4F85200C4F8561084F84C
:10923000FE7184F8FF61F3E64FF4007200212046CE
:109240004DF0E2FAD8F84030002E61D104F1200749
:10925000002B77D0D8F8303092491122CDE9006642
:109260002046FFF7C1FDD8F840301A6C04F1400ADF
:10927000002A79D01B6B8C49CDE900663846112253
:10928000FFF7B2FDD8F84460002E3FF4C9AE4FF4AA
:10929000E078CDE904450CE00024CDE900C4FFF7F7
:1092A000A3FDB66CBA46A8F120080EB3B8F11F0FA3
:1092B0001ED93468356B96F804E011222B462146FE
:1092C00050460AF1200706F11C0CBEF1000FE3D155
:1092D00072793369019342F021022B46CDF800C028
:1092E000FFF782FDB66CBA46A8F12008002EDDD14A
:1092F000DDE9044594E6E91A204647F043FD8FE690
:10930000231F04F5FE7243F804BF9A42FBD187E69F
:10931000002BD8F844200CBF01230223C3EB061313
:10932000002A3FF47DAE966C013B002E3FF478AEF0
:10933000013BB66CF9D1002E3FF472AEA2464FF459
:109340000078A6E7CDE900663346D9F80C1008226C
:109350002046FFF749FDD8F84460002E3FF460AE88
:10936000BA464FF4F07894E7CDE9006633463846C4
:1093700011224D49FFF738FDD8F84460002E86D100
:109380004EE64FF40072294620464DF03DFA802209
:109390000C2384F8BE2184F8C231D9F81000434B65
:1093A000D9F8086084F8B85183FB0032C117C1EBCB
:1093B0002232B2F5806F84F8B95184F8BA5184F83A
:1093C000BB5184F8BC5184F8BD51C4F8C601C4F83F
:1093D000CA6142DBFF2384F8BF3184F8C13184F8CD
:1093E000C031324B711E83FB0132CE17C6EB2232E5
:1093F000B2F5806F29DA2E4B84F8C52183FB010377
:109400000B442C48C6EB6313C3EB831680FB03703D
:10941000891B1844DE17921022F03F020131C6EB7F
:10942000E0100A43034484F8C42184F8C331552270
:10943000AA2384F8FE2184F8FF31F1E539464FF480
:10944000007220464DF0E0F9EAE5FF2384F8C331CD
:1094500084F8C53184F8C431E9E7154B84F8C1219B
:1094600083FB00730344134FC1EB631387FB0317A4
:10947000C3EB831C9110A0EB0C02F818DF1721F04E
:109480003F010132C7EBE0100A43034484F8C021D6
:1094900084F8BF31A5E700BF74E6050880E605083B
:1094A00090E605086CE6050870E605089755454105
:1094B0008320088281808080E0C50020DEADBEEF81
:1094C00008B5012014F0C8F9174A936803F00C039B
:1094D000042B1ED0082B18D151685368490203F0A1
:1094E0003F0319D452681148B0FBF3F0C2F388135C
:1094F00000FB03F00C4B0E4A5B68C3F301430133DE
:109500005B00B0FBF3F0106008BD094B074A1A601E
:1095100008BD074B186008BDB0FBF3F05368C3F3F8
:10952000881300FB03F0E5E7003802400024F40054
:1095300010B5002010B5044C04480A46214612F02C
:1095400077FE204610BD00BF6C1700209CE6050882
:1095500010B5044C04480A46214612F069FE204624
:1095600010BD00BF6C170020ACE6050810B5044C18
:1095700004480A46214612F05BFE204610BD00BF9B
:109580006C170020B8E605080A4608B5054920B161
:10959000054812F04DFE034808BD044812F048FE8D
:1095A000004808BD6C170020E4E60508CCE6050875
:1095B00038B5054640683B4A038823F040031B0446
:1095C0001B0C0380038823F038031B0490424FEAEE
:1095D000134305D002F58062904201D043F00803A6
:1095E00003800388AA6843F04003038012B1136824
:1095F00092885A83838940F2E93301E0002B43D0FB
:109600000289013B12F0020F9BB2F7D0F523838150
:1096100040F2E93301E0002B36D00289013B12F021
:10962000010F9BB2F7D08389838940F2E93300E0D0
:109630000BB30289013B12F0020F9BB2F8D0FF235B
:10964000838140F2E93300E0ABB10289013B12F0C3
:10965000010F9BB2F8D08489E4B2AB6813B11A68E9
:109660009B881383712C19D008D9AC2C14D0AF2C43
:109670000ED1092038BD1EF0EDFBEEE7122C0FD005
:10968000702C07D1052038BD1EF0E4FB6868CBE7DD
:10969000732C03D0002038BD072038BD062038BD0C
:1096A000082038BD003800402DE9F04F87B0A94AA6
:1096B00002904068038823F040031B041B0C0380C6
:1096C000038823F038031B0490424FEA134300F051
:1096D0003F8102F5806290420CBF30223822134352
:1096E0000380029B02889B6842F04002028013B113
:1096F0001A689B885383838940F2E93302E0002B88
:1097000000F090810289013B12F0020F9BB2F6D06B
:109710006B23838140F2E93302E0002B00F0828169
:109720000289013B12F0010F9BB2F6D08389838935
:1097300040F2E93302E0002B00F071810289013B25
:1097400012F0020F9BB2F6D08023838140F2E933FE
:1097500002E0002B00F063810289013B12F0010F4F
:109760009BB2F6D08389029B9B6813B11A689B88D1
:1097700013830623784CDFF8EC81DFF8ECA1774DFA
:10978000774E04939623DFF8E4C101934FF0100E57
:10979000DAF80430C3F30803002B40F0B280EFF393
:1097A0001183002B40F0AD802068AA68236898429E
:1097B000FAD133689A42F7D8D8F800704FF47A712A
:1097C00001FB07F39B1AB3FBF7F301FB00304FF4E7
:1097D0007A774FF00109DAF80430C3F30803002B5D
:1097E00070D1EFF31183002B6CD12368A968226834
:1097F0009342FAD132689142F7D8D8F8002007FB9B
:1098000002FBABEB0101B1FBF2F107FB03131B1AE7
:10981000B3F57A7FDFD3019B013B0193B8D1029B63
:109820009B6813B11A689B885383029B586840F267
:10983000E933828902E0002B00F085800289013B38
:1098400012F0020F9BB2F6D0F523838140F2E93388
:1098500001E0002B77D00289013B12F0010F9BB28F
:10986000F7D08389838940F2E93301E0002B67D088
:109870000289013B12F0020F9BB2F7D0FF238381D4
:1098800040F2E93301E0002B5AD00289013B12F08B
:10989000010F9BB2F7D08389DBB20393029B9A68D6
:1098A00012B1136891881983039B682B60D0049BC5
:1098B000013B13F0FF0304937FF464AF184607B035
:1098C000BDE8F08FEFF311818EF31288D5F808B060
:1098D0002B68DB0344BFCCF80090D5F808B02368B0
:1098E000DCF80020C9B281F31188D8F800101344C5
:1098F00007FB01F2A2EB0B02B2FBF1F207FB032321
:1099000085E7EFF311838EF31288AF682A68D203DC
:1099100003D50122CCF80020AF682068DCF8009065
:10992000DBB283F31188D8F800104FF47A72484400
:1099300002FB01F3DB1BB3FBF1F302FB003046E754
:109940001EF088FAAAE71EF085FA029B586889E79C
:109950003022C4E60038004038BF002010E000E0AC
:1099600040BF00203CBF002000ED00E034BF0020DD
:1099700012B1136892885A83029B586840F2E93307
:10998000828901E0002B45D00289013B12F0020FD1
:109990009BB2F7D08C23838140F2E93301E0002BA6
:1099A00038D00289013B12F0010F9BB2F7D08389B6
:1099B000838940F2E9330289013B12F0020F9BB226
:1099C00015D1002BF7D11EF045FA029B9B6813B10D
:1099D0001A689B881383059B142B04D3182B17D963
:1099E000543B062B14D9002007B0BDE8F08FFF23AD
:1099F000838140F2E93301E0002BE4D00289013B8E
:109A000012F0010F9BB2F7D08389DBB20593DCE73C
:109A1000032054E71EF01EFA029B5868C8E71EF0A8
:109A200019FAA0E61EF016FA029B58687FE600BFFE
:109A3000F0B5876983B0064617B13B68BA885A8388
:109A40007069DFF8A8E08389C3244FF47A734FF07C
:109A5000060C6D464FF6FF710EF1010E03E0013B5F
:109A60009BB28B4220D002899207F8D5A3B28381A2
:109A70004FF47A7302E0A3B28B4215D00289D20769
:109A800003F1FF34F7D5828992B20DB12A70013506
:109A9000BCF1000F0BD00CF1FF3CFF24BEF1000F16
:109AA000E1D09EF80040D7E71EF0D4F9B76917B1AE
:109AB0003B68BA881A839DF805009DF801509DF80F
:109AC00002109DF803409DF804209DF8063041EAFD
:109AD000052143EA002342EA04220120A6F850109F
:109AE000A6F85220A6F8543003B0F0BD246905084A
:109AF0003122F4211EF076BA2DE9F04F87B00346EB
:109B0000039090F86100002840F02886039B93F8AA
:109B10005830072B00F019861823CDE90433039B36
:109B2000BD4CBE4EDFF80083BD4F10331846802277
:109B30006B2102931EF056FA6423DFF8F0E2B94875
:109B400001934FF01009DEF80430C3F30803002B33
:109B500040F0AA84EFF31183002B40F0A584256820
:109B6000826823689D42FAD13B689A42F7D8D6F8BA
:109B700000C04FF47A7101FB0CF39B1AB3FBFCF3AA
:109B800001FB05354FF47A7C4FF0010ADEF8043012
:109B9000C3F30803002B40F06884EFF31183002B1C
:109BA00040F063842368816822689342FAD13A685E
:109BB0009142F7D832680CFB02FBABEB0101B1FB21
:109BC000F2F10CFB03135B1BB3F57A7FDED3019B31
:109BD000013B0193B7D1072268210298DFF8488240
:109BE0008F4F1EF0FFF96423DFF840E28D480193A8
:109BF0004FF01009DEF80430C3F30803002B40F0E7
:109C00009784EFF31183002B40F0928425688268DB
:109C100023689D42FAD13B689A42F7D8D6F800C033
:109C20004FF47A7101FB0CF39B1AB3FBFCF301FBBD
:109C300005354FF47A7C4FF0010ADEF80430C3F3A7
:109C40000803002B40F0F383EFF31183002B40F067
:109C5000EE832368816822689342FAD13A68914280
:109C6000F7D832680CFB02FBABEB0101B1FBF2F160
:109C70000CFB03135B1BB3F57A7FDED3019B013B27
:109C80000193B7D11A466B210298DFF89C81644F8B
:109C90001EF0A8F96423DFF894E1624801934FF0C5
:109CA0001009DEF80430C3F30803002B40F01E84D3
:109CB000EFF31183002B40F0198425688268236834
:109CC0009D42FAD13B689A42F7D8D6F800C04FF4CB
:109CD0007A7101FB0CF39B1AB3FBFCF301FB053516
:109CE0004FF47A7C4FF0010ADEF80430C3F3080326
:109CF000002B40F07E83EFF31183002B40F079833B
:109D00002368816822689342FAD13A689142F7D871
:109D100032680CFB02FBABEB0101B1FBF2F10CFB77
:109D200003135B1BB3F57A7FDED3019B013B0193E9
:109D3000B7D101226B210298DFF8EC80384F1EF07A
:109D400051F90F23DFF8E4E0364801934FF0100992
:109D5000DEF80430C3F30803002B40F0D284EFF3A5
:109D60001183002B40F0CD842568826823689D42D2
:109D7000FAD13B689A42F7D8D6F800C04FF47A710E
:109D800001FB0CF39B1AB3FBFCF301FB05354FF40D
:109D90007A7C4FF0010ADEF80430C3F30803002B8D
:109DA00040F00983EFF31183002B40F00483236814
:109DB000816822689342FAD13A689142F7D83268B2
:109DC0000CFB02FBABEB0101B1FBF2F10CFB03134B
:109DD0005B1BB3F57A7FDED3019B013B0193B7D1C7
:109DE000059A0298DFF840800D4F1B211EF0FAF80B
:109DF0000F23DFF838E00B4801934FF01009DEF82D
:109E00000430C3F30803002B40F05984EFF31183AF
:109E1000002B40F054840BE038BF00203CBF0020F2
:109E200040BF002010E000E034BF002000ED00E063
:109E30002568826823689D42FAD13B689A42F7D828
:109E4000D6F800C04FF47A7101FB0CF39B1AB3FBF8
:109E5000FCF301FB05354FF47A7C4FF0010ADEF884
:109E60000430C3F30803002B40F08782EFF3118323
:109E7000002B40F082822368816822689342FAD1E5
:109E80003A689142F7D832680CFB02FBABEB010158
:109E9000B1FBF2F10CFB03135B1BB3F57A7FDED34E
:109EA000019B013B0193AAD1049A0298DFF8208319
:109EB000C54F1C211EF096F80F23DFF818E3C348A6
:109EC00001934FF01009DEF80430C3F30803002BB0
:109ED00040F0D483EFF31183002B40F0CF8325684B
:109EE000826823689D42FAD13B689A42F7D8D6F837
:109EF00000C04FF47A7101FB0CF39B1AB3FBFCF327
:109F000001FB05354FF47A7C4FF0010ADEF804308E
:109F1000C3F30803002B40F01282EFF31183002BF0
:109F200040F00D822368816822689342FAD13A6832
:109F30009142F7D832680CFB02FBABEB0101B1FB9D
:109F4000F2F10CFB03135B1BB3F57A7FDED3019BAD
:109F5000013B0193B7D1039A92F85B30032B00F2D7
:109F6000F28392F85E20012A0BD0022A40F0EB83A4
:109F7000039B93F8633003F0FB03022B0CBF00221A
:109F800007221A210298DFF848828F4F1EF02AF824
:109F90000F23DFF840E28D4801934FF01009DEF8FF
:109FA0000430C3F30803002B40F02683EFF3118342
:109FB000002B40F021832568826823689D42FAD1F6
:109FC0003B689A42F7D8D6F800C04FF47A7101FB8B
:109FD0000CF39B1AB3FBFCF301FB05354FF47A7CC1
:109FE0004FF0010ADEF80430C3F30803002B40F001
:109FF0008881EFF31183002B40F08381236881680F
:10A0000022689342FAD13A689142F7D832680CFB41
:10A0100002FBABEB0101B1FBF2F10CFB03135B1B89
:10A02000B3F57A7FDED3019B013B0193B7D1039B4C
:10A03000029893F86020DFF89881634F19211DF092
:10A04000D1FF6423DFF88CE1604801934FF01009E1
:10A05000DEF80430C3F30803002B40F0EE82EFF388
:10A060001183002B40F0E9822568826823689D42B5
:10A07000FAD13B689A42F7D8D6F800C04FF47A710B
:10A0800001FB0CF39B1AB3FBFCF301FB05354FF40A
:10A090007A7C4FF0010ADEF80430C3F30803002B8A
:10A0A00040F01181EFF31183002B40F00C81236805
:10A0B000816822689342FAD13A689142F7D83268AF
:10A0C0000CFB02FBABEB0101B1FBF2F10CFB031348
:10A0D0005B1BB3F57A7FDED3019B013B0193B7D1C4
:10A0E000102237210298DFF8E880374F1DF07AFF01
:10A0F0000F23DFF8E0E0354801934FF01009DEF858
:10A100000430C3F30803002B40F05582EFF31183B2
:10A11000002B40F050822568826823689D42FAD166
:10A120003B689A42F7D8D6F800C04FF47A7101FB29
:10A130000CF39B1AB3FBFCF301FB05354FF47A7C5F
:10A140004FF0010ADEF80430C3F30803002B40F09F
:10A150009C80EFF31183002B40F097802368816887
:10A1600022689342FAD13A689142F7D832680CFBE0
:10A1700002FBABEB0101B1FBF2F10CFB03135B1B28
:10A18000B3F57A7FDED3019B013B0193B7D10298EF
:10A19000DFF83C800C4F012238211DF023FF0F23F4
:10A1A000DFF830E0094801934FF01009DEF8043081
:10A1B000C3F30803002B40F0DD81EFF31183002B84
:10A1C00040F0D88108E000BF40BF002010E000E070
:10A1D00034BF002000ED00E02568826823689D42BE
:10A1E000FAD13B689A42F7D8D6F800C04FF47A719A
:10A1F00001FB0CF39B1AB3FBFCF301FB05354FF499
:10A200007A7C4FF0010ADEF80430C3F30803F3B997
:10A21000EFF31183DBB92368816822689342FAD196
:10A220003A689142F7D832680CFB02FBABEB0101B4
:10A23000B1FBF2F10CFB03135B1BB3F57A7FE2D3A6
:10A24000019B013B0193B1D107B0BDE8F08FEFF363
:10A25000118189F31288D0F808B00368DB0344BF8A
:10A26000C8F800A0D0F808B02368D8F80020C9B218
:10A2700081F31188316813440CFB01F2A2EB0B024D
:10A28000B2FBF1F20CFB0323D6E7EFF3118189F364
:10A290001288D0F808B00368DB0344BFC8F800A0F8
:10A2A000D0F808B02368D8F80020C9B281F311882B
:10A2B000316813440CFB01F2A2EB0B02B2FBF1F28A
:10A2C0000CFB03235BE7EFF3118189F31288D0F8CD
:10A2D00008B00368DB0344BFC8F800A0D0F808B09A
:10A2E0002368D8F80020C9B281F31188316813447B
:10A2F0000CFB01F2A2EB0B02B2FBF1F20CFB03230D
:10A30000E6E6EFF3118189F31288D0F808B003680C
:10A31000DB0344BFC8F800A0D0F808B02368D8F821
:10A320000020C9B281F31188316813440CFB01F29B
:10A33000A2EB0B02B2FBF1F20CFB03236FE6EFF38F
:10A34000118189F31288D0F808B00368DB0344BF99
:10A35000C8F800A0D0F808B02368D8F80020C9B227
:10A3600081F31188316813440CFB01F2A2EB0B025C
:10A37000B2FBF1F20CFB0323E5E5EFF3118189F366
:10A380001288D0F808B00368DB0344BFC8F800A007
:10A39000D0F808B02368D8F80020C9B281F311883A
:10A3A000316813440CFB01F2A2EB0B02B2FBF1F299
:10A3B0000CFB032370E5EFF3118189F31288D0F8C9
:10A3C00008B00368DB0344BFC8F800A0D0F808B0A9
:10A3D0002368D8F80020C9B281F31188316813448A
:10A3E0000CFB01F2A2EB0B02B2FBF1F20CFB03231C
:10A3F000EEE4EFF3118189F31288D0F808B0036816
:10A40000DB0344BFC8F800A0D0F808B02368D8F830
:10A410000020C9B281F31188316813440CFB01F2AA
:10A42000A2EB0B02B2FBF1F20CFB032379E4EFF396
:10A43000118189F31288D0F808B00368DB0344BFA8
:10A44000C8F800A0D0F808B02368D8F80020C9B236
:10A4500081F31188316813440CFB01F2A2EB0B026B
:10A46000B2FBF1F20CFB032304E4EFF3118189F357
:10A470001288D0F808B00368DB0344BFC8F800A016
:10A48000D0F808B02368D8F80020C9B281F3118849
:10A49000316813440CFB01F2A2EB0B02B2FBF1F2A8
:10A4A0000CFB0323FFF78FBBEFF3118389F31288B3
:10A4B000D0F808C00268D20304D50122C8F80020F1
:10A4C000D0F808C02568D8F800A0DBB283F3118863
:10A4D00031684FF47A72554402FB01F3A3EB0C038D
:10A4E000B3FBF1F302FB0535FFF74CBBEFF3118330
:10A4F00089F31288D0F808C00268D20304D501227B
:10A50000C8F80020D0F808C02568D8F800A0DBB251
:10A5100083F3118831684FF47A72554402FB01F3DA
:10A52000A3EB0C03B3FBF1F302FB0535FFF7D8BB3C
:10A53000EFF3118389F31288D0F808C00268D203C0
:10A5400004D50122C8F80020D0F808C02568D8F842
:10A5500000A0DBB283F3118831684FF47A7255445E
:10A5600002FB01F3A3EB0C03B3FBF1F302FB053594
:10A57000FFF75FBBEFF3118389F31288D0F808C0AF
:10A580000268D20304D50122C8F80020D0F808C020
:10A590002568D8F800A0DBB283F3118831684FF446
:10A5A0007A72554402FB01F3A3EB0C03B3FBF1F306
:10A5B00002FB053523E6EFF3118389F31288D0F807
:10A5C00008C00268D20304D50122C8F80020D0F8E0
:10A5D00008C02568D8F800A0DBB283F31188316881
:10A5E0004FF47A72554402FB01F3A3EB0C03B3FB67
:10A5F000F1F302FB0535A1E5EFF3118389F312882E
:10A60000D0F808C00268D20304D50122C8F800209F
:10A61000D0F808C02568D8F800A0DBB283F3118811
:10A6200031684FF47A72554402FB01F3A3EB0C033B
:10A63000B3FBF1F302FB0535D0E4EFF3118389F3AB
:10A640001288D0F808C00268D20304D50122C8F8E5
:10A650000020D0F808C02568D8F800A0DBB283F34A
:10A66000118831684FF47A72554402FB01F3A3EB71
:10A670000C03B3FBF1F302FB053508E5EFF311839F
:10A6800089F31288D0F808C00268D20304D50122E9
:10A69000C8F80020D0F808C02568D8F800A0DBB2C0
:10A6A00083F3118831684FF47A72554402FB01F349
:10A6B000A3EB0C03B3FBF1F302FB053522E4EFF34C
:10A6C000118389F31288D0F808C00268D20304D538
:10A6D0000122C8F80020D0F808C02568D8F800A0EA
:10A6E000DBB283F3118831684FF47A72554402FB70
:10A6F00001F3A3EB0C03B3FBF1F302FB0535FFF70A
:10A70000AABBEFF3118389F31288D0F808C002685E
:10A71000D20304D50122C8F80020D0F808C025686B
:10A72000D8F800A0DBB283F3118831684FF47A7255
:10A73000554402FB01F3A3EB0C03B3FBF1F302FB63
:10A740000535FFF724BB019A1BE4039B93F85D30AA
:10A750001BBB1023CDE90433FFF7E1B91D461BF005
:10A76000B1FF05F10C010446E8B1202300228371FA
:10A77000104BC271EB6044F011FDA388B3FA83F370
:10A78000C3F11F03012212FA03F33FF4BFA90A49E0
:10A790000A6813430B60FFF7B9B910211823CDE9FC
:10A7A0000413FFF7BCB9034BEB6044F0F7FCFFF771
:10A7B000ADB900BF85880008003C01404269774977
:10A7C000138823F040032DE9F04F1B041B0C13806A
:10A7D000138883B023F038031B048A4201904FEAA8
:10A7E000134300F0D08001F580618A420CBF28211C
:10A7F00030210B431380138843F040031380012062
:10A8000019F07CFD019C2046FFF776F9A36913B18E
:10A810001A689B885383019B586940F2E933828907
:10A8200002E0002B00F0B4800289013B12F0020F1D
:10A830009BB2F6D06A23838140F2E93302E0002B19
:10A8400000F0A6800289013B12F0010F9BB2F6D006
:10A850008389838940F2E93302E0002B00F0958080
:10A860000289013B12F0020F9BB2F6D010238381C4
:10A8700040F2E93302E0002B00F087800289013BBF
:10A8800012F0010F9BB2F6D08389019B9B6913B133
:10A890001A689B8813836423414CDFF81091DFF81A
:10A8A0001081404DDFF80CA13F4E009319F0D4FC0D
:10A8B0004FF47A774FF0100C4FF0010ED8F80430B7
:10A8C000C3F30803002B3FD1EFF31183002B3BD1DF
:10A8D0002368A96822689342FAD132689142F7D876
:10A8E000D9F8002007FB02FBABEB0101B1FBF2F151
:10A8F00007FB03131B1AB3F57A7FDFD3009B013BE1
:10A900000093D3D1019B25495A69138823F0400352
:10A910001B041B0C1380138823F038031B048A428A
:10A920004FEA134305D001F580618A4201D043F01C
:10A93000080313801388012043F04003138003B001
:10A94000BDE8F04F19F0DABCEFF311818CF31288F7
:10A95000D5F808B02B68DB0344BFCAF800E0D5F88F
:10A9600008B02368DAF80020C9B281F31188D9F859
:10A970000010134407FB01F2A2EB0B02B2FBF1F251
:10A9800007FB0323B6E7282133E71DF063FA7CE7D2
:10A990001DF060FA019B58695BE700BF003800407A
:10A9A00038BF002010E000E040BF00203CBF002086
:10A9B00000ED00E034BF00202DE9F84F037C026871
:10A9C0001F2B86BF203B51681168202202FA03F337
:10A9D0000B4214BF012300230BB9BDE8F88F456972
:10A9E000604F044619F038FC4FF4B27303FB057353
:10A9F00006461A7C002A35D15B495A680978D2F894
:10AA00000090D1B9D3F8D81058890A6822F0010211
:10AA10000A60B9F80C3023EA0003A9F80C30534B54
:10AA20001B78002B32D1237C21681F2B13D82022C6
:10AA300002FA03F38B60BDE8F88F5269136823F0C4
:10AA400001031360B9F80C3023F480731B041B0C52
:10AA5000A9F80C30E3E7203B202202FA03F3CB6095
:10AA6000BDE8F88FD3F8D86041485F8901225A7455
:10AA700031685A680368156821F001013160AA89BC
:10AA8000013322EA0702AA810360CCE74FF4B27ACD
:10AA90000AFB05FA07EB0A05D5F8D880404612F004
:10AAA00073FE01232B74D5F8DCB019F0D5FB0AF145
:10AAB0008C013944CBF82C01484612F025FFD5E92A
:10AAC0002B70D5F89830D5E92D123B4303430B4347
:10AAD0001343D5F8BC20D5F8CC70D8F80000254930
:10AAE0001343D5F8C0201343D5F8D0203B43014091
:10AAF00013430B430022C5F8A420C8F80030D8F84F
:10AB00001420D5F8C430D5F8A81022F0070CD5F8D9
:10AB1000C820D5E92770134343EA0C03C8F8143062
:10AB2000C8F80410C8F80870C8F80C00D8F800205D
:10AB3000D5F8D83095F8D400696842F01002C8F80A
:10AB4000002058601A68096842F001021A608B8977
:10AB50006A8913438B8119F07FFB074B801B1860B8
:10AB600061E700BF0CCC0020B4300010B030001002
:10AB7000044300203F801CF05C2F001038B5894A48
:10AB8000894B12781B789A4240F00581874B1A78DE
:10AB9000002A68D0864B1978864B002964D1186842
:10ABA000B3F8305141628489012A44EA0504848162
:10ABB000A3F8301157D0D3F83401B3F8645241628E
:10ABC0008489022A44EA05048481A3F864124AD0E5
:10ABD000D3F86802B3F8985341628489032A44EA9F
:10ABE00005048481A3F898133DD0D3F89C03B3F8EF
:10ABF000CC5441628489042A44EA05048481A3F880
:10AC0000CC1430D0D3F8D004B3F800564162848914
:10AC1000052A44EA05048481A3F8001623D0D3F85A
:10AC20000406B3F8345741628489062A44EA0504CD
:10AC30008481A3F8341716D0D3F83807B3F86858CE
:10AC400041628489072A44EA05048481A3F86818CC
:10AC500009D0D3F86C28B3F89C49516290892043FD
:10AC60009081A3F89C1938BD5C68198961602568DA
:10AC7000186845F0010540F20D312560A0F8481034
:10AC80008489012A44F480748481ECD0D3F838415B
:10AC9000B3F83C51D3F834016560256845F00105EF
:10ACA0002560A0F848108489022A44F480748481C5
:10ACB000D9D0D3F86C42B3F87052D3F8680265600B
:10ACC000256845F001052560A0F848108489032A0D
:10ACD00044F480748481C6D0D3F8A043B3F8A4535D
:10ACE000D3F89C036560256845F001052560A0F850
:10ACF00048108489042A44F480748481B3D0D3F842
:10AD0000D444B3F8D854D3F8D0046560256845F02E
:10AD100001052560A0F848108489052A44F4807450
:10AD20008481A0D0D3F80846B3F80C56D3F80406B3
:10AD30006560256845F001052560A0F84810848904
:10AD4000062A44F4807484818DD0D3F83C47B3F84C
:10AD50004057D3F838076560256845F00105256040
:10AD6000A0F848108489072A44F4807484813FF451
:10AD70007AAFD3F87028B3F87408D3F86C38506001
:10AD8000106840F001001060A3F848109A8942F45E
:10AD900080729A8138BD0AF03FFB00287FF4F6AE3E
:10ADA00038BD00BFA0420020A1420020B8300010F2
:10ADB000B43000102CD7002020B10078B0FA80F019
:10ADC000400970470120704708B520214BF033FD42
:10ADD0000346184623B10278202A03F10103F8D074
:10ADE00008BD037903F01803082B0AD002D82BB151
:10ADF00000207047102B16D0182BF9D1B0F80B009B
:10AE00007047124BB0F80B0093F90030591C06BF85
:10AE10000F4B1B78DBB2C3EBC30203EB820300EBE7
:10AE2000830080B270470B4BB0F80B0093F90030F1
:10AE30005A1C06BF064B5B78DBB203EB430203EB05
:10AE4000820300EB430080B2704700BFAD0E0020CC
:10AE500068C90020AC0E0020F0B5067906F0E003CA
:10AE6000402B09D144794FF0FF350023012006F033
:10AE70000706A3420BD1F0BD602B08BF45794FF008
:10AE800001040CBF04FA05F54FF0FF35EDE7042E81
:10AE90000CD8DFE806F0030D18242E0030B1C85C92
:10AEA000D75C784028420CBF012000200133E0E746
:10AEB0000028FBD0C856D756A0EB070CDCF10000E9
:10AEC00040EB0C00F2E70028F0D031F8130032F824
:10AED0001370784028420CBF01200020E6E70028CC
:10AEE000E4D031F9130032F91370C71B784278416E
:10AEF000DCE70028DAD051F8230052F823707840BC
:10AF000028420CBF01200020D0E7024B0146186800
:10AF10001DF012B9B07A002038B5064D441E14F861
:10AF2000011F286819B9BDE838401DF0B9B81DF0F7
:10AF300003F9F4E7B07A00200048EDE7AC240608F6
:10AF400008B5FFF7E9FFBDE80840F5E710B504468E
:10AF50000348FFF7E1FF2046BDE81040F0E700BFDF
:10AF60009CE5050838B5074C074DAC4203D3074BA9
:10AF700000221A7038BD6288D4E901014AF01EF936
:10AF80001434F2E7900100088007000838B400206C
:10AF900038B5074C074DAC4203D3074B01221A705A
:10AFA00038BD6288D4E901104AF008F91434F2E798
:10AFB000900100088007000838B40020024A136896
:10AFC00023EA00001060704728E10020DFED2E7AB0
:10AFD000B4EEE70AF1EE10FA4ADDDFED2C6A9FEDE0
:10AFE0002C7A01E0B0EE670AB4EEC70AF1EE10FA6F
:10AFF00070EE667AF6DC9FED277AF4EEC77AF1EE12
:10B0000010FA3ED5DFED216A9FED237A01E0F0EEE4
:10B01000407AF4EEC77AF1EE10FA37EEA60AF6D4CB
:10B02000DFED1E7AB4EEE70AF1EE10FA14DDDFED83
:10B03000167A37EEC00A60EE006A9FED196A9FED3E
:10B04000197ADFED197AA6EE867A20EE266AE6EE08
:10B05000877AA6EE270A7047DFED147AB4EEE70A86
:10B06000F1EE10FA44BFDFED0B7A37EEC00AE2E7EB
:10B070009FED087AF0EE407AF4EEC77AF1EE10FA1E
:10B08000C0D4B0EE670ACBE7DB0F4940DB0FC94005
:10B09000E4CB1641DB0F49C0E4CB16C1DB0FC93F3F
:10B0A00092E741B99730083C15A82ABEDB0FC9BF0B
:10B0B000F0EEC07AB0EEE07AB4EEE77AF1EE10FA94
:10B0C000B4BFB0EE676AB0EE476AB5EE406AF1EE23
:10B0D00010FA46D0B4EEE77AF1EE10FA8CBFF0EE3B
:10B0E000675AF0EE475AC5EE866A9FED1F3A9FED0C
:10B0F0001F6A9FED1F4A9FED1F5ADFED1F3ADFEDDC
:10B100001F4ADFED1F5AA6EEC36AE6EEA34AA6EE7B
:10B11000864AB7EE006AA6EE845AA6EEA46AE6EE68
:10B12000855AC5EE866AB4EEE77AF1EE10FA48BFAA
:10B13000DFED147AF5EEC00A48BF77EEE66AF1EE6D
:10B1400010FA48BFDFED107AB5EEC00A48BF77EEBF
:10B15000E66AF1EE10FA48BFF1EE666AB0EE660AF2
:10B160007047DFED076ADEE739094E3DE3B59E3EE5
:10B1700088FA163E45FE7F3F99FB243F69A2163EA2
:10B18000A7DFA834DB0FC93FDB0F4940DFED317A81
:10B1900030EE277AFDEEC76A16EE903A2033402B48
:10B1A00002D99FED2D0A7047B4EEE70AF1EE10FACE
:10B1B0004DDD9FED2A6ADFED2A6A01E0B0EE677A85
:10B1C000B4EEE67AF1EE10FA77EE467AF6DC9FED11
:10B1D000257AF4EEC77AF1EE10FA35D5DFED1F6A65
:10B1E0009FED217A01E0F0EE407AF4EEC77AF1EEBD
:10B1F00010FA37EEA60AF6D4DFED167AB4EEE70AB7
:10B20000F1EE10FA1BDCDFED197AB4EEE70AF1EE8D
:10B2100010FA44BFDFED137A37EEC00A60EE006A21
:10B220009FED136A9FED137ADFED137AA6EE867A0F
:10B2300020EE266AE6EE877AA6EE270A7047DFED53
:10B240000F7A37EEC00AE9E7B0EE670AD4E7F0EE0E
:10B25000477ABCE7DB0FC93F00000000DB0FC940A5
:10B26000E4CB1641DB0F49C0E4CB16C1DB0FC9BFED
:10B2700092E741B99730083C15A82ABEDB0F494038
:10B2800010B44C09012250F8243001F01F0102FAD9
:10B2900001F123EA010340F824305DF8044B7047C4
:10B2A00010B44C09012250F8243001F01F0102FAB9
:10B2B00001F10B4340F824305DF8044B704700BFA8
:10B2C0004B0901F01F0150F82320012303FA01F17B
:10B2D000114214BF18460020704700BF2DE9F0430B
:10B2E000002489B006460D461F46A04605E02529E4
:10B2F0000CD030460134A847039A531C03931178AD
:10B300000029F4D1204609B0BDE8F083931CCDE9B3
:10B3100003385078302842D0A0F13003DBB2092B3B
:10B320004FF0000945D96C282AD0642873D019D968
:10B33000732858D063D9752840F0828007F1040C37
:10B34000386805AB00220A216746FCF789FF05AB88
:10B35000049A009329464B463046FCF757FE039A61
:10B360000444CAE725283CD051D958286BD063281B
:10B37000C2D139783046A84704370134039ABCE774
:10B38000039B5A1C03921B78642B52D016D8252B92
:10B3900027D064D9582B18D0632BEAD0ADE7D31C43
:10B3A00003939078A0F13003DBB2092B4FF0010931
:10B3B000B9D804AA03A945F037FDB4E7732B12D01E
:10B3C00051D9752B2DD0782B97D1A3F15802B2FA11
:10B3D00082F23868520905AB10210437FCF740FFB0
:10B3E000B5E7252185E73B68049A009329460023A9
:10B3F0003046FCF70BFE04370444039A7DE76E28C1
:10B400007FF47AAF039A3B6804371C6075E7002825
:10B410003FF478AF70E7386805A9FCF7EBFE043716
:10B4200095E7386805AB00220A21FCF719FF0437BD
:10B430008DE73B1D386805A91F46FCF7DBFE86E754
:10B4400078287FF459AFA0F15802B2FA82F2386836
:10B45000520905AB1021FCF703FF043777E7002BF7
:10B460003FF450AF49E76E2BCDD046E710B5064C00
:10B470000B46024605492068FFF730FF2068BDE80B
:10B4800010401CF00DBE00BFB07A0020318D0008C6
:10B4900038B504460D460848FFF73EFD29462046CC
:10B4A000FFF7E4FF0548FFF737FD054B1B7813B1A5
:10B4B000044B01221A7038BDA1E50508ACE505086A
:10B4C0000C7C00200D7C00200FB407B504A951F8B6
:10B4D000040B0191FFF7DCFFFFF72EFD03B05DF8D1
:10B4E00004EB04B0704713460A4601460048EBE7F8
:10B4F000B0E505080048E7E7C9E505080FB407B55A
:10B5000004A951F8040B0191FFF7C2FF03B05DF8E5
:10B5100004EB04B070470FB407B504A951F8040B4D
:10B520000191FFF7A3FFFFF707FD03B05DF804EB00
:10B5300004B070470FB407B504A951F8040B01918A
:10B54000FFF794FF03B05DF804EB04B070472DE9FA
:10B55000F843037903F0E001202928D002D849B14B
:10B56000BDE8F883402945D06029F9D12448BDE8D9
:10B57000F843D0E703F00703022B02D0042B08D0D6
:10B580006BB9B0F80720B0F805101E48BDE8F843C5
:10B59000C1E7D0F805201B48BDE8F843BBE7B0F988
:10B5A0000720B0F905101748BDE8F843B3E745791F
:10B5B000154E1648FFF7B0FC06EBC502002492F8C2
:10B5C00004800123A04502D8BDE8F843B4E456F84E
:10B5D000357057F824204FEA84094AB113B90C4852
:10B5E000FFF79AFC57F809100A48FFF7A3FF00235A
:10B5F0000134E7E741790848BDE8F8438BE700BF2D
:10B6000011E60508D5E50508F4B10508ECE50508DF
:10B61000FDE5050873F0050800E605082DE9F04191
:10B620001746027902F0E003402B05460E462BD167
:10B630000024554FDFF8708115E02B7903F00703E4
:10B64000022B15D0032B19D0012B14BF315D3157BC
:10B650003846FFF76FFF6B79013BA34202DD40469E
:10B66000FFF75AFC01346B79A342E6DCBDE8F081B8
:10B6700036F814103846FFF75DFFECE736F9141082
:10B680003846FFF757FFE6E702F00702042A5DD8C5
:10B69000DFE802F0031D25272A003478202B3AD05A
:10B6A00068D8002BE2D1B5F80560B5F807803648B8
:10B6B0002146FFF73FFFA64240DCA0453EDB002FBE
:10B6C000D4D0424631463148BDE8F04132E796F9E0
:10B6D0000040202B1FD04DD8002B3DD0C6E734882A
:10B6E000DCE7B6F90040F4E7D6F80080202B4446AA
:10B6F00011D03FD8002BB9D141462348FFF71AFF9C
:10B70000D5F80510884519D8002FAFD02048BDE8DE
:10B71000F0410FE700246A791E4B03EBC20109795F
:10B72000A1420BDD53F8323053F82400BDE8F0415C
:10B73000FFF7F2BB1848BDE8F041FBE6FFF7FCFB62
:10B74000224629681548BDE8F041D7E6202BE1D014
:10B7500007D8002B8AD11C46B5F90560B5F90780DA
:10B76000A5E7602BE6D0802B80D131460C48BDE8A0
:10B77000F041DFE6602BF6D16A791441E307D9D5B1
:10B780000848BDE8F041D5E6E9E50508371906089F
:10B790002BE60508F4B105080AFE050831E60508A0
:10B7A00073F0050826E6050829E605080CB407B578
:10B7B00010F020000BD079B92320FFF7A6FB05A9D4
:10B7C00004980191FFF752FEFFF7B6FB012003B08A
:10B7D0005DF804EB02B070470020F8E70CB4C30634
:10B7E00007B500D561B905A904980191FFF73EFEA0
:10B7F000FFF7A2FB012003B05DF804EB02B0704735
:10B800000020F8E70EB400B584B005AB019053F802
:10B81000042B0649039301A8FFF760FD019B00225A
:10B820001A7004B05DF804EB03B0704701800008A3
:10B8300070B406688E4217D90139751E002311F8BD
:10B84000014F0822634013F0800F4FEA430318BFF3
:10B8500083F0D503013ADBB2F5D18D42EFD1721CF2
:10B860000260337070BC7047721C0023026033703A
:10B8700070BC70470A44914215D010B40139541E6F
:10B8800011F8012F0823504010F0800F4FEA4000BC
:10B8900018BF80F0D500013BC0B2F5D1A142EFD175
:10B8A0005DF8044B704770474840082310F0800F44
:10B8B0004FEA400018BF80F0D500013BC0B2F5D17F
:10B8C000704700BF0A44914215D030B40139551E6B
:10B8D00041F2210211F8014F082380EA04200404F8
:10B8E0004CBF82EA40004000013B80B2F7D18D425C
:10B8F000F0D130BC7047704770B502221349144C28
:10B90000144E4FF6FF70FFF7DDFF22884AB1A518ED
:10B91000B54218D2052A16D92146FFF7D3FF2C4687
:10B92000F3E721460222FFF7CDFF0222A118FFF71D
:10B93000C9FF094BE41A094B1C8041F60F53C31A87
:10B940005842584170BD0020FCE700BF004000088D
:10B950000240000800800008FA3F00083AB40020C6
:10B960000F4B2DE93048D3E9004554EA05020AD1CE
:10B97000034640F2011200201880988098715A8086
:10B980001881BDE83088074B1A6814EB020B45F1AB
:10B99000000C5A466346FCF775FB0120BDE8308871
:10B9A0003061002038BF002030B403888278C4782A
:10B9B000154DA3F5FA6303F0030101EB4101013AD0
:10B9C00002EB81029B0835F812500279611E40F2A9
:10B9D000B55404FB03132B4403EB430302EBC303F3
:10B9E0004279847909490089C3EB031302EB83038D
:10B9F0002144C3EB031301EB83034FF47A7200215C
:10BA0000C2FB030130BC7047B068050880436D3845
:10BA10002DE9F04707468CB01E469246002A5CD1BD
:10BA2000154614460A88B2F5FA6F36D38B78581E3D
:10BA30000B2832D891F803C00CF1FF301E282CD807
:10BA400091F804E0BEF1170F27D891F80590B9F1ED
:10BA50003B0F22D888793B281FD8B1F80880B8F569
:10BA60007A7F1AD24FF001085EBB09890491002C3D
:10BA7000B4BF2D212B21002CB8BF6442CDE9029028
:10BA8000CDE905140795CDE900CE38462A49FFF7E0
:10BA9000B9FE40460CB0BDE8F08700232749ADF859
:10BAA00028304FF0010C18468DF82A30ADF82C30B4
:10BAB00099469E461A4698460991634609A9002E62
:10BAC000D3D0CDE90290CDE900CE38461C49FFF72E
:10BAD00099FE40460CB0BDE8F0871A4C84FB023456
:10BAE000A318D417C4EB6314C4EB0415A2EB8505AB
:10BAF0002DB2002D0846B8BF6D42FFF755FF4FF439
:10BB00007A7200238046894649F0BAF83C230AFB42
:10BB1000030A4FF47A7200234046494649F0B0F8D0
:10BB20004FF47A7192B20023C1FB0A2309A8FCF7F3
:10BB3000A9FA24B209A975E71CE70508000001016C
:10BB4000FCE60508898888880378202B024600F1E6
:10BB50000100F9D0092BF7D02D2B00F0A4802B2B5E
:10BB600003BF5378B7EE000A0246B7EE000AA3F10E
:10BB70003001C8B209289FED577A10D8F2EE046A56
:10BB800007EE901AF8EEE77A12F8013FE7EE267A10
:10BB9000A3F13001C8B20928B0EE677AF0D92E2B94
:10BBA00063D003F0DF03452B02D020EE070A704775
:10BBB00010B451782D294FD02B2979D0A1F1300321
:10BBC000092B02F101027AD80024002303EB83033E
:10BBD00001EB430312F8011FA1F130000928A3F182
:10BBE0003003F3D9B3F59A7F1A4628BF4FF49A72FF
:10BBF000072B6CD9DFED386A1346F7EE007A083B65
