:020000040800F2
:10000000F0FF00101D0D05086D80030829B20108DE
:10001000BD0D0508BD0D0508BD0D0508000000005B
:1000200000000000000000000000000079800308CC
:100030007580030800000000718003088DB201087C
:10004000BD0D0508BD0D0508BD0D0508BD0D050854
:10005000BD0D0508BD0D050881A90008ADAA000861
:1000600071AA000835AA0008F9A900087924010836
:10007000692401085924010849240108352401088C
:10008000212401080D240108BD0D0508BD0D05083A
:10009000BD0D0508BD0D0508BD0D0508BDA900086D
:1000A00061470108FD4C010891460108D94D01083E
:1000B0003D4C01087D4B0108B14A0108CD340108CF
:1000C000D5340108C1340108C9340108BD0D050843
:1000D000BD0D05089DA1000859B40108BDB3010874
:1000E00045A90008BD0D050869C50308C1450108FB
:1000F00031480108F144010811490108F9230108B8
:10010000BD0D0508BD0D0508E1490108BD0D050837
:10011000BD0D0508BD0D0508A595020891950208BD
:10012000E5230108D1230108BD230108A923010803
:1001300095230108BD0D0508BD0D0508BD0D050879
:10014000BD0D0508BD0D0508BD0D0508219103086D
:10015000812301086D2301085923010821B30108F7
:10016000B5340108BD340108BD0D0508BD0D0508F5
:10017000BD0D0508BD0D0508BD0D0508BD0D050823
:08018000BD0D0508BD0D0508C9
:08018800C4080500010000009D
:10019000020203003C170020381700200000000076
:1001A000000000001002010044170020401700204A
:1001B00000000000440700081F021000581700202C
:1001C0004817002000000000FD8D00081A023C00C6
:1001D000681800204C1B002000000000D19C000883
:1001E0002700040064180020881B00200000000085
:1001F0004607000838100100841700208C1B0020DF
:10020000000000004A070008F6210C00B825002075
:100210000C260020000000004C07000820320A00D5
:10022000682600205C2600200000000019C6010896
:100230001C0210007C220020742600200000000018
:10024000C18A0008281010004C25002084260020B8
:100250000000000095C6010801200C006C1E002063
:100260009426002000000000580700080A702800AB
:10027000C81D0020A02600200000000039C601088B
:100280000EA05C016C1C0020C826002000000000AD
:10029000C1C9030801010400D01B0020242800204C
:1002A000000000000000000000010400C81B002046
:1002B0002828002000000000640700080201030055
:1002C000C41B00202C28002000000000ED5E020866
:1002D00007020200BC2E0020402F0020000000007A
:1002E0006807000803123D00E02E0020442F002084
:1002F000000000006A07000802000C00942E002095
:10030000842F0020000000000000000006020C0006
:10031000882E0020902F002000000000A1990008E6
:1003200008120F000C2E00209C2F0020000000005F
:10033000058C0008F7010600042E0020AC2F0020D9
:1003400000000000A80700081D020200002E002087
:10035000B42F002000000000AE0700080A020A00C7
:10036000C82B0020B82F002000000000ED6E02080E
:1003700003000100F42D0020C42F00200000000025
:100380000000000010100200982B0020C82F002051
:1003900000000000B007000825102C01DC2B002015
:1003A000CC2F0020000000000000000022021401F9
:1003B000E8480020384B002000000000DD9D0008C8
:1003C0000C109C004C3900204C4C00200000000018
:1003D000C15E02080002050030390020E84C002010
:1003E00000000000000000001B0210000439002083
:1003F000F04C002000000000ED8A00081E000600FE
:100400005C360020004D002000000000B40700080A
:100410001B100C004C330020084D00200000000091
:100420002D0803082102F000CC310020144D0020DB
:100430000000000021F5020823121000703B00208C
:10044000044E002000000000BC0700083710280000
:100450008C380020144E002000000000CC0700085B
:100460000E0202006C3B00203C4E00200000000009
:10047000F407000816100600C0310020404E00208E
:1004800000000000F60700082F102200144B002087
:10049000484E002000000000FC0700080510060080
:1004A000483500206C4E0020000000001E080008A7
:1004B0001220100038350020744E0020000000008B
:1004C0002408000823100E00AC350020844E0020C4
:1004D00000000000B7C60108F5518C00F83000207C
:1004E000944E0020000000003542030826100C0046
:1004F0002C4F0020204F002000000000E1E90208FE
:1005000014000300FC68002068690020000000005F
:10051000340800080B301A00F45900206C690020E0
:1005200000000000380800081F302400105A002086
:10053000886900200000000054080008050204003B
:1005400090640020AC6900200000000078080008DA
:1005500003010A00505A0020B0690020000000008A
:100560007C0800081302040064580020BC690020C5
:1005700000000000860800081900050080700020B7
:1005800044710020000000008A0800081A000E00D4
:100590000C7000204C710020000000009008000842
:1005A000F8210600E06E00205C71002000000000D1
:1005B0009E08000815007000586D0020647100202E
:1005C00000000000000000002A006000E47000202D
:1005D000D47100200000000099C903082C0010000D
:1005E0004472002034720020000000003DC6030861
:1005F0002B002400787200205472002000000000BC
:100600000DC6030829207800446B00209C7200204E
:1006100000000000000000000D002C006CA1002074
:10062000F8A10020000000009D6B040809020100F1
:10063000D8A0002024A2002000000000A408000888
:100640000400800058A0002028A200200000000024
:1006500000000000F901040038A00020A8A200203A
:1006600000000000A18100081300040034A0002055
:10067000ACA2002000000000A8080008FD011E0038
:1006800014A00020B0A20020000000002981000872
:1006900018202E00E09F0020D0A2002000000000C3
:1006A0006D9D000806101A00008B002000A300209A
:1006B000000000001DCA0308FB010100FC8A0020A5
:1006C0001CA3002000000000819E0008FC0109001E
:1006D000C889002020A3002000000000919E00088F
:1006E00016023F00888900202CA300200000000093
:1006F000258B000834001000B88800206CA300206F
:1007000000000000F1C903081102080090880020D1
:100710007CA3002000000000AC08000812120400B6
:100720008888002084A3002000000000B40800088E
:10073000FE011400007F002088A3002000000000BC
:04074000018B000821
:100744000000200300000000000000000100000081
:1007540002020000E8036400040A000114001E0001
:1007640090010000023C00000000000000000000B6
:100774000000000000000000000000000000000075
:100784000000000000000000000000000000000065
:100794000000000000000000000000000000000055
:1007A400000001002001000000000000000500001E
:1007B4000000010000000000000000000000000034
:1007C400000000000000000020003200C800D00734
:1007D4009600140032002800B004400600055000C2
:1007E40014000F00080064000100010005000A0065
:1007F4000000C4090000190000000000000000000F
:1008040000000000000000000000000000000000E4
:1008140000000000000000000000200003010000B0
:10082400000000010000055541565000000800007A
:1008340003000000AE014A015E012C0164010200C4
:10084400000001000A019A01001E0A0000000000D5
:100854000000000000010000000500000102030088
:100864000000000000000000000000000000000084
:100874000080070000000000040101006C16000065
:100884000000000001000000280100007E05EA05C8
:10089400B4053200E803D00700000401F401140099
:1008A40012000000080040300000000001010101B6
:0408B400FFFFFFFF44
:1008B800FFFF0000CCD10508000008020503030073
:1008C800D4D1050801000802050403006CF90508E5
:1008D8000200FE0101100300DCD105080300140228
:1008E80000030000E4D1050804001F02010008000D
:1008F800ECD1050805001F0201010800FFFFFFFFFA
:1009080000000000000000000102030406070809B7
:10091800685E0C0001000000A00F0000B80B00008A
:100928000102FFFF01FF000001000000A5BC010853
:10093800000000005C4F050820700020702D720038
:10094800FFFFFFFFD6010000B80B00000101010006
:1009580000010101002D202D2D202D2D2D2D202DC4
:100968002D2D000000000000000000000000000025
:1009780000000000000000000000000054670508A7
:100988000000000000000000E0670508010000000A
:10099800FA00000001000000010000000101000051
:1009A8006A1E00200000F40101000000681E0020FB
:1009B8000000F40101000000661E00200000F401A0
:1009C80001000000641E00200000F4010100000086
:1009D800621E00200000F40101000000601E0020DB
:1009E8000000F401010000005E1E00200000F40178
:1009F80001000000A5C4010869C401088C55050858
:100A0800581E002005320100561E0020E803D007BA
:100A180001000000541E0020E803D0070100000078
:100A2800521E0020E803D00701000000501E0020DD
:100A38001E00B80B010000004E1E00201E00F4012D
:100A4800010000004C1E002014006400010000009A
:100A58005A1E00203200E803010000004A1E002050
:100A68000000C800010000001E1E002000C8010090
:100A78001D1E0020005001001C1E0020005A01000D
:100A88001A1E0020020000001856050808E2050892
:100A980010E20508E2A100200100C40900000000DE
:100AA800E0A100200100C40900000000DEA1002030
:100AB8000100C40900000000DCA100200100C409F5
:100AC80000000000D8A100200100C40900000000B7
:100AD800DAA100200100C40900000000D6A100200E
:100AE8000100C40900000000D4A100200100C409CD
:100AF80000000000E51B002000C80100E41B0020E6
:100B080000C80100E21B00200100C800010000002D
:100B1800E01B00203200307532000000DF1B00208F
:100B2800055A0500DC1B002000FF0100DE1B002029
:100B38000100000064030020DA1B0020030000000D
:100B4800B4750508DB1B002000FF0100DD1B002039
:100B58000100000064030020D91B002003000000EE
:100B6800B475050819C40108C9C301082456050845
:100B78007C1E0020EE02CA08010000007A1E002038
:100B880000C8010064000000791E002000C80100B0
:100B980064000000781E002002000000E8560508E6
:100BA800D61B002080C1803E05000000D41B002019
:100BB80080C1803E05000000CE1B002080C1803E21
:100BC80005000000CC1B002080C1803E050000000D
:100BD800C71B002000FF0100C01B00206400F401B7
:100BE80001000000BF1B002004000000F4560508A7
:100BF800BE1B002002000000085705085B1C0020EF
:100C08000D00000014570508581C0020006401005E
:100C1800561C0020320010270A000000551C002036
:100C28000D00000014570508541C00200D0000009A
:100C380014570508531C0020020000004C570508F3
:100C48000000000000000000585705084864002014
:100C58009CFF2C0100000000C2210020E0150C17A9
:100C680000000000C4210020020000009057050881
:100C7800881E00200100FF7F01000000871E002061
:100C8800020000009C5705085D1C002003000000BE
:100C9800AC5705085C1C002003000000AC57050891
:100CA800FC1D00200000E80301000000FA1D0020E0
:100CB8000000E80301000000F81D00200000E80320
:100CC80001000000F61D00200000E80301000000FC
:100CD800F41D00200000E80301000000F21D0020C0
:100CE8000000E80301000000F11D002000140100CD
:100CF800F01D002003000000BC570508081E002056
:100D08000000F40101000000061E00200000F401AC
:100D180001000000041E00200000F4010100000092
:100D2800021E00200000F40101000000001E002047
:100D38000000803E01000000FE1D00200000803EF3
:100D480001000000311E002019640100301E00203F
:100D580002000000CC5705082E1E0020E803D0072B
:100D68000A0000002C1E0020006401000A00000098
:100D7800211E002000640100201E002000640100E4
:100D8800281E0020006401000A000000271E002021
:100D9800006401000A000000261E00200064010013
:100DA8000A0000002B1E0020006401000A00000059
:100DB8002A1E0020006401000A000000291E0020ED
:100DC800006401000A000000251E002001FF010048
:100DD8000A000000241E002001FF01000A00000094
:100DE800231E002001FF01000A000000661C0020ED
:100DF8000000F40101000000641C00200000F40160
:100E080001000000621C00200000F4010100000045
:100E1800601C00200000F401010000005E1C00209E
:100E28000000F40101000000191E00200064010008
:100E3800181E002000640100171E00200064010035
:100E4800161E0020FF080100151E00200164010085
:100E580095C2010859C20108D8570508141E002078
:100E680000640100121E00201400E80301000000C5
:100E7800101E0020E80330750A0000000E1E002036
:100E880000C801000D1E002000C801000C1E002033
:100E980000C801000B1E0020006401000A000000C9
:100EA800481E00200000D00701000000431E00205B
:100EB80000C80100421E002000C80100411E002099
:100EC80000C80100461E00200000D00701000000F5
:100ED800401E002000C801003F1E002000C801007D
:100EE8003E1E002000C80100441E00200000D0075C
:100EF800010000003D1E002000C801003C1E00202B
:100F080000C801003B1E002000C8010000000000CE
:100F1800C9BF010848580508511C002035000000C9
:100F2800E4580508501C002000C801004E1C002091
:100F3800E803D00701000000554156504E473033B2
:100F4800304D494E4900000015BF0108D9BE0108BF
:100F5800BC59050895BE010849BE01082C5A050868
:100F680051BF0108E9E40108AC5A0508D81B002064
:100F7800010301000DC50108E1C40108A05D0508D1
:100F8800F1BD0108B1BD0108105E0508DFBF010809
:100F980029F20108AC5E0508A5E001080000000080
:100FA800545F050875E201086DC50108F05F050882
:100FB80031C00108000000006060050809C101088F
:100FC800B5C00108C460050899C101085DC10108E0
:100FD80060610508D1C2010819C30108E06105086C
:100FE8001F1E00200106010079C0010845C0010844
:100FF800DC620508D5C101084DE501084C63050808
:101008004DC30108D5E501082C6405080A1E002017
:101018000103010099BF010869BF010800650508BF
:1010280039C50108000000006465050831BE0108E3
:10103800D1E40108C86505080000000000000000B0
:101048002C660508A1C301084DE60108AC66050831
:10105800BA1B002088136F1701000000BC1B00207A
:1010680088136F1700000000B25A0020000000002B
:1010780000000000B05A002000000000000000003E
:10108800AE5A00200000000000000000AC5A00200A
:101098000000000000000000AA5A00200000000024
:1010A80000000000A85A0020000000000000000016
:1010B800BC0C00200000000000000000901B002075
:1010C8000200000034680508B81B002088136F1759
:1010D800010000008864002088136F1700000000DA
:1010E80045BD010800000000406805080E220020E8
:1010F80001000000946805088A64002001000000CF
:10110800A06805088064002002000000A86805089F
:101118000000000000000000B468050831BD0108A7
:1011280000000000506905080000000000000000F1
:10113800A46905080000000000000000146A050802
:1011480084640020E0150C17000000000000803FB8
:101158000000803F000000000000000000000000C8
:10116800FFFFFFFF00000000302F002008000000F4
:1011780000000000202F002008000000E8F7050804
:10118800F4F7050800F805080CF8050818F805082C
:1011980024F80508D4F0050878AA050854A9050814
:1011A80090F7050814D60508D8F70508DCF70508F0
:1011B800E0F70508E4F7050830F8050834F80508ED
:1011C80038F8050888A705083CF805081900C8007C
:1011D800F40120030100000000000100FFFFFFFFF1
:1011E80001FFFFFF0403090412010002EF0201409E
:1011F80083045632000201020301000012010002BA
:10120800020200408304405700020102030100006B
:1012180009026400030100C0320904000001030050
:101228000000092111010001222600070583030897
:10123800000A080B01020202010009040100010270
:101248000201000524001001052401000204240203
:10125800020524060102070582030800FF090402AB
:1012680000020A000000070501024000000705818E
:101278000240000009024300020100C032090400D4
:1012880000010202010005240010010524010001EB
:10129800042402020524060001070582030800FF52
:1012A80009040100020A00000007050102400000CD
:1012B8000705810240000000FF00000018780508BB
:1012C8000000000000000000000000000000000016
:1012D8000000000000000000000000000000000006
:1012E8000000000000FFFF0000000000AA550501F3
:1012F80000000100EC770508000000000000000075
:1013080000000000000000000000000000000000D5
:10131800000000000000000000000000FF1FFF1F89
:1013280005010905A101A1000501093009310932AA
:10133800093309350934094009381581257F7508AD
:1013480095088102C0C0000009022200010100E0E6
:101358003209040000010301020009211101000102
:101368002226000705830308000A00000000000089
:10137800010203040102030406070809B5830308F0
:10138800B9820308F9850308E95F03082D63030898
:10139800F95F030815600308C15F0308B15F03081C
:1013A80000000000000000002D202D2D202D2D2DE7
:1013B8002D202D2D2D2D0000000000000000000024
:1013C80000000000000000AA550B010000AA550704
:1013D800010000AA550902000000AA5503009F0059
:1013E80001000000C01200003C690020000000005D
:1013F80060690020000000007D000000FFFFFFFF83
:101408000000803F00000000000000000000000015
:101418000000803F00000000000000000000000005
:1014280000000000000000000000000000000000B4
:1014380000000000000000000000803F00000000E5
:101448000000000000000000010000000D65030816
:10145800B1620308D585030800000000AD5F0308EA
:10146800A5820308796403081D82030800000000B0
:1014780000000000695F03087D64030871620308C7
:101488001585030800000000815F03082182030816
:101498004D6403087D81030800000000000000007F
:1014A800755F03080000040100000000000000024E
:1014B8001000000007000000CD5E0308C95E0308A5
:1014C800C55E0308B95E0308B55E0308C15E03087C
:1014D800BD5E0308415F0308355F03080D5F03081D
:1014E800215F0308F95E0308E55E0308D15E03087F
:1014F800010000000060024010600240000000008F
:1015080000000000000B00000000000000000000C8
:101518000000000000600240286002400100000056
:1015280000000000060C00000000000000000000A1
:10153800000000000060024040600240020000001D
:1015480000000000100D0000000000000000000076
:1015580000000000006002405860024003000000E4
:1015680000000000160E000000000000000000004F
:1015780000000000006002407060024004000000AB
:1015880000000000200F0000000000000000000024
:101598000000000000600240886002400500000072
:1015A80000000000261000000000000000000000FD
:1015B8000000000000600240A06002400600000039
:1015C80000000000301100000000000000000000D2
:1015D8000000000000600240B86002400700000000
:1015E80000000000362F000000000000000000008E
:1015F8000000000000640240106402400000000087
:10160800000000000038000000000000000000009A
:10161800000000000064024028640240010000004D
:101628000000000006390000000000000000000073
:101638000000000000640240406402400200000014
:1016480000000000103A0000000000000000000048
:1016580000000000006402405864024003000000DB
:1016680000000000163B0000000000000000000021
:1016780000000000006402407064024004000000A2
:1016880000000000203C00000000000000000000F6
:101698000000000000640240886402400500000069
:1016A80000000000264400000000000000000000C8
:1016B8000000000000640240A06402400600000030
:1016C800000000003045000000000000000000009D
:1016D8000000000000640240B864024007000000F7
:1016E8000000000036460000000000000000000076
:1016F8000000000078D205085C0106080000000020
:10170800015F0208A086010004000000000000003C
:1017180000000000000000000000000000000000C1
:1017280000000000000000000000000000000000B1
:101738000000000078D20508140206080000000026
:10174800A9350108E80300000400000000000000BB
:101758000000000000000000000000000000000081
:101768000000000000000000000000000000000071
:1017780000000000BCE805080CA8050800000000EF
:1017880049B102087D0000000600000000000000CA
:101798000000000000000000000000000000000041
:1017A8000000000000000000000000000000000031
:1017B80000000000A8D1050800000000000000009B
:1017C8002D5A0108E8030000030000000000000093
:1017D8000000000000000000000000000000000001
:1017E80000000000000000000000000000000000F1
:1017F800000000001C0206080000000000000000B5
:101808002D49040810270000030000000000000014
:1018180000000000000000000000000000000000C0
:1018280000000000000000000000000000000000B0
:1018380000000000D8D105080000000041DE0108C2
:10184800518101085F7600000500000000000000DB
:101858000000000000000000000000000000000080
:101868000000000000000000000000000000000070
:10187800000000008CD405080000000000000000F3
:10188800F5B4010810270000010000000000000066
:101898000000000000000000000000000000000040
:1018A8000000000000000000000000000000000030
:1018B80000000000280206080000000000000000E8
:1018C800AD350108E8030000050000000000000035
:1018D8000000000000000000000000000000000000
:1018E80000000000000000000000000000000000F0
:1018F800000000003402060800000000000000009C
:10190800DDA90208204E00000300000000000000CE
:1019180000000000000000000000000000000000BF
:1019280000000000000000000000000000000000AF
:10193800000000004402060800000000000000004B
:10194800C9A70208204E00000300000000000000A4
:10195800000000000000000000000000000000007F
:10196800000000000000000000000000000000006F
:1019780000000000540206080000000000000000FB
:101988009D3A0108400D030003000000000000001C
:10199800000000000000000000000000000000003F
:1019A800000000000000000000000000000000002F
:1019B800000000003CD30508000000000000000003
:1019C800A1840408102700000100000000000000A6
:1019D80000000000000000000000000000000000FF
:1019E80000000000000000000000000000000000EF
:1019F80000000000C0D10508000000000000000041
:101A080091130308102700000300000000000000E5
:101A180000000000000000000000000000000000BE
:101A280000000000000000000000000000000000AE
:101A3800000000006402060800000000000000002A
:101A48006D450208A08601000100000000000000AA
:101A5800000000000000000000000000000000007E
:101A6800000000000000000000000000000000006E
:101A780000000000ACD105080000000000000000D4
:101A8800CD38010850C3000001000000000000002C
:101A9800000000000000000000000000000000003E
:101AA800000000000000000000000000000000002E
:101AB80000000000ACE40508000000000000000081
:101AC800E5350108A86100000100000000000000E1
:101AD80000000000000000000000000000000000FE
:101AE80000000000000000000000000000000000EE
:101AF800000000006C020608000000000000000062
:101B080089530308A08601000100000000000000BE
:101B180000000000000000000000000000000000BD
:101B280000000000000000000000000000000000AD
:101B38000000000094D40508000000000000000028
:101B4800D1620108A00F00000100000000000000A1
:101B5800000000000000000000000000000000007D
:101B6800000000000000000000000000000000006D
:101B780000000000780206080000000000000000D5
:101B88003143030810270000010000000000000096
:101B9800000000000000000000000000000000003D
:101BA800000000000000000000000000000000002D
:101BB8000000000044D305080000000000000000F9
:101BC800CD3B03081A41000001000000000000009E
:101BD80000000000000000000000000000000000FD
:101BE80000000000000000000000000000000000ED
:101BF80000000000F4D40508000000000000000008
:101C0800C967030810270000010000000000000059
:101C180000000000000000000000000000000000BC
:101C280000000000000000000000000000000000AC
:101C38000000000068010608000000000000000025
:101C4800B1F901081A41000001000000000000007D
:101C5800000000000000000000000000000000007C
:101C6800000000000000000000000000000000006C
:101C780000000000840206080000000000000000C8
:101C8800216E0308400D0300000000000000000062
:101C9800000000000000000000000000000000003C
:101CA800000000000000000000000000000000002C
:101CB800000000008C020608000000000000000080
:101CC8005B6B0408400D03000000000000000000EA
:101CD80000000000000000000000000000000000FC
:101CE80000000000000000000000000000000000EC
:101CF8000000000094020608000000000000000038
:101D0800AD4D030850C300000300000000000000B0
:101D180000000000000000000000000000000000BB
:101D280000000000000000000000000000000000AB
:101D380000000000A00206080000000000000000EB
:101D48003DA7020840420F0000000000000000000C
:101D5800000000000000000000000000000000007B
:101D6800000000000000000000000000000000006B
:101D780000000000AC02060800000000000000009F
:101D88001980040850C30000000000000000000093
:101D9800000000000000000000000000000000003B
:101DA800000000000000000000000000000000002B
:081DB800000000000000803F64
:10800000436A8269D154436A0169C26B01338B426E
:1080100028BF00234362DAB1EFF31183502282F3C9
:108020001288C26B1168C9070ED470B45468FCB9C9
:10803000D0E909518D4211D1012280F86020DBB2D4
:1080400083F3118870BC7047DBB283F311887047EB
:10805000C26DD36843F08003D360704786690E44D5
:10806000D6600ED9691A51608562002180F86010CF
:10807000116841F00101DBB2116083F3118870BC1B
:1080800070470569691A51608462EEE7034610B4CF
:10809000846BD968406954B11A6D8C1A013A005D3D
:1080A0005DF8044B08BF0A46C0B21A6570471A6AE9
:1080B000805C01328A4228BF2246C0B21A625DF853
:1080C000044B7047C36B13B190F860007047D0E960
:1080D0000903181AB0FA80F040097047D0E9091274
:1080E0000369914238BFC9188A1AC16B013B19B1A3
:1080F00049680A449A4201D2981A70470020704792
:10810000836B43B1026D5B689A4291BF981AC06855
:108110009B1AC0187047D0E907239A422FBFD01A84
:10812000C0688018C01A70470A4B30B503F11004BC
:1081300093F900205D78072AC8BF143A81180433E8
:108140008D7213F8025C855413F8012C0A759C4259
:10815000EED130BDB025050803682DE9F0415D6A18
:108160001DB12B46BDE8F0411847002A174611DD26
:1081700004460E460F4400E023689B68204698475B
:108180000028F9D0236816F8011B1B682046984781
:10819000BE42F1D1BDE8F08103681B69184700BFFA
:1081A00010B4572155245622002304704170827068
:1081B000C3705DF8044B7047D3B2022B23D8F0B4E0
:1081C000124F134D02EB42063C46B600002304E07A
:1081D0000133172B14D054F82C5FA842F8D125791D
:1081E0008D42F5D1A519ED68002DF1D02C2101FBB0
:1081F00003F30C20083310FB0233F818F0BC70476F
:108200000020F0BC70470020704700BF748605084E
:108210000000014010B40B49002301E0152B0BD0E6
:1082200003EB430201338C5C84420A44F6D192F999
:1082300002005DF8044B70474FF0FF305DF8044BCF
:10824000704700BF88890020064B984202D04FF04B
:10825000FF307047044A538901339BB253815089E0
:1082600080B2704700300140247F0020836870B5E1
:108270000446164613B11A689B885383606840F21F
:10828000E933828901E0002B31D00589013B15F0EB
:10829000020F9BB2F7D089B2818140F2E93300E04E
:1082A0002BB30289013B12F0010F9BB2F8D08389F6
:1082B000838940F2E93300E0EBB10189013B11F021
:1082C000020F9BB2F8D0B6B2868140F2E93300E0EB
:1082D0008BB10289013B12F0010F9BB2F8D0838968
:1082E000A36813B11A689B881383012070BDFFF740
:1082F000ABFF6068DCE7FFF7A7FFF1E7437A5A1CA2
:108300000344D2B242729972037A93420AD84AB1B4
:1083100010B5044604F10A01D0E900309847002363
:10832000637210BD704773B504461846230916469C
:10833000069D403304F00F0439B10139CDE9004105
:10834000064A3146A84702B070BD054A0694314638
:10835000AC4602B0BDE87040604700BFA091050880
:10836000B09105082DE9F04385B0B2F1FF3F894691
:1083700090461946BDF830500D9F23D0060900F0F5
:108380000F044036CDE900423346154A2846B84727
:10839000A8B1424699F80510D9F80000FFF70CFF84
:1083A00068B10388DAB20392C3F303221B0B029273
:1083B000CDE900430B4A334600212846B84705B0B3
:1083C000BDE8F0836B06FAD40309074A00F00F00FA
:1083D0000C9040332846BC4605B0BDE8F0436047EA
:1083E000C2910508D4910508FD91050820B10078D7
:1083F000B0FA80F04009704701207047037903F01C
:108400001803082B0AD002D82BB100207047102B7C
:1084100016D0182BF9D1B0F80B007047114BB0F8FB
:108420000B0093F90030591C06BF0F4B1B78DBB2D1
:10843000C3EBC30203EB820300EB830080B27047FF
:10844000084BB0F80B0093F901305A1C06BF064BDD
:108450005B78DBB203EB430203EB820300EB4300E8
:1084600080B270478801002038350020F0B50679C9
:1084700006F0E003402B09D144794FF0FF3500238B
:10848000012006F00706A3420BD1F0BD602B08BF08
:1084900045794FF001040CBF04FA05F54FF0FF35A4
:1084A000EDE7042E0CD8DFE806F0030D18242E00AB
:1084B00030B1C85CD75C784028420CBF0120002056
:1084C0000133E0E70028FBD0C856D756A0EB070CD5
:1084D000DCF1000040EB0C00F2E70028F0D031F8AE
:1084E000130032F81370784028420CBF012000209E
:1084F000E6E70028E4D031F9130032F91370C71B06
:1085000078427841DCE70028DAD051F8230052F8AD
:108510002370784028420CBF01200020D0E7EDE610
:1085200038B5074C074DAC4203D3074B00221A70F5
:1085300038BD6288D4E9010148F0C2FC1434F2E786
:1085400090010008440700089016002038B5074C39
:10855000074DAC4203D3074B01221A7038BD628825
:10856000D4E9011048F0ACFC1434F2E790010008A3
:10857000440700089016002003685A1C0260197016
:10858000704700BF2DE9F047089C2578002B8046F6
:1085900089460CBF4FF0200A4FF0300A661C25B305
:1085A000002A26DD334601E0024698B113F8011B8C
:1085B000501E0029F8D1971E60B13D46013D51463D
:1085C0004046C8476B1C002BF8DC257827EAE7708B
:1085D000013045B1041B29464046C847301916F8FA
:1085E000015B002DF7D1BDE8F087002A03DC2846A7
:1085F000F9E70020EEE7571EDFE700BF2DE9F0475F
:1086000014461D4606464FF47A720023204629463A
:1086100048F0B8F94D4BDFF850814D4A4D4F0344B7
:1086200088FB03101844D91782FB032CC1EB6010A0
:1086300088FB002887FB03279C44474AC1EBEC2CAE
:10864000C0EB001E82FB0C29A3EB8E0E1F44434A95
:1086500086F806E0C1EB27474FEAEC7E08EB000AFC
:10866000CEEBA90E82FB07824FEAE0780EEB4E0EAE
:10867000C8EB6A18ACEBCE0CC8EB0818DFF8ECE0DE
:1086800086F804C0A0EB880070718EFB0303F81716
:10869000C0EBE21240F2B55000FB1272C1EBE353A3
:1086A000B2F5896F4FEA83073FDA40F2DA239A4244
:1086B00043DCB2F5B77FB4BF4FF0000E4FF0010EB0
:1086C0004FEA4E08264B08EB0E0103EBC1031FFADD
:1086D0008EFCD88C234908EB0E0301EBC301163145
:1086E0000B2301E031F8020D90421BDD013BF9D173
:1086F0001B4BC64403EBCE0E0123BEF81000B37033
:1087000007F5FA670132121ABC44F270A6F800C0ED
:10871000204629464FF47A72002348F033F932811B
:10872000BDE8F0870133DBB2E9E74FF0030CE64622
:1087300040F296504FF00608CCE74FF0020CE646A8
:1087400040F229404FF00408C4E700BF80BC92C744
:10875000C5B3A29107452EC2ABAAAA2A73B06D1663
:10876000B0250508C025050889888888792D03115A
:108770000378202B024600F10100F9D0092BF7D035
:108780002D2B00F0A4802B2B03BF5378B7EE000AEB
:108790000246B7EE000AA3F13001C8B209289FEDE6
:1087A000577A10D8F2EE046A07EE901AF8EEE77ADC
:1087B00012F8013FE7EE267AA3F13001C8B209288A
:1087C000B0EE677AF0D92E2B63D003F0DF03452B90
:1087D00002D020EE070A704710B451782D294FD0EF
:1087E0002B2979D0A1F13003092B02F101027AD8AB
:1087F0000024002303EB830301EB430312F8011F62
:10880000A1F130000928A3F13003F3D9B3F59A7F21
:108810001A4628BF4FF49A72072B6CD9DFED386ADD
:108820001346F7EE007A083B072B67EEA67AFAD8D4
:1088300002F00702DAB1F2EE046A012A67EEA67AC4
:1088400015D0022A67EEA67A11D0032A67EEA67A1F
:108850000DD0042A67EEA67A09D0052A67EEA67A1B
:1088600005D067EEA67A062A18BF67EEA67A002C16
:108870003BD087EE277A5DF8044B20EE070A70475D
:108880009178A1F13003092B02F1020230D80124C2
:10889000AFE75378A3F13001C8B2092802F1010211
:1088A00093D8F2EE046AF0EE665A07EE901AF8EEEC
:1088B000E77A12F8013F87EEA66AA3F13001C8B249
:1088C000092866EEA56A37EE067AEED97DE7537879
:1088D000BFEE000A02465EE79178A1F13003092B52
:1088E00002F1020284D9F7EE007A27EE277AC2E776
:1088F000F7EE007ABDE7F7EE007A9BE70000000094
:1089000020BCBE4C0028F0B403DA2D230B7040428B
:108910000131092804464FF0010307DD03EB83030F
:108920005B00B0FBF3F2092AF8D883B10F48A0FB33
:108930000326B4FBF3F2092A02F1570C02F13007C7
:1089400009DD03FB1244F30801F801CBEFD100234A
:108950000B70F0BC704703FB1244F30801F8017B75
:10896000E5D100230B70F0BC704700BFCDCCCCCC60
:10897000884270B44FF0010442D301FB04F4B0FB11
:10898000F4F58D42F9D2ECB142BB092D04FB150080
:1089900005F1570605F130020EDDB4FBF1F403F8E2
:1089A000016B7CB1B0FBF4F5092D04FB150005F15A
:1089B000570605F13002F0DCB4FBF1F403F8012BAB
:1089C000002CEFD100221A7070BC704703F8016BC5
:1089D000B4FBF1F4002CF5D0B0FBF4F5092D04FB49
:1089E000150005F1370605F13002EFDCB4FBF1F4B8
:1089F00003F8012B002CEFD100221A7070BC7047D5
:108A00000546002AEAD1C0E790ED057A90ED004ACC
:108A1000D0ED066AD0ED014AD0ED047A90ED035A0C
:108A2000D0ED025AA4EE007AB0EE406AB0EE470AEA
:108A3000B0EE667AA4EE867A67EEC07AA5EE407A4A
:108A4000E5EE867A80ED057AC0ED067A704700BFC4
:108A5000D0ED057A90ED013AD0ED003AD0ED064A1E
:108A600090ED024A90ED077A90ED035A90ED086A76
:108A7000D0ED045AC0ED067AF0EE406A27EE830A84
:108A8000C0ED056AA3EEA60A80ED087AA4EE240ADA
:108A9000A5EE470AA5EEC60A80ED070A704700BF9B
:108AA000D0ED007A90ED017A30EE670AE7EE007AB9
:108AB000B0EE670AC0ED007A704700BF704700BF94
:108AC00030B414220023502503240221C270012255
:108AD0008571C4710370C3728373C3734170417233
:108AE00082700272827230BC704700BF0023062180
:108AF0004FF47A720170C0E901230373704700BF1D
:108B000030B4002331254FF601740122FF21457056
:108B1000048281740272027043818381C38130BCFC
:108B2000704700BF2DE9F04F3149324B83B001F55A
:108B3000A07B019012274FF000092F480022012648
:108B400003E0203098420BD002799742F9D10268B5
:108B50000C68A24209D02030984206F10106F3D1F8
:108B6000203159453AD00F79E7E744794D79A5424C
:108B7000F1D19446019A214809EB490502EB050A17
:108B800057558AF8016000F572751D4E624603E084
:108B9000A8421AD050F82C6FB242F9D10679A642F9
:108BA000F6D1CF6806464FF0000C96468046F26834
:108BB000BA4216D00CF1010CBCF1030F06F10C0601
:108BC000F5D14046A8427246E4D14FF0FF3C203137
:108BD00059458AF802C009F10109C4D103B0BDE8C2
:108BE000F08F086932698242E4D14FFA8CFCEEE7DB
:108BF000BC7A050874860508B47C050874860508E7
:108C000000000140FF2310B4162115241722047020
:108C100041708270C3700371037243724373837334
:108C20005DF8044B704700BF084B09498B4203D3E2
:108C300009E014338B4206D21A88C2F30B02904229
:108C4000F7D1184670470023184670479001000876
:108C5000440700082DE9F04F064689B040F216207F
:108C6000FFF7E2FF364A1478D0E901730CB13C46B5
:108C70001F460DF1080915220021484649F044FC21
:108C8000002517F80580B8F1000F26D07B1993F85E
:108C900001A0002C51D0224600231178414545D136
:108CA000517808AA1344012203F8182CA1EB0A03F7
:108CB000D3F1000B4BEB030B3CB131B1214B0093D3
:108CC0005A4633464046FFF72EFB1F4B00935A4649
:108CD000334651464046FFF726FB03353F2DD0D1A2
:108CE0000CB3DFF860A0DFF860B0002519F805705C
:108CF000B7B905EB450814F8080088B104EB080380
:108D00003A465978CDF800A03346FFF70CFB14F82B
:108D10000800CDF800B033463A463946FFF703FB6A
:108D20000135152DE2D109B0BDE8F08F0133152BC7
:108D300002F10302B1D10021B8E72146B6E700BF36
:108D40009016002019B6000835B5000870B5054624
:108D5000B0F80900FFF768FF064B1E780446284666
:108D6000FFF74CFB16B1A368184470BD6368184444
:108D7000FBE700BF9016002038B505460C46FFF70C
:108D8000E5FF2A7902F0070302F0E002602A28D109
:108D9000022B0ED0042B18D03BB96A7901239340E3
:108DA000DBB2027814B11343037038BD22EA030327
:108DB000FAE76A79012393409BB2028814B1134306
:108DC0000380F2E722EA0303FAE76A79012303FA50
:108DD00002F2036814B113430360E6E723EA0203D7
:108DE000FAE7042BE1D8DFE803F0030305050700E9
:108DF0000470DAE70480D8E70460D6E7034600F1A0
:108E00001001FF221A705A7002338B42FAD102709D
:108E100042708270C270027142718272C272704777
:108E200070476D4B2DE9F04F5C686C4BB3F80AE06E
:108E3000B3F804809A894FEA0E2AB4EB0A044FEA89
:108E40001E6B4FF0000587B065EB0B05CDE90045C3
:108E50000746009C1889019EA0FB044500FB0655AF
:108E6000E00940EA45604FEA08448C46E9114FEAC0
:108E7000184510EB0408D888009C41EB0509CDE9A2
:108E80000489A0FB0445B3F8028000FB0655200AC4
:108E900040EA05604FEAC83429124FEA584510EB02
:108EA000040841EB05090099A2FB010102FB061130
:108EB0004FEAD05A4AEA412A1AF5FA634FEAE15BCF
:108EC0004BF10004B3F5FA6FCDE9023474F10003FD
:108ED000414E64DA0524AAFB040104FB0B1100FBDC
:108EE0000BF40AFB0144DDE90423A0FB0A01214441
:108EF0004D104FEA3004121B4FEA900463EB050358
:108F000044EA8174B8EB0408CDE90423DDE90234B6
:108F100033484FEAA10569EB05094FF0FF31834261
:108F200074EB010326DA40F6AC501AEB00024FF066
:108F300000014BEB010302FB03F1A2FB022303EB55
:108F40004103D400DD00101B45EA527563EB0501B7
:108F5000DDE9044524184D41CDE904450B24A2FB6D
:108F6000040104FB031149104FEA3000B8EB00087C
:108F700069EB0109DDE900325343009ADDE90201A2
:108F8000A2FB02AB0BEB430B4FEADA7242EA4B0255
:108F9000801A4FEAEB7361EB0301CDE9020197B14F
:108FA000B168A1FB082301FB0933540D5D1544EAA8
:108FB000C324DDE90423A21A65EB03031D46D30B8A
:108FC00043EA45433B60BCF1000F02D0029BCCF862
:108FD000003007B0BDE8F08F9016002084250020F7
:108FE00024FAFFFF4FF4006303837047012380F8E6
:108FF00050307047F0B4037C456902681F2B37D9A5
:10900000203B2021546899400C4223D010249C40DE
:10901000D160D4605168D940CE074ED4EFF31183AC
:10902000502282F31288EA6B1168C90709D4546888
:10903000002C52D1D5E909618E4243D1012285F835
:109040006020DBB283F31188037C02681F2B194672
:1090500014D9203B082150689940084200D0D160C3
:109060000421506801FA03F3184223D1F0BC704781
:10907000202416689C4026420FD119460823106808
:109080008B40184200D093600423106803FA01F16A
:109090000842EBD09160F0BC704710219940946079
:1090A00091601168D940CC07B8D5012101FA03F3CA
:1090B0009360B3E7D360F0BC7047012101FA03F37A
:1090C000D360ABE7AF690F44D7600ED82E69711A31
:1090D0005160AC62002185F86010116841F0010117
:1090E000DBB2116083F31188AEE7711A5160AE6292
:1090F000F0E700BFF0B4B34BB3491A780B789A424B
:1091000040F00781B14B1A78002A68D0B04B19782B
:10911000B04B002965D11868B3F830514162848999
:10912000012A44EA05048481A3F8301157D0D3F80A
:109130003401B3F8645241628489022A44EA050486
:109140008481A3F864124AD0D3F86802B3F8985324
:1091500041628489032A44EA05048481A3F89813B0
:109160003DD0D3F89C03B3F8CC5441628489042ADF
:1091700044EA05048481A3F8CC1430D0D3F8D00499
:10918000B3F8005641628489052A44EA05048481C3
:10919000A3F8001623D0D3F80406B3F8345741627D
:1091A0008489062A44EA05048481A3F8341716D07A
:1091B000D3F83807B3F8685841628489072A44EA2B
:1091C00005048481A3F8681809D0D3F86C28B3F893
:1091D0009C495162908920439081A3F89C19F0BC6E
:1091E00070475C68198961602568186845F0010559
:1091F00040F20D312560A0F848108489012A44F41A
:1092000080748481EBD0D3F83841B3F83C51D3F863
:1092100034016560256845F001052560A0F8481017
:109220008489022A44F480748481D8D0D3F86C42B3
:10923000B3F87052D3F868026560256845F00105FF
:109240002560A0F848108489032A44F4807484813E
:10925000C5D0D3F8A043B3F8A453D3F89C036560FA
:10926000256845F001052560A0F848108489042A86
:1092700044F480748481B2D0D3F8D444B3F8D85481
:10928000D3F8D0046560256845F001052560A0F895
:1092900048108489052A44F4807484819FD0D3F8CF
:1092A0000846B3F80C56D3F804066560256845F007
:1092B00001052560A0F848108489062A44F48074CA
:1092C00084818CD0D3F83C47B3F84057D3F83807A3
:1092D0006560256845F001052560A0F8481084897F
:1092E000072A44F4807484813FF479AFD3F870285E
:1092F000B3F87408D3F86C385060106840F001007F
:109300001060A3F848109A8942F480729A81F0BCE8
:1093100070475C00E618304D15F83660032E3FF6B6
:10932000F1AEDFE806F05D261C02E01805EBC00098
:109330004468661E012C46603FF651AF013303F0CE
:109340000303D8B2824208703FF4DCAE03EB430360
:10935000DB00EA1802200021E85451603FE7E118E1
:1093600005EBC1014868461E01284E603FF637AF45
:109370000DE0E118C90068184668771E012E4760A5
:109380003FF62DAF02274FF0FF366F544660E618C8
:10939000F600AF191148397B00680139C9B2397339
:1093A000002940D04FF47A722344B2FBF0F200FB64
:1093B00002F0B0F57A7F05EBC30518BF01326A6091
:1093C000A0E600BFB42A0020B52A0020B830001063
:1093D000B43000103C960020B82A0020D00C0020A9
:1093E00070B11D49012600220F890132002F18BFDC
:1093F0000026904201F5B271F6D1002E3FF482AE04
:10940000164A126842F21076E018B6FBF2F102FB3F
:109410001162012605F8306002B13144234405EBA6
:10942000C30569606EE6BF68B7FBF0F100FB117021
:109430000327AF5500B101311C44013305EBC405CE
:1094400003F00303934269603FF45CAE00293FF4EC
:1094500059AE0139696055E61C8B0020D00C002004
:1094600010B5027C01681F2A4FF020030ED94C680A
:10947000203A93401C4208D00B4A406800241470E4
:10948000026822F001020260CB6010BD0C689340BC
:109490001C42FAD0044A406800241470026822F08A
:1094A000010202608B60F0E7AB3B00202DE9F04148
:1094B000C40023189B00B749CA585268958AADB2B8
:1094C000EFB2FE070B4461D4BE0737D5BFF35F8F01
:1094D0001D7EEDB2012D00F0BB80AF4E138BBFF3AC
:1094E0005F8F231801EB83031D7E022D00F0CE80D9
:1094F000231801EB83031D7E032D05D19B7E1BB139
:10950000737B002B40F01A81938896F90CC043F4CA
:1095100080639380231801EB83031B7E0133634533
:109520000AD1B37B00257573002B40F08A8020445C
:1095300001EB800000234375BDE8F081964E17F0E3
:10954000040F96F90CC04DD117F0400700F0B2801F
:10955000178A1D6AFFB205F80C705FFA8CF56F1C54
:1095600093F818E07BB2DF1CBE4533739C4600F0D5
:109570000981271801EB87073F7EBB42CAD105F15D
:10958000020C4FFA8CFC86F80CC0C3E71588824E9B
:1095900025F400652D042D0C1580158845F4806593
:1095A00015809D7E00273773002D3DD0757B002DE3
:1095B00037D0231801EB830301251B7E7573022B23
:1095C00003D1138843F400631380231801EB830352
:1095D0009B7D43F001031382204401EB8000037E56
:1095E000BDE8F0819F7E757B4FF0010E86F80EE09E
:1095F000002F5CD0002D78D1231801EB83035B7E14
:10960000002B00F0A48013880CF1010C4FFA8CFCA5
:1096100043F4007386F80CC013801388DF05FCD474
:1096200078E7DB7DFF2BC4D0231801EB83039D7DFE
:1096300005F0FE051582DB7DFF2BCDD0FF233373B4
:10964000CAE7938823F440731B041B0C93806EE7D6
:109650009B7E514E002B3FF441AF737B002B3FF4B8
:109660003DAF138823F480631B041B0C1380BFF3EE
:109670005F8F138B1388B57343F400731380938843
:1096800096F90CC043F48063938043E79B7E002BE4
:109690003FF42EAF737B002B3FF42AAF138896F96B
:1096A0000CC023F480631B041B0C138016E0002DF8
:1096B000A2D0A8E72D067FF52DAFBCF1FF3F6DD0FE
:1096C000DD6915F80C5015820CF1010C1D7E4FFA66
:1096D0008CF39D429C4633737FF41CAF938823F434
:1096E00080631B041B0C938014E71F7ED3F820803B
:1096F0005FFA8CF5AE44022F4FFA8EFE17882DD9F3
:1097000027F480673F043F0C1780178AFFB208F8E0
:109710000C701788D3F820C047F400731380138AA5
:10972000DBB20CF80E30938805F1020C4FFA8CFC7A
:1097300043F4806386F80CC093806EE7938896F9B3
:109740000CC023F480631B041B0C9380E2E6138897
:10975000012543F48073138075735EE747F4007747
:109760001780178AFFB208F80C70178AD3F8208088
:1097700005F1030C4FFA8CFCFBB286F80CC008F81C
:109780000E304AE7978827F480673F043F0C9780A4
:10979000EFE600BF1C2E002090160020DD7D158214
:1097A0009D7E37731DB91B7E002B7FF415AF938808
:1097B00023F480631B041B0C93800DE7F0B58769CD
:1097C00083B0064617B13B68BA885A837069DFF8E0
:1097D000A8E08389C3244FF47A734FF0060C6D46DA
:1097E0004FF6FF710EF1010E03E0013B9BB28B427D
:1097F00020D002899207F8D5A3B283814FF47A73FF
:1098000002E0A3B28B4215D00289D20703F1FF34E4
:10981000F7D5828992B20DB12A700135BCF1000FE3
:109820000BD00CF1FF3CFF24BEF1000FE1D09EF8FD
:109830000040D7E7FEF708FDB76917B13B68BA8863
:109840001A839DF805009DF801509DF802109DF8BF
:1098500003409DF804209DF8063041EA052143EAC3
:10986000002342EA04220120A6F85010A6F8522054
:10987000A6F8543003B0F0BD2026050830B50446E4
:10988000C06D21718389A26823F400531B041B0C53
:10989000838185B06379009213F0040F4FEA03329D
:1098A0004FEA03230CBF00254FF4805503F4806377
:1098B00002F40052ADF80450ADF80830002511F064
:1098C0000103ADF80620ADF80C501CD1ADF80A30FC
:1098D00008238A07694648BFADF80A302FF03AFFDF
:1098E000637913F0080FE36D9A8A05BF22F008022E
:1098F000120442F00802120C9A829A8942F4005231
:109900009A8105B030BD0423ADF80A300C23E0E79E
:1099100030B50446C06DA160838923F400531B0455
:109920001B0C8381637985B013F0040F009108BF8D
:109930000025217918BF4FF48055ADF804501A0363
:1099400000251B0203F48063ADF80A50ADF80C50FB
:10995000CD07ADF8083002F4005244BF0423ADF83F
:109960000A30ADF806204CBF0C2308238A0769464D
:1099700048BFADF80A302FF0EDFE637913F0080F01
:10998000E36D9A8A05BF22F00802120442F0080231
:10999000120C9A829A8942F400529A8105B030BD25
:1099A00030B40123282529242A212B220570447054
:1099B000017142718370C3708371C37130BC704791
:1099C0004268AC49138823F040032DE9F04F1B0493
:1099D0001B0C1380138887B023F038031B048A42C2
:1099E00002904FEA134300F0FF8001F580618A4244
:1099F0000CBF302138210B431380138802989E4CF2
:109A00009E4FDFF884A29E4D9E4E43F0400313808C
:109A10006B218022FEF72AFC062304939623DFF8AD
:109A20006CE201934FF01008DAF80430C3F3080336
:109A3000002B40F0B080EFF31183002B40F0AB809F
:109A40002068AA6823689842FAD133689A42F7D806
:109A5000D7F800C04FF47A7101FB0CF39B1AB3FBEB
:109A6000FCF301FB00304FF47A7C4FF00109DAF887
:109A70000430C3F30803002B6FD1EFF31183002BE5
:109A80006BD12368A96822689342FAD13268914267
:109A9000F7D83A680CFB02FBABEB0101B1FBF2F12A
:109AA0000CFB03131B1AB3F57A7FE0D3019B013B38
:109AB0000193B9D1029B9B6813B11A689B885383A9
:109AC000029B586840F2E933828902E0002B00F0E3
:109AD00086800289013B12F0020F9BB2F6D0F5237B
:109AE000838140F2E93301E0002B78D00289013B09
:109AF00012F0010F9BB2F7D08389838940F2E933DA
:109B000001E0002B68D00289013B12F0020F9BB2EA
:109B1000F7D0FF23838140F2E93301E0002B5BD0D3
:109B20000289013B12F0010F9BB2F7D08389DBB2AF
:109B30000393029B9A6812B1136891881983039B5F
:109B4000682B53D0049B013B13F0FF0304937FF475
:109B500065AF184607B0BDE8F08FEFF3118188F3C9
:109B60001288D5F808B02B68DB0344BFCEF800900C
:109B7000D5F808B02368DEF80020C9B281F3118857
:109B8000396813440CFB01F2A2EB0B02B2FBF1F2B9
:109B90000CFB032386E7EFF3118388F31288D5F8D3
:109BA00008C02A68D20304D50122CEF80020D5F8D7
:109BB00008C02068DEF80090DBB283F311883968B2
:109BC0004FF47A72484402FB01F3A3EB0C03B3FB9E
:109BD000F1F302FB003046E7FEF736FBA9E7FEF79C
:109BE00033FB029B586888E7302104E712B1136801
:109BF00092885A83029B586840F2E933828901E0D7
:109C0000002B53D00289013B12F0020F9BB2F7D018
:109C10008C23838140F2E93301E0002B46D0028996
:109C2000013B12F0010F9BB2F7D08389838940F288
:109C3000E9330289013B12F0020F9BB215D1002BD0
:109C4000F7D1FEF701FB029B9B6813B11A689B8852
:109C50001383059B142B04D3182B25D9543B062BB7
:109C600022D9002007B0BDE8F08FFF23838140F2A6
:109C7000E9330FE000380040AC7E0020B07E0020C9
:109C800010E000E0B47E002000ED00E0A87E00209F
:109C9000002BD6D00289013B12F0010F9BB2F7D006
:109CA0008389DBB20593CEE7032053E7FEF7CCFAB6
:109CB000029B5868BAE708B5202148F03CFC0346EF
:109CC000184623B10278202A03F10103F8D008BD19
:109CD00038B51D4B1B78044600F1250593B10422CD
:109CE0001A49203048F04EFC28461422184948F002
:109CF00049FC012384F83A30164B1B7873B984F879
:109D00003B3038BD28461422134948F03BFC012360
:109D100084F83A300F4B1B78002BF0D00F4B1868AB
:109D200059689A68DD68E56020606160A260DD695D
:109D3000186959699A69A2610123E561206161612D
:109D400084F83B3038BD00BFB8730020807300201A
:109D500068730020B973002044A6050888730020AA
:109D6000014B18682BF0E0BAF019002038B52E220C
:109D7000002148F0C9FB0346642440F2DC5040F265
:109D80001A4140F26C7240F202251C74588213246E
:109D900019209982DA8240F2753140F643021D8320
:109DA0009C760E2502241877D9830A201E211A8456
:109DB000012283F82B0083F82C1083F8225083F8BB
:109DC0002A409A7383F8252083F8292019460248EF
:109DD000BDE838401BF002BA54A6050838B5002487
:109DE000054604802146284601342BF0CDFC082C82
:109DF000F8D1002185F8E210A5F8E410A5F8E610E6
:109E0000A5F8E810A5F8EA10A5F8EC10A5F8EE10F2
:109E1000A5F8F010A5F8F2102846BDE838402BF060
:109E200075BC2DE9F341134D134F002305F80F3F87
:109E3000044600EB8106B44203D1104802B0BDE8ED
:109E4000F0813946284648F067FB2146684648F0CD
:109E50007FFB4FF000082021684648F06CFB28B9D2
:109E60006946284648F058FB0434E4E780F800804F
:109E7000F1E700BF90160020C69405089F16002049
:109E800010B50021044601200BF0E6F9207010BD4A
:109E900038B500240472451EE1B202200BF0DCF953
:109EA0000134082C05F8010FF6D138BD08B50120A2
:109EB0002EF0EEFE174A936803F00C03042B1ED01D
:109EC000082B18D151685368490203F03F0319D495
:109ED00052681148B0FBF3F0C2F3881300FB03F0A3
:109EE0000C4B0E4A5B68C3F3014301335B00B0FBCC
:109EF000F3F0106008BD094B074A1A6008BD074B14
:109F0000186008BDB0FBF3F05368C3F3881300FB7F
:109F100003F0E5E7003802400024F400BC730020A1
:109F20002DE9F84F037C02681F2B86BF203B516848
:109F30001168202202FA03F30B4214BF012300230D
:109F40000BB9BDE8F88F4569824F04460CF06EF9F5
:109F50004FF4B27303FB057380461A7C002A35D197
:109F60007D495A680978D2F80090D1B9D3F8D81051
:109F700058890A6822F001020A60B9F80C3023EA15
:109F80000003A9F80C30754B1B78002B32D1237CD1
:109F900021681F2B13D8202202FA03F38B60BDE83F
:109FA000F88F5269136823F001031360B9F80C307D
:109FB00023F480731B041B0CA9F80C30E3E7203B4F
:109FC000202202FA03F3CB60BDE8F88FD3F8D86003
:109FD00063485F8901225A7431685A6803681568BA
:109FE00021F001013160AA89013322EA0702AA8126
:109FF0000360CCE74FF4B27303FB0573594AD3F8FF
:10A00000D860336823F00103336000233360964245
:10A010007360B360F36033614FF0210373617AD0F2
:10A02000514B9E4272D0514B9E4278D0504B9E4233
:10A030007AD0504B9E427CD04F4B9E427DD04F4BAE
:10A040009E427ED04E4B9E427FD030462EF028FD61
:10A050004FF4B27A0AFB05FA07EB0A0501232B74C9
:10A06000D5F8DCB00CF0E2F80AF18C013944CBF8F9
:10A070002C0148462EF064FED5E92B70D5F89830B7
:10A08000D5E92D123B4303430B431343D5F8BC20C2
:10A09000D5F8CC7030683B491343D5F8C020134342
:10A0A000D5F8D0203B43014013430B430022C5F8B1
:10A0B000A42033607269D5F8C430D5F8A81022F016
:10A0C000070CD5F8C820D5E92770134343EA0C03E1
:10A0D00073617160B760F0603268D5F8D83095F878
:10A0E000D400696842F01002326058601A6809684A
:10A0F00042F001021A608B896A8913438B810CF04C
:10A1000095F8214BA0EB0800186040E74FF474620B
:10A1100043F8202C9CE71D4B3D229A6098E74FF4B2
:10A12000741243F8382C93E74FF0746243F8502CC4
:10A130008EE7174A43F8642C8AE7164A43F87C2CCA
:10A1400086E7154A43F8942C82E74FF03D5243F8D6
:10A15000AC2C7DE71C8B0020B4300010B030001018
:10A16000182B00201060024028600240406002402E
:10A17000586002407060024088600240A060024067
:10A18000B86002403F801CF01C00001000600240DC
:10A190003D000020400F002000003D2038B5254B39
:10A1A0001C68A26BE36D62B1E26BC2B1998A1A8836
:10A1B000C90792B204D5120744BF4FF6F7721A804E
:10A1C00038BD99891A88890692B2EDD59206EBD5E9
:10A1D000E26AFAB19888216B9047E36DE4E79989C8
:10A1E0001A880D0692B2E1D51006DFD5D4E909121E
:10A1F0008A420AD0A1692569885C98800132B2FB45
:10A20000F5F105FB1122A262D0E7DA6822F08002A4
:10A21000DA60CBE79B88E2696169DBB28B54E26963
:10A22000E068E36D0132B2FBF0F100FB1122E26164
:10A23000BAE700BFE0160010002A12DD70B5044630
:10A240000D468E18236820469B6898470028F9D051
:10A25000236815F8011B1B6820469847B542F1D1C9
:10A2600070BD70470368DB6A03B11847704700BFD1
:10A2700003689B6A03B11847704700BF03682DE964
:10A28000F0415D6A1DB12B46BDE8F0411847002A38
:10A29000174611DD04460E460F4400E023689B6814
:10A2A000204698470028F9D0236816F8011B1B6840
:10A2B00020469847BE42F1D1BDE8F08103689B6912
:10A2C000184700BF03685B69184700BF0368DB6875
:10A2D000184700BF03689B68184700BF03685B68A6
:10A2E000184700BF03681B68184700BF014B186878
:10A2F000F8E700BFF81A002038B50C46097849B1D4
:10A30000054601342B6828461B68984714F8011B42
:10A310000029F7D138BD00BF064B53F820302BB1D0
:10A320001A689B8851690B4201D11383704753838C
:10A33000704700BF787E0020036803F13F4202F5BA
:10A340007E022DE9F04F920A464DAA5C02F01F05ED
:10A3500052090124032A04FA05F47ED0042A77D096
:10A36000022A30D001F00306721E012AC1F3810EC9
:10A37000C1F300188588C1F341114FF000024FF07E
:10A38000010C25D94FF0030E0CFA02F0A84315D1A9
:10A3900050001F680EFA00F4E44327401F60D3F812
:10A3A000008006FA00F747EA08071F60DF683C40B4
:10A3B000DC60DC6801FA00F02043D8600132102A2A
:10A3C000E2D1BDE8F08F284A556C2C435464C9E7AC
:10A3D0004FF003090CFA02F737EA050033D15000B9
:10A3E000D3F800A009FA00F4E4430AEA040AC3F827
:10A3F00000A0D3F800B006FA00FA4AEA0B0AC3F844
:10A4000000A0D3F808A004EA0A0AC3F808A0D3F809
:10A4100008B00EFA00FA4AEA0B0AC3F808A0D3F80B
:10A4200004A02AEA07075F60D3F804A008FA02F73D
:10A4300047EA0A075F60DF683C40DC60DC6801FADD
:10A4400000F02043D8600132102AC3D1BDE8F08F5C
:10A45000054A156B2C43146384E7034A156C2C439F
:10A4600014647FE7787C05080038024010B50409C1
:10A47000013C042C17D80E4B33F8142000F00F00C9
:10A4800042FA00F313F001030FD0012303FA00F0A6
:10A490000138104046F0C6FA064A074B125D1044D8
:10A4A00003EBC00010BD002010BD184610BD00BF5A
:10A4B000A07C0508AC7C0508287C002041F6FC3215
:10A4C00012F0020F2DE9F04F10464D4C4D494E4B06
:10A4D0004E4D4FF0020A4FF004094FF008084FF0BC
:10A4E000100E4FF0200C4FF040074FF0800603D0C5
:10A4F0001960A3F804A0083312F0040F03D0196008
:10A50000A3F80490083312F0080F03D01960A3F8E1
:10A510000480083312F0100F03D01960A3F804E090
:10A52000083312F0200F03D01960A3F804C00833D9
:10A5300012F0400F02D019609F80083312F0800F94
:10A5400002D019609E80083312F4807F05D04FF44A
:10A55000807B1960A3F804B0083312F4007F05D0A3
:10A560004FF4007B1960A3F804B0083312F4806F35
:10A5700005D04FF4806B1960A3F804B0083312F4CF
:10A58000006F05D04FF4006B1960A3F804B00833D6
:10A5900012F4805F05D04FF4805B1960A3F804B01B
:10A5A000083312F4005F05D04FF4005B1960A3F884
:10A5B00004B00833520404D54FF4804219609A80E5
:10A5C0000833C20B04D04FF4004219609A8008335C
:10A5D000A94213D034F8020B10F0010F18BF4FF04E
:10A5E000010B024601F580611EBF1960A3F804B09B
:10A5F000083312F0020F3FF47FAF79E7BDE8F08F28
:10A60000A27C050800000240287C002000100240C7
:10A6100000B9704703682DE9F04F03F13F4404F59A
:10A620007E04534EA40A0125345D04F01F0664091C
:10A63000032C05FA06F500F09580042C00F08D80BF
:10A64000022C45D08588B5FA85F0C0F11F0080B294
:10A65000C40803EB840400F00700266A80000F277B
:10A66000874026EA07062662276A01F00306824031
:10A67000701E3A4301282262C1F3810EC1F3001813
:10A680004FF000024FEA51114FF0010C25D94FF065
:10A69000030E0CFA02F0A84315D150001F680EFA01
:10A6A00000F4E44327401F60D3F8008006FA00F767
:10A6B00047EA08071F60DF683C40DC60DC6801FA9D
:10A6C00000F02043D8600132102AE2D1BDE8F08FBB
:10A6D000284C666C35436564B4E74FF003090CFA07
:10A6E00002F737EA050033D15000D3F800A009FA89
:10A6F00000F4E4430AEA040AC3F800A0D3F800B067
:10A7000006FA00FA4AEA0B0AC3F800A0D3F808A038
:10A7100004EA0A0AC3F808A0D3F808B00EFA00FA4F
:10A720004AEA0B0AC3F808A0D3F804A02AEA0707EC
:10A730005F60D3F804A008FA02F747EA0A075F60EF
:10A74000DF683C40DC60DC6801FA00F02043D86040
:10A750000132102AC3D1BDE8F08F064C266B354379
:10A7600025636FE7034C266C354325646AE700BF19
:10A77000787C05080038024000B97047036803F18F
:10A780003F4202F57E022DE9F04F920A464DAA5C47
:10A7900002F01F0552090124032A04FA05F47ED0B1
:10A7A000042A77D0022A30D001F00306721E012A53
:10A7B000C1F3810EC1F300188588C1F341114FF038
:10A7C00000024FF0010C25D94FF0030E0CFA02F0F5
:10A7D000A84315D150001F680EFA00F4E443274047
:10A7E0001F60D3F8008006FA00F747EA08071F60E9
:10A7F000DF683C40DC60DC6801FA00F02043D86090
:10A800000132102AE2D1BDE8F08F284A556C2C4362
:10A810005464C9E74FF003090CFA02F737EA050060
:10A8200033D15000D3F800A009FA00F4E4430AEA57
:10A83000040AC3F800A0D3F800B006FA00FA4AEA06
:10A840000B0AC3F800A0D3F808A004EA0A0AC3F868
:10A8500008A0D3F808B00EFA00FA4AEA0B0AC3F8C7
:10A8600008A0D3F804A02AEA07075F60D3F804A081
:10A8700008FA02F747EA0A075F60DF683C40DC60DD
:10A88000DC6801FA00F02043D8600132102AC3D1FD
:10A89000BDE8F08F054A156B2C43146384E7034A27
:10A8A000156C2C4314647FE7787C0508003802405F
:10A8B00010B1036882885A83704700BF10B10368E3
:10A8C00082881A83704700BF18B10368828809B96B
:10A8D0005A8370471A83704738B5074B03EBC0059E
:10A8E0002C796A794C40A24205D053F830002146B9
:10A8F000FFF7EAFF6C7138BD9888002010B40A4B4E
:10A900000A4A1C7801238340234052F8200029B9C9
:10A91000B3FA83F149095DF8044BD5E7191C18BF58
:10A9200001215DF8044BCFE7777E0020787E002080
:10A9300030B1036882881B691A4214BF01200020CD
:10A94000704700BF2DE9F0410B4E346873691C401D
:10A950000FD0DFF828800127B4FA84F3C3F11F0376
:10A9600007FA03F558F8230003689847AC4375616C
:10A97000F2D1BDE8F08100BF003C0140307E0020F4
:10A980002DE9F0410B4E346873691C400FD0DFF89D
:10A9900028800127B4FA84F3C3F11F0307FA03F5F3
:10A9A00058F8230003689847AC437561F2D1BDE8BD
:10A9B000F08100BF003C0140307E00202DE9F041D5
:10A9C0000B4E346873691C400FD0DFF828800127D4
:10A9D000B4FA84F3C3F11F0307FA03F558F8230010
:10A9E00003689847AC437561F2D1BDE8F08100BFC0
:10A9F000003C0140307E00202DE9F0410B4E3468D0
:10AA000073691C400FD0DFF828800127B4FA84F363
:10AA1000C3F11F0307FA03F558F8230003689847AA
:10AA2000AC437561F2D1BDE8F08100BF003C01404C
:10AA3000307E00202DE9F0410B4E346873691C40D4
:10AA40000FD0DFF828800127B4FA84F3C3F11F0385
:10AA500007FA03F558F8230003689847AC4375617B
:10AA6000F2D1BDE8F08100BF003C0140307E002003
:10AA70002DE9F0410B4E346873691C400FD0DFF8AC
:10AA800028800127B4FA84F3C3F11F0307FA03F502
:10AA900058F8230003689847AC437561F2D1BDE8CC
:10AAA000F08100BF003C0140307E00202DE9F041E4
:10AAB0000B4E346873691C400FD0DFF828800127E3
:10AAC000B4FA84F3C3F11F0307FA03F558F823001F
:10AAD00003689847AC437561F2D1BDE8F08100BFCF
:10AAE000003C0140307E0020084A094808B5536CFC
:10AAF00043F4804353640021402247F005FD054B99
:10AB00004FF0FF321A60C3F8032008BD003802403E
:10AB1000307E0020707E0020002837D0F0B41C4921
:10AB20000579002301E0152B2DD003EB43020133FF
:10AB30008C5CAC420A44F6D192F902700468457903
:10AB4000FBB2022B1FD81348134907EB47060246F6
:10AB5000B600002304E00133172B14D052F82C1F49
:10AB60008C42F8D11179A942F5D19119C96800290F
:10AB7000F1D02C2202FB03F308330C2212FB073323
:10AB80001844F0BC70470020F0BC7047704700BF0D
:10AB9000888900207486050800000140D3B2012B8B
:10ABA00023D8F0B4124F02EB420600253C46B60013
:10ABB0002B4604E00133152B14D014F81C5FA84277
:10ABC000F8D165788D42F5D1A519AD68002DF1D089
:10ABD000C3EBC3039B000C20043310FB0233F818B3
:10ABE000F0BC70470020F0BC70470020704700BFE9
:10ABF000282605082DE9FF47B2F1FF3F05468946A3
:10AC000092461F46BDF830400D9E20D001F101084C
:10AC1000CDE9008239460368134A2046B0475246C0
:10AC20005FFA89F12879FFF7B9FF00B100880F4A70
:10AC3000C3B20393C0F30323000B0293CDE900805A
:10AC40002B6839462046B04704B0BDE8F08763065C
:10AC5000FAD44B1C0C930368054A39462046B44687
:10AC600004B0BDE8F0476047119205081E92050840
:10AC7000429205082DE9F04F5F4CDFF888918BB0C8
:10AC8000054604F1480ADFF874B10026A37A99F862
:10AC90000070B3427DDC0C34A245F4D140F21620A2
:10ACA000FDF7C2FFD0E901480FB9A0463C46152286
:10ACB000002104A847F028FC002606EB460B18F8F4
:10ACC0000B7087B308EB0B0A38469AF801100BF0AB
:10ACD0002BF99AF902A08146002C00F0898000230C
:10ACE00003EB4302A25CBA427ED1A34404A9012330
:10ACF0009BF902208B55AAEB0200D0F1000B4BEB25
:10AD0000000B3CB13D4B4946CDE9005338465B460C
:10AD1000FDF728FB3A4B5246CDE9005349465B46C6
:10AD20003846FDF71FFB0136152EC6D174B3DFF888
:10AD3000D0B0002604AB9F5D2FBB06EB460814F88D
:10AD40000890B9F1000F1ED004EB080393F902201C
:10AD50000392511C17D0597848460BF0E5F8274B61
:10AD6000039A01468246CDE9005348463B46FDF72B
:10AD7000F9FA14F808003B46CDE9005B4FF0FF32CA
:10AD80005146FDF7EFFA0136152ED3D10BB0BDE8D1
:10AD9000F08FE088FDF748FFD0E901310FB919467F
:10ADA0003B46227A607A06FB02028F56CBB19A5656
:10ADB000A7EB020CDCF1000848EB0C0833B1CDE93D
:10ADC000005B434631462046FFF714FF0C4B3146EB
:10ADD000CDE900533A4643462046FFF70BFF0136C4
:10ADE00054E74FF0FF32E3E70133152B7FF478AFE0
:10ADF0004FF0FF327FE700BF8C01002019B600083A
:10AE000035B500089016002010B58B680160044627
:10AE10009847FF2300210122E3812173627310BD53
:10AE200003681B6A184700BF70B44E1C0568C272E5
:10AE30008672AC69A44670BC604700BF2DE9F04142
:10AE4000044618460D4616461F4645F0A5F8284408
:10AE5000A0722068E672294645693B463246204684
:10AE6000AC46BDE8F0416047036810B504461B6876
:10AE70009847236820469B689847E37B0133E37338
:10AE800010BD00BF10B5036804469B689847FF23B8
:10AE90000122A373627310BD70B5054600780E469B
:10AEA000FFF7E4FA044618B1382301368371C671FE
:10AEB00020466978FFF760FCAB78204613B1BDE807
:10AEC0007040FBE4BDE87040F2E40D4B2DE9F04129
:10AED0001E680C4D07460024A64201DCBDE8F08147
:10AEE00004EB440303EB0508E85CFFF7BFFA874275
:10AEF00004D121464046BDE8F041CDE70134EBE7FF
:10AF0000B87E0020BC7E0020427A4AB110B50446CB
:10AF100004F10A01D0E9003098470023637210BDA4
:10AF2000704700BF48B10123302803FA01F101D076
:10AF3000312803D14A0709D1002070473228F9D0BF
:10AF40003328F7D0342803D18B07F5D00120704780
:10AF50003528F9D02028F7D02128F5D01228E9D0BB
:10AF60001328E7D01428EFD01528EDD0162804D1E7
:10AF700011F0030018BF012070471728DCD111F031
:10AF8000030018BF01207047302826D0312826D072
:10AF9000322826D0332826D0342826D0352826D06B
:10AFA000202828D0212828D018B3122827D01328E9
:10AFB0000BD0142825D0152825D0162825D01728E1
:10AFC00008BF0F2302D0002070470B23104A03EB69
:10AFD0004303134493F8C60270470023F6E70123A6
:10AFE000F4E70223F2E70323F0E70423EEE7052367
:10AFF000ECE70823EAE70623E8E70723E6E70A2366
:10B00000E4E70C23E2E70D23E0E70E23DEE700BFD1
:10B01000B0250508024B01461868FDF76FB900BF5F
:10B02000EC19002038B5064D441E14F8011F28689D
:10B0300011B9BDE8384067E7FDF760F9F5E700BFF3
:10B04000EC1900200048EDE79BA2050808B5FFF7C2
:10B05000E9FFBDE80840F5E710B504460348FFF7EF
:10B06000E1FF2046BDE81040F0E700BF519205081F
:10B07000024A136823EA00001060704734A00020E1
:10B08000DFED2B7AB4EEE70AF1EE10FA4ADDDFEDE0
:10B09000296A9FED297A01E0B0EE670AB4EEC70A8B
:10B0A000F1EE10FA70EE667AF6DC9FED247AF4EE9B
:10B0B000C77AF1EE10FA38D5DFED1E6A9FED207ADF
:10B0C00001E0F0EE407AF4EEC77AF1EE10FA37EED6
:10B0D000A60AF6D4DFED1B7AB4EEE70AF1EE10FA19
:10B0E00014DDDFED137A37EEC00A60EE006A9FEDE3
:10B0F000166A9FED167ADFED167AA6EE867A20EEB6
:10B10000266AE6EE877AA6EE270A7047DFED117A07
:10B11000B4EEE70AF1EE10FA44BFDFED087A37EE3D
:10B12000C00AE2E7F0EE407ABFE7B0EE670AD1E787
:10B13000DB0F4940DB0FC940E4CB1641DB0F49C0B0
:10B14000E4CB16C1DB0FC93F92E741B99730083C09
:10B1500015A82ABEDB0FC9BFF0EEC07AB0EEE07AC8
:10B16000B4EEE77AF1EE10FAB4BFB0EE676AB0EE73
:10B17000476AB5EE406AF1EE10FA46D0B4EEE77ACF
:10B18000F1EE10FA8CBFF0EE675AF0EE475AC5EEBA
:10B19000866A9FED1F3A9FED1F6A9FED1F4A9FED44
:10B1A0001F5ADFED1F3ADFED1F4ADFED1F5AA6EEF3
:10B1B000C36AE6EEA34AA6EE864AB7EE006AA6EE9A
:10B1C000845AA6EEA46AE6EE855AC5EE866AB4EE07
:10B1D000E77AF1EE10FA48BFDFED147AF5EEC00A17
:10B1E00048BF77EEE66AF1EE10FA48BFDFED107A5D
:10B1F000B5EEC00A48BF77EEE66AF1EE10FA48BF36
:10B20000F1EE666AB0EE660A7047DFED076ADEE7C8
:10B2100039094E3DE3B59E3E88FA163E45FE7F3F16
:10B2200099FB243F69A2163EA7DFA834DB0FC93F74
:10B23000DB0F4940DFED317A30EE277AFDEEC76A49
:10B2400016EE903A2033402B02D99FED2D0A70471D
:10B25000B4EEE70AF1EE10FA4DDD9FED2A6ADFED5C
:10B260002A6A01E0B0EE677AB4EEE67AF1EE10FAFF
:10B2700077EE467AF6DC9FED257AF4EEC77AF1EEAA
:10B2800010FA35D5DFED1F6A9FED217A01E0F0EE6F
:10B29000407AF4EEC77AF1EE10FA37EEA60AF6D449
:10B2A000DFED167AB4EEE70AF1EE10FA1BDCDFED03
:10B2B000197AB4EEE70AF1EE10FA44BFDFED137A23
:10B2C00037EEC00A60EE006A9FED136A9FED137AB5
:10B2D000DFED137AA6EE867A20EE266AE6EE877A0E
:10B2E000A6EE270A7047DFED0F7A37EEC00AE9E7CE
:10B2F000B0EE670AD4E7F0EE477ABCE7DB0FC93F50
:10B3000000000000DB0FC940E4CB1641DB0F49C051
:10B31000E4CB16C1DB0FC9BF92E741B99730083CB7
:10B3200015A82ABEDB0F494010B44C09012250F881
:10B33000243001F01F0102FA01F123EA010340F871
:10B3400024305DF8044B704710B44C09012250F8CA
:10B35000243001F01F0102FA01F10B4340F82430C0
:10B360005DF8044B704700BF4B0901F01F0150F816
:10B370002320012303FA01F1114214BF18460020D3
:10B38000704700BF2DE9F043002489B006460D4602
:10B390001F46A04605E025290CD030460134A847B9
:10B3A000039A531C039311780029F4D1204609B065
:10B3B000BDE8F083931CCDE903385078302842D0A3
:10B3C000A0F13003DBB2092B4FF0000945D96C28FE
:10B3D0002AD0642873D019D9732858D063D9752816
:10B3E00040F0828007F1040C386805AB00220A2186
:10B3F0006746FDF7BDFA05AB049A009329464B4614
:10B400003046FDF7BFF8039A0444CAE725283CD02C
:10B4100051D958286BD06328C2D139783046A84713
:10B4200004370134039ABCE7039B5A1C03921B7830
:10B43000642B52D016D8252B27D064D9582B18D07E
:10B44000632BEAD0ADE7D31C03939078A0F13003CF
:10B45000DBB2092B4FF00109B9D804AA03A941F0C6
:10B4600065FCB4E7732B12D051D9752B2DD0782BF6
:10B4700097D1A3F15802B2FA82F23868520905ABAB
:10B4800010210437FDF774FAB5E7252185E73B68FD
:10B49000049A0093294600233046FDF773F80437D9
:10B4A0000444039A7DE76E287FF47AAF039A3B68E1
:10B4B00004371C6075E700283FF478AF70E7386800
:10B4C00005A9FDF71FFA043795E7386805AB002298
:10B4D0000A21FDF74DFA04378DE73B1D386805A9B1
:10B4E0001F46FDF70FFA86E778287FF459AFA0F1E1
:10B4F0005802B2FA82F23868520905AB1021FDF702
:10B5000037FA043777E7002B3FF450AF49E76E2B4B
:10B51000CDD046E710B5054C0B46024604492068DD
:10B52000FFF730FF2068BDE81040EDE4EC19002083
:10B530001F8500080CB4C30607B500D561B905A97D
:10B5400004980191FFF7E6FFFFF77CFD012003B0AF
:10B550005DF804EB02B070470020F8E770B50646CE
:10B5600044F01AFD114C054690B1112200212046ED
:10B5700046F0CAFF2A460E49304646F0F1FF38B180
:10B58000102D2A46314628BF1022204646F0FAFFE9
:10B590002378064A002B08BF0121054B1CBF002160
:10B5A00013460120034ABDE87040C3E7144B002056
:10B5B00093FC05083B94050870B5054644F0ECFC87
:10B5C000044690B1112200210F4846F09DFF22460B
:10B5D0000E49284646F0C4FF38B1102C22462946B1
:10B5E00028BF1022084846F0CDFF094B13F8112F51
:10B5F000002A064A06BF012113460021054A012000
:10B60000BDE8704096E700BF254B002093FC05087D
:10B61000144B0020569205080CB407B510F020001A
:10B620000BD079B92320FFF7F5FC05A90498019107
:10B63000FFF770FFFFF706FD012003B05DF804EB94
:10B6400002B070470020F8E72DE9F04F354C87B085
:10B650008046354A2378608802EB8303D3F8D4937D
:10B66000FDF7E2FAD0E901A30493304B1B7813B93C
:10B67000CDF810A09A4608F04003DFF8BCB005935F
:10B680000026A379002B08BF01239E4206DB284B2E
:10B6900008349C42DDD107B0BDE8F08F6279237990
:10B6A00006FB0323049A0136D55CBAF1000F11D1D1
:10B6B000B5FA85F77F090DB305F00F032D09403565
:10B6C0000293CDE900654B465A4639464046FFF79E
:10B6D00031FFD6E71AF80330EA1A57425741C3B18F
:10B6E00003F00F021B0940330292CDE900635A4672
:10B6F0004B4639464046FFF78FFFDCE7059B002BA2
:10B70000BFD100964B460B4A39464046FFF712FF21
:10B71000B7E700964B46074A39464046FFF77CFF9D
:10B72000C9E700BFA4280508B02505089016002029
:10B73000842905087C920508669205082DE9F04FDA
:10B740004A4085B098461D4FD34306460D46002417
:10B75000039320463CF034FE0E9B184228D0039BF6
:10B76000174ADFF860A0034214BF4FF001094FF001
:10B77000000910EA050302934FF00C0303FB0423B6
:10B780004946D3F808B0CDF800B014BF3A46524647
:10B7900043463046FFF740FF029ACDF800B04346DB
:10B7A000002A14BF52463A4649463046FFF7C2FEC9
:10B7B0000134182CCDD105B0BDE8F08F4E9A0508A4
:10B7C000CC530508909205082DE9F04F002687B06C
:10B7D000824693460D46144637464FF019094FF4FA
:10B7E0006178BBF1000F1DD006222146284646F0A5
:10B7F00063FE63791B4A19FB03830593237919FBC5
:10B8000003830493E3780393A3780293637801930B
:10B81000B0FA80F7237800937F09334639465046C3
:10B82000FFF7FAFE6B790F4A19FB038305932B7917
:10B8300019FB03830493EB780393AB7802936B7843
:10B84000019315F8063B00933946334650460136BE
:10B85000FFF770FE0A2E04F10604C2D107B0BDE85E
:10B86000F08F00BF979205082DE9F047344F8CB058
:10B870000646894615460024C4EBC40309EB0302BF
:10B88000106891889279089040F30748ADF8241029
:10B890008DF82620B8F1000F4AD0002D4DD02B4452
:10B8A0000AA918689A880A909B79ADF82C2008A8F4
:10B8B00007228DF82E3046F0FFFD9DF82E300693BE
:10B8C0009DF92D3005939DF92C3004939DF82B3074
:10B8D00003939DF92A300293B0FA80FA9DF829303B
:10B8E00001934FEA5A1A9DF8283000933A462346AE
:10B8F00051463046FFF790FE9DF8263006939DF99D
:10B90000253005939DF9243004939DF82330CDE92B
:10B9100002839DF8213001939DF8203000933A4630
:10B920002346514630460134FFF704FE102CA3D1C4
:10B930000CB0BDE8F047FFF785BBAA46DCE700BFC7
:10B94000B09205082DE9F04FDFF818B189B08046B4
:10B95000894616460D4614460027002E6DD00C224F
:10B960002146284646F0A8FD94F90B30049394F93B
:10B970000A300393B4F908300293B4F90630019306
:10B98000B0FA80FAB4F9043000934FEA5A1A3B46F1
:10B990005A4651464046FFF73FFE95F90B30049357
:10B9A00095F90A300393B5F908300293B5F90630DA
:10B9B0000193B5F9043000935A463B465146404640
:10B9C0000137FFF7B7FD082F05F10C0504F10C0452
:10B9D000C3D10024DFF890A0254686B300270123B9
:10B9E00003FA07FB325959F8043053403BEA03038A
:10B9F00014BF0123002312EA0B0F079306D0009710
:10BA00002B46524607994046FFF706FE59F8043088
:10BA10001BEA030F06D000972B4652460799404673
:10BA2000FFF788FD01370E2FD9D10135082D04F11C
:10BA30000C04D2D109B0BDE8F08FB246ADE737466D
:10BA4000012359F80420BB40134206D000972B462F
:10BA5000524601214046FFF76DFD01370E2FEFD111
:10BA6000E3E700BFCD920508E59205082DE9F04F08
:10BA7000064685B08846144689469246002700252A
:10BA800009EB050393F8C0300393002C64D00AEB54
:10BA90000503039A93F8C030D01AD0F1000B4BEB9A
:10BAA000000BCDE900532E4A3B4659463046FFF77E
:10BAB000B3FD039B2A4ACDE9005359463B46304625
:10BAC0000135FFF737FD062DDAD10137062F09F1D1
:10BAD00006090AF1060AD2D1DFF884B008F1E40AB7
:10BAE00000251AF8019B002C38D063195A4693F8A8
:10BAF000E430A9EB03014F424F41CDE900533946F1
:10BB000006233046FFF788FDCDE900590623144A85
:10BB1000394630460135FFF70DFD0B2DE1D198F880
:10BB2000EF506CB194F8EF300193EA1A544254414B
:10BB3000002300930A4A072321463046FFF76CFD95
:10BB40000023009301950723054A21463046FFF75D
:10BB5000F1FC05B0BDE8F08FA346AAE72746D3E77E
:10BB6000FA9205082DE9FF47DFF868A08146904664
:10BB70000F4614460025B8F1000F28D004222146B4
:10BB8000384646F099FCE3780293A3780193B0FA23
:10BB900080F62388009376092B4652463146484664
:10BBA000FFF73AFDFB780293BB78019337F8043B2B
:10BBB000009352462B46314648460135FFF7BAFC02
:10BBC000102D04F10404D6D104B0BDE8F087464638
:10BBD000E8E700BF0E9305082DE9F04FDFF8688015
:10BBE0008FB007468A46164600240DF124095AF8FC
:10BBF00024300293494602A843F0B2F816B356F82F
:10BC00002430029D0393EB1A5D420DF1100B5D4150
:10BC1000594603A843F0A4F8CDF800B023464246A5
:10BC200029463846FFF7F8FC2346CDF800904246F7
:10BC3000294638460134FFF77DFC202CD7D10FB0C0
:10BC4000BDE8F08F3546EFE7209305082DE9F74F63
:10BC5000DFF864A081468B4617460E46002447B3A2
:10BC600007EB840804224146304646F025FCB8F82C
:10BC700002300193B0FA80F537F8243000936D0953
:10BC80002346524629464846FFF7C6FC738801936F
:10BC90003BF8243000935246234629464846013457
:10BCA000FFF748FC042C06F10406D8D103B0BDE828
:10BCB000F08F3D46EAE700BF2A9305082DE9F04FD3
:10BCC000834689B092460D46144600264FF0190966
:10BCD0004FF46178BAF1000F45D00A222146284678
:10BCE00046F0EAFB23890793E388069323790593BB
:10BCF000E3780493A3781D4A19FB038303936378C5
:10BD000019FB0383029323780193B0FA80F76379D8
