:020000040800F2
:10000000F0FF001065610508A545020825180208E3
:100010000562050805620508056205080000000084
:10002000000000000000000000000000B1450208D0
:10003000AD45020800000000A9450208DD180208CD
:1000400005620508056205080562050805620508E0
:1000500005620508056205083925040865260408B7
:1000600029260408ED250408B125040885E60008C2
:1000700075E6000865E6000855E6000841E6000858
:100080002DE6000819E60008056205080562050866
:10009000056205080562050805620508752504085E
:1000A00079AD010815B30108A9AC0108E5B3010851
:1000B00055B2010895B10108C9B00108C5FF000893
:1000C000CDFF0008B5FF0008BDFF00080562050868
:1000D00005620508A91E0408056205080D1E04082E
:1000E000FD2404080562050899930208D9AB0108AC
:1000F00049AE010809AB010829AF010805E600086F
:100100000562050805620508F9AF010805620508E2
:100110000D1A020805620508A16E01088D6E01081E
:10012000F1E50008DDE50008C9E50008B5E50008CF
:10013000A1E50008056205080562050805620508D5
:100140000562050805620508056205086D6002087C
:100150008DE5000879E5000865E5000871190208D9
:10016000A5FF0008ADFF0008056205080562050847
:1001700005620508056205080562050805620508AF
:0801800005620508056205088F
:080188000C5D05000100000000
:1001900002020300441D0020401D0020000000005A
:1001A00000000000100201004C1D0020481D00202E
:1001B000000000006C0700081F021000601D0020F6
:1001C000501D0020000000002585000807020200E5
:1001D000F047002088480020000000006E0700085B
:1001E00003123D00294800208C4800200000000038
:1001F0007007000802000C00C8470020CC4800200F
:10020000000000000000000006020C00BC470020B7
:10021000D848002000000000C995000808120F000F
:100220003C470020E448002000000000F98400085A
:10023000F701060030470020F448002000000000CD
:10024000AE0700081D0202002C470020FC480020D9
:1002500000000000B40700080A020A001845002048
:100260000049002000000000611C0108030001009B
:10027000304000200C490020000000000000000079
:1002800010100200FC3F0020104900200000000078
:10029000B607000825102C012C4500201449002029
:1002A00000000000000000001A023C00484B002043
:1002B0002C4E0020000000002D95000827000400AF
:1002C000444B0020684E002000000000B8070008E2
:1002D00038100100644A00206C4E0020000000002D
:1002E000BC0700081400030070680020DC680020D0
:1002F00000000000C00700080B301A0074580020EE
:10030000E068002000000000C40700081F3024003F
:1003100090580020FC68002000000000E007000862
:100320000502040004640020206900200000000091
:100330000408000803010A00D058002024690020A6
:100340000000000008080008130204009C5600206A
:10035000306900200000000012080008F6210C009F
:10036000DC8300202884002000000000180800081A
:1003700020320A00848400207884002000000000DD
:100380007D9D02081C021000CC7F0020908400207C
:1003900000000000B1830008281010002C8300200A
:1003A000A084002000000000F99D020801200C003C
:1003B000107C0020B0840020000000002408000809
:1003C0000A7028006C7B0020BC8400200000000024
:1003D0009D9D02080EA05C01107A0020E48400209C
:1003E000000000003D5B0408010104007479002056
:1003F0004086002000000000000000000001040012
:100400006C790020448600200000000030080008BD
:1004100002010300687900204886002000000000E7
:100420002109010822021401809E0020D0A0002092
:1004300000000000759700080C109C009C8E0020A6
:10044000E4A1002000000000F508010800020500FA
:10045000808E002080A2002000000000000000002C
:100460001B021000548E002088A200200000000013
:10047000DD8300081E000600AC8B002098A200203F
:1004800000000000340800081B100C00A8880020A1
:10049000A0A20020000000000D5003082102F0007F
:1004A00028870020ACA20020000000007D3D03084A
:1004B00023121000089100209CA3002000000000DF
:1004C0003C0800080510060000910020ACA30020A5
:1004D000000000004C08000837102800DC8D0020C8
:1004E000B4A3002000000000520800080E02020021
:1004F000FC900020DCA30020000000007A08000827
:10050000161006001C870020E0A300200000000059
:100510007C0800082F102200ACA00020E8A30020D7
:10052000000000008208000812201000948A0020B9
:100530000CA4002000000000A408000823100E00F6
:10054000FC8A00201CA4002000000000119E02086C
:10055000F5518C00548600202CA4002000000000DF
:10056000918A030826100C00C4A40020B8A400201F
:100570000000000071300308190005001CAD0020C8
:10058000E0AD002000000000B40800081A000E00D2
:10059000A8AC0020E8AD002000000000BA08000868
:1005A000F82106007CAB0020F8AD00200000000020
:1005B000C808000815007000F4A9002000AE002053
:1005C00000000000000000002A00600080AD002054
:1005D00070AE002000000000155B04082C00100025
:1005E000E0AE0020D0AE002000000000A5580408B6
:1005F0002B00240014AF0020F0AE0020000000000B
:100600007558040829207800E0A7002038AF0020A2
:1006100000000000000000000D003C00BCE80020CD
:1006200068E900200000000049A603080902010053
:1006300028E80020A4E9002000000000D0080008FD
:1006400004008000A8E70020A8E9002000000000C6
:10065000000000001300040088E7002028EA0020C2
:1006600000000000D4080008FD01240064E7002019
:100670002CEA002000000000DDF2030818202E0004
:1006800030E7002050EA002000000000D996000862
:1006900006101A0050D2002080EA0020000000005E
:1006A000995B0408FB0101004CD200209CEA002069
:1006B0000000000049970008FC01090018D1002043
:1006C000A0EA0020000000005997000816023F0031
:1006D000D8D00020ACEA00200000000019840008F7
:1006E0003400100008D00020ECEA002000000000D8
:1006F0006D5B040811020800E0CF0020FCEA002036
:1007000000000000D808000812120400D8CF002012
:1007100004EB002000000000E0080008F9010400DC
:1007200058CC002008EB00200000000055F303081F
:10073000FA01020010C600200CEB002000000000AF
:100740002186000811000C0099BA002010EB00204F
:1007500000000000CDA50308FE01140074BA0020BB
:0C0760001CEB002000000000F1830008EA
:10076C000000013C00000000000000000000000040
:10077C00000000000000000000000000000000006D
:10078C00000000000000000000000000000000005D
:10079C00000000000000000000000000000000004D
:1007AC000100000001000000000000052003000013
:1007BC000000000003000000AE014A015E012C01A4
:1007CC0064000200000001000A019A01001E0A00E8
:1007DC000000000000000000000100000005000007
:1007EC0001020300000000000000000000000000F7
:1007FC000000000000800700000000000401010060
:10080C006C16000000000000013500000000000024
:10081C000100000002020000E8036400040A000169
:10082C0014001E00900100000000010000000000F8
:10083C0000000000000000000000000000000000AC
:10084C0020000301000020003200C800D0079600F1
:10085C00140032002800B0044006000550001400BB
:10086C000F00080064000100010005000A000000F0
:10087C00C409000019000000000000000000000086
:10088C00000000000000000000000000000000005C
:10089C0000000000000000000000000100000552F4
:1008AC0045564F00000800000000280100007E059E
:1008BC00EA05B4053200E803D00700000401F40196
:1008CC00140000002E00000008004030380000002A
:0808DC0001010101FFFFFFFF14
:1008E4001A030000000000000000000000000000E7
:1008F40000000000000000000000000004030904E0
:10090400120100020000004083042057000201028B
:100914000301000011C800087D85000879850008DE
:1009240075850008BD970008718500086D8500086D
:100934001C7C050845470208112902088552020853
:100944000000000000000000894F0208A54E0208C4
:10095400000000000000000000000000492402081C
:100964001586000809860008619D00087D9D000821
:10097400C1850008459D0008299D00080068214C98
:100984001F0000001C0000001F0000001E000000EB
:100994001F0000001E0000001F0000001F000000D8
:1009A4001E0000001F0000001E0000001F000000C9
:1009B400000004010000000000000002100000001C
:1009C4000700000000000000000000000102030412
:1009D400060708090000803F0000803F0000000077
:1009E4000000000000000000FFFFFFFF0000000007
:1009F400784800200800000000000000684800203B
:100A04000800000088FF050894FF0508A0FF0508FA
:100A1400ACFF0508B8FF0508C4FF0508B01D0608AB
:100A240018410608FC3F06082429060864690608DC
:100A340078FF05087CFF050880FF050884FF05088A
:100A4400D0FF0508D4FF0508D8FF0508783E06083E
:100A5400DCFF05081900C800F4012003685E0C00DF
:100A640001000000A00F0000B80B00000102FFFF0E
:100A740001FF00000403090412010002EF02014017
:100A84008304563200020102030100001201000235
:100A940002020040830440570002010203010000E7
:100AA40009022000010104C0320904000002080602
:100AB40050050705810240000007050102400000BF
:100AC40009026400030100C03209040000010300AC
:100AD40000000921110100012226000705830308F3
:100AE400000A080B010202020100090401000102CC
:100AF400020100052400100105240100020424025F
:100B0400020524060102070582030800FF09040206
:100B140000020A00000007050102400000070581E9
:100B24000240000009024300020100C0320904002F
:100B34000001020201000524001001052401000146
:100B4400042402020524060001070582030800FFAD
:100B540009040100020A0000000705010240000028
:100B64000705810240000000FF00000050910508C5
:100B74000000000000000000000000000000000071
:100B84000000000000000000000000000000000061
:100B94000000000000FFFF0000000000AA5505014E
:100BA400000001002491050800000000000000007E
:100BB4000000000000000000000000000000000031
:100BC400000000000000000000000000FF1FFF1FE5
:100BD40005010905A101A100050109300931093206
:100BE400093309350934094009381581257F750809
:100BF40095088102C0C0000009022200010100E042
:100C0400320904000001030102000921110100015D
:100C14002226000705830308000A000000000000E4
:100C2400010203040102030406070809E95102084A
:100C3400ED500208455502080D250208852A0208D0
:100C44001D25020839250208E5240208D5240208D6
:100C540000000000000000002D202D2D202D2D2D42
:100C64002D202D2D2D2D000000000000000000007F
:100C740000000000000000AA550B010000AA55075F
:100C8400010000AA550902000000AA5503009F00B4
:100C940001000000C0120000B06800200000000045
:100CA400D468002000000000010000000594020840
:100CB400000000007892050820700020702D72005A
:100CC400FFFFFFFFD6010000B80B00000101000088
:100CD40000010101002D202D2D202D2D2D2D202D45
:100CE4002D2D0000000000000000000000000000A6
:100CF4000000000000000000000000008CAA0508AD
:100D0400000000000000000018AB0508010000000E
:100D1400FA000000010000000100000001010000D1
:100D24000E7C00200000F401010000000C7C002077
:100D34000000F401010000000A7C00200000F4011E
:100D440001000000087C00200000F4010100000004
:100D5400067C00200000F40101000000047C002057
:100D64000000F40101000000027C00200000F401F6
:100D740001000000059C0208C99B0208B4980508FC
:100D8400FC7B002005320100FA7B0020E803D00739
:100D940001000000F87B0020E803D00701000000F8
:100DA400F67B0020E803D00701000000F47B00205C
:100DB4001E00B80B01000000F27B00201E00F401AD
:100DC40001000000F07B002014006400010000001A
:100DD400FE7B00203200E80301000000EE7B0020CF
:100DE4000000C80001000000C27B002000C8010010
:100DF400C17B002000500100C07B0020005A01008C
:100E0400BE7B002002000000409905081C0E060865
:100E1400240E060852E900200100C4090000000065
:100E240050E900200100C409000000004EE9002040
:100E34000100C409000000004CE900200100C409BD
:100E44000000000048E900200100C409000000007F
:100E54004AE900200100C4090000000046E900201E
:100E64000100C4090000000044E900200100C40995
:100E7400000000008979002000C801008879002062
:100E840000C80100867900200100C80001000000AC
:100E9400847900203200307532000000837900200C
:100EA400055A05008079002000FF010082790020A6
:100EB40001000000B40600207E7900200300000039
:100EC40024B105087F79002000FF0100817900200A
:100ED40001000000B40600207D790020030000001A
:100EE40024B10508799B0208299B02084C9905083E
:100EF400207C0020EE02CA08010000001E7C0020B5
:100F040000C80100640000001D7C002000C801002E
:100F1400640000001C7C002002000000109A0508F8
:100F24007A79002080C1803E050000007879002095
:100F340080C1803E050000007279002080C1803E9F
:100F4400050000007079002080C1803E050000008B
:100F54006B79002000FF0100647900206400F40133
:100F64000100000063790020040000001C9A0508B9
:100F74006279002002000000309A0508FF79002001
:100F84000D0000003C9A0508FC7900200064010073
:100F9400FA790020320010270A000000F9790020B5
:100FA4000D0000003C9A0508F87900200D000000AF
:100FB4003C9A0508F779002002000000749A05089D
:100FC4000000000000000000809A0508BC630020B7
:100FD4009CFF2C0100000000107F0020E0150C177E
:100FE40000000000127F002002000000B89A0508EB
:100FF4002C7C00200100FF7F010000002B7C0020DE
:1010040002000000C49A0508017A002003000000D1
:10101400D49A0508007A002003000000D49A050839
:10102400A07B00200000E803010000009E7B00205C
:101034000000E803010000009C7B00200000E8039E
:10104400010000009A7B00200000E803010000007A
:10105400987B00200000E80301000000967B00203C
:101064000000E80301000000957B0020001401004B
:10107400947B002003000000E49A0508AC7B002068
:101084000000F40101000000AA7B00200000F4012C
:1010940001000000A87B00200000F4010100000012
:1010A400A67B00200000F40101000000A47B0020C6
:1010B4000000803E01000000A27B00200000803E72
:1010C40001000000D57B002019640100D47B0020BE
:1010D40002000000F49A0508D27B0020E803D00740
:1010E4000A000000D07B0020006401000A00000018
:1010F400C57B002000640100C47B00200064010063
:10110400CC7B0020006401000A000000CB7B00209F
:10111400006401000A000000CA7B00200064010092
:101124000A000000CF7B0020006401000A000000D8
:10113400CE7B0020006401000A000000CD7B00206B
:10114400006401000A000000C97B002001FF0100C7
:101154000A000000C87B002001FF01000A00000013
:10116400C77B002001FF01000A0000000A7A00206A
:101174000000F40101000000087A00200000F401DE
:1011840001000000067A00200000F40101000000C4
:10119400047A00200000F40101000000027A00201B
:1011A4000000F40101000000BD7B00200064010088
:1011B400BC7B002000640100BB7B002000640100B4
:1011C400BA7B0020FF080100B97B00200164010004
:1011D400F5990208B9990208009B0508B87B00201C
:1011E40000640100B67B00201400E8030100000045
:1011F400B47B0020E80330750A000000B27B0020B5
:1012040000C80100B17B002000C80100B07B0020B1
:1012140000C80100AF7B0020006401000A00000048
:10122400EC7B00200000D00701000000E77B0020D9
:1012340000C80100E67B002000C80100E57B002017
:1012440000C80100EA7B00200000D0070100000074
:10125400E47B002000C80100E37B002000C80100FB
:10126400E27B002000C80100E87B00200000D007DA
:1012740001000000E17B002000C80100E07B0020A9
:1012840000C80100DF7B002000C80100000000004E
:1012940029970208709B0508F579002035000000A5
:1012A4000C9C0508F479002000C80100F2790020A4
:1012B400E803D007010000005245564F000000002B
:1012C4007596020839960208E49C0508F59502080B
:1012D400A9950208549D0508B1960208D5B90208DB
:1012E400D49D05087C790020010301006D9C02084F
:1012F400419C0208C8A005085195020811950208EE
:1013040038A105083F97020879C80208D4A1050846
:10131400E5B50208000000007CA205085DBD0208D6
:10132400CD9C020818A3050891970208000000004C
:1013340098A305086998020815980208FCA30508F3
:10134400F9980208BD98020898A40508319A020881
:10135400799A020818A50508C37B0020010601003C
:10136400D9970208A597020814A60508359902081A
:1013740039BA020884A60508AD9A0208C1BA02085F
:1013840064A70508AE7B002001030100F99602085A
:10139400C996020838A80508999C020800000000B4
:1013A4009CA8050891950208BDB9020800A9050882
:1013B400000000000000000064A90508019B020869
:1013C40039BB0208E4A905085E79002088136F1769
:1013D400010000006079002088136F1700000000EE
:1013E40032590020000000000000000030590020A5
:1013F40000000000000000002E5900200000000042
:10140400000000002C590020000000000000000033
:101414002A59002000000000000000002859002084
:1014240000000000000000003C0500200000000057
:101434000000000034790020020000006CAB0508B5
:101444005C79002088136F1701000000FC63002002
:1014540088136F1700000000A59402080000000024
:1014640078AB0508427F002001000000CCAB0508E2
:10147400FE63002001000000D8AB0508F4630020DF
:1014840002000000E0AB05080000000000000000BE
:10149400ECAB0508919402080000000088AC050834
:1014A4000000000000000000DCAC050800000000A3
:1014B400000000004CAD0508F8630020E0150C178F
:1014C400000000000100000000000100FFFFFFFF1A
:1014D40001FFFFFF692A0208552902082155020865
:1014E40000000000D1240208D9500208A5280208EF
:1014F4005150020800000000000000008D24020882
:1015040021240208152402085546020871460208DF
:10151400394602081D46020801460208212A02082B
:10152400312902086154020800000000A5240208C1
:101534005550020879280208B14F02080000000043
:101544000000000099240208FFFF0000FFFFFFFFD6
:101554006465060800000802050303006C650608BC
:1015640001000802050403000C0106080200FE0144
:10157400011003004C1206080300140200030000CB
:101584007465060804001F02010008007C65060853
:1015940005001F0201010800010000007D00000099
:1015A400FFFFFFFF0000803F00000000000000007C
:1015B400000000000000803F000000000000000068
:1015C4000000000000000000000000000000000017
:1015D4000000000000000000000000000000803F48
:1015E40000000000000000000000000001000000F6
:1015F400112402080D24020809240208FD2302080C
:10160400F92302080524020801240208010000004D
:101614000060024010600240000000000000000072
:10162400000B0000000000000000000000000000AB
:101634000060024028600240010000000000000039
:10164400060C000000000000000000000000000084
:101654000060024040600240020000000000000000
:10166400100D000000000000000000000000000059
:1016740000600240586002400300000000000000C7
:10168400160E000000000000000000000000000032
:10169400006002407060024004000000000000008E
:1016A400200F000000000000000000000000000007
:1016B4000060024088600240050000000000000055
:1016C40026100000000000000000000000000000E0
:1016D40000600240A060024006000000000000001C
:1016E40030110000000000000000000000000000B5
:1016F40000600240B86002400700000000000000E3
:10170400362F000000000000000000000000000070
:101714000064024010640240000000000000000069
:10172400003800000000000000000000000000007D
:101734000064024028640240010000000000000030
:101744000639000000000000000000000000000056
:1017540000640240406402400200000000000000F7
:10176400103A00000000000000000000000000002B
:1017740000640240586402400300000000000000BE
:10178400163B000000000000000000000000000004
:101794000064024070640240040000000000000085
:1017A400203C0000000000000000000000000000D9
:1017B400006402408864024005000000000000004C
:1017C40026440000000000000000000000000000AB
:1017D40000640240A0640240060000000000000013
:1017E4003045000000000000000000000000000080
:1017F40000640240B86402400700000000000000DA
:101804003646000000000000000000000000000058
:10181400006606088827060800000000350901084C
:10182400A086010004000000000000000000000089
:1018340000000000000000000000000000000000A4
:101844000000000000000000000000000000000094
:1018540000660608806906080000000089990108EE
:10186400E803000004000000000000000000000085
:101874000000000000000000000000000000000064
:101884000000000000000000000000000000000054
:1018940080150608F43E060800000000BD29010872
:1018A4007D000000060000000000000000000000B1
:1018B4000000000000000000000000000000000024
:1018C4000000000000000000000000000000000014
:1018D40050650608000000000000000029C001084F
:1018E400E803000003000000000000000000000006
:1018F40000000000000000000000000000000000E4
:1019040000000000000000000000000000000000D3
:1019140088690608000000000000000035DC0408A7
:101924001027000003000000000000000000000079
:1019340000000000000000000000000000000000A3
:101944000000000000000000000000000000000093
:101954007065060800000000415504084DE70108C1
:101964005F76000005000000000000000000000099
:101974000000000000000000000000000000000063
:101984000000000000000000000000000000000053
:10199400046806080000000000000000A91A0208FC
:1019A40010270000010000000000000000000000FB
:1019B4000000000000000000000000000000000023
:1019C4000000000000000000000000000000000013
:1019D4009469060800000000000000008D990108C9
:1019E400E803000005000000000000000000000003
:1019F40000000000000000000000000000000000E3
:101A040000000000000000000000000000000000D2
:101A1400A06906080000000000000000D982010847
:101A2400204E000003000000000000000000000041
:101A340000000000000000000000000000000000A2
:101A44000000000000000000000000000000000092
:101A5400B06906080000000000000000C58001080D
:101A6400204E000003000000000000000000000001
:101A74000000000000000000000000000000000062
:101A84000000000000000000000000000000000052
:101A9400C0690608000000000000000055A001080D
:101AA400400D0300030000000000000000000000DF
:101AB4000000000000000000000000000000000022
:101AC4000000000000000000000000000000000012
:101AD400FC270608000000000000000019C40308E9
:101AE40010270000010000000000000000000000BA
:101AF40000000000000000000000000000000000E2
:101B040000000000000000000000000000000000D1
:101B1400C02406080000000000000000715B0308F8
:101B24001027000003000000000000000000000077
:101B340000000000000000000000000000000000A1
:101B44000000000000000000000000000000000091
:101B5400D0690608000000000000000061200308AE
:101B6400A086010001000000000000000000000049
:101B74000000000000000000000000000000000061
:101B84000000000000000000000000000000000051
:101B9400546506080000000000000000819E010852
:101BA40050C300000100000000000000000000001D
:101BB4000000000000000000000000000000000021
:101BC4000000000000000000000000000000000011
:101BD400381106080000000000000000959B010871
:101BE400A8610000010000000000000000000000E7
:101BF40000000000000000000000000000000000E1
:101C040000000000000000000000000000000000D0
:101C1400D86906080000000000000000E59B0308E6
:101C2400A086010001000000000000000000000088
:101C340000000000000000000000000000000000A0
:101C44000000000000000000000000000000000090
:101C54001C2806080000000000000000CDC8010890
:101C6400A00F0000010000000000000000000000C0
:101C74000000000000000000000000000000000060
:101C84000000000000000000000000000000000050
:101C9400E469060800000000000000008D8B0308C2
:101CA40010270000010000000000000000000000F8
:101CB4000000000000000000000000000000000020
:101CC4000000000000000000000000000000000010
:101CD400E0660608000000000000000015A50308E7
:101CE400A00F000001000000000000000000000040
:101CF40000000000000000000000000000000000E0
:101D040000000000000000000000000000000000CF
:101D1400B01C06080000000000000000298403082D
:101D24001A41000001000000000000000000000053
:101D3400000000000000000000000000000000009F
:101D4400000000000000000000000000000000008F
:101D5400F810060800000000000000003D2D0208F5
:101D64001027000001000000000000000000000037
:101D7400000000000000000000000000000000005F
:101D8400000000000000000000000000000000004F
:101D94009C270608000000000000000001D0020893
:101DA4001A410000010000000000000000000000D3
:101DB400000000000000000000000000000000001F
:101DC400000000000000000000000000000000000F
:101DD400F0690608000000000000000095330208C6
:101DE400400D03000000000000000000000000009F
:101DF40000000000000000000000000000000000DF
:101E040000000000000000000000000000000000CE
:101E1400F8690608000000000000000005A6030899
:101E2400400D03000000000000000000000000005E
:101E3400000000000000000000000000000000009E
:101E4400000000000000000000000000000000008E
:101E5400006A06080000000000000000099603085C
:101E640050C3000003000000000000000000000058
:101E7400000000000000000000000000000000005E
:101E8400000000000000000000000000000000004E
:101E94000C6A0608000000000000000039800108F8
:101EA40040420F000000000000000000000000009D
:101EB400000000000000000000000000000000001E
:101EC400000000000000000000000000000000000E
:101ED400186A0608000000000000000095A7030827
:101EE40050C30000000000000000000000000000DB
:101EF40000000000000000000000000000000000DE
:101F040000000000000000000000000000000000CD
:041F14000000803F0A
:1080000003685A1C02601970704700BF2DE9F047E1
:10801000089C2578002B804689460CBF4FF0200A2B
:108020004FF0300A661C25B3002A26DD334601E0F6
:10803000024698B113F8011B501E0029F8D1971E73
:1080400060B13D46013D51464046C8476B1C002B80
:10805000F8DC257827EAE770013045B1041B294692
:108060004046C847301916F8015B002DF7D1BDE82E
:10807000F087002A03DC2846F9E70020EEE7571EC8
:10808000DFE700BF2DE9F04714461D4606464FF4D2
:108090007A720023204629464DF098FE4D4BDFF8BA
:1080A00048814D4A4D4F034488FB03101844D917AB
:1080B00082FB032CC1EB601088FB002887FB0327A1
:1080C0009C44474AC1EBEC2CC0EB001E82FB0C2900
:1080D000A3EB8E0E1F44434A86F806E0C1EB274708
:1080E0004FEAEC7E08EB000ACEEBA90E82FB07827A
:1080F0004FEAE0780EEB4E0EC8EB6A18ACEBCE0CF4
:10810000C8EB0818DFF8E4E086F804C0A0EB8800AC
:1081100070718EFB0303F817C0EBE21240F2B5500A
:1081200000FB1272C1EBE353B2F5896F4FEA83078C
:108130003CDA40F2DA239A4242DCB2F5B77FB4BFB0
:108140004FF0000E4FF0010E4FEA4E09DFF8A0800D
:1081500009EB0E0308EBC3031FFA8EFCD88A09EB68
:108160000E0108EBC10116310B2301E031F8020DBD
:10817000904218DD013BF9D1CE44012338F83E008E
:10818000B37007F5FA670132121ABC44F270A6F810
:1081900000C0204629464FF47A7200234DF016FEA7
:1081A0003281BDE8F0870133DBB2E9E74FF0030C21
:1081B000E64640F29650DFF838804FF00609CEE7E9
:1081C0004FF0020CDFF82880E64640F229404FF0DD
:1081D0000409C4E780BC92C7C5B3A29107452EC26B
:1081E000ABAAAA2A73B06D1689888888792D0311E5
:1081F000F87905080028F0B403DA2D230B7040420B
:108200000131092804464FF0010307DD03EB830326
:108210005B00B0FBF3F2092AF8D883B10F48A0FB4A
:108220000326B4FBF3F2092A02F1570C02F13007DE
:1082300009DD03FB1244F30801F801CBEFD1002361
:108240000B70F0BC704703FB1244F30801F8017B8C
:10825000E5D100230B70F0BC704700BFCDCCCCCC77
:10826000884270B44FF0010442D301FB04F4B0FB28
:10827000F4F58D42F9D2ECB142BB092D04FB150097
:1082800005F1570605F130020EDDB4FBF1F403F8F9
:10829000016B7CB1B0FBF4F5092D04FB150005F171
:1082A000570605F13002F0DCB4FBF1F403F8012BC2
:1082B000002CEFD100221A7070BC704703F8016BDC
:1082C000B4FBF1F4002CF5D0B0FBF4F5092D04FB60
:1082D000150005F1370605F13002EFDCB4FBF1F4CF
:1082E00003F8012B002CEFD100221A7070BC7047EC
:1082F0000546002AEAD1C0E790ED057A90ED004AE4
:10830000D0ED066AD0ED014AD0ED047A90ED035A23
:10831000D0ED025AA4EE007AB0EE406AB0EE470A01
:10832000B0EE667AA4EE867A67EEC07AA5EE407A61
:10833000E5EE867A80ED057AC0ED067A704700BFDB
:10834000D0ED057A90ED013AD0ED003AD0ED064A35
:1083500090ED024A90ED077A90ED035A90ED086A8D
:10836000D0ED045AC0ED067AF0EE406A27EE830A9B
:10837000C0ED056AA3EEA60A80ED087AA4EE240AF1
:10838000A5EE470AA5EEC60A80ED070A704700BFB2
:10839000D0ED007A90ED017A30EE670AE7EE007AD0
:1083A000B0EE670AC0ED007A704700BF704700BFAB
:1083B00030B414220023342504240221C270012287
:1083C0008571C4710370C3728373C373417041724A
:1083D00082700272827230BC704700BF0023062197
:1083E0004FF47A720170C0E901230373704700BF34
:1083F00030B43223012231254FF60174FF2143703E
:1084000000234571048281740272027002714381FB
:108410008381C38130BC70472DE9F04F3149324B25
:1084200083B001F5C07B01902E274FF000092F4843
:108430001022012603E0203098420BD002799742A7
:10844000F9D102680C68A24209D02030984206F1A6
:108450000106F3D1203159453AD00F79E7E7447945
:108460004D79A542F1D19446019A214809EB49057D
:1084700002EB050A57558AF8016000F572751D4E2A
:10848000624603E0A8421AD050F82C6FB242F9D1EC
:108490000679A642F6D1CF6806464FF0000C964604
:1084A0008046F268BA4216D00CF1010CBCF1030F01
:1084B00006F10C06F5D14046A8427246E4D14FF0D1
:1084C000FF3C203159458AF802C009F10109C4D1A5
:1084D00003B0BDE8F08F086932698242E4D14FFAF7
:1084E0008CFCEEE7B8DF050868EB0508A8E1050895
:1084F00068EB05080000014030B41522162317254B
:108500003A243B21027043703C22FF238570847221
:10851000C1720273C3700371037243724373837336
:1085200030BC7047034600F11001FF221A705A70E8
:1085300002338B42FAD10270427002714271827131
:10854000C2718272C272704730B41D6995420AD3FB
:1085500014460A4621448D42996938BF2A1B21449A
:1085600030BC4DF0D1BE30BC704700BF002070471A
:108570000120704701207047002070474FF40070C1
:10858000024B10609B680B600020704760CC00209D
:10859000013A30B4D2B28C1C04EB42040025020F25
:1085A000092AD3B203F130028ABF37330A700B7045
:1085B0004D7002318C424FEA0010F0D130BC704750
:1085C0000B4A0C4B10681B681A22C0180A8001D194
:1085D0000948704710B5094B09491C680822FFF784
:1085E000D7FF204604220749FFF7D2FF024810BDFB
:1085F000E8F7FF1FECF7FF1F88010020EAF7FF1FD5
:108600008A0100209A01002004230B800048704753
:10861000A401002012230B8000487047A80100200D
:108620002322032302704370704700BF0830704755
:10863000704700BF816170472DE9F04FDFF8DCC162
:10864000754CDCF800502288B4F90AA0C2EB25135F
:108650005200C2EBE502B4F902505B436A43B4F93D
:1086600004501B135D43AD1305EBE225B5F5FA325B
:108670004FEAE57B85B04BF1FF33CDE90023DDE91F
:1086800000325343009AA561A2FB0289CDE90201A1
:10869000B4F908200199009809EB43095143D31715
:1086A00000FB0311A2FB00230B444FEAEA7B0AFB09
:1086B00009F11F0308FB0B13AAFB080119444FEA39
:1086C000102A4AEA016A16034FEA212B47EA125799
:1086D0001AEB0602E6884BEB070312F1000A43F59A
:1086E000004BAAFB060106FB0B114A10CB1752EAFE
:1086F000030100F08E80B4F91060009806FB09F1C8
:10870000F71708FB0711A6FB08673944B4F90E8078
:108710008B4601994FEAE87908FB01F100FB09114A
:10872000A8FB00898944DCF804104FEA4947C1F5E9
:10873000801C47EAD837B2464FEA4846B4F90C8065
:108740001AEB060A66464BEB070BF7174FEAC8060B
:10875000019600260096F907DDE900674FEACC7024
:1087600016EB0A0647EB0B0741EA5C01801B61EB45
:10877000070140F6354C8946A0FB0C010CFB0911A2
:108780004DF024FBB4F91620B4F914A04E13470B96
:1087900047EAC14702FB06FCD31707FB03CCA2FB49
:1087A00007236344564307FB0366A2FB07233344B6
:1087B000560E46EAC31632184FEA636747EB0103C9
:1087C00080460AFB01F14FEAEA7B08FB0B17AAFB84
:1087D00008013944C60C46EA413612EB06084FEA56
:1087E000E147B4F9122043EB07094FEA182141EAA7
:1087F000096113010B44029A0AB11B0A1360039B1F
:1088000023B105EB850580352D121D6005B0BDE84F
:10881000F08F0023EFE700BF9C830020C0170020EB
:10882000704770472DE9F041334B344E1A897489F3
:10883000B6F91450B6F90480B6F90E70B6F920C036
:10884000DB68121B34895443E213B6F91240154415
:10885000E40294FBF5F4B6F902501444A4F57A6EE0
:108860000EFB0EF20EFB05F50EFB08FEB6F90C80B2
:10887000F4611213574302FB08F2121402EB6E323A
:10888000ED1205EBE7270232B6F90050B6F806E024
:10889000921002F5004207EB85070EFB02F207FA81
:1088A0000CF74FEAD23E02374CF25032A3EBA70747
:1088B00042FA0CF37B4355BF5B00B3FBFEF3B3FB03
:1088C000FEF35B0078B11A1202FB02F540F6DE32CD
:1088D0006A430B4D12145D4302EB254202F6CF6250
:1088E00003EB2213036021B10A235C4308342411F3
:1088F0000C60BDE8F08100BFC01700206483002039
:1089000043E3FFFF6D4B2DE9F04F1C696C4BB3F84F
:108910000AE0B3F804809A894FEA0E2AB4EB0A04FD
:108920004FEA1E6B4FF0000587B065EB0B05CDE9F4
:1089300000450746009C1889019EA0FB044500FBEA
:108940000655E00940EA45604FEA08448C46E911C3
:108950004FEA184510EB0408D888009C41EB050944
:10896000CDE90489A0FB0445B3F8028000FB06555D
:10897000200A40EA05604FEAC83429124FEA5845F8
:1089800010EB040841EB05090099A2FB010102FB71
:1089900006114FEAD05A4AEA412A1AF5FA634FEA19
:1089A000E15B4BF10004B3F5FA6FCDE9023474F1E9
:1089B0000003424E64DA0524AAFB040104FB0B11F8
:1089C00000FB0BF40AFB0144DDE90423A0FB0A01D0
:1089D00021444D104FEA3004121B4FEA900463EB20
:1089E000050344EA8174B8EB0408CDE90423DDE90A
:1089F000023434484FEAA10569EB05094FF0FF3115
:108A0000834274EB010326DA40F6AC501AEB000205
:108A10004FF000014BEB010302FB03F1A2FB022329
:108A200003EB4103D400DD00101B45EA527563EBF4
:108A30000501DDE9044524184D41CDE904450B2429
:108A4000A2FB040104FB031149104FEA3000B8EB0C
:108A5000000869EB0109DDE900325343009ADDE9C2
:108A60000201A2FB02AB0BEB430B4FEADA7242EAC4
:108A70004B02801A4FEAEB7361EB0301CDE902016F
:108A800097B17169A1FB082301FB0933540D5D15F2
:108A900044EAC324DDE90423A21A65EB03031D465F
:108AA000D30B43EA45433B60BCF1000F02D0029B6D
:108AB000CCF8003007B0BDE8F08F00BFC017002031
:108AC0008883002024FAFFFF4FF40063038370477C
:108AD0004FF400630383704710B500F10C040122CA
:108AE0000B2120463AF082F920B11D2209212046AF
:108AF0003AF07CF900F0010010BD10B500F10C0453
:108B00007022002120463AF071F9202201212046EE
:108B10003AF06CF90022022120463AF067F964200D
:108B200018F0DCFD012010BD3122F4213AF05EB9CD
:108B3000044B93F820209201343202F0FC02F4211D
:108B40003AF054B9648300202E22F4213AF04EB951
:108B5000012248213AF04AB9012258213AF046B997
:108B6000012380F8503070474FF40063038370474F
:108B7000F0B4037C456902681F2B37D9203B2021C4
:108B8000546899400C4223D010249C40D160D4609A
:108B90005168D940CE074ED4EFF31183502282F3AF
:108BA0001288EA6B1168C90709D45468002C52D1A5
:108BB000D5E909618E4243D1012285F86020DBB2FC
:108BC00083F31188037C02681F2B194614D9203BBC
:108BD000082150689940084200D0D16004215068B3
:108BE00001FA03F3184223D1F0BC70472024166821
:108BF0009C4026420FD11946082310688B4018422A
:108C000000D093600423106803FA01F10842EBD00E
:108C10009160F0BC70471021994094609160116898
:108C2000D940CC07B8D5012101FA03F39360B3E72B
:108C3000D360F0BC7047012101FA03F3D360ABE7C6
:108C4000AF690F44D7600ED82E69711A5160AC62BB
:108C5000002185F86010116841F00101DBB211605C
:108C600083F31188AEE7711A5160AE62F0E700BF7E
:108C7000F0B4B34BB3491A780B789A4240F00781AD
:108C8000B14B1A78002A68D0B04B1978B04B002944
:108C900065D11868B3F8305141628489012A44EAE9
:108CA00005048481A3F8301157D0D3F83401B3F808
:108CB000645241628489022A44EA05048481A3F84B
:108CC00064124AD0D3F86802B3F898534162848999
:108CD000032A44EA05048481A3F898133DD0D3F80D
:108CE0009C03B3F8CC5441628489042A44EA050405
:108CF0008481A3F8CC1430D0D3F8D004B3F8005654
:108D000041628489052A44EA05048481A3F8001697
:108D100023D0D3F80406B3F8345741628489062A75
:108D200044EA05048481A3F8341716D0D3F8380731
:108D3000B3F8685841628489072A44EA05048481AB
:108D4000A3F8681809D0D3F86C28B3F89C4951628D
:108D5000908920439081A3F89C19F0BC70475C680F
:108D6000198961602568186845F0010540F20D31E8
:108D70002560A0F848108489012A44F48074848115
:108D8000EBD0D3F83841B3F83C51D3F834016560E7
:108D9000256845F001052560A0F848108489022A5D
:108DA00044F480748481D8D0D3F86C42B3F8705204
:108DB000D3F868026560256845F001052560A0F8D4
:108DC00048108489032A44F480748481C5D0D3F880
:108DD000A043B3F8A453D3F89C036560256845F01D
:108DE00001052560A0F848108489042A44F48074A1
:108DF0008481B2D0D3F8D444B3F8D854D3F8D00493
:108E00006560256845F001052560A0F84810848953
:108E1000052A44F4807484819FD0D3F80846B3F8BF
:108E20000C56D3F804066560256845F001052560F9
:108E3000A0F848108489062A44F4807484818CD078
:108E4000D3F83C47B3F84057D3F838076560256836
:108E500045F001052560A0F848108489072A44F4EC
:108E6000807484813FF479AFD3F87028B3F8740824
:108E7000D3F86C385060106840F001001060A3F81F
:108E800048109A8942F480729A81F0BC70475C0065
:108E9000E618304D15F83660032E3FF6F1AEDFE8E8
:108EA00006F05D261C02E01805EBC0004468661E53
:108EB000012C46603FF651AF013303F00303D8B2F3
:108EC000824208703FF4DCAE03EB4303DB00EA1898
:108ED00002200021E85451603FE7E11805EBC10191
:108EE0004868461E01284E603FF637AF0DE0E11896
:108EF000C90068184668771E012E47603FF62DAFFF
:108F000002274FF0FF366F544660E618F600AF199F
:108F10001148397B00680139C9B23973002940D042
:108F20004FF47A722344B2FBF0F200FB02F0B0F58A
:108F30007A7F05EBC30518BF01326A60A0E600BF67
:108F4000203F0020213F0020B8300010B430001036
:108F50008CDD0020243F0020440E002070B11D490C
:108F6000012600220F890132002F18BF00269042EF
:108F700001F5B271F6D1002E3FF482AE164A1268A6
:108F800042F21076E018B6FBF2F102FB1162012604
:108F900005F8306002B13144234405EBC305696034
:108FA0006EE6BF68B7FBF0F100FB11700327AF5509
:108FB00000B101311C44013305EBC40503F0030388
:108FC000934269603FF45CAE00293FF459AE013929
:108FD000696055E66CD20020440E002010B5027C7A
:108FE00001681F2A4FF020030ED94C68203A9340A5
:108FF0001C4208D00B4A406800241470026822F01A
:1090000001020260CB6010BD0C6893401C42FAD094
:10901000044A406800241470026822F001020260D1
:109020008B60F0E798BA002010B5027C01681F2A17
:109030004FF020030ED94C68203A93401C4208D0D0
:109040000B4A406800241470026822F0010202609A
:10905000CB6010BD0C6893401C42FAD0044A4068B3
:1090600000241470026822F0010202608B60F0E7B5
:10907000439100202DE9F041C40023189B00B7491B
:10908000CA585268958AADB2EFB2FE070B4461D45C
:10909000BE0737D5BFF35F8F1D7EEDB2012D00F007
:1090A000BB80AF4E138BBFF35F8F231801EB83039D
:1090B0001D7E022D00F0CE80231801EB83031D7E60
:1090C000032D05D19B7E1BB1737E002B40F01A81CE
:1090D000938896F918C043F480639380231801EBBA
:1090E00083031B7E013363450AD1B37E0025757669
:1090F000002B40F08A80204401EB80000023437560
:10910000BDE8F081964E17F0040F96F918C04DD1C6
:1091100017F0400700F0B280178A1D6AFFB205F809
:109120000C705FFA8CF56F1C93F818E07BB2DF1CB3
:10913000BE4533769C4600F00981271801EB87076E
:109140003F7EBB42CAD105F1020C4FFA8CFC86F877
:1091500018C0C3E71588824E25F400652D042D0C38
:109160001580158845F4806515809D7E002737762B
:10917000002D3DD0757E002D37D0231801EB8303E1
:1091800001251B7E7576022B03D1138843F40063FF
:109190001380231801EB83039B7D43F001031382AB
:1091A000204401EB8000037EBDE8F0819F7E757E48
:1091B0004FF0010E86F81AE0002F5CD0002D78D118
:1091C000231801EB83035B7E002B00F0A48013883F
:1091D0000CF1010C4FFA8CFC43F4007386F818C0B4
:1091E00013801388DF05FCD478E7DB7DFF2BC4D028
:1091F000231801EB83039D7D05F0FE051582DB7DC1
:10920000FF2BCDD0FF233376CAE7938823F4407336
:109210001B041B0C93806EE79B7E514E002B3FF48A
:1092200041AF737E002B3FF43DAF138823F480637E
:109230001B041B0C1380BFF35F8F138B1388B57651
:1092400043F400731380938896F918C043F4806345
:10925000938043E79B7E002B3FF42EAF737E002B61
:109260003FF42AAF138896F918C023F480631B04D7
:109270001B0C138016E0002DA2D0A8E72D067FF569
:109280002DAFBCF1FF3F6DD0DD6915F80C50158294
:109290000CF1010C1D7E4FFA8CF39D429C463376F7
:1092A0007FF41CAF938823F480631B041B0C938012
:1092B00014E71F7ED3F820805FFA8CF5AE44022FAE
:1092C0004FFA8EFE17882DD927F480673F043F0C94
:1092D0001780178AFFB208F80C701788D3F820C0DF
:1092E00047F400731380138ADBB20CF80E309388B6
:1092F00005F1020C4FFA8CFC43F4806386F818C029
:1093000093806EE7938896F918C023F480631B045A
:109310001B0C9380E2E61388012543F480731380CD
:1093200075765EE747F400771780178AFFB208F872
:109330000C70178AD3F8208005F1030C4FFA8CFCCF
:10934000FBB286F818C008F80E304AE7978827F471
:1093500080673F043F0C9780EFE600BF5047002036
:10936000C0170020DD7D15829D7E37761DB91B7EDE
:10937000002B7FF415AF938823F480631B041B0C30
:1093800093800DE77FB5002500F10C060C460D809B
:109390004D808D8001230DF107020621304639F002
:1093A000F9FB10B9002004B070BD9DF807305B07D1
:1093B000F8D5062302AA2946304639F0EBFB0028EF
:1093C000F0D09DF809209DF8083043EA022323805D
:1093D0009DF80B209DF80A3043EA022363809DF834
:1093E0000D209DF80C3043EA0223A380DBE713B580
:1093F00006230C466A4603210C3039F0CBFBA0B1A2
:109400009DF800209DF8013043EA022323809DF857
:1094100002209DF8033043EA0223A3809DF8042034
:109420009DF8053043EA0223638002B010BD07B502
:1094300006236A46F72139F0ADFB9DF801309DF80F
:1094400000100C4A1B0143EA01339DF8021043EA65
:10945000111353609DF804309DF803101B0143EA7B
:1094600001339DF8051043EA1113136003B05DF852
:1094700004FB00BFC017002007B5032301AAF62193
:1094800039F088FB9DF805309DF804201B0243EA63
:1094900002439DF806201343054AB2F92020C2F189
:1094A0000802D340034AD36003B05DF804FB00BF59
:1094B00064830020C017002007B5022301AAF6210B
:1094C00039F068FB9DF804209DF8053043EA02233B
:1094D000024A138103B05DF804FB00BFC0170020EF
:1094E00007B5032301AA002139F054FB9DF805308C
:1094F0009DF804001B0243EA00439DF80600184350
:1095000003B05DF804FB08B5FFF7EAFF014B5861B3
:1095100008BD00BFC017002008B5FFF7E1FF014BF1
:10952000186108BDC017002039F0FCBC38B51D4BD0
:109530001B78044600F1250593B104221A49203016
:109540004EF044FA2846142218494EF03FFA0123FF
:1095500084F83A30164B1B7873B984F83B3038BD29
:109560002846142213494EF031FA012384F83A3088
:109570000F4B1B78002BF0D00F4B186859689A6876
:10958000DD68E56020606160A260DD691869596985
:109590009A69A2610123E5612061616184F83B3031
:1095A00038BD00BF88A5002050A5002038A50020A8
:1095B00089A5002050F7050858A50020014B186820
:1095C00038F016BDD84D002010B4292128240122DE
:1095D0000023047041708270C3705DF8044B7047C3
:1095E0002DE9F84FDDE90A6489461746002120225B
:1095F000984605464EF0ACF95EB1D6E90032718965
:10960000EB81C3F30F432B82C2F30F43EA822B8318
:10961000698248464BF0E4FE17F0100B10D1431E50
:1096200070B119F803202E2A18BF09EB030104D1E9
:109630004AE011F8016D2E2E3ED013F1FF33F8D21F
:1096400008280246CA46A8BF08224FF0000B4FF078
:1096500020336B602B60C5F807304946284605F17A
:1096600008064CF051FE5A46514630464CF04CFE2E
:109670006B1EE81D13F8012FA2F1610119299CBF8F
:10968000203A1A708342F5D105F10B0116F8013B1F
:10969000A3F16102192A9CBF203B06F8013CB142AC
:1096A000F4D11823C8F30F42EF722B73A5F81A8078
:1096B000AA82EC61BDE8F88FC01A00F1FF3BBBF154
:1096C000030FA8BF4FF0030B082B03F1010AA8BF3B
:1096D0000823CA441A46BAE738B52E2200214EF0B4
:1096E00037F90346642440F2DC5040F21A4140F25C
:1096F0006C7240F202251C7458821324192099823E
:10970000DA8240F2753140F643021D839C760E25C5
:1097100002241877D9830A201E211A84012283F893
:109720002B0083F82C1083F8225083F82A409A7378
:1097300083F8252083F8292019460248BDE83840DF
:1097400029F0CEBA58F7050810B5002104460120CB
:1097500012F088F8207010BD38B500240472451E40
:10976000E1B2022012F07EF80134082C05F8010F56
:10977000F6D138BD38B50024054604802146284678
:10978000013430F02FFC082CF8D1002185F8E210CC
:10979000A5F8E410A5F8E610A5F8E810A5F8EA1079
:1097A000A5F8EC10A5F8EE10A5F8F010A5F8F21049
:1097B0002846BDE8384030F0D7BB00BF2DE9F04F58
:1097C000002087B00C461D460121924638F072FEFB
:1097D000002D63D005EB0A03DFF8D094DFF8D0B496
:1097E000039355461CE0002D00F0C581D9F81430D4
:1097F000AB4264D0D9F81030AB4200F09780D9E981
:109800000631AB4252D8A94200F26F81691A204654
:1098100048F0FAFA039B01359D4204F500743DD0EF
:10982000D9F82060AE42DED8D9F83080AE1B4FEABE
:10983000D60AD8F830300AF1020A9A4506F007062F
:1098400003D3D8F838309A4509D94146504648F0F4
:10985000A9FA8046002800F04D81C9F8300098F838
:109860000430002B40F0E280D8F82870002F00F080
:10987000DF81D8F83030D8F80C20AAEB030A06EBC9
:10988000CA0A4346204602EB4A224FF40071B84709
:10989000039B01359D4204F50074C1D100210846A7
:1098A00038F008FE002007B0BDE8F08FA942ADD91E
:1098B0004FF40072002120464EF04AF8AAE75222E7
:1098C00061204123002622706270A070722284F809
:1098D000E70184F8E631D9F82800E3704FF0FF3350
:1098E000314684F8E42184F8E521C4F8E8014FF416
:1098F000F07284F8EC3184F8ED3184F8EE3184F8BC
:10990000EF31201D4EF024F855216FF05502C4F8B8
:10991000F061C4F8F461C4F8F86184F8FC6184F87B
:10992000FD6184F8FE1184F8FF2173E74FF40072A3
:10993000002120464EF00CF8D44BD54F03CBEB233F
:10994000022223704FF0080C9026F8234FF0580E97
:10995000C4F80300227484F80DC0C4F8071084F81A
:1099600001E0A6706375D9F81010D9F80830D9F85D
:109970001C602273591A21624FF0FF3100233F20EF
:10998000A1763E21A273E372E3736374A374E3745C
:109990002375A375E3756376E3766377A377E3773F
:1099A0002076217784F82C2007CFD9F8187084F816
:1099B0002830F61B84F8293084F82A3084F82B30BC
:1099C00084F82D3084F82E3084F82F3084F831302C
:1099D00084F8323084F8333080236662C4F847005C
:1099E00004F1470684F8403029209423A94F84F8D5
:1099F00046C084F8420084F843300E200D234FF017
:109A0000010C84F8440084F8453084F830C071605B
:109A100003CF33465527AA269A60C4F85200C4F8EB
:109A2000561084F8FE7184F8FF61F3E64FF400727B
:109A3000002120464DF08CFFD8F84030002E61D137
:109A400004F12007002B77D0D8F83030924911224A
:109A5000CDE900662046FFF7C3FDD8F840301A6C08
:109A600004F1400A002A79D01B6B8C49CDE90066CD
:109A700038461122FFF7B4FDD8F84460002E3FF4B9
:109A8000C9AE4FF4E078CDE904450CE00024CDE9FF
:109A900000C4FFF7A5FDB66CBA46A8F120080EB3C6
:109AA000B8F11F0F1ED93468356B96F804E0112207
:109AB0002B46214650460AF1200706F11C0CBEF148
:109AC000000FE3D172793369019342F021022B46F2
:109AD000CDF800C0FFF784FDB66CBA46A8F12008A7
:109AE000002EDDD1DDE9044594E6E91A204648F070
:109AF0008BF98FE6231F04F5FE7243F804BF9A42E8
:109B0000FBD187E6002BD8F844200CBF01230223A9
:109B1000C3EB0613002A3FF47DAE966C013B002E8A
:109B20003FF478AE013BB66CF9D1002E3FF472AE33
:109B3000A2464FF40078A6E7CDE900663346D9F88F
:109B40000C1008222046FFF74BFDD8F84460002E89
:109B50003FF460AEBA464FF4F07894E7CDE9006682
:109B60003346384611224D49FFF73AFDD8F8446094
:109B7000002E86D14EE64FF40072294620464DF065
:109B8000E7FE80220C2384F8BE2184F8C231D9F884
:109B90001000434BD9F8086084F8B85183FB0032B9
:109BA000C117C1EB2232B2F5806F84F8B95184F845
:109BB000BA5184F8BB5184F8BC5184F8BD51C4F843
:109BC000C601C4F8CA6142DBFF2384F8BF3184F8C0
:109BD000C13184F8C031324B711E83FB0132CE1784
:109BE000C6EB2232B2F5806F29DA2E4B84F8C521FC
:109BF00083FB01030B442C48C6EB6313C3EB8316B2
:109C000080FB0370891B1844DE17921022F03F027C
:109C10000131C6EBE0100A43034484F8C42184F800
:109C2000C3315522AA2384F8FE2184F8FF31F1E5DF
:109C300039464FF4007220464DF08AFEEAE5FF23D4
:109C400084F8C33184F8C53184F8C431E9E7154B91
:109C500084F8C12183FB00730344134FC1EB6313EA
:109C600087FB0317C3EB831C9110A0EB0C02F818C1
:109C7000DF1721F03F010132C7EBE0100A43034434
:109C800084F8C02184F8BF31A5E700BF6CF7050850
:109C900078F7050888F7050864F7050868F70508E8
:109CA00097554541832008828180808060CC0020C8
:109CB000DEADBEEF08B501201BF090FF174A936898
:109CC00003F00C03042B1ED0082B18D151685368E5
:109CD000490203F03F0319D452681148B0FBF3F076
:109CE000C2F3881300FB03F00C4B0E4A5B68C3F30E
:109CF000014301335B00B0FBF3F0106008BD094B7A
:109D0000074A1A6008BD074B186008BDB0FBF3F0A6
:109D10005368C3F3881300FB03F0E5E70038024003
:109D20000024F400B0AF002010B5044C04480A46EB
:109D300021461AF03FFC204610BD00BFDC17002072
:109D400094F7050810B5044C04480A4621461AF059
:109D500031FC204610BD00BFDC170020A4F7050829
:109D600010B5044C04480A4621461AF023FC20464C
:109D700010BD00BFDC170020B0F705080A4608B583
:109D8000054920B105481AF015FC034808BD0448F0
:109D90001AF010FC004808BDDC170020DCF70508AD
:109DA000C4F70508F8B584894FF6FF764FF47A7446
:109DB00033B319B30F78013101E0B44218D00589EB
:109DC000013CAD07A4B2F8D5BCB284814FF47A74DB
:109DD00002E0BCB2B4420BD00589ED0704F1FF37B5
:109DE000F7D58589ADB20AB115700132013BDFE7C5
:109DF00038F06CFE003018BF0120F8BDFF27DEE709
:109E00000120F8BD30B5437F83B004461BB9012063
:109E1000637703B030BD0523ADF80430056800BF9B
:109E2000A86838F021FB6A4601A902236868FFF799
:109E3000B9FFA86838F01EFB00BF9DF8013003F0A1
:109E4000010383F00100637703B030BDF8B5074C20
:109E500005460F46266803E023689B1BBB4204D8D7
:109E60002846FFF7CFFF0028F6D0F8BD20BA002023
:109E7000F0B5077F83B004464FF0030C002000903C
:109E800016461D468DF804008DF800C06FB30B0E0A
:109E90008DF801300DF10203080C0A0A9970187050
:109EA000062120465A70FFF7D1FFE0B1236800BFBA
:109EB000986838F0D9FA237F2268002B14BF052355
:109EC0000423694650680022FFF76CFF236832467E
:109ED000002158682B46FFF765FF2368986838F023
:109EE000C9FA00BF284603B0F0BD0DF10103D3E766
:109EF000F0B5876983B0064617B13B68BA885A83C4
:109F00007069DFF8A8E08389C3244FF47A734FF0B7
:109F1000060C6D464FF6FF710EF1010E03E0013B9A
:109F20009BB28B4220D002899207F8D5A3B28381DD
:109F30004FF47A7302E0A3B28B4215D00289D207A4
:109F400003F1FF34F7D5828992B20DB12A70013541
:109F5000BCF1000F0BD00CF1FF3CFF24BEF1000F51
:109F6000E1D09EF80040D7E738F0B0FDB76917B1EF
:109F70003B68BA881A839DF805009DF801509DF84A
:109F800002109DF803409DF804209DF8063041EA38
:109F9000052143EA002342EA04220120A6F85010DA
:109FA000A6F85220A6F8543003B0F0BD587A050840
:109FB00038B5054640683B4A038823F040031B043C
:109FC0001B0C0380038823F038031B0490424FEAE4
:109FD000134305D002F58062904201D043F008039C
:109FE00003800388AA6843F04003038012B113681A
:109FF00092885A83838940F2E93301E0002B43D0F1
:10A000000289013B12F0020F9BB2F7D0F523838146
:10A0100040F2E93301E0002B36D00289013B12F017
:10A02000010F9BB2F7D08389838940F2E93300E0C6
:10A030000BB30289013B12F0020F9BB2F8D0FF2351
:10A04000838140F2E93300E0ABB10289013B12F0B9
:10A05000010F9BB2F8D08489E4B2AB6813B11A68DF
:10A060009B881383712C19D008D9AC2C14D0AF2C39
:10A070000ED1092038BD38F029FDEEE7122C0FD0A3
:10A08000702C07D1052038BD38F020FD6868CBE77B
:10A09000732C03D0002038BD072038BD062038BD02
:10A0A000082038BD003800404268AC49138823F0CE
:10A0B00040032DE9F04F1B041B0C1380138887B05D
:10A0C00023F038031B048A4202904FEA134300F046
:10A0D000FF8001F580618A420CBF302138210B439B
:10A0E0001380138802989E4C9E4FDFF884A29E4DE9
:10A0F0009E4E43F0400313806B21802238F002FD16
:10A10000062304939623DFF86CE201934FF01008C6
:10A11000DAF80430C3F30803002B40F0B080EFF30B
:10A120001183002B40F0AB802068AA682368984216
:10A13000FAD133689A42F7D8D7F800C04FF47A7151
:10A1400001FB0CF39B1AB3FBFCF301FB00304FF453
:10A150007A7C4FF00109DAF80430C3F30803002BCE
:10A160006FD1EFF31183002B6BD12368A9682268AC
:10A170009342FAD132689142F7D83A680CFB02FB5D
:10A18000ABEB0101B1FBF2F10CFB03131B1AB3F5AE
:10A190007A7FE0D3019B013B0193B9D1029B9B687D
:10A1A00013B11A689B885383029B586840F2E933C5
:10A1B000828902E0002B00F086800289013B12F0C8
:10A1C000020F9BB2F6D0F523838140F2E93301E020
:10A1D000002B78D00289013B12F0010F9BB2F7D01F
:10A1E0008389838940F2E93301E0002B68D002893A
:10A1F000013B12F0020F9BB2F7D0FF23838140F2A4
:10A20000E93301E0002B5BD00289013B12F0010F22
:10A210009BB2F7D08389DBB20393029B9B6813B197
:10A220001A6899881183039A682A53D0049B013BCA
:10A2300013F0FF0304937FF465AF184607B0BDE841
:10A24000F08FEFF3118188F31288D5F808B02B68EE
:10A25000DB0344BFCEF80090D5F808B02368DEF8E1
:10A260000020C9B281F31188396813440CFB01F254
:10A27000A2EB0B02B2FBF1F20CFB032386E7EFF338
:10A28000118388F31288D5F808C02A68D20304D550
:10A290000122CEF80020D5F808C02068DEF8009032
:10A2A000DBB283F3118839684FF47A72484402FBB9
:10A2B00001F3A3EB0C03B3FBF1F302FB003046E721
:10A2C00038F004FCA9E738F001FC029B586888E7E5
:10A2D000302104E713B11A689B885383029B5868A6
:10A2E00040F2E933828901E0002B53D00289013B1F
:10A2F00012F0020F9BB2F7D08C23838140F2E93336
:10A3000001E0002B46D00289013B12F0010F9BB205
:10A31000F7D08389838940F2E9330289013B12F047
:10A32000020F9BB215D1002BF7D138F0CFFB029B67
:10A330009B6813B11A689B881383059B142B04D365
:10A34000182B25D9543B062B22D9002007B0BDE895
:10A35000F08FFF23838140F2E9330FE000380040A3
:10A3600020BA002024BA002010E000E028BA002023
:10A3700000ED00E01CBA0020002BD6D00289013B82
:10A3800012F0010F9BB2F7D08389DBB20593CEE7C1
:10A39000032053E738F09AFB029B5868BAE700BFE6
:10A3A0002DE9F84F037C02681F2B86BF203B5168C4
:10A3B0001168202202FA03F30B4214BF0123002389
:10A3C0000BB9BDE8F88F4569824F044612F02CFAAC
:10A3D0004FF4B27303FB057380461A7C002A35D113
:10A3E0007D495A680978D2F80090D1B9D3F8D810CD
:10A3F00058890A6822F001020A60B9F80C3023EA91
:10A400000003A9F80C30754B1B78002B32D1237C4C
:10A4100021681F2B13D8202202FA03F38B60BDE8BA
:10A42000F88F5269136823F001031360B9F80C30F8
:10A4300023F480731B041B0CA9F80C30E3E7203BCA
:10A44000202202FA03F3CB60BDE8F88FD3F8D8607E
:10A4500063485F8901225A7431685A680368156835
:10A4600021F001013160AA89013322EA0702AA81A1
:10A470000360CCE74FF4B27303FB0573594AD3F87A
:10A48000D860336823F001033360002333609642C1
:10A490007360B360F36033614FF0210373617AD06E
:10A4A000514B9E4272D0514B9E4278D0504B9E42AF
:10A4B0007AD0504B9E427CD04F4B9E427DD04F4B2A
:10A4C0009E427ED04E4B9E427FD030461BF08EFA8D
:10A4D0004FF4B27A0AFB05FA07EB0A0501232B7445
:10A4E000D5F8DCB012F0A0F90AF18C013944CBF8B0
:10A4F0002C0148461BF0CAFBD5E92B70D5F89830E3
:10A50000D5E92D123B4303430B431343D5F8BC203D
:10A51000D5F8CC7030683B491343D5F8C0201343BD
:10A52000D5F8D0203B43014013430B430022C5F82C
:10A53000A42033607269D5F8C430D5F8A81022F091
:10A54000070CD5F8C820D5E92770134343EA0C035C
:10A5500073617160B760F0603268D5F8D83095F8F3
:10A56000D400696842F01002326058601A680968C5
:10A5700042F001021A608B896A8913438B8112F0C1
:10A5800053F9214BA0EB0800186040E74FF47462C8
:10A5900043F8202C9CE71D4B3D229A6098E74FF42E
:10A5A000741243F8382C93E74FF0746243F8502C40
:10A5B0008EE7174A43F8642C8AE7164A43F87C2C46
:10A5C00086E7154A43F8942C82E74FF03D5243F852
:10A5D000AC2C7DE76CD20020B4300010B0300010FD
:10A5E000843F00201060024028600240406002402A
:10A5F000586002407060024088600240A0600240E3
:10A60000B86002403F801CF0F81600100060024065
:10A610003D000020400F002000003D2020B10078C8
:10A62000B0FA80F0400970470120704708B520213A
:10A630004DF0A5F90346184623B10278202A03F10C
:10A640000103F8D008BD037903F01803082B0AD0E2
:10A6500002D82BB100207047102B16D0182BF9D13F
:10A66000B0F80B007047124BB0F80B0093F90030B4
:10A67000591C06BF0F4B1B78DBB2C3EBC30203EBC5
:10A68000820300EB830080B270470B4BB0F80B00E5
:10A6900093F900305A1C06BF064B5B78DBB203EB24
:10A6A000430203EB820300EB430080B2704700BF1C
:10A6B000F10D0020948A0020F00D0020F0B50679FD
:10A6C00006F0E003402B09D144794FF0FF35002319
:10A6D000012006F00706A3420BD1F0BD602B08BF96
:10A6E00045794FF001040CBF04FA05F54FF0FF3532
:10A6F000EDE7042E0CD8DFE806F0030D18242E0039
:10A7000030B1C85CD75C784028420CBF01200020E3
:10A710000133E0E70028FBD0C856D756A0EB070C62
:10A72000DCF1000040EB0C00F2E70028F0D031F83B
:10A73000130032F81370784028420CBF012000202B
:10A74000E6E70028E4D031F9130032F91370C71B93
:10A7500078427841DCE70028DAD051F8230052F83B
:10A760002370784028420CBF01200020D0E7024B24
:10A770000146186838F0D6BBCC4C002038B5064DE1
:10A78000441E14F8011F286819B9BDE8384038F094
:10A7900043BB38F0C7FBF4E7CC4C00200048EDE7A2
:10A7A000AB35060808B5FFF7E9FFBDE80840F5E757
:10A7B00010B504460348FFF7E1FF2046BDE810400E
:10A7C000F0E700BF94F6050838B5074C074DAC42DA
:10A7D00003D3074B00221A7038BD6288D4E9010107
:10A7E0004BF092FD1434F2E7900100086C0700086A
:10A7F0008CA5002038B5074C074DAC4203D3074B5E
:10A8000001221A7038BD6288D4E901104BF07CFD3A
:10A810001434F2E7900100086C0700088CA50020B2
:10A82000024A136823EA00001060704788E700209E
:10A83000DFED2B7AB4EEE70AF1EE10FA4ADDDFED38
:10A84000296A9FED297A01E0B0EE670AB4EEC70AE3
:10A85000F1EE10FA70EE667AF6DC9FED247AF4EEF3
:10A86000C77AF1EE10FA38D5DFED1E6A9FED207A37
:10A8700001E0F0EE407AF4EEC77AF1EE10FA37EE2E
:10A88000A60AF6D4DFED1B7AB4EEE70AF1EE10FA71
:10A8900014DDDFED137A37EEC00A60EE006A9FED3B
:10A8A000166A9FED167ADFED167AA6EE867A20EE0E
:10A8B000266AE6EE877AA6EE270A7047DFED117A60
:10A8C000B4EEE70AF1EE10FA44BFDFED087A37EE96
:10A8D000C00AE2E7F0EE407ABFE7B0EE670AD1E7E0
:10A8E000DB0F4940DB0FC940E4CB1641DB0F49C009
:10A8F000E4CB16C1DB0FC93F92E741B99730083C62
:10A9000015A82ABEDB0FC9BFF0EEC07AB0EEE07A20
:10A91000B4EEE77AF1EE10FAB4BFB0EE676AB0EECB
:10A92000476AB5EE406AF1EE10FA46D0B4EEE77A27
:10A93000F1EE10FA8CBFF0EE675AF0EE475AC5EE12
:10A94000866A9FED1F3A9FED1F6A9FED1F4A9FED9C
:10A950001F5ADFED1F3ADFED1F4ADFED1F5AA6EE4B
:10A96000C36AE6EEA34AA6EE864AB7EE006AA6EEF2
:10A97000845AA6EEA46AE6EE855AC5EE866AB4EE5F
:10A98000E77AF1EE10FA48BFDFED147AF5EEC00A6F
:10A9900048BF77EEE66AF1EE10FA48BFDFED107AB5
:10A9A000B5EEC00A48BF77EEE66AF1EE10FA48BF8E
:10A9B000F1EE666AB0EE660A7047DFED076ADEE721
:10A9C00039094E3DE3B59E3E88FA163E45FE7F3F6F
:10A9D00099FB243F69A2163EA7DFA834DB0FC93FCD
:10A9E000DB0F4940DFED317A30EE277AFDEEC76AA2
:10A9F00016EE903A2033402B02D99FED2D0A704776
:10AA0000B4EEE70AF1EE10FA4DDD9FED2A6ADFEDB4
:10AA10002A6A01E0B0EE677AB4EEE67AF1EE10FA57
:10AA200077EE467AF6DC9FED257AF4EEC77AF1EE02
:10AA300010FA35D5DFED1F6A9FED217A01E0F0EEC7
:10AA4000407AF4EEC77AF1EE10FA37EEA60AF6D4A1
:10AA5000DFED167AB4EEE70AF1EE10FA1BDCDFED5B
:10AA6000197AB4EEE70AF1EE10FA44BFDFED137A7B
:10AA700037EEC00A60EE006A9FED136A9FED137A0D
:10AA8000DFED137AA6EE867A20EE266AE6EE877A66
:10AA9000A6EE270A7047DFED0F7A37EEC00AE9E726
:10AAA000B0EE670AD4E7F0EE477ABCE7DB0FC93FA8
:10AAB00000000000DB0FC940E4CB1641DB0F49C0AA
:10AAC000E4CB16C1DB0FC9BF92E741B99730083C10
:10AAD00015A82ABEDB0F494010B44C09012250F8DA
:10AAE000243001F01F0102FA01F123EA010340F8CA
:10AAF00024305DF8044B704710B44C09012250F823
:10AB0000243001F01F0102FA01F10B4340F8243018
:10AB10005DF8044B704700BF4B0901F01F0150F86E
:10AB20002320012303FA01F1114214BF184600202B
:10AB3000704700BF2DE9F043002489B006460D465A
:10AB40001F46A04605E025290CD030460134A84711
:10AB5000039A531C039311780029F4D1204609B0BD
:10AB6000BDE8F083931CCDE903385078302842D0FB
:10AB7000A0F13003DBB2092B4FF0000945D96C2856
:10AB80002AD0642873D019D9732858D063D975286E
:10AB900040F0828007F1040C386805AB00220A21DE
:10ABA0006746FDF75DFB05AB049A009329464B46CB
:10ABB0003046FDF72BFA039A0444CAE725283CD017
:10ABC00051D958286BD06328C2D139783046A8476C
:10ABD00004370134039ABCE7039B5A1C03921B7889
:10ABE000642B52D016D8252B27D064D9582B18D0D7
:10ABF000632BEAD0ADE7D31C03939078A0F1300328
:10AC0000DBB2092B4FF00109B9D804AA03A947F018
:10AC10004DF9B4E7732B12D051D9752B2DD0782B69
:10AC200097D1A3F15802B2FA82F23868520905AB03
:10AC300010210437FDF714FBB5E7252185E73B68B4
:10AC4000049A0093294600233046FDF7DFF90437C4
:10AC50000444039A7DE76E287FF47AAF039A3B6839
:10AC600004371C6075E700283FF478AF70E7386858
:10AC700005A9FDF7BFFA043795E7386805AB002250
:10AC80000A21FDF7EDFA04378DE73B1D386805A969
:10AC90001F46FDF7AFFA86E778287FF459AFA0F199
:10ACA0005802B2FA82F23868520905AB1021FDF75A
:10ACB000D7FA043777E7002B3FF450AF49E76E2B04
:10ACC000CDD046E710B5064C0B4602460549206834
:10ACD000FFF730FF2068BDE8104038F09DB800BF96
:10ACE000CC4C00202995000838B504460D4608488C
:10ACF000FFF744FD29462046FFF7E4FF0548FFF72C
:10AD00003DFD054B1B7813B1044B01221A7038BD71
:10AD100099F60508A4F60508284E0020294E0020C3
:10AD20000FB407B504A951F8040B0191FFF7DCFF3C
:10AD3000FFF734FD03B05DF804EB04B07047134631
:10AD40000A4601460048EBE7A8F605080048E7E791
:10AD5000C1F605080FB407B504A951F8040B019119
:10AD6000FFF7C2FF03B05DF804EB04B070470FB407
:10AD700007B504A951F8040B0191FFF7A3FFFFF7F2
:10AD80000DFD03B05DF804EB04B070470FB407B5D8
:10AD900004A951F8040B0191FFF794FF03B05DF88B
:10ADA00004EB04B070472DE9F843037903F0E001A8
:10ADB000202928D002D849B1BDE8F883402945D0E0
:10ADC0006029F9D12448BDE8F843D0E703F0070330
:10ADD000022B02D0042B08D06BB9B0F80720B0F8D2
:10ADE00005101E48BDE8F843C1E7D0F805201B4810
:10ADF000BDE8F843BBE7B0F90720B0F905101748E4
:10AE0000BDE8F843B3E74579154E1648FFF7B6FCA1
:10AE100006EBC502002492F804800123A04502D865
:10AE2000BDE8F843BAE456F8357057F824204FEAE5
:10AE300084094AB113B90C48FFF7A0FC57F8091070
:10AE40000A48FFF7A3FF00230134E7E741790848E8
:10AE5000BDE8F8438BE700BF09F70508CDF6050804
:10AE600060BF0508E4F60508F5F60508322A06086D
:10AE7000F8F605082DE9F0411746027902F0E003E3
:10AE8000402B05460E462BD10024554FDFF870812C
:10AE900015E02B7903F00703022B15D0032B19D0F3
:10AEA000012B14BF315D31573846FFF76FFF6B79C7
:10AEB000013BA34202DD4046FFF760FC01346B79A1
:10AEC000A342E6DCBDE8F08136F814103846FFF7FF
:10AED0005DFFECE736F914103846FFF757FFE6E759
:10AEE00002F00702042A5DD8DFE802F0031D2527DF
:10AEF0002A003478202B3AD068D8002BE2D1B5F85C
:10AF00000560B5F8078036482146FFF73FFFA642A7
:10AF100040DCA0453EDB002FD4D0424631463148CC
:10AF2000BDE8F04132E796F90040202B1FD04DD804
:10AF3000002B3DD0C6E73488DCE7B6F90040F4E7E3
:10AF4000D6F80080202B444611D03FD8002BB9D131
:10AF500041462348FFF71AFFD5F80510884519D850
:10AF6000002FAFD02048BDE8F0410FE700246A79F8
:10AF70001E4B03EBC2010979A1420BDD53F83230BD
:10AF800053F82400BDE8F041FFF7F8BB1848BDE8CE
:10AF9000F041FBE6FFF702FC224629681548BDE8B0
:10AFA000F041D7E6202BE1D007D8002B8AD11C46F0
:10AFB000B5F90560B5F90780A5E7602BE6D0802BD1
:10AFC00080D131460C48BDE8F041DFE6602BF6D178
:10AFD0006A791441E307D9D50848BDE8F041D5E6C0
:10AFE000E1F60508642A060823F7050860BF05088E
:10AFF0000821060829F70508322A06081EF7050861
:10B0000021F705080CB407B510F020000BD079B972
:10B010002320FFF7ACFB05A904980191FFF752FE2E
:10B02000FFF7BCFB012003B05DF804EB02B07047F2
:10B030000020F8E70CB4C30607B500D561B905A92F
:10B0400004980191FFF73EFEFFF7A8FB012003B033
:10B050005DF804EB02B070470020F8E70EB400B5CD
:10B0600084B005AB019053F8042B0649039301A863
:10B07000FFF760FD019B00221A7004B05DF804EB3D
:10B0800003B070470180000870B406688E4217D97B
:10B090000139751E002311F8014F0822634013F097
:10B0A000800F4FEA430318BF83F0D503013ADBB2A8
:10B0B000F5D18D42EFD1721C0260337070BC7047C5
:10B0C000721C00230260337070BC70470A449142C6
:10B0D00015D010B40139541E11F8012F0823504027
:10B0E00010F0800F4FEA400018BF80F0D500013B00
:10B0F000C0B2F5D1A142EFD15DF8044B7047704763
:10B100004840082310F0800F4FEA400018BF80F03D
:10B11000D500013BC0B2F5D1704700BF0A4491424F
:10B1200015D030B40139551E41F2210211F8014FFA
:10B13000082380EA042004044CBF82EA4000400057
:10B14000013B80B2F7D18D42F0D130BC70477047DF
:10B1500070B502221349144C144E4FF6FF70FFF7DE
:10B16000DDFF22884AB1A518B54218D2052A16D9A2
:10B170002146FFF7D3FF2C46F3E721460222FFF7D3
:10B18000CDFF0222A118FFF7C9FF094BE41A094BB2
:10B190001C8041F60F53C31A5842584170BD00201D
:10B1A000FCE700BF004000080240000800800008E3
:10B1B000FA3F00088EA500200F4B2DE93048D3E957
:10B1C000004554EA05020AD1034640F2011200206C
:10B1D0001880988098715A801881BDE83088074B94
:10B1E0001A6814EB020B45F1000C5A466346FCF753
:10B1F00049FF0120BDE830881862002020BA0020F5
:10B2000030B403888278C478154DA3F5FA6303F04F
:10B21000030101EB4101013A02EB81029B0835F881
:10B2200012500279611E40F2B55404FB03132B4403
:10B2300003EB430302EBC303427984790949008994
:10B24000C3EB031302EB83032144C3EB031301EBB2
:10B2500083034FF47A720021C2FB030130BC7047B4
:10B26000F879050880436D382DE9F04707468CB022
:10B270001E469246002A5CD1154614460A88B2F54D
:10B28000FA6F36D38B78581E0B2832D891F803C04A
:10B290000CF1FF301E282CD891F804E0BEF1170FF6
:10B2A00027D891F80590B9F13B0F22D888793B282F
:10B2B0001FD8B1F80880B8F57A7F1AD24FF001088C
:10B2C0005EBB09890491002CB4BF2D212B21002CD9
:10B2D000B8BF6442CDE90290CDE905140795CDE9E8
:10B2E00000CE38462A49FFF7B9FE40460CB0BDE80B
:10B2F000F08700232749ADF828304FF0010C18469D
:10B300008DF82A30ADF82C3099469E461A4698465C
:10B310000991634609A9002ED3D0CDE90290CDE969
:10B3200000CE38461C49FFF799FE40460CB0BDE8F8
:10B33000F0871A4C84FB0234A318D417C4EB6314AF
:10B34000C4EB0415A2EB85052DB2002D0846B8BF4D
:10B350006D42FFF755FF4FF47A720023804689460D
:10B360004AF034FD3C230AFB030A4FF47A720023AF
:10B37000404649464AF02AFD4FF47A7192B20023C2
:10B38000C1FB0A2309A8FCF77DFE24B209A975E7D1
:10B3900014F8050800000101F4F705088988888879
:10B3A0000378202B024600F10100F9D0092BF7D0D9
:10B3B0002D2B00F0A4802B2B03BF5378B7EE000A8F
:10B3C0000246B7EE000AA3F13001C8B209289FED8A
:10B3D000577A10D8F2EE046A07EE901AF8EEE77A80
:10B3E00012F8013FE7EE267AA3F13001C8B209282E
:10B3F000B0EE677AF0D92E2B63D003F0DF03452B34
:10B4000002D020EE070A704710B451782D294FD092
:10B410002B2979D0A1F13003092B02F101027AD84E
:10B420000024002303EB830301EB430312F8011F05
:10B43000A1F130000928A3F13003F3D9B3F59A7FC5
:10B440001A4628BF4FF49A72072B6CD9DFED386A81
:10B450001346F7EE007A083B072B67EEA67AFAD878
:10B4600002F00702DAB1F2EE046A012A67EEA67A68
:10B4700015D0022A67EEA67A11D0032A67EEA67AC3
:10B480000DD0042A67EEA67A09D0052A67EEA67ABF
:10B4900005D067EEA67A062A18BF67EEA67A002CBA
:10B4A0003BD087EE277A5DF8044B20EE070A704701
:10B4B0009178A1F13003092B02F1020230D8012466
:10B4C000AFE75378A3F13001C8B2092802F10102B5
:10B4D00093D8F2EE046AF0EE665A07EE901AF8EE90
:10B4E000E77A12F8013F87EEA66AA3F13001C8B2ED
:10B4F000092866EEA56A37EE067AEED97DE753781D
:10B50000BFEE000A02465EE79178A1F13003092BF5
:10B5100002F1020284D9F7EE007A27EE277AC2E719
:10B52000F7EE007ABDE7F7EE007A9BE70000000037
:10B5300020BCBE4CF8B5064615460846B6FBF2F4EC
:10B5400034B905FB14640C4B1B5D00F8013BF8BDDE
:10B55000B4FBF2F75FB905FB1747074B05FB146413
:10B56000DA5D00F8012B1B5D00F8013BF8BD3846A1
:10B57000FFF7E0FFEFE700BF44F80508B5EEC00AAB
:10B58000DFED677A674AF1EE10FACCBF30EE270A9A
:10B5900030EE670ADFED647A20EE270A2DE9F047E6
:10B5A000FDEEC07A88B017EE904A84EAE476002374
:10B5B000A6EBE476CDE902330493A2FB06325FEA00
:10B5C000D208054641D105AF58483946554BA3FB33
:10B5D0000623DB0803EB8303A6EB4303002CC35CC9
:10B5E0000B704FF00002ACBF20232D234A70384669
:10B5F0008DF8083049F0F4FE0128394639D0022888
:10B6000042D0032805BF302302A802A88DF80930D4
:10B610004CF0A6F902A849F0E3FE0338C4B2224672
:10B6200002A928464CF0D2F900232B55284649F0B0
:10B63000D7FE2E22431C02A92A542144E8184CF0BC
:10B64000ABF9284608B0BDE8F087394BA3FB0623C9
:10B650005B0922D105AF35483946324AA2FB083290
:10B66000D20802EB8202A8EB4202835C01F8013BA4
:10B67000ACE7302302A88DF809308DF80A308DF838
:10B680000B304CF06DF9C5E7302302A88DF8093076
:10B690008DF80A304CF064F9BCE7264AA2FB06128A
:10B6A0005FEA92190ED105AF204839461D4AA2FB28
:10B6B00003C2D20802EB8202A3EB4203C35C01F88F
:10B6C000013BCAE71C4AA2FB06125FEA523A0ED1BE
:10B6D00005AF16483946134AA2FB09C2D20802EB4D
:10B6E0008202A9EB4202825C01F8012BDEE71348DB
:10B6F000B6FBF0F058B905AF39460A20BAFBF0F2B4
:10B7000000FB12A20948825C01F8012BE3E705AFB8
:10B7100039460A220193FFF70DFF019B0146ECE732
:10B720006F12033ACDCCCCCC00007A4444F8050823
:10B730001F85EB51D34D62105917B7D1A086010078
:10B7400002B370B48E1803E0121B14D1B14215D0AD
:10B7500010F8012BA2F14103192B11F8013BA3F1C1
:10B76000410598BF2032192D03F12004ECD9D21ADB
:10B7700001D1002BEAD1104670BC70470022104660
:10B7800070BC70471046704770B5044608460D46B9
:10B7900049F026FE064602E014F8013F43B1324666
:10B7A00029462046FFF7CCFF0028F5D1204670BD82
:10B7B0001C46204670BD00BF4FF0FF32FFF7C0BFF0
:10B7C000A0F16103192B98BF20387047A0F1410305
:10B7D000192B98BF20307047202805D0093804283D
:10B7E0008CBF002001207047012070472DE9F041F7
:10B7F0001F46064603461C782046FFF7EDFF1D4610
:10B8000001330028F7D12B2C51D02D2C24D0102A15
:10B81000804628D04FF0FF33B3FBF2F302FB03FC6A
:10B820006FEA0C0C5FFA8CFC013500200BE0303C19
:10B83000E4B2944225DA98422E461DD81AD002FB73
:10B84000004015F8014B392CF1D944F02004602C4C
:10B8500017D9573CE4B2ECE74FF00108102A6C7896
:10B8600005F10105D6D1302C23D06FF070434FF095
:10B870000F0CD9E76445E2D907EA08084FF0FF301A
:10B88000DFE701B10E60B8F1000F08D027B1B0F1C9
:10B89000004F28BF4FF000404042BDE8F081002F2C
:10B8A000FBD06FF00043984228BF1846F5E780466A
:10B8B000D4E76C782046FFF789FF782805F1010668
:10B8C00005D035466FF070434FF00F0CACE7AC7805
:10B8D0006FF0704302354FF00F0CA5E701230A22E9
:10B8E000002183E770B50D461446FEF79FFE06461D
:10B8F000A0B1FFF7F3FF40F634039842A8BF184603
:10B90000B0F5617FB8BF4FF461701923A0F5617085
:10B9100090FBF3F028702378013323703046FEF754
:10B9200085FE0646A0B1FFF7D9FF40F634039842E2
:10B93000A8BF1846B0F5617FB8BF4FF461701923F6
:10B94000A0F5617090FBF3F06870237801332370E9
:10B95000304670BD613819288CBF00200120704727
:10B96000413819288CBF0020012070473038092841
:10B970008CBF002001207047A0F13003092B07D9AC
:10B9800020F02000413819288CBF0020012070478A
:10B990000120704707EE901AF8EE677A9FED807AE3
:10B9A00027EE800A20EE070AFDEEC07A17EE903AE5
:10B9B0002033402B7BD8DFED7B7AB4EEE70AF1EE43
:10B9C00010FA40F3E180B0EE407A9FED776ADFED48
:10B9D000776A01E0B0EE677AB4EEE67AF1EE10FA3B
:10B9E00077EE467AF6DC9FED727AF4EEC77AF1EEE6
:10B9F00010FA40F1CC809FED6C6ADFED6E6A01E0D9
:10BA0000F0EE477AF4EEE67AF1EE10FA37EE867A47
:10BA1000F6D4DFED697AB4EEE77AF1EE10FA40F38E
:10BA2000A280DFED607A37EEC77A27EE076ADFED96
:10BA3000635ADFED637ADFED636A9FED635AE6EEEA
:10BA4000257A67EE065AE6EE276AF7EE007AA5EE4B
:10BA5000A67AF0EE675AE7EE055AE7EE457A87EEEA
:10BA6000A55ADFED557A30EE277AFDEEC76A16EE5D
:10BA7000903A2033402B1FD99FED547AF6EE006A9E
:10BA8000B7EE006AF7EE004AC4EEA57A80ED045ADC
:10BA900067EEA66A27EE866A27EE877AC0ED006A0F
:10BAA000C0ED026A80ED016A80ED037A7047B7EE5F
:10BAB000005AF0EE455AD4E7B4EEE70AF1EE10FA78
:10BAC0006BDD9FED396ADFED396A01E0B0EE677A30
:10BAD000B4EEE67AF1EE10FA77EE467AF6DC9FEDF8
:10BAE000347AF4EEC77AF1EE10FA53D59FED2E6A50
:10BAF000DFED306A01E0F0EE477AF4EEE67AF1EE3F
:10BB000010FA37EE867AF6D4DFED2B7AB4EEE77AC8
:10BB1000F1EE10FA33DCDFED2E7AB4EEE77AF1EED7
:10BB200010FA44BFDFED227A37EEC77A27EE076AB4
:10BB3000DFED224ADFED226ADFED227AE6EE246AAB
:10BB400067EE064AE6EE267AB7EE006AA4EEA77A1A
:10BB5000F6EE006A36EE476AF8EE007A27EE277AAC
:10BB600066EE266A8EE7DFED1A7AB4EEE77AF1EE3A
:10BB700010FA44BFDFED0E7A37EEC77A55E7DFEDF6
:10BB8000097A37EEC77AD1E7F0EE407A2BE7B0EECC
:10BB9000677A3EE7B0EE677AB6E7F0EE477A9EE75F
:10BBA00027D4D236DB0F4940DB0FC940E4CB164126
:10BBB000DB0F49C0E4CB16C1DB0FC93F92E741B9A7
