:020000040800F2
:10000000F0FF0120ED19050845FF020849B201087B
:10001000651A0508651A0508651A0508000000003C
:1000200000000000000000000000000051FF020876
:100030004DFF02080000000049FF0208318D010851
:10004000651A0508651A0508651A0508651A050880
:10005000651A0508651A0508D5C0010801C201081E
:10006000C5C1010889C101084DC1010819F2000884
:1000700009F20008F9F10008E9F10008D5F10008DB
:10008000C1F10008ADF10008651A05080000000084
:1000900000000000000000000000000011C1010885
:1000A000F5710108E17501082571010865770108FE
:1000B0002175010861740108957301080DF80008A5
:1000C00015F8000801F8000809F80008651A050885
:1000D000651A05080D8E0108718D010800000000E9
:1000E00099C00108651A0508CD4303080000000007
:1000F00000000000000000000000000099F100086E
:1001000000000000651A0508C5720108651A050897
:1001100000000000000000000000000000000000DF
:1001200085F1000871F100085DF1000849F100084F
:1001300035F1000800000000000000000000000091
:10014000000000000000000000000000890F03080C
:1001500021F100080DF10008F9F00008651A050802
:10016000F5F70008FDF7000800000000000000009F
:10017000000000000000000000000000000000007F
:1001800000000000651A05080000000000000000E3
:08019000651A0508651A05084F
:080198008415050001000000C0
:1001A00010020100101B00200C1B002000000000AA
:1001B0007C0700081F021000241B0020141B0020D5
:1001C000000000003D8500080702020030210020E9
:1001D000742100200000000080070008F6210C00B8
:1001E000181C00207821002000000000840700086F
:1001F00002000C00C41B002084210020000000002D
:100200000000000006020C000821002090210020C0
:10021000000000007192000808120F008C200020DE
:100220009C21002000000000F9840008F70106006E
:1002300084200020AC21002000000000900700086E
:100240001D02020064200020B421002000000000F4
:10025000960700081A023C004423002008260020CC
:1002600000000000D5910008270004004023002072
:100270004426002000000000980700083810010004
:10028000D421002048260020000000009C07000820
:100290002202140160400020B04200200000000053
:1002A000299300080C109C00CC300020C44300208F
:1002B00000000000D1F8000801020500B030002065
:1002C000604400200000000031DB0108000205004E
:1002D000A83000206844002000000000000000005A
:1002E0001B0210007C300020704400200000000041
:1002F000DD8300081E000600D42D0020804400206D
:1003000000000000A00700081B100C00A02800201F
:1003100088440020000000002DEF01082102F000B9
:1003200020270020944400200000000021DC010868
:1003300023121000F032002084450020000000004D
:10034000A80700083710280004300020944500203A
:1003500000000000B80700080E020200EC32002086
:10036000BC45002000000000E00700081610060051
:1003700014270020C045002000000000E20700080C
:100380002F1022008C420020C845002000000000F1
:10039000E807000805100600982C0020EC45002016
:1003A000000000000A08000823100E00242D002081
:1003B000F4450020000000004D4E0208F5518C006D
:1003C0004C26002004460020000000009529020869
:1003D00026100C009C4600209046002000000000E3
:1003E00079D0010828101000285F0020185F002035
:1003F00000000000354E020820320A00445F002051
:10040000385F002000000000B94D02081C021000F7
:10041000C8590020505F002000000000B183000890
:1004200001200C008C490020605F002000000000CB
:10043000100800080A702800E84800206C5F0020BF
:1004400000000000D94D02080EA05C018C4700207E
:10045000945F002000000000F5DE030801010400A5
:10046000EC460020F06000200000000000000000CA
:1004700000010400E4460020F460002000000000B9
:100480001C08000802010300E0460020F86000207C
:1004900000000000FDF8000814000300F87A0020B6
:1004A000647B002000000000200800080B301A00C8
:1004B000B46B0020687B00200000000024080008C6
:1004C0001F302400D06B0020847B0020000000003F
:1004D00040080008050204008C760020A87B00205C
:1004E000000000006408000803010A00106C0020EE
:1004F000AC7B002000000000680800081302040024
:100500002C6A0020B87B0020000000007208000860
:100510000A020A000484002058860020000000001F
:100520004D52030803000100C07E002064860020B5
:10053000000000000000000003123D0018860020AB
:1005400068860020000000007608000825102C01B5
:1005500038840020A8860020000000000000000071
:1005600010100200647E0020D487002000000000EC
:10057000B40800081900050054920020A893002038
:1005800000000000B60800081A000E00C891002004
:10059000B093002000000000BC080008F82106000D
:1005A00090900020C093002000000000CA080008BE
:1005B00015007000788B0020C89300200000000018
:1005C000000000002A006000B8920020389400204B
:1005D00000000000CDDE03082C001000A8940020CD
:1005E0009894002000000000C5DD03082B002400C3
:1005F000DC940020B89400200000000095DD030882
:100600002920780064890020009500200000000067
:10061000000000000D002C00A4D8002068DA0020A3
:10062000000000004DFA00080902010010D8002067
:1006300094DA002000000000D008000804008000C8
:1006400090D7002098DA0020000000000000000091
:10065000F901040000D7002018DB00200000000092
:100660008D56010813000400FCD600201CDB00207E
:1006700000000000D4080008FD012400D8D60020A6
:1006800020DB0020000000001556010818202E0075
:10069000A4D6002044DB002000000000899200085E
:1006A00006101A00ACC1002074DB0020000000001E
:1006B0000DE10308FB010100E8C0002090DB0020F1
:1006C00000000000FD920008FC010900B4BF0020FA
:1006D00094DB0020000000000D93000816023F008C
:1006E00074BF0020A0DB0020000000001984000877
:1006F00034001000A4BE0020E0DB00200000000059
:10070000E1E00308110208007CBE0020F0DB0020BD
:1007100000000000D80800081212040074BE002077
:10072000F8DB002000000000E008000812201000A4
:1007300064BE0020FCDB002000000000E40800088C
:100740000202030030AA00200CDC002000000000A0
:10075000000000000C020400ECA9002010DC0020C6
:100760000000000025850008FE011400FCB40020F4
:0C07700014DC002000000000F1830008F1
:10077C0000000000013C000000000000010000002F
:10078C000202000022010000000000002003000013
:10079C00000000000000010000000000000000004C
:1007AC0000000000000000000000000020003200EB
:1007BC00C800D0079600140032002800B004400690
:1007CC000005500014000F00080064000100000038
:1007DC0005000A000000C409000019000000000018
:1007EC0000000000000000000000000000000000FD
:1007FC0000000000000000000000000000002000CD
:10080C0003010000E8036400040A000114001E0048
:10081C009001000003000000AE014A015E012C01B2
:10082C0064010100000001000A019A01001E0A0087
:10083C0000000000000000000001000000050000A6
:10084C000102030000000000000000000000000096
:10085C0000000000008007000000000004010100FF
:10086C006C16000000000000013F000000000000BA
:10087C00000000000000000000000000000000006C
:10088C00000000000000000000000000000000005C
:10089C00000000000000000000000000000000004C
:1008AC00000000000000010000050000280100000D
:1008BC007E05EA05B4053200E803D0070000040108
:1008CC00F401140000000000480444300000000053
:1008DC0001010101FFFFFFFF000000010000054DB9
:0808EC004B343100000800004C
:1008F400FF01FF00000004010000000000000002EE
:1009040010000000070000000000000000000000CC
:100914000102030406070809000000006421002006
:10092400080000000000000054210020080000001E
:1009340020000000BDE3020861E10208AD040308E1
:10094400000000005DDE02087D01030829E30208BF
:10095400F5000308000000000000000019DE020892
:100964002DE3020821E10208ED0303080000000062
:1009740031DE0208F9000308FDE20208550003080D
:10098400000000000000000025DE020814A3050892
:1009940020A305082CA3050838A3050844A30508CB
:1009A40050A30508D0CA0508A4E80508B0E705085F
:1009B400A0A20508ECA8050804A3050808A30508D7
:1009C4000CA3050810A305085CA3050860A305088B
:1009D40064A3050828E6050868A305081900C800EB
:1009E400F4012003685E0C00FFFF0100A00F00006B
:1009F400B80B00000102FFFF01000000010000002D
:100A040000000100E00100000000803F0000803F82
:100A1400FFFFFFFF0801FFFFFF00000001000000CF
:100A24002D440208000000009C47050820700020A7
:100A3400702D7200FFFFFFFF0101010000010101A1
:100A440000D60100B80B00002D202D2D202D2D2DBA
:100A54002D202D2D2D0000000000000000000000BE
:100A64000000000000000000000000000000000082
:100A7400085E05080000000000000000945E050800
:100A840001000000FA000000010000000100000065
:100A9400010101008A4900200000F4010100000066
:100AA400884900200000F40101000000864900206C
:100AB4000000F40101000000844900200000F4015A
:100AC40001000000824900200000F4010100000040
:100AD400804900200000F401010000007E4900204C
:100AE4000000F40101000000454C0208094C020812
:100AF400184C050878490020053201007649002089
:100B0400E803D0070100000074490020E803D0077F
:100B14000100000072490020E803D0070100000032
:100B2400704900201E00B80B010000006E4900202F
:100B34001E00F401010000006C4900201400640050
:100B4400010000007A4900203200E803010000009F
:100B54006A4900200000C800010000003E4900204E
:100B640000C801003D490020005001003C4900201C
:100B7400005A01003A49002002000000A44C050874
:100B8400F8BB050800BC050852DA00200100C409BE
:100B94000000000050DA00200100C4090000000039
:100BA4004EDA00200100C409000000004CDA0020E5
:100BB4000100C4090000000048DA00200100C40953
:100BC400000000004ADA00200100C409000000000F
:100BD40046DA00200100C4090000000044DA0020C5
:100BE4000100C409000000000547002000C80100FE
:100BF4000447002000C80100024700200100C8008B
:100C0400010000000047002032003075320000006F
:100C1400FE460020055A0500FB46002000FF0100A7
:100C2400FD4600200100000028040020F9460020B1
:100C340003000000D0440508FA46002000FF01002C
:100C4400FC4600200100000028040020F846002093
:100C540003000000D0440508B94B0208694B0208A0
:100C6400B04C05089C490020EE02CA0801000000AF
:100C74009A49002000C8010064000000994900203E
:100C840000C8010064000000984900200200000030
:100C9400744D0508F246002080C1803E0500000026
:100CA400F046002080C1803E05000000EA46002096
:100CB40080C1803E05000000E846002080C1803EDF
:100CC40005000000E346002000FF0100DC46002090
:100CD4006400F40101000000DB4600200400000071
:100CE400804D0508DA46002002000000944D0508F6
:100CF4007B4700200D000000A04D05087847002028
:100D04000064010076470020320010270A0000002A
:100D1400754700200D000000A04D05087447002011
:100D24000D000000A04D05087347002002000000DC
:100D3400D84D05080000000000000000E44D05083F
:100D4400447600209CFF2C0100000000E64B0020AC
:100D5400E0150C1700000000E84B00200200000022
:100D64001C4E0508A84900200100FF7F0100000077
:100D7400A749002002000000284E05087D470020F6
:100D840003000000384E05087C47002003000000E3
:100D9400384E05081C4900200000E803010000004B
:100DA4001A4900200000E80301000000184900204F
:100DB4000000E80301000000164900200000E803D9
:100DC40001000000144900200000E80301000000B5
:100DD400124900200000E80301000000114900202E
:100DE400001401001049002003000000484E0508CB
:100DF400284900200000F4010100000026490020D9
:100E04000000F40101000000244900200000F40166
:100E140001000000224900200000F401010000004C
:100E2400204900200000803E010000001E490020EF
:100E34000000803E010000005149002019640100B7
:100E44005049002002000000584E05084E49002079
:100E5400E803D0070A0000004C49002000640100A8
:100E64000A000000414900200064010040490020BC
:100E74000064010048490020006401000A000000E9
:100E840047490020006401000A0000004649002090
:100E9400006401000A0000004B49002000640100C6
:100EA4000A0000004A490020006401000A00000012
:100EB40049490020006401000A000000454900205F
:100EC40001FF01000A0000004449002001FF010065
:100ED4000A0000004349002001FF01000A0000004D
:100EE400864700200000F401010000008447002030
:100EF4000000F40101000000824700200000F4011A
:100F040001000000804700200000F40101000000FF
:100F14007E4700200000F401010000003949002050
:100F240000640100384900200064010037490020B2
:100F34000064010036490020FF0801003549002003
:100F440001640100354A0208F9490208644E0508A3
:100F54003449002000640100324900201400E803F1
:100F64000100000030490020E80330750A00000049
:100F74002E49002000C801002D49002000C80100AE
:100F84002C49002000C801002B4900200064010006
:100F94000A000000684900200000D007010000009A
:100FA4006349002000C801006249002000C8010014
:100FB4006149002000C80100664900200000D007F4
:100FC400010000006049002000C801005F490020C2
:100FD40000C801005E49002000C8010064490020E7
:100FE4000000D007010000005D49002000C8010096
:100FF4005C49002000C801005B49002000C80100D2
:101004000000000069470208D44E0508714700201B
:1010140035000000704F05087047002000C801002B
:101024006E470020E803D007010000004D415445FD
:101034004B46343131000000F74600200003010024
:10104400F646002000030100B5460208794602086E
:101054004850050835460208E9450208B850050815
:10106400F14602087D5D020838510508F446002067
:1010740001030100AD4C0208814C02082C54050800
:1010840079450208394502089C5405087F4702083F
:10109400C9780208385505083559020800000000CF
:1010A400E0550508F15A02080D4D02087C56050862
:1010B400D147020800000000EC560508A9480208C0
:1010C400554802085057050839490208FD480208E6
:1010D400EC570508714A0208B94A02086C58050819
:1010E4003F4900200106010019480208E5470208AB
:1010F4006859050875490208E15D0208D8590508D0
:10110400ED4A0208695E0208B85A05082A49002017
:101114000103010039470208094702088C5B0508EE
:10112400D94C020800000000F05B0508B94502082C
:101134004D5D0208545C050800000000000000003A
:10114400E05C0508414B0208E15E0208605D0508A9
:10115400D646002088136F1701000000D8460020EF
:1011640088136F1700000000726C0020000000005C
:1011740000000000706C002000000000000000006F
:101184006E6C002000000000000000006C6C002069
:1011940000000000000000006A6C00200000000055
:1011A40000000000686C0020000000000000000047
:1011B400F40C00200000000000000000AC460020F9
:1011C40002000000E85E0508D446002088136F176B
:1011D400010000008476002088136F1700000000CF
:1011E400CD44020800000000F45E0508324C0020E3
:1011F40001000000485F0508867600200100000019
:10120400545F05087C760020020000005C5F05083E
:101214000000000000000000685F0508B9440208EF
:101224000000000004600508000000000000000049
:10123400586005080000000000000000C8600508B0
:1012440080760020E0150C17000000000403090458
:1012540012010002EF02014083045632000201022F
:1012640003010000120100020202004083044057FF
:10127400000201020301000009026400030100C02E
:1012840032090400000103000000092111010001DA
:101294002226000705830308000A080B0102020244
:1012A40001000904010001020201000524001001EB
:1012B4000524010002042402020524060102070594
:1012C40082030800FF09040200020A000000070567
:1012D40001024000000705810240000009024300AA
:1012E400020100C0320904000001020201000524C9
:1012F4000010010524010001042402020524060053
:1013040001070582030800FF09040100020A000026
:1013140000070501024000000705810240000000AB
:10132400FF000000906105080000000000000000BC
:1013340000000000000000000000000000000000A9
:1013440000000000000000000000000000FFFF009B
:1013540000000000AA5505010000010064610508B1
:101364000000000000000000000000000000000079
:101374000000000000000000000000000000000069
:1013840000000000FF1FFF1F05010905A101A100C6
:101394000501093009310932093309350934094095
:1013A40009381581257F750895088102C0C00000A1
:1013B40009022200010100E03209040000010301D6
:1013C40002000921110100012226000705830308F8
:1013D400000A0000000000000102030401020304EB
:1013E400060708098D02030891010308D1040308C4
:1013F40099DE0208DDE10208A9DE0208C5DE020862
:1014040071DE020861DE0208000000000000000036
:101414002D202D2D202D2D2D2D202D2D2D2D000079
:10142400000000000000000000000000000000AA0E
:10143400550B010000AA5507010000AA5509020036
:101444000000AA5503009F0001000000C012000024
:10145400387B0020000000005C7B002000000000BE
:10146400FFFFFFFF0000803F0000000000000000BD
:1014740000000000FFFFFFFFFF0000007895002040
:101484007D0000000000803F00000000000000001C
:10149400000000000000803F000000000000000089
:1014A4000000000000000000000000000000000038
:1014B4000000000000000000000000000000803F69
:1014C4000000000000000000000000000100000017
:1014D4000000803F080000007DDD020879DD02087D
:1014E40075DD020869DD020865DD020871DD0208A8
:1014F4006DDD0208F1DD0208E5DD0208BDDD02084C
:10150400D1DD0208A9DD020895DD020881DD0208AB
:101514000100000000600240106002400000000072
:1015240000000000000B00000000000000000000AC
:10153400000000000060024028600240010000003A
:1015440000000000060C0000000000000000000085
:101554000000000000600240406002400200000001
:1015640000000000100D000000000000000000005A
:1015740000000000006002405860024003000000C8
:1015840000000000160E0000000000000000000033
:10159400000000000060024070600240040000008F
:1015A40000000000200F0000000000000000000008
:1015B4000000000000600240886002400500000056
:1015C40000000000261000000000000000000000E1
:1015D4000000000000600240A0600240060000001D
:1015E40000000000301100000000000000000000B6
:1015F4000000000000600240B860024007000000E4
:1016040000000000362F0000000000000000000071
:10161400000000000064024010640240000000006A
:10162400000000000038000000000000000000007E
:101634000000000000640240286402400100000031
:101644000000000006390000000000000000000057
:1016540000000000006402404064024002000000F8
:1016640000000000103A000000000000000000002C
:1016740000000000006402405864024003000000BF
:1016840000000000163B0000000000000000000005
:101694000000000000640240706402400400000086
:1016A40000000000203C00000000000000000000DA
:1016B400000000000064024088640240050000004D
:1016C40000000000264400000000000000000000AC
:1016D4000000000000640240A06402400600000014
:1016E4000000000030450000000000000000000081
:1016F4000000000000640240B864024007000000DB
:101704000000000036460000000000000000000059
:10171400000000003CD30508F4BA050800000000EE
:1017240011F90008A0860100040000000000000078
:1017340000000000000000000000000000000000A5
:101744000000000000000000000000000000000095
:10175400000000003CD3050844D305080000000045
:10176400B1540108E8030000040000000000000078
:101774000000000000000000000000000000000065
:101784000000000000000000000000000000000055
:101794000000000000C305084CD305080000000049
:1017A400595A03087D0000000600000000000000F4
:1017B4000000000000000000000000000000000025
:1017C4000000000000000000000000000000000015
:1017D4000000000054D305080000000000000000D1
:1017E400F1820108E803000003000000000000008B
:1017F40000000000000000000000000000000000E5
:1018040000000000000000000000000000000000D4
:101814000000000058D3050800000000000000008C
:10182400A144040810270000030000000000000089
:1018340000000000000000000000000000000000A4
:101844000000000000000000000000000000000094
:1018540000000000480D060800000000D9560208E8
:10186400ADB201085F760000050000000000000032
:101874000000000000000000000000000000000064
:101884000000000000000000000000000000000054
:101894000000000034A7050800000000000000005C
:1018A400CDC801081027000001000000000000005E
:1018B4000000000000000000000000000000000024
:1018C4000000000000000000000000000000000014
:1018D4000000000064D305080000000000000000C0
:1018E400B5540108E80300000500000000000000F2
:1018F40000000000000000000000000000000000E4
:1019040000000000000000000000000000000000D3
:101914000000000070D30508000000000000000073
:10192400CD010108204E000003000000000000006B
:1019340000000000000000000000000000000000A3
:101944000000000000000000000000000000000093
:101954000000000080D30508000000000000000023
:10196400D1FF0008204E000003000000000000002A
:101974000000000000000000000000000000000063
:101984000000000000000000000000000000000053
:101994000000000090D305080000000000000000D3
:1019A40001670108400D030003000000000000006F
:1019B4000000000000000000000000000000000023
:1019C4000000000000000000000000000000000013
:1019D4000000000058A105080000000000000000FD
:1019E400C5450108102700000100000000000000A8
:1019F40000000000000000000000000000000000E3
:101A040000000000000000000000000000000000D2
:101A1400000000003CA705080000000000000000D2
:101A240091FA0108102700000300000000000000E4
:101A340000000000000000000000000000000000A2
:101A44000000000000000000000000000000000092
:101A540000000000A0D30508000000000000000002
:101A64008559010850C30000010000000000000077
:101A74000000000000000000000000000000000062
:101A84000000000000000000000000000000000052
:101A940000000000ECBE050800000000000000008B
:101AA4009D560108A861000001000000000000002C
:101AB4000000000000000000000000000000000022
:101AC4000000000000000000000000000000000012
:101AD40000000000A8D3050800000000000000007A
:101AE400E93A0208A086010001000000000000009D
:101AF40000000000000000000000000000000000E2
:101B040000000000000000000000000000000000D1
:101B14000000000080A10508000000000000000093
:101B24005D8F0108A00F000001000000000000000C
:101B340000000000000000000000000000000000A1
:101B44000000000000000000000000000000000091
:101B540000000000B4D305080000000000000000ED
:101B6400912A020810270000010000000000000074
:101B74000000000000000000000000000000000061
:101B84000000000000000000000000000000000051
:101B94000000000088A70508000000000000000005
:101BA4002D2302081A41000001000000000000007B
:101BB4000000000000000000000000000000000021
:101BC4000000000000000000000000000000000011
:101BD40000000000C4A70508000000000000000089
:101BE40075E6020810270000010000000000000054
:101BF40000000000000000000000000000000000E1
:101C040000000000000000000000000000000000D0
:101C14000000000000BB05080000000000000000F8
:101C2400518002081A410000010000000000000079
:101C340000000000000000000000000000000000A0
:101C44000000000000000000000000000000000090
:101C540000000000C0D305080000000000000000E0
:101C6400D9EC0208400D0300000000000000000051
:101C74000000000000000000000000000000000060
:101C84000000000000000000000000000000000050
:101C940000000000C8D30508000000000000000098
:101CA4006D540108400D0300000000000000000016
:101CB4000000000000000000000000000000000020
:101CC4000000000000000000000000000000000010
:101CD40000000000D0D30508000000000000000050
:101CE4000D35020850C3000003000000000000008E
:101CF40000000000000000000000000000000000E0
:101D040000000000000000000000000000000000CF
:101D140000000000DCD30508000000000000000003
:101D240045FF000840420F000000000000000000D2
:101D3400000000000000000000000000000000009F
:101D4400000000000000000000000000000000008F
:101D540000000000E8D305080000000000000000B7
:101D64004DFD000850C3000000000000000000000A
:101D7400000000000000000000000000000000005F
:101D8400000000000000000000000000000000004F
:101D9400000000000000803FFFFFFFFF3C0D06082D
:101DA4000000080205030300440D060801000802B0
:101DB400050403000CD305080200FE010110030012
:101DC400F4BF050803001402000300004C0D0608CC
:101DD40004001F0201000800540D060805001F023C
:041DE40001010800F1
:1080000003685A1C02601970704700BF2DE9F047E1
:10801000089C2578002B804689460CBF4FF0200A2B
:108020004FF0300A661C25B3002A26DD334601E0F6
:10803000024698B113F8011B501E0029F8D1971E73
:1080400060B13D46013D51464046C8476B1C002B80
:10805000F8DC257827EAE770013045B1041B294692
:108060004046C847301916F8015B002DF7D1BDE82E
:10807000F087002A03DC2846F9E70020EEE7571EC8
:10808000DFE700BF2DE9F04714461D4606464FF4D2
:108090007A7200232046294649F0DCFA4D4BDFF87E
:1080A00048814D4A4D4F034488FB03101844D917AB
:1080B00082FB032CC1EB601088FB002887FB0327A1
:1080C0009C44474AC1EBEC2CC0EB001E82FB0C2900
:1080D000A3EB8E0E1F44434A86F806E0C1EB274708
:1080E0004FEAEC7E08EB000ACEEBA90E82FB07827A
:1080F0004FEAE0780EEB4E0EC8EB6A18ACEBCE0CF4
:10810000C8EB0818DFF8E4E086F804C0A0EB8800AC
:1081100070718EFB0303F817C0EBE21240F2B5500A
:1081200000FB1272C1EBE353B2F5896F4FEA83078C
:108130003CDA40F2DA239A4242DCB2F5B77FB4BFB0
:108140004FF0000E4FF0010E4FEA4E09DFF8A0800D
:1081500009EB0E0308EBC3031FFA8EFCD88A09EB68
:108160000E0108EBC10116310B2301E031F8020DBD
:10817000904218DD013BF9D1CE44012338F83E008E
:10818000B37007F5FA670132121ABC44F270A6F810
:1081900000C0204629464FF47A72002349F05AFA6B
:1081A0003281BDE8F0870133DBB2E9E74FF0030C21
:1081B000E64640F29650DFF838804FF00609CEE7E9
:1081C0004FF0020CDFF82880E64640F229404FF0DD
:1081D0000409C4E780BC92C7C5B3A29107452EC26B
:1081E000ABAAAA2A73B06D1689888888792D0311E5
:1081F000583205080028F0B403DA2D230B704042F2
:108200000131092804464FF0010307DD03EB830326
:108210005B00B0FBF3F2092AF8D883B10F48A0FB4A
:108220000326B4FBF3F2092A02F1570C02F13007DE
:1082300009DD03FB1244F30801F801CBEFD1002361
:108240000B70F0BC704703FB1244F30801F8017B8C
:10825000E5D100230B70F0BC704700BFCDCCCCCC77
:10826000884270B44FF0010442D301FB04F4B0FB28
:10827000F4F58D42F9D2ECB142BB092D04FB150097
:1082800005F1570605F130020EDDB4FBF1F403F8F9
:10829000016B7CB1B0FBF4F5092D04FB150005F171
:1082A000570605F13002F0DCB4FBF1F403F8012BC2
:1082B000002CEFD100221A7070BC704703F8016BDC
:1082C000B4FBF1F4002CF5D0B0FBF4F5092D04FB60
:1082D000150005F1370605F13002EFDCB4FBF1F4CF
:1082E00003F8012B002CEFD100221A7070BC7047EC
:1082F0000546002AEAD1C0E790ED057A90ED004AE4
:10830000D0ED066AD0ED014AD0ED047A90ED035A23
:10831000D0ED025AA4EE007AB0EE406AB0EE470A01
:10832000B0EE667AA4EE867A67EEC07AA5EE407A61
:10833000E5EE867A80ED057AC0ED067A704700BFDB
:10834000D0ED057A90ED013AD0ED003AD0ED064A35
:1083500090ED024A90ED077A90ED035A90ED086A8D
:10836000D0ED045AC0ED067AF0EE406A27EE830A9B
:10837000C0ED056AA3EEA60A80ED087AA4EE240AF1
:10838000A5EE470AA5EEC60A80ED070A704700BFB2
:10839000D0ED007A90ED017A30EE670AE7EE007AD0
:1083A000B0EE670AC0ED007A704700BF704700BFAB
:1083B00030B414220023112503240221C2700122AB
:1083C0008571C4710370C3728373C373417041724A
:1083D00082700272827230BC704700BF0023062197
:1083E0004FF47A720170C0E901230373704700BF34
:1083F00030B42023012221254FF47F44FF21437014
:1084000000234571048281740272027002714381FB
:108410008381C38130BC70472DE9F04F3149324B25
:1084200083B001F5A07B019013274FF000092F487E
:108430001022012603E0203098420BD002799742A7
:10844000F9D102680C68A24209D02030984206F1A6
:108450000106F3D1203159453AD00F79E7E7447945
:108460004D79A542F1D19446019A214809EB49057D
:1084700002EB050A57558AF8016000F572751D4E2A
:10848000624603E0A8421AD050F82C6FB242F9D1EC
:108490000679A642F6D1CF6806464FF0000C964604
:1084A0008046F268BA4216D00CF1010CBCF1030F01
:1084B00006F10C06F5D14046A8427246E4D14FF0D1
:1084C000FF3C203159458AF802C009F10109C4D1A5
:1084D00003B0BDE8F08F086932698242E4D14FFAF7
:1084E0008CFCEEE7E067050844730508846905081D
:1084F000447305080000014030B4152216231725E7
:108500002D242E21027043702F22FF238570447189
:108510008171C27143738373C370037103724372B9
:1085200030BC704710B42C210124022200230470B7
:1085300041708270C3705DF8044B7047034600F1D0
:108540001001FF221A705A7002339942FAD1027058
:1085500042708270C27070476D4B2DE9F04F1C68FD
:108560006C4BB3F80AE0B3F804809A894FEA0E2AFC
:10857000B4EB0A044FEA1E6B4FF0000587B065EBC1
:108580000B05CDE900450746009C1889019EA0FB1C
:10859000044500FB0655E00940EA45604FEA0844FF
:1085A0008C46E9114FEA184510EB0408D888009C66
:1085B00041EB0509CDE90489A0FB0445B3F802802D
:1085C00000FB0655200A40EA05604FEAC83429122C
:1085D0004FEA584510EB040841EB05090099A2FB4E
:1085E000010102FB06114FEAD05A4AEA412A1AF564
:1085F000FA634FEAE15B4BF10004B3F5FA6FCDE9A2
:10860000023474F10003424E64DA0524AAFB04012B
:1086100004FB0B1100FB0BF40AFB0144DDE904230E
:10862000A0FB0A0121444D104FEA3004121B4FEA0F
:10863000900463EB050344EA8174B8EB0408CDE9C8
:108640000423DDE9023434484FEAA10569EB05094A
:108650004FF0FF31834274EB010326DA40F6AC5051
:108660001AEB00024FF000014BEB010302FB03F198
:10867000A2FB022303EB4103D400DD00101B45EAFB
:10868000527563EB0501DDE9044524184D41CDE940
:1086900004450B24A2FB040104FB031149104FEA1B
:1086A0003000B8EB000869EB0109DDE90032534303
:1086B000009ADDE90201A2FB02AB0BEB430B4FEA90
:1086C000DA7242EA4B02801A4FEAEB7361EB030164
:1086D000CDE9020197B17168A1FB082301FB0933C1
:1086E000540D5D1544EAC324DDE90423A21A65EBA9
:1086F00003031D46D30B43EA45433B60BCF1000F27
:1087000002D0029BCCF8003007B0BDE8F08F00BF6C
:1087100090160020545E002024FAFFFF2DE9F04F50
:10872000DFF8DCC1754CDCF808502288B4F90AA0E7
:10873000C2EB25135200C2EBE502B4F902505B43D1
:108740006A43B4F904501B135D43AD1305EBE225F6
:10875000B5F5FA324FEAE57B85B04BF1FF33CDE951
:108760000023DDE900325343009AA561A2FB028990
:10877000CDE90201B4F908200199009809EB4309F9
:108780005143D31700FB0311A2FB00230B444FEA14
:10879000EA7B0AFB09F11F0308FB0B13AAFB080184
:1087A00019444FEA102A4AEA016A16034FEA212BBC
:1087B00047EA12571AEB0602E6884BEB070312F161
:1087C000000A43F5004BAAFB060106FB0B114A10F9
:1087D000CB1752EA030100F08E80B4F910600098C4
:1087E00006FB09F1F71708FB0711A6FB08673944D8
:1087F000B4F90E808B4601994FEAE87908FB01F144
:1088000000FB0911A8FB00898944DCF80C104FEA31
:108810004947C1F5801C47EAD837B2464FEA484677
:10882000B4F90C801AEB060A66464BEB070BF717F8
:108830004FEAC806019600260096F907DDE90067B1
:108840004FEACC7016EB0A0647EB0B0741EA5C01D6
:10885000801B61EB070140F6354C8946A0FB0C01FB
:108860000CFB091148F0F6FEB4F91620B4F914A077
:108870004E13470B47EAC14702FB06FCD31707FB21
:1088800003CCA2FB07236344564307FB0366A2FB0A
:1088900007233344560E46EAC31632184FEA63677D
:1088A00047EB010380460AFB01F14FEAEA7B08FB34
:1088B0000B17AAFB08013944C60C46EA413612EBF5
:1088C00006084FEAE147B4F9122043EB07094FEAE3
:1088D000182141EA096113010B44029A0AB11B0AEB
:1088E0001360039B23B105EB850580352D121D60B8
:1088F00005B0BDE8F08F0023EFE700BF685E002001
:1089000090160020704770472DE9F041334B344EEC
:108910001A8A7489B6F91450B6F90480B6F90E7043
:10892000B6F920C05B69121B34895443E213B6F9CF
:1089300012401544E40294FBF5F4B6F902501444D5
:10894000A4F57A6E0EFB0EF20EFB05F50EFB08FE8B
:10895000B6F90C80F4611213574302FB08F21214AB
:1089600002EB6E32ED1205EBE7270232B6F900504A
:10897000B6F806E0921002F5004207EB85070EFB01
:1089800002F207FA0CF74FEAD23E02374CF25032AD
:10899000A3EBA70742FA0CF37B4355BF5B00B3FB85
:1089A000FEF3B3FBFEF35B0078B11A1202FB02F593
:1089B00040F6DE326A430B4D12145D4302EB254252
:1089C00002F6CF6203EB2213036021B10A235C435A
:1089D000083424110C60BDE8F08100BF901600201F
:1089E000305E002043E3FFFF4FF4006303837047D2
:1089F0004FF4006303837047012380F850307047C1
:108A00004FF4006303837047F0B4037C4569026848
:108A10001F2B37D9203B2021546899400C4223D08A
:108A200010249C40D160D4605168D940CE074ED408
:108A3000EFF31183502282F31288EA6B1168C907A1
:108A400009D45468002C52D1D5E909618E4243D132
:108A5000012285F86020DBB283F31188037C026871
:108A60001F2B194614D9203B082150689940084211
:108A700000D0D1600421506801FA03F3184223D1D9
:108A8000F0BC7047202416689C4026420FD119463E
:108A9000082310688B40184200D0936004231068AC
:108AA00003FA01F10842EBD09160F0BC704710214D
:108AB0009940946091601168D940CC07B8D50121E4
:108AC00001FA03F39360B3E7D360F0BC7047012170
:108AD00001FA03F3D360ABE7AF690F44D7600ED858
:108AE0002E69711A5160AC62002185F8601011681E
:108AF00041F00101DBB2116083F31188AEE7711A16
:108B00005160AE62F0E700BFF0B4B34BB3491A78DE
:108B10000B789A4240F00781B14B1A78002A68D04E
:108B2000B04B1978B04B002965D11868B3F83051B3
:108B300041628489012A44EA05048481A3F8301142
:108B400057D0D3F83401B3F8645241628489022AC1
:108B500044EA05048481A3F864124AD0D3F8680279
:108B6000B3F8985341628489032A44EA0504848156
:108B7000A3F898133DD0D3F89C03B3F8CC544162CA
:108B80008489042A44EA05048481A3F8CC1430D0F3
:108B9000D3F8D004B3F8005641628489052A44EA28
:108BA00005048481A3F8001623D0D3F80406B3F893
:108BB000345741628489062A44EA05048481A3F873
:108BC000341716D0D3F83807B3F86858416284894F
:108BD000072A44EA05048481A3F8681809D0D3F869
:108BE0006C28B3F89C495162908920439081A3F886
:108BF0009C19F0BC70475C68198961602568186829
:108C000045F0010540F20D312560A0F84810848937
:108C1000012A44F480748481EBD0D3F83841B3F84E
:108C20003C51D3F834016560256845F001052560A5
:108C3000A0F848108489022A44F480748481D8D032
:108C4000D3F86C42B3F87052D3F8680265602568B7
:108C500045F001052560A0F848108489032A44F4F2
:108C600080748481C5D0D3F8A043B3F8A453D3F85B
:108C70009C036560256845F001052560A0F8481053
:108C80008489042A44F480748481B2D0D3F8D44413
:108C9000B3F8D854D3F8D0046560256845F00105D1
:108CA0002560A0F848108489052A44F480748481E2
:108CB0009FD0D3F80846B3F80C56D3F80406656085
:108CC000256845F001052560A0F848108489062A2A
:108CD00044F4807484818CD0D3F83C47B3F8405777
:108CE000D3F838076560256845F001052560A0F8D0
:108CF00048108489072A44F4807484813FF479AF52
:108D0000D3F87028B3F87408D3F86C385060106842
:108D100040F001001060A3F848109A8942F4807274
:108D20009A81F0BC70475C00E618304D15F836604B
:108D3000032E3FF6F1AEDFE806F05D261C02E018D8
:108D400005EBC0004468661E012C46603FF651AF3B
:108D5000013303F00303D8B2824208703FF4DCAE63
:108D600003EB4303DB00EA1802200021E8545160C2
:108D70003FE7E11805EBC1014868461E01284E6037
:108D80003FF637AF0DE0E118C90068184668771E56
:108D9000012E47603FF62DAF02274FF0FF366F548C
:108DA0004660E618F600AF191148397B00680139B2
:108DB000C9B23973002940D04FF47A722344B2FB10
:108DC000F0F200FB02F0B0F57A7F05EBC30518BFA7
:108DD00001326A60A0E600BFF07D0020F17D002036
:108DE000FCCC0020D9C1002000CD0020F47D002063
:108DF000280D002070B11D49012600220F89013283
:108E0000002F18BF0026904201F5B271F6D1002E56
:108E10003FF482AE164A126842F21076E018B6FBB2
:108E2000F2F102FB1162012605F8306002B1314413
:108E3000234405EBC30569606EE6BF68B7FBF0F13C
:108E400000FB11700327AF5500B101311C44013301
:108E500005EBC40503F00303934269603FF45CAE85
:108E600000293FF459AE0139696055E6DCC10020A4
:108E7000280D002010B5027C01681F2A4FF0200346
:108E80000ED94C68203A93401C4208D00B4A4068E7
:108E900000241470026822F001020260CB6010BD51
:108EA0000C6893401C42FAD0044A406800241470B5
:108EB000026822F0010202608B60F0E72333002099
:108EC0002DE9F041C40023189B00B749CA585268E5
:108ED000958AADB2EFB2FE070B4461D4BE0737D519
:108EE000BFF35F8F1D7EEDB2012D00F0BB80AF4E52
:108EF000138BBFF35F8F231801EB83031D7E022DBD
:108F000000F0CE80231801EB83031D7E032D05D1D5
:108F10009B7E1BB1737E002B40F01A81938896F9DB
:108F200018C043F480639380231801EB83031B7EF6
:108F3000013363450AD1B37E00257576002B40F0DE
:108F40008A80204401EB800000234375BDE8F08156
:108F5000964E17F0040F96F918C04DD117F0400740
:108F600000F0B280178A1D6AFFB205F80C705FFA34
:108F70008CF56F1C93F818E07BB2DF1CBE4533768E
:108F80009C4600F00981271801EB87073F7EBB4212
:108F9000CAD105F1020C4FFA8CFC86F818C0C3E761
:108FA0001588824E25F400652D042D0C158015883A
:108FB00045F4806515809D7E00273776002D3DD0D5
:108FC000757E002D37D0231801EB830301251B7E0E
:108FD0007576022B03D1138843F4006313802318A2
:108FE00001EB83039B7D43F001031382204401EBDB
:108FF0008000037EBDE8F0819F7E757E4FF0010EFC
:1090000086F81AE0002F5CD0002D78D1231801EBF0
:1090100083035B7E002B00F0A48013880CF1010C0D
:109020004FFA8CFC43F4007386F818C01380138841
:10903000DF05FCD478E7DB7DFF2BC4D0231801EBE0
:1090400083039D7D05F0FE051582DB7DFF2BCDD0D2
:10905000FF233376CAE7938823F440731B041B0C69
:1090600093806EE79B7E514E002B3FF441AF737EA1
:10907000002B3FF43DAF138823F480631B041B0CCB
:109080001380BFF35F8F138B1388B57643F400739F
:109090001380938896F918C043F48063938043E764
:1090A0009B7E002B3FF42EAF737E002B3FF42AAF44
:1090B000138896F918C023F480631B041B0C1380DB
:1090C00016E0002DA2D0A8E72D067FF52DAFBCF14C
:1090D000FF3F6DD0DD6915F80C5015820CF1010CC5
:1090E0001D7E4FFA8CF39D429C4633767FF41CAF75
:1090F000938823F480631B041B0C938014E71F7E6A
:10910000D3F820805FFA8CF5AE44022F4FFA8EFE22
:1091100017882DD927F480673F043F0C1780178AE2
:10912000FFB208F80C701788D3F820C047F400731A
:109130001380138ADBB20CF80E30938805F1020C11
:109140004FFA8CFC43F4806386F818C093806EE776
:10915000938896F918C023F480631B041B0C93803A
:10916000E2E61388012543F48073138075765EE789
:1091700047F400771780178AFFB208F80C70178A37
:10918000D3F8208005F1030C4FFA8CFCFBB286F873
:1091900018C008F80E304AE7978827F480673F0424
:1091A0003F0C9780EFE600BF9C2000209016002027
:1091B000DD7D15829D7E37761DB91B7E002B7FF4E9
:1091C00015AF938823F480631B041B0C93800DE779
:1091D00013F0EEBA38B51D4B1B78044600F1250597
:1091E00093B104221A4920304AF020F8284614226C
:1091F00018494AF01BF8012384F83A30164B1B78C3
:1092000073B984F83B3038BD2846142213494AF01C
:109210000DF8012384F83A300F4B1B78002BF0D067
:109220000F4B186859689A68DD68E56020606160D6
:10923000A260DD69186959699A69A2610123E56133
:109240002061616184F83B3038BD00BF251C0020DF
:10925000E81B0020D01B0020261C0020C89E05080B
:10926000F01B0020014B18680FF074BEB4250020DD
:1092700010B4292128240122002304704170827037
:10928000C3705DF8044B704738B52E22002149F0B9
:109290008FFF0346642440F2DC5040F21A4140F252
:1092A0006C7240F202251C74588213241920998292
:1092B000DA8240F2753140F643021D839C760E251A
:1092C0000A241877D9831E2002211A84012283F8E8
:1092D0002C00197283F82A1083F8225083F82B404F
:1092E0009A7383F8252083F8292019460248BDE89F
:1092F000384024F025BA00BFD49E050810B50021DF
:10930000044601200EF00CFC207010BD38B500247E
:109310000472451EE1B202200EF002FC0134082C5A
:1093200005F8010FF6D138BD38B500240546048094
:109330002146284601341AF0D7FD082CF8D1002127
:1093400085F8E210A5F8E410A5F8E610A5F8E810F5
:10935000A5F8EA10A5F8EC10A5F8EE10A5F8F010A5
:10936000A5F8F2102846BDE838401AF07FBD00BFCE
:1093700008B5838940F2E93300E0A3B10289013BDB
:1093800012F0020F9BB2F8D089B2818140F2E9332A
:1093900000E043B10289013B12F0010F9BB2F8D00B
:1093A0008089C0B208BD13F0ADF8C0B208BD00BFDF
:1093B000F0B5876983B0064617B13B68BA885A830F
:1093C0007069DFF8A8E08389C3244FF47A734FF003
:1093D000060C6D464FF6FF710EF1010E03E0013BE6
:1093E0009BB28B4220D002899207F8D5A3B2838129
:1093F0004FF47A7302E0A3B28B4215D00289D207F0
:1094000003F1FF34F7D5828992B20DB12A7001358C
:10941000BCF1000F0BD00CF1FF3CFF24BEF1000F9C
:10942000E1D09EF80040D7E713F06CF8B76917B1A8
:109430003B68BA881A839DF805009DF801509DF895
:1094400002109DF803409DF804209DF8063041EA83
:10945000052143EA002342EA04220120A6F8501025
:10946000A6F85220A6F8543003B0F0BDB832050873
:109470002DE9F04F87B0A94A02904068038823F095
:1094800040031B041B0C0380038823F038031B04D8
:1094900090424FEA134300F03F8102F58062904210
:1094A0000CBF3022382213430380029B02889B6842
:1094B00042F04002028013B11A689B88538383896B
:1094C00040F2E93302E0002B00F090810289013B79
:1094D00012F0020F9BB2F6D06B23838140F2E93386
:1094E00002E0002B00F082810289013B12F0010FA3
:1094F0009BB2F6D08389838940F2E93302E0002BE6
:1095000000F071810289013B12F0020F9BB2F6D08C
:109510008023838140F2E93302E0002B00F0638175
:109520000289013B12F0010F9BB2F6D08389029BA6
:109530009B6813B11A689B8813830623784CDFF865
:10954000EC81DFF8ECA1774D774E04939623DFF89A
:10955000E4C101934FF0100EDAF80430C3F30803AE
:10956000002B40F0B280EFF31183002B40F0AD8070
:109570002068AA6823689842FAD133689A42F7D8DB
:10958000D8F800704FF47A7101FB07F39B1AB3FB14
:10959000F7F301FB00304FF47A774FF00109DAF866
:1095A0000430C3F30803002B70D1EFF31183002BB9
:1095B0006CD12368A96822689342FAD1326891423B
:1095C000F7D8D8F8002007FB02FBABEB0101B1FB99
:1095D000F2F107FB03131B1AB3F57A7FDFD3019B6C
:1095E000013B0193B8D1029B9B6813B11A689B8819
:1095F0005383029B586840F2E933828902E0002BD2
:1096000000F085800289013B12F0020F9BB2F6D078
:10961000F523838140F2E93301E0002B77D0028902
:10962000013B12F0010F9BB2F7D08389838940F28E
:10963000E93301E0002B67D00289013B12F0020FF1
:109640009BB2F7D0FF23838140F2E93301E0002B86
:109650005AD00289013B12F0010F9BB2F7D08389E7
:10966000DBB20393029B9A6812B113689188198345
:10967000039B682B60D0049B013B13F0FF03049312
:109680007FF464AF184607B0BDE8F08FEFF31181A7
:109690008EF31288D5F808B02B68DB0344BFCCF8F2
:1096A0000090D5F808B02368DCF80020C9B281F337
:1096B0001188D8F80010134407FB01F2A2EB0B024B
:1096C000B2FBF1F207FB032385E7EFF311838EF37F
:1096D0001288AF682A68D20303D50122CCF8002093
:1096E000AF682068DCF80090DBB283F31188D8F80B
:1096F00000104FF47A72484402FB01F3DB1BB3FB0A
:10970000F1F302FB003046E712F0FCFEAAE712F08C
:10971000F9FE029B586889E73022C4E60038004011
:10972000A8B4002010E000E0B0B40020ACB40020E9
:1097300000ED00E0A4B4002012B1136892885A83AF
:10974000029B586840F2E933828901E0002B45D042
:109750000289013B12F0020F9BB2F7D08C23838168
:1097600040F2E93301E0002B38D00289013B12F0CE
:10977000010F9BB2F7D08389838940F2E9330289D4
:10978000013B12F0020F9BB215D1002BF7D112F062
:10979000B9FE029B9B6813B11A689B881383059BD3
:1097A000142B04D3182B17D9543B062B14D90020A3
:1097B00007B0BDE8F08FFF23838140F2E93301E079
:1097C000002BE4D00289013B12F0010F9BB2F7D0CD
:1097D0008389DBB20593DCE7032054E712F092FEA5
:1097E000029B5868C8E712F08DFEA0E612F08AFED0
:1097F000029B58687FE600BF38B5054640683B4A83
:10980000038823F040031B041B0C0380038823F010
:1098100038031B0490424FEA134305D002F58062DF
:10982000904201D043F0080303800388AA6843F004
:109830004003038012B1136892885A83838940F2EF
:10984000E93301E0002B43D00289013B12F0020F03
:109850009BB2F7D0F523838140F2E93301E0002B7E
:1098600036D00289013B12F0010F9BB2F7D08389F9
:10987000838940F2E93300E00BB30289013B12F027
:10988000020F9BB2F8D0FF23838140F2E93300E05E
:10989000ABB10289013B12F0010F9BB2F8D0848971
:1098A000E4B2AB6813B11A689B881383712C19D08A
:1098B00008D9AC2C14D0AF2C0ED1092038BD12F031
:1098C00021FEEEE7122C0FD0702C07D1052038BDF9
:1098D00012F018FE6868CBE7732C03D0002038BD67
:1098E000072038BD062038BD082038BD00380040AC
:1098F0000122482112F0F0BE0122582112F0ECBEE4
:109900003122F42112F0E8BE044B93F8202092019A
:10991000343202F0FC02F42112F0DEBE305E002090
:109920002E22F42112F0D8BE07B5032301AA00218C
:1099300012F004FE9DF805309DF804001B0243EA76
:1099400000439DF80600184303B05DF804FB08B51A
:10995000FFF7EAFF014B586008BD00BF90160020DA
:1099600008B5FFF7E1FF014B186008BD9016002015
:1099700007B506236A46F72112F0E0FD9DF8013095
:109980009DF800100B4A1B0143EA01339DF80210B9
:1099900043EA1113D3609DF804309DF803101B01B6
:1099A00043EA01339DF8051043EA1113936003B0B5
:1099B0005DF804FB9016002007B5032301AAF621E9
:1099C00012F0BCFD9DF805309DF804201B0243EA0F
:1099D00002439DF806201343054AB2F92020C2F144
:1099E0000802D340034A536103B05DF804FB00BF93
:1099F000305E00209016002007B5022301AAF62150
:109A000012F09CFD9DF804209DF8053043EA0223E6
:109A1000024A138203B05DF804FB00BF90160020D9
:109A200070B582B00446062310306A46432112F016
:109A300085FDC0B19DF804009DF800609DF80110FF
:109A40009DF802509DF803209DF8053041EA06215B
:109A500043EA002342EA0522A4F85010A4F8522059
:109A6000A4F85430012002B070BD00BF70B582B0C0
:109A7000044606230C306A463B2112F05FFDA8B174
:109A80009DF804009DF800609DF801109DF80250BB
:109A90009DF803209DF8053041EA062143EA0023A2
:109AA00042EA05226183A283E383012002B070BDF4
:109AB0002DE9F04F87B00346039090F8610000282D
:109AC00040F02886039B93F85830072B00F0198646
:109AD0001823CDE90433039BBD4CBE4EDFF8008351
:109AE000BD4F1033184680226B21029312F0F4FD13
:109AF0006423DFF8F0E2B94801934FF01009DEF873
:109B00000430C3F30803002B40F0AA84EFF3118361
:109B1000002B40F0A5842568826823689D42FAD115
:109B20003B689A42F7D8D6F800C04FF47A7101FB2F
:109B30000CF39B1AB3FBFCF301FB05354FF47A7C65
:109B40004FF0010ADEF80430C3F30803002B40F0A5
:109B50006884EFF31183002B40F0638423688168ED
:109B600022689342FAD13A689142F7D832680CFBE6
:109B700002FBABEB0101B1FBF2F10CFB03135B1B2E
:109B8000B3F57A7FDED3019B013B0193B7D1072266
:109B900068210298DFF848828F4F12F09DFD642300
:109BA000DFF840E28D4801934FF01009DEF80430F1
:109BB000C3F30803002B40F09784EFF31183002BCD
:109BC00040F092842568826823689D42FAD13B6800
:109BD0009A42F7D8D6F800C04FF47A7101FB0CF323
:109BE0009B1AB3FBFCF301FB05354FF47A7C4FF075
:109BF000010ADEF80430C3F30803002B40F0F383BE
:109C0000EFF31183002B40F0EE8323688168226814
:109C10009342FAD13A689142F7D832680CFB02FBC2
:109C2000ABEB0101B1FBF2F10CFB03135B1BB3F5D2
:109C30007A7FDED3019B013B0193B7D11A466B219A
:109C40000298DFF89C81644F12F046FD6423DFF830
:109C500094E1624801934FF01009DEF80430C3F339
:109C60000803002B40F01E84EFF31183002B40F01B
:109C700019842568826823689D42FAD13B689A421C
:109C8000F7D8D6F800C04FF47A7101FB0CF39B1A99
:109C9000B3FBFCF301FB05354FF47A7C4FF0010A6E
:109CA000DEF80430C3F30803002B40F07E83EFF3AB
:109CB0001183002B40F079832368816822689342E6
:109CC000FAD13A689142F7D832680CFB02FBABEB51
:109CD0000101B1FBF2F10CFB03135B1BB3F57A7FBF
:109CE000DED3019B013B0193B7D101226B21029886
:109CF000DFF8EC80384F12F0EFFC0F23DFF8E4E0E0
:109D0000364801934FF01009DEF80430C3F308031E
:109D1000002B40F0D284EFF31183002B40F0CD8470
:109D20002568826823689D42FAD13B689A42F7D839
:109D3000D6F800C04FF47A7101FB0CF39B1AB3FB09
:109D4000FCF301FB05354FF47A7C4FF0010ADEF895
:109D50000430C3F30803002B40F00983EFF31183B1
:109D6000002B40F004832368816822689342FAD173
:109D70003A689142F7D832680CFB02FBABEB010169
:109D8000B1FBF2F10CFB03135B1BB3F57A7FDED35F
:109D9000019B013B0193B7D1059A0298DFF84080FF
:109DA0000D4F1B2112F098FC0F23DFF838E00B4811
:109DB00001934FF01009DEF80430C3F30803002BC1
:109DC00040F05984EFF31183002B40F054840BE0F2
:109DD000A8B40020ACB40020B0B4002010E000E033
:109DE000A4B4002000ED00E02568826823689D424D
:109DF000FAD13B689A42F7D8D6F800C04FF47A718E
:109E000001FB0CF39B1AB3FBFCF301FB05354FF48C
:109E10007A7C4FF0010ADEF80430C3F30803002B0C
:109E200040F08782EFF31183002B40F08282236899
:109E3000816822689342FAD13A689142F7D8326831
:109E40000CFB02FBABEB0101B1FBF2F10CFB0313CA
:109E50005B1BB3F57A7FDED3019B013B0193AAD153
:109E6000049A0298DFF82083C54F1C2112F034FCBD
:109E70000F23DFF818E3C34801934FF01009DEF811
:109E80000430C3F30803002B40F0D483EFF31183B5
:109E9000002B40F0CF832568826823689D42FAD169
:109EA0003B689A42F7D8D6F800C04FF47A7101FBAC
:109EB0000CF39B1AB3FBFCF301FB05354FF47A7CE2
:109EC0004FF0010ADEF80430C3F30803002B40F022
:109ED0001282EFF31183002B40F00D82236881681A
:109EE00022689342FAD13A689142F7D832680CFB63
:109EF00002FBABEB0101B1FBF2F10CFB03135B1BAB
:109F0000B3F57A7FDED3019B013B0193B7D1039A6E
:109F100092F85B30032B00F2F28392F85E20012A64
:109F20000BD0022A40F0EB83039B93F8633003F0DD
:109F3000FB03022B0CBF002207221A210298DFF834
:109F400048828F4F12F0C8FB0F23DFF840E28D48A4
:109F500001934FF01009DEF80430C3F30803002B1F
:109F600040F02683EFF31183002B40F02183256816
:109F7000826823689D42FAD13B689A42F7D8D6F8A6
:109F800000C04FF47A7101FB0CF39B1AB3FBFCF396
:109F900001FB05354FF47A7C4FF0010ADEF80430FE
:109FA000C3F30803002B40F08881EFF31183002BEB
:109FB00040F083812368816822689342FAD13A682D
:109FC0009142F7D832680CFB02FBABEB0101B1FB0D
:109FD000F2F10CFB03135B1BB3F57A7FDED3019B1D
:109FE000013B0193B7D1039B029893F86020DFF8FF
:109FF0009881634F192112F06FFB6423DFF88CE125
:10A00000604801934FF01009DEF80430C3F30803F1
:10A01000002B40F0EE82EFF31183002B40F0E98239
:10A020002568826823689D42FAD13B689A42F7D836
:10A03000D6F800C04FF47A7101FB0CF39B1AB3FB06
:10A04000FCF301FB05354FF47A7C4FF0010ADEF892
:10A050000430C3F30803002B40F01181EFF31183A8
:10A06000002B40F00C812368816822689342FAD16A
:10A070003A689142F7D832680CFB02FBABEB010166
:10A08000B1FBF2F10CFB03135B1BB3F57A7FDED35C
:10A09000019B013B0193B7D1102237210298DFF8D1
:10A0A000E880374F12F018FB0F23DFF8E0E0354867
:10A0B00001934FF01009DEF80430C3F30803002BBE
:10A0C00040F05582EFF31183002B40F05082256859
:10A0D000826823689D42FAD13B689A42F7D8D6F845
:10A0E00000C04FF47A7101FB0CF39B1AB3FBFCF335
:10A0F00001FB05354FF47A7C4FF0010ADEF804309D
:10A10000C3F30803002B40F09C80EFF31183002B76
:10A1100040F097802368816822689342FAD13A68B8
:10A120009142F7D832680CFB02FBABEB0101B1FBAB
:10A13000F2F10CFB03135B1BB3F57A7FDED3019BBB
:10A14000013B0193B7D10298DFF83C800C4F01220C
:10A15000382112F0C1FA0F23DFF830E009480193EB
:10A160004FF01009DEF80430C3F30803002B40F071
:10A17000DD81EFF31183002B40F0D88108E000BFB0
:10A18000B0B4002010E000E0A4B4002000ED00E036
:10A190002568826823689D42FAD13B689A42F7D8C5
:10A1A000D6F800C04FF47A7101FB0CF39B1AB3FB95
:10A1B000FCF301FB05354FF47A7C4FF0010ADEF821
:10A1C0000430C3F30803F3B9EFF31183DBB9236859
:10A1D000816822689342FAD13A689142F7D832688E
:10A1E0000CFB02FBABEB0101B1FBF2F10CFB031327
:10A1F0005B1BB3F57A7FE2D3019B013B0193B1D1A5
:10A2000007B0BDE8F08FEFF3118189F31288D0F821
:10A2100008B00368DB0344BFC8F800A0D0F808B05A
:10A220002368D8F80020C9B281F31188316813443B
:10A230000CFB01F2A2EB0B02B2FBF1F20CFB0323CD
:10A24000D6E7EFF3118189F31288D0F808B00368DC
:10A25000DB0344BFC8F800A0D0F808B02368D8F8E2
:10A260000020C9B281F31188316813440CFB01F25C
:10A27000A2EB0B02B2FBF1F20CFB03235BE7EFF363
:10A28000118189F31288D0F808B00368DB0344BF5A
:10A29000C8F800A0D0F808B02368D8F80020C9B2E8
:10A2A00081F31188316813440CFB01F2A2EB0B021D
:10A2B000B2FBF1F20CFB0323E6E6EFF3118189F325
:10A2C0001288D0F808B00368DB0344BFC8F800A0C8
:10A2D000D0F808B02368D8F80020C9B281F31188FB
:10A2E000316813440CFB01F2A2EB0B02B2FBF1F25A
:10A2F0000CFB03236FE6EFF3118189F31288D0F88A
:10A3000008B00368DB0344BFC8F800A0D0F808B069
:10A310002368D8F80020C9B281F31188316813444A
:10A320000CFB01F2A2EB0B02B2FBF1F20CFB0323DC
:10A33000E5E5EFF3118189F31288D0F808B00368DE
:10A34000DB0344BFC8F800A0D0F808B02368D8F8F1
:10A350000020C9B281F31188316813440CFB01F26B
:10A36000A2EB0B02B2FBF1F20CFB032370E5EFF35F
:10A37000118189F31288D0F808B00368DB0344BF69
:10A38000C8F800A0D0F808B02368D8F80020C9B2F7
:10A3900081F31188316813440CFB01F2A2EB0B022C
:10A3A000B2FBF1F20CFB0323EEE4EFF3118189F32E
:10A3B0001288D0F808B00368DB0344BFC8F800A0D7
:10A3C000D0F808B02368D8F80020C9B281F311880A
:10A3D000316813440CFB01F2A2EB0B02B2FBF1F269
:10A3E0000CFB032379E4EFF3118189F31288D0F891
:10A3F00008B00368DB0344BFC8F800A0D0F808B079
:10A400002368D8F80020C9B281F311883168134459
:10A410000CFB01F2A2EB0B02B2FBF1F20CFB0323EB
:10A4200004E4EFF3118189F31288D0F808B00368CF
:10A43000DB0344BFC8F800A0D0F808B02368D8F800
:10A440000020C9B281F31188316813440CFB01F27A
:10A45000A2EB0B02B2FBF1F20CFB0323FFF78FBB65
:10A46000EFF3118389F31288D0F808C00268D20391
:10A4700004D50122C8F80020D0F808C02568D8F813
:10A4800000A0DBB283F3118831684FF47A7255442F
:10A4900002FB01F3A3EB0C03B3FBF1F302FB053565
:10A4A000FFF74CBBEFF3118389F31288D0F808C093
:10A4B0000268D20304D50122C8F80020D0F808C0F1
:10A4C0002568D8F800A0DBB283F3118831684FF417
:10A4D0007A72554402FB01F3A3EB0C03B3FBF1F3D7
:10A4E00002FB0535FFF7D8BBEFF3118389F3128820
:10A4F000D0F808C00268D20304D50122C8F80020B1
:10A50000D0F808C02568D8F800A0DBB283F3118822
:10A5100031684FF47A72554402FB01F3A3EB0C034C
:10A52000B3FBF1F302FB0535FFF75FBBEFF31183DC
:10A5300089F31288D0F808C00268D20304D501223A
:10A54000C8F80020D0F808C02568D8F800A0DBB211
:10A5500083F3118831684FF47A72554402FB01F39A
:10A56000A3EB0C03B3FBF1F302FB053523E6EFF39A
:10A57000118389F31288D0F808C00268D20304D589
:10A580000122C8F80020D0F808C02568D8F800A03B
:10A59000DBB283F3118831684FF47A72554402FBC1
:10A5A00001F3A3EB0C03B3FBF1F302FB0535A1E5CB
:10A5B000EFF3118389F31288D0F808C00268D20340
:10A5C00004D50122C8F80020D0F808C02568D8F8C2
:10A5D00000A0DBB283F3118831684FF47A725544DE
:10A5E00002FB01F3A3EB0C03B3FBF1F302FB053514
:10A5F000D0E4EFF3118389F31288D0F808C0026821
:10A60000D20304D50122C8F80020D0F808C025687C
:10A61000D8F800A0DBB283F3118831684FF47A7266
:10A62000554402FB01F3A3EB0C03B3FBF1F302FB74
:10A63000053508E5EFF3118389F31288D0F808C0D7
:10A640000268D20304D50122C8F80020D0F808C05F
:10A650002568D8F800A0DBB283F3118831684FF485
:10A660007A72554402FB01F3A3EB0C03B3FBF1F345
:10A6700002FB053522E4EFF3118389F31288D0F849
:10A6800008C00268D20304D50122C8F80020D0F81F
:10A6900008C02568D8F800A0DBB283F311883168C0
:10A6A0004FF47A72554402FB01F3A3EB0C03B3FBA6
:10A6B000F1F302FB0535FFF7AABBEFF3118389F332
:10A6C0001288D0F808C00268D20304D50122C8F865
:10A6D0000020D0F808C02568D8F800A0DBB283F3CA
:10A6E000118831684FF47A72554402FB01F3A3EBF1
:10A6F0000C03B3FBF1F302FB0535FFF724BB019A12
:10A700001BE4039B93F85D301BBB1023CDE904339E
:10A71000FFF7E1B91D4610F051FB05F10C010446AD
:10A72000E8B1202300228371104BC271EB603CF032
:10A730000BFFA388B3FA83F3C3F11F03012212FABC
:10A7400003F33FF4BFA90A490A6813430B60FFF7FC
:10A75000B9B910211823CDE90413FFF7BCB9034B95
:10A76000EB603CF0F1FEFFF7ADB900BFF9890008DE
:10A77000003C014042697749138823F040032DE9EA
:10A78000F04F1B041B0C1380138883B023F0380395
:10A790001B048A4201904FEA134300F0D08001F578
:10A7A00080618A420CBF282130210B43138013881B
:10A7B00043F04003138001200EF0B8F9019C2046BD
:10A7C000FFF776F9A36913B11A689B885383019B3D
:10A7D000586940F2E933828902E0002B00F0B4802E
:10A7E0000289013B12F0020F9BB2F6D06A238381EB
:10A7F00040F2E93302E0002B00F0A6800289013B21
:10A8000012F0010F9BB2F6D08389838940F2E933BD
:10A8100002E0002B00F095800289013B12F0020F4C
:10A820009BB2F6D01023838140F2E93302E0002B83
:10A8300000F087800289013B12F0010F9BB2F6D035
:10A840008389019B9B6913B11A689B8813836423D6
:10A85000414CDFF81091DFF81081404DDFF80CA17A
:10A860003F4E00930EF010F94FF47A774FF0100C32
:10A870004FF0010ED8F80430C3F30803002B3FD18A
:10A88000EFF31183002B3BD12368A9682268934220
:10A89000FAD132689142F7D8D9F8002007FB02FBC1
:10A8A000ABEB0101B1FBF2F107FB03131B1AB3F58C
:10A8B0007A7FDFD3009B013B0093D3D1019B2549D5
:10A8C0005A69138823F040031B041B0C1380138860
:10A8D00023F038031B048A424FEA134305D001F5E5
:10A8E00080618A4201D043F008031380138801205D
:10A8F00043F04003138003B0BDE8F04F0EF016B9EB
:10A90000EFF311818CF31288D5F808B02B68DB03C4
:10A9100044BFCAF800E0D5F808B02368DAF8002090
:10A92000C9B281F31188D9F80010134407FB01F272
:10A93000A2EB0B02B2FBF1F207FB0323B6E72821DF
:10A9400033E711F0DFFD7CE711F0DCFD019B586976
:10A950005BE700BF00380040A8B4002010E000E032
:10A96000B0B40020ACB4002000ED00E0A4B400209E
:10A9700008B5012026F0F8F8174A936803F00C0395
:10A98000042B1ED0082B18D151685368490203F0DC
:10A990003F0319D452681148B0FBF3F0C2F3881397
:10A9A00000FB03F00C4B0E4A5B68C3F30143013319
:10A9B0005B00B0FBF3F0106008BD094B074A1A605A
:10A9C00008BD074B186008BDB0FBF3F05368C3F334
:10A9D000881300FB03F0E5E7003802400024F40090
:10A9E00038AA00202DE9F84F037C02681F2B86BF90
:10A9F000203B51681168202202FA03F30B4214BF76
:10AA0000012300230BB9BDE8F88F4569604F044668
:10AA10000EF03AF84FF4B27303FB057306461A7C46
:10AA2000002A35D15B495A680978D2F80090D1B92B
:10AA3000D3F8D81058890A6822F001020A60B9F8E0
:10AA40000C3023EA0003A9F80C30534B1B78002B81
:10AA500032D1237C21681F2B13D8202202FA03F362
:10AA60008B60BDE8F88F5269136823F0010313600F
:10AA7000B9F80C3023F480731B041B0CA9F80C30BC
:10AA8000E3E7203B202202FA03F3CB60BDE8F88F16
:10AA9000D3F8D86041485F8901225A7431685A68F6
:10AAA0000368156821F001013160AA89013322EAA7
:10AAB0000702AA810360CCE74FF4B27A0AFB05FAD9
:10AAC00007EB0A05D5F8D880404625F0E5FF0123BD
:10AAD0002B74D5F8DCB00DF0D7FF0AF18C013944A6
:10AAE000CBF82C01484626F05FF8D5E92B70D5F855
:10AAF0009830D5E92D123B4303430B431343D5F85C
:10AB0000BC20D5F8CC70D8F8000025491343D5F8FF
:10AB1000C0201343D5F8D0203B43014013430B43DF
:10AB20000022C5F8A420C8F80030D8F81420D5F8C1
:10AB3000C430D5F8A81022F0070CD5F8C820D5E904
:10AB40002770134343EA0C03C8F81430C8F8041004
:10AB5000C8F80870C8F80C00D8F80020D5F8D8302C
:10AB600095F8D400696842F01002C8F800205860D7
:10AB70001A68096842F001021A608B896A891343D6
:10AB80008B810DF081FF074B801B186061E700BFD0
:10AB9000DCC10020D9C10020D8C10020587E00208F
:10ABA0003F801CF0B4220020F0B5067906F0E003E7
:10ABB000402B09D144794FF0FF350023012006F0E6
:10ABC0000706A3420BD1F0BD602B08BF45794FF0BB
:10ABD00001040CBF04FA05F54FF0FF35EDE7042E34
:10ABE0000CD8DFE806F0030D18242E0030B1C85C45
:10ABF000D75C784028420CBF012000200133E0E7F9
:10AC00000028FBD0C856D756A0EB070CDCF100009B
:10AC100040EB0C00F2E70028F0D031F8130032F8D6
:10AC20001370784028420CBF01200020E6E700287E
:10AC3000E4D031F9130032F91370C71B7842784120
:10AC4000DCE70028DAD051F8230052F8237078406E
:10AC500028420CBF01200020D0E7024B01461868B3
:10AC600011F0A6BDA824002038B5064D441E14F8E6
:10AC7000011F286819B9BDE8384011F08BBD11F0EB
:10AC800097FDF4E7A82400200048EDE7F6DE05086C
:10AC900008B5FFF7E9FFBDE80840F5E710B5044641
:10ACA0000348FFF7E1FF2046BDE81040F0E700BF92
:10ACB000919E050838B5074C074DAC4203D3074BAE
:10ACC00000221A7038BD6288D4E9010146F04CFFB9
:10ACD0001434F2E7A00100087C07000828DC0020FB
:10ACE00038B5074C074DAC4203D3074B01221A700D
:10ACF00038BD6288D4E9011046F036FF1434F2E71B
:10AD0000A00100087C07000828DC0020024A136824
:10AD100023EA000010607047FCD60020DFED2E7A99
:10AD2000B4EEE70AF1EE10FA4ADDDFED2C6A9FED92
:10AD30002C7A01E0B0EE670AB4EEC70AF1EE10FA21
:10AD400070EE667AF6DC9FED277AF4EEC77AF1EEC4
:10AD500010FA3ED5DFED216A9FED237A01E0F0EE97
:10AD6000407AF4EEC77AF1EE10FA37EEA60AF6D47E
:10AD7000DFED1E7AB4EEE70AF1EE10FA14DDDFED36
:10AD8000167A37EEC00A60EE006A9FED196A9FEDF1
:10AD9000197ADFED197AA6EE867A20EE266AE6EEBB
:10ADA000877AA6EE270A7047DFED147AB4EEE70A39
:10ADB000F1EE10FA44BFDFED0B7A37EEC00AE2E79E
:10ADC0009FED087AF0EE407AF4EEC77AF1EE10FAD1
:10ADD000C0D4B0EE670ACBE7DB0F4940DB0FC940B8
:10ADE000E4CB1641DB0F49C0E4CB16C1DB0FC93FF2
:10ADF00092E741B99730083C15A82ABEDB0FC9BFBE
:10AE0000F0EEC07AB0EEE07AB4EEE77AF1EE10FA46
:10AE1000B4BFB0EE676AB0EE476AB5EE406AF1EED5
:10AE200010FA46D0B4EEE77AF1EE10FA8CBFF0EEED
:10AE3000675AF0EE475AC5EE866A9FED1F3A9FEDBE
:10AE40001F6A9FED1F4A9FED1F5ADFED1F3ADFED8E
:10AE50001F4ADFED1F5AA6EEC36AE6EEA34AA6EE2E
:10AE6000864AB7EE006AA6EE845AA6EEA46AE6EE1B
:10AE7000855AC5EE866AB4EEE77AF1EE10FA48BF5D
:10AE8000DFED147AF5EEC00A48BF77EEE66AF1EE20
:10AE900010FA48BFDFED107AB5EEC00A48BF77EE72
:10AEA000E66AF1EE10FA48BFF1EE666AB0EE660AA5
:10AEB0007047DFED076ADEE739094E3DE3B59E3E98
:10AEC00088FA163E45FE7F3F99FB243F69A2163E55
:10AED000A7DFA834DB0FC93FDB0F4940DFED317A34
:10AEE00030EE277AFDEEC76A16EE903A2033402BFB
:10AEF00002D99FED2D0A7047B4EEE70AF1EE10FA81
:10AF00004DDD9FED2A6ADFED2A6A01E0B0EE677A37
:10AF1000B4EEE67AF1EE10FA77EE467AF6DC9FEDC3
:10AF2000257AF4EEC77AF1EE10FA35D5DFED1F6A17
:10AF30009FED217A01E0F0EE407AF4EEC77AF1EE6F
:10AF400010FA37EEA60AF6D4DFED167AB4EEE70A69
:10AF5000F1EE10FA1BDCDFED197AB4EEE70AF1EE40
:10AF600010FA44BFDFED137A37EEC00A60EE006AD4
:10AF70009FED136A9FED137ADFED137AA6EE867AC2
:10AF800020EE266AE6EE877AA6EE270A7047DFED06
:10AF90000F7A37EEC00AE9E7B0EE670AD4E7F0EEC1
:10AFA000477ABCE7DB0FC93F00000000DB0FC94058
:10AFB000E4CB1641DB0F49C0E4CB16C1DB0FC9BFA0
:10AFC00092E741B99730083C15A82ABEDB0F4940EB
:10AFD00010B44C09012250F8243001F01F0102FA8C
:10AFE00001F123EA010340F824305DF8044B704777
:10AFF00010B44C09012250F8243001F01F0102FA6C
:10B0000001F10B4340F824305DF8044B704700BF5A
:10B010004B0901F01F0150F82320012303FA01F12D
:10B02000114214BF18460020704700BF2DE9F043BD
:10B03000002489B006460D461F46A04605E0252996
:10B040000CD030460134A847039A531C039311785F
:10B050000029F4D1204609B0BDE8F083931CCDE966
:10B0600003385078302842D0A0F13003DBB2092BEE
:10B070004FF0000945D96C282AD0642873D019D91B
:10B08000732858D063D9752840F0828007F1040CEA
:10B09000386805AB00220A216746FDF7E1F805ABE9
:10B0A000049A009329464B463046FCF7AFFF039ABB
:10B0B0000444CAE725283CD051D958286BD06328CE
:10B0C000C2D139783046A84704370134039ABCE727
:10B0D000039B5A1C03921B78642B52D016D8252B45
:10B0E00027D064D9582B18D0632BEAD0ADE7D31CF6
:10B0F00003939078A0F13003DBB2092B4FF00109E4
:10B10000B9D804AA03A93EF0BDF8B4E7732B12D056
:10B1100051D9752B2DD0782B97D1A3F15802B2FAC3
:10B1200082F23868520905AB10210437FDF798F810
:10B13000B5E7252185E73B68049A0093294600235B
:10B140003046FCF763FF04370444039A7DE76E281A
:10B150007FF47AAF039A3B6804371C6075E70028D8
:10B160003FF478AF70E7386805A9FDF743F8043776
:10B1700095E7386805AB00220A21FDF771F804371E
:10B180008DE73B1D386805A91F46FDF733F886E7B4
:10B1900078287FF459AFA0F15802B2FA82F23868E9
:10B1A000520905AB1021FDF75BF8043777E7002B58
:10B1B0003FF450AF49E76E2BCDD046E710B5064CB3
:10B1C0000B46024605492068FFF730FF2068BDE8BE
:10B1D000104011F0DFBA00BFA8240020D191000870
:10B1E00038B504460D460848FFF73EFD294620467F
:10B1F000FFF7E4FF0548FFF737FD054B1B7813B158
:10B20000044B01221A7038BD969E0508A19E0508C0
:10B2100004260020052600200FB407B504A951F824
:10B22000040B0191FFF7DCFFFFF72EFD03B05DF883
:10B2300004EB04B070470FB407B504A951F8040B30
:10B240000191FFF7CDFF03B05DF804EB04B0704748
:10B250000FB407B504A951F8040B0191FFF7AEFF35
:10B26000FFF712FD03B05DF804EB04B070470FB4B4
:10B2700007B504A951F8040B0191FFF79FFF03B034
:10B280005DF804EB04B070472DE9F04117460279F0
:10B2900002F0E003402B05460E462BD10024554F0B
:10B2A000DFF8708115E02B7903F00703022B15D02E
:10B2B000032B19D0012B14BF315D31573846FFF7EE
:10B2C000D6FF6B79013BA34202DD4046FFF7CCFC81
:10B2D00001346B79A342E6DCBDE8F08136F8141046
:10B2E0003846FFF7C4FFECE736F914103846FFF78D
:10B2F000BEFFE6E702F00702042A5CD8DFE802F0AE
:10B30000031D25272A003478202B3AD067D8002B3C
:10B31000E2D1B5F80560B5F8078036482146FFF759
:10B32000A6FFA6423FDCA0453DDB002FD4D042461D
:10B3300031463148BDE8F04199E796F90040202BAD
:10B340001FD04CD8002B3CD0C6E73488DCE7B6F9D8
:10B350000040F4E7D6F80080202B444611D03ED8B8
:10B36000002BB9D141462348FFF781FFD5F80510DE
:10B37000884518D8002FAFD02048BDE8F04176E7C7
:10B3800000246A791E4B03EBC2010979A1420ADD50
:10B3900053F8323053F82400BDE8F04164E4194812
:10B3A000BDE8F04163E7FFF76FFC224629681648C5
:10B3B000BDE8F0413FE7202BE2D007D8002B8BD12E
:10B3C0001C46B5F90560B5F90780A6E7602BE6D005
:10B3D000802B81D131460D48BDE8F04147E7602B15
:10B3E000F6D16A791441E307D9D50948BDE8F0419F
:10B3F0003DE700BF6CD6050887DC0508A79E050859
:10B400003C80050843B40508AD9E050875A30508F2
:10B41000A9D60508A59E05080CB407B510F02000B4
:10B420000BD079B92320FFF718FC05A904980191E6
:10B43000FFF7C4FEFFF728FC012003B05DF804EB22
:10B4400002B070470020F8E70CB4C30607B500D57A
:10B4500061B905A904980191FFF7B0FEFFF714FC4C
:10B46000012003B05DF804EB02B070470020F8E75C
:10B470000EB400B584B005AB019053F8042B064917
:10B48000039301A8FFF7D2FD019B00221A7004B0BC
:10B490005DF804EB03B070470180000870B40668E3
:10B4A0008E4217D90139751E002311F8014F082269
:10B4B000634013F0800F4FEA430318BF83F0D503B6
:10B4C000013ADBB2F5D18D42EFD1721C02603370CC
:10B4D00070BC7047721C00230260337070BC7047F0
:10B4E0000A44914215D010B40139541E11F8012FAD
:10B4F0000823504010F0800F4FEA400018BF80F042
:10B50000D500013BC0B2F5D1A142EFD15DF8044BAB
:10B51000704770474840082310F0800F4FEA400002
:10B5200018BF80F0D500013BC0B2F5D1704700BF15
:10B530000A44914215D030B40139551E41F221021E
:10B5400011F8014F082380EA042004044CBF82EA6A
:10B5500040004000013B80B2F7D18D42F0D130BCB9
:10B560007047704770B502221349144C144E4FF6C1
:10B57000FF70FFF7DDFF22884AB1A518B54218D247
:10B58000052A16D92146FFF7D3FF2C46F3E72146BB
:10B590000222FFF7CDFF0222A118FFF7C9FF094BD6
:10B5A000E41A094B1C8041F60F53C31A5842584104
:10B5B00070BD0020FCE700BF00400008024000080A
:10B5C00000800008FA3F00082ADC00200F4B2DE91C
:10B5D0003048D3E9004554EA05020AD1034640F257
:10B5E000011200201880988098715A801881BDE857
:10B5F0003088074B1A6814EB020B45F1000C5A46D1
:10B600006346FCF73FFD0120BDE8308890750020BF
:10B61000A8B4002030B403888278C478154DA3F50F
:10B62000FA6303F0030101EB4101013A02EB8102ED
:10B630009B0835F812500279611E40F2B55404FBA4
:10B6400003132B4403EB430302EBC30342798479D6
:10B6500009490089C3EB031302EB83032144C3EBC5
:10B66000031301EB83034FF47A720021C2FB030141
:10B6700030BC70475832050880436D382DE9F047DB
:10B6800007468CB01E469246002A5CD115461446E9
:10B690000A88B2F5FA6F36D38B78581E0B2832D849
:10B6A00091F803C00CF1FF301E282CD891F804E06B
:10B6B000BEF1170F27D891F80590B9F13B0F22D8AA
:10B6C00088793B281FD8B1F80880B8F57A7F1AD25C
:10B6D0004FF001085EBB09890491002CB4BF2D21F5
:10B6E0002B21002CB8BF6442CDE90290CDE90514AE
:10B6F0000795CDE900CE38462A49FFF7B9FE404606
:10B700000CB0BDE8F08700232749ADF828304FF092
:10B71000010C18468DF82A30ADF82C3099469E461B
:10B720001A4698460991634609A9002ED3D0CDE95F
:10B730000290CDE900CE38461C49FFF799FE4046FD
:10B740000CB0BDE8F0871A4C84FB0234A318D41760
:10B75000C4EB6314C4EB0415A2EB85052DB2002DD8
:10B760000846B8BF6D42FFF755FF4FF47A720023C9
:10B770008046894645F06EFF3C230AFB030A4FF4DE
:10B780007A7200234046494645F064FF4FF47A71CF
:10B7900092B20023C1FB0A2309A8FCF773FC24B270
:10B7A00009A975E7009F050800000101E09E050852
:10B7B000898888880378202B024600F10100F9D09F
:10B7C000092BF7D02D2B00F0A4802B2B03BF53782F
:10B7D000B7EE000A0246B7EE000AA3F13001C8B284
:10B7E00009289FED577A10D8F2EE046A07EE901AF6
:10B7F000F8EEE77A12F8013FE7EE267AA3F130017E
:10B80000C8B20928B0EE677AF0D92E2B63D003F0C6
:10B81000DF03452B02D020EE070A704710B45178A1
:10B820002D294FD02B2979D0A1F13003092B02F11A
:10B8300001027AD80024002303EB830301EB4303C6
:10B8400012F8011FA1F130000928A3F13003F3D948
:10B85000B3F59A7F1A4628BF4FF49A72072B6CD91A
:10B86000DFED386A1346F7EE007A083B072B67EEE8
:10B87000A67AFAD802F00702DAB1F2EE046A012AD7
:10B8800067EEA67A15D0022A67EEA67A11D0032AAF
:10B8900067EEA67A0DD0042A67EEA67A09D0052AAB
:10B8A00067EEA67A05D067EEA67A062A18BF67EE7D
:10B8B000A67A002C3BD087EE277A5DF8044B20EE69
:10B8C000070A70479178A1F13003092B02F10202B7
:10B8D00030D80124AFE75378A3F13001C8B209286A
:10B8E00002F1010293D8F2EE046AF0EE665A07EE16
:10B8F000901AF8EEE77A12F8013F87EEA66AA3F1F4
:10B900003001C8B2092866EEA56A37EE067AEED98C
:10B910007DE75378BFEE000A02465EE79178A1F119
:10B920003003092B02F1020284D9F7EE007A27EEE8
:10B93000277AC2E7F7EE007ABDE7F7EE007A9BE7D9
:10B940000000000020BCBE4CB5EEC00ADFED317A2D
:10B95000F1EE10FACCBF30EE270A30EE670ADFEDC9
:10B960002E7A20EE270A30B5FDEEC07A87B017EEAA
:10B97000904A054684EAE470002303A9A0EBE47032
:10B98000CDE9003302933FF0A9F9002CACBF20238E
:10B990002D2303A88DF8003045F066F9012803A98E
:10B9A00024D002282DD0032805BF302368466846DE
:10B9B0008DF8013047F004FC684645F055F903382E
:10B9C000C4B222466946284647F030FC00232B5576
:10B9D000284645F049F92E22431C2A540DEB040158
:10B9E000E81847F009FC284607B030BD3023684608
:10B9F0008DF801308DF802308DF8033047F0E0FB10
:10BA0000DAE7302368468DF801308DF8023047F0D0
:10BA1000D7FBD1E76F12033A00007A44F8B5064627
:10BA200015460846B6FBF2F434B905FB14640C4B1A
:10BA30001B5D00F8013BF8BDB4FBF2F75FB905FBF5
:10BA40001747074B05FB1464DA5D00F8012B1B5DFB
:10BA500000F8013BF8BD3846FFF7E0FFEFE700BF15
:10BA6000309F050802B370B48E1803E0121B14D186
:10BA7000B14215D010F8012BA2F14103192B11F896
:10BA8000013BA3F1410598BF2032192D03F1200499
:10BA9000ECD9D21A01D1002BEAD1104670BC704704
:10BAA0000022104670BC70471046704770B50446BF
:10BAB00008460D4645F0D8F8064602E014F8013F66
:10BAC00043B1324629462046FFF7CCFF0028F5D186
:10BAD000204670BD1C46204670BD00BF4FF0FF32AF
:10BAE000FFF7C0BFA0F16103192B98BF2038704742
:10BAF000A0F14103192B98BF20307047202805D0B2
:10BB0000093804288CBF00200120704701207047AD
:10BB10002DE9F0411F46064603461C782046FFF7F4
:10BB2000EDFF1D4601330028F7D12B2C51D02D2CD1
:10BB300024D0102A804628D04FF0FF33B3FBF2F315
:10BB400002FB03FC6FEA0C0C5FFA8CFC0135002051
:10BB50000BE0303CE4B2944225DA98422E461DD8E0
:10BB60001AD002FB004015F8014B392CF1D944F0F2
:10BB70002004602C17D9573CE4B2ECE74FF00108E1
:10BB8000102A6C7805F10105D6D1302C23D06FF046
:10BB900070434FF00F0CD9E76445E2D907EA080873
:10BBA0004FF0FF30DFE701B10E60B8F1000F08D0B1
:10BBB00027B1B0F1004F28BF4FF000404042BDE830
:10BBC000F081002FFBD06FF00043984228BF184649
:10BBD000F5E78046D4E76C782046FFF789FF7828A0
:10BBE00005F1010605D035466FF070434FF00F0C9C
:10BBF000ACE7AC786FF0704302354FF00F0CA5E75F
:10BC000001230A22002183E7613819288CBF002014
:10BC100001207047413819288CBF0020012070474F
:10BC2000303809288CBF002001207047A0F1300374
:10BC3000092B07D920F02000413819288CBF00209B
:10BC4000012070470120704707EE901AF8EE677ADE
:10BC50009FED807A27EE800A20EE070AFDEEC07A7B
:10BC600017EE903A2033402B7BD8DFED7B7AB4EE91
:10BC7000E70AF1EE10FA40F3E180B0EE407A9FED72
:10BC8000776ADFED776A01E0B0EE677AB4EEE67AC4
:10BC9000F1EE10FA77EE467AF6DC9FED727AF4EE6A
:10BCA000C77AF1EE10FA40F1CC809FED6C6ADFEDBF
:10BCB0006E6A01E0F0EE477AF4EEE67AF1EE10FA01
:10BCC00037EE867AF6D4DFED697AB4EEE77AF1EEF4
:10BCD00010FA40F3A280DFED607A37EEC77A27EEE4
:10BCE000076ADFED635ADFED637ADFED636A9FED8C
