:020000040800F2
:10000000F0FF0010494A0508F9A30108695E0108DC
:10001000E94A0508E94A0508E94A05080000000020
:1000200000000000000000000000000005A401081E
:1000300001A4010800000000FDA3010869340108C3
:10004000E94A0508E94A0508E94A0508E94A0508B0
:10005000E94A0508E94A0508A9780108D57901089F
:10006000997901085D7901082179010811040108D5
:1000700001040108F1030108E1030108CD030108AF
:10008000B9030108A5030108E94A0508E94A05087A
:10009000E94A0508E94A0508E94A0508E57801083A
:1000A0001D1C0108B92101084D1B01088922010806
:1000B000F9200108392001086D1F0108F90901081C
:1000C000010A0108ED090108F5090108E94A0508D6
:1000D000E94A0508193701087D360108E1350108AC
:1000E0006D780108E94A0508A9F101087D1A01089F
:1000F000ED1C0108AD190108CD1D0108910301088F
:10010000E94A0508E94A05089D1E0108E94A05086B
:1001100045350108A9340108C1B6030849B50308EB
:100120007D03010869030108550301084103010823
:100130002D030108E94A0508E94A0508E94A0508C6
:10014000E94A0508E94A0508E94A0508C1BE010867
:100150001903010805030108F1020108E94A05082D
:10016000E1090108E9090108E94A0508E94A050821
:10017000E94A0508E94A0508E94A0508E94A05087F
:08018000E94A0508E94A0508F7
:08018800F04505000100000034
:1001900010020100142100201021002000000000A6
:1001A0006C0700081F0210002821002018210020E1
:1001B000000000006D8500081A023C00804000200D
:1001C000A443002000000000B18E000827000400B6
:1001D0007C400020E0430020000000006E07000883
:1001E0003810010070400020E443002000000000AF
:1001F0007207000814000300A45D0020185E0020B0
:1002000000000000740700080B301A00AC4D0020FD
:100210001C5E002000000000780700081F3024004A
:10022000C84D0020385E0020000000009407000840
:1002300005020400385900205C5E00200000000028
:10024000B807000803010A00084E0020605E002085
:1002500000000000BC07000813020400144C00203A
:100260006C5E002000000000C607000820320A0073
:100270005C7900205079002000000000A5FB0108F7
:100280001C02100064750020687900200000000046
:10029000B183000828101000B87800207879002079
:1002A0000000000021FC010801200C00507100201A
:1002B0008879002000000000CA0700080A702800A2
:1002C000AC7000209479002000000000C5FB0108FC
:1002D0000EA05C01506F0020BC79002000000000DF
:1002E00069E2030801010400B06E0020187B0020C1
:1002F000000000000000000000010400A86E0020C3
:100300001C7B002000000000D6070008020103004B
:10031000A46E0020207B002000000000718D0208E8
:1003200007020200BC7C0020007D002000000000CD
:10033000DC070008F6210C00F87B0020047D00207B
:1003400000000000E007000802000C00A47B002071
:10035000107D0020000000000000000006020C00DC
:10036000947C00201C7D0020000000004D8F0008C0
:1003700008120F00147C0020287D002000000000DF
:10038000FD840008F70106000C7C0020387D002069
:1003900000000000EC0700081D020200087C00209D
:1003A000407D002000000000F20700082202140136
:1003B00068970020B899002000000000FD90000818
:1003C0000C109C008C870020CC9A002000000000BC
:1003D000458D02080102050070870020689B0020FF
:1003E0000000000041F202080002050068870020BA
:1003F000709B002000000000000000001B021000A5
:100400003C870020789B002000000000D983000872
:100410001E00060094840020889B0020000000003D
:10042000F40700081B100C00987F0020909B002010
:1004300000000000810703082102F000187E002060
:100440009C9B002000000000E1F402082312100031
:10045000F88900208C9C002000000000FC070008A8
:1004600005100600F08900209C9C00200000000080
:100470000C08000837102800C4860020A49C002027
:1004800000000000120800080E020200EC890020A3
:10049000CC9C0020000000003A080008161006005E
:1004A0000C7E0020D09C0020000000003C080008CA
:1004B0002F10220094990020D89C002000000000FA
:1004C0004208000823100E00E4830020FC9C00205A
:1004D0000000000039FC0108F5518C00447D00202B
:1004E0000C9D002000000000BD4203080A020A0023
:1004F000B0A5002004A8002000000000896B0308BC
:100500000300010084A0002010A8002000000000CB
:100510000000000003123D00C4A7002014A8002022
:10052000000000006408000825102C01E4A500204C
:1005300054A800200000000000000000101002007D
:1005400050A0002080A9002000000000A2080008A0
:10055000190005004CB000205CB100200000000034
:10056000A40800081A000E00D8AF002064B10020D3
:1005700000000000AA080008F8210600ACAE002028
:1005800074B1002000000000B808000815007000D9
:1005900024AD00207CB1002000000000000000001D
:1005A0002A006000A8B00020ECB10020000000008C
:1005B00041E203082C0010005CB200204CB2002085
:1005C0000000000039E103082B00240090B2002055
:1005D0006CB200200000000009E103082920780027
:1005E00010AB0020B4B200200000000000000000AA
:1005F0000D00440090E100204CE2002000000000CB
:10060000590F010809020100FCE0002090E20020DF
:1006100000000000C0080008040080007CE000200A
:1006200094E200200000000000000000130004001D
:1006300068E0002014E3002000000000C408000867
:10064000FD01240044E0002018E300200000000029
:10065000AD0D010818202E0010E000203CE3002022
:10066000000000005D90000806101A0030CB00204A
:100670006CE300200000000081E40308FB0101009E
:100680002CCB002088E3002000000000D19000085F
:10069000FC010900F8C900208CE3002000000000E4
:1006A000E190000816023F00B8C9002098E300203E
:1006B000000000001D84000834001000E8C800207D
:1006C000D8E300200000000055E4030811020800F0
:1006D000C0C80020E8E3002000000000C8080008AF
:1006E00012120400B8C80020F0E30020000000004F
:1006F000D008000812201000A8C80020F4E3002051
:1007000000000000D4080008F901040018C500200A
:1007100004E4002000000000250E0108FA01020098
:1007200000BF002008E400200000000099860008B7
:100730000202030000B400200CE4002000000000CE
:10074000000000000C020400BCB3002010E40020F4
:100750000000000055850008FE011400CCBE0020FA
:0C07600014E4002000000000ED830008FD
:10076C00000020030000000003000000AE014A015D
:10077C005E012C0164010100000001000A019A01D4
:10078C00001E0A0000000000000000000001000034
:10079C000005000001020300000000000000000042
:1007AC0000000000000000000080070000000000B6
:1007BC00040101006C160000000000000100E803B9
:1007CC006400040A000114001E00900100000000E7
:1007DC00013C0000000000000100000002020000CB
:1007EC003D010000000000000000010000000000BE
:1007FC0000000000000000000000000000000000ED
:10080C0020000101000020003200C800D007960033
:10081C00140032002800B0044006000550001400FB
:10082C000F00080064000100010005000A00000030
:10083C00C4090000190000000000000000000000C6
:10084C00000000000000000000000000000000009C
:10085C00000000000000000000000000000000008C
:10086C00000000000000000000000000000000007C
:10087C00000000000000000000000000000000006C
:10088C00000000000000000000000000000000005C
:10089C0000000000010000050000280100007E059A
:1008AC00EA05B4053200E803D00700000401F401A6
:1008BC00140000001300000008004030000000008D
:1008CC0001010101FFFFFFFF0000000100000544D2
:0808DC004C4634000008000046
:1008E4001A030000000000000000000000000000E7
:1008F40000000000000000000000000004030904E0
:10090400120100020000004083042057000201028B
:1009140003010000EDCC0008F5850008F18500080E
:10092400ED85000845910008E9850008E585000883
:100934002865050899A501088D8A0108D9B0010820
:100944000000000000000000DDAD0108F9AC010862
:10095400000000000000000000000000C585010840
:100964008D86000881860008E9960008059700082E
:1009740039860008CD960008B19600080068214C1D
:100984001F0000001C0000001F0000001E000000EB
:100994001F0000001E0000001F0000001F000000D8
:1009A4001E0000001F0000001E0000001F000000C9
:1009B400FF01FF000000040100000000000000022D
:1009C400100000000700000000000000000000000C
:1009D400010203040607080901000000A00F00003B
:1009E400B80B00000102FFFF01000000E58B0108C5
:1009F400D18A010875B30108000000004D86010882
:100A04002DAF0108218A0108A5AE010800000000ED
:100A140000000000098601089D85010891850108F0
:100A2400A9A40108C5A401088DA4010871A40108A2
:100A340055A401089D8B0108AD8A0108B5B20108CF
:100A44000000000021860108A9AE0108F58901080B
:100A540005AE010800000000000000001586010832
:100A64000403090412010002EF0201408304563218
:100A74000002010203010000120100020202004010
:100A84008304405700020102030100000902200010
:100A9400010104C0320904000002080650050705DC
:100AA40081024000000705010240000009026400C1
:100AB400030100C032090400000103000000092101
:100AC400110100012226000705830308000A080B10
:100AD40001020202010009040100010202010005F1
:100AE4002400100105240100020424020205240646
:100AF4000102070582030800FF09040200020A003C
:100B040000000705010240000007058102400000C3
:100B140009024300020100C032090400000102027C
:100B2400010005240010010524010001042402022F
:100B34000524060001070582030800FF09040100DB
:100B4400020A0000000705010240000007058102B7
:100B540040000000FF0000008C7805080000000041
:100B64000000000000000000000000000000000081
:100B74000000000000000000000000000000000071
:100B840000FFFF0000000000AA550501000001005D
:100B9400607805080000000000000000000000006C
:100BA4000000000000000000000000000000000041
:100BB4000000000000000000FF1FFF1F05010905E1
:100BC400A101A100050109300931093209330935B0
:100BD4000934094009381581257F75089508810273
:100BE400C0C0000009022200010100E03209040033
:100BF400000103010200092111010001222600075E
:100C040005830308000A0000000000000102030439
:100C140001020304060708093DB0010841AF0108B9
:100C240099B3010889860108018C01089986010895
:100C3400B58601086186010851860108000000009C
:100C4400000000002D202D2D202D2D2D2D202D2DAB
:100C54002D2D000000000000000000000000000036
:100C6400000000AA550B010000AA5507010000AAC4
:100C7400550902000000AA5503009F00010000006E
:100C8400C0120000EC5D002000000000105E002097
:100C9400000000000100000015F20108000000003F
:100CA400B479050820700020702D7200FFFFFFFF4B
:100CB400D6010000B80B0000010101000001010190
:100CC400002D202D2D202D2D2D2D202D2D2D0000FE
:100CD4000000000000000000000000000000000010
:100CE4000000000000000000309005080000000033
:100CF40000000000BC90050801000000FA0000009C
:100D04000100000001000000010100004E710020FC
:100D14000000F401010000004C7100200000F40107
:100D2400010000004A7100200000F40101000000ED
:100D3400487100200000F401010000004671002009
:100D44000000F40101000000447100200000F401DF
:100D540001000000427100200000F40101000000C5
:100D64002DFA0108F1F90108307E05083C710020D4
:100D7400053201003A710020E803D00701000000A9
:100D840038710020E803D00701000000367100200C
:100D9400E803D00701000000347100201E00B80BE6
:100DA40001000000327100201E00F4010100000067
:100DB4003071002014006400010000003E71002026
:100DC4003200E803010000002E7100200000C8007A
:100DD400010000000271002000C801000171002020
:100DE4000050010000710020005A0100FE70002034
:100DF40002000000BC7E05087CF0050884F00508AC
:100E040036E200200100C4090000000034E20020A2
:100E14000100C4090000000032E200200100C409FE
:100E24000000000030E200200100C40900000000BE
:100E34002CE200200100C409000000002EE2002082
:100E44000100C409000000002AE200200100C409D6
:100E54000000000028E200200100C4090000000096
:100E6400C96E002000C80100C86E002000C801003F
:100E7400C66E00200100C80001000000C46E0020FE
:100E84003200307532000000C26E0020055A0500A1
:100E9400BF6E002000FF0100C16E002001000000B1
:100EA400A0060020BD6E002003000000549F05082A
:100EB400BE6E002000FF0100C06E00200100000093
:100EC400A0060020BC6E002003000000549F05080B
:100ED400A1F9010851F90108C87E050860710020D4
:100EE400EE02CA08010000005E71002000C8010083
:100EF400640000005D71002000C80100640000006F
:100F04005C710020020000008C7F0508B66E002092
:100F140080C1803E05000000B46E002080C1803E88
:100F240005000000AE6E002080C1803E0500000078
:100F3400AC6E002080C1803E05000000A76E00203A
:100F440000FF0100A06E00206400F4010100000015
:100F54009F6E002004000000987F05089E6E00200C
:100F640002000000AC7F05083F6F00200D00000068
:100F7400B87F05083C6F0020006401003A6F002030
:100F8400320010270A000000396F00200D00000015
:100F9400B87F0508386F00200D000000B87F0508F1
:100FA400376F002002000000F07F050800000000F9
:100FB40000000000FC7F0508F05800209CFF2C0175
:100FC40000000000A6740020E0150C1700000000CB
:100FD400A874002002000000348005086C71002011
:100FE4000100FF7F010000006B710020020000007F
:100FF40040800508416F0020030000005080050870
:10100400406F00200300000050800508E0700020BD
:101014000000E80301000000DE7000200000E80387
:1010240001000000DC7000200000E8030100000063
:10103400DA7000200000E80301000000D8700020EE
:101044000000E80301000000D67000200000E8035F
:1010540001000000D570002000140100D4700020AD
:101064000300000060800508EC7000200000F4011B
:1010740001000000EA7000200000F40101000000FB
:10108400E87000200000F40101000000E670002078
:101094000000F40101000000E47000200000803E24
:1010A40001000000E27000200000803E010000000A
:1010B4001571002019640100147100200200000061
:1010C4007080050812710020E803D0070A000000B0
:1010D40010710020006401000A0000000571002066
:1010E4000064010004710020006401000C71002000
:1010F400006401000A0000000B710020006401007C
:101104000A0000000A710020006401000A000000C7
:101114000F710020006401000A0000000E7100201D
:10112400006401000A0000000D7100200064010049
:101134000A0000000971002001FF01000A000000FC
:101144000871002001FF01000A000000077100205F
:1011540001FF01000A0000004A6F00200000F401B2
:1011640001000000486F00200000F40101000000AD
:10117400466F00200000F40101000000446F0020CD
:101184000000F40101000000426F00200000F4019F
:1011940001000000FD70002000640100FC700020CC
:1011A40000640100FB70002000640100FA7000205C
:1011B400FF080100F9700020016401001DF8010816
:1011C400E1F701087C800508F87000200064010044
:1011D400F67000201400E80301000000F470002001
:1011E400E80330750A000000F270002000C8010016
:1011F400F170002000C80100F070002000C8010058
:10120400EF700020006401000A0000002C7100202F
:101214000000D007010000002771002000C8010071
:101224002671002000C801002571002000C80100BB
:101234002A7100200000D007010000002471002062
:1012440000C801002371002000C8010022710020A1
:1012540000C80100287100200000D0070100000030
:101264002171002000C801002071002000C8010085
:101274001F71002000C801000000000051F50108A2
:10128400EC800508356F00203500000088810508D2
:10129400346F002000C80100326F0020E803D0073B
:1012A4000100000044414C524346343035000000F4
:1012B400BB6E002000030100BA6E00200003010091
:1012C4009DF4010861F40108608205081DF4010819
:1012D400D1F30108D0820508D9F401082D1A0208B7
:1012E40050830508B86E00200103010095FA010837
:1012F40069FA01084486050861F3010821F301082D
:10130400B486050867F50108E52802085087050832
:101314002516020800000000F8870508B51D02081C
:10132400F5FA010894880508B9F5010800000000E1
:101334001489050891F601083DF601087889050825
:1013440021F70108E5F60108148A050859F801088F
:10135400A1F80108948A0508037100200106010020
:1013640001F60108CDF50108908B05085DF7010829
:10137400911A0208008C0508D5F80108191B020807
:10138400E08C0508EE7000200103010021F501083E
:10139400F1F40108B48D0508C1FA01080000000049
:1013A400188E0508A1F30108FD1902087C8E0508B2
:1013B4000000000000000000088F050829F901085A
:1013C400911B0208888F05089A6E002088136F17F6
:1013D400010000009C6E002088136F1700000000BD
:1013E4006A4E00200000000000000000684E00204B
:1013F4000000000000000000664E00200000000015
:1014040000000000644E0020000000000000000006
:10141400624E00200000000000000000604E00202A
:10142400000000000000000028050020000000006B
:1014340000000000706E00200200000010910508FA
:10144400986E002088136F170100000030590020A7
:1014540088136F1700000000B5F2010800000000B7
:101464001C910508DA740020010000007091050841
:1014740032590020010000007C9105082859002001
:101484000200000084910508000000000000000034
:1014940090910508A1F20108000000002C920508B3
:1014A4000000000000000000809205080000000019
:1014B40000000000F09205082C590020E0150C17DC
:1014C4000000000000000000F07C00200800000084
:1014D40000000000E07C002008000000AC020608C8
:1014E400B8020608C4020608D0020608DC02060890
:1014F400E802060820000608802A0608882906084B
:10150400580206084C530608A8E00508A00206087D
:10151400A4020608A8020608F4020608F80206084F
:10152400FC020608F0270608000306081900C80094
:10153400F40120030100000000000100E0010000AC
:10154400FFFFFFFF0801FFFFFF0000000000803FD6
:10155400000000000000000000000000FFFFFFFF8B
:10156400FF0000007D000000FFFFFFFF0000803F40
:101574000000000000000000000000000000803FA8
:101584000000000000000000000000000000000057
:101594000000000000000000000000000000000047
:1015A400000000000000803F000000000000000078
:1015B40000000000010000000000803F4C4F0608BE
:1015C4000000080205030300544F06080100080246
:1015D40005040300881206080200FE01011003003E
:1015E4009CF4050803001402000300005C4F060885
:1015F40004001F0201000800644F060805001F02D2
:1016040001010800FFFF0000FFFFFFFF08000000CA
:101614008D8501088985010885850108798501087A
:1016240075850108818501087D8501080100000098
:101634000060024010600240000000000000000052
:10164400000B00000000000000000000000000008B
:101654000060024028600240010000000000000019
:10166400060C000000000000000000000000000064
:1016740000600240406002400200000000000000E0
:10168400100D000000000000000000000000000039
:1016940000600240586002400300000000000000A7
:1016A400160E000000000000000000000000000012
:1016B400006002407060024004000000000000006E
:1016C400200F0000000000000000000000000000E7
:1016D4000060024088600240050000000000000035
:1016E40026100000000000000000000000000000C0
:1016F40000600240A06002400600000000000000FC
:101704003011000000000000000000000000000094
:1017140000600240B86002400700000000000000C2
:10172400362F000000000000000000000000000050
:101734000064024010640240000000000000000049
:10174400003800000000000000000000000000005D
:101754000064024028640240010000000000000010
:101764000639000000000000000000000000000036
:1017740000640240406402400200000000000000D7
:10178400103A00000000000000000000000000000B
:10179400006402405864024003000000000000009E
:1017A400163B0000000000000000000000000000E4
:1017B4000064024070640240040000000000000065
:1017C400203C0000000000000000000000000000B9
:1017D400006402408864024005000000000000002C
:1017E400264400000000000000000000000000008B
:1017F40000640240A06402400600000000000000F3
:10180400304500000000000000000000000000005F
:1018140000640240B86402400700000000000000B9
:101824003646000000000000000000000000000038
:10183400E84F0608EC0A060800000000858D02083F
:10184400A086010004000000000000000000000069
:101854000000000000000000000000000000000084
:101864000000000000000000000000000000000074
:10187400E84F06086053060800000000490C010800
:10188400E803000004000000000000000000000065
:101894000000000000000000000000000000000044
:1018A4000000000000000000000000000000000034
:1018B400D0F705086C2806080000000081730308AF
:1018C4007D00000006000000000000000000000091
:1018D4000000000000000000000000000000000004
:1018E40000000000000000000000000000000000F4
:1018F400384F06080000000000000000ED6F0108EA
:10190400E8030000030000000000000000000000E5
:1019140000000000000000000000000000000000C3
:1019240000000000000000000000000000000000B3
:10193400685306080000000000000000F16104087C
:101944001027000003000000000000000000000059
:101954000000000000000000000000000000000083
:101964000000000000000000000000000000000073
:10197400584F060800000000C1130208CD5E01089C
:101984005F76000005000000000000000000000079
:101994000000000000000000000000000000000043
:1019A4000000000000000000000000000000000033
:1019B400EC5106080000000000000000457C01080E
:1019C40010270000010000000000000000000000DB
:1019D4000000000000000000000000000000000003
:1019E40000000000000000000000000000000000F3
:1019F4007453060800000000000000004D0C0108AC
:101A0400E8030000050000000000000000000000E2
:101A140000000000000000000000000000000000C2
:101A240000000000000000000000000000000000B2
:101A340080530608000000000000000051950208D1
:101A4400204E000003000000000000000000000021
:101A54000000000000000000000000000000000082
:101A64000000000000000000000000000000000072
:101A7400905306080000000000000000559302087F
:101A8400204E0000030000000000000000000000E1
:101A94000000000000000000000000000000000042
:101AA4000000000000000000000000000000000032
:101AB400A053060800000000000000007D74010827
:101AC400400D0300030000000000000000000000BF
:101AD4000000000000000000000000000000000002
:101AE40000000000000000000000000000000000F2
:101AF400280106080000000000000000396D0108FC
:101B04001027000001000000000000000000000099
:101B140000000000000000000000000000000000C1
:101B240000000000000000000000000000000000B1
:101B3400300806080000000000000000E912030855
:101B44001027000003000000000000000000000057
:101B54000000000000000000000000000000000081
:101B64000000000000000000000000000000000071
:101B7400B05306080000000000000000F97C0208D1
:101B8400A086010001000000000000000000000029
:101B94000000000000000000000000000000000041
:101BA4000000000000000000000000000000000031
:101BB40088F305080000000000000000190B01086C
:101BC400A861000001000000000000000000000007
:101BD4000000000000000000000000000000000001
:101BE40000000000000000000000000000000000F1
:101BF400B853060800000000000000001154030858
:101C0400A0860100010000000000000000000000A8
:101C140000000000000000000000000000000000C0
:101C240000000000000000000000000000000000B0
:101C34005001060800000000000000006938010897
:101C4400A00F0000010000000000000000000000E0
:101C54000000000000000000000000000000000080
:101C64000000000000000000000000000000000070
:101C7400C45306080000000000000000B943030834
:101C84001027000001000000000000000000000018
:101C94000000000000000000000000000000000040
:101CA4000000000000000000000000000000000030
:101CB40020FF05080000000000000000553C030858
:101CC4001A410000010000000000000000000000B4
:101CD4000000000000000000000000000000000000
:101CE40000000000000000000000000000000000F0
:101CF40048F305080000000000000000B98E010848
:101D04001027000001000000000000000000000097
:101D140000000000000000000000000000000000BF
:101D240000000000000000000000000000000000AF
:101D3400F80A060800000000000000006D300208E8
:101D44001A41000001000000000000000000000033
:101D5400000000000000000000000000000000007F
:101D6400000000000000000000000000000000006F
:101D7400D05306080000000000000000D9940108B8
:101D8400400D0300000000000000000000000000FF
:101D9400000000000000000000000000000000003F
:101DA400000000000000000000000000000000002F
:101DB400D85306080000000000000000D50A0108FE
:101DC400400D0300000000000000000000000000BF
:101DD40000000000000000000000000000000000FF
:101DE40000000000000000000000000000000000EF
:101DF400E05306080000000000000000354E030810
:101E040050C30000030000000000000000000000B8
:101E140000000000000000000000000000000000BE
:101E240000000000000000000000000000000000AE
:101E3400EC5306080000000000000000C9920208EC
:101E440040420F00000000000000000000000000FD
:101E5400000000000000000000000000000000007E
:101E6400000000000000000000000000000000006E
:101E7400F853060800000000000000003178010853
:101E840050C300000000000000000000000000003B
:101E9400000000000000000000000000000000003E
:101EA400000000000000000000000000000000002E
:041EB4000000803F6B
:1080000003685A1C02601970704700BF2DE9F047E1
:10801000089C2578002B804689460CBF4FF0200A2B
:108020004FF0300A661C25B3002A26DD334601E0F6
:10803000024698B113F8011B501E0029F8D1971E73
:1080400060B13D46013D51464046C8476B1C002B80
:10805000F8DC257827EAE770013045B1041B294692
:108060004046C847301916F8015B002DF7D1BDE82E
:10807000F087002A03DC2846F9E70020EEE7571EC8
:10808000DFE700BF2DE9F04714461D4606464FF4D2
:108090007A720023204629464CF00AFB4D4BDFF84C
:1080A00048814D4A4D4F034488FB03101844D917AB
:1080B00082FB032CC1EB601088FB002887FB0327A1
:1080C0009C44474AC1EBEC2CC0EB001E82FB0C2900
:1080D000A3EB8E0E1F44434A86F806E0C1EB274708
:1080E0004FEAEC7E08EB000ACEEBA90E82FB07827A
:1080F0004FEAE0780EEB4E0EC8EB6A18ACEBCE0CF4
:10810000C8EB0818DFF8E4E086F804C0A0EB8800AC
:1081100070718EFB0303F817C0EBE21240F2B5500A
:1081200000FB1272C1EBE353B2F5896F4FEA83078C
:108130003CDA40F2DA239A4242DCB2F5B77FB4BFB0
:108140004FF0000E4FF0010E4FEA4E09DFF8A0800D
:1081500009EB0E0308EBC3031FFA8EFCD88A09EB68
:108160000E0108EBC10116310B2301E031F8020DBD
:10817000904218DD013BF9D1CE44012338F83E008E
:10818000B37007F5FA670132121ABC44F270A6F810
:1081900000C0204629464FF47A7200234CF088FA3A
:1081A0003281BDE8F0870133DBB2E9E74FF0030C21
:1081B000E64640F29650DFF838804FF00609CEE7E9
:1081C0004FF0020CDFF82880E64640F229404FF0DD
:1081D0000409C4E780BC92C7C5B3A29107452EC26B
:1081E000ABAAAA2A73B06D1689888888792D0311E5
:1081F000E06205080028F0B403DA2D230B7040423A
:108200000131092804464FF0010307DD03EB830326
:108210005B00B0FBF3F2092AF8D883B10F48A0FB4A
:108220000326B4FBF3F2092A02F1570C02F13007DE
:1082300009DD03FB1244F30801F801CBEFD1002361
:108240000B70F0BC704703FB1244F30801F8017B8C
:10825000E5D100230B70F0BC704700BFCDCCCCCC77
:10826000884270B44FF0010442D301FB04F4B0FB28
:10827000F4F58D42F9D2ECB142BB092D04FB150097
:1082800005F1570605F130020EDDB4FBF1F403F8F9
:10829000016B7CB1B0FBF4F5092D04FB150005F171
:1082A000570605F13002F0DCB4FBF1F403F8012BC2
:1082B000002CEFD100221A7070BC704703F8016BDC
:1082C000B4FBF1F4002CF5D0B0FBF4F5092D04FB60
:1082D000150005F1370605F13002EFDCB4FBF1F4CF
:1082E00003F8012B002CEFD100221A7070BC7047EC
:1082F0000546002AEAD1C0E790ED057A90ED004AE4
:10830000D0ED066AD0ED014AD0ED047A90ED035A23
:10831000D0ED025AA4EE007AB0EE406AB0EE470A01
:10832000B0EE667AA4EE867A67EEC07AA5EE407A61
:10833000E5EE867A80ED057AC0ED067A704700BFDB
:10834000D0ED057A90ED013AD0ED003AD0ED064A35
:1083500090ED024A90ED077A90ED035A90ED086A8D
:10836000D0ED045AC0ED067AF0EE406A27EE830A9B
:10837000C0ED056AA3EEA60A80ED087AA4EE240AF1
:10838000A5EE470AA5EEC60A80ED070A704700BFB2
:10839000D0ED007A90ED017A30EE670AE7EE007AD0
:1083A000B0EE670AC0ED007A704700BF704700BFAB
:1083B00030B400230221012214253424C5708471B5
:1083C0000370C3728373C3734170C1714172827051
:1083D0000272827230BC7047002306214FF47A7219
:1083E0000170C0E901230373704700BF30B432232A
:1083F000312210254FF47F44FF2143704271012345
:108400000022C5700482817403720370037183704B
:1084100042818281C28130BC704700BF2DE9F04F9C
:108420003149324B83B001F5B07B01902F274FF0DB
:1084300000092F481022012603E0203098420BD07B
:1084400002799742F9D102680C68A24209D0203023
:10845000984206F10106F3D1203159453AD00F79FF
:10846000E7E744794D79A542F1D19446019A214834
:1084700009EB490502EB050A57558AF8016000F53A
:1084800072751D4E624603E0A8421AD050F82C6F58
:10849000B242F9D10679A642F6D1CF6806464FF02E
:1084A000000C96468046F268BA4216D00CF1010CD8
:1084B000BCF1030F06F10C06F5D14046A842724606
:1084C000E4D14FF0FF3C203159458AF802C009F150
:1084D0000109C4D103B0BDE8F08F08693269824256
:1084E000E4D14FFA8CFCEEE764A70508B4D4050884
:1084F000F4CA0508B4D4050800000140144BFF225B
:10850000F0B54FF0FF34C2700271027242724273D2
:10851000827303F10C0EA44617271626232500228A
:1085200002EB820281189E4585544E708F7081F84F
:1085300003C00C710AD093F90620DD791E7A5F7AA8
:1085400093F90AC093F90B400633E9E7F0BD00BF89
:108550004063050810B41F21012403220023047086
:1085600041708270C3705DF8044B704770B403466D
:1085700000F11001FF221A705A7002338B42FAD1B7
:108580000E4B00224FF0FF3103F10C0600EB4205C9
:108590000C469E4200F8124069700CD093F90440DA
:1085A00093F9051013F8032F00EB42059E4200F8E3
:1085B00012406970F2D170BC704700BF5463050867
:1085C00030B41D6995420AD314460A4621448D42AF
:1085D000996938BF2A1B214430BC4CF007BB30BC22
:1085E000704700BF0020704701207047012070478E
:1085F000002070474FF40070024B10609B680B60C6
:108600000020704720C50020013A30B4D2B28C1C43
:1086100004EB42040025020F092AD3B203F1300211
:108620008ABF37330A700B704D7002318C424FEAAB
:108630000010F0D130BC70470B4A0C4B10681B681F
:108640001A22C0180A8001D10948704710B5094B99
:1086500009491C680822FFF7D7FF20460422074972
:10866000FFF7D2FF024810BDE8F7FF1FECF7FF1F2E
:1086700088010020EAF7FF1F8A0100209A010020EC
:1086800004230B8000487047A401002012230B80B4
:1086900000487047A80100202C220223027043707A
:1086A000704700BF08307047704700BF8161704756
:1086B0004378007840EA032010FB01F04FF480710A
:1086C00090FBF1F000F30F0000B270474FF400632D
:1086D000038370474FF4006303837047012380F8DE
:1086E00050307047F0B4037C456902681F2B37D9BE
:1086F000203B2021546899400C4223D010249C40F8
:10870000D160D4605168D940CE074ED4EFF31183C5
:10871000502282F31288EA6B1168C90709D45468A1
:10872000002C52D1D5E909618E4243D1012285F84E
:108730006020DBB283F31188037C02681F2B19468B
:1087400014D9203B082150689940084200D0D160DC
:108750000421506801FA03F3184223D1F0BC70479A
:10876000202416689C4026420FD119460823106821
:108770008B40184200D093600423106803FA01F183
:108780000842EBD09160F0BC704710219940946092
:1087900091601168D940CC07B8D5012101FA03F3E3
:1087A0009360B3E7D360F0BC7047012101FA03F393
:1087B000D360ABE7AF690F44D7600ED82E69711A4A
:1087C0005160AC62002185F86010116841F0010130
:1087D000DBB2116083F31188AEE7711A5160AE62AB
:1087E000F0E700BFF0B4B34BB3491A780B789A4264
:1087F00040F00781B14B1A78002A68D0B04B197845
:10880000B04B002965D11868B3F8305141628489B2
:10881000012A44EA05048481A3F8301157D0D3F823
:108820003401B3F8645241628489022A44EA05049F
:108830008481A3F864124AD0D3F86802B3F898533D
:1088400041628489032A44EA05048481A3F89813C9
:108850003DD0D3F89C03B3F8CC5441628489042AF8
:1088600044EA05048481A3F8CC1430D0D3F8D004B2
:10887000B3F8005641628489052A44EA05048481DC
:10888000A3F8001623D0D3F80406B3F83457416296
:108890008489062A44EA05048481A3F8341716D093
:1088A000D3F83807B3F8685841628489072A44EA44
:1088B00005048481A3F8681809D0D3F86C28B3F8AC
:1088C0009C495162908920439081A3F89C19F0BC87
:1088D00070475C68198961602568186845F0010572
:1088E00040F20D312560A0F848108489012A44F433
:1088F00080748481EBD0D3F83841B3F83C51D3F87D
:1089000034016560256845F001052560A0F8481030
:108910008489022A44F480748481D8D0D3F86C42CC
:10892000B3F87052D3F868026560256845F0010518
:108930002560A0F848108489032A44F48074848157
:10894000C5D0D3F8A043B3F8A453D3F89C03656013
:10895000256845F001052560A0F848108489042A9F
:1089600044F480748481B2D0D3F8D444B3F8D8549A
:10897000D3F8D0046560256845F001052560A0F8AE
:1089800048108489052A44F4807484819FD0D3F8E8
:108990000846B3F80C56D3F804066560256845F020
:1089A00001052560A0F848108489062A44F48074E3
:1089B00084818CD0D3F83C47B3F84057D3F83807BC
:1089C0006560256845F001052560A0F84810848998
:1089D000072A44F4807484813FF479AFD3F8702877
:1089E000B3F87408D3F86C385060106840F0010098
:1089F0001060A3F848109A8942F480729A81F0BC02
:108A000070475C00E618304D15F83660032E3FF6CF
:108A1000F1AEDFE806F05D261C02E01805EBC000B1
:108A20004468661E012C46603FF651AF013303F0E7
:108A30000303D8B2824208703FF4DCAE03EB430379
:108A4000DB00EA1802200021E85451603FE7E118FA
:108A500005EBC1014868461E01284E603FF637AF5E
:108A60000DE0E118C90068184668771E012E4760BE
:108A70003FF62DAF02274FF0FF366F544660E618E1
:108A8000F600AF191148397B00680139C9B2397352
:108A9000002940D04FF47A722344B2FBF0F200FB7D
:108AA00002F0B0F57A7F05EBC30518BF01326A60AA
:108AB000A0E600BFCC9F0020CD9F0020A432001074
:108AC000A03200106CD60020D09F00200C0E002099
:108AD00070B11D49012600220F890132002F18BFF5
:108AE0000026904201F5B271F6D1002E3FF482AE1D
:108AF000164A126842F21076E018B6FBF2F102FB59
:108B00001162012605F8306002B13144234405EBBF
:108B1000C30569606EE6BF68B7FBF0F100FB11703A
:108B20000327AF5500B101311C44013305EBC405E7
:108B300003F00303934269603FF45CAE00293FF405
:108B400059AE0139696055E64CCB00200C0E00206F
:108B500010B5027C01681F2A4FF020030ED94C6823
:108B6000203A93401C4208D00B4A406800241470FD
:108B7000026822F001020260CB6010BD0C689340D5
:108B80001C42FAD0044A406800241470026822F0A3
:108B9000010202608B60F0E72B8A00202DE9F04192
:108BA000C40023189B00B749CA585268958AADB2D1
:108BB000EFB2FE070B4461D4BE0737D5BFF35F8F1A
:108BC0001D7EEDB2012D00F0BB80AF4E138BBFF3C5
:108BD0005F8F231801EB83031D7E022D00F0CE80F2
:108BE000231801EB83031D7E032D05D19B7E1BB152
:108BF0007378002B40F01A81938896F900C043F4F3
:108C000080639380231801EB83031B7E013363454C
:108C10000AD1B37800257570002B40F08A8020447B
:108C200001EB800000234375BDE8F081964E17F0FC
:108C3000040F96F900C04DD117F0400700F0B28044
:108C4000178A1D6AFFB205F80C705FFA8CF56F1C6D
:108C500093F818E07BB2DF1CBE4533709C4600F0F1
:108C60000981271801EB87073F7EBB42CAD105F176
:108C7000020C4FFA8CFC86F800C0C3E71588824EC0
:108C800025F400652D042D0C1580158845F48065AC
:108C900015809D7E00273770002D3DD07578002D02
:108CA00037D0231801EB830301251B7E7570022B3F
:108CB00003D1138843F400631380231801EB83036B
:108CC0009B7D43F001031382204401EB8000037E6F
:108CD000BDE8F0819F7E75784FF0010E86F802E0C6
:108CE000002F5CD0002D78D1231801EB83035B7E2D
:108CF000002B00F0A48013880CF1010C4FFA8CFCBF
:108D000043F4007386F800C013801388DF05FCD499
:108D100078E7DB7DFF2BC4D0231801EB83039D7D17
:108D200005F0FE051582DB7DFF2BCDD0FF233370D0
:108D3000CAE7938823F440731B041B0C93806EE7EF
:108D40009B7E514E002B3FF441AF7378002B3FF4D4
:108D50003DAF138823F480631B041B0C1380BFF307
:108D60005F8F138B1388B57043F40073138093885F
:108D700096F900C043F48063938043E79B7E002B09
:108D80003FF42EAF7378002B3FF42AAF138896F987
:108D900000C023F480631B041B0C138016E0002D1D
:108DA000A2D0A8E72D067FF52DAFBCF1FF3F6DD017
:108DB000DD6915F80C5015820CF1010C1D7E4FFA7F
:108DC0008CF39D429C4633707FF41CAF938823F450
:108DD00080631B041B0C938014E71F7ED3F8208054
:108DE0005FFA8CF5AE44022F4FFA8EFE17882DD90C
:108DF00027F480673F043F0C1780178AFFB208F8FA
:108E00000C701788D3F820C047F400731380138ABE
:108E1000DBB20CF80E30938805F1020C4FFA8CFC93
:108E200043F4806386F800C093806EE7938896F9D8
:108E300000C023F480631B041B0C9380E2E61388BC
:108E4000012543F48073138075705EE747F4007763
:108E50001780178AFFB208F80C70178AD3F82080A1
:108E600005F1030C4FFA8CFCFBB286F800C008F841
:108E70000E304AE7978827F480673F043F0C9780BD
:108E8000EFE600BF287C002060170020DD7D158202
:108E90009D7E37701DB91B7E002B7FF415AF938824
:108EA00023F480631B041B0C93800DE743F03AB955
:108EB00038B51D4B1B78044600F1250593B10422FB
:108EC0001A4920304DF0F6F92846142218494DF081
:108ED000F1F9012384F83A30164B1B7873B984F802
:108EE0003B3038BD2846142213494DF0E3F90123E5
:108EF00084F83A300F4B1B78002BF0D00F4B1868DA
:108F000059689A68DD68E56020606160A260DD698B
:108F1000186959699A69A2610123E561206161615B
:108F200084F83B3038BD00BF057C0020C87B0020A2
:108F3000B07B0020067C0020A0E00508D07B00204C
:108F4000014B18680AF08CBC5043002010B4292152
:108F5000282401220023047041708270C3705DF8E0
:108F6000044B70472DE9F84FDDE90A64894617463E
:108F700000212022984605464DF05EF95EB1D6E903
:108F800000327189EB81C3F30F432B82C2F30F438D
:108F9000EA822B83698248464AF094FE17F0100B50
:108FA00010D1431E70B119F803202E2A18BF09EB07
:108FB000030104D14AE011F8016D2E2E3ED013F1C9
:108FC000FF33F8D208280246CA46A8BF08224FF04D
:108FD000000B4FF020336B602B60C5F8073049461B
:108FE000284605F108064BF001FE5A465146304628
:108FF0004BF0FCFD6B1EE81D13F8012FA2F161017F
:1090000019299CBF203A1A708342F5D105F10B0152
:1090100016F8013BA3F16102192A9CBF203B06F818
:10902000013CB142F4D11823C8F30F42EF722B7305
:10903000A5F81A80AA82EC61BDE8F88FC01A00F189
:10904000FF3BBBF1030FA8BF4FF0030B082B03F14D
:10905000010AA8BF0823CA441A46BAE738B52E2227
:1090600000214DF0E9F80346642440F2DC5040F260
:109070001A4140F26C7240F202251C74588213248B
:1090800019209982DA8240F2753140F643021D833D
:109090009C760E250A241877D9831E2002211A8473
:1090A000012283F82C00197283F82A1083F82250C9
:1090B00083F82B409A7383F8252083F829201946DA
:1090C0000248BDE838401FF035BC00BFACE00508E1
:1090D00010B500210446012009F016FB207010BDD8
:1090E00038B500240472451EE1B2022009F00CFBE1
:1090F0000134082C05F8010FF6D138BD38B500242D
:10910000054604802146284601342CF081FB082CBA
:10911000F8D1002185F8E210A5F8E410A5F8E610D2
:10912000A5F8E810A5F8EA10A5F8EC10A5F8EE10DF
:10913000A5F8F010A5F8F2102846BDE838402CF04C
:1091400029BB00BF2DE9F04F002087B00C461D461B
:10915000012192460CF06EFE002D63D005EB0A0350
:10916000DFF8D094DFF8D0B4039355461CE0002D0F
:1091700000F0C581D9F81430AB4264D0D9F8103072
:10918000AB4200F09780D9E90631AB4252D8A942F0
:1091900000F26F81691A204647F0CAFA039B013535
:1091A0009D4204F500743DD0D9F82060AE42DED86F
:1091B000D9F83080AE1B4FEAD60AD8F830300AF121
:1091C000020A9A4506F0070603D3D8F838309A45C4
:1091D00009D94146504647F079FA8046002800F008
:1091E0004D81C9F8300098F80430002B40F0E2803F
:1091F000D8F82870002F00F0DF81D8F83030D8F888
:109200000C20AAEB030A06EBCA0A4346204602EBEF
:109210004A224FF40071B847039B01359D4204F583
:109220000074C1D1002108460CF004FE002007B0F4
:10923000BDE8F08FA942ADD94FF40072002120465D
:109240004CF0FAFFAAE75222612041230026227047
:109250006270A070722284F8E70184F8E631D9F8D0
:109260002800E3704FF0FF33314684F8E42184F89E
:10927000E521C4F8E8014FF4F07284F8EC3184F889
:10928000ED3184F8EE3184F8EF31201D4CF0D4FF3D
:1092900055216FF05502C4F8F061C4F8F461C4F8C8
:1092A000F86184F8FC6184F8FD6184F8FE1184F8AB
:1092B000FF2173E74FF40072002120464CF0BCFF01
:1092C000D44BD54F03CBEB23022223704FF0080C75
:1092D0009026F8234FF0580EC4F80300227484F847
:1092E0000DC0C4F8071084F801E0A6706375D9F8C2
:1092F0001010D9F80830D9F81C602273591A21626D
:109300004FF0FF3100233F20A1763E21A273E3728C
:10931000E3736374A374E3742375A375E3756376D1
:10932000E3766377A377E3772076217784F82C20A0
:1093300007CFD9F8187084F82830F61B84F8293044
:1093400084F82A3084F82B3084F82D3084F82E30BD
:1093500084F82F3084F8313084F8323084F8333098
:1093600080236662C4F8470004F1470684F8403061
:1093700029209423A94F84F846C084F8420084F839
:1093800043300E200D234FF0010C84F8440084F884
:10939000453084F830C0716003CF33465527AA2684
:1093A0009A60C4F85200C4F8561084F8FE7184F82C
:1093B000FF61F3E64FF40072002120464CF03CFFC1
:1093C000D8F84030002E61D104F12007002B77D06F
:1093D000D8F8303092491122CDE900662046FFF7D7
:1093E000C1FDD8F840301A6C04F1400A002A79D047
:1093F0001B6B8C49CDE9006638461122FFF7B2FDA0
:10940000D8F84460002E3FF4C9AE4FF4E078CDE9BF
:1094100004450CE00024CDE900C4FFF7A3FDB66CC1
:10942000BA46A8F120080EB3B8F11F0F1ED9346850
:10943000356B96F804E011222B46214650460AF17E
:10944000200706F11C0CBEF1000FE3D172793369DD
:10945000019342F021022B46CDF800C0FFF782FDB8
:10946000B66CBA46A8F12008002EDDD1DDE904452E
:1094700094E6E91A204647F05BF98FE6231F04F5CE
:10948000FE7243F804BF9A42FBD187E6002BD8F85E
:1094900044200CBF01230223C3EB0613002A3FF430
:1094A0007DAE966C013B002E3FF478AE013BB66C6E
:1094B000F9D1002E3FF472AEA2464FF40078A6E731
:1094C000CDE900663346D9F80C1008222046FFF794
:1094D00049FDD8F84460002E3FF460AEBA464FF420
:1094E000F07894E7CDE900663346384611224D49BD
:1094F000FFF738FDD8F84460002E86D14EE64FF4D1
:109500000072294620464CF097FE80220C2384F8F6
:10951000BE2184F8C231D9F81000434BD9F8086055
:1095200084F8B85183FB0032C117C1EB2232B2F587
:10953000806F84F8B95184F8BA5184F8BB5184F82B
:10954000BC5184F8BD51C4F8C601C4F8CA6142DBFD
:10955000FF2384F8BF3184F8C13184F8C031324B25
:10956000711E83FB0132CE17C6EB2232B2F5806F3B
:1095700029DA2E4B84F8C52183FB01030B442C48C8
:10958000C6EB6313C3EB831680FB0370891B18447F
:10959000DE17921022F03F020131C6EBE0100A43C1
:1095A000034484F8C42184F8C3315522AA2384F8E3
:1095B000FE2184F8FF31F1E539464FF40072204670
:1095C0004CF03AFEEAE5FF2384F8C33184F8C53154
:1095D00084F8C431E9E7154B84F8C12183FB00739B
:1095E0000344134FC1EB631387FB0317C3EB831CC7
:1095F0009110A0EB0C02F818DF1721F03F010132A7
:10960000C7EBE0100A43034484F8C02184F8BF315B
:10961000A5E700BFC0E00508CCE00508DCE00508D0
:10962000B8E00508BCE0050897554541832008824D
:109630008180808020C50020DEADBEEF08B501200E
:1096400012F0F6F9174A936803F00C03042B1ED0AE
:10965000082B18D151685368490203F03F0319D40D
:1096600052681148B0FBF3F0C2F3881300FB03F01B
:109670000C4B0E4A5B68C3F3014301335B00B0FB44
:10968000F3F0106008BD094B074A1A6008BD074B8C
:10969000186008BDB0FBF3F05368C3F3881300FBF8
:1096A00003F0E5E7003802400024F40008B400208D
:1096B00010B5044C04480A46214610F0A5FE204689
:1096C00010BD00BF64170020E8E0050810B5044C89
:1096D00004480A46214610F097FE204610BD00BF00
:1096E00064170020F8E0050810B5044C04480A4649
:1096F000214610F089FE204610BD00BF64170020EF
:1097000004E105080A4608B5054920B1054810F0EE
:109710007BFE034808BD044810F076FE004808BDF3
:109720006417002030E1050818E1050808B58389B1
:1097300040F2E93300E0A3B10289013B12F0020FCD
:109740009BB2F8D089B2818140F2E93300E043B1A5
:109750000289013B12F0010F9BB2F8D08089C0B2A0
:1097600008BD42F0D9FAC0B208BD00BF2DE9F04FE4
:1097700087B0A94A02904068038823F040031B0485
:109780001B0C0380038823F038031B0490424FEA2C
:10979000134300F03F8102F5806290420CBF3022FB
:1097A000382213430380029B02889B6842F04002E8
:1097B000028013B11A689B885383838940F2E9338E
:1097C00002E0002B00F090810289013B12F0020FB1
:1097D0009BB2F6D06B23838140F2E93302E0002B89
:1097E00000F082810289013B12F0010F9BB2F6D09A
:1097F0008389838940F2E93302E0002B00F0718114
:109800000289013B12F0020F9BB2F6D080238381C4
:1098100040F2E93302E0002B00F063810289013B52
:1098200012F0010F9BB2F6D08389029B9B6813B1A3
:109830001A689B8813830623784CDFF8EC81DFF8E5
:10984000ECA1774D774E04939623DFF8E4C10193A2
:109850004FF0100EDAF80430C3F30803002B40F089
:10986000B280EFF31183002B40F0AD802068AA682E
:1098700023689842FAD133689A42F7D8D8F8007032
:109880004FF47A7101FB07F39B1AB3FBF7F301FB6B
:1098900000304FF47A774FF00109DAF80430C3F35F
:1098A0000803002B70D1EFF31183002B6CD12368D8
:1098B000A96822689342FAD132689142F7D8D8F861
:1098C000002007FB02FBABEB0101B1FBF2F107FB50
:1098D00003131B1AB3F57A7FDFD3019B013B01937E
:1098E000B8D1029B9B6813B11A689B885383029B73
:1098F000586840F2E933828902E0002B00F085804D
:109900000289013B12F0020F9BB2F6D0F52383814E
:1099100040F2E93301E0002B77D00289013B12F0DD
:10992000010F9BB2F7D08389838940F2E93301E0CC
:10993000002B67D00289013B12F0020F9BB2F7D0D7
:10994000FF23838140F2E93301E0002B5AD00289E2
:10995000013B12F0010F9BB2F7D08389DBB2039376
:10996000029B9A6812B1136891881983039B682B34
:1099700060D0049B013B13F0FF0304937FF464AFBA
:10998000184607B0BDE8F08FEFF311818EF312880F
:10999000D5F808B02B68DB0344BFCCF80090D5F8AD
:1099A00008B02368DCF80020C9B281F31188D8F828
:1099B0000010134407FB01F2A2EB0B02B2FBF1F221
:1099C00007FB032385E7EFF311838EF31288AF685B
:1099D0002A68D20303D50122CCF80020AF682068A2
:1099E000DCF80090DBB283F31188D8F800104FF454
:1099F0007A72484402FB01F3DB1BB3FBF1F302FB79
:109A0000003046E742F088F9AAE742F085F9029B68
:109A1000586889E73022C4E60038004078BE00204C
:109A200010E000E080BE00207CBE002000ED00E0E1
:109A300074BE002012B1136892885A83029B586842
:109A400040F2E933828901E0002B45D00289013BD5
:109A500012F0020F9BB2F7D08C23838140F2E933DE
:109A600001E0002B38D00289013B12F0010F9BB2BC
:109A7000F7D08389838940F2E9330289013B12F0F0
:109A8000020F9BB215D1002BF7D142F045F9029B92
:109A90009B6813B11A689B881383059B142B04D30E
:109AA000182B17D9543B062B14D9002007B0BDE85A
:109AB000F08FFF23838140F2E93301E0002BE4D0F3
:109AC0000289013B12F0010F9BB2F7D08389DBB210
:109AD0000593DCE7032054E742F01EF9029B586827
:109AE000C8E742F019F9A0E642F016F9029B58685F
:109AF0007FE600BF2DE9F04FB04C436894F8032196
:109B000085B00190002A00F03A811A88AC4922F011
:109B100040021204120C1A801A8822F03802120431
:109B20008B424FEA124200F0288101F580618B429E
:109B30000CBF302138210A431A801A880198A14CA1
:109B4000A14FDFF890A2A14DA14E42F040021A8031
:109B50006B21802242F002F9152303939623DFF84C
:109B600078E200934FF01008DAF80430C3F30803EA
:109B7000002B40F0D180EFF31183002B40F0CC801C
:109B80002068AA6823689842FAD133689A42F7D8C5
:109B9000D7F800C04FF47A7101FB0CF39B1AB3FBAA
:109BA000FCF301FB00304FF47A7C4FF00109DAF846
:109BB0000430C3F30803002B40F09080EFF31183CF
:109BC000002B40F08B802368A96822689342FAD169
:109BD00032689142F7D83A680CFB02FBABEB01010B
:109BE000B1FBF2F10CFB03131B1AB3F57A7FDED342
:109BF000009B013B0093B7D1019B9B6813B11A688E
:109C00009B885383019B586840F2E933828902E0C4
:109C1000002B00F0AD800289013B12F0020F9BB2D5
:109C2000F6D0F523838140F2E93302E0002B00F007
:109C30009F800289013B12F0010F9BB2F6D083890D
:109C4000838940F2E93302E0002B00F0868002892C
:109C5000013B12F0020F9BB2F6D0FF23838140F24A
:109C6000E93301E0002B78D00289013B12F0010FAB
:109C70009BB2F7D08389DBB20293019B9B6813B13F
:109C80001A689B881383029B982B00F0B08069D9D7
:109C9000AC2B65D0AF2B40F0A1800920019B484937
:109CA0005B681A8822F040021204120C1A801A888B
:109CB00022F0380212048B424FEA124256D001F5CC
:109CC00080618B420CBF082110210A431A801A8838
:109CD00042F040021A8005B0BDE8F08FEFF3118129
:109CE00088F31288D5F808B02B68DB0344BFCEF8A0
:109CF0000090D5F808B02368DEF80020C9B281F3DF
:109D00001188396813440CFB01F2A2EB0B02B2FB81
:109D1000F1F20CFB032367E7EFF3118388F312885A
:109D2000D5F808C02A68D20304D50122CEF8002055
:109D3000D5F808C02068DEF80090DBB283F3118804
:109D400039684FF47A72484402FB01F3A3EB0C0329
:109D5000B3FBF1F302FB003025E741F0DDFF8CE7B8
:109D600007209BE7122B39D1082097E70821ACE7A1
:109D700041F0D2FF019B586862E73021DBE61A8888
:109D80000F4922F040021204120C1A801A8822F0A5
:109D9000380212048B424FEA12422AD001F5806148
:109DA0008B420CBF082110210A431A801A88012116
:109DB00042F040021A8084F80311A6E660170020E2
:109DC0000038004078BE00207CBE002010E000E09B
:109DD00080BE002000ED00E074BE0020039B013B2C
:109DE00013F0FF0303937FF4B9AE039873E70B20DE
:109DF00054E70821D8E700BFF0B5876983B006466D
:109E000017B13B68BA885A837069DFF8A8E0838984
:109E1000C3244FF47A734FF0060C6D464FF6FF7172
:109E20000EF1010E03E0013B9BB28B4220D0028970
:109E30009207F8D5A3B283814FF47A7302E0A3B2FC
:109E40008B4215D00289D20703F1FF34F7D58289FE
:109E500092B20DB12A700135BCF1000F0BD00CF19C
:109E6000FF3CFF24BEF1000FE1D09EF80040D7E791
:109E700041F052FFB76917B13B68BA881A839DF861
:109E800005009DF801509DF802109DF803409DF8D3
:109E900004209DF8063041EA052143EA002342EA06
:109EA00004220120A6F85010A6F85220A6F854303B
:109EB00003B0F0BD6463050810B500F10C04002286
:109EC0002121204642F096F8FC222021204642F033
:109ED00091F840222421204642F08CF80C222321C4
:109EE000204642F087F800222221204642F082F8E4
:109EF000642009F015FA012010BD10B500F10C0422
:109F000001220B21204642F075F820B11D220921C3
:109F1000204642F06FF800F0010010BD10B500F1CE
:109F20000C0470220021204642F064F82022012116
:109F3000204642F05FF800220221204642F05AF803
:109F4000642009F0EDF9012010BD13B506230C467D
:109F50006A4628210C3041F049FFF0B19DF80130EC
:109F60009DF8002042EA032204219DF8033012B23A
:109F700092FBF1F222809DF8022042EA032212B203
:109F80009DF8043092FBF1F262809DF8052043EACF
:109F900002231BB293FBF1F3A38002B010BD7FB587
:109FA000002500F10C060C460D804D808D800123AC
:109FB0000DF107020621304641F018FF10B90020CC
:109FC00004B070BD9DF807305B07F8D5062302AAE0
:109FD0002946304641F00AFF0028F0D09DF80920BC
:109FE0009DF8083043EA022323809DF80B209DF85A
:109FF0000A3043EA022363809DF80D209DF80C305F
:10A0000043EA0223A380DBE713B506230C466A4626
:10A0100003210C3041F0EAFEA0B19DF800209DF82C
:10A02000013043EA022323809DF802209DF803308B
:10A0300043EA0223A3809DF804209DF8053043EAFB
:10A040000223638002B010BDF0B500F10C0585B0AD
:10A0500004460F4601230DF107020221284641F074
:10A06000C5FE18B90026304605B0F0BD9DF8073092
:10A07000DB07F7D5062302AA0321284641F0B6FEE6
:10A0800001230DF107020921284641F0AFFE0646E3
:10A090000028E7D011220A21284641F0ABFF9DF8A5
:10A0A000073013F00C0FDDD1B4F91A1002A8FEF737
:10A0B000FFFA40423880B4F91C100DF10A00FEF797
:10A0C000F7FA40427880B4F91E1003A8FEF7F0FAC0
:10A0D0004042B880C7E737B500F10C0405460022BE
:10A0E0000A21204641F086FF142009F019F90F22B9
:10A0F0000A21204641F07EFF0A2009F011F901AA49
:10A1000003231021204641F071FE0A2009F008F9CE
:10A110009DF8043080336B839DF805308033AB832A
:10A120009DF806308033EB8300220A21204641F05F
:10A1300061FF0A2009F0F4F80DF103020123022166
:10A14000204641F053FE01230DF103020921204670
:10A1500041F04CFE11220A21204641F04BFF012024
:10A1600003B030BD70B582B0044606230C306A4699
:10A170003B2141F03BFEA8B19DF804009DF8006032
:10A180009DF801109DF802509DF803209DF80530C0
:10A1900041EA062143EA002342EA05226183A283C1
:10A1A000E383012002B070BD2DE9F04F85B090F837
:10A1B00061300290002B40F02B85029BC3495A6905
:10A1C000138823F040031B041B0C1380138823F017
:10A1D00038031B048A424FEA134300F0508501F50F
:10A1E00080618A420CBF302138210B4313801388D1
:10A1F0000299B74CB74EDFF8E882B74F43F04003FF
:10A20000103113800391084680226B2141F0A6FD96
:10A210006423DFF8D0E2B14801934FF01009DEF873
:10A220000430C3F30803002B40F0E783EFF31183FE
:10A23000002B40F0E2832568826823689D42FAD1B2
:10A240003B689A42F7D8D6F800C04FF47A7101FB08
:10A250000CF39B1AB3FBFCF301FB05354FF47A7C3E
:10A260004FF0010ADEF80430C3F30803002B40F07E
:10A27000A683EFF31183002B40F0A183236881684C
:10A2800022689342FAD13A689142F7D832680CFBBF
:10A2900002FBABEB0101B1FBF2F10CFB03135B1B07
:10A2A000B3F57A7FDED3019B013B0193B7D1032243
:10A2B00068210398DFF82882874F41F04FFD64231F
:10A2C000DFF820E2854801934FF01009DEF80430F2
:10A2D000C3F30803002B40F01484EFF31183002B29
:10A2E00040F00F842568826823689D42FAD13B685C
:10A2F0009A42F7D8D6F800C04FF47A7101FB0CF3FC
:10A300009B1AB3FBFCF301FB05354FF47A7C4FF04D
:10A31000010ADEF80430C3F30803002B40F0318358
:10A32000EFF31183002B40F02C83236881682268AF
:10A330009342FAD13A689142F7D832680CFB02FB9B
:10A34000ABEB0101B1FBF2F10CFB03135B1BB3F5AB
:10A350007A7FDED3019B013B0193B7D101226B21B0
:10A360000398DFF87C815C4F41F0F8FC0F23DFF8A5
:10A3700074E15A4801934FF01009DEF80430C3F33A
:10A380000803002B40F09C83EFF31183002B40F077
:10A3900097832568826823689D42FAD13B689A4278
:10A3A000F7D8D6F800C04FF47A7101FB0CF39B1A72
:10A3B000B3FBFCF301FB05354FF47A7C4FF0010A47
:10A3C000DEF80430C3F30803002B40F0BC82EFF347
:10A3D0001183002B40F0B782236881682268934282
:10A3E000FAD13A689142F7D832680CFB02FBABEB2A
:10A3F0000101B1FBF2F10CFB03135B1BB3F57A7F98
:10A40000DED3019B013B0193B7D118221B21039896
:10A41000DFF8CC80304F41F0A1FC0F23DFF8C4E01F
:10A420002E4801934FF01009DEF80430C3F30803FF
:10A43000002B40F02483EFF31183002B40F01F83A7
:10A440002568826823689D42FAD13B689A42F7D812
:10A45000D6F800C04FF47A7101FB0CF39B1AB3FBE2
:10A46000FCF301FB05354FF47A7C4FF0010ADEF86E
:10A470000430C3F30803002B40F04782EFF311834D
:10A48000002B40F042822368816822689342FAD10F
:10A490003A689142F7D832680CFB02FBABEB010142
:10A4A000B1FBF2F10CFB03135B1BB3F57A7FDED338
:10A4B000019B013B0193B7D118221C210398DFF8BF
:10A4C0002080054F41F04AFC0F230DE0003800408A
:10A4D00078BE00207CBE002080BE002010E000E09E
:10A4E00074BE002000ED00E0DFF814E3C1480193E2
:10A4F0004FF01009DEF80430C3F30803002B40F0DE
:10A500009D82EFF31183002B40F0988225688268CA
:10A5100023689D42FAD13B689A42F7D8D6F800C02A
:10A520004FF47A7101FB0CF39B1AB3FBFCF301FBB4
:10A5300005354FF47A7C4FF0010ADEF80430C3F39E
:10A540000803002B40F0C381EFF31183002B40F090
:10A55000BE812368816822689342FAD13A689142A9
:10A56000F7D832680CFB02FBABEB0101B1FBF2F157
:10A570000CFB03135B1BB3F57A7FDED3019B013B1E
:10A580000193B7D1029A92F85B30032B00F23E831D
:10A5900092F85E20012A0BD0022A40F03783029BFA
:10A5A00093F8633003F0FB03022B0CBF0022072259
:10A5B0001A210398DFF84C828F4F41F0CFFB0F2315
:10A5C000DFF83CE28B4801934FF01009DEF80430CD
:10A5D000C3F30803002B40F0F882EFF31183002B44
:10A5E00040F0F3822568826823689D42FAD13B6877
:10A5F0009A42F7D8D6F800C04FF47A7101FB0CF3F9
:10A600009B1AB3FBFCF301FB05354FF47A7C4FF04A
:10A61000010ADEF80430C3F30803002B40F039814F
:10A62000EFF31183002B40F03481236881682268A6
:10A630009342FAD13A689142F7D832680CFB02FB98
:10A64000ABEB0101B1FBF2F10CFB03135B1BB3F5A8
:10A650007A7FDED3019B013B0193B7D1029B039824
:10A6600093F86020DFF89C81634F192141F076FB5D
:10A670006423DFF88CE15F4801934FF01009DEF8A6
:10A680000430C3F30803002B40F07E82EFF3118304
:10A69000002B40F079822568826823689D42FAD1B8
:10A6A0003B689A42F7D8D6F800C04FF47A7101FBA4
:10A6B0000CF39B1AB3FBFCF301FB05354FF47A7CDA
:10A6C0004FF0010ADEF80430C3F30803002B40F01A
:10A6D000C280EFF31183002B40F0BD8023688168B6
:10A6E00022689342FAD13A689142F7D832680CFB5B
:10A6F00002FBABEB0101B1FBF2F10CFB03135B1BA3
:10A70000B3F57A7FDED3019B013B0193B7D11022D1
:10A7100037210398DFF8EC80374F41F01FFB0F2300
:10A72000DFF8DCE0334801934FF01009DEF8043025
:10A73000C3F30803002B40F00682EFF31183002BD4
:10A7400040F001822568826823689D42FAD13B6807
:10A750009A42F7D8D6F800C04FF47A7101FB0CF397
:10A760009B1AB3FBFCF301FB05354FF47A7C4FF0E9
:10A77000010ADEF80430C3F30803002B4DD1EFF3D8
:10A780001183002B49D12368816822689342FAD152
:10A790003A689142F7D832680CFB02FBABEB01013F
:10A7A000B1FBF2F10CFB03135B1BB3F57A7FE0D333
:10A7B000019B013B0193B9D101223821039841F05B
:10A7C000CDFA029B0D495A69138823F040031B04FC
:10A7D0001B0C1380138823F038031B048A424FEAB2
:10A7E000134300F04F8201F580618A420CBF0821BB
:10A7F000102109E010E000E080BE00200038004099
:10A8000000ED00E074BE00200B431380138843F07A
:10A810004003138005B0BDE8F08FEFF3118189F399
:10A820001288D0F808B00368DB0344BFC8F800A062
:10A83000D0F808B02368D8F80020C9B281F3118895
:10A84000316813440CFB01F2A2EB0B02B2FBF1F2F4
:10A850000CFB0323A8E7EFF3118189F31288D0F8EA
:10A8600008B00368DB0344BFC8F800A0D0F808B004
:10A870002368D8F80020C9B281F3118831681344E5
:10A880000CFB01F2A2EB0B02B2FBF1F20CFB032377
:10A8900035E7EFF3118189F31288D0F808B0036827
:10A8A000DB0344BFC8F800A0D0F808B02368D8F88C
:10A8B0000020C9B281F31188316813440CFB01F206
:10A8C000A2EB0B02B2FBF1F20CFB0323BEE6EFF3AB
:10A8D000118189F31288D0F808B00368DB0344BF04
:10A8E000C8F800A0D0F808B02368D8F80020C9B292
:10A8F00081F31188316813440CFB01F2A2EB0B02C7
:10A90000B2FBF1F20CFB032334E6EFF3118189F380
:10A910001288D0F808B00368DB0344BFC8F800A071
:10A92000D0F808B02368D8F80020C9B281F31188A4
:10A93000316813440CFB01F2A2EB0B02B2FBF1F203
:10A940000CFB0323B0E5EFF3118189F31288D0F8F3
:10A9500008B00368DB0344BFC8F800A0D0F808B013
:10A960002368D8F80020C9B281F3118831681344F4
:10A970000CFB01F2A2EB0B02B2FBF1F20CFB032386
:10A980003BE5EFF3118189F31288D0F808B0036832
:10A99000DB0344BFC8F800A0D0F808B02368D8F89B
:10A9A0000020C9B281F31188316813440CFB01F215
:10A9B000A2EB0B02B2FBF1F20CFB0323C6E4EFF3B4
:10A9C000118189F31288D0F808B00368DB0344BF13
:10A9D000C8F800A0D0F808B02368D8F80020C9B2A1
:10A9E00081F31188316813440CFB01F2A2EB0B02D6
:10A9F000B2FBF1F20CFB032351E4EFF3118389F373
:10AA00001288D0F808C00268D20304D50122C8F821
:10AA10000020D0F808C02568D8F800A0DBB283F386
:10AA2000118831684FF47A72554402FB01F3A3EBAD
:10AA30000C03B3FBF1F302FB05350FE4EFF31183D5
:10AA400089F31288D0F808C00268D20304D5012225
:10AA5000C8F80020D0F808C02568D8F800A0DBB2FC
:10AA600083F3118831684FF47A72554402FB01F385
:10AA7000A3EB0C03B3FBF1F302FB053559E5EFF350
:10AA8000118389F31288D0F808C00268D20304D574
:10AA90000122C8F80020D0F808C02568D8F800A026
:10AAA000DBB283F3118831684FF47A72554402FBAC
:10AAB00001F3A3EB0C03B3FBF1F302FB0535D2E486
:10AAC000EFF3118389F31288D0F808C00268D2032B
:10AAD00004D50122C8F80020D0F808C02568D8F8AD
:10AAE00000A0DBB283F3118831684FF47A725544C9
:10AAF00002FB01F3A3EB0C03B3FBF1F302FB0535FF
:10AB00005AE4EFF3118389F31288D0F808C0026881
:10AB1000D20304D50122C8F80020D0F808C0256867
:10AB2000D8F800A0DBB283F3118831684FF47A7251
:10AB3000554402FB01F3A3EB0C03B3FBF1F302FB5F
:10AB40000535FFF7E2BBEFF3118389F31288D0F8E4
:10AB500008C00268D20304D50122C8F80020D0F84A
:10AB600008C02568D8F800A0DBB283F311883168EB
:10AB70004FF47A72554402FB01F3A3EB0C03B3FBD1
:10AB8000F1F302FB0535F0E5EFF3118389F3128849
:10AB9000D0F808C00268D20304D50122C8F800200A
:10ABA000D0F808C02568D8F800A0DBB283F311887C
:10ABB00031684FF47A72554402FB01F3A3EB0C03A6
:10ABC000B3FBF1F302FB053578E5EFF3118389F36D
:10ABD0001288D0F808C00268D20304D50122C8F850
:10ABE0000020D0F808C02568D8F800A0DBB283F3B5
:10ABF000118831684FF47A72554402FB01F3A3EBDC
:10AC00000C03B3FBF1F302FB0535FEE4019ACFE43C
:10AC10001E09013E032E03F00F0300F10C0733D889
:10AC20001E4A32F8160040FA03F2D1072CD501254E
:10AC300005FA03F3013B184049F08AFD184B194C03
:10AC40009B5D184414EBC0041ED00022E271202347
:10AC5000029AA371144BD3603946204643F07EFE1E
:10AC6000A388B3FA83F3C3F11F0315FA03F33FF488
:10AC7000A4AA0E490A6813430B60FFF79EBA30215D
:10AC8000FFF7B3BA0821BFE5029A074BD3603946F4
:10AC9000002043F063FEFFF790BA00BFE8CA050842
:10ACA000F0CA050874BC0020DD860008003C0140A5
:10ACB0002DE9F84F037C02681F2B86BF203B5168AB
:10ACC0001168202202FA03F30B4214BF0123002370
:10ACD0000BB9BDE8F88F4569604F044608F070FA7B
:10ACE0004FF4B27303FB057306461A7C002A35D174
:10ACF0005B495A680978D2F80090D1B9D3F8D810D6
:10AD000058890A6822F001020A60B9F80C3023EA77
:10AD10000003A9F80C30534B1B78002B32D1237C55
:10AD200021681F2B13D8202202FA03F38B60BDE8A1
:10AD3000F88F5269136823F001031360B9F80C30DF
:10AD400023F480731B041B0CA9F80C30E3E7203BB1
:10AD5000202202FA03F3CB60BDE8F88FD3F8D86065
:10AD600041485F8901225A7431685A68036815683E
:10AD700021F001013160AA89013322EA0702AA8188
:10AD80000360CCE74FF4B27A0AFB05FA07EB0A0539
:10AD9000D5F8D880404610F0E3FD01232B74D5F898
:10ADA000DCB008F00DFA0AF18C013944CBF82C0123
:10ADB000484610F095FED5E92B70D5F89830D5E9C6
:10ADC0002D123B4303430B431343D5F8BC20D5F866
:10ADD000CC70D8F8000025491343D5F8C0201343A0
:10ADE000D5F8D0203B43014013430B430022C5F864
:10ADF000A420C8F80030D8F81420D5F8C430D5F80D
:10AE0000A81022F0070CD5F8C820D5E92770134305
:10AE100043EA0C03C8F81430C8F80410C8F80870E6
:10AE2000C8F80C00D8F80020D5F8D83095F8D40030
:10AE3000696842F01002C8F8002058601A68096872
:10AE400042F001021A608B896A8913438B8108F0F2
:10AE5000B7F9074B801B186061E700BF4CCB00209F
:10AE6000A03200109C32001030A000203F801CF067
:10AE70004831001020B10078B0FA80F040097047E6
:10AE80000120704708B520214BF0EDF90346184624
:10AE900023B10278202A03F10103F8D008BD037919
:10AEA00003F01803082B0AD002D82BB100207047FA
:10AEB000102B16D0182BF9D1B0F80B007047124B9D
:10AEC000B0F80B0093F90030591C06BF0F4B1B78EC
:10AED000DBB2C3EBC30203EB820300EB830080B25F
:10AEE00070470B4BB0F80B0093F900305A1C06BFAB
:10AEF000064B5B78DBB203EB430203EB820300EB10
:10AF0000430080B2704700BFAD0E0020A8C80020EB
:10AF1000AC0E0020F0B5067906F0E003402B09D115
:10AF200044794FF0FF350023012006F00706A342C5
:10AF30000BD1F0BD602B08BF45794FF001040CBF69
:10AF400004FA05F54FF0FF35EDE7042E0CD8DFE8E5
:10AF500006F0030D18242E0030B1C85CD75C784091
:10AF600028420CBF012000200133E0E70028FBD07D
:10AF7000C856D756A0EB070CDCF1000040EB0C00E4
:10AF8000F2E70028F0D031F8130032F8137078405F
:10AF900028420CBF01200020E6E70028E4D031F968
:10AFA000130032F91370C71B78427841DCE70028A0
:10AFB000DAD051F8230052F82370784028420CBFB1
:10AFC00001200020D0E7024B0146186841F0AAB8E2
:10AFD0004442002038B5064D441E14F8011F28686D
:10AFE00019B9BDE8384041F018B841F09BF8F4E7D2
:10AFF000444200200048EDE7FF1E060808B5FFF7B1
:10B00000E9FFBDE80840F5E710B504460348FFF73F
:10B01000E1FF2046BDE81040F0E700BFE4DF05088F
:10B0200038B5074C074DAC4203D3074B00221A70CA
:10B0300038BD6288D4E9010149F0D8FD1434F2E743
:10B04000900100086C0700082CB3002038B5074CAD
:10B05000074DAC4203D3074B01221A7038BD6288FA
:10B06000D4E9011049F0C2FD1434F2E79001000860
:10B070006C0700082CB30020024A136823EA000082
:10B080001060704768E00020DFED2E7AB4EEE70A2A
:10B09000F1EE10FA4ADDDFED2C6A9FED2C7A01E02B
:10B0A000B0EE670AB4EEC70AF1EE10FA70EE667AF7
:10B0B000F6DC9FED277AF4EEC77AF1EE10FA3ED572
:10B0C000DFED216A9FED237A01E0F0EE407AF4EEA5
:10B0D000C77AF1EE10FA37EEA60AF6D4DFED1E7A43
:10B0E000B4EEE70AF1EE10FA14DDDFED167A37EE72
:10B0F000C00A60EE006A9FED196A9FED197ADFEDD4
:10B10000197AA6EE867A20EE266AE6EE877AA6EE11
:10B11000270A7047DFED147AB4EEE70AF1EE10FA71
:10B1200044BFDFED0B7A37EEC00AE2E79FED087A05
:10B13000F0EE407AF4EEC77AF1EE10FAC0D4B0EE39
:10B14000670ACBE7DB0F4940DB0FC940E4CB164170
:10B15000DB0F49C0E4CB16C1DB0FC93F92E741B911
:10B160009730083C15A82ABEDB0FC9BFF0EEC07AA5
:10B17000B0EEE07AB4EEE77AF1EE10FAB4BFB0EEDA
:10B18000676AB0EE476AB5EE406AF1EE10FA46D053
:10B19000B4EEE77AF1EE10FA8CBFF0EE675AF0EEFB
:10B1A000475AC5EE866A9FED1F3A9FED1F6A9FEDD5
:10B1B0001F4A9FED1F5ADFED1F3ADFED1F4ADFEDFB
:10B1C0001F5AA6EEC36AE6EEA34AA6EE864AB7EE7B
:10B1D000006AA6EE845AA6EEA46AE6EE855AC5EE8B
:10B1E000866AB4EEE77AF1EE10FA48BFDFED147A22
:10B1F000F5EEC00A48BF77EEE66AF1EE10FA48BFF6
:10B20000DFED107AB5EEC00A48BF77EEE66AF1EEE0
:10B2100010FA48BFF1EE666AB0EE660A7047DFEDDD
:10B22000076ADEE739094E3DE3B59E3E88FA163ED1
:10B2300045FE7F3F99FB243F69A2163EA7DFA83455
:10B24000DB0FC93FDB0F4940DFED317A30EE277A63
:10B25000FDEEC76A16EE903A2033402B02D99FEDDF
:10B260002D0A7047B4EEE70AF1EE10FA4DDD9FEDBE
:10B270002A6ADFED2A6A01E0B0EE677AB4EEE67A78
:10B28000F1EE10FA77EE467AF6DC9FED257AF4EED1
:10B29000C77AF1EE10FA35D5DFED1F6A9FED217AFE
:10B2A00001E0F0EE407AF4EEC77AF1EE10FA37EEF4
:10B2B000A60AF6D4DFED167AB4EEE70AF1EE10FA3C
:10B2C0001BDCDFED197AB4EEE70AF1EE10FA44BFA9
:10B2D000DFED137A37EEC00A60EE006A9FED136A65
:10B2E0009FED137ADFED137AA6EE867A20EE266ABA
:10B2F000E6EE877AA6EE270A7047DFED0F7A37EE83
:10B30000C00AE9E7B0EE670AD4E7F0EE477ABCE797
:10B31000DB0FC93F00000000DB0FC940E4CB164142
:10B32000DB0F49C0E4CB16C1DB0FC9BF92E741B9BF
:10B330009730083C15A82ABEDB0F494010B44C09D1
:10B34000012250F8243001F01F0102FA01F123EA32
:10B35000010340F824305DF8044B704710B44C09E9
:10B36000012250F8243001F01F0102FA01F10B43D1
:10B3700040F824305DF8044B704700BF4B0901F0E2
:10B380001F0150F82320012303FA01F1114214BFD9
:10B3900018460020704700BF2DE9F043002489B013
:10B3A00006460D461F46A04605E025290CD030462E
:10B3B0000134A847039A531C039311780029F4D150
:10B3C000204609B0BDE8F083931CCDE903385078DE
:10B3D000302842D0A0F13003DBB2092B4FF0000936
:10B3E00045D96C282AD0642873D019D9732858D02D
:10B3F00063D9752840F0828007F1040C386805ABEA
:10B4000000220A216746FCF72BFF05AB049A009344
:10B4100029464B463046FCF7F9FD039A0444CAE737
:10B4200025283CD051D958286BD06328C2D139780F
:10B430003046A84704370134039ABCE7039B5A1CE3
:10B4400003921B78642B52D016D8252B27D064D9B1
:10B45000582B18D0632BEAD0ADE7D31C0393907818
:10B46000A0F13003DBB2092B4FF00109B9D804AACF
:10B4700003A945F0AFF9B4E7732B12D051D9752B5E
:10B480002DD0782B97D1A3F15802B2FA82F2386806
:10B49000520905AB10210437FCF7E2FEB5E7252180
:10B4A00085E73B68049A0093294600233046FCF761
:10B4B000ADFD04370444039A7DE76E287FF47AAF2C
:10B4C000039A3B6804371C6075E700283FF478AFA7
:10B4D00070E7386805A9FCF78DFE043795E73868F2
:10B4E00005AB00220A21FCF7BBFE04378DE73B1DAC
:10B4F000386805A91F46FCF77DFE86E778287FF4AB
:10B5000059AFA0F15802B2FA82F23868520905AB7D
:10B510001021FCF7A5FE043777E7002B3FF450AF6E
:10B5200049E76E2BCDD046E710B5064C0B460246D8
:10B5300005492068FFF730FF2068BDE8104040F063
:10B540006CBD00BF44420020AD8E000838B50446F3
:10B550000D460848FFF73EFD29462046FFF7E4FF69
:10B560000548FFF737FD054B1B7813B1044B01224B
:10B570001A7038BDE9DF0508F4DF0508A043002094
:10B58000A14300200FB407B504A951F8040B0191A1
:10B59000FFF7DCFFFFF72EFD03B05DF804EB04B00E
:10B5A000704713460A4601460048EBE7F8DF0508F6
:10B5B0000048E7E711E005080FB407B504A951F802
:10B5C000040B0191FFF7C2FF03B05DF804EB04B078
:10B5D00070470FB407B504A951F8040B0191FFF7A8
:10B5E000A3FFFFF707FD03B05DF804EB04B070475D
:10B5F0000FB407B504A951F8040B0191FFF794FFAC
:10B6000003B05DF804EB04B070472DE9F84303790B
:10B6100003F0E001202928D002D849B1BDE8F88321
:10B62000402945D06029F9D12448BDE8F843D0E746
:10B6300003F00703022B02D0042B08D06BB9B0F83B
:10B640000720B0F805101E48BDE8F843C1E7D0F860
:10B6500005201B48BDE8F843BBE7B0F90720B0F967
:10B6600005101748BDE8F843B3E74579154E16486D
:10B67000FFF7B0FC06EBC502002492F8048001231A
:10B68000A04502D8BDE8F843B4E456F8357057F841
:10B6900024204FEA84094AB113B90C48FFF79AFCF9
:10B6A00057F809100A48FFF7A3FF00230134E7E722
:10B6B00041790848BDE8F8438BE700BF59E0050829
:10B6C0001DE0050830AC050834E0050845E0050834
:10B6D0003713060848E005082DE9F04117460279BE
:10B6E00002F0E003402B05460E462BD10024554FB7
:10B6F000DFF8708115E02B7903F00703022B15D0DA
:10B70000032B19D0012B14BF315D31573846FFF799
:10B710006FFF6B79013BA34202DD4046FFF75AFC05
:10B7200001346B79A342E6DCBDE8F08136F81410F1
:10B730003846FFF75DFFECE736F914103846FFF79F
:10B7400057FFE6E702F00702042A5DD8DFE802F0BF
:10B75000031D25272A003478202B3AD068D8002BE7
:10B76000E2D1B5F80560B5F8078036482146FFF705
:10B770003FFFA64240DCA0453EDB002FD4D042462E
:10B7800031463148BDE8F04132E796F90040202BC0
:10B790001FD04DD8002B3DD0C6E73488DCE7B6F982
:10B7A0000040F4E7D6F80080202B444611D03FD863
:10B7B000002BB9D141462348FFF71AFFD5F80510F1
:10B7C000884519D8002FAFD02048BDE8F0410FE7D9
:10B7D00000246A791E4B03EBC2010979A1420BDDFB
:10B7E00053F8323053F82400BDE8F041FFF7F2BBC4
:10B7F0001848BDE8F041FBE6FFF7FCFB224629684C
:10B800001548BDE8F041D7E6202BE1D007D8002B42
:10B810008AD11C46B5F90560B5F90780A5E7602B0C
:10B82000E6D0802B80D131460C48BDE8F041DFE600
:10B83000602BF6D16A791441E307D9D50848BDE8F1
:10B84000F041D5E631E005086913060873E0050804
:10B8500030AC05087904060879E0050837130608B6
:10B860006EE0050871E005080CB407B510F0200083
:10B870000BD079B92320FFF7A6FB05A90498019105
:10B88000FFF752FEFFF7B6FB012003B05DF804EBB3
:10B8900002B070470020F8E70CB4C30607B500D526
:10B8A00061B905A904980191FFF73EFEFFF7A2FBDD
:10B8B000012003B05DF804EB02B070470020F8E708
:10B8C0000EB400B584B005AB019053F8042B0649C3
:10B8D000039301A8FFF760FD019B00221A7004B0DA
:10B8E0005DF804EB03B070470180000870B406688F
:10B8F0008E4217D90139751E002311F8014F082215
:10B90000634013F0800F4FEA430318BF83F0D50361
:10B91000013ADBB2F5D18D42EFD1721C0260337077
:10B9200070BC7047721C00230260337070BC70479B
:10B930000A44914215D010B40139541E11F8012F58
:10B940000823504010F0800F4FEA400018BF80F0ED
:10B95000D500013BC0B2F5D1A142EFD15DF8044B57
:10B96000704770474840082310F0800F4FEA4000AE
:10B9700018BF80F0D500013BC0B2F5D1704700BFC1
:10B980000A44914215D030B40139551E41F22102CA
:10B9900011F8014F082380EA042004044CBF82EA16
:10B9A00040004000013B80B2F7D18D42F0D130BC65
:10B9B0007047704770B502221349144C144E4FF66D
:10B9C000FF70FFF7DDFF22884AB1A518B54218D2F3
:10B9D000052A16D92146FFF7D3FF2C46F3E7214667
:10B9E0000222FFF7CDFF0222A118FFF7C9FF094B82
:10B9F000E41A094B1C8041F60F53C31A58425841B0
:10BA000070BD0020FCE700BF0040000802400008B5
:10BA100000800008FA3F00082EB300200F4B2DE9EC
:10BA20003048D3E9004554EA05020AD1034640F202
:10BA3000011200201880988098715A801881BDE802
:10BA40003088074B1A6814EB020B45F1000C5A467C
:10BA50006346FCF717FB0120BDE8308850570020F3
:10BA600078BE002030B403888278C478154DA3F5E1
:10BA7000FA6303F0030101EB4101013A02EB810299
:10BA80009B0835F812500279611E40F2B55404FB50
:10BA900003132B4403EB430302EBC3034279847982
:10BAA00009490089C3EB031302EB83032144C3EB71
:10BAB000031301EB83034FF47A720021C2FB0301ED
:10BAC00030BC7047E062050880436D382DE9F047CF
:10BAD00007468CB01E469246002A5CD11546144695
:10BAE0000A88B2F5FA6F36D38B78581E0B2832D8F5
:10BAF00091F803C00CF1FF301E282CD891F804E017
:10BB0000BEF1170F27D891F80590B9F13B0F22D855
:10BB100088793B281FD8B1F80880B8F57A7F1AD207
:10BB20004FF001085EBB09890491002CB4BF2D21A0
:10BB30002B21002CB8BF6442CDE90290CDE9051459
:10BB40000795CDE900CE38462A49FFF7B9FE4046B1
:10BB50000CB0BDE8F08700232749ADF828304FF03E
:10BB6000010C18468DF82A30ADF82C3099469E46C7
:10BB70001A4698460991634609A9002ED3D0CDE90B
:10BB80000290CDE900CE38461C49FFF799FE4046A9
:10BB90000CB0BDE8F0871A4C84FB0234A318D4170C
:10BBA000C4EB6314C4EB0415A2EB85052DB2002D84
:10BBB0000846B8BF6D42FFF755FF4FF47A72002375
:10BBC0008046894648F074FD3C230AFB030A4FF483
:10BBD0007A7200234046494648F06AFD4FF47A7174
:10BBE00092B20023C1FB0A2309A8FCF74BFA24B246
:10BBF00009A975E768E105080000010148E10508A9
:10BC0000898888880378202B024600F10100F9D04A
:10BC1000092BF7D02D2B00F0A4802B2B03BF5378DA
