:020000040800F2
:10000000F0FF0120E1DF050899010408DDD90108AE
:1000100059E0050859E0050859E00508000000000E
:10002000000000000000000000000000A50104081E
:10003000A1010408000000009D0104086197020866
:1000400059E0050859E0050859E0050859E0050898
:1000500059E0050859E00508EDB0020819B2020898
:10006000DDB10208A1B1020865B10208EDE10008A6
:10007000DDE10008CDE10008BDE10008A9E10008CC
:1000800095E1000881E1000859E005080000000042
:1000900000000000000000000000000029B102087C
:1000A0008985020875890208B9840208F98A02085C
:1000B000B5880208F5870208298702083DF600087E
:1000C00045F600082DF6000835F6000859E0050849
:1000D00059E00508D99802083D9802080000000080
:1000E000B1B0020859E00508B14904080000000059
:1000F0000000000000000000000000006DE10008AA
:100100000000000059E005085986020859E005087A
:1001100000000000000000000000000000000000DF
:1001200059E1000845E1000831E100081DE100083F
:1001300009E10008000000000000000000000000CD
:100140000000000000000000000000001D3904084D
:10015000F5E00008E1E00008CDE00008A197020802
:100160001DF6000825F60008000000000000000051
:10017000000000000000000000000000000000007F
:100180000000000059E00508000000000000000029
:0801900059E0050859E00508DB
:0801980078DB05000100000006
:1001A00010020100641D0020601D002000000000FE
:1001B0001C0800080B123C00A0220020B4280020DC
:1001C00000000000200800080D121400E82700209D
:1001D000F0280020000000005C0800081F0210004A
:1001E00014290020042900200000000061FD0008FF
:1001F000381001001C4B0020784E00200000000049
:100200007008000801200C0058620020586A002085
:1002100000000000720800080A7028001461002025
:10022000646A00200000000025D302080EA05C01D3
:10023000B85F00208C6A002000000000993A050891
:1002400001010400145F0020E86B002000000000A2
:1002500000000000000104000C5F0020EC6B002097
:10026000000000007E08000802010300085F002073
:10027000F06B00200000000069A5040822021401B0
:1002800008670020F46B00200000000075040108DE
:100290000C109C0088610020086D00200000000008
:1002A0003DA5040801020500205F0020A46D002088
:1002B00000000000E5F7010800020500AC65002021
:1002C000AC6D002000000000000000001B021000C8
:1002D00078650020B46D00200000000081FC00085B
:1002E0001E000600FC620020C46D0020000000001B
:1002F000820800081B100C0000500020CC6D00206C
:1003000000000000ADF501082102F000844E00203D
:10031000D86D002000000000A50502081A023C006C
:100320005C6F0020A06F002000000000C5020108E3
:1003300027000400586F0020DC6F00200000000040
:10034000880800082C001000DC870020CC870020E3
:1003500000000000ADDE02082B0024001088002001
:10036000EC870020000000007DDE0208190210006A
:10037000A88700203488002000000000ADFC0008A1
:1003800029207800BC86002044880020000000005E
:100390000000000020320A00C8880020BC8800202D
:1003A0000000000005D302081C021000308000206D
:1003B000D48800200000000059FC0008281010001C
:1003C00028840020E48800200000000081D3020877
:1003D0000412020078850020F4880020000000004C
:1003E0008C0800080F02010074850020F8880020A6
:1003F000000000008E080008140003001484002090
:10040000FC88002000000000900800080A020A0092
:1004100054910020A89300200000000031760308CA
:10042000030001000C8C0020B493002000000000A9
:100430000000000003123D0068930020B8930020E4
:10044000000000009408000825102C01889100206D
:10045000F8930020000000000000000010100200CF
:10046000A88B00202495002000000000D20800087E
:1004700003010A009CA7002030A800200000000013
:10048000D408000813020400549D00203CA800205A
:1004900000000000DE0800082312100060C20020E7
:1004A000ECC2002000000000E4080008051006006F
:1004B00058C20020FCC2002000000000F408000820
:1004C000371028009CC2002004C300200000000058
:1004D000FA0800080E02020050C200202CC30020BF
:1004E00000000000220900081610060020BA0020B3
:1004F00030C3002000000000240900082F10220053
:10050000C8C2002038C30020000000002A090008EB
:1005100023100E0060BC00205CC30020000000001F
:1005200099D30208F5518C004CB900206CC300200F
:1005300000000000D904020826100C0004C40020AA
:10054000F8C3002000000000314F04080B301A00EF
:1005500030B900203CC40020000000004C09000815
:100560001F30240008B9002058C4002000000000FB
:1005700068090008050204002CBC00207CC400208F
:10058000000000008C0900080702020034CC0020A3
:100590008CCC00200000000090090008F6210C001F
:1005A00058C5002090CC00200000000094090008ED
:1005B00002000C0068C500209CCC00200000000058
:1005C0000000000006020C000CCC0020A8CC00208B
:1005D0000000000041030108F701060060CB002085
:1005E000B4CC002000000000A00900081D02020099
:1005F00040CB0020BCCC002000000000A609000871
:100600000D003400A0090120740B0120000000003F
:10061000AD7A0108090201009C080120A80B012005
:1006200000000000A8090008040080001C08012048
:10063000AC0B0120000000000000000013000400CB
:10064000740701202C0C012000000000AC090008F8
:10065000FD01240050070120300C012000000000A3
:10066000B96D020818202E001C070120540C01202F
:10067000000000003902010806101A0024F20020D0
:10068000840C012000000000C93A0508FB010100AC
:1006900060F10020A00C012000000000C9FC00084F
:1006A000FC0109002CF00020A40C01200000000037
:1006B000D1FC000816023F00ACEF0020B00C012076
:1006C00000000000C5FC000834001000DCEE002033
:1006D000F00C012000000000753A05081102080026
:1006E000B4EE0020000D012000000000B009000859
:1006F00012120400ACEE0020080D012000000000E2
:10070000B8090008122010009CEE00200C0D0120FA
:1007100000000000BC090008FF110600F4EA0020F8
:100720001C0D01200000000051FD000808120F0000
:1007300000EB0020240D012000000000E9FC00086F
:10074000F9010400E4EA0020340D0120000000005B
:10075000316E0208FA010200C8E40020380D0120C1
:100760000000000061FE000802020300E0CC00204F
:100770003C0D012000000000000000000C020400FD
:10078000CCCC0020400D01200000000041FD0008FD
:1007900011000C0009D90020440D012000000000C8
:1007A000FD790108FE011400E4D80020500D01205D
:1007B0000000000095FC000819000500A427012096
:1007C000F828012000000000CC0900081A000E00E3
:1007D000182701200029012000000000D20900088C
:1007E000F8210600C4250120102901200000000086
:1007F000E009000815007000AC2001201829012034
:1008000000000000000000002A006000082801200D
:0C08100088290120000000004D3A050876
:10081C0000000000000000000000000000000000CC
:10082C0000000000000000000000000000000000BC
:10083C0000000000000000000000000000000000AC
:10084C00000000000000000000000000010000009B
:10085C00000000000000000000000000000000008C
:10086C00000000000000E8036400040A000114000A
:10087C001E00900100000000010000002003000099
:10088C000000000003000000000000000000000059
:10089C00000000000000000000000000000000004C
:1008AC00000000000000000000000000000000003C
:1008BC00000000000000000000000000000000002C
:1008CC000000000001000005040101006C1600008E
:1008DC00000000000100000000000000000000000B
:1008EC0000000000000000002000030100002000B8
:1008FC003200C800D0079600140032002800B00463
:10090C0040060005500014000F00080064000100B0
:10091C00010005000A000000C409000019000000D5
:10092C0000000000000000000000000000000000BB
:10093C0000000000000000000000000000000000AB
:10094C00AE014A015E012C016400020000000100AE
:10095C000A019A01001E0A000000000000000000BD
:10096C00000100000005000001020300000000006F
:10097C0000000000000000000000000000800700E4
:10098C0000000000003C000000000000010000001E
:10099C000202000000000100000000000000000046
:1009AC00002040300000000001010101FFFFFFFFAB
:1009BC00000000010000055334313100000000003C
:1009CC000000280100007E05EA05B4053200E803AA
:0A09DC00D00700000401F40114002C
:1009E60001FF01FF000004010000000000000002FA
:1009F60010000000070000000000000000000000DA
:100A060001020304060708091A030000000000009B
:100A160000000000000000000000000000000000D0
:100A26000000000004030904120100020000004057
:100A3600830420570002010203010B00C90B0108C1
:100A460019050108B90B0108B5FD0008650B010879
:100A56000D0B0108A5FD0008BC020020855B0108FE
:100A6600BDFD0008B9FD0008B1FD00081506010826
:100A7600ADFD0008A9FD000820FE0508291F040891
:100A860089F80308692A0408000000000000000035
:100A96006D270408892604080000000000000000F5
:100AA60000000000C1F3030855FE000849FE0008D7
:100AB600250C0108410C010801FE0008090C01087B
:100AC600ED0B01080068214C1F0000001C0000000F
:100AD6001F0000001E0000001F0000001E00000096
:100AE6001F0000001F0000001E0000001F00000085
:100AF6001E0000001F0000002500000098FB0508EE
:100B060001010000008002021F00000053544D2026
:100B16002020202050726F64757420202020202011
:100B260020202020302E303101000000A00F0000D0
:100B3600B80B000002FFFF01685E0C00E1F9030834
:100B4600CDF80308052D04080000000049F4030849
:100B5600BD2804081DF80308352804080000000015
:100B66000000000005F4030895F2030889F2030863
:100B7600391E0408551E04081D1E0408011E04081B
:100B8600E51D040899F90308A9F80308452C04088B
:100B9600000000001DF4030839280408F1F70308D3
:100BA60095270408000000000000000011F4030867
:100BB60000000100E0010000FFFFFFFFFF01000051
:100BC60009FB010800000000141006082070002030
:100BD600702D7200FFFFFFFF080000004257020061
:100BE6000000010642570200000001060101FFFF56
:100BF6002D202D2D202D2D2D2D202D2D2D000000CD
:100C060000000000000000000000000000000000DE
:100C16000000000000000000A427060800000000F5
:100C2600000000003028060801000000FA0000005D
:100C36000100000001000000546200200000F401E1
:100C460001000000526200200000F40101000000D3
:100C5600506200200000F401010000004E620020F6
:100C66000000F401010000004C6200200000F401C5
:100C7600010000004A6200200000F40101000000AB
:100C8600486200200000F401010000004903020848
:100C96000D030208A4150608426200200532010071
:100CA60040620020E803D007010000003E620020F9
:100CB600E803D007010000003C620020E803D007EB
:100CC600010000003A6200201E00B80B010000007F
:100CD600386200201E00F401010000003662002088
:100CE6001400640001000000446200203200E803A2
:100CF60001000000346200200000C800010000006E
:100D06006A61002000C801006961002000500100EE
:100D160068610020005A01006661002002000000A0
:100D260030160608549606085C9606085E0B0120E7
:100D36000100C409000000005C0B01200100C40989
:100D4600000000005A0B01200100C4090000000049
:100D5600580B01200100C40900000000540B0120BB
:100D66000100C40900000000560B01200100C4095F
:100D760000000000520B01200100C4090000000021
:100D8600500B01200100C40900000000335F002061
:100D960000C80100325F002000C80100305F00205B
:100DA6000100C800010000002E5F002032003075EF
:100DB600320000002D5F0020055A05002A5F002042
:100DC60000FF01002C5F002001000000DC04002071
:100DD600285F00200300000058590608295F0020FC
:100DE60000FF01002B5F002001000000DC04002052
:100DF600275F00200300000058590608BD020208BC
:100E06006D0202083C16060868620020EE02CA0857
:100E1600010000006662002000C8010064000000B6
:100E26006562002000C801006400000064620020C2
:100E360002000000001706081A5F002080C1803EED
:100E460005000000185F002080C1803E05000000FC
:100E5600125F002080C1803E05000000105F002068
:100E660080C1803E050000000B5F002000FF0100EE
:100E7600045F00206400F40101000000035F00200D
:100E8600040000000C170608025F002002000000A4
:100E960020170608A95F00200D0000002C17060881
:100EA600A65F002000640100A45F00203200102726
:100EB6000A000000A35F00200D0000002C170608A2
:100EC600A25F00200D0000002C170608A15F00207D
:100ED6000200000064170608000000000000000081
:100EE60070170608E0A700209CFF2C0100000000F8
:100EF6002C690020E0150C17000000001166002088
:100F060002000000A8170608746200200100FF7F97
:100F1600010000007362002002000000B4170608FA
:100F2600AB5F002003000000C4170608AA5F00207C
:100F360003000000C4170608486100200000E8030B
:100F460001000000466100200000E80301000000E7
:100F5600446100200000E803010000004261002017
:100F66000000E80301000000406100200000E803E3
:100F7600010000003E6100200000E80301000000BF
:100F86003D610020001401003C61002003000000C8
:100F9600D4170608546100200000F4010100000087
:100FA600526100200000F4010100000050610020A1
:100FB6000000F401010000004E6100200000F40171
:100FC600010000004C6100200000803E010000008E
:100FD6004A6100200000803E010000007D61002083
:100FE600196401007C61002002000000E417060875
:100FF6007A610020E803D0070A000000786100202B
:10100600006401000A0000006D6100200064010018
:101016006C6100200064010074610020006401001E
:101026000A00000073610020006401000A0000004D
:1010360072610020006401000A0000007761002050
:10104600006401000A0000007661002000640100CF
:101056000A00000075610020006401000A0000001B
:101066007161002001FF01000A000000706100208C
:1010760001FF01000A0000006F61002001FF01006E
:101086000A000000B45F00200000F4010100000027
:10109600B25F00200000F40101000000B05F0020F4
:1010A6000000F40101000000AE5F00200000F40122
:1010B60001000000AC5F00200000F4010100000008
:1010C6006561002000640100646100200064010085
:1010D600636100200064010062610020FF080100D6
:1010E600616100200164010039010208FD00020867
:1010F600F017060860610020006401005E610020B0
:101106001400E803010000005C610020E80330756C
:101116000A0000005A61002000C801005961002041
:1011260000C801005861002000C801005761002076
:10113600006401000A000000326200200000D007AF
:10114600010000002D62002000C801002C62002072
:1011560000C801002B62002000C801003062002098
:101166000000D007010000002A62002000C801002C
:101176002962002000C801002862002000C8010082
:101186002E6200200000D007010000002762002028
:1011960000C801002662002000C801002562002068
:1011A60000C801000000000071FE01086018060872
:1011B6009F5F002035000000FC1806089E5F002097
:1011C60000C801009C5F0020E803D0070100000072
:1011D60053544D333246343131000000265F00202F
:1011E60000030100255F002000030100C5FD010882
:1011F60089FD0108D419060845FD0108F9FC010816
:10120600441A060801FE0108F52E0208C41A06084B
:101216001C5F002001030100B103020885030208D8
:10122600B81D06087DFC010831FC0108281E0608C9
:1012360087FE010875530208C41E060835450208D4
:10124600000000006C1F060805330208110402089E
:1012560008200608E5FE01080000000088200608B0
:10126600ADFF010859FF0108EC2006083D00020801
:10127600010002088821060875010208C10102085A
:10128600082206086B6100200106010025FF0108FF
:10129600F9FE01080423060879000208592F0208FE
:1012A60074230608F1010208E12F020854240608F7
:1012B600566100200103010045FE010819FE0108E0
:1012C60028250608DD030208000000008C25060814
:1012D600C9FC0108C52E0208F0250608000000001A
:1012E600000000007C260608450202085930020864
:1012F600FC260608FE5E002088136F17010000001A
:10130600005F002088136F17000000002AA6002047
:10131600000000000000000028A6002000000000D9
:101326000000000026A600200000000000000000CB
:1013360024A60020000000000000000022A60020D5
:10134600000000000000000020A6002000000000B1
:1013560000000000400E0020000000000000000019
:10136600D55E00200200000084280608FC5E0020EE
:1013760088136F170100000020A8002088136F173C
:1013860000000000C1FB01080000000090280608CC
:101396001266002001000000E428060822A80020AA
:1013A60001000000F028060818A80020020000002E
:1013B600F8280608000000000000000004290608BE
:1013C600A9FB010800000000A02906080000000093
:1013D60000000000F42906080000000000000000DC
:1013E600642A06081CA80020E0150C17000000005F
:1013F600FFFF0000FFFFFFFF20E1060800000802D4
:101406000503030028E1060801000802050403009D
:1014160048EA06080200FE01011003006C9A06085D
:10142600030014020003000030E1060804001F0256
:101436000100080038E1060805001F020101080046
:10144600010000000001010100D60100B80B0000F8
:10145600010101000000803F0000000000000000C4
:1014660000000000FFFFFFFFFF0000000403090467
:1014760012010002EF02014083045632000201020B
:1014860003010000120100020202004083044057DB
:10149600000201020301000009022000010104C04C
:1014A60032090400000208065005070581024000C3
:1014B600000705010240000009026400030100C0A4
:1014C6003209040000010300000009211101000196
:1014D6002226000705830308000A080B0102020200
:1014E60001000904010001020201000524001001A7
:1014F6000524010002042402020524060102070550
:1015060082030800FF09040200020A000000070522
:101516000102400000070581024000000902430065
:10152600020100C032090400000102020100052484
:10153600001001052401000104240202052406000E
:1015460001070582030800FF09040100020A0000E2
:101556000007050102400000070581024000000067
:10156600FF000000345706080000000000000000DD
:101576000000000000000000000000000000000065
:1015860000000000000000000000000000FFFF0057
:1015960000000000085706080000000000000000D8
:1015A6000000000000000000000000000000000035
:1015B600000000000000000000000000AA55050120
:1015C6000000000005010905A101A100050109307F
:1015D60009310932093309350934094009381581B9
:1015E600257F750895088102C0C000000902220007
:1015F600010100E032090400000103010200092193
:10160600110100012226000705830308000A0000D5
:101616000000000001020304010203040607080992
:10162600CD290408D1280408292D040885F40308C7
:10163600FDF9030895F40308B1F403085DF4030803
:101646004DF4030800000000000000002D202D2DA1
:10165600202D2D2D2D202D2D2D2D000000000000DC
:101666000000000000000000000000AA550B010069
:1016760000AA5507010000AA550902000000AA5554
:1016860003009F0001000000C012000001010000DD
:10169600FF1FFF1F0000803F0000803FFFFFFFFF8E
:1016A60010C400200000000034C400200000000028
:1016B60001010000000000007CCC002008000000B2
:1016C600000000006CCC0020080000002000000094
:1016D600BC95060864F1060870F106087CF1060858
:1016E60088F1060894F10608F0A5060844B706082E
:1016F60098B5060824F1060834E5060854F10608EC
:1017060058F106085CF1060860F10608A0F1060823
:10171600A4F10608A8F10608CCB30608ACF1060841
:101726001900C800F40120030800000085F2030830
:1017360081F203087DF2030871F203086DF20308D3
:1017460079F2030875F2030825FF0308F1FD030883
:1017560055FF03084D180408C1330408C9180408C6
:10176600ADF3030899F3030891F3030801000000A1
:10177600006002401060024000000000000000000F
:10178600000B000000000000000000000000000048
:1017960000600240286002400100000000000000D6
:1017A600060C000000000000000000000000000021
:1017B600006002404060024002000000000000009D
:1017C600100D0000000000000000000000000000F6
:1017D6000060024058600240030000000000000064
:1017E600160E0000000000000000000000000000CF
:1017F600006002407060024004000000000000002B
:10180600200F0000000000000000000000000000A3
:1018160000600240886002400500000000000000F1
:10182600261000000000000000000000000000007C
:1018360000600240A06002400600000000000000B8
:101846003011000000000000000000000000000051
:1018560000600240B860024007000000000000007F
:10186600362F00000000000000000000000000000D
:101876000064024010640240000000000000000006
:10188600003800000000000000000000000000001A
:1018960000640240286402400100000000000000CD
:1018A60006390000000000000000000000000000F3
:1018B6000064024040640240020000000000000094
:1018C600103A0000000000000000000000000000C8
:1018D600006402405864024003000000000000005B
:1018E600163B0000000000000000000000000000A1
:1018F6000064024070640240040000000000000022
:10190600203C000000000000000000000000000075
:1019160000640240886402400500000000000000E8
:101926002644000000000000000000000000000047
:1019360000640240A06402400600000000000000AF
:10194600304500000000000000000000000000001C
:1019560000640240B8640240070000000000000076
:1019660036460000000000000000000000000000F5
:10197600BCE1060870EF0608000000007DA504081B
:10198600A086010004000000000000000000000026
:101996000000000000000000000000000000000041
:1019A6000000000000000000000000000000000031
:1019B600BCE10608C0F106080000000055A90108B0
:1019C600E803000004000000000000000000000022
:1019D6000000000000000000000000000000000001
:1019E60000000000000000000000000000000000F1
:1019F600A09D060848B4060800000000E982030816
:101A06007D0000000600000000000000000000004D
:101A160000000000000000000000000000000000C0
:101A260000000000000000000000000000000000B0
:101A36000CE1060800000000000000000FE10108AC
:101A4600E8030000030000000000000000000000A2
:101A56000000000000000000000000000000000080
:101A66000000000000000000000000000000000070
:101A7600C8F106080000000000000000D5A1050816
:101A86001027000003000000000000000000000016
:101A96000000000000000000000000000000000040
:101AA6000000000000000000000000000000000030
:101AB6002CE10608000000001DDC020849CA0108E6
:101AC6005F76000005000000000000000000000036
:101AD6000000000000000000000000000000000000
:101AE60000000000000000000000000000000000F0
:101AF600C8E30608000000000000000081E70108B6
:101B06001027000001000000000000000000000097
:101B160000000000000000000000000000000000BF
:101B260000000000000000000000000000000000AF
:101B3600D4F106080000000000000000757A0108D4
:101B4600E80300000500000000000000000000009F
:101B5600000000000000000000000000000000007F
:101B6600000000000000000000000000000000006F
:101B7600E0F10608000000000000000049AD04087E
:101B8600204E0000030000000000000000000000DE
:101B9600000000000000000000000000000000003F
:101BA600000000000000000000000000000000002F
:101BB600F0F1060800000000000000004DAB04082C
:101BC600204E00000300000000000000000000009E
:101BD60000000000000000000000000000000000FF
:101BE60000000000000000000000000000000000EF
:101BF60000F206080000000000000000D5DA010827
:101C0600400D03000300000000000000000000007B
:101C160000000000000000000000000000000000BE
:101C260000000000000000000000000000000000AE
:101C36007CE206080000000000000000C1C70108A1
:101C46001027000001000000000000000000000056
:101C5600000000000000000000000000000000007E
:101C6600000000000000000000000000000000006E
:101C760068A6060800000000000000000112020825
:101C86001027000003000000000000000000000014
:101C9600000000000000000000000000000000003E
:101CA600000000000000000000000000000000002E
:101CB60010F2060800000000000000002945030895
:101CC600A0860100010000000000000000000000E6
:101CD60000000000000000000000000000000000FE
:101CE60000000000000000000000000000000000EE
:101CF60010E10608000000000000000069A80108C5
:101D060050C30000010000000000000000000000B9
:101D160000000000000000000000000000000000BD
:101D260000000000000000000000000000000000AD
:101D3600209A06080000000000000000214F040859
:101D4600A086010000000000000000000000000066
:101D5600000000000000000000000000000000007D
:101D6600000000000000000000000000000000006D
:101D760058990608000000000000000065A501084B
:101D8600A861000001000000000000000000000043
:101D9600000000000000000000000000000000003D
:101DA600000000000000000000000000000000002D
:101DB60018F2060800000000000000004154020866
:101DC600A0860100010000000000000000000000E5
:101DD60000000000000000000000000000000000FD
:101DE60000000000000000000000000000000000ED
:101DF600D0E3060800000000000000002D7B01086B
:101E0600A00F00000100000000000000000000001C
:101E160000000000000000000000000000000000BC
:101E260000000000000000000000000000000000AC
:101E360024F206080000000000000000BD4E020863
:101E46001027000001000000000000000000000054
:101E5600000000000000000000000000000000007C
:101E6600000000000000000000000000000000006C
:101E7600A4E2060800000000000000003579010811
:101E8600A00F00000100000000000000000000009C
:101E9600000000000000000000000000000000003C
:101EA600000000000000000000000000000000002C
:101EB600F0A406080000000000000000A19E04082F
:101EC6001A410000010000000000000000000000B0
:101ED60000000000000000000000000000000000FC
:101EE60000000000000000000000000000000000EC
:101EF600189906080000000000000000214B0408A5
:101F06001027000001000000000000000000000093
:101F160000000000000000000000000000000000BB
:101F260000000000000000000000000000000000AB
:101F360084EF06080000000000000000295C02088B
:101F46001A4100000100000000000000000000002F
:101F5600000000000000000000000000000000007B
:101F6600000000000000000000000000000000006B
:101F760030F206080000000000000000E9510408E5
:101F8600400D0300000000000000000000000000FB
:101F9600000000000000000000000000000000003B
:101FA600000000000000000000000000000000002B
:101FB60038F206080000000000000000337A01082D
:101FC600400D0300000000000000000000000000BB
:101FD60000000000000000000000000000000000FB
:101FE60000000000000000000000000000000000EB
:101FF60040F206080000000000000000A5390208B3
:1020060050C30000030000000000000000000000B4
:1020160000000000000000000000000000000000BA
:1020260000000000000000000000000000000000AA
:102036004CF206080000000000000000C1AA0408D7
:1020460040420F00000000000000000000000000F9
:10205600000000000000000000000000000000007A
:10206600000000000000000000000000000000006A
:1020760058F206080000000000000000057B010879
:1020860050C3000000000000000000000000000037
:10209600000000000000000000000000000000003A
:1020A600000000000000000000000000000000002A
:1020B6000000803FE82901207D000000FFFFFFFFB0
:1020C6000000803F0000000000000000000000004B
:1020D6000000803F0000000000000000000000003B
:1020E60000000000000000000000000000000000EA
:1020F60000000000000000000000803F000000001B
:102106000000000000000000010000000000803F09
:10800000014B1B68184700BFEC2200204378007822
:1080100040EA032010FB01F04FF4807190FBF1F077
:1080200000F30F0000B27047704770476D4B2DE9A9
:10803000F04F1C686C4BB3F80AE0B3F804809A89DF
:108040004FEA0E2AB4EB0A044FEA1E6B4FF000050C
:1080500087B065EB0B05CDE900450746009C188904
:10806000019EA0FB044500FB0655E00940EA45607F
:108070004FEA08448C46E9114FEA184510EB040812
:10808000D888009C41EB0509CDE90489A0FB044593
:10809000B3F8028000FB0655200A40EA05604FEA6B
:1080A000C83429124FEA584510EB040841EB050982
:1080B0000099A2FB010102FB06114FEAD05A4AEADD
:1080C000412A1AF5FA634FEAE15B4BF10004B3F57C
:1080D000FA6FCDE9023474F10003424E64DA0524EC
:1080E000AAFB040104FB0B1100FB0BF40AFB014487
:1080F000DDE90423A0FB0A0121444D104FEA3004BE
:10810000121B4FEA900463EB050344EA8174B8EB59
:108110000408CDE90423DDE9023434484FEAA1051F
:1081200069EB05094FF0FF31834274EB010326DA56
:1081300040F6AC501AEB00024FF000014BEB01038C
:1081400002FB03F1A2FB022303EB4103D400DD0099
:10815000101B45EA527563EB0501DDE9044524185F
:108160004D41CDE904450B24A2FB040104FB03119E
:1081700049104FEA3000B8EB000869EB0109DDE96E
:1081800000325343009ADDE90201A2FB02AB0BEB84
:10819000430B4FEADA7242EA4B02801A4FEAEB7362
:1081A00061EB0301CDE9020197B17168A1FB0823DE
:1081B00001FB0933540D5D1544EAC324DDE90423B2
:1081C000A21A65EB03031D46D30B43EA45433B600C
:1081D000BCF1000F02D0029BCCF8003007B0BDE824
:1081E000F08F00BFC81800200885002024FAFFFF88
:1081F0002A4A9368D268A3F5000307EE903A284B09
:10820000B8EEE77AD3ED016AD3ED027A93ED046A12
:10821000D3ED085A93ED075AE7EE276AA2F500025C
:10822000D3ED007AE7EE267A07EE102AF8EEC76A59
:1082300093ED057AA7EE276A93ED037AA7EE867A87
:1082400093ED0B6AE6EE865A93ED0A6AE6EE275A3C
:1082500093ED096AA6EE275A93ED066AA5EE276A02
:10826000A5EEA66AA6EE867AB5EE407AF1EE10FA91
:1082700018BFBDEEC77AF5EE407A18BF80ED007AE0
:10828000F1EE10FA08D0FDEEE77A4FF4807317EEA6
:10829000902A92FBF3F30B60704700BFC8180020D0
:1082A00044850020704770470A4B1A686423534383
:1082B0004FF4805293FBF2F30360074B1A880A23B2
:1082C0005343302293FBF2F303F584531A330B60CC
:1082D000704700BF1C8500201885002070472DE9DD
:1082E000F04FDFF8DCC1754CDCF810502288B4F98F
:1082F0000AA0C2EB25135200C2EBE502B4F902500A
:108300005B436A43B4F904501B135D43AD1305EBA3
:10831000E225B5F5FA324FEAE57B85B04BF1FF3344
:10832000CDE90023DDE900325343009AA561A2FBA9
:108330000289CDE90201B4F908200199009809EBFE
:1083400043095143D31700FB0311A2FB00230B4445
:108350004FEAEA7B0AFB09F11F0308FB0B13AAFB98
:10836000080119444FEA102A4AEA016A16034FEA43
:10837000212B47EA12571AEB0602E6884BEB07035C
:1083800012F1000A43F5004BAAFB060106FB0B1194
:108390004A10CB1752EA030100F08E80B4F9106046
:1083A000009806FB09F1F71708FB0711A6FB086701
:1083B0003944B4F90E808B4601994FEAE87908FBFD
:1083C00001F100FB0911A8FB00898944DCF81410B5
:1083D0004FEA4947C1F5801C47EAD837B2464FEA11
:1083E0004846B4F90C801AEB060A66464BEB070BBD
:1083F000F7174FEAC806019600260096F907DDE94F
:1084000000674FEACC7016EB0A0647EB0B0741EA10
:108410005C01801B61EB070140F6354C8946A0FBEF
:108420000C010CFB091155F00FFCB4F91620B4F93E
:1084300014A04E13470B47EAC14702FB06FCD317B3
:1084400007FB03CCA2FB07236344564307FB0366E9
:10845000A2FB07233344560E46EAC31632184FEAEE
:10846000636747EB010380460AFB01F14FEAEA7BB1
:1084700008FB0B17AAFB08013944C60C46EA413633
:1084800012EB06084FEAE147B4F9122043EB070963
:108490004FEA182141EA096113010B44029A0AB11B
:1084A0001B0A1360039B23B105EB850580352D1254
:1084B0001D6005B0BDE8F08F0023EFE724850020A4
:1084C000C8180020704710B5064C237E0BB9002059
:1084D00010BD20F067FFE369C01AD0F5FA50F7D558
:1084E000F5E700BFC8180020012380F8503070471E
:1084F0004FF40063038370474FF4006303837047B6
:1085000010B500F10C0400222121204623F078FF51
:10851000FC222021204623F073FF40222421204604
:1085200023F06EFF0C222321204623F069FF002256
:108530002221204623F064FF642020F0E3FF012085
:1085400010BD10B500F10C0401220B21204623F0D0
:1085500057FF20B11D220921204623F051FF00F0D2
:10856000010010BD0122482123F04ABF01225821F9
:1085700023F046BF7B22F42123F042BF3122F421B5
:1085800023F03EBF90F8213033B1012B03D14FF4DB
:1085900000630383704770474FF480630383704721
:1085A0004FF40063038370474FF400630383704705
:1085B000F0B4037C456902681F2B37D9203B20218A
:1085C000546899400C4223D010249C40D160D46060
:1085D0005168D940CE074ED4EFF31183502282F375
:1085E0001288EA6B1168C90709D45468002C52D16B
:1085F000D5E909618E4243D1012285F86020DBB2C2
:1086000083F31188037C02681F2B194614D9203B81
:10861000082150689940084200D0D1600421506878
:1086200001FA03F3184223D1F0BC704720241668E6
:108630009C4026420FD11946082310688B401842EF
:1086400000D093600423106803FA01F10842EBD0D4
:108650009160F0BC7047102199409460916011685E
:10866000D940CC07B8D5012101FA03F39360B3E7F1
:10867000D360F0BC7047012101FA03F3D360ABE78C
:10868000AF690F44D7600ED82E69711A5160AC6281
:10869000002185F86010116841F00101DBB2116022
:1086A00083F31188AEE7711A5160AE62F0E700BF44
:1086B000F0B4B34BB3491A780B789A4240F0078173
:1086C000B14B1A78002A68D0B04B1978B04B00290A
:1086D00065D11868B3F8305141628489012A44EAAF
:1086E00005048481A3F8301157D0D3F83401B3F8CE
:1086F000645241628489022A44EA05048481A3F811
:1087000064124AD0D3F86802B3F89853416284895E
:10871000032A44EA05048481A3F898133DD0D3F8D2
:108720009C03B3F8CC5441628489042A44EA0504CA
:108730008481A3F8CC1430D0D3F8D004B3F8005619
:1087400041628489052A44EA05048481A3F800165D
:1087500023D0D3F80406B3F8345741628489062A3B
:1087600044EA05048481A3F8341716D0D3F83807F7
:10877000B3F8685841628489072A44EA0504848171
:10878000A3F8681809D0D3F86C28B3F89C49516253
:10879000908920439081A3F89C19F0BC70475C68D5
:1087A000198961602568186845F0010540F20D31AE
:1087B0002560A0F848108489012A44F480748481DB
:1087C000EBD0D3F83841B3F83C51D3F834016560AD
:1087D000256845F001052560A0F848108489022A23
:1087E00044F480748481D8D0D3F86C42B3F87052CA
:1087F000D3F868026560256845F001052560A0F89A
:1088000048108489032A44F480748481C5D0D3F845
:10881000A043B3F8A453D3F89C036560256845F0E2
:1088200001052560A0F848108489042A44F4807466
:108830008481B2D0D3F8D444B3F8D854D3F8D00458
:108840006560256845F001052560A0F84810848919
:10885000052A44F4807484819FD0D3F80846B3F885
:108860000C56D3F804066560256845F001052560BF
:10887000A0F848108489062A44F4807484818CD03E
:10888000D3F83C47B3F84057D3F8380765602568FC
:1088900045F001052560A0F848108489072A44F4B2
:1088A000807484813FF479AFD3F87028B3F87408EA
:1088B000D3F86C385060106840F001001060A3F8E5
:1088C00048109A8942F480729A81F0BC70475C002B
:1088D000E618304D15F83660032E3FF6F1AEDFE8AE
:1088E00006F05D261C02E01805EBC0004468661E19
:1088F000012C46603FF651AF013303F00303D8B2B9
:10890000824208703FF4DCAE03EB4303DB00EA185D
:1089100002200021E85451603FE7E11805EBC10156
:108920004868461E01284E603FF637AF0DE0E1185B
:10893000C90068184668771E012E47603FF62DAFC4
:1089400002274FF0FF366F544660E618F600AF1965
:108950001148397B00680139C9B23973002940D008
:108960004FF47A722344B2FBF0F200FB02F0B0F550
:108970007A7F05EBC30518BF01326A60A0E600BF2D
:10898000348B0020358B002074FD002051F2002034
:1089900078FD0020388B00207018002070B11D4930
:1089A000012600220F890132002F18BF00269042B5
:1089B00001F5B271F6D1002E3FF482AE164A12686C
:1089C00042F21076E018B6FBF2F102FB11620126CA
:1089D00005F8306002B13144234405EBC3056960FA
:1089E0006EE6BF68B7FBF0F100FB11700327AF55CF
:1089F00000B101311C44013305EBC40503F003034E
:108A0000934269603FF45CAE00293FF459AE0139EE
:108A1000696055E654F200207018002010B5027C01
:108A200001681F2A4FF020030ED94C68203A93406A
:108A30001C4208D00B4A406800241470026822F0DF
:108A400001020260CB6010BD0C6893401C42FAD05A
:108A5000044A406800241470026822F00102026097
:108A60008B60F0E708D9002010B5027C01681F2A4E
:108A70004FF020030ED94C68203A93401C4208D096
:108A80000B4A406800241470026822F00102026060
:108A9000CB6010BD0C6893401C42FAD0044A406879
:108AA00000241470026822F0010202608B60F0E77B
:108AB0001B5200202DE9F041C40023189B00BA4945
:108AC000CA585268958AADB2EFB2FE070B4465D41E
:108AD000BE073AD5BFF35F8F1D7EEDB2012D00F0CA
:108AE000C480B24E138BBFF35F8F231801EB830357
:108AF0001D7E022D00F0D980231801EB83031D7E1B
:108B0000032D06D19B7E23B196F82130002B40F037
:108B10002681938896F920C043F4806393802318BC
:108B200001EB83031B7E013363450CD196F82230A1
:108B3000002586F82150002B40F09080204401EB66
:108B4000800000234375BDE8F081984E17F0040FB4
:108B500096F920C051D117F0400700F0BB80178A6A
:108B60001D6AFFB205F80C705FFA8CF56F1C93F864
:108B700018E07BB2DF1CBE4586F820309C4600F032
:108B80001781271801EB87073F7EBB42C7D105F14C
:108B9000020C4FFA8CFC86F820C0C0E71588834E83
:108BA00025F400652D042D0C1580158845F480658D
:108BB00015809D7E002786F82070002D40D096F805
:108BC0002150002D39D0231801EB830301251B7E92
:108BD00086F82150022B03D1138843F400631380DD
:108BE000231801EB83039B7D43F001031382204490
:108BF00001EB8000037EBDE8F0819F7E96F8215056
:108C00004FF0010E86F822E0002F60D0002D7DD1BC
:108C1000231801EB83035B7E002B00F0A9801388EF
:108C20000CF1010C4FFA8CFC43F4007386F820C061
:108C300013801388DF05FCD471E7DB7DFF2BC2D0E6
:108C4000231801EB83039D7D05F0FE051582DB7D76
:108C5000FF2BCCD0FF2386F82030C8E7938823F47D
:108C600040731B041B0C938068E79B7E4F4E002BC8
:108C70003FF438AF96F82130002B3FF433AF138820
:108C800023F480631B041B0C1380BFF35F8F138BD3
:108C9000138886F8225043F400731380938896F962
:108CA00020C043F48063938039E79B7E002B3FF420
:108CB00023AF96F82130002B3FF41EAF138896F9AE
:108CC00020C023F480631B041B0C138017E0002DCD
:108CD0009ED0A4E72D067FF522AFBCF1FF3F6ED0FA
:108CE000DD6915F80C5015820CF1010C1D7E4FFA50
:108CF0008CF39D429C4686F820307FF410AF938819
:108D000023F480631B041B0C938008E71F7ED3F8B9
:108D100020805FFA8CF5AE44022F4FFA8EFE178842
:108D20002ED927F480673F043F0C1780178AFFB2C3
:108D300008F80C701788D3F820C047F4007313802C
:108D4000138ADBB20CF80E30938805F1020C4FFA4F
:108D50008CFC43F4806386F820C0938069E7938895
:108D600096F920C023F480631B041B0C9380D6E685
:108D70001388012543F48073138086F8215058E747
:108D800047F400771780178AFFB208F80C70178A2B
:108D9000D3F8208005F1030C4FFA8CFCFBB286F867
:108DA00020C008F80E3044E7A0CB0020C8180020EF
:108DB000978827F480673F043F0C9780E1E6DD7DCC
:108DC00015829D7E86F820701DB91B7E002B7FF4D6
:108DD0000EAF938823F480631B041B0C938006E77B
:108DE0002DE9F04F87B0A94A02904068038823F02C
:108DF00040031B041B0C0380038823F038031B046F
:108E000090424FEA134300F03F8102F580629042A6
:108E10000CBF3022382213430380029B02889B68D8
:108E200042F04002028013B11A689B885383838901
:108E300040F2E93302E0002B00F090810289013B0F
:108E400012F0020F9BB2F6D06B23838140F2E9331C
:108E500002E0002B00F082810289013B12F0010F39
:108E60009BB2F6D08389838940F2E93302E0002B7C
:108E700000F071810289013B12F0020F9BB2F6D023
:108E80008023838140F2E93302E0002B00F063810C
:108E90000289013B12F0010F9BB2F6D08389029B3D
:108EA0009B6813B11A689B8813830623784CDFF8FC
:108EB000EC81DFF8ECA1774D774E04939623DFF831
:108EC000E4C101934FF0100EDAF80430C3F3080345
:108ED000002B40F0B280EFF31183002B40F0AD8007
:108EE0002068AA6823689842FAD133689A42F7D872
:108EF000D8F800704FF47A7101FB07F39B1AB3FBAB
:108F0000F7F301FB00304FF47A774FF00109DAF8FC
:108F10000430C3F30803002B70D1EFF31183002B4F
:108F20006CD12368A96822689342FAD132689142D1
:108F3000F7D8D8F8002007FB02FBABEB0101B1FB2F
:108F4000F2F107FB03131B1AB3F57A7FDFD3019B02
:108F5000013B0193B8D1029B9B6813B11A689B88AF
:108F60005383029B586840F2E933828902E0002B68
:108F700000F085800289013B12F0020F9BB2F6D00F
:108F8000F523838140F2E93301E0002B77D0028999
:108F9000013B12F0010F9BB2F7D08389838940F225
:108FA000E93301E0002B67D00289013B12F0020F88
:108FB0009BB2F7D0FF23838140F2E93301E0002B1D
:108FC0005AD00289013B12F0010F9BB2F7D083897E
:108FD000DBB20393029B9A6812B1136891881983DC
:108FE000039B682B60D0049B013B13F0FF030493A9
:108FF0007FF464AF184607B0BDE8F08FEFF311813E
:109000008EF31288D5F808B02B68DB0344BFCCF888
:109010000090D5F808B02368DCF80020C9B281F3CD
:109020001188D8F80010134407FB01F2A2EB0B02E1
:10903000B2FBF1F207FB032385E7EFF311838EF315
:109040001288AF682A68D20303D50122CCF8002029
:10905000AF682068DCF80090DBB283F31188D8F8A1
:1090600000104FF47A72484402FB01F3DB1BB3FBA0
:10907000F1F302FB003046E722F042FFAAE722F0BC
:109080003FFF029B586889E73022C4E60038004061
:1090900088EB002010E000E0800701207C07012021
:1090A00000ED00E07807012012B1136892885A831E
:1090B000029B586840F2E933828901E0002B45D0D9
:1090C0000289013B12F0020F9BB2F7D08C238381FF
:1090D00040F2E93301E0002B38D00289013B12F065
:1090E000010F9BB2F7D08389838940F2E93302896B
:1090F000013B12F0020F9BB215D1002BF7D122F0E9
:10910000FFFE029B9B6813B11A689B881383059B23
:10911000142B04D3182B17D9543B062B14D9002039
:1091200007B0BDE8F08FFF23838140F2E93301E00F
:10913000002BE4D00289013B12F0010F9BB2F7D063
:109140008389DBB20593DCE7032054E722F0D8FEE5
:10915000029B5868C8E722F0D3FEA0E622F0D0FEBA
:10916000029B58687FE600BF38B5054640683B4A19
:10917000038823F040031B041B0C0380038823F0A7
:1091800038031B0490424FEA134305D002F5806276
:10919000904201D043F0080303800388AA6843F09B
:1091A0004003038012B1136892885A83838940F286
:1091B000E93301E0002B43D00289013B12F0020F9A
:1091C0009BB2F7D0F523838140F2E93301E0002B15
:1091D00036D00289013B12F0010F9BB2F7D0838990
:1091E000838940F2E93300E00BB30289013B12F0BE
:1091F000020F9BB2F8D0FF23838140F2E93300E0F5
:10920000ABB10289013B12F0010F9BB2F8D0848907
:10921000E4B2AB6813B11A689B881383712C19D020
:1092200008D9AC2C14D0AF2C0ED1092038BD22F0B7
:1092300067FEEEE7122C0FD0702C07D1052038BD49
:1092400022F05EFE6868CBE7732C03D0002038BDA7
:10925000072038BD062038BD082038BD0038004042
:10926000F0B5876983B0064617B13B68BA885A8360
:109270007069DFF8A8E08389C3244FF47A734FF054
:10928000060C6D464FF6FF710EF1010E03E0013B37
:109290009BB28B4220D002899207F8D5A3B283817A
:1092A0004FF47A7302E0A3B28B4215D00289D20741
:1092B00003F1FF34F7D5828992B20DB12A700135DE
:1092C000BCF1000F0BD00CF1FF3CFF24BEF1000FEE
:1092D000E1D09EF80040D7E722F012FEB76917B13F
:1092E0003B68BA881A839DF805009DF801509DF8E7
:1092F00002109DF803409DF804209DF8063041EAD5
:10930000052143EA002342EA04220120A6F8501076
:10931000A6F85220A6F8543003B0F0BD48F805086E
:1093200013B506230C466A4628210C3022F0C2FFF2
:10933000F0B19DF801309DF8002042EA032204219B
:109340009DF8033012B292FBF1F222809DF80220C8
:1093500042EA032212B29DF8043092FBF1F26280DD
:109360009DF8052043EA02231BB293FBF1F3A3808F
:1093700002B010BD13B506230C466A4603210C301B
:1093800022F098FFA0B19DF800209DF8013043EA3B
:10939000022323809DF802209DF8033043EA022334
:1093A000A3809DF804209DF8053043EA02236380E2
:1093B00002B010BD7FB5002500F10C060C460D80F3
:1093C0004D808D8001230DF107020621304622F0E9
:1093D00071FF10B9002004B070BD9DF807305B0725
:1093E000F8D5062302AA2946304622F063FF00285A
:1093F000F0D09DF809209DF8083043EA022323802D
:109400009DF80B209DF80A3043EA022363809DF803
:109410000D209DF80C3043EA0223A380DBE707B55B
:10942000032301AA002122F045FF9DF805309DF895
:1094300004001B0243EA00439DF80600184303B0F2
:109440005DF804FB08B5FFF7EAFF014B586008BD63
:10945000C818002008B5FFF7E2FF014B186008BDEF
:10946000C818002007B506236A46F72122F022FF1C
:109470009DF801309DF800100A4A1B0243EA01439F
:109480009DF802100B43D3609DF804309DF8031043
:109490001B0243EA01439DF805100B43936003B0A0
:1094A0005DF804FBC818002007B506236A46F721BB
:1094B00022F000FF9DF801309DF800100B4A1B01BF
:1094C00043EA01339DF8021043EA111353619DF8FA
:1094D00004309DF803101B0143EA01339DF8051089
:1094E00043EA1113136103B05DF804FBC8180020B0
:1094F00070B582B00446062310306A46432122F03C
:10950000D9FEC0B19DF804009DF800609DF80110DF
:109510009DF802509DF803209DF8053041EA062190
:1095200043EA002342EA0522A4F85010A4F852208E
:10953000A4F85430012002B070BD00BF70B582B0F5
:10954000044606230C306A463B2122F0B3FEA8B144
:109550009DF804009DF800609DF801109DF80250F0
:109560009DF803209DF8053041EA062143EA0023D7
:1095700042EA05226183A283E383012002B070BD29
:1095800038B504460D46FEF79EFF246808B11FF06B
:109590005BFF054B00221A76C9215B7E2A462046D6
:1095A00022F072FD012038BDC81800207FB504AA42
:1095B000002302F8093DE7210123064622F064FD5D
:1095C0009DF80730144D154C13F0030320D00523EC
:1095D00002AAE821304622F057FD9DF80A209DF8A6
:1095E0000910130443EA01239DF8081012F0800FBC
:1095F00014BF4FF07F4200220B4313432B609DF8B2
:109600000C209DF80B3043EA0223238004B070BD88
:109610002B602380FAE700BF1C85002018850020FE
:1096200038B500F10C05044670220021284622F0CE
:10963000E7FE20220121284622F0E2FE002202213C
:10964000284622F0DDFE64201FF05CFF607EA8B19A
:1096500020F0FAF9054618B1222383710023C37163
:109660002146074B41F8083F0022284645F05AFDA5
:10967000284645F017FD284645F014FD012038BD69
:109680002B8000082DE9F04F85B00346039090F839
:109690006100002840F02C85039BC4495A69138857
:1096A00023F040031B041B0C1380138823F03803A2
:1096B0001B048A424FEA134300F0398501F58061AB
:1096C0008A420CBF302138210B4313801388039941
:1096D000B74CB84EDFF8E882B74F43F04003103183
:1096E00013800291084680226B2122F027FD64231B
:1096F000DFF8D0E2B14801934FF01009DEF80430F2
:10970000C3F30803002B40F0E883EFF31183002B31
:1097100040F0E3832568826823689D42FAD13B6864
:109720009A42F7D8D6F800C04FF47A7101FB0CF3D7
:109730009B1AB3FBFCF301FB05354FF47A7C4FF029
:10974000010ADEF80430C3F30803002B40F0A783BE
:10975000EFF31183002B40F0A28323688168226815
:109760009342FAD13A689142F7D832680CFB02FB77
:10977000ABEB0101B1FBF2F10CFB03135B1BB3F587
:109780007A7FDED3019B013B0193B7D1032268218D
:109790000298DFF82C82884F22F0D0FC6423DFF897
:1097A00024E2864801934FF01009DEF80430C3F339
:1097B0000803002B40F01584EFF31183002B40F0D9
:1097C00010842568826823689D42FAD13B689A42DA
:1097D000F7D8D6F800C04FF47A7101FB0CF39B1A4E
:1097E000B3FBFCF301FB05354FF47A7C4FF0010A23
:1097F000DEF80430C3F30803002B40F03283EFF3AC
:109800001183002B40F02D832368816822689342E6
:10981000FAD13A689142F7D832680CFB02FBABEB05
:109820000101B1FBF2F10CFB03135B1BB3F57A7F73
:10983000DED3019B013B0193B7D101226B2102983A
:10984000DFF87C815C4F22F079FC0F23DFF874E1B4
:109850005A4801934FF01009DEF80430C3F30803AF
:10986000002B40F09D83EFF31183002B40F0988391
:109870002568826823689D42FAD13B689A42F7D8EE
:10988000D6F800C04FF47A7101FB0CF39B1AB3FBBE
:10989000FCF301FB05354FF47A7C4FF0010ADEF84A
:1098A0000430C3F30803002B40F0BD82EFF31183B3
:1098B000002B40F0B8822368816822689342FAD175
:1098C0003A689142F7D832680CFB02FBABEB01011E
:1098D000B1FBF2F10CFB03135B1BB3F57A7FDED314
:1098E000019B013B0193B7D118221B210298DFF89D
:1098F000D080314F22F022FC0F23DFF8C8E02F4840
:1099000001934FF01009DEF80430C3F30803002B75
:1099100040F02583EFF31183002B40F0208325686E
:10992000826823689D42FAD13B689A42F7D8D6F8FC
:1099300000C04FF47A7101FB0CF39B1AB3FBFCF3EC
:1099400001FB05354FF47A7C4FF0010ADEF8043054
:10995000C3F30803002B40F04882EFF31183002B80
:1099600040F043822368816822689342FAD13A68C2
:109970009142F7D832680CFB02FBABEB0101B1FB63
:10998000F2F10CFB03135B1BB3F57A7FDED3019B73
:10999000013B0193B7D118221C210298DFF82080E7
:1099A000054F22F0CBFB0F230EE000BF0038004034
:1099B00088EB00207C0701208007012010E000E0F8
:1099C0007807012000ED00E0DFF814E3C1480193BF
:1099D0004FF01009DEF80430C3F30803002B40F009
:1099E0009D82EFF31183002B40F0988225688268F6
:1099F00023689D42FAD13B689A42F7D8D6F800C056
:109A00004FF47A7101FB0CF39B1AB3FBFCF301FBDF
:109A100005354FF47A7C4FF0010ADEF80430C3F3C9
:109A20000803002B40F0C381EFF31183002B40F0BB
:109A3000BE812368816822689342FAD13A689142D4
:109A4000F7D832680CFB02FBABEB0101B1FBF2F182
:109A50000CFB03135B1BB3F57A7FDED3019B013B49
:109A60000193B7D1039A92F85B30032B00F23E8347
:109A700092F85E20012A0BD0022A40F03783039B24
:109A800093F8633003F0FB03022B0CBF0022072284
:109A90001A210298DFF84C828F4F22F04FFB0F23E0
:109AA000DFF83CE28B4801934FF01009DEF80430F8
:109AB000C3F30803002B40F0F882EFF31183002B6F
:109AC00040F0F3822568826823689D42FAD13B68A2
:109AD0009A42F7D8D6F800C04FF47A7101FB0CF324
:109AE0009B1AB3FBFCF301FB05354FF47A7C4FF076
:109AF000010ADEF80430C3F30803002B40F039817B
:109B0000EFF31183002B40F03481236881682268D1
:109B10009342FAD13A689142F7D832680CFB02FBC3
:109B2000ABEB0101B1FBF2F10CFB03135B1BB3F5D3
:109B30007A7FDED3019B013B0193B7D1039B02984F
:109B400093F86020DFF89C81634F192122F0F6FA28
:109B50006423DFF88CE15F4801934FF01009DEF8D1
:109B60000430C3F30803002B40F07E82EFF311832F
:109B7000002B40F079822568826823689D42FAD1E3
:109B80003B689A42F7D8D6F800C04FF47A7101FBCF
:109B90000CF39B1AB3FBFCF301FB05354FF47A7C05
:109BA0004FF0010ADEF80430C3F30803002B40F045
:109BB000C280EFF31183002B40F0BD8023688168E1
:109BC00022689342FAD13A689142F7D832680CFB86
:109BD00002FBABEB0101B1FBF2F10CFB03135B1BCE
:109BE000B3F57A7FDED3019B013B0193B7D11022FD
:109BF00037210298DFF8EC80374F22F09FFA0F23CD
:109C0000DFF8DCE0334801934FF01009DEF8043050
:109C1000C3F30803002B40F00682EFF31183002BFF
:109C200040F001822568826823689D42FAD13B6832
:109C30009A42F7D8D6F800C04FF47A7101FB0CF3C2
:109C40009B1AB3FBFCF301FB05354FF47A7C4FF014
:109C5000010ADEF80430C3F30803002B4DD1EFF303
:109C60001183002B49D12368816822689342FAD17D
:109C70003A689142F7D832680CFB02FBABEB01016A
:109C8000B1FBF2F10CFB03135B1BB3F57A7FE0D35E
:109C9000019B013B0193B9D101223821029822F0A6
:109CA0004DFA039B0D495A69138823F040031B04A6
:109CB0001B0C1380138823F038031B048A424FEADD
:109CC000134300F0378201F580618A420CBF0821FE
:109CD000102109E010E000E080070120003800407A
:109CE00000ED00E0780701200B431380138843F058
:109CF0004003138005B0BDE8F08FEFF3118189F3C5
:109D00001288D0F808B00368DB0344BFC8F800A08D
:109D1000D0F808B02368D8F80020C9B281F31188C0
:109D2000316813440CFB01F2A2EB0B02B2FBF1F21F
:109D30000CFB0323A8E7EFF3118189F31288D0F815
:109D400008B00368DB0344BFC8F800A0D0F808B02F
:109D50002368D8F80020C9B281F311883168134410
:109D60000CFB01F2A2EB0B02B2FBF1F20CFB0323A2
:109D700035E7EFF3118189F31288D0F808B0036852
:109D8000DB0344BFC8F800A0D0F808B02368D8F8B7
:109D90000020C9B281F31188316813440CFB01F231
:109DA000A2EB0B02B2FBF1F20CFB0323BEE6EFF3D6
:109DB000118189F31288D0F808B00368DB0344BF2F
:109DC000C8F800A0D0F808B02368D8F80020C9B2BD
:109DD00081F31188316813440CFB01F2A2EB0B02F2
:109DE000B2FBF1F20CFB032334E6EFF3118189F3AC
:109DF0001288D0F808B00368DB0344BFC8F800A09D
:109E0000D0F808B02368D8F80020C9B281F31188CF
:109E1000316813440CFB01F2A2EB0B02B2FBF1F22E
:109E20000CFB0323AFE5EFF3118189F31288D0F81F
:109E300008B00368DB0344BFC8F800A0D0F808B03E
:109E40002368D8F80020C9B281F31188316813441F
:109E50000CFB01F2A2EB0B02B2FBF1F20CFB0323B1
:109E60003AE5EFF3118189F31288D0F808B003685E
:109E7000DB0344BFC8F800A0D0F808B02368D8F8C6
:109E80000020C9B281F31188316813440CFB01F240
:109E9000A2EB0B02B2FBF1F20CFB0323C5E4EFF3E0
:109EA000118189F31288D0F808B00368DB0344BF3E
:109EB000C8F800A0D0F808B02368D8F80020C9B2CC
:109EC00081F31188316813440CFB01F2A2EB0B0201
:109ED000B2FBF1F20CFB032350E4EFF3118389F39F
:109EE0001288D0F808C00268D20304D50122C8F84D
:109EF0000020D0F808C02568D8F800A0DBB283F3B2
:109F0000118831684FF47A72554402FB01F3A3EBD8
:109F10000C03B3FBF1F302FB05350EE4EFF3118301
:109F200089F31288D0F808C00268D20304D5012250
:109F3000C8F80020D0F808C02568D8F800A0DBB227
:109F400083F3118831684FF47A72554402FB01F3B0
:109F5000A3EB0C03B3FBF1F302FB053559E5EFF37B
:109F6000118389F31288D0F808C00268D20304D59F
:109F70000122C8F80020D0F808C02568D8F800A051
:109F8000DBB283F3118831684FF47A72554402FBD7
:109F900001F3A3EB0C03B3FBF1F302FB0535D1E4B2
:109FA000EFF3118389F31288D0F808C00268D20356
:109FB00004D50122C8F80020D0F808C02568D8F8D8
:109FC00000A0DBB283F3118831684FF47A725544F4
:109FD00002FB01F3A3EB0C03B3FBF1F302FB05352A
:109FE00059E4EFF3118389F31288D0F808C00268AE
:109FF000D20304D50122C8F80020D0F808C0256893
:10A00000D8F800A0DBB283F3118831684FF47A727C
:10A01000554402FB01F3A3EB0C03B3FBF1F302FB8A
:10A020000535FFF7E1BBEFF3118389F31288D0F810
:10A0300008C00268D20304D50122C8F80020D0F875
:10A0400008C02568D8F800A0DBB283F31188316816
:10A050004FF47A72554402FB01F3A3EB0C03B3FBFC
:10A06000F1F302FB0535F0E5EFF3118389F3128874
:10A07000D0F808C00268D20304D50122C8F8002035
:10A08000D0F808C02568D8F800A0DBB283F31188A7
:10A0900031684FF47A72554402FB01F3A3EB0C03D1
:10A0A000B3FBF1F302FB053578E5EFF3118389F398
:10A0B0001288D0F808C00268D20304D50122C8F87B
:10A0C0000020D0F808C02568D8F800A0DBB283F3E0
:10A0D000118831684FF47A72554402FB01F3A3EB07
:10A0E0000C03B3FBF1F302FB0535FEE4019ACFE468
:10A0F0001E461FF0A9FC06F10C010446E0B1002247
:10A10000114BC27120258571F36045F00BF8A388CF
:10A11000B3FA83F3C3F11F03012212FA03F33FF4EE
:10A12000BBAA0A490A6813430B60FFF7B5BA30218E
:10A13000FFF7CABA0821D7E5034BF360024644F0A3
:10A14000F1FFFFF7A9BA00BFE9840008003C014015
:10A150002DE9F04F824690F8610085B0002840F06C
:10A160002385DAF81400B04A038823F040031B0467
:10A170001B0C0380038823F038031B0490424FEA32
:10A18000134300F0338502F5806290420CBF302209
:10A190003822134303800288DAF8183042F0400274
:10A1A000028013B11A689B885383838940F2E93394
:10A1B00002E0002B00F021850289013B12F0020F22
:10A1C0009BB2F6D06B23838140F2E93302E0002B8F
:10A1D00000F013850289013B12F0010F9BB2F6D00B
:10A1E0008389838940F2E93302E0002B00F0018586
:10A1F0000289013B12F0020F9BB2F6D080238381CB
:10A2000040F2E93302E0002B00F0F3840289013BC5
:10A2100012F0010F9BB2F6D08389DAF8183013B12F
:10A220001A689B8813839623804C814FDFF80CE2D9
:10A230008048DFF80C82804E00934FF01009CDF873
:10A2400004A0DEF80430C3F30803002B40F051846F
:10A25000EFF31183002B40F04C842568826823685B
:10A260009D42FAD133689A42F7D8D7F800C04FF42C
:10A270007A7101FB0CF39B1AB3FBFCF301FB053570
:10A280004FF47A7C4FF0010ADEF80430C3F3080380
:10A29000002B40F00F84EFF31183002B40F00A8471
:10A2A0002368816822689342FAD132689142F7D8D4
:10A2B0003A680CFB02FBABEB0101B1FBF2F10CFBCA
:10A2C00003135B1BB3F57A7FDED3009B013B009346
:10A2D000B7D1DDF804A0DAF8183013B11A689B88FA
:10A2E0005383DAF8140040F2E933828902E0002B4C
:10A2F00000F0D6840289013B12F0020F9BB2F6D027
:10A300006823838140F2E93302E0002B00F0C88427
:10A310000289013B12F0010F9BB2F6D08389838939
:10A3200040F2E93302E0002B00F0B6840289013BE1
:10A3300012F0020F9BB2F6D00323838140F2E9337F
:10A3400002E0002B00F0A8840289013B12F0010F0B
:10A350009BB2F6D08389DAF8183013B11A689B885B
:10A3600013839623DFF8D4E03248DFF8D480324EEE
:10A3700000934FF01009CDF804A0DEF80430C3F3C9
:10A380000803002B40F0D783EFF31183002B40F03C
:10A39000D2832568826823689D42FAD133689A4245
:10A3A000F7D8D7F800C04FF47A7101FB0CF39B1A71
:10A3B000B3FBFCF301FB05354FF47A7C4FF0010A47
:10A3C000DEF80430C3F30803002B40F05583EFF3AD
:10A3D0001183002B40F050832368816822689342E8
:10A3E000FAD132689142F7D83A680CFB02FBABEB2A
:10A3F0000101B1FBF2F10CFB03135B1BB3F57A7F98
:10A40000DED3009B013B0093B7D1DDF804A0DAF85E
:10A41000183013B11A689B885383DAF8140040F29D
:10A42000E933828911E000BF0038004088EB00204A
:10A430007C07012010E000E08007012000ED00E033
:10A4400078070120002B00F021840289013B12F0E3
:10A45000020F9BB2F6D06B23838140F2E93302E016
:10A46000002B00F013840289013B12F0010F9BB214
:10A47000F6D08389838940F2E93302E0002B00F0B3
:10A4800002840289013B12F0020F9BB2F6D0032333
:10A49000838140F2E93302E0002B00F0F48302896B
:10A4A000013B12F0010F9BB2F6D08389DAF8183025
:10A4B00013B11A689B8813830F201EF0C5FFDAF8CA
:10A4C000183013B11A689B885383DAF8140040F2ED
:10A4D000E933828902E0002B00F0D0830289013B3E
:10A4E00012F0020F9BB2F6D06A23838140F2E93367
:10A4F00002E0002B00F0C2830289013B12F0010F41
:10A500009BB2F6D08389838940F2E93302E0002BC5
:10A5100000F0B1830289013B12F0020F9BB2F6D02A
:10A520001023838140F2E93302E0002B00F0A38383
:10A530000289013B12F0010F9BB2F6D08389DAF851
:10A54000183013B11A689B8813830F201EF07CFF0C
:10A55000DAF8183013B11A689B885383DAF81400BC
:10A5600040F2E933828902E0002B00F07F83028908
:10A57000013B12F0020F9BB2F6D06C23838140F2B4
:10A58000E93302E0002B00F071830289013B12F0F5
:10A59000010F9BB2F6D08389838940F2E93302E050
:10A5A000002B00F060830289013B12F0020F9BB286
:10A5B000F6D00023838140F2E93302E0002B00F063
:10A5C00052830289013B12F0010F9BB2F6D08389BE
:10A5D000DAF8183013B11A689B8813830F201EF025
:10A5E00033FFDAF818309AF8604013B11A689B8884
:10A5F0005383DAF8140040F2E933828902E0002B39
:10A6000000F02C830289013B12F0020F9BB2F6D0BE
:10A610001923838140F2E93302E0002B00F01E830E
:10A620000289013B12F0010F9BB2F6D08389838926
:10A6300040F2E93302E0002B00F00D830289013B78
:10A6400012F0020F9BB2F6D0A4B2848140F2E9333B
:10A6500002E0002B00F0FF820289013B12F0010FA3
:10A660009BB2F6D08389DAF8183013B11A689B8848
:10A6700013830F201EF0E8FEDAF8183013B11A68C1
:10A680009B885383DAF8140040F2E933828902E0B0
:10A69000002B00F0DB820289013B12F0020F9BB21B
:10A6A000F6D01B23838140F2E93302E0002B00F057
:10A6B000CD820289013B12F0010F9BB2F6D0838953
:10A6C000838940F2E93302E0002B00F0BC8202896A
:10A6D000013B12F0020F9BB2F6D01823838140F2A7
:10A6E000E93302E0002B00F0AE820289013B12F058
:10A6F000010F9BB2F6D08389DAF8183013B11A68CB
:10A700009B8813830F201EF09FFEDAF8183013B1D8
:10A710001A689B885383DAF8140040F2E93382897F
:10A7200002E0002B00F08A820289013B12F0020F46
:10A730009BB2F6D01C23838140F2E93302E0002B68
:10A7400000F07C820289013B12F0010F9BB2F6D02F
:10A750008389838940F2E93302E0002B00F06B82A9
:10A760000289013B12F0020F9BB2F6D018238381BD
:10A7700040F2E93302E0002B00F05D820289013BE8
:10A7800012F0010F9BB2F6D08389DAF8183013B1BA
:10A790001A689B8813830F201EF056FEDAF81830D3
:10A7A00013B11A689B885383DAF8140040F2E93336
:10A7B000828902E0002B00F039820289013B12F00D
:10A7C000020F9BB2F6D03723838140F2E93302E0D7
:10A7D000002B00F02B820289013B12F0010F9BB28B
:10A7E000F6D08389838940F2E93302E0002B00F040
:10A7F0001A820289013B12F0020F9BB2F6D010239D
:10A80000838140F2E93302E0002B00F00C820289E0
:10A81000013B12F0010F9BB2F6D08389DAF81830B1
:10A8200013B11A689B8813830F201EF00DFEDAF80F
:10A83000183013B11A689B885383DAF8140040F279
:10A84000E933828902E0002B00F0E0810289013BBC
:10A8500012F0020F9BB2F6D03823838140F2E93325
:10A8600002E0002B00F0D2810289013B12F0010FBF
:10A870009BB2F6D08389838940F2E93302E0002B52
:10A8800000F0C1810289013B12F0020F9BB2F6D0A9
:10A890000123838140F2E93302E0002B00F0B38111
:10A8A0000289013B12F0010F9BB2F6D08389DAF8DE
:10A8B000183013B11A689B8813830F201EF0C4FD53
:10A8C000DAF81420B649138823F040031B041B0C4C
:10A8D0001380138823F038031B048A424FEA134382
:10A8E00005D001F580618A4201D043F0080313804E
:10A8F000138843F04003138001201EF0A5FDDAF811
:10A900001400A74A038823F040031B041B0C038098
:10A91000038823F038031B0490424FEA134300F0EE
:10A920006381A04A90420CBF302238221343038037
:10A93000038843F0400303809AF85B30032B00F256
:10A940001B819AF85E40012C0AD0022C40F0148141
:10A950009AF8633003F0FB03022B0CBF002407249A
:10A96000DAF8183013B11A689B885383838940F250
:10A97000E93302E0002B00F051810289013B12F023
:10A98000020F9BB2F6D01A23838140F2E93302E032
:10A99000002B00F043810289013B12F0010F9BB2B2
:10A9A000F6D08389838940F2E93302E0002B00F07E
:10A9B00032810289013B12F0020F9BB2F6D08481F2
:10A9C00040F2E93302E0002B00F025810289013BCF
:10A9D00012F0010F9BB2F6D08389DAF8183013B168
:10A9E0001A689B88138301201EF02EFDDAF81420CC
:10A9F0006B49138823F040031B041B0C138013883E
:10AA000023F038031B048A424FEA134305D001F5B3
:10AA100080618A4201D043F008031380138843F019
:10AA2000400313804321062302AA0AF1100021F0FB
:10AA300041FC002800F0A2809DF80A509DF80B30E0
:10AA40009DF808409DF809109DF80C009DF80D2018
:10AA500043EA05231BB2AAF852305BB241EA042153
:10AA600042EA00220133AAF85010AAF8542000F05C
:10AA70008B8005B0BDE8F08FEFF3118189F3128868
:10AA8000D0F808B00368DB0344BFC8F800A0D0F8D2
:10AA900008B02368D8F80020C9B281F3118839685A
:10AAA00013440CFB01F2A2EB0B02B2FBF1F20CFB24
:10AAB0000323A2E4EFF3118189F31288D0F808B0E0
:10AAC0000368DB0344BFC8F800A0D0F808B02368CF
:10AAD000D8F80020C9B281F31188396813440CFBFF
:10AAE00001F2A2EB0B02B2FBF1F20CFB0323FFF726
:10AAF000E8BBEFF3118289F31288D0F808C003682D
:10AB0000D90304D50123C8F80030D0F808C0236861
:10AB1000D8F80050D2B282F3118839684FF47A72B3
:10AB20001D4402FB01F3A3EB0C03B3FBF1F302FBA7
:10AB30000535FFF7A5BBEFF3118289F31288D0F832
:10AB400008C00368D90304D50123C8F80030D0F841
:10AB500008C02368D8F80050D2B282F3118839684F
:10AB60004FF47A721D4402FB01F3A3EB0C03B3FB19
:10AB7000F1F302FB05351FE40024F1E6BAF9523087
:10AB80005BB201337FF475AF9AF9503001337FF433
:10AB900070AF06201FF0D8F905B0BDE8F08F00BFF8
:10ABA00000380040003C00401EF04EFF0AF10C014E
:10ABB000044600287AD00022404BC27120258571BE
:10ABC000CAF80C3044F0AEFAA388B3FA83F3C3F1A9
:10ABD0001F03012212FA03F33FF4C3AA38490A689B
:10ABE00013430B60FFF7BDBA30229FE63022FFF718
:10ABF000D0BA21F085F9FFF710BB21F081F9DAF81E
:10AC00001400FFF7EEBA21F07BF950E621F078F955
:10AC1000DAF814002FE621F073F9DEE621F070F97E
:10AC2000DAF81400BEE621F06BF9F7E521F068F9D7
:10AC3000DAF81400D6E521F063F9A6E521F060F911
:10AC4000DAF8140085E521F05BF955E521F058F9B3
:10AC5000DAF8140034E521F053F904E521F050F955
:10AC6000DAF81400E3E421F04BF9B1E421F048F9FB
:10AC7000DAF8140090E421F043F960E421F040F99F
:10AC8000DAF814003FE421F03BF90FE421F038F941
:10AC9000DAF81400FFF7EEBB21F032F9FFF75BBBE7
:10ACA00021F02EF9DAF81400FFF739BB034BCAF88C
:10ACB0000C30024644F036FAFFF753BAE984000834
:10ACC000003C014008B5012038F018FC174A936891
:10ACD00003F00C03042B1ED0082B18D151685368C5
:10ACE000490203F03F0319D452681148B0FBF3F056
:10ACF000C2F3881300FB03F00C4B0E4A5B68C3F3EE
:10AD0000014301335B00B0FBF3F0106008BD094B59
:10AD1000074A1A6008BD074B186008BDB0FBF3F086
:10AD20005368C3F3881300FB03F0E5E700380240E3
:10AD30000024F400E8CC00202DE9F84F037C0268E1
:10AD40001F2B86BF203B51681168202202FA03F3B3
:10AD50000B4214BF012300230BB9BDE8F88F4569EE
:10AD6000604F04461EF01EFB4FF4B27303FB0573E5
:10AD700006461A7C002A35D15B495A680978D2F810
:10AD80000090D1B9D3F8D81058890A6822F001028E
:10AD90000A60B9F80C3023EA0003A9F80C30534BD1
:10ADA0001B78002B32D1237C21681F2B13D8202243
:10ADB00002FA03F38B60BDE8F88F5269136823F041
:10ADC00001031360B9F80C3023F480731B041B0CCF
:10ADD000A9F80C30E3E7203B202202FA03F3CB6012
:10ADE000BDE8F88FD3F8D86041485F8901225A74D2
:10ADF00031685A680368156821F001013160AA8939
:10AE0000013322EA0702AA810360CCE74FF4B27A49
:10AE10000AFB05FA07EB0A05D5F8D880404638F05A
:10AE200067FA01232B74D5F8DCB01EF0BBFA0AF1E7
:10AE30008C013944CBF82C01484638F07FFBD5E92A
:10AE40002B70D5F89830D5E92D123B4303430B43C3
:10AE50001343D5F8BC20D5F8CC70D8F800002549AC
:10AE60001343D5F8C0201343D5F8D0203B4301400D
:10AE700013430B430022C5F8A420C8F80030D8F8CB
:10AE80001420D5F8C430D5F8A81022F0070CD5F856
:10AE9000C820D5E92770134343EA0C03C8F81430DF
:10AEA000C8F80410C8F80870C8F80C00D8F80020DA
:10AEB000D5F8D83095F8D400696842F01002C8F887
:10AEC000002058601A68096842F001021A608B89F4
:10AED0006A8913438B811EF065FA074B801B18604B
:10AEE00061E700BF54F2002051F2002050F2002030
:10AEF0009C8B00203F801CF0D06E002038B50F4C9A
:10AF00000546E1780C2031F0E5F90821182031F0F0
:10AF1000E1F985B96178092031F0DCF90D210720CC
:10AF200031F0D8F91920162131F0D4F90A20BDE802
:10AF300038401EF0E7BA0321EDE700BFA022002051
:10AF400070B5314C94F8383063B1F0200BF0CAFC86
:10AF50000546F1200BF0C6FC802D01D0002070BD0D
:10AF60000328FBD1294B2A4D987B1EF06DFD6862AA
:10AF70000028F3D0392200268271C67131461EF0B6
:10AF8000DFFE94F83A0080BB94F83900214E00BBF4
:10AF9000306094F83B0068B9E862306808B11EF090
:10AFA0007BFF1D4B1A781AB903221A70012070BD5D
:10AFB000012070BD1EF048FDE86218B13C2200235C
:10AFC0008271C37101211EF0BBFEE86A1EF06AFFA8
:10AFD000E3E71EF039FD306018B13A220023827198
:10AFE000C37101211EF0ACFED3E71EF02DFDA86257
:10AFF00010B13B23C671837101211EF0A1FEA86A26
:10B000001EF050FFC0E700BFA0220020A88700204C
:10B01000C818002080280020307200200A4BD86A0F
:10B0200088B110B5094C237833B91EF03BFF237863
:10B0300083F00103237010BD1EF02EFF237883F0F0
:10B040000103237010BD7047C8180020980100202C
:10B05000014B586A20F022B8C81800202DE9F047AB
:10B06000B24E33780446052B00F2C580DFE803F0CA
:10B0700017223087B703AE4B1B78002B00F02182DC
:10B08000502429F0AFFC32201EF03CFA631E13F06E
:10B09000FF04F6D1062333700120BDE8F087A54BED
:10B0A000A54A1B6812689B1A0A2B00F24F810020E8
:10B0B000BDE8F087012029F055FC002840F0A18070
:10B0C0009B4B1878002840F09C8006233370EFE7F4
:10B0D0009A4D984A95F93430296B7D2BC4BF822351
:10B0E00085F8343013685B1A322B00F21181FFF7B8
:10B0F000AFFF0028DBD0FB200BF0F4FB10F07F0744
:10B10000D5D03946274420460BF0F4FB17F8013C14
:10B110001A06CCD5A778012FC9D103F07F03322BB3
:10B12000C5D9834B864C95F83420DA70362031F03F
:10B13000D9F82178232031F0CDF86178242031F03E
:10B14000C9F8A178252031F0C5F800210A2031F096
:10B15000C1F83A2031F0C6F814201EF075F93420F9
:10B1600031F0C0F8774A05233846002485F8353099
:10B170001470FFF7C3FE03232046337098E7FFF7F0
:10B1800067FF002893D0FB200BF0ACFB10F07F058D
:10B190008DD02946254420460BF0ACFB15F9013C27
:10B1A000002B84DAA378012B81D16579002D7FF4FF
:10B1B0007EAF5F4AE178237951706FF0040093709D
:10B1C000001B611D04F10A0743182B4411F8015FAD
:10B1D0001344B9421D7100F095806579F4E7574D2D
:10B1E00095F83530782B43D9362031F07BF805239C
:10B1F000337000205CE7544B4C491B68BDE8F047B6
:10B20000184729F007FC1421192031F063F8494A46
:10B210004A4B12681A63822211460C2083F83420AC
:10B2200031F058F80C21072031F054F8444C082133
:10B23000182031F04FF8362031F054F821782320CF
:10B2400031F048F86178242031F044F8A1782520C5
:10B2500031F040F800210A2031F03CF83A2031F07A
:10B2600041F8342031F03EF80223337000201FE70C
:10B27000FFF7EEFE00283FF41AAFFB200BF032FB85
:10B2800010F07F073FF413AF3946274420460BF0F8
:10B2900031FB17F9013C002BBFF609AFA378012B56
:10B2A0007FF405AF224AE178537899427FF4FFAEEC
:10B2B0002179937899427FF4FAAE94F805C095F815
:10B2C0003530634561467FF4F2AE04F10509002391
:10B2D00019F8018F17F803AC02EB030EC245D8B280
:10B2E000E64403F1010302D0B8F1000F02D12C298A
:10B2F00000F23C81052B8EF8048000F03C8194F82C
:10B3000005C0E5E7237B82F8363004233370CEE6B0
:10B3100095F8343012682A630533DBB219460C20E5
:10B3200085F8343030F0D6FFE1E600BF042300207A
:10B33000A022002088EB002000230020C818002055
:10B34000A01F00209E1F0020E82200200BF0B6FA6C
:10B350000121022030F0BEFF1821084630F0BAFF6C
:10B360000421072030F0B6FFFF213E2030F0B2FF6D
:10B3700000210C2030F0AEFF5C210D2030F0AAFF40
:10B380002321132030F0A6FF7A21142030F0A2FFF1
:10B390001621192030F09EFF6C211A2030F09AFF00
:10B3A00003211B2030F096FF40211C2030F092FF3B
:10B3B00091211D2030F08EFF5621212030F08AFF90
:10B3C0001021222030F086FFA921232030F082FFB7
:10B3D0000A21242030F07EFF0021252030F07AFF62
:10B3E0001121262030F076FF5921292030F072FFFC
:10B3F00088212C2030F06EFF31212D2030F06AFFA3
:10B400000B212E2030F066FF0721032030F062FF71
:10B410000021092030F05EFF594B1C78092C7CD0AC
:10B420000F2C51D0082C27D10C21172030F052FFBF
:10B4300076210E2030F04EFF27210F2030F04AFFFA
:10B440001921062030F046FF0521204630F042FF4A
:10B4500021460B2030F03EFFAA21102030F03AFFA9
:10B460003921112030F036FF1121122030F032FF47
:10B470004221152030F02EFF424C0025362030F0BE
:10B4800031FFE9B20A2030F025FF332030F02AFFE7
:10B490004FF461701DF0D8FF23200BF023FA2070C9
:10B4A00024200BF01FFA607025200BF01BFA0135E9
:10B4B000FF2DA07004F10304E0D1012333700020BC
:10B4C000F6E512F0B3FDE5E50E21172030F002FF9E
:10B4D00080210E2030F0FEFE2046002130F0FAFEE2
:10B4E0002321062030F0F6FE0121082030F0F2FE84
:10B4F00008210B2030F0EEFE7B21102030F0EAFE18
:10B50000F821112030F0E6FE0321122030F0E2FE97
:10B510005321152030F0DEFEAEE70C21172030F06D
:10B52000D9FE76210E2030F0D5FE27210F2030F0F5
:10B53000D1FE1E21062030F0CDFE0121082030F082
:10B54000C9FE0A210B2030F0C5FE7B21102030F00F
:10B55000C1FE6121112030F0BDFE1321122030F018
:10B56000B9FE5121152030F0B5FE85E7064A00EB03
:10B570000C03137038E6053185F83510002097E587
:10B58000DC220020A01F00209E1F002000EBC00333
:10B590001B09020646BF523B1BB24133D800034A87
:10B5A00080B20321138029F0CFBE00BF5E280020A7
:10B5B0001378A3B11D2812DC70B41E24084E14FBAE
:10B5C0000101151A2819314401E0824205D001F821
:10B5D000013F12F8013F002BF7D170BC7047704754
:10B5E0000B5000202DE9F84FDFF8B48298F80030B6
:10B5F00003B1FEE7A54EA64BA64D1B880446706816
:10B60000028822F040021204120C012788F8007010
:10B610000280028822F038021204A8424FEA124245
:10B6200000F0C98105F58065A84200F0C481B3F53A
:10B63000807FA8BF4FF48073022BB8BF0223002B7A
:10B6400093FAA3F3B3FA83F308BF4FF0FF33013B40
:10B6500042EAC3039BB203800288B36842F040020F
:10B66000028013B11A689B8853838B4B8289012215
:10B670001A700D4640F2E93302E0002B00F09D8184
:10B680000289013B12F0020F9BB2F6D000238381A6
:10B6900040F2E93302E0002B00F08F810289013B88
:10B6A00012F0010F9BB2F6D08389838940F2E9330F
:10B6B00002E0002B00F097810289013B12F0020F9B
:10B6C0009BB2F6D00023838140F2E93302E0002BE5
:10B6D00000F089810289013B12F0010F9BB2F6D084
:10B6E0008389838940F2E93302E0002B00F07781FF
:10B6F0000289013B12F0020F9BB2F6D0092383812D
:10B7000040F2E93302E0002B00F069810289013B3D
:10B7100012F0010F9BB2F6D08389838940F2E9339E
:10B7200002E0002B00F057810289013B12F0020F6A
:10B730009BB2F6D0A4B2848140F2E93302E0002B40
:10B7400000F049810289013B12F0010F9BB2F6D053
:10B750008389524F013D4FF000094FF00A0B4FF023
:10B760000B0A838940F2E93301E0002B6FD0028994
:10B77000013B12F0020F9BB2F7D0A0F80CB040F2E0
:10B78000E93301E0002B62D00289013B12F0010F86
:10B790009BB2F7D08389838940F2E93301E0002B23
:10B7A00059D00289013B12F0020F9BB2F7D01FFA69
:10B7B00089F3838140F2E93301E0002B4BD0028909
:10B7C000013B12F0010F9BB2F7D08389838915F8F2
:10B7D000014F40F2E93301E0002B40D00289013BE8
:10B7E00012F0020F9BB2F7D0A0F80CA040F2E933A0
:10B7F00001E0002B33D00289013B12F0010F9BB214
:10B80000F7D08389838940F2E93300E0E3B102890C
:10B81000013B12F0020F9BB2F8D0A4B2848140F237
:10B82000E93300E083B10289013B12F0010F9BB2C2
:10B83000F8D08389386809F101091EF01DFBB9F1C0
:10B84000360F10D070688CE720F05AFBF2E720F03A
:10B8500057FB70689FE720F053FB7068B6E720F055
:10B860004FFB7068CEE7736840F2E932998902E0D5
:10B87000002A00F0AB801989013A11F0020F92B250
:10B88000F6D008229A8140F2E9320EE0C0CC0020C6
:10B89000E00E002000380040B2650020E8EA0020F9
:10B8A000B1650020002A00F091801989013A11F059
:10B8B000010F92B2F6D09A899A8940F2E93201E0FA
:10B8C000002A7ED01989013A11F0020F92B2F7D006
:10B8D000A0229A8140F2E93201E0002A71D0198950
:10B8E000013A11F0010F92B2F7D09A89A0250024F5
:10B8F0009A8940F2E93201E0002A57D01989013AC9
:10B9000011F0020F92B2F7D09D8140F2E93201E0CE
:10B91000002A4BD01989013A11F0010F92B2F7D0E9
:10B920009A899A8940F2E93201E0002A38D01989CF
:10B93000013A11F0020F92B2F7D09C8140F2E93245
:10B9400000E06AB31989013A11F0010F92B2F8D000
:10B950009889C0B28206CBD4B26812B111689288BD
:10B960000A831A88224922F040021204120C1A801B
:10B970001A8822F0380212048B424FEA124205D094
:10B9800001F580618B4218BF42F008021A801A88C4
:10B99000002142F040021A8088F80010BDE8F88FBC
:10B9A000184620F0ADFA7368C0B2D3E7184620F00D
:10B9B000A7FA7368B5E75B0839E620F0A1FA70686A
