:020000040800F2
:10000000F0FF012015F9040801D50208199502082E
:100010008DF904088DF904088DF90408000000002A
:100020000000000000000000000000000DD50208E4
:1000300009D502080000000005D50208255E020867
:100040008DF904088DF904088DF904088DF9040868
:100050008DF904088DF9040835A9020861AA02087F
:1000600025AA0208E9A90208ADA9020855EA000874
:1000700045EA000835EA000825EA000811EA000808
:10008000FDE90008E9E900088DF904080000000016
:1000900000000000000000000000000071A902083C
:1000A0007545020861490208A5440208E54A0208AC
:1000B000A1480208E1470208154702088DF9040823
:1000C0008DF904088DF904088DF904088DF90408E8
:1000D0008DF90408015F0208655E02080000000057
:1000E000F9A802088DF9040879140308000000003B
:1000F000000000000000000000000000D5E900083A
:10010000000000008DF90408454602088DF9040836
:1001100000000000000000000000000000000000DF
:10012000C1E90008ADE9000899E9000885E900087F
:1001300071E900080000000000000000000000005D
:1001400000000000000000000000000045E502087B
:100150005DE9000849E9000835E900088DF904085F
:100160008DF904088DF9040800000000000000006B
:10017000000000000000000000000000000000007F
:10018000000000008DF904080000000000000000DD
:080190008DF904088DF9040843
:08019800ACF4040001000000BA
:1001A00010020100F81A0020F41A002000000000DC
:1001B000680700080D12140080160020FC1A0020A9
:1001C000000000006C0700081F021000201B002028
:1001D000101B002000000000898500082C00100082
:1001E000C0360020B036002000000000B302010835
:1001F0002B002400F4360020D03600200000000040
:1002000085020108190210009436002018370020DA
:10021000000000001584000829207800A83500207F
:100220002837002000000000000000002810100007
:10023000B0370020A0370020000000001DF70008A4
:100240001C02100004300020C03700200000000015
:10025000B183000820320A00DC370020D0370020AC
:1002600000000000A1F6000814000300FC33002089
:10027000E8370020000000008007000801200C0083
:10028000B01E0020EC3700200000000084070008AA
:100290000C109C00E01D0020F8370020000000003A
:1002A000819A01080A7028006C1D002094380020F3
:1002B00000000000C1F600080EA05C01101C002028
:1002C000BC3800200000000081680408010104001F
:1002D000701B0020183A0020000000000000000001
:1002E00000010400681B00201C3A002000000000F0
:1002F0009007000802010300641B0020203A002040
:1003000000000000AD9A0108F6210C001044002006
:100310003C440020000000009407000802000C008C
:1003200004440020484400200000000000000000B9
:1003300008120F00F4430020544400200000000085
:1003400019850008F7010600EC43002064440020F2
:1003500000000000A00700081D020200CC4300209E
:100360006C44002000000000A60700080A020A00F2
:100370009C3D002070440020000000002D9D0108DD
:1003800003000100283D00207C4400200000000004
:100390000000000003123D00B03F00208044002018
:1003A00000000000A807000825102C01D03D002007
:1003B000C0440020000000000000000010100200F7
:1003C000CC3C0020EC45002000000000E6070008BF
:1003D0001A023C0010460020284B002000000000BC
:1003E000AD870008270004000C460020644B002065
:1003F00000000000E807000838100100FC4500205C
:10040000684B002000000000EC0700080B301A00C9
:10041000BC5E00207466002000000000F0070008A9
:100420001F302400F05500209066002000000000DE
:100430000C0800080502040088600020B466002053
:10044000000000003008000803010A0018560020D0
:10045000B866002000000000340800081302040001
:100460009C540020C4660020000000003E080008E4
:1004700022021401387E0020888000200000000045
:10048000E988000801020500907000209C8100208E
:1004900000000000AD6C0308000205008870002019
:1004A000A481002000000000000000001B021000DA
:1004B00074700020AC81002000000000D983000887
:1004C0001E000600CC6D0020BC8100200000000052
:1004D000440800081B100C00686A0020C48100203A
:1004E00000000000698003082102F000C0680020BD
:1004F000D081002000000000E577030823121000DF
:10050000D4700020C0820020000000004C080008C9
:1005100037102800FC6F0020D0820020000000006F
:100520005C0800080E020200D0700020F882002053
:10053000000000008408000816100600246800204F
:10054000FC82002000000000860800082F10220016
:100550006480002004830020000000008C08000854
:10056000051006008C6C002028830020000000008D
:10057000AE08000823100E00146D00203083002008
:100580000000000035F70008F5518C002C680020B1
:10059000408300200000000065AC03080D0024002B
:1005A00004B6002094B7002000000000FD160308E8
:1005B0000902010070B50020B8B70020000000005B
:1005C000B408000804008000F0B40020BCB700208C
:1005D0000000000000000000F901040074B40020D5
:1005E0003CB8002000000000393702081300040066
:1005F00070B4002040B8002000000000B8080008D7
:1006000018202E003CB4002044B800200000000058
:100610004988000806101A00449F002074B8002082
:1006200000000000DD680408FB010100809E00203E
:1006300090B8002000000000BD880008FC010900FF
:100640004C9D002094B8002000000000CD880008D8
:1006500016023F000C9D0020A0B800200000000002
:1006600039840008340010003C9C0020E0B80020D1
:1006700000000000B168040811020800149C00206A
:10068000F0B8002000000000BC08000812120400AE
:100690000C9C0020F8B8002000000000C4080008EE
:1006A00012201000FC9B0020FCB80020000000007D
:1006B000C8080008FD012100409300200CB900206B
:1006C00000000000C1360208020203002485002059
:1006D00030B9002000000000000000000C020400FF
:1006E000E084002034B9002000000000718500087B
:1006F000FE011400F08F002038B900200000000037
:10070000ED830008190005008CC10020D8C200202C
:1007100000000000D80800081A000E0000C10020E8
:10072000E0C2002000000000DE080008F8210600FA
:10073000C8BF0020F0C2002000000000EC08000844
:1007400015007000B0BA0020F8C2002000000000C0
:10075000000000002A006000E8C1002068C30020FB
:080760000000000059680408C4
:100768000000000000000000000000000000000081
:10077800000000000000000003000000E80364001F
:10078800040A000114001E00B3000000000000006D
:1007980001000000020200003F010000000000000C
:1007A8000000000000000000000000000000000041
:1007B8000000000000000000000000000000000031
:1007C8000000000000000000000000000000000021
:1007D800000000000000000000000000010000050B
:1007E8002003000000000000AE014A015E012C0158
:1007F80064010100000001000A019A01001E0A00BC
:1008080000000000000000000001000000050000DA
:1008180001020300000000000000000000000000CA
:100828000000000000800700000000000401010033
:100838006C1600000000000001000000000001002C
:1008480000000000000000000000000000000000A0
:100858000000000020003200C800D00796001400F5
:1008680032002800B00440060005500014000F00B4
:10087800080064000100000005000A000000C40927
:100888000000190000000000000000000000000047
:100898000000000000000000000000000000000050
:1008A800000000000000200003010000000000001C
:1008B800000444320000000001010101FFFFFFFFB6
:1008C8000000000100000543344653000008000002
:1008D8000000280100007E05EA05B4053200E8039F
:0A08E800D00700000401F401140021
:1008F2000B250000FC120508FF01FF0000000401A7
:1009020000000000000000021000000007000000CC
:1009120000000000000000000102030406070809AD
:100922000100000019ED000800000000B0140508E5
:1009320020700020702D7200FFFFFFFF01010100F7
:100942000001010100D60100B80B00002D202D2D61
:10095200202D2D2D2D202D2D2D000000000000001A
:100962000000000000000000000000000000000085
:1009720000000000642805080000000000000000DC
:10098200F028050801000000FA0000000100000044
:100992000100000001010100AC1E00200000F40172
:1009A20001000000AA1E00200000F4010100000066
:1009B200A81E00200000F40101000000A61E002075
:1009C2000000F40101000000A41E00200000F40158
:1009D20001000000A21E00200000F401010000003E
:1009E200A01E00200000F401010000002DF5000807
:1009F200F1F40008741605089A1E00200532010061
:100A0200981E0020E803D00701000000961E002077
:100A1200E803D00701000000941E0020E803D0077D
:100A220001000000921E00201E00B80B0100000011
:100A3200901E00201E00F401010000008E1E002006
:100A420014006400010000009C1E00203200E80334
:100A5200010000008C1E00200000C8000100000000
:100A6200C21D002000C80100C11D0020005001006D
:100A7200C01D0020005A0100BE1D0020020000001F
:100A8200001705085C7D0508647D0508426A0020A0
:100A92000100C40900000000406A00200100C409EE
:100AA200000000003E6A00200100C40900000000AE
:100AB2003C6A00200100C40900000000386A0020DE
:100AC2000100C409000000003A6A00200100C409C4
:100AD20000000000366A00200100C4090000000086
:100AE200346A00200100C40900000000891B0020B4
:100AF20000C80100881B002000C80100861B0020DE
:100B02000100C80001000000841B00203200307583
:100B120032000000821B0020055A05007F1B0020C6
:100B220000FF0100811B0020010000002C030020B7
:100B32007D1B002003000000CC3F05087E1B002027
:100B420000FF0100801B0020010000002C03002098
:100B52007C1B002003000000CC3F0508A1F4000824
:100B620051F400080C170508C01E0020EE02CA0846
:100B720001000000BE1E002000C801006400000049
:100B8200BD1E002000C8010064000000BC1E002041
:100B920002000000D0170508761B002080C1803EAD
:100BA20005000000741B002080C1803E050000008B
:100BB2006E1B002080C1803E050000006C1B0020DF
:100BC20080C1803E05000000671B002000FF01007D
:100BD200601B00206400F401010000005F1B002084
:100BE20004000000DC1705085E1B00200200000064
:100BF200F0170508FF1B00200D000000FC17050878
:100C0200FC1B002000640100FA1B002032001027A8
:100C12000A000000F91B00200D000000FC17050867
:100C2200F81B00200D000000FC170508F71B002030
:100C32000200000034180508000000000000000057
:100C420040180508406000209CFF2C0100000000B5
:100C520024220020E0150C170000000026220020AC
:100C62000200000078180508CC1E00200100FF7F5A
:100C720001000000CB1E00200200000084180508BD
:100C8200011C00200300000094180508001C00202D
:100C92000300000094180508A01D00200000E803CE
:100CA200010000009E1D00200000E803010000007A
:100CB2009C1D00200000E803010000009A1D002096
:100CC2000000E80301000000981D00200000E80376
:100CD20001000000961D00200000E8030100000052
:100CE200951D002000140100941D00200300000047
:100CF200A4180508AC1D00200000F401010000004A
:100D0200AA1D00200000F40101000000A81D00201F
:100D12000000F40101000000A61D00200000F40103
:100D220001000000A41D00200000803E0100000020
:100D3200A21D00200000803E01000000D51D002001
:100D420019640100D41D002002000000B418050837
:100D5200D21D0020E803D0070A000000D01D0020A9
:100D6200006401000A000000C51D002000640100AB
:100D7200C41D002000640100CC1D0020006401009D
:100D82000A000000CB1D0020006401000A000000E0
:100D9200CA1D0020006401000A000000CF1D0020CF
:100DA200006401000A000000CE1D00200064010062
:100DB2000A000000CD1D0020006401000A000000AE
:100DC200C91D002001FF01000A000000C81D00200B
:100DD20001FF01000A000000C71D002001FF010001
:100DE2000A0000000A1C00200000F40101000000BB
:100DF200081C00200000F40101000000061C002075
:100E02000000F40101000000041C00200000F401B5
:100E120001000000021C00200000F401010000009B
:100E2200BD1D002000640100BC1D00200064010003
:100E3200BB1D002000640100BA1D0020FF08010054
:100E4200B91D00200164010021F30008E5F2000849
:100E5200C0180508B81D002000640100B61D00205E
:100E62001400E80301000000B41D0020E8033075FF
:100E72000A000000B21D002000C80100B11D0020C0
:100E820000C80100B01D002000C80100AF1D0020F5
:100E9200006401000A0000008A1E00200000D00742
:100EA20001000000851E002000C80100841E0020F1
:100EB20000C80100831E002000C80100881E002017
:100EC2000000D00701000000821E002000C80100BF
:100ED200811E002000C80100801E002000C8010001
:100EE200861E00200000D007010000007F1E0020A7
:100EF20000C801007E1E002000C801007D1E0020E7
:100F020000C801000000000055F000083019050873
:100F1200F51B002035000000CC190508F41B002049
:100F220000C80100F21B0020E803D0070100000006
:100F32004352415A59424545463446530000000047
:100F42007B1B0020000301007A1B0020000301002C
:100F5200A1EF000865EF0008A41A050821EF0008B8
:100F6200D5EE0008141B0508DDEF0008F90701089B
:100F7200941B0508781B00200103010095F5000869
:100F820069F50008881E050865EE000825EE0008D0
:100F9200F81E05086BF0000899270108941F050840
:100FA200B1030108000000003C2005086D0501089E
:100FB200F5F50008D8200508BDF000080000000083
:100FC2004821050895F1000841F10008AC21050807
:100FD20025F20008E9F10008482205085DF300083F
:100FE200A5F30008C8220508C31D00200106010060
:100FF20005F10008D1F00008C423050861F20008D9
:101002005D08010834240508D5F30008E508010845
:1010120014250508AE1D00200103010025F000087B
:10102200F5EF0008E8250508C1F5000800000000FA
:101032004C260508A5EE0008C9070108B0260508D8
:1010420000000000000000003C27050829F4000809
:101052005D090108BC2705085A1B002088136F1779
:10106200010000005C1B002088136F1700000000C5
:101072007A56002000000000000000007856002090
:101082000000000000000000765600200000000072
:101092000000000074560020000000000000000064
:1010A2007256002000000000000000007056002070
:1010B2000000000000000000840C0020000000007E
:1010C20000000000301B0020020000004429050837
:1010D200581B002088136F17010000008060002059
:1010E20088136F1700000000B9ED0008000000002F
:1010F200502905086E22002001000000A4290508DD
:101102008260002001000000B029050878600020FC
:1011120002000000B82905080000000000000000DD
:10112200C4290508A5ED000800000000602A050892
:101132000000000000000000B42A050800000000C2
:1011420000000000242B05087C600020E0150C172D
:1011520000000000FFFFFFFF0000803F00000000D2
:101162000000000000000000FFFFFFFFFF00000082
:101172001894050824940508309405083C94050841
:101182004894050854940508008D05088CC205088A
:101192002CC105080CA40508F0EA05080894050806
:1011A2000C94050810940508149405086094050829
:1011B20064940508689405089CBF05086C940508AA
:1011C2001900C800F401200301000000A00F000074
:1011D200B80B00000102FFFF010000000403090434
:1011E20012010002EF0201408304563200020102A2
:1011F2000301000012010002020200408304405772
:10120200000201020301000009026400030100C0A0
:10121200320904000001030000000921110100014C
:101222002226000705830308000A080B01020202B6
:10123200010009040100010202010005240010015D
:101242000524010002042402020524060102070506
:1012520082030800FF09040200020A0000000705D9
:10126200010240000007058102400000090243001C
:10127200020100C03209040000010202010005243B
:1012820000100105240100010424020205240600C5
:1012920001070582030800FF09040100020A000099
:1012A200000705010240000007058102400000001E
:1012B200FF000000C4380508000000000000000024
:1012C200000000000000000000000000000000001C
:1012D20000000000000000000000000000FFFF000E
:1012E20000000000AA550501000001009838050819
:1012F20000000000000000000000000000000000EC
:1013020000000000000000000000000000000000DB
:1013120000000000FF1FFF1F05010905A101A10038
:101322000501093009310932093309350934094007
:1013320009381581257F750895088102C0C0000013
:1013420009022200010100E0320904000001030148
:10135200020009211101000122260007058303086A
:10136200000A00000000000001020304010203045D
:101372000607080949D802084DD702088DDA020883
:10138200C5B7020809BB0208D5B70208F1B70208BF
:101392009DB702088DB7020800000000000000009F
:1013A2002D202D2D202D2D2D2D202D2D2D2D0000EC
:1013B200000000000000000000000000000000AA81
:1013C200550B010000AA5507010000AA55090200A9
:1013D2000000AA5503009F0001000000C012000097
:1013E20048660020000000006C660020000000003B
:1013F200000000001068002008000000000000004B
:10140200006800200800000020000000E9BC02087B
:101412008DBA020869DA02080000000089B70208E2
:1014220039D7020855BC0208B1D6020800000000F4
:101432000000000045B7020859BC02084DBA020874
:10144200A9D90208000000005DB70208B5D602085B
:1014520029BC020811D602080000000000000000AA
:1014620051B7020800000100E00100000000803FC7
:101472000000803FFFFFFFFF080101FFFFFF0000A8
:10148200F0E605080000080205030300F8E6050877
:1014920001000802050403008C9505080200FE0104
:1014A200011003007C810508030014020003000000
:1014B20000E7050804001F020100080008E705080C
:1014C20005001F0201010800FFFF0000FFFFFFFFF0
:1014D20008000000A9B60208A5B60208A1B60208D3
:1014E20095B6020891B602089DB6020899B602089E
:1014F2001DB7020811B70208E9B60208FDB60208D4
:10150200D5B60208C1B60208ADB602080100000055
:101512000060024010600240000000000000000075
:10152200000B0000000000000000000000000000AE
:10153200006002402860024001000000000000003C
:10154200060C000000000000000000000000000087
:101552000060024040600240020000000000000003
:10156200100D00000000000000000000000000005C
:1015720000600240586002400300000000000000CA
:10158200160E000000000000000000000000000035
:101592000060024070600240040000000000000091
:1015A200200F00000000000000000000000000000A
:1015B2000060024088600240050000000000000058
:1015C20026100000000000000000000000000000E3
:1015D20000600240A060024006000000000000001F
:1015E20030110000000000000000000000000000B8
:1015F20000600240B86002400700000000000000E6
:10160200362F000000000000000000000000000073
:10161200006402401064024000000000000000006C
:101622000038000000000000000000000000000080
:101632000064024028640240010000000000000033
:101642000639000000000000000000000000000059
:1016520000640240406402400200000000000000FA
:10166200103A00000000000000000000000000002E
:1016720000640240586402400300000000000000C1
:10168200163B000000000000000000000000000007
:101692000064024070640240040000000000000088
:1016A200203C0000000000000000000000000000DC
:1016B200006402408864024005000000000000004F
:1016C20026440000000000000000000000000000AE
:1016D20000640240A0640240060000000000000016
:1016E2003045000000000000000000000000000083
:1016F20000640240B86402400700000000000000DD
:10170200364600000000000000000000000000005B
:101712008CE70508B4AA050800000000C5140308F8
:10172200A08601000400000000000000000000008C
:1017320000000000000000000000000000000000A7
:101742000000000000000000000000000000000097
:101752008CE7050804EB0508000000005D3502086F
:10176200E803000004000000000000000000000088
:101772000000000000000000000000000000000067
:101782000000000000000000000000000000000057
:10179200B484050818C005080000000021A501084E
:1017A2007D000000060000000000000000000000B4
:1017B2000000000000000000000000000000000027
:1017C2000000000000000000000000000000000017
:1017D200DCE605080000000000000000895602084F
:1017E200E803000003000000000000000000000009
:1017F20000000000000000000000000000000000E7
:1018020000000000000000000000000000000000D6
:101812000CEB0508000000000000000001BD0408F8
:10182200102700000300000000000000000000007C
:1018320000000000000000000000000000000000A6
:101842000000000000000000000000000000000096
:10185200FCE6050800000000190001087D95020859
:101862005F7600000500000000000000000000009C
:101872000000000000000000000000000000000066
:101882000000000000000000000000000000000056
:1018920090E905080000000000000000F9AC020811
:1018A20010270000010000000000000000000000FE
:1018B2000000000000000000000000000000000026
:1018C2000000000000000000000000000000000016
:1018D20018EB050800000000000000006135020856
:1018E200E803000005000000000000000000000006
:1018F20000000000000000000000000000000000E6
:1019020000000000000000000000000000000000D5
:1019120024EB05080000000000000000ED1A030897
:10192200204E000003000000000000000000000044
:1019320000000000000000000000000000000000A5
:101942000000000000000000000000000000000095
:1019520034EB050800000000000000000115030838
:10196200204E000003000000000000000000000004
:101972000000000000000000000000000000000065
:101982000000000000000000000000000000000055
:1019920044EB05080000000000000000913A020834
:1019A200400D0300030000000000000000000000E2
:1019B2000000000000000000000000000000000025
:1019C2000000000000000000000000000000000015
:1019D200DCA205080000000000000000A93C03088A
:1019E20010270000010000000000000000000000BD
:1019F20000000000000000000000000000000000E5
:101A020000000000000000000000000000000000D4
:101A1200C8AA05080000000000000000CD8B0308E2
:101A2200102700000300000000000000000000007A
:101A320000000000000000000000000000000000A4
:101A42000000000000000000000000000000000094
:101A52006880050800000000000000002D34020824
:101A6200A86100000100000000000000000000006A
:101A72000000000000000000000000000000000064
:101A82000000000000000000000000000000000054
:101A920004A30508000000000000000051600208D5
:101AA200A00F000001000000000000000000000084
:101AB2000000000000000000000000000000000024
:101AC2000000000000000000000000000000000014
:101AD20054EB0508000000000000000065AD03089B
:101AE20010270000010000000000000000000000BC
:101AF20000000000000000000000000000000000E4
:101B020000000000000000000000000000000000D3
:101B1200008C05080000000000000000F9A5030881
:101B22001A41000001000000000000000000000057
:101B320000000000000000000000000000000000A3
:101B42000000000000000000000000000000000093
:101B5200288005080000000000000000A1BF020864
:101B6200102700000100000000000000000000003B
:101B72000000000000000000000000000000000063
:101B82000000000000000000000000000000000053
:101B9200C0AA05080000000000000000192E01087C
:101BA2001A410000010000000000000000000000D7
:101BB2000000000000000000000000000000000023
:101BC2000000000000000000000000000000000013
:101BD20060EB0508000000000000000089C5020853
:101BE200400D0300000000000000000000000000A3
:101BF20000000000000000000000000000000000E3
:101C020000000000000000000000000000000000D2
:101C120068EB05080000000000000000E93302083C
:101C2200400D030000000000000000000000000062
:101C320000000000000000000000000000000000A2
:101C42000000000000000000000000000000000092
:101C520070EB0508000000000000000025B8030832
:101C620050C300000300000000000000000000005C
:101C72000000000000000000000000000000000062
:101C82000000000000000000000000000000000052
:101C92007CEB05080000000000000000B91A0308F0
:101CA20040420F00000000000000000000000000A1
:101CB2000000000000000000000000000000000022
:101CC2000000000000000000000000000000000012
:101CD20088EB050800000000000000004D18030812
:101CE20050C30000000000000000000000000000DF
:101CF20000000000000000000000000000000000E2
:101D020000000000000000000000000000000000D1
:101D12000000803FC8C300207D0000000000803F1B
:101D22000000000000000000000000000000803FF2
:101D320000000000000000000000000000000000A1
:101D42000000000000000000000000000000000091
:101D5200000000000000803F0000000000000000C2
:0C1D620000000000010000000000803FB5
:1080000003685A1C02601970704700BF2DE9F047E1
:10801000089C2578002B804689460CBF4FF0200A2B
:108020004FF0300A661C25B3002A26DD334601E0F6
:10803000024698B113F8011B501E0029F8D1971E73
:1080400060B13D46013D51464046C8476B1C002B80
:10805000F8DC257827EAE770013045B1041B294692
:108060004046C847301916F8015B002DF7D1BDE82E
:10807000F087002A03DC2846F9E70020EEE7571EC8
:10808000DFE700BF2DE9F04714461D4606464FF4D2
:108090007A7200232046294647F070FA4D4BDFF8EC
:1080A00048814D4A4D4F034488FB03101844D917AB
:1080B00082FB032CC1EB601088FB002887FB0327A1
:1080C0009C44474AC1EBEC2CC0EB001E82FB0C2900
:1080D000A3EB8E0E1F44434A86F806E0C1EB274708
:1080E0004FEAEC7E08EB000ACEEBA90E82FB07827A
:1080F0004FEAE0780EEB4E0EC8EB6A18ACEBCE0CF4
:10810000C8EB0818DFF8E4E086F804C0A0EB8800AC
:1081100070718EFB0303F817C0EBE21240F2B5500A
:1081200000FB1272C1EBE353B2F5896F4FEA83078C
:108130003CDA40F2DA239A4242DCB2F5B77FB4BFB0
:108140004FF0000E4FF0010E4FEA4E09DFF8A0800D
:1081500009EB0E0308EBC3031FFA8EFCD88A09EB68
:108160000E0108EBC10116310B2301E031F8020DBD
:10817000904218DD013BF9D1CE44012338F83E008E
:10818000B37007F5FA670132121ABC44F270A6F810
:1081900000C0204629464FF47A72002347F0EEF9DA
:1081A0003281BDE8F0870133DBB2E9E74FF0030C21
:1081B000E64640F29650DFF838804FF00609CEE7E9
:1081C0004FF0020CDFF82880E64640F229404FF0DD
:1081D0000409C4E780BC92C7C5B3A29107452EC26B
:1081E000ABAAAA2A73B06D1689888888792D0311E5
:1081F000801105080028F0B403DA2D230B704042EB
:108200000131092804464FF0010307DD03EB830326
:108210005B00B0FBF3F2092AF8D883B10F48A0FB4A
:108220000326B4FBF3F2092A02F1570C02F13007DE
:1082300009DD03FB1244F30801F801CBEFD1002361
:108240000B70F0BC704703FB1244F30801F8017B8C
:10825000E5D100230B70F0BC704700BFCDCCCCCC77
:10826000884270B44FF0010442D301FB04F4B0FB28
:10827000F4F58D42F9D2ECB142BB092D04FB150097
:1082800005F1570605F130020EDDB4FBF1F403F8F9
:10829000016B7CB1B0FBF4F5092D04FB150005F171
:1082A000570605F13002F0DCB4FBF1F403F8012BC2
:1082B000002CEFD100221A7070BC704703F8016BDC
:1082C000B4FBF1F4002CF5D0B0FBF4F5092D04FB60
:1082D000150005F1370605F13002EFDCB4FBF1F4CF
:1082E00003F8012B002CEFD100221A7070BC7047EC
:1082F0000546002AEAD1C0E790ED057A90ED004AE4
:10830000D0ED066AD0ED014AD0ED047A90ED035A23
:10831000D0ED025AA4EE007AB0EE406AB0EE470A01
:10832000B0EE667AA4EE867A67EEC07AA5EE407A61
:10833000E5EE867A80ED057AC0ED067A704700BFDB
:10834000D0ED057A90ED013AD0ED003AD0ED064A35
:1083500090ED024A90ED077A90ED035A90ED086A8D
:10836000D0ED045AC0ED067AF0EE406A27EE830A9B
:10837000C0ED056AA3EEA60A80ED087AA4EE240AF1
:10838000A5EE470AA5EEC60A80ED070A704700BFB2
:10839000D0ED007A90ED017A30EE670AE7EE007AD0
:1083A000B0EE670AC0ED007A704700BF704700BFAB
:1083B00030B400230221012214251124C5708471D8
:1083C0000370C3728373C3734170C1714172827051
:1083D0000272827230BC7047002306214FF47A7219
:1083E0000170C0E901230373704700BF30B420233C
:1083F000012221254FF47F44FF2143700023457162
:108400000482817402720270027143818381C3818C
:1084100030BC704730B40B221F2303251E242221B9
:10842000027043722922002385728473C172027321
:10843000437330BC704700BF2DE9F04F3149324BD8
:1084400083B001F5907B019013274FF000092F486E
:108450001022012603E0203098420BD00279974287
:10846000F9D102680C68A24209D02030984206F186
:108470000106F3D1203159453AD00F79E7E7447925
:108480004D79A542F1D19446019A214809EB49055D
:1084900002EB050A57558AF8016000F572751D4E0A
:1084A000624603E0A8421AD050F82C6FB242F9D1CC
:1084B0000679A642F6D1CF6806464FF0000C9646E4
:1084C0008046F268BA4216D00CF1010CBCF1030FE1
:1084D00006F10C06F5D14046A8427246E4D14FF0B1
:1084E000FF3C203159458AF802C009F10109C4D185
:1084F00003B0BDE8F08F086932698242E4D14FFAD7
:108500008CFCEEE7107A05089C6C0508DC62050817
:108510009C6C050800000140144BFF22F0B54FF0A1
:10852000FF34C2700271027242724273827303F1AD
:108530000C0EA446172716261525002202EB8202F0
:1085400081189E4585544E708F7081F803C00C7160
:108550000AD093F90620DD791E7A5F7A93F90AC072
:1085600093F90B400633E9E7F0BD00BFE0110508C1
:1085700010B42C2101240222002304704170827067
:10858000C3705DF8044B7047034600F11001FF22F1
:108590001A705A7002339942FAD102704270827096
:1085A000C2707047C0B1B9B110B40C4B1B780B2B23
:1085B00001F1010114BF10241C2402380C440A7874
:1085C00011F8013C023143EA02238C4220F8023FB9
:1085D000F5D15DF8044B7047704700BF980100204B
:1085E000F8B55D21144836F0D7FC1449144B0D88BA
:1085F0004A88DFF854C04C196E1C27792071D21BB1
:10860000104400B283FB0034C3179CF8005048802C
:10861000C3EBE403323306F00F029BB2032D0A8052
:108620008B8200D0F8BDA3EB8303DB00054A03F681
:10863000E8031380F8BD00BF149000201816002036
:10864000ABAAAA2A6C210020582100204FF4006315
:1086500003837047012380F850307047F0B4037CE7
:10866000456902681F2B37D9203B20215468994067
:108670000C4223D010249C40D160D4605168D94072
:10868000CE074ED4EFF31183502282F31288EA6BA7
:108690001168C90709D45468002C52D1D5E9096181
:1086A0008E4243D1012285F86020DBB283F311882A
:1086B000037C02681F2B194614D9203B08215068FF
:1086C0009940084200D0D1600421506801FA03F3B8
:1086D000184223D1F0BC7047202416689C402642E3
:1086E0000FD11946082310688B40184200D09360C0
:1086F0000423106803FA01F10842EBD09160F0BC4A
:10870000704710219940946091601168D940CC075E
:10871000B8D5012101FA03F39360B3E7D360F0BC4D
:108720007047012101FA03F3D360ABE7AF690F444F
:10873000D7600ED82E69711A5160AC62002185F89D
:108740006010116841F00101DBB2116083F3118800
:10875000AEE7711A5160AE62F0E710B5027C0168B5
:108760001F2A4FF020030ED94C68203A93401C4238
:1087700008D00C4A406800241470026822F00102FC
:108780000260CB6010BD0C6893401C42FAD0054AD1
:10879000406800241470026822F0010202608B60BD
:1087A000F0E700BF0771002036F06EBD38B51D4BF5
:1087B0001B78044600F1250593B104221A492030A4
:1087C00048F0C8FC28461422184948F0C3FC01238D
:1087D00084F83A30164B1B7873B984F83B3038BDB7
:1087E00028461422134948F0B5FC012384F83A3096
:1087F0000F4B1B78002BF0D00F4B186859689A6804
:10880000DD68E56020606160A260DD691869596912
:108810009A69A2610123E5612061616184F83B30BE
:1088200038BD00BFFD670020CC670020B467002082
:10883000FE670020EC7B0508D4670020014B186818
:108840001DF002BCD44A002038B52E22002148F089
:1088500043FC03462225642440F2DC5040F21A41D6
:1088600040F26C721D731C7440F20225132458826E
:108870009982192040F27531DA8240F643021D8355
:108880009C760E2502241877D9830A201E211A848B
:10889000012283F82B0083F82C1083F8225083F8F0
:1088A0002A409A7383F8252083F829201946024824
:1088B000BDE838400FF0E7BBFC7B050810B5002190
:1088C000044601201CF0ECFA207010BD38B50024DD
:1088D0000472451EE1B202201CF0E2FA0134082CB9
:1088E00005F8010FF6D138BD38B5002405460480DF
:1088F00021462846013433F07BFA082CF8D10021B8
:1089000085F8E210A5F8E410A5F8E610A5F8E8103F
:10891000A5F8EA10A5F8EC10A5F8EE10A5F8F010EF
:10892000A5F8F2102846BDE8384033F023BA00BF5E
:1089300008B5064B186821F0D5FF00B908BD1DF039
:108940001DF9034B012298611A7708BD2090002081
:10895000181600202DE9F04F87B0A94A0290406810
:10896000038823F040031B041B0C0380038823F0BF
:1089700038031B0490424FEA134300F03F8102F595
:10898000806290420CBF3022382213430380029B46
:1089900002889B6842F04002028013B11A689B88EB
:1089A0005383838940F2E93302E0002B00F0908189
:1089B0000289013B12F0020F9BB2F6D06B23838138
:1089C00040F2E93302E0002B00F082810289013B92
:1089D00012F0010F9BB2F6D08389838940F2E9330C
:1089E00002E0002B00F071810289013B12F0020FBE
:1089F0009BB2F6D08023838140F2E93302E0002B62
:108A000000F063810289013B12F0010F9BB2F6D0A6
:108A10008389029B9B6813B11A689B881383062382
:108A2000784CDFF8EC81DFF8ECA1774D774E0493BA
:108A30009623DFF8E4C101934FF0100EDAF804300A
:108A4000C3F30803002B40F0B280EFF31183002B37
:108A500040F0AD802068AA6823689842FAD1336854
:108A60009A42F7D8D8F800704FF47A7101FB07F3F7
:108A70009B1AB3FBF7F301FB00304FF47A774FF00A
:108A80000109DAF80430C3F30803002B70D1EFF3C7
:108A90001183002B6CD12368A96822689342FAD114
:108AA00032689142F7D8D8F8002007FB02FBABEB05
:108AB0000101B1FBF2F107FB03131B1AB3F57A7F37
:108AC000DFD3019B013B0193B8D1029B9B6813B19B
:108AD0001A689B885383029B586840F2E933828965
:108AE00002E0002B00F085800289013B12F0020FAA
:108AF0009BB2F6D0F523838140F2E93301E0002BED
:108B000077D00289013B12F0010F9BB2F7D0838925
:108B1000838940F2E93301E0002B67D00289013BF1
:108B200012F0020F9BB2F7D0FF23838140F2E933AA
:108B300001E0002B5AD00289013B12F0010F9BB2D9
:108B4000F7D08389DBB20393029B9A6812B1136852
:108B500091881983039B682B60D0049B013B13F021
:108B6000FF0304937FF464AF184607B0BDE8F08FAD
:108B7000EFF311818EF31288D5F808B02B68DB0370
:108B800044BFCCF80090D5F808B02368DCF800208A
:108B9000C9B281F31188D8F80010134407FB01F221
:108BA000A2EB0B02B2FBF1F207FB032385E7EFF325
:108BB00011838EF31288AF682A68D20303D501228D
:108BC000CCF80020AF682068DCF80090DBB283F3BB
:108BD0001188D8F800104FF47A72484402FB01F370
:108BE000DB1BB3FBF1F302FB003046E736F0B2F9D2
:108BF000AAE736F0AFF9029B586889E73022C4E64D
:108C0000003800409C8F002010E000E0A48F00207E
:108C1000A08F002000ED00E0988F002012B11368B3
:108C200092885A83029B586840F2E933828901E0B6
:108C3000002B45D00289013B12F0020F9BB2F7D006
:108C40008C23838140F2E93301E0002B38D0028984
:108C5000013B12F0010F9BB2F7D08389838940F268
:108C6000E9330289013B12F0020F9BB215D1002BB0
:108C7000F7D136F06FF9029B9B6813B11A689B8895
:108C80001383059B142B04D3182B17D9543B062BA5
:108C900014D9002007B0BDE8F08FFF23838140F294
:108CA000E93301E0002BE4D00289013B12F0010F0F
:108CB0009BB2F7D08389DBB20593DCE7032054E74E
:108CC00036F048F9029B5868C8E736F043F9A0E649
:108CD00036F040F9029B58687FE600BFF0B587691F
:108CE00083B0064617B13B68BA885A837069DFF8CB
:108CF000A8E08389C3244FF47A734FF0060C6D46C5
:108D00004FF6FF710EF1010E03E0013B9BB28B4267
:108D100020D002899207F8D5A3B283814FF47A73E9
:108D200002E0A3B28B4215D00289D20703F1FF34CF
:108D3000F7D5828992B20DB12A700135BCF1000FCE
:108D40000BD00CF1FF3CFF24BEF1000FE1D09EF8E8
:108D50000040D7E736F0FEF8B76917B13B68BA882C
:108D60001A839DF805009DF801509DF802109DF8AA
:108D700003409DF804209DF8063041EA052143EAAE
:108D8000002342EA04220120A6F85010A6F852203F
:108D9000A6F8543003B0F0BDF411050808B5012061
:108DA00025F0C0F9174A936803F00C03042B1ED07A
:108DB000082B18D151685368490203F03F0319D4B6
:108DC00052681148B0FBF3F0C2F3881300FB03F0C4
:108DD0000C4B0E4A5B68C3F3014301335B00B0FBED
:108DE000F3F0106008BD094B074A1A6008BD074B35
:108DF000186008BDB0FBF3F05368C3F3881300FBA1
:108E000003F0E5E7003802400024F4002C85002040
:108E10002DE9F84F037C02681F2B86BF203B516869
:108E20001168202202FA03F30B4214BF012300232E
:108E30000BB9BDE8F88F4569604F04461CF09EFEF3
:108E40004FF4B27303FB057306461A7C002A35D132
:108E50005B495A680978D2F80090D1B9D3F8D81094
:108E600058890A6822F001020A60B9F80C3023EA36
:108E70000003A9F80C30534B1B78002B32D1237C14
:108E800021681F2B13D8202202FA03F38B60BDE860
:108E9000F88F5269136823F001031360B9F80C309E
:108EA00023F480731B041B0CA9F80C30E3E7203B70
:108EB000202202FA03F3CB60BDE8F88FD3F8D86024
:108EC00041485F8901225A7431685A6803681568FD
:108ED00021F001013160AA89013322EA0702AA8147
:108EE0000360CCE74FF4B27A0AFB05FA07EB0A05F8
:108EF000D5F8D880404625F0ADF801232B74D5F87D
:108F0000DCB01CF03BFE0AF18C013944CBF82C019B
:108F1000484625F027F9D5E92B70D5F89830D5E9E2
:108F20002D123B4303430B431343D5F8BC20D5F824
:108F3000CC70D8F8000025491343D5F8C02013435E
:108F4000D5F8D0203B43014013430B430022C5F822
:108F5000A420C8F80030D8F81420D5F8C430D5F8CB
:108F6000A81022F0070CD5F8C820D5E927701343C4
:108F700043EA0C03C8F81430C8F80410C8F80870A5
:108F8000C8F80C00D8F80020D5F8D83095F8D400EF
:108F9000696842F01002C8F8002058601A68096831
:108FA00042F001021A608B896A8913438B811CF09D
:108FB000E5FD074B801B186061E700BF749F002030
:108FC000719F0020709F0020C03C00203F801CF05B
:108FD000D083002038B5894A894B12781B789A4291
:108FE00040F00581874B1A78002A68D0864B1978A3
:108FF000864B002964D11868B3F8305141628489E6
:10900000012A44EA05048481A3F8301157D0D3F82B
:109010003401B3F8645241628489022A44EA0504A7
:109020008481A3F864124AD0D3F86802B3F8985345
:1090300041628489032A44EA05048481A3F89813D1
:109040003DD0D3F89C03B3F8CC5441628489042A00
:1090500044EA05048481A3F8CC1430D0D3F8D004BA
:10906000B3F8005641628489052A44EA05048481E4
:10907000A3F8001623D0D3F80406B3F8345741629E
:109080008489062A44EA05048481A3F8341716D09B
:10909000D3F83807B3F8685841628489072A44EA4C
:1090A00005048481A3F8681809D0D3F86C28B3F8B4
:1090B0009C495162908920439081A3F89C1938BD46
:1090C0005C68198961602568186845F0010540F2FF
:1090D0000D312560A0F848108489012A44F4807479
:1090E0008481ECD0D3F83841B3F83C51D3F8340143
:1090F0006560256845F001052560A0F84810848961
:10910000022A44F480748481D9D0D3F86C42B3F835
:109110007052D3F868026560256845F00105256046
:10912000A0F848108489032A44F480748481C6D04E
:10913000D3F8A043B3F8A453D3F89C036560256823
:1091400045F001052560A0F848108489042A44F4FC
:1091500080748481B3D0D3F8D444B3F8D854D3F80E
:10916000D0046560256845F001052560A0F8481029
:109170008489052A44F480748481A0D0D3F80846F9
:10918000B3F80C56D3F804066560256845F0010570
:109190002560A0F848108489062A44F480748481EC
:1091A0008DD0D3F83C47B3F84057D3F83807656003
:1091B000256845F001052560A0F848108489072A34
:1091C00044F4807484813FF47AAFD3F87028B3F804
:1091D0007408D3F86C385060106840F001001060DB
:1091E000A3F848109A8942F480729A8138BD15F02C
:1091F0006DFD00287FF4F6AE38BD00BF583C00205E
:10920000593C002094AA0020719F002098AA0020B9
:1092100020B10078B0FA80F0400970470120704713
:1092200008B5202147F06FFF0346184623B10278A6
:10923000202A03F10103F8D008BD037903F01803D5
:10924000082B0AD002D82BB100207047102B16D063
:10925000182BF9D1B0F80B007047124BB0F80B0087
:1092600093F90030591C06BF0F4B1B78DBB2C3EBE0
:10927000C30203EB820300EB830080B270470B4B09
:10928000B0F80B0093F900305A1C06BF064B5B7810
:10929000DBB203EB430203EB820300EB430080B23B
:1092A000704700BF710D0020FC9B0020700D002056
:1092B000F0B5067906F0E003402B09D144794FF070
:1092C000FF350023012006F00706A3420BD1F0BDB5
:1092D000602B08BF45794FF001040CBF04FA05F577
:1092E0004FF0FF35EDE7042E0CD8DFE806F0030D54
:1092F00018242E0030B1C85CD75C784028420CBFDF
:10930000012000200133E0E70028FBD0C856D756E3
:10931000A0EB070CDCF1000040EB0C00F2E70028AA
:10932000F0D031F8130032F81370784028420CBFA7
:1093300001200020E6E70028E4D031F9130032F9DB
:109340001370C71B78427841DCE70028DAD051F867
:10935000230052F82370784028420CBF01200020DF
:10936000D0E7024B0146186835F08EBFC84900208F
:1093700038B5064D441E14F8011F286819B9BDE818
:10938000384035F074BF35F07FFFF4E7C84900205E
:109390000048EDE777B6050808B5FFF7E9FFBDE837
:1093A0000840F5E710B504460348FFF7E1FF204603
:1093B000BDE81040F0E700BF307B050838B5074C2A
:1093C000074DAC4203D3074B00221A7038BD6288A8
:1093D000D4E9010146F05CFB1434F2E7A001000877
:1093E000680700085484002038B5074C074DAC428C
:1093F00003D3074B01221A7038BD6288D4E90110EB
:1094000046F046FB1434F2E7A001000868070008A4
:1094100054840020024A136823EA00001060704759
:1094200070B40020DFED2E7AB4EEE70AF1EE10FA08
:109430004ADDDFED2C6A9FED2C7A01E0B0EE670A81
:10944000B4EEC70AF1EE10FA70EE667AF6DC9FED24
:10945000277AF4EEC77AF1EE10FA3ED5DFED216AF5
:109460009FED237A01E0F0EE407AF4EEC77AF1EE58
:1094700010FA37EEA60AF6D4DFED1E7AB4EEE70A4C
:10948000F1EE10FA14DDDFED167A37EEC00A60EE69
:10949000006A9FED196A9FED197ADFED197AA6EE41
:1094A000867A20EE266AE6EE877AA6EE270A7047CD
:1094B000DFED147AB4EEE70AF1EE10FA44BFDFED07
:1094C0000B7A37EEC00AE2E79FED087AF0EE407AB9
:1094D000F4EEC77AF1EE10FAC0D4B0EE670ACBE72B
:1094E000DB0F4940DB0FC940E4CB1641DB0F49C01D
:1094F000E4CB16C1DB0FC93F92E741B99730083C76
:1095000015A82ABEDB0FC9BFF0EEC07AB0EEE07A34
:10951000B4EEE77AF1EE10FAB4BFB0EE676AB0EEDF
:10952000476AB5EE406AF1EE10FA46D0B4EEE77A3B
:10953000F1EE10FA8CBFF0EE675AF0EE475AC5EE26
:10954000866A9FED1F3A9FED1F6A9FED1F4A9FEDB0
:109550001F5ADFED1F3ADFED1F4ADFED1F5AA6EE5F
:10956000C36AE6EEA34AA6EE864AB7EE006AA6EE06
:10957000845AA6EEA46AE6EE855AC5EE866AB4EE73
:10958000E77AF1EE10FA48BFDFED147AF5EEC00A83
:1095900048BF77EEE66AF1EE10FA48BFDFED107AC9
:1095A000B5EEC00A48BF77EEE66AF1EE10FA48BFA2
:1095B000F1EE666AB0EE660A7047DFED076ADEE735
:1095C00039094E3DE3B59E3E88FA163E45FE7F3F83
:1095D00099FB243F69A2163EA7DFA834DB0FC93FE1
:1095E000DB0F4940DFED317A30EE277AFDEEC76AB6
:1095F00016EE903A2033402B02D99FED2D0A70478A
:10960000B4EEE70AF1EE10FA4DDD9FED2A6ADFEDC8
:109610002A6A01E0B0EE677AB4EEE67AF1EE10FA6B
:1096200077EE467AF6DC9FED257AF4EEC77AF1EE16
:1096300010FA35D5DFED1F6A9FED217A01E0F0EEDB
:10964000407AF4EEC77AF1EE10FA37EEA60AF6D4B5
:10965000DFED167AB4EEE70AF1EE10FA1BDCDFED6F
:10966000197AB4EEE70AF1EE10FA44BFDFED137A8F
:1096700037EEC00A60EE006A9FED136A9FED137A21
:10968000DFED137AA6EE867A20EE266AE6EE877A7A
:10969000A6EE270A7047DFED0F7A37EEC00AE9E73A
:1096A000B0EE670AD4E7F0EE477ABCE7DB0FC93FBC
:1096B00000000000DB0FC940E4CB1641DB0F49C0BE
:1096C000E4CB16C1DB0FC9BF92E741B99730083C24
:1096D00015A82ABEDB0F494010B44C09012250F8EE
:1096E000243001F01F0102FA01F123EA010340F8DE
:1096F00024305DF8044B704710B44C09012250F837
:10970000243001F01F0102FA01F10B4340F824302C
:109710005DF8044B704700BF4B0901F01F0150F882
:109720002320012303FA01F1114214BF184600203F
:10973000704700BF2DE9F043002489B006460D466E
:109740001F46A04605E025290CD030460134A84725
:10975000039A531C039311780029F4D1204609B0D1
:10976000BDE8F083931CCDE903385078302842D00F
:10977000A0F13003DBB2092B4FF0000945D96C286A
:109780002AD0642873D019D9732858D063D9752882
:1097900040F0828007F1040C386805AB00220A21F2
:1097A0006746FEF75DFD05AB049A009329464B46DC
:1097B0003046FEF72BFC039A0444CAE725283CD028
:1097C00051D958286BD06328C2D139783046A84780
:1097D00004370134039ABCE7039B5A1C03921B789D
:1097E000642B52D016D8252B27D064D9582B18D0EB
:1097F000632BEAD0ADE7D31C03939078A0F130033C
:10980000DBB2092B4FF00109B9D804AA03A93AF039
:10981000F7F8B4E7732B12D051D9752B2DD0782BD4
:1098200097D1A3F15802B2FA82F23868520905AB17
:1098300010210437FEF714FDB5E7252185E73B68C5
:10984000049A0093294600233046FEF7DFFB0437D5
:109850000444039A7DE76E287FF47AAF039A3B684D
:1098600004371C6075E700283FF478AF70E738686C
:1098700005A9FEF7BFFC043795E7386805AB002261
:109880000A21FEF7EDFC04378DE73B1D386805A97A
:109890001F46FEF7AFFC86E778287FF459AFA0F1AA
:1098A0005802B2FA82F23868520905AB1021FEF76D
:1098B000D7FC043777E7002B3FF450AF49E76E2B16
:1098C000CDD046E710B5064C0B4602460549206848
:1098D000FFF730FF2068BDE8104035F0C8BC00BF7E
:1098E000C8490020A987000838B504460D46084835
:1098F000FFF73EFD29462046FFF7E4FF0548FFF746
:1099000037FD054B1B7813B1044B01221A7038BD8B
:10991000357B0508407B0508244B0020254B0020A3
:109920000FB407B504A951F8040B0191FFF7DCFF50
:10993000FFF72EFD03B05DF804EB04B0704713464B
:109940000A4601460048EBE7447B05080048E7E784
:109950005D7B05080FB407B504A951F8040B01910C
:10996000FFF7C2FF03B05DF804EB04B070470FB41B
:1099700007B504A951F8040B0191FFF7A3FFFFF706
:1099800007FD03B05DF804EB04B070470FB407B5F2
:1099900004A951F8040B0191FFF794FF03B05DF89F
:1099A00004EB04B070472DE9F843037903F0E001BC
:1099B000202928D002D849B1BDE8F883402945D0F4
:1099C0006029F9D12448BDE8F843D0E703F0070344
:1099D000022B02D0042B08D06BB9B0F80720B0F8E6
:1099E00005101E48BDE8F843C1E7D0F805201B4824
:1099F000BDE8F843BBE7B0F90720B0F905101748F8
:109A0000BDE8F843B3E74579154E1648FFF7B0FCBB
:109A100006EBC502002492F804800123A04502D879
:109A2000BDE8F843B4E456F8357057F824204FEAFF
:109A300084094AB113B90C48FFF79AFC57F809108A
:109A40000A48FFF7A3FF00230134E7E741790848FC
:109A5000BDE8F8438BE700BFA57B0508697B0508D7
:109A600050440508807B0508917B050890AB0508EC
:109A7000947B05082DE9F0411746027902F0E003D6
:109A8000402B05460E462BD10024554FDFF8708140
:109A900015E02B7903F00703022B15D0032B19D007
:109AA000012B14BF315D31573846FFF76FFF6B79DB
:109AB000013BA34202DD4046FFF75AFC01346B79BB
:109AC000A342E6DCBDE8F08136F814103846FFF713
:109AD0005DFFECE736F914103846FFF757FFE6E76D
:109AE00002F00702042A5DD8DFE802F0031D2527F3
:109AF0002A003478202B3AD068D8002BE2D1B5F870
:109B00000560B5F8078036482146FFF73FFFA642BB
:109B100040DCA0453EDB002FD4D0424631463148E0
:109B2000BDE8F04132E796F90040202B1FD04DD818
:109B3000002B3DD0C6E73488DCE7B6F90040F4E7F7
:109B4000D6F80080202B444611D03FD8002BB9D145
:109B500041462348FFF71AFFD5F80510884519D864
:109B6000002FAFD02048BDE8F0410FE700246A790C
:109B70001E4B03EBC2010979A1420BDD53F83230D1
:109B800053F82400BDE8F041FFF7F2BB1848BDE8E8
:109B9000F041FBE6FFF7FCFB224629681548BDE8CB
:109BA000F041D7E6202BE1D007D8002B8AD11C4604
:109BB000B5F90560B5F90780A5E7602BE6D0802BE5
:109BC00080D131460C48BDE8F041DFE6602BF6D18C
:109BD0006A791441E307D9D50848BDE8F041D5E6D4
:109BE0007D7B0508DCAB0508BF7B050850440508F4
:109BF000C9A50508C57B050890AB0508BA7B050813
:109C0000BD7B05080CB407B510F020000BD079B966
:109C10002320FFF7A6FB05A904980191FFF752FE48
:109C2000FFF7B6FB012003B05DF804EB02B070470C
:109C30000020F8E70CB4C30607B500D561B905A943
:109C400004980191FFF73EFEFFF7A2FB012003B04D
:109C50005DF804EB02B070470020F8E70EB400B5E1
:109C600084B005AB019053F8042B0649039301A877
:109C7000FFF760FD019B00221A7004B05DF804EB51
:109C800003B070470180000870B406688E4217D98F
:109C90000139751E002311F8014F0822634013F0AB
:109CA000800F4FEA430318BF83F0D503013ADBB2BC
:109CB000F5D18D42EFD1721C0260337070BC7047D9
:109CC000721C00230260337070BC70470A449142DA
:109CD00015D010B40139541E11F8012F082350403B
:109CE00010F0800F4FEA400018BF80F0D500013B14
:109CF000C0B2F5D1A142EFD15DF8044B7047704777
:109D00004840082310F0800F4FEA400018BF80F051
:109D1000D500013BC0B2F5D1704700BF0A44914263
:109D200015D030B40139551E41F2210211F8014F0E
:109D3000082380EA042004044CBF82EA400040006B
:109D4000013B80B2F7D18D42F0D130BC70477047F3
:109D500070B502221349144C144E4FF6FF70FFF7F2
:109D6000DDFF22884AB1A518B54218D2052A16D9B6
:109D70002146FFF7D3FF2C46F3E721460222FFF7E7
:109D8000CDFF0222A118FFF7C9FF094BE41A094BC6
:109D90001C8041F60F53C31A5842584170BD002031
:109DA000FCE700BF004000080240000800800008F7
:109DB000FA3F0008568400200F4B2DE93048D3E9C4
:109DC000004554EA05020AD1034640F20112002080
:109DD0001880988098715A801881BDE83088074BA8
:109DE0001A6814EB020B45F1000C5A466346FEF765
:109DF00049F90120BDE83088D05F00209C8F002009
:109E000030B403888278C478154DA3F5FA6303F063
:109E1000030101EB4101013A02EB81029B0835F895
:109E200012500279611E40F2B55404FB03132B4417
:109E300003EB430302EBC3034279847909490089A8
:109E4000C3EB031302EB83032144C3EB031301EBC6
:109E500083034FF47A720021C2FB030130BC7047C8
:109E60008011050880436D382DE9F04707468CB016
:109E70001E469246002A5CD1154614460A88B2F561
:109E8000FA6F36D38B78581E0B2832D891F803C05E
:109E90000CF1FF301E282CD891F804E0BEF1170F0A
:109EA00027D891F80590B9F13B0F22D888793B2843
:109EB0001FD8B1F80880B8F57A7F1AD24FF00108A0
:109EC0005EBB09890491002CB4BF2D212B21002CED
:109ED000B8BF6442CDE90290CDE905140795CDE9FC
:109EE00000CE38462A49FFF7B9FE40460CB0BDE81F
:109EF000F08700232749ADF828304FF0010C1846B1
:109F00008DF82A30ADF82C3099469E461A46984670
:109F10000991634609A9002ED3D0CDE90290CDE97D
:109F200000CE38461C49FFF799FE40460CB0BDE80C
:109F3000F0871A4C84FB0234A318D417C4EB6314C3
:109F4000C4EB0415A2EB85052DB2002D0846B8BF61
:109F50006D42FFF755FF4FF47A7200238046894621
:109F600045F00CFB3C230AFB030A4FF47A720023F2
:109F70004046494645F002FB4FF47A7192B2002305
:109F8000C1FB0A2309A8FEF77DF824B209A975E7E9
:109F9000287C050800000101087C0508898888885C
:109FA0000378202B024600F10100F9D0092BF7D0ED
:109FB0002D2B00F0A4802B2B03BF5378B7EE000AA3
:109FC0000246B7EE000AA3F13001C8B209289FED9E
:109FD000577A10D8F2EE046A07EE901AF8EEE77A94
:109FE00012F8013FE7EE267AA3F13001C8B2092842
:109FF000B0EE677AF0D92E2B63D003F0DF03452B48
:10A0000002D020EE070A704710B451782D294FD0A6
:10A010002B2979D0A1F13003092B02F101027AD862
:10A020000024002303EB830301EB430312F8011F19
:10A03000A1F130000928A3F13003F3D9B3F59A7FD9
:10A040001A4628BF4FF49A72072B6CD9DFED386A95
:10A050001346F7EE007A083B072B67EEA67AFAD88C
:10A0600002F00702DAB1F2EE046A012A67EEA67A7C
:10A0700015D0022A67EEA67A11D0032A67EEA67AD7
:10A080000DD0042A67EEA67A09D0052A67EEA67AD3
:10A0900005D067EEA67A062A18BF67EEA67A002CCE
:10A0A0003BD087EE277A5DF8044B20EE070A704715
:10A0B0009178A1F13003092B02F1020230D801247A
:10A0C000AFE75378A3F13001C8B2092802F10102C9
:10A0D00093D8F2EE046AF0EE665A07EE901AF8EEA4
:10A0E000E77A12F8013F87EEA66AA3F13001C8B201
:10A0F000092866EEA56A37EE067AEED97DE7537831
:10A10000BFEE000A02465EE79178A1F13003092B09
:10A1100002F1020284D9F7EE007A27EE277AC2E72D
:10A12000F7EE007ABDE7F7EE007A9BE7000000004B
:10A1300020BCBE4CB5EEC00ADFED317AF1EE10FA6C
:10A14000CCBF30EE270A30EE670ADFED2E7A20EE24
:10A15000270A30B5FDEEC07A87B017EE904A054663
:10A1600084EAE470002303A9A0EBE470CDE9003396
:10A1700002933BF07BF9002CACBF20232D2303A8D6
:10A180008DF8003044F004FD012803A924D00228F2
:10A190002DD0032805BF3023684668468DF801306E
:10A1A00046F0A2FF684644F0F3FC0338C4B22246EE
:10A1B0006946284646F0CEFF00232B55284644F03A
:10A1C000E7FC2E22431C2A540DEB0401E81846F04C
:10A1D000A7FF284607B030BD302368468DF8013010
:10A1E0008DF802308DF8033046F07EFFDAE7302339
:10A1F00068468DF801308DF8023046F075FFD1E7E2
:10A200006F12033A00007A44F8B506461546084630
:10A21000B6FBF2F434B905FB14640C4B1B5D00F87B
:10A22000013BF8BDB4FBF2F75FB905FB1747074BDD
:10A2300005FB1464DA5D00F8012B1B5D00F8013B9F
:10A24000F8BD3846FFF7E0FFEFE700BF587C050890
:10A2500002B370B48E1803E0121B14D1B14215D0B2
:10A2600010F8012BA2F14103192B11F8013BA3F1C6
:10A27000410598BF2032192D03F12004ECD9D21AE0
:10A2800001D1002BEAD1104670BC70470022104665
:10A2900070BC70471046704770B5044608460D46BE
:10A2A00044F076FC064602E014F8013F43B1324622
:10A2B00029462046FFF7CCFF0028F5D1204670BD87
:10A2C0001C46204670BD00BF4FF0FF32FFF7C0BFF5
:10A2D000A0F16103192B98BF20387047A0F141030A
:10A2E000192B98BF20307047202805D00938042842
:10A2F0008CBF002001207047012070472DE9F041FC
:10A300001F46064603461C782046FFF7EDFF1D4614
:10A3100001330028F7D12B2C51D02D2C24D0102A1A
:10A32000804628D04FF0FF33B3FBF2F302FB03FC6F
:10A330006FEA0C0C5FFA8CFC013500200BE0303C1E
:10A34000E4B2944225DA98422E461DD81AD002FB78
:10A35000004015F8014B392CF1D944F02004602C51
:10A3600017D9573CE4B2ECE74FF00108102A6C789B
:10A3700005F10105D6D1302C23D06FF070434FF09A
:10A380000F0CD9E76445E2D907EA08084FF0FF301F
:10A39000DFE701B10E60B8F1000F08D027B1B0F1CE
:10A3A000004F28BF4FF000404042BDE8F081002F31
:10A3B000FBD06FF00043984228BF1846F5E780466F
:10A3C000D4E76C782046FFF789FF782805F101066D
:10A3D00005D035466FF070434FF00F0CACE7AC780A
:10A3E0006FF0704302354FF00F0CA5E701230A22EE
:10A3F000002183E770B50D461446FEF711FF0646AF
:10A40000A0B1FFF7F3FF40F634039842A8BF184607
:10A41000B0F5617FB8BF4FF461701923A0F561708A
:10A4200090FBF3F028702378013323703046FEF759
:10A43000F7FE0646A0B1FFF7D9FF40F63403984275
:10A44000A8BF1846B0F5617FB8BF4FF461701923FB
:10A45000A0F5617090FBF3F06870237801332370EE
:10A46000304670BD613819288CBF0020012070472C
:10A47000413819288CBF0020012070473038092846
:10A480008CBF002001207047A0F13003092B07D9B1
:10A4900020F02000413819288CBF0020012070478F
:10A4A0000120704707EE901AF8EE677A9FED807AE8
:10A4B00027EE800A20EE070AFDEEC07A17EE903AEA
:10A4C0002033402B7BD8DFED7B7AB4EEE70AF1EE48
:10A4D00010FA40F3E180B0EE407A9FED776ADFED4D
:10A4E000776A01E0B0EE677AB4EEE67AF1EE10FA40
:10A4F00077EE467AF6DC9FED727AF4EEC77AF1EEEB
:10A5000010FA40F1CC809FED6C6ADFED6E6A01E0DD
:10A51000F0EE477AF4EEE67AF1EE10FA37EE867A4C
:10A52000F6D4DFED697AB4EEE77AF1EE10FA40F393
:10A53000A280DFED607A37EEC77A27EE076ADFED9B
:10A54000635ADFED637ADFED636A9FED635AE6EEEF
:10A55000257A67EE065AE6EE276AF7EE007AA5EE50
:10A56000A67AF0EE675AE7EE055AE7EE457A87EEEF
:10A57000A55ADFED557A30EE277AFDEEC76A16EE62
:10A58000903A2033402B1FD99FED547AF6EE006AA3
:10A59000B7EE006AF7EE004AC4EEA57A80ED045AE1
:10A5A00067EEA66A27EE866A27EE877AC0ED006A14
:10A5B000C0ED026A80ED016A80ED037A7047B7EE64
:10A5C000005AF0EE455AD4E7B4EEE70AF1EE10FA7D
:10A5D0006BDD9FED396ADFED396A01E0B0EE677A35
:10A5E000B4EEE67AF1EE10FA77EE467AF6DC9FEDFD
:10A5F000347AF4EEC77AF1EE10FA53D59FED2E6A55
:10A60000DFED306A01E0F0EE477AF4EEE67AF1EE43
:10A6100010FA37EE867AF6D4DFED2B7AB4EEE77ACD
:10A62000F1EE10FA33DCDFED2E7AB4EEE77AF1EEDC
:10A6300010FA44BFDFED227A37EEC77A27EE076AB9
:10A64000DFED224ADFED226ADFED227AE6EE246AB0
:10A6500067EE064AE6EE267AB7EE006AA4EEA77A1F
:10A66000F6EE006A36EE476AF8EE007A27EE277AB1
:10A6700066EE266A8EE7DFED1A7AB4EEE77AF1EE3F
:10A6800010FA44BFDFED0E7A37EEC77A55E7DFEDFB
:10A69000097A37EEC77AD1E7F0EE407A2BE7B0EED1
:10A6A000677A3EE7B0EE677AB6E7F0EE477A9EE764
:10A6B00027D4D236DB0F4940DB0FC940E4CB16412B
:10A6C000DB0F49C0E4CB16C1DB0FC93F92E741B9AC
:10A6D0009730083C15A82ABEF304353F000000005F
:10A6E000DB0FC9BF07EE901AF8EE677A9FED837A09
:10A6F00027EE800A20EE070AFDEEC07A17EE903AA8
:10A700002033402B00F28180DFED7D7AB4EEE70A42
:10A71000F1EE10FA40F3E680B0EE407A9FED796AF0
:10A72000DFED796A01E0B0EE677AB4EEE67AF1EE39
:10A7300010FA77EE467AF6DC9FED747AF4EEC77A7B
:10A74000F1EE10FA40F1D1809FED6E6ADFED706A94
:10A7500001E0F0EE477AF4EEE67AF1EE10FA37EE29
:10A76000867AF6D4DFED6B7AB4EEE77AF1EE10FA82
:10A7700040F3A780DFED627A37EEC77A27EE076AEB
:10A78000DFED655ADFED657ADFED656A9FED655AAD
:10A79000E6EE257A67EE065AE6EE276AF7EE007ACD
:10A7A000A5EEA67AF0EE675AE7EE055AE7EE457A8F
:10A7B00087EEA55ADFED577A30EE277AFDEEC76AAD
:10A7C00016EE903A2033402B24D99FED577AF6EEBF
:10A7D000006AB7EE006AF7EE004AC4EEA57A0023DD
:10A7E000836143610362C36180ED045A67EEA66A28
:10A7F00027EE866A27EE877AC0ED006AC0ED026A0E
:10A8000080ED016A80ED037A7047B7EE005AF0EEF2
:10A81000455ACFE7B4EEE70AF1EE10FA6BDD9FED93
:10A82000396ADFED396A01E0B0EE677AB4EEE67AB4
:10A83000F1EE10FA77EE467AF6DC9FED347AF4EE1C
:10A84000C77AF1EE10FA53D59FED2E6ADFED306A2C
:10A8500001E0F0EE477AF4EEE67AF1EE10FA37EE28
:10A86000867AF6D4DFED2B7AB4EEE77AF1EE10FAC1
:10A8700033DCDFED2E7AB4EEE77AF1EE10FA44BF66
:10A88000DFED227A37EEC77A27EE076ADFED224A3C
:10A89000DFED226ADFED227AE6EE246A67EE064AF1
:10A8A000E6EE267AB7EE006AA4EEA77AF6EE006A24
:10A8B00036EE476AF8EE007A27EE277A66EE266AC9
:10A8C00089E7DFED1A7AB4EEE77AF1EE10FA44BFC9
:10A8D000DFED0E7A37EEC77A50E7DFED097A37EE13
:10A8E000C77AD1E7F0EE407A26E7B0EE677A39E72B
:10A8F000B0EE677AB6E7F0EE477A9EE727D4D23615
:10A90000DB0F4940DB0FC940E4CB1641DB0F49C0E8
:10A91000E4CB16C1DB0FC93F92E741B99730083C41
:10A9200015A82ABEF304353F00000000DB0FC9BFA5
:10A9300030B402681146531C036011F8024B0160E9
:10A94000D31C517803609378151D05601B0443EAFE
:10A950000123D078234343EA006030BC704700BF36
:10A960000368591C1A46016012F8021B02605878ED
:10A9700041EA0020704700BF03685A1C0260187843
:10A98000704700BF70B5044608460E4644F000F913
:10A99000314605460246206845F07AF8206828448A
:10A9A000206070BD38B504460068154645F070F863
:10A9B00022682A44226038BD036810B40A0E5C1C69
:10A9C00004601A7003680A0C5C1C04601A70036847
:10A9D0000A0A5C1C04601A7003685A1C0260197031
:10A9E0005DF8044B704700BF036810B40A0A5C1C92
:10A9F00004601A7003685A1C026019705DF8044BF9
:10AA0000704700BF03685A1C026010B419700368D5
:10AA10000A0A5C1C04601A7003680A0C5C1C04605F
:10AA20001A700368090E5A1C026019705DF8044B15
:10AA3000704700BF03685A1C026019700368090A56
:10AA40005A1C02601970704770B544880546C4F3FB
:10AA50000B0422460846002146F03EFB2969094ABC
:10AA60009142034602D3084A914204D341B11846A9
:10AA7000BDE8704008472246BDE8704045F008B880
:10AA800070BD00BF68070008F208000838B5064C22
:10AA9000064DAC4206D2616820461434FFF7D4FF5D
:10AAA000AC42F8D338BD00BFA00100086807000819
:10AAB000084B09498B4203D309E014338B4206D279
:10AAC0001A88C2F30B029042F7D118467047002350
:10AAD00018467047A0010008680700082DE9F74FE5
:10AAE000DFF8C0B081468A460025D8462A4B0D249F
:10AAF00018686C4334F0BBFB04EB0B031B7903F0C9
:10AB000018034B4504D0B9F1000F3ED1182B3CD1AE
:10AB10000D2303FB05820093B2F80900FFF7C8FF7D
:10AB2000444407462046FEF788FBD7E90121064644
:10AB3000024401442046FEF7BBFB1AF0100F024608
:10AB4000009B00D008BB03FB05831AF0200F1B6895
:10AB50000FD072B91946114800930192FEF716FF03
:10AB60007968019A31442046FEF784FFFEF710FC15
:10AB7000009B0B481946FEF709FFB96800223144D3
:10AB80002046FEF777FFFEF703FC0135B5F5F67FAB
:10AB9000ACD103B0BDE8F08FC8490020DF7B0508C9
:10ABA000E07B05084C49050870B50546B0F809007A
:10ABB000FFF77EFF064B1E7804462846FEF73DFB56
:10ABC00016B1A368184470BD63681844FBE700BF62
:10ABD0005484002038B505460C46FFF7E5FF2A7976
:10ABE00002F0070302F0E002602A28D1022B0ED007
:10ABF000042B18D03BB96A7901239340DBB2027869
:10AC000014B11343037038BD22EA0303FAE76A79EB
:10AC1000012393409BB2028814B113430380F2E7EF
:10AC200022EA0303FAE76A79012303FA02F20368CE
:10AC300014B113430360E6E723EA0203FAE7042BA7
:10AC4000E1D8DFE803F00303050507000470DAE745
:10AC50000480D8E70460D6E738B50D460446FFF710
:10AC6000A3FF2A4601462046BDE83840FEF702BF52
:10AC700010B5184B0446D02C18681CD0C02C0DD130
:10AC800001211FF00BFF144B186808B11EF016FCD1
:10AC900021461248BDE8104034F0C0BA00211FF030
:10ACA000FDFE0D4B18680028F0D121460B48BDE889
:10ACB000104034F0B3BA01211FF0F0FE064B1868C3
:10ACC0000028E5D01EF000FC21460448BDE81040F5
:10ACD00034F0A4BA20900020289000201490002086
:10ACE0002DE9F043934C237F8BB0002B00F0B6800E
:10ACF0008146002540219048D4F81880257734F00B
:10AD00004BF900F00303022B00F0EF8010F0210656
:10AD10001CD18A4FA37F3A780B2A00F09581002B33
:10AD20000CBF05251525F020FFF7A2FF2B466A462C
:10AD30004521814834F0D1F9A57F002D00F04481F0
:10AD40009DF80030552B00F00D813546C020FFF7EF
:10AD50008FFF637F002B40F08780606D002800F03C
:10AD600094801FF0BFFD94F85830002B00F0AA80AB
:10AD7000002840F0A780724A84F858006F4B714E4B
:10AD80001B780B2B4FF00003736008BF0D2123626B
:10AD900018BF0021C6E902330F201370A377636345
:10ADA00013F08CFFA37F002B77D0644F1AF0E6FEE0
:10ADB0007E680246D6F800C0E06D652101FB0CF10B
:10ADC000101A88420AD9E16CE26563299ABFC1F181
:10ADD000640189B2002100236187E364216EF36876
:10ADE000511A994203D90123226684F83830D4E9F4
:10ADF0001001131A8B421ED9B3FBFCF6012E98BF2B
:10AE00004218A0202264FFF733FFE37F334403F0AE
:10AE10000F03E2180F2092F82010E37713F04EFF93
:10AE2000C020FFF725FFA36C1F2B77D87A68126824
:10AE30000133C4E91123444B186800283ED0022D89
:10AE400000F0F680B4F86430B3F57A7F3FD2013376
:10AE50002846A4F864300BB0BDE8F08303F0FF058A
:10AE6000637F002B3FF479AF1AF088FEE36BC01AC2
:10AE7000B0F5FA7F7FF671AFD020FFF7F9FE606D75
:10AE80000023637700287FF46CAF2D4A1378002BE2
:10AE90007FF474AFA37F002B87D11AF06FFE236D70
:10AEA0002A4AC01A904202D994F820303BBB284B62
:10AEB000284A1B681268FA33934210D928460BB00F
:10AEC000BDE8F0831E4A84F858001378DFE7204B72
:10AED000204A1B68126803F57A739342EED80CF08F
:10AEE000DBFC28460BB0BDE8F083A37F002B40F0CD
:10AEF0000181C020FFF7BCFE0025637F2AE7636B5A
:10AF0000002BD4D0144EA366A6F14C030FCB012521
:10AF100086E80F00A5771AF069FAC8E70F4B7A6840
:10AF20001B7892686264032B85D10D4B00221A8036
:10AF300081E700BF1816002014900020980100201F
:10AF4000CC83002038160020F8340020400D030088
:10AF5000F43400209C8F002084160020582100200B
:10AF60006C210020DDF80120636B9A427FF4EDAE86
:10AF7000FDF736FB7A68E36C5268C4F84080013311
:10AF8000C4E91126E364B9F1000F0DD00AAB53F800
:10AF9000232DC9F8002059689A68DB68C9F80410A5
:10AFA000C9F80820C9F80C30E37F013303F00F0320
:10AFB000E2180F2092F82010E37713F07FFEA37FB2
:10AFC0000225002B7FF4C2AE9DF80030AA2B7FF43F
:10AFD000BDAE7868DDF801604068E36C6064C6F37C
:10AFE000031001309649974A666306F00F0C01334F
:10AFF00000270928C4F8408028BF092001EB0C1164
:10B00000E36402F11006A76411F8013B1B1A02F871
:10B01000013FB242F8D1E37F03F00F03E2180F20A3
:10B0200092F82010E37713F049FEC4F850808DE6C3
:10B0300094F866300022A4F8642013B91EF044FA94
:10B040003CE71EF03BFA39E7002B0CBF1B252525FA
:10B05000F020FFF70DFE2B466A4645217A4834F072
:10B060003CF89DF80030AA2B54D04FD9BB3B012BA4
:10B0700037D8A37F002B77D17968E26C4968616487
:10B080009DF80B10C4F840800132FF29C4E9123248
:10B090006CD00AAD04F1200655F81D0D6968AA6848
:10B0A000EB680FC64FF0FF33226BDDF80110CDF8CF
:10B0B0000520CDF80B300122E0206B60AB60EB6027
:10B0C0002B616B612B8361636277C4F85080C4F895
:10B0D0003C80FFF7CDFD6A46252305215A4833F011
:10B0E000A3FF0025637F002B7FF4BEAEC020FFF7D7
:10B0F000BFFD32E6E37F013303F00F03E2180F20B8
:10B1000092F82010E37713F0D9FDF2E6562B01D028
:10B11000582BE6D1DDF80520236B9A42E1D1DDF80A
:10B120000120636B9A42DCD1FDF75AFAE36C79682F
:10B130009DF800204968C4F8408001330025582A52
:10B140006164C4E9125314D0637F002B7FF48CAE8A
:10B15000E37F013303F00F03E2180F2092F8201071
:10B16000E37713F0ABFDBDE73546BBE70DF10B050B
:10B1700098E7B9F1000F16D00AAB53F81F0DC9F8C4
:10B1800000009A685968C9F80820DA68C9F80410FC
:10B190001869C9F80C2059699A69C9F81000C9F8EA
:10B1A0001410C9F8182094F838300BB90225CBE7F1
:10B1B000264BA08A1B88618F7E788DF80B301A0A87
:10B1C0008DF80C20020A402E4FEA11238DF8102032
:10B1D0004FF0FF324FF0000528BF40268DF80F00DA
:10B1E0008DF813108DF81430AA21FE23CDF8192004
:10B1F000CDF81520CDF81D20CDF82120E020FC222F
:10B200008DF800108DF809508DF80A508DF80E5009
:10B210008DF812508DF80D208DF81130FFF728FDB4
:10B2200033466A460521084833F0FEFE1522012305
:10B2300084F83850C4F83C807A706377022513E6AE
:10B24000FC1105083716002014900020A05E002095
:10B250002DE9F0410646807B88461DF007FF054634
:10B26000002836D0474F307B33783B70002843D1DD
:10B27000454B464C1860F07A00286ED160653B78EB
:10B280000B2B53D00823424E88F8003028467E60AE
:10B2900037F06CFB06F1100037F032FB0021A36E93
:10B2A000CBB9A3773B4B1A780AB903221A700F2047
:10B2B00013F004FDC020FFF7DBFC1AF05FFC7A6896
:10B2C000E36C5268626401330022C4E912232064F3
:10B2D0000120BDE8F081304D636305F14C030FCBD5
:10B2E00085E80F00E37F03F00F03E118012291F8D6
:10B2F0002010E377A277D5E71DF0B8FE224C20603E
:10B3000018B1052200238271C37101211EF02AF8B1
:10B31000737B20681D4C1A1C18BF012284F866201C
:10B320000028A8D053BB1EF0C9F8A4E70E221B4B7F
:10B330001B4988F800201B4A09681B6812681A4ECE
:10B340007E604B4053402846236337F00FFB06F1E5
:10B35000100037F0D5FA0D21A1E71DF087FE6065DA
:10B3600018B1272200238271C37120211DF0FAFF3A
:10B37000606D1FF0B7FA84F8580080E71EF0A4F85B
:10B3800079E700BF98010020F8340020181600204B
:10B39000401305085821002038160020107AFF1F9E
:10B3A000147AFF1F187AFF1FFC1205081378A3B147
:10B3B0001D2812DC70B41E24084E14FB0101151A5E
:10B3C0002819314401E0824205D001F8013F12F80A
:10B3D000013F002BF7D170BC70477047736A0020A3
:10B3E0002DE9F84FDFF8B48298F8003003B1FEE79A
:10B3F000A54EA64BA64D1B8804467068028822F015
:10B4000040021204120C012788F8007002800288A2
:10B4100022F038021204A8424FEA124200F0C98119
:10B4200005F58065A84200F0C481B3F5807FA8BF10
:10B430004FF48073022BB8BF0223002B93FAA3F3BF
:10B44000B3FA83F308BF4FF0FF33013B42EAC30373
:10B450009BB203800288B36842F04002028013B1BD
:10B460001A689B8853838B4B828901221A700D4680
:10B4700040F2E93302E0002B00F09D810289013B9C
:10B4800012F0020F9BB2F6D00023838140F2E93321
:10B4900002E0002B00F08F810289013B12F0010FC6
:10B4A0009BB2F6D08389838940F2E93302E0002B16
:10B4B00000F097810289013B12F0020F9BB2F6D097
:10B4C0000023838140F2E93302E0002B00F0898100
:10B4D0000289013B12F0010F9BB2F6D08389838968
:10B4E00040F2E93302E0002B00F077810289013B52
:10B4F00012F0020F9BB2F6D00923838140F2E933A8
:10B5000002E0002B00F069810289013B12F0010F7B
:10B510009BB2F6D08389838940F2E93302E0002BA5
:10B5200000F057810289013B12F0020F9BB2F6D066
:10B53000A4B2848140F2E93302E0002B00F049819B
:10B540000289013B12F0010F9BB2F6D08389524F62
:10B55000013D4FF000094FF00A0B4FF00B0A8389B1
:10B5600040F2E93301E0002B6FD00289013B12F079
:10B57000020F9BB2F7D0A0F80CB040F2E93301E023
:10B58000002B62D00289013B12F0010F9BB2F7D071
:10B590008389838940F2E93301E0002B59D0028985
:10B5A000013B12F0020F9BB2F7D01FFA89F383819F
:10B5B00040F2E93301E0002B4BD00289013B12F04D
:10B5C000010F9BB2F7D08389838915F8014F40F2B0
:10B5D000E93301E0002B40D00289013B12F0020F59
:10B5E0009BB2F7D0A0F80CA040F2E93301E0002BA9
:10B5F00033D00289013B12F0010F9BB2F7D083894F
:10B60000838940F2E93300E0E3B10289013B12F0A3
:10B61000020F9BB2F8D0A4B2848140F2E93300E07B
:10B6200083B10289013B12F0010F9BB2F8D08389EC
:10B63000386809F101091DF031FFB9F1360F10D05A
:10B6400070688CE733F086FCF2E733F083FC7068B7
:10B650009FE733F07FFC7068B6E733F07BFC7068DF
:10B66000CEE7736840F2E932998902E0002A00F0DF
:10B67000AB801989013A11F0020F92B2F6D008227C
:10B680009A8140F2E9320EE0D4840020780D002047
:10B690000038004095700020688F00208D700020D9
:10B6A000002A00F091801989013A11F0010F92B23D
:10B6B000F6D09A899A8940F2E93201E0002A7ED0D8
:10B6C0001989013A11F0020F92B2F7D0A0229A81A3
:10B6D00040F2E93201E0002A71D01989013A11F0F3
:10B6E000010F92B2F7D09A89A02500249A8940F2DE
:10B6F000E93201E0002A57D01989013A11F0020F0E
:10B7000092B2F7D09D8140F2E93201E0002A4BD09D
:10B710001989013A11F0010F92B2F7D09A899A89EA
:10B7200040F2E93201E0002A38D01989013A11F0DB
:10B73000020F92B2F7D09C8140F2E93200E06AB386
:10B740001989013A11F0010F92B2F8D09889C0B26C
:10B750008206CBD4B26812B1116892880A831A8823
:10B76000224922F040021204120C1A801A8822F098
:10B77000380212048B424FEA124205D001F5806173
:10B780008B4218BF42F008021A801A88002142F04A
:10B7900040021A8088F80010BDE8F88F184633F090
:10B7A000D9FB7368C0B2D3E7184633F0D3FB736894
:10B7B000B5E75B0839E633F0CDFB706873E61846F1
:10B7C00033F0C8FB73688FE7184633F0C3FB736828
:10B7D00070E733F0BFFB7068B9E633F0BBFB70680D
:10B7E00099E633F0B7FB706879E600BF0038004097
:10B7F0000388174A23F040031B041B0C03800388B3
:10B8000023F038031B0490424FEA13431DD002F586
:10B810008062904219D0B1F5807FA8BF4FF480714B
:10B820000229B8BF0221002991FAA1F1B1FA81F1F0
:10B8300008BF4FF0FF31013943EAC10189B20180ED
:10B84000038843F04003038070474908E3E700BFE3
:10B850000038004030B5214D6B6883B09A8940F2C2
:10B86000E93200E06AB31C89013A14F0020F92B287
:10B87000F8D080B2988140F2E93200E00AB318892A
:10B88000013A10F0010F92B2F8D09A899A8940F2E9
:10B89000E93200E0E2B11889013A10F0020F92B2E9
:10B8A000F8D089B2998140F2E93200E082B1198979
:10B8B000013A11F0010F92B2F8D09889C0B203B0EA
:10B8C00030BD1846019133F045FB6B680199DDE707
:10B8D000184633F03FFBC0B2F1E700BFD48400202C
:10B8E00008B5838940F2E93300E0A3B10289013B46
:10B8F00012F0020F9BB2F8D089B2818140F2E93395
:10B9000000E043B10289013B12F0010F9BB2F8D075
:10B910008089C0B208BD33F01DFBC0B208BD00BFB6
:10B920002DE9F84FDFF8D882B14BD8F804001B8816
:10B930000288B04922F040021204120C02800288F0
:10B9400022F03802120488424FEA124200F0B48218
:10B9500001F58061884200F0AF82B3F5807FA8BF17
:10B960004FF48073022BB8BF0223002B93FAA3F38A
:10B97000B3FA83F308BF4FF0FF33013B42EAC3033E
:10B980009BB203800388D8F8082043F0400303806B
:10B9900012B1136892885A83838940F2E93302E036
:10B9A000002B00F0C5820289013B12F0020F9BB20E
:10B9B000F6D00523838140F2E93302E0002B00F04A
:10B9C000B7820289013B12F0010F9BB2F6D0838946
:10B9D000838940F2E93302E0002B00F0A48202895F
:10B9E000013B12F0020F9BB2F6D00023838140F29C
:10B9F000E93302E0002B00F096820289013B12F04D
:10BA0000010F9BB2F6D08389838940F2E93302E0CB
:10BA1000002B00F0A1820289013B12F0020F9BB2C1
:10BA2000F6D00623838140F2E93302E0002B00F0D8
:10BA300093820289013B12F0010F9BB2F6D08389F9
:10BA4000838940F2E93302E0002B00F08082028912
:10BA5000013B12F0020F9BB2F6D00023838140F22B
:10BA6000E93302E0002B00F072820289013B12F000
:10BA7000010F9BB2F6D0838983895F4B93F87C409A
:10BA800040F2E93344F0010402E0002B00F05A8256
:10BA90000289013B12F0020F9BB2F6D0042383818E
:10BAA00040F2E93302E0002B00F04C820289013BB6
:10BAB00012F0010F9BB2F6D08389838940F2E933FB
:10BAC00002E0002B00F039820289013B12F0020FE4
:10BAD0009BB2F6D0A4B2848140F2E93302E0002B9D
:10BAE00000F02B820289013B12F0010F9BB2F6D0CD
:10BAF0008389424E3388002B4BD0DFF80891DFF862
:10BB000008A14F4607254FF0200B1AF8014F8389F3
:10BB1000FF2C40F2E93303D1A4E1002B00F0D381E4
:10BB20000189013B11F0020F9BB2F6D0858140F2F2
:10BB3000E93302E0002B00F0C6810189013B11F0DE
:10BB4000010F9BB2F6D08389838940F2E93302E08A
:10BB5000002B00F0B3810189013B11F0020F9BB271
:10BB6000F6D0A4B2848140F2E93302E0002B00F069
:10BB7000A5810189013B11F0010F9BB2F6D08389A9
:10BB80009AF8003007F8013B3188A7EB0903994286
:10BB9000BBDC838940F2E93302E0002B00F0F08146
:10BBA0000289013B12F0020F9BB2F6D0072383817A
:10BBB00040F2E93302E0002B00F0E2810289013B10
:10BBC00012F0010F9BB2F6D08389838940F2E933EA
:10BBD00002E0002B00F0CF810289013B12F0020F3E
:10BBE0009BB2F6D0FF23838140F2E93311E000BF1E
:10BBF000780D00200038004018160020100D00209D
:10BC0000D484002098160020736A0020002B00F0D6
:10BC1000B2810289013B12F0010F9BB2F6D08389F9
:10BC2000AE4B93F87C40838940F2E93302E0002B6D
:10BC300000F09C810289013B12F0020F9BB2F6D00A
:10BC40000423838140F2E93302E0002B00F08E816F
:10BC50000289013B12F0010F9BB2F6D083898389E0
:10BC600040F2E93302E0002B00F07B810289013BC6
:10BC700012F0020F9BB2F6D0A4B2848140F2E933F5
:10BC800002E0002B00F06D810289013B12F0010FF0
:10BC90009BB2F6D083893388002B00F0BF80DFF899
:10BCA00044920024FF27072503E00134A34240F318
:10BCB000B58019F80420FF2AF7D183894FEA242A96
:10BCC00040F2E93302E0002B00F028810289013BB9
:10BCD00012F0020F9BB2F6D00523838140F2E933C4
:10BCE00002E0002B00F01A810289013B12F0010FE3
:10BCF0009BB2F6D08389838940F2E93302E0002BBE
:10BD000000F007810289013B12F0020F9BB2F6D0CE
:10BD10001FFA8AFAA0F80CA040F2E93302E0002BE7
:10BD200000F0F7800289013B12F0010F9BB2F6D0C0
:10BD3000838983895FFA84FA40F2E93302E0002BB9
:10BD400000F0E2800289013B12F0020F9BB2F6D0B4
:10BD50000623838140F2E93302E0002B00F0D48017
