:020000040800F2
:1000000000000120CD3905084D3A0508E95B0308D9
:100010004D5C03084D3A05084D3A05080000000004
:100020000000000000000000000000004D3A05083C
:100030004D3A0508000000004D3A0508995C030898
:100040004D3A05084D3A05084D3A05084D3A050860
:100050004D3A05084D3A050835B3030861B4030865
:1000600025B40308E9B30308ADB30308CD200108A4
:10007000BD200108AD2001089D200108892001084C
:1000800075200108612001084D3A05084D3A050820
:100090004D3A05084D3A05084D3A050871B3030875
:1000A0009DE2000825E300088DE200084DE300080A
:1000B00015E3000805E30008F5E20008DD2001086B
:1000C000012101084D3A05084D3A05084D3A050849
:1000D0004D3A050835DE000829DE00081DDE00085F
:1000E000F9B203084D3A05084D3A05087DE20008CB
:1000F000ADE200084D3A0508D5E200084D200108A0
:100100004D3A05084D3A0508E5E200084D3A050864
:1001100011DE000805DE00084D3A0508EF51010820
:10012000392001082520010811200108FD1F0108C0
:10013000E91F0108000000000000000000000000AE
:100140000000000000000000000000002F5C01081B
:10015000D51F0108C11F0108AD1F01084D3A050850
:100160004D3A05084D3A05084D3A05084D3A05083F
:100170004D3A05084D3A0508000000000000000057
:100180004D3A05084D3A05084D3A05084D3A05081F
:100190004D3A05084D3A0508000000004D3A0508A3
:1001A0000000000000000000000000004D3A0508BB
:1001B0004D3A05084D3A0508000000000000000017
:1001C000000000000000000000000000000000002F
:1001D0000000000000000000000000004D3A05088B
:0801E0001C35050001000000C0
:1001E80010020100EC1F0120E81F012000000000A0
:1001F800C40700081F02100008200120F81F012072
:1002080000000000BD8400080B301A0004490120DA
:10021800FC53012000000000C80700081F3024001C
:10022800CC4801201854012000000000E407000811
:1002380005020400F85101203C5401200000000090
:100248000808000803010A007C48012040540120E6
:10025800000000000C08000803000100845B012076
:10026800945B012000000000000000001010020054
:100278008C5B0120985B0120000000001608000834
:1002880025102C01145901209C5B0120000000005E
:100298000000000019000500B0580120C85C0120CA
:1002A80000000000180800081A000E005855012028
:1002B800D05C0120000000001E080008F82106009C
:1002C800C4570120E05C0120000000002C08000851
:1002D80015007000D4560120E85C012000000000E1
:1002E800000000002A006000EC570120585D012042
:1002F800000000000988010801200C00D4640120D6
:10030800286D012000000000320800080A7028004B
:1003180090630120346D012000000000858A0208E6
:100328000EA05C01346201205C6D01200000000019
:10033800318801080101040090610120B86E012094
:100348000000000000000000000104008861012096
:10035800BC6E0120000000003E08000802010300F6
:1003680084610120C06E01200000000035E004080F
:100378002202140184690120C46E012000000000DB
:10038800D98C00080C109C0004640120D86F01204F
:1003980000000000F9DF0408010205009C6101204B
:1003A8007470012000000000091E02080002050008
:1003B800206801207C70012000000000000000007F
:1003C8001B021000EC67012084700120000000006F
:1003D800258300081E000600706501209470012026
:1003E80000000000420800081B100C003C5F0120C0
:1003F8009C70012000000000F92902082102F00089
:10040800C05D0120A870012000000000DD2802085E
:100418002C001000C87A0120B87A012000000000E2
:1004280055A602082B002400FC7A0120D87A012066
:100438000000000025A6020829207800BC790120C8
:10044800207B01200000000000000000F6210C00C5
:1004580028790120987B0120000000004808000846
:1004680020320A00F47B0120E87B01200000000014
:100478006D8902081C021000B0750120007C012063
:1004880000000000F582000828101000787801208C
:10049800107C012000000000DD8A02081A023C00DE
:1004A800207D0120F87F012000000000898A0008D3
:1004B800270004001C7D012034800120000000007A
:1004C80054080008381001003C7C012038800120C5
:1004D800000000005808000823121000C8890120F5
:1004E800548A0120000000005C080008051006007E
:1004F800C0890120648A0120000000006C080008FF
:1005080037102800048A01206C8A012000000000AE
:10051800720800080E020200B8890120948A01209E
:10052800000000009A08000816100600308201201A
:10053800988A0120000000009C0800082F10220063
:10054800308A0120A08A012000000000A2080008CB
:10055800F5518C0068810120C48A01200000000048
:100568001128020826100C005C8B0120508B0120FA
:100578000000000059300408140003000886012018
:10058800948B012000000000C408000823100E000E
:10059800F0A2012074A4012000000000F58A0208DE
:1005A8000D00340080A2012084A401200000000076
:1005B800A5EA030804008000C4A10120B8A4012012
:1005C800000000000000000013000400A4A10120A6
:1005D80038A5012000000000C8080008FD011E0021
:1005E80084A101203CA5012000000000F5130308A8
:1005F80018202E0050A101205CA501200000000059
:10060800358C000806101A0034A101208CA50120A1
:100618000000000091880108FB01010030A10120C1
:10062800A8A5012000000000A98C0008FC01090011
:10063800FC9F0120ACA5012000000000B98C000837
:1006480016023F00BC9F0120B8A501200000000051
:100658006983000834001000EC9E0120F8A50120F1
:10066800000000006188010811020800C49E0120F2
:1006780008A6012000000000CC080008121204009F
:10068800BC9E012010A6012000000000D40800082C
:1006980012201000AC9E012014A6012000000000CA
:1006A800D8080008F9010400049B012024A60120B1
:1006B80000000000B984030813020400009B012015
:1006C80028A6012000000000E8080008FA0102003E
:1006D800A89801202CA601200000000061850008D0
:1006E80002020300BC8F012030A601200000000098
:1006F800000000000C020400A88F012034A601208D
:1007080000000000A5840008FE011400A095012047
:1007180038A6012000000000398300080702020003
:10072800E8AD01206CAE012000000000EC080008D4
:1007380003123D000CAE012070AE01200000000045
:10074800EE08000802000C00BCAD0120B0AE01208C
:10075800000000000000000006021000ACAD0120FF
:10076800BCAE012000000000258B00080812140010
:1007780034AA0120CCAE0120000000004984000802
:10078800F70106002CAA0120E0AE012000000000BD
:100798002C0900081D02020028AA0120E8AE012049
:1007A80000000000320900080A020A0098A9012086
:0C07B800ECAE012000000000FDE1040890
:1007C40000000000AE014A015E012C016401010039
:1007D400000001000A019A01001E0A000000000046
:1007E40000000000000100000005000001020300F9
:1007F40000000000000000000000000000000000F5
:100804000080070000000000040101006C160000D5
:10081400000000050000280100007E05EA05B4057B
:100824003200E803D00700000401F4011400E803D7
:100834006400040A000114001E00A6000000000069
:10084400010000000000000001000000020200009E
:100854002003000000000000000000000000000071
:100864000000000000000000200001010000200042
:100874003200C800D0079600140032002800B004EB
:1008840040060005500014000F0008006400010039
:10089400010005000A000000C4090000190000005E
:1008A4000000000000000000000000000000000044
:1008B4000000000000000000000000000000000034
:1008C40003000000080044300000000001010101A1
:1008D400FFFFFFFF00000001000005444C46370005
:1008E4000008000000000100013C000000000000BE
:1008F40000000000000000000000000000000000F4
:1009040000000000000000000000000000000000E3
:1009140000000000000000000000000000000000D3
:1009240000000000000001003D0100000000000084
:100934002D44010839390108BD690108000000008F
:1009440000000000BD5B0108B95A01080000000066
:100954000000000000000000312A0108252A0108D7
:10096400192A01080D2A01083501010845850008E6
:10097400418500083D850008258D0008398500085B
:1009840035850008A85A0508FF01FF000068214CBE
:100994001F0000001C0000001F0000001E000000DB
:1009A4001F0000001E0000001F0000001F000000C8
:1009B4001E0000001F0000001E0000001F000000B9
:1009C4000000000004010000000700000000000017
:1009D4000000000000020000100000000000000001
:1009E4000000000007000000B00100000200000049
:1009F4000900000000C20100000008001A03000002
:100A040000000000000000000000000000000000E2
:100A14000000000000000000040309040A060002AC
:100A2400000000400100000009072000010104C08B
:100A3400320904000002080650050705810240003F
:100A4400000705010240000009022000010104C062
:100A5400320904000002080650050705810240001F
:100A6400000705010240000009022000010104C042
:100A7400320904000002080650050705810200023D
:100A840000070501020002000A06000200000040FF
:100A94000100000009026400030100C032090400DF
:100AA40000010300000009211101000122260007B2
:100AB40005830308000A080B01020202010009046D
:100AC40001000102020100052400100105240100B7
:100AD4000204240202052406010207058203080019
:100AE400FF09040200020A00000007050102400099
:100AF4000007058102400000C3440108833901084E
:100B0400C16B010800000000612B0108BF2B010824
:100B14008D2B010800000000000000000000000010
:100B2400492B0108552B01083D2B0108312B0108E5
:100B34000A06000200000040010000000902220031
:100B4400010100E03209040000010301020009214F
:100B5400110100012226000705830308000A000092
:100B64000A060002000000400100000009074300DB
:100B7400020104C03209040000010202010005243C
:100B840000100105240100010424020205240600CA
:100B940001070582030800FF09040100020A00009E
:100BA4000007050102400000070581024000000023
:100BB40009024300020100C03209040000010202DC
:100BC400010005240010010524010001042402028F
:100BD400052406000107058203080010090401002A
:100BE400020A000000070501020002000705810255
:100BF4000002000009024300020100C0320904009F
:100C04000001020201000524001001052401000175
:100C140004240202052406000107058203080010CB
:100C240009040100020A0000000705010240000057
:100C34000705810240000000F86405080000000078
:100C440000000000000000000000000000000000A0
:100C54000000000000000000000000000000000090
:100C640000FFFF0000000000AA550501000001007C
:100C7400120100020000004083042A57000201020E
:100C840003010000120100020200004083044057E7
:100C9400000201020301000012010002EF02014000
:100CA400830456320002010203010000CC640508EB
:100CB4000000000000000000000000000000000030
:100CC4000000000000000000000000000000000020
:100CD40000000000FF1FFF1F05010905A101A1007D
:100CE400050109300931093209330935093409404C
:100CF40009381581257F750895088102C0C0000058
:100D04000921110100012226002D202D2D202D2D39
:100D14002D2D202D2D2D2D000000000000000000A1
:100D24000000000000000000AA550B010000AA55B5
:100D340007010000AA550902000000AA5503009FFC
:100D440001000000C0120000FFFFFFFF7D00000053
:100D54000000803F000000000000000000000000D0
:100D64000000803F000000000000000000000000C0
:100D7400000000000000000000000000000000006F
:100D840000000000000000000000803F00000000A0
:100D9400000000000000000001000000FFFFFFFF52
:100DA4000000803F00000000000000000000000080
:100DB4000000803F00000100E0010100491E02081C
:100DC40000000000446A050820700020702D7200A5
:100DD400FFFFFFFF08FF0101FFFF2D202D2D202D18
:100DE4002D2D2D202D2D2D000000000000000000D1
:100DF40000000000000000000000000000000000EF
:100E040000000000F8810508000000000000000058
:100E14008482050801000000FA00000001000000BF
:100E240001000000D06401200000F4010100000072
:100E3400CE6401200000F40101000000CC64012014
:100E44000000F40101000000CA6401200000F40164
:100E540001000000C86401200000F401010000004A
:100E6400C66401200000F40101000000C4640120F4
:100E74000000F40101000000992602085D26020822
:100E8400F86F0508BE64012005320100BC6401202E
:100E9400E803D00701000000BA640120E803D0078A
:100EA40001000000B8640120E803D007010000003D
:100EB400B66401201E00B80B01000000B4640120D8
:100EC4001E00F40101000000B2640120140064005B
:100ED40001000000C06401203200E80301000000AA
:100EE400B06401200000C80001000000E663012096
:100EF40000C80100E563012000500100E463012003
:100F0400005A0100E2630120020000008470050819
:100F1400C0DD0508C8DD05081EA301200100C409C1
:100F2400000000001CA301200100C409000000000F
:100F34001AA301200100C4090000000018A3012025
:100F44000100C4090000000014A301200100C40929
:100F54000000000016A301200100C40900000000E5
:100F640012A301200100C4090000000010A3012005
:100F74000100C40900000000AF61012000C80100A5
:100F8400AE61012000C80100AC6101200100C8006D
:100F940001000000AA610120320030753200000017
:100FA400A9610120055A0500A661012000FF010086
:100FB400A861012001000000E0050120A4610120D6
:100FC40003000000D4B70508A561012000FF01005B
:100FD400A761012001000000E0050120A3610120B8
:100FE40003000000D4B705080D260208BD25020839
:100FF40090700508E4640120EE02CA0801000000B4
:10100400E264012000C8010064000000E1640120E2
:1010140000C8010064000000E06401200200000038
:10102400547105089661012080C1803E05000000CE
:101034009461012080C1803E050000008E61012082
:1010440080C1803E050000008C61012080C1803E8B
:10105400050000008761012000FF0100806101207C
:101064006400F401010000007F610120040000001D
:10107400607105087E61012002000000747105089A
:10108400256201200D000000807105082262012004
:101094000064010020620120320010270A000000D1
:1010A4001F6201200D000000807105081E620120EE
:1010B4000D000000807105081D620120020000007F
:1010C400B87105080000000000000000C4710508A4
:1010D400B05101209CFF2C0100000000A86B0120EE
:1010E400E0150C1700000000A568012002000000B4
:1010F400FC710508F06401200100FF7F010000007D
:10110400EF64012002000000087205082762012034
:101114000300000018720508266201200300000085
:1011240018720508C46301200000E80301000000F0
:10113400C26301200000E80301000000C063012035
:101144000000E80301000000BE6301200000E80382
:1011540001000000BC6301200000E803010000005E
:10116400BA6301200000E80301000000B963012014
:1011740000140100B8630120030000002872050870
:10118400D06301200000F40101000000CE630120BF
:101194000000F40101000000CC6301200000F40110
:1011A40001000000CA6301200000F40101000000F6
:1011B400C86301200000803E01000000C6630120D6
:1011C4000000803E01000000F96301201964010061
:1011D400F86301200200000038720508F66301205C
:1011E400E803D0070A000000F46301200064010052
:1011F4000A000000E963012000640100E8630120A3
:1012040000640100F0630120006401000A00000092
:10121400EF630120006401000A000000EE63012076
:10122400006401000A000000F3630120006401006F
:101234000A000000F2630120006401000A000000BB
:10124400F1630120006401000A000000ED63012045
:1012540001FF01000A000000EC63012001FF01000E
:101264000A000000EB63012001FF01000A000000F6
:10127400306201200000F401010000002E62012010
:101284000000F401010000002C6201200000F401C0
:10129400010000002A6201200000F40101000000A6
:1012A400286201200000F40101000000E163012034
:1012B40000640100E063012000640100DF63012099
:1012C40000640100DE630120FF080100DD630120EA
:1012D400016401008D2402085124020844720508A7
:1012E400DC63012000640100DA6301201400E803D8
:1012F40001000000D8630120E80330750A000000F3
:10130400D663012000C80100D563012000C8010094
:10131400D463012000C80100D363012000640100EC
:101324000A000000AE6401200000D00701000000A4
:10133400A964012000C80100A864012000C80100BC
:10134400A764012000C80100AC6401200000D0079C
:1013540001000000A664012000C80100A56401206A
:1013640000C80100A464012000C80100AA6401208F
:101374000000D00701000000A364012000C80100A0
:10138400A264012000C80100A164012000C801007A
:1013940000000000B9210208B47205081B62012094
:1013A40035000000507305081A62012000C80100CE
:1013B40018620120E803D0070100000044414C52A8
:1013C40043463732324455414C000000A2610120AB
:1013D40000030100A16101200003010005210208AE
:1013E400C92002082874050885200208392002084B
:1013F4009874050841210208C153020818750508AC
:10140400986101200103010001270208D526020882
:101414000C780508BD1F0208711F02087C780508B6
:10142400CF2102085D73020818790508496902088A
:1014340000000000C079050845570208612702082A
:101444005C7A05082922020800000000DC7A0508FD
:1014540001230208AD220208407B050891230208FB
:1014640055230208DC7B0508C9240208112502085B
:101474005C7C0508E7630120010601007122020873
:101484003D220208587D0508CD2302082554020890
:10149400C87D050841250208AD540208A87E050848
:1014A400D2630120010301008921020859210208A5
:1014B4007C7F05082D27020800000000E07F050856
:1014C4000920020891530208448005080000000026
:1014D40000000000D0800508952502082555020863
:1014E400508105087A61012088136F1701000000FC
:1014F4007C61012088136F170000000062A30120A3
:10150400000000000000000060A3012000000000B3
:10151400000000005EA301200000000000000000A5
:101524005CA3012000000000000000005AA3012079
:10153400000000000000000058A30120000000008B
:10154400000000001404012000000000000000005E
:101554005061012002000000D88205087861012052
:1015640088136F1701000000F051012088136F17D2
:1015740000000000011F020800000000E4820508CA
:10158400A66801200100000038830508F2510120FB
:101594000100000044830508E85101200200000016
:1015A4004C83050800000000000000005883050873
:1015B400E91E020800000000F48305080000000092
:1015C400000000004884050800000000000000003E
:1015D400B8840508EC510120E0150C170000000048
:1015E400D6010000B80B0000010000000001010159
:1015F40000010100685E0C00FF010000A00F000064
:10160400B80B00000102FFFF01000000FFFF000013
:10161400FFFFFFFF7C3B06080000080205030400EF
:10162400843B06080100080205040400144C060863
:101634000200FE0101100300E0E1050803001402AA
:10164400000300008C3B060804001F020100080090
:10165400943B060805001F0201010800FD3801083B
:10166400012A0108C5380108D9380108B929010837
:10167400B13801089B380108ED2A0108CD2A010878
:10168400892A0108000000007D2A0108692A01084E
:10169400552A0108000000000000000000000000BE
:1016A40000000000492A0108000000003D2A01084A
:1016B400B14D01089128010811280108F9270108F2
:1016C40001000000FFFFFFFF688B01200000000005
:1016D4008C8B0120000000000100000010000100BC
:1016E40000600240106002400000000000000000A2
:1016F400000B0000000000000000000000000000DB
:101704000060024028600240010000000000000068
:10171400060C0000000000000000000000000000B3
:10172400006002404060024002000000000000002F
:10173400100D000000000000000000000000000088
:1017440000600240586002400300000000000000F6
:10175400160E000000000000000000000000000061
:1017640000600240706002400400000000000000BD
:10177400200F000000000000000000000000000036
:101784000060024088600240050000000000000084
:10179400261000000000000000000000000000000F
:1017A40000600240A060024006000000000000004B
:1017B40030110000000000000000000000000000E4
:1017C40000600240B8600240070000000000000012
:1017D400362F0000000000000000000000000000A0
:1017E4000064024010640240000000000000000099
:1017F40000380000000000000000000000000000AD
:10180400006402402864024001000000000000005F
:101814000639000000000000000000000000000085
:101824000064024040640240020000000000000026
:10183400103A00000000000000000000000000005A
:1018440000640240586402400300000000000000ED
:10185400163B000000000000000000000000000033
:1018640000640240706402400400000000000000B4
:10187400203C000000000000000000000000000008
:10188400006402408864024005000000000000007B
:1018940026440000000000000000000000000000DA
:1018A40000640240A0640240060000000000000042
:1018B40030450000000000000000000000000000AF
:1018C40000640240B8640240070000000000000009
:1018D4003646000000000000000000000000000088
:1018E400183C0608644406080000000049E00408A7
:1018F400A0860100040000000000000000000000B9
:1019040000000000000000000000000000000000D3
:1019140000000000000000000000000000000000C3
:10192400183C06080845060800000000B91303081F
:10193400E8030000040000000000000000000000B4
:101944000000000000000000000000000000000093
:101954000000000000000000000000000000000083
:1019640018E505081011060800000000AD0A000083
:101974007D000000060000000000000000000000E0
:101984000000000000000000000000000000000053
:101994000000000000000000000000000000000043
:1019A400683B06080000000000000000FD27030853
:1019B400E803000003000000000000000000000035
:1019C4000000000000000000000000000000000013
:1019D4000000000000000000000000000000000003
:1019E40010450608000000000000000099D401081A
:1019F40010270000030000000000000000000000A9
:101A040000000000000000000000000000000000D2
:101A140000000000000000000000000000000000C2
:101A2400883B060800000000C1A2020885300308B4
:101A34005F760000050000000000000000000000C8
:101A44000000000000000000000000000000000092
:101A54000000000000000000000000000000000082
:101A6400243E06080000000000000000E17C03089A
:101A7400102700000100000000000000000000002A
:101A84000000000000000000000000000000000052
:101A94000000000000000000000000000000000042
:101AA4001C4506080000000000000000BD130308E8
:101AB400E803000005000000000000000000000032
:101AC4000000000000000000000000000000000012
:101AD4000000000000000000000000000000000002
:101AE400284506080000000000000000E107050882
:101AF400204E000003000000000000000000000071
:101B040000000000000000000000000000000000D1
:101B140000000000000000000000000000000000C1
:101B2400384506080000000000000000CD05050847
:101B3400204E000003000000000000000000000030
:101B44000000000000000000000000000000000091
:101B54000000000000000000000000000000000081
:101B6400484506080000000000000000BD180308F6
:101B7400400D03000300000000000000000000000E
:101B84000000000000000000000000000000000051
:101B94000000000000000000000000000000000041
:101BA400D83C0608000000000000000025030408DB
:101BB40010270000010000000000000000000000E9
:101BC4000000000000000000000000000000000011
:101BD4000000000000000000000000000000000001
:101BE400E8ED050800000000000000006935020867
:101BF40010270000030000000000000000000000A7
:101C040000000000000000000000000000000000D0
:101C140000000000000000000000000000000000C0
:101C240058450608000000000000000009F1020801
:101C3400A086010001000000000000000000000078
:101C44000000000000000000000000000000000090
:101C54000000000000000000000000000000000080
:101C64006C3B060800000000000000006D1703082C
:101C740050C300000100000000000000000000004C
:101C84000000000000000000000000000000000050
:101C94000000000000000000000000000000000040
:101CA400CCE00508000000000000000071140308E7
:101CB400A861000001000000000000000000000016
:101CC4000000000000000000000000000000000010
:101CD4000000000000000000000000000000000000
:101CE4006045060800000000000000008D74020832
:101CF400A0860100010000000000000000000000B8
:101D040000000000000000000000000000000000CF
:101D140000000000000000000000000000000000BF
:101D24002C3E06080000000000000000F55D0308DA
:101D3400A00F0000010000000000000000000000EF
:101D4400000000000000000000000000000000008F
:101D5400000000000000000000000000000000007F
:101D64006C4506080000000000000000996E02089F
:101D74001027000001000000000000000000000027
:101D8400000000000000000000000000000000004F
:101D9400000000000000000000000000000000003F
:101DA40068EC0508000000000000000081790408C8
:101DB4001A410000010000000000000000000000C3
:101DC400000000000000000000000000000000000F
:101DD40000000000000000000000000000000000FF
:101DE4008CE005080000000000000000E934010850
:101DF40010270000010000000000000000000000A7
:101E040000000000000000000000000000000000CE
:101E140000000000000000000000000000000000BE
:101E2400784406080000000000000000717C0208ED
:101E34001A41000001000000000000000000000042
:101E4400000000000000000000000000000000008E
:101E5400000000000000000000000000000000007E
:101E6400784506080000000000000000713B0108EE
:101E7400400D03000000000000000000000000000E
:101E8400000000000000000000000000000000004E
:101E9400000000000000000000000000000000003E
:101EA40080450608000000000000000063EA030803
:101EB400400D0300000000000000000000000000CE
:101EC400000000000000000000000000000000000E
:101ED40000000000000000000000000000000000FE
:101EE400884506080000000000000000B55D0208F7
:101EF40050C30000030000000000000000000000C8
:101F040000000000000000000000000000000000CD
:101F140000000000000000000000000000000000BD
:101F2400944506080000000000000000450505086F
:101F340040420F000000000000000000000000000C
:101F4400000000000000000000000000000000008D
:101F5400000000000000000000000000000000007D
:101F6400A04506080000000000000000F9FF030877
:101F740050C300000000000000000000000000004A
:101F8400000000000000000000000000000000004D
:101F9400000000000000000000000000000000003D
:101FA4000000803F000000005CAE0120080000003B
:101FB400000000004CAE01200800000028DD0508E8
:101FC4009C4A0608A84A0608B44A0608C04A0608F5
:101FD400CC4A060868ED0508381306081C120608E2
:101FE4005C4A0608903F06088C4A0608904A060890
:101FF400944A0608984A0608D84A0608DC4A06089D
:10200400E04A060894100608E44A06081900C800C5
:10201400F4012003E8160120000000000000000085
:1020240000000000000000000000000000000000AC
:10203400000000000000000000000000000000009C
:10204400000000000000000000000000000000008C
:10205400000000000000000000000000000000007C
:10206400000000000000000000000000000000006C
:08207400000000000000000064
:10207C000000000001000000341F002000000000E0
:0C208C000000803F0000803F20000000AA
:1080000003685A1C02601970704700BF2DE9F047E1
:10801000089C002B8846074621780CBF4FF02009AA
:108020004FF03009651C29B3002A27DD2B4601E0FB
:108030000246A8B113F8016B501E002EF8D1961E0F
:1080400070B1B2460AF1FF3A49463846C0470AF1D4
:108050000103002BF6DC26EAE6702178013039B105
:10806000041B3846C047281915F8011B0029F8D110
:10807000BDE8F087002A03DC0846F9E70020EFE7B7
:10808000561EDEE72DE9F84F14461D4606464FF40E
:108090007A720023204629464E4F4BF0CBFA4E4BC6
:1080A0004E4A40F2B55C0344DFF83CA182FB030179
:1080B000D81787FB03784A4F1944984487FB037EFF
:1080C000C0EB6111C0EBE8279E4482FB01824FEABE
:1080D000E179C0EB2E4E8AFB078A0A44C1EB011BF3
:1080E000C9EB62193F4AA3EB8B0BC9EB091982FB61
:1080F0000E824FEAE77886F806B0A1EB8901DFF837
:10810000EC90C8EBAA08717189FB03134FEAEE717A
:1081100008EB4808C1EBE212A7EBC8080CFB12E21F
:10812000C0EBE35386F80480B2F5896F4FEA830011
:108130003CDA40F2DA239A4242DCB2F5B77FDFF84C
:10814000B080B4BF4FF0000E4FF0010E4FEA4E0961
:108150001FFA8EFC09EB0E0308EBC303DF8A09EB61
:108160000E010B2308EBC101163101E031F8027D4D
:10817000974218DD013BF9D1CE44012338F83E7017
:1081800000F5FA6E0132B3702046F444D71B29463D
:108190004FF47A720023A6F800C0F7704BF04AFA49
:1081A0003281BDE8F88F0133DBB2E9E74FF0030C11
:1081B00040F29657DFF838804FF00609E646CEE7E2
:1081C0004FF0020C40F22947DFF824804FF00409F9
:1081D000E646C4E7C5B3A29180BC92C78988888867
:1081E00007452EC273B06D16ABAAAA2A792D0311CA
:1081F000385805080028F0B504DA2D234042013133
:1082000001F8013C092804464FF0010307DD03EBA8
:1082100083035B00B0FBF3F2092AF8D883B10E4860
:10822000A0FB0356B4FBF3F2092A02F1570C02F14A
:10823000300708DD03FB1244F30801F801CBEFD14E
:1082400000230B70F0BD03FB1244F30801F8017B1F
:10825000E6D100230B70F0BDCDCCCCCC884270B4FD
:108260004FF0010442D301FB04F4B0FBF4F58D425E
:10827000F9D2ECB142BB092D04FB150005F15706FC
:1082800005F130020EDD03F8016BB4FBF1F47CB1B3
:10829000B0FBF4F5092D04FB150005F1570605F1B7
:1082A0003002F0DC03F8012BB4FBF1F4002CEFD129
:1082B000002270BC1A707047B4FBF1F403F8016B34
:1082C000002CF5D0B0FBF4F5092D04FB150005F1E9
:1082D000370605F13002EFDC03F8012BB4FBF1F4B3
:1082E000002CEFD1002270BC1A7070470546002A9E
:1082F000EAD1C0E7002120222A2301703421C27074
:10830000022283710123817342704272837003726F
:108310008372C37330B403251424C571C47230BC96
:10832000704700BF002306214FF47A720170037377
:10833000C0E90123704700BF032231234FF6FF71CC
:108340000272012243700023018202700271827066
:1083500043818381C381837430B4302510244571F7
:10836000C47030BC704700BF3249334B2DE9F04F29
:10837000804683B027274FF0000A01F5907B2F48F5
:108380001022012603E0203098420AD00279974259
:10839000F9D102680C68A24208D020300136984218
:1083A000F4D1203159453AD00F79E8E744794D7935
:1083B000A542F2D10AEB4A099646214808F809700D
:1083C000C144DFF880C000F5727589F8016072461B
:1083D000664603E0A84219D050F82C6FB242F9D19A
:1083E0000679A642F6D1CF6806464FF0000C9646B5
:1083F0000190F268BA4215D00CF1010C0C36BCF1B8
:10840000030FF6D101987246A842E5D14FF0FF3C28
:10841000203189F802C00AF1010A5945C4D103B0DC
:10842000BDE8F08F086932698242E5D14FFA8CFCD1
:10843000EEE700BFF0670508B0C50508F0BB05080A
:10844000B0C5050800000140F0B5154B4FF0FF34F2
:10845000FF21172703F10C0EA4461626152500222E
:10846000C170017101724172417381738174C17471
:1084700002EB8202734500EB020185544E708F704F
:1084800081F803C00C710AD093F9062006335D7899
:108490009E78DF7893F904C093F90540E8E7F0BDD2
:1084A0009858050810B42C210124022200230470DE
:1084B00041708270C3705DF8044B7047FF22034621
:1084C00000F1100170B41A70023303F8012C8B42D2
:1084D000F9D10E4B4FF0FF31002203F10C060C4690
:1084E00000EB42059E4200F8124069700CD093F9EF
:1084F000044093F9051013F8032F00EB42059E4248
:1085000000F812406970F2D170BC7047AC58050891
:1085100030B41D6995420AD314460A4621448D425F
:10852000996938BF2A1B214430BC4BF0C7BD30BC11
:10853000704700BF0020704701207047012070473E
:1085400000207047054B002010B49B684FF4007466
:1085500014800B605DF8044B704700BF089B01203E
:108560002222032302704370704700BF0830704717
:10857000704700BF8161704740F2E93300E09BB172
:108580008268013B12F0020F9BB2F8D0017340F2F7
:10859000E93300E043B18268013B12F0010F9BB266
:1085A000F8D0C068C0B270470C4A904209D00C4B5A
:1085B000984211D003F58063984201D0FF207047A4
:1085C0000223084AD82101FB03239A89013292B27F
:1085D0009A819889C0B270470123F2E700300140C8
:1085E0000038004048AA01206B4B8C462DE9F04F23
:1085F0001C680025694B87B00746B3F80AE0188964
:108600004FEA0E2AB3F804804FEA1E6B9A89B4EB46
:108610000A0465EB0B05CDE90045009C019EA0FB1B
:10862000044500FB0655E0094FEA084440EA45606E
:10863000E9114FEA184510EB0408D888009C41EB7B
:108640000509A0FB0445CDE9048900FB0655B3F8F4
:108650000280200A4FEAC83440EA056029124FEA36
:10866000584510EB040841EB05090099A2FB0101F4
:1086700002FB06114FEAD05A474E4AEA412A4FEA16
:10868000E15B1AF5FA634BF10004B3F5FA6FCDE93B
:10869000023474F1000362DA0524AAFB040104FB2E
:1086A0000B1100FB0BF40AFB0144A0FB0A0121445F
:1086B000DDE904234D104FEA3004121B4FEA900409
:1086C000374863EB050344EA81748D104FF0FF31A6
:1086D000B8EB0408CDE90423DDE9023469EB0509B0
:1086E000834274EB010325DA40F6AC5000211AEB0B
:1086F00000024BEB010302FB03F1A2FB022303EB9D
:108700004103D400DD00101B45EA527563EB0501FF
:10871000DDE9044524184D41CDE904450B24A2FBB5
:10872000040104FB031149104FEA3000B8EB0008C4
:1087300069EB0109DDE90032DDE902015343009AEA
:10874000A2FB02AB0BEB430B4FEADA724FEAEB737F
:1087500042EA4B02801A61EB0301CDE9020197B1B5
:108760007168A1FB082301FB0933540D5D1544EA30
:10877000C324DDE90423A21A65EB03031D46D30BD2
:1087800043EA45433B60BCF1000F02D0029BCCF8AA
:10879000003007B0BDE8F08F48170120F4780120C1
:1087A00024FAFFFF4FF40063838370474FF40063A4
:1087B000838370474FF4006383837047012380F8FD
:1087C00054307047034610B4D0F8F840D968406977
:1087D00064B1D3F810218C1A013A005D08BF0A4633
:1087E0005DF8044BC0B2C3F8102170471A6A805C70
:1087F00001328A4228BF2246C0B25DF8044B1A6299
:10880000704700BFD0F8FC3013B190F8900170476A
:10881000D0E90903181AB0FA80F04009704700BF88
:10882000D0E909120369914238BFC918013B8A1A7D
:10883000D0F8FC1031B1D0F87C11096849680A44BD
:108840009A4201D2981A704700207047D0F8F83049
:108850006BB1D0F88031D0F810211B685B689A4268
:1088600001D8981A7047C068801A18447047D0E938
:1088700007239A4203D2C0681044C01A7047D01A26
:10888000704700BFF0B4C76982B006461FB1BB880D
:108890003A681B049361726903206D463E4C53682D
:1088A00023F48053536040F2E93301E0013B54D09C
:1088B00091688907FAD5002C4CD034F8023B93819B
:1088C00040F2E93301E0013B47D09168C907FAD58E
:1088D000D3680DB125F8023B0138E4D1516840F26C
:1088E000E93341F48051516001E0013B35D091689A
:1088F0008807FAD5002C47D02378137340F2E93368
:1089000001E0013B42D09168C907FAD5D368F76905
:1089100005B12B7017B13B68BA889A619DF8014088
:1089200001209DF803309DF802109DF8042041EAD3
:1089300004219DF8054042EA03229DF80630A6F87E
:10894000541043EA0423A6F85620A6F8583002B083
:10895000F0BC70474FF6FF73B1E710498A4207D069
:108960000F4B9A420ED003F580639A42D2D1022374
:108970000C4AD82101FB03239A89013292B29A81D1
:108980009B89C7E70123F3E7FF23B6E70349F769AC
:108990008A42E5D1ECE700BFBC5805080030014031
:1089A0000038004048AA012013B506230C466A4649
:1089B00028210C3033F032F8F0B19DF80130042159
:1089C0009DF8002042EA03229DF8033012B292FB88
:1089D000F1F222809DF8022042EA03229DF8043041
:1089E00012B292FBF1F262809DF8052043EA022365
:1089F0001BB293FBF1F3A38002B010BD13B50623A5
:108A00000C466A4603210C3033F008F8A0B19DF8FB
:108A100000209DF8013043EA02239DF802202380C4
:108A20009DF8033043EA02239DF80420A3809DF8BB
:108A3000053043EA0223638002B010BD07B503236B
:108A400001AA002132F0EAFF9DF805309DF80400EC
:108A50001B0243EA00439DF80600184303B05DF88B
:108A600004FB08B5FFF7EAFF014B586008BD00BFE3
:108A70004817012008B5FFF7E1FF014B186008BD5A
:108A80004817012033F056BD1D4B1B7870B50446C6
:108A900000F1250593B104221A4920304CF092FED2
:108AA0002846142218494CF08DFE012384F83A30F0
:108AB000164B1B7873B984F83B3070BD28461422DE
:108AC00013494CF07FFE012384F83A300F4B1B789A
:108AD000002BF0D00F4A0123166855689068D168C2
:108AE00026606560A060E160D1691669556990698A
:108AF00084F83B3026616561A061E16170BD00BF13
:108B00005C810120248101200C8101205D810120F4
:108B100004D905082C810120014B18682DF066B995
:108B2000A47F012010B429212824012200230470ED
:108B300041708270C3705DF8044B70472DE9F84FA7
:108B40000A9E8946174600212022984605460B9C1E
:108B50004CF042FD5EB17189D6E900236982C2F30F
:108B60000F40EA81C3F30F42EB8228822A834846F2
:108B70004AF06AF817F0100A0FD1431E68B119F8CD
:108B800003202E2A4DD009EB030103E011F8016DFB
:108B90002E2E3ED013F1FF33F8D208280246CB46E2
:108BA0004FF0000AA8BF08224FF0203305F1080655
:108BB000494628466B602B60C5F807304BF07EFABB
:108BC0005246594630464BF079FA6A1EE81D12F8B3
:108BD000013FA3F16101203B192998BF1370824224
:108BE000F5D105F10B0116F8013BA3F16102203B21
:108BF000192A98BF06F8013CB142F4D1C8F30F42DC
:108C00001823EF72A5F81A80AA82EC612B73BDE8D5
:108C1000F88FC01A00F1FF3ABAF1030FA8BF4FF066
:108C2000030A082B03F1010BA8BF0823CB441A4603
:108C3000BAE700BF38B52E2200214CF0CDFC40F23F
:108C4000DC540346642140F21A4040F26C7240F258
:108C5000022519745C82132119249882DA8240F269
:108C6000753040F643021D8399760E250A211C7744
:108C7000D8831E2402201A84012283F82B10187234
:108C8000194683F82A0083F8225083F82C409A73FF
:108C900083F8252083F829200248BDE8384027F0D2
:108CA00077B800BF14D9050810B50446002101208B
:108CB00029F0B8F9207010BD38B50023451E1C46B8
:108CC0000372E1B20134022029F0ACF9082C05F856
:108CD000010FF6D138BD00BF38B5002305461C464C
:108CE00003802146013428461DF036FC082CF8D1BB
:108CF0000023284685F8E2301946A5F8E430A5F8A7
:108D0000E630A5F8E830A5F8EA30A5F8EC30A5F88B
:108D1000EE30A5F8F030A5F8F230BDE838401DF08F
:108D2000DFBB00BF2DE9F04F1E4685B00C4600208A
:108D30000121154628F086FD002E61D07319DFF859
:108D400070B3D54E02931CE0002D00F0DD81DBF8FE
:108D50001430AB4265D0DBF81030AB4200F09B80A2
:108D6000DBE90631AB4253D88D42C0F07881691AF5
:108D7000204641F045FF0135029B04F500749D42F9
:108D80003ED0DBF82070AF42DED8EF1BDBF830803E
:108D90004FEAD70AD8F8303007F007070AF1020A7D
:108DA0009A4503D3D8F838309A4509D941465046F8
:108DB00041F0F4FE8046002800F05681CBF83000E8
:108DC00098F80430002B40F0E980D8F82890B9F1E9
:108DD000000F00F0F781D8F830104346D8F80C2087
:108DE0002046AAEB010A4FF40071013504F5007426
:108DF00007EBCA0A02EB4A22C847029B9D42C0D138
:108E00000021084628F01EFD002005B0BDE8F08FC7
:108E10008D42ACD24FF40072002120464CF0DCFBB6
:108E2000A9E7722300274FF0FF3C4FF0520E61225A
:108E3000412084F8E431394684F8E531DBF8283004
:108E4000A27084F8E7214FF4F072E07084F8E60134
:108E5000201D84F800E084F801E084F8ECC1C4F837
:108E6000E83184F8EDC184F8EEC184F8EFC14CF02C
:108E7000B3FB55216FF05502C4F8F071C4F8F471DA
:108E8000C4F8F87184F8FC7184F8FD7184F8FE115F
:108E900084F8FF216FE74FF40072002120467F4FD6
:108EA0004CF09AFB5821EB2002226170F8212070CF
:108EB0004FF0080C61753F21902384F80DC0217696
:108EC0004FF0FF3EA370002322744FF080082273FE
:108ED000A273E372E3736374A374E3742375A375DD
:108EE000E3756376E3766377A377E37784F81AE034
:108EF0004FF0010E03CF3E27C4F80300C4F807105B
:108F0000DBF80810DBF810002777081ADBF81C10D4
:108F1000634F2062DBF8180084F82C200E22091A17
:108F200084F8283084F8293029206162942184F85B
:108F30002A3084F82B3084F82D3084F82E3084F8D1
:108F40002F3084F8313084F8323084F833300D23F8
:108F500084F846C004F1470C84F8420084F84310BA
:108F600084F8442084F845304E4B84F830E04FF0CC
:108F7000AA0E84F840804FF0550807CFC4F8470088
:108F8000CCF80410CCF8082084F8FE8184F8FFE1C6
:108F900003CBC4F85200C4F85610ECE64FF400724C
:108FA000002120464CF018FBD8F84030002F63D148
:108FB00004F120020392002B00F08980D8F83030B1
:108FC000112201972046009704F140093649FFF726
:108FD000B5FDD8F840301A6C002A00F08A801B6B6F
:108FE000112201974FF4E07A039800972F49FFF779
:108FF000A5FDD8F8448018F1000318BF0123002B09
:109000003FF4B9AE474603940CE00024AAF1200ACD
:10901000C146CDE900C4FFF791FDBF6CEFB1BAF1D5
:109020001F0F1AD997F804E01122484609F12008C9
:10903000396807F11C0C3B6BBEF1000FE5D17A7962
:10904000AAF1200A3C69C14642F02102CDE900C4E0
:10905000FFF774FDBF6C002FE1D1039C8BE6E91A8A
:10906000204641F0CDFD86E6231F04F5FE7243F84D
:10907000046F9A42FBD17EE6002BD8F8448014BFDF
:1090800002230123B8F1000FC3EB071714BF01231C
:1090900000232AD042460EE0DEADBEEF28D90508F7
:1090A00034D9050844D9050820D9050824D905086C
:1090B000089B012033B1926C013F131C18BF0123A0
:1090C000002FF7DC9046A1464FF4007A97E7DBF8D3
:1090D0000C103B460197082200972046DDF80C90C3
:1090E0004FF4F07AFFF72AFD83E7A1464FF4007AA8
:1090F00085E701973B460097112203984FF4E07AE9
:109100004749FFF71BFD74E74FF4007229462046DC
:109110004CF062FA80220C2384F8B85184F8BE2106
:1091200084F8C2313F4BDBF81020DBF8080083FBEA
:1091300002314FEAE27C84F8B951CCEB213184F85A
:10914000BA5184F8BB51B1F5806F84F8BC5184F8F2
:10915000BD51C4F8C621C4F8CA0142DBFF2384F81C
:10916000BF3184F8C13184F8C031421E2D4BD7176E
:1091700083FB0231C7EB2131B1F5806F29DA2A4B2D
:1091800084F8C511891083FB0203284821F03F01B0
:109190001344C7EB6313C3EB831780FB03C0D21BDD
:1091A0001844DF170132C7EBE0100A43034484F888
:1091B000C42184F8C3315522AA2384F8FE2184F8FF
:1091C000FF31D8E549464FF4007220464CF004FACE
:1091D000D1E5FF2384F8C33184F8C53184F8C43164
:1091E000E9E7114B84F8C111891083FB02730F4F1B
:1091F00021F03F011344CCEB6313C3EB831C87FBCB
:1092000003E7A2EB0C021F444FEAE37C0132CCEBF4
:10921000E7170A433B4484F8C02184F8BF31A4E730
:1092200024D9050897554541832008828180808094
:1092300010B500F10C0400222121204632F028FF55
:10924000FC222021204632F023FF40222421204608
:1092500032F01EFF0C222321204632F019FF00229B
:109260002221204632F014FF64202CF019FC01204A
:1092700010BD10B500F10C0470220021204632F020
:1092800007FF20220121204632F002FF00220221A6
:10929000204632F0FDFE64202CF002FC012010BDBF
:1092A0000122482132F0F4BE0122582132F0F0BEF2
:1092B0002DE9F04F8DB090F865300390002B40F011
:1092C0002A86039B93F85C30072B00F01A8618233C
:1092D000CDE90433039B80226B21BF4C1033DFF8B0
:1092E00004934FF01008BD4E1846029332F0D0FEA2
:1092F0006423DFF8F4C2BA48DFF8F0E20193DCF847
:109300000430C3F30803002B40F0BE84EFF3118355
:10931000002B40F0B9842568826823689D42FAD109
:1093200033689A42F7D8D9F800704FF47A7101FB8C
:1093300007F39B1AB3FBF7F301FB05354FF47A777C
:109340004FF0010ADCF80430C3F30803002B40F0AF
:109350007B84EFF31183002B40F0768423688168CF
:1093600022689342FAD132689142F7D8D9F80020A6
:1093700007FB02FBABEB0101B1FBF2F107FB0313AF
:109380005B1BB3F57A7FDDD3019B013B0193B6D123
:109390000722682102984FF0100832F079FE8F4EB4
:1093A0006423DFF844C28E48DFF840E20193DCF822
:1093B0000430C3F30803002B40F0A684EFF31183BD
:1093C000002B40F0A1842568826823689D42FAD171
:1093D00033689A42F7D8D9F800704FF47A7101FBDC
:1093E00007F39B1AB3FBF7F301FB05354FF47A77CC
:1093F0004FF0010ADCF80430C3F30803002B40F0FF
:109400000384EFF31183002B40F0FE83236881680F
:1094100022689342FAD132689142F7D8D9F80020F5
:1094200007FB02FBABEB0101B1FBF2F107FB0313FE
:109430005B1BB3F57A7FDDD3019B013B0193B6D172
:109440001A466B2102984FF0100832F021FE634E4D
:109450006423DFF894C16248DFF890E10193DCF8FF
:109460000430C3F30803002B40F02E84EFF3118384
:10947000002B40F029842568826823689D42FAD138
:1094800033689A42F7D8D9F800704FF47A7101FB2B
:1094900007F39B1AB3FBF7F301FB05354FF47A771B
:1094A0004FF0010ADCF80430C3F30803002B40F04E
:1094B0008C83EFF31183002B40F08783236881684E
:1094C00022689342FAD132689142F7D8D9F8002045
:1094D00007FB02FBABEB0101B1FBF2F107FB03134E
:1094E0005B1BB3F57A7FDDD3019B013B0193B6D1C2
:1094F00001226B2102984FF0100832F0C9FD374E5F
:109500000F23DFF8E4C03648DFF8E0E00193DCF831
:109510000430C3F30803002B40F0D184EFF3118330
:10952000002B40F0CC842568826823689D42FAD1E4
:1095300033689A42F7D8D9F800704FF47A7101FB7A
:1095400007F39B1AB3FBF7F301FB05354FF47A776A
:109550004FF0010ADCF80430C3F30803002B40F09D
:109560001583EFF31183002B40F01083236881688B
:1095700022689342FAD132689142F7D8D9F8002094
:1095800007FB02FBABEB0101B1FBF2F107FB03139D
:109590005B1BB3F57A7FDDD3019B013B0193B6D111
:1095A000049A1B2102984FF0100832F071FD0B4E07
:1095B0000F23DFF834C00A48DFF830E00193DCF80D
:1095C0000430C3F30803002B40F05984EFF31183F8
:1095D000002B40F054840BE04C9501205495012061
:1095E00010E000E05095012000ED00E048950120DA
:1095F0002568826823689D42FAD133689A42F7D879
:10960000D9F800704FF47A7101FB07F39B1AB3FB92
:10961000F7F301FB05354FF47A774FF0010ADCF8D8
:109620000430C3F30803002B40F09182EFF3118361
:10963000002B40F08C822368816822689342FAD123
:1096400032689142F7D8D9F8002007FB02FBABEB58
:109650000101B1FBF2F107FB03135B1BB3F57A7F4A
:10966000DDD3019B013B0193A9D1059A1C210298EE
:109670004FF0100832F00CFDC54E0F23DFF818C371
:10968000C448DFF818E30193DCF80430C3F308039F
:10969000002B40F0D583EFF31183002B40F0D083F3
:1096A0002568826823689D42FAD133689A42F7D8C8
:1096B000D9F800704FF47A7101FB07F39B1AB3FBE2
:1096C000F7F301FB05354FF47A774FF0010ADCF828
:1096D0000430C3F30803002B40F01A82EFF3118328
:1096E000002B40F015822368816822689342FAD1EA
:1096F00032689142F7D8D9F8002007FB02FBABEBA8
:109700000101B1FBF2F107FB03135B1BB3F57A7F99
:10971000DDD3019B013B0193B6D1039A92F85F30F0
:10972000032B00F2EC8392F86220012A0BD0022A6C
:1097300040F0E583039B93F8673003F0FB03022BB3
:109740000CBF002207221A21029832F0A1FC4FF030
:1097500010080F23DFF840C28E48DFF840E28C4E3D
:109760000193DCF80430C3F30803002B40F02A8394
:10977000EFF31183002B40F025832568826823686E
:109780009D42FAD133689A42F7D8D9F800704FF465
:109790007A7101FB07F39B1AB3FBF7F301FB053565
:1097A0004FF47A774FF0010ADCF80430C3F3080372
:1097B000002B40F08E81EFF31183002B40F0898164
:1097C0002368816822689342FAD132689142F7D8BF
:1097D000D9F8002007FB02FBABEB0101B1FBF2F172
:1097E00007FB03135B1BB3F57A7FDDD3019B013BC2
:1097F0000193B6D1039B192102984FF0100893F8FA
:10980000642032F045FC624E6423DFF88CC161486D
:10981000DFF888E10193DCF80430C3F30803002B80
:1098200040F0EF82EFF31183002B40F0EA822568CD
:10983000826823689D42FAD133689A42F7D8D9F8F2
:1098400000704FF47A7101FB07F39B1AB3FBF7F337
:1098500001FB05354FF47A774FF0010ADCF804304C
:10986000C3F30803002B40F01581EFF31183002BA5
:1098700040F010812368816822689342FAD13268EF
:109880009142F7D8D9F8002007FB02FBABEB0101AE
:10989000B1FBF2F107FB03135B1BB3F57A7FDDD35A
:1098A000019B013B0193B6D11022372102984FF062
:1098B000100832F0EDFB364E0F23DFF8DCC03548E0
:1098C000DFF8D8E00193DCF80430C3F30803002B81
:1098D00040F05982EFF31183002B40F05482256849
:1098E000826823689D42FAD133689A42F7D8D9F842
:1098F00000704FF47A7101FB07F39B1AB3FBF7F387
:1099000001FB05354FF47A774FF0010ADCF804309B
:10991000C3F30803002B40F09E80EFF31183002B6C
:1099200040F099802368816822689342FAD13268B6
:109930009142F7D8D9F8002007FB02FBABEB0101FD
:10994000B1FBF2F107FB03135B1BB3F57A7FDDD3A9
:10995000019B013B0193B6D10298012238214FF0BF
:10996000100832F095FB0A4E0F23DFF82CC009488F
:10997000DFF828E00193DCF80430C3F30803002B80
:1099800040F0E281EFF31183002B40F0DD8107E02E
:109990005495012010E000E000ED00E04895012022
:1099A0002568826823689D42FAD133689A42F7D8C5
:1099B000D9F800704FF47A7101FB07F39B1AB3FBDF
:1099C000F7F301FB05354FF47A774FF0010ADCF825
:1099D0000430C3F30803FBB9EFF31183E3B9236841
:1099E000816822689342FAD132689142F7D8D9F857
:1099F000002007FB02FBABEB0101B1FBF2F107FB1F
:109A000003135B1BB3F57A7FE1D3019B013B019309
:109A1000B1D10DB0BDE8F08FEFF3118188F312885A
:109A2000D0F808B00368DB0303D5CEF800A0D0F867
:109A300008B02368C9B2DEF8002081F31188D9F894
:109A40000010134407FB01F2A2EB0B02B2FBF1F290
:109A500007FB0323D5E7EFF3118188F31288D0F8D1
:109A600008B00368DB0303D5CEF800A0D0F808B037
:109A70002368C9B2DEF8002081F31188D9F80010FC
:109A8000134407FB01F2A2EB0B02B2FBF1F207FB5E
:109A9000032359E7EFF3118188F31288D0F808B057
:109AA0000368DB0303D5CEF800A0D0F808B0236824
:109AB000C9B2DEF8002081F31188D9F800101344F0
:109AC00007FB01F2A2EB0B02B2FBF1F207FB03234F
:109AD000E2E6EFF3118188F31288D0F808B003684A
:109AE000DB0303D5CEF800A0D0F808B02368C9B2D4
:109AF000DEF8002081F31188D9F80010134407FB29
:109B000001F2A2EB0B02B2FBF1F207FB032369E6C1
:109B1000EFF3118188F31288D0F808B00368DB03F3
:109B200003D5CEF800A0D0F808B02368C9B2DEF89B
:109B3000002081F31188D9F80010134407FB01F2CB
:109B4000A2EB0B02B2FBF1F207FB0323DDE5EFF31F
:109B5000118188F31288D0F808B00368DB0303D5BD
:109B6000CEF800A0D0F808B02368C9B2DEF8002013
:109B700081F31188D9F80010134407FB01F2A2EB1E
:109B80000B02B2FBF1F207FB032366E5EFF3118151
:109B900088F31288D0F808B00368DB0303D5CEF849
:109BA00000A0D0F808B02368C9B2DEF8002081F325
:109BB0001188D9F80010134407FB01F2A2EB0B0245
:109BC000B2FBF1F207FB0323E2E4EFF3118188F328
:109BD0001288D0F808B00368DB0303D5CEF800A0E4
:109BE000D0F808B02368C9B2DEF8002081F31188EC
:109BF000D9F80010134407FB01F2A2EB0B02B2FBF1
:109C0000F1F207FB03236BE4EFF3118188F3128871
:109C1000D0F808B00368DB0303D5CEF800A0D0F875
:109C200008B02368C9B2DEF8002081F31188D9F8A2
:109C30000010134407FB01F2A2EB0B02B2FBF1F29E
:109C400007FB0323FFF7F4BBEFF3118188F31288BE
:109C5000D0F808B00368DB0303D5CEF800A0D0F835
:109C600008B02368C9B2DEF8002081F31188D9F862
:109C70000010134407FB01F2A2EB0B02B2FBF1F25E
:109C800007FB0323FFF77CBBEFF3118388F31288F4
:109C900081680268D20303D50122CEF800208168D2
:109CA0002568DBB2DEF800A083F311884FF47A72E6
:109CB000D9F80070554402FB07F35B1AB3FBF7F3C6
:109CC00002FB0535FFF73ABBEFF3118388F31288E7
:109CD00081680268D20303D50122CEF80020816892
:109CE0002568DBB2DEF800A083F311884FF47A72A6
:109CF000D9F80070554402FB07F35B1AB3FBF7F386
:109D000002FB0535FFF7CABBEFF3118388F3128816
:109D100081680268D20303D50122CEF80020816851
:109D20002568DBB2DEF800A083F311884FF47A7265
:109D3000D9F80070554402FB07F35B1AB3FBF7F345
:109D400002FB0535FFF752BBEFF3118388F312884E
:109D500081680268D20303D50122CEF80020816811
:109D60002568DBB2DEF800A083F311884FF47A7225
:109D7000D9F80070554402FB07F35B1AB3FBF7F305
:109D800002FB05351FE6EFF3118388F31288816823
:109D90000268D20303D50122CEF80020816825682D
:109DA000DBB2DEF800A083F311884FF47A72D9F8A1
:109DB0000070554402FB07F35B1AB3FBF7F302FB99
:109DC00005359FE5EFF3118388F3128881680268F7
:109DD000D20303D50122CEF8002081682568DBB2CA
:109DE000DEF800A083F311884FF47A72D9F800707E
:109DF000554402FB07F35B1AB3FBF7F302FB05358F
:109E0000CEE4EFF3118388F3128881680268D203ED
:109E100003D50122CEF8002081682568DBB2DEF888
:109E200000A083F311884FF47A72D9F8007055447A
:109E300002FB07F35B1AB3FBF7F302FB053509E5F9
:109E4000EFF3118388F3128881680268D20303D587
:109E50000122CEF8002081682568DBB2DEF800A080
:109E600083F311884FF47A72D9F80070554402FBDD
:109E700007F35B1AB3FBF7F302FB053523E4EFF3BB
:109E8000118388F3128881680268D20303D5012206
:109E9000CEF8002081682568DBB2DEF800A083F3ED
:109EA00011884FF47A72D9F80070554402FB07F319
:109EB0005B1AB3FBF7F302FB0535FFF7ACBBEFF31F
:109EC000118388F3128881680268D20303D50122C6
:109ED000CEF8002081682568DBB2DEF800A083F3AD
:109EE00011884FF47A72D9F80070554402FB07F3D9
:109EF0005B1AB3FBF7F302FB0535FFF727BB019AAB
:109F000021E4039B93F86130002B41D11023CDE96C
:109F10000433FFF7DFB91C0903F00F03013C032CE6
:109F20003CD8474A32F8140040FA03F2D70735D537
:109F3000012202FA03F3013B184049F0CBFB414BED
:109F4000414A1B5D184412EBC00427D052F8300080
:109F5000A38805691D407FF4B4A9B3FA83F22026D3
:109F60003A49C2F11F02A671039F561CE571F960C0
:109F700019D1B3FA83F30122C3F11F0312FA03F3D9
:109F80003FF49FA932490A6813430B60FFF799B960
:109F900018231021CDE90431FFF79CB92B4B039A0C
:109FA000D360FFF78EB92B4E07F10C01DFF8BCC070
:109FB000B7180793284B4CF8221007A997F88C7014
:109FC00008930995CDE90A550AF07CFC234BDA5D2C
:109FD000F02A01D8A388CCE7F021214A3E44D95584
:109FE000D36896F89C20C3F3022351B2C3F1070053
:109FF0001E1D042828BF0420062E88BFDD1E4FF03A
:10A00000FF33002903FA00F36FEA030303F00303AD
:10A0100003FA05F34FEA0313DBB20CDB02F01F0671
:10A02000104801224D090144B24081F8003340F844
:10A030002520A3889DE702F00F020B498B54C9E746
:10A04000E4BB0508ECBB050888930120BD87000828
:10A05000003C0140385805080000111020AA0120DA
:10A0600000ED00E000E100E014ED00E0E0A90120D7
:10A07000436992491A688B4222F040022DE9F04F61
:10A0800083B01A60019000F0CD808D4A934200F0B9
:10A09000C98038211A68012022F038020A431A6068
:10A0A0001A6842F040021A602BF09CFC019C20468A
:10A0B000FFF7FEF8E3691BB19A88196812048A61F8
:10A0C000019B5A6940F2E93302E0002B00F0C680A0
:10A0D0009168013B11F0020F9BB2F6D06A2140F269
:10A0E000E933117302E0002B00F0CE809168013B50
:10A0F00011F0010F9BB2F6D0D368019B5A6940F270
:10A10000E93302E0002B00F091809168013B11F0EF
:10A11000020F9BB2F6D0102140F2E933117302E036
:10A12000002B00F083809168013B11F0010F9BB27E
:10A13000F6D0D368019BDB6913B11A689B889361E1
:10A140006423604CDFF89091DFF890815E4DDFF87A
:10A1500090A15E4E009328F04BFF4FF47A774FF0BA
:10A16000100C4FF0010ED8F80430C3F30803002B95
:10A1700039D1EFF31183002B35D12368A968226808
:10A180009342FAD132689142F7D8D9F8002007FB00
:10A1900002FBABEB0101B1FBF2F107FB03131B1A4E
:10A1A000B3F57A7FDFD3009B013B0093D3D1019BB2
:10A1B00042495B691A688B4222F040021A6033D030
:10A1C0003F4A934230D010211A68012022F0380211
:10A1D0000A431A601A6842F040021A6003B0BDE8F0
:10A1E000F04F2BF0FFBBEFF311818CF31288D5F801
:10A1F00008B02B68DB0303D5CAF800E0D5F808B037
:10A200002368C9B2DAF8002081F31188D9F8001068
:10A21000134407FB01F2A2EB0B02B2FBF1F207FBC6
:10A220000323BCE7302135E70821CDE728498A42DE
:10A2300008D0224B9A420FD003F580639A427FF4F4
:10A2400079AF0223234AD82101FB03239A890132E3
:10A2500092B29A819B896DE70123F3E71C498A42F8
:10A2600008D0164B9A4224D003F580639A427FF4BB
:10A2700046AF02231749D82000FB03139989013107
:10A2800089B299819B893AE71148019982424969CB
:10A2900007D00A4B9A420ED003F580639A4206D14A
:10A2A00002230C48D8240A4604FB0303E6E70A46C7
:10A2B00025E70123DEE70123F3E700BF0038004074
:10A2C000003C00404C95012010E000E05495012036
:10A2D0000030014048AA01205095012000ED00E027
:10A2E000489501200269C3682DE9F04712EA030985
:10A2F00027D00E4605464FF000474FF00008B9FA48
:10A3000089F327FA03F21B3BD2432A6109EA0209C7
:10A31000042B13D8DFE803F0322920170300736AF7
:10A32000002B34D1EB6A1FFA83FA346A34B1236804
:10A330002046514698476468002CF8D1B9F1000FC7
:10A34000DDD1BDE8F0873068696B036889B2984752
:10A35000B9F1000FD3D1F4E77068A96B036889B233
:10A360009847B9F1000FCAD1EBE7B068E96B036811
:10A3700089B29847B9F1000FC1D1E2E7F068296CC2
:10A38000036889B29847B9F1000FB8D1D9E703F152
:10A39000FF3AC6F824801FFA8AFAC6E7F8B5EFF349
:10A3A0001184502383F31288D0F8FC301B6813F01B
:10A3B000010303D0E4B284F31188F8BD90F885213D
:10A3C00090F886110A4302F02102212AF2D0D0E946
:10A3D0000912914245D095B247D94B1B9BB281627D
:10A3E000002590F8851180F890512029E2D18569E7
:10A3F000D54205EB0201DDD0B3FA83F56D09002DDE
:10A40000D8D190F88421012AD4D0064621220120F7
:10A41000DFF864C0A6F86E31D6F87C71C6F88851B2
:10A4200086F88521134AA6F86C3186F884013846EF
:10A43000C6F868113D65C7E90FC2D6F81C21DFF8E0
:10A440003CC02832C7F84CC00DF086F8D6F81C3155
:10A4500040221A6286F884519A6842F080029A601B
:10A46000A8E7012380F89031A4E706691946731B19
:10A470009BB2B4E7C12C0108F72C01085B2C010842
:10A48000426A10B48469A154426A04690132D0F866
:10A49000FC10A24228BF0022426241B9D0F81C2120
:10A4A0005DF8044B136843F08003136070475DF858
:10A4B000044B73E7406998300CF0B0BD426910B5A9
:10A4C0000832184C54F822000CF0A8FD164B1A88DC
:10A4D00023460C2A0DD8DFE802F0070C0C0C130CF5
:10A4E0000C0C190C0C0C1F002168CA6822F40072B5
:10A4F000CA60012283F83D2000220C4B1A7010BD67
:10A500002168CA6822F48062CA60F2E72168CA68DA
:10A5100022F40062CA60ECE72168CA6822F4805223
:10A52000CA60E6E738680120346801202868012005
:10A53000F8B5D0F81C310446DA69910615D5586A89
:10A54000E36AC0B2002B00F0CB80216B9847D4F8AF
:10A550001C311A6822F480721A609A6822F0010293
:10A560009A609A6942F008029A61DA69D20701D5C5
:10A5700001221A62DA69970701D502221A62DA69A2
:10A58000560701D504221A62DA69150701D5082297
:10A590001A62D4F8FC20FAB1D969490600D4F8BD92
:10A5A000D96904F58E701E680F079D682CD18F063F
:10A5B00002D5B50600F1DA800F0602D5350600F1A6
:10A5C000B980480602D5710600F18280002AE6D0E3
:10A5D0002046BDE8F840E1E6D9690806DCD594F8E4
:10A5E00085112129D8D0D4E90901814200F09B804E
:10A5F000A069405C0131C0B298622569B1FBF5F0F9
:10A6000005FB1011A162C7E715F0010502D116F490
:10A61000907FD1D0CF0701D5F7057BD48F074AD5DE
:10A62000002D6CD10F0709D5B70665D508251D6229
:10A63000D4F8885145F00805C4F88851D4F88851F9
:10A64000002DC3D08F0605D5B50603D50AF0F6FA5E
:10A65000D4F81C31D4F88821110708D49A6812F074
:10A66000400204D1C4F88821D4F8FC20AEE71A686F
:10A67000202122F490721A609A6822F001029A60F6
:10A6800084F886119A685206EED59A68D4F880113B
:10A6900022F040029A600029E6D0414B08460B6543
:10A6A0000CF096FD0028DFD0D4F88001036D9847A8
:10A6B000D4F8FC208AE74F07B4D5002DB2D0042788
:10A6C0001F62D4F8887147F00207C4F88871A9E7BF
:10A6D0001968202021F04001196084F8850175E790
:10A6E000E3696269D054E369E1680133B3FBF1F2D5
:10A6F00001FB1233E3612AE7002D9FD096E7022782
:10A700001F62D4F8887147F00407C4F888714F07B6
:10A7100088D5D4E701271F62D4F8887147F0010774
:10A72000C4F888717AE7A4F86E21196821F08001D5
:10A73000196031E794F8851121297FF447AFB4F807
:10A740006E1189B2B9B1D4F82401D4F86811B0F50A
:10A75000805F19D0481CC4F8680109789962B4F880
:10A760006E31013B9BB2A4F86E312FE70AF066FA16
:10A77000D4F8FC202AE7196821F0800119601968D3
:10A7800041F04001196021E7D4F82C010028E1D103
:10A7900031F8020BC0F308009862C4F86811DEE7D4
:10A7A0004D2C01082DE9F84F037C01681F2B0BD9B4
:10A7B000203B2022496802FA03F30B4214BF012315
:10A7C00000235BB9BDE8F88F2022096802FA03F381
:10A7D0000B4214BF01230023002BF3D0476904462A
:10A7E000934E28F005FC4FF4BC73804603FB0763CF
:10A7F0001A7C002A2ED18F495A6809781568C1B988
:10A80000D3F8EC1058890A6822F001020A60EB685C
:10A8100023EA0003EB60884B1B78002B33D1237CA9
:10A8200021681F2B0FD8202202FA03F38B60BDE8AA
:10A83000F88F5269136823F001031360EB6823F467
:10A840008073EB60E7E7203B202202FA03F3CB6042
:10A85000BDE8F88F774A012112785974002A40F038
:10A860008880D3F8EC0059680268096822F0010278
:10A870005D890260CB6823EA0503CB606F4A1368E9
:10A8800001331360CBE74FF4BC726D4B02FB07F250
:10A8900006EB020AA832DAF8EC0006EB0209C1B2B4
:10A8A00020F0FF001039A3FB013109090CF0CCFAAC
:10A8B0000123DAF8F0B08AF8103028F099FBDAF8C2
:10A8C000E430CBF82C01102B00F096805DD9B3F565
:10A8D000807F76D0B3F5805F19D12B6ADAF89C10AF
:10A8E00023F48053DAE928022B621143EA69DAF88B
:10A8F0009830014322F47F421B0342EA112243F4C1
:10A900008053EA612A6A22F4204213432B624FF4F7
:10A91000BC7000214A4B4A4600FB0766D6F8EC00A3
:10A92000C6F8B010C1B220F0FF001039A3FB01310E
:10A9300009090CF043FAD6F8EC3096F8E8101D68D7
:10A94000776845F0100572893E481D605E683D6875
:10A95000304001435960196841F001011960EB680A
:10A960001343EB6028F044FB374BA0EB0800186062
:10A9700055E75B6859691A680B6823F001030B609F
:10A98000D36823F48073D36078E7012BBFD12B6A9F
:10A99000DAF89C1023F00103DAE928022B62114354
:10A9A000AA69DAF89830014322F0FF0243F001036C
:10A9B00042EA1142AA612A6A22F00A0213432B6278
:10A9C000A5E72B6ADAF89C1023F48073DAE92802F1
:10A9D0002B621143EA69DAF89830014322F0FF0252
:10A9E0001B0242EA114243F48073EA612A6A22F4AC
:10A9F000206213432B628AE72B6ADAF89C1023F05B
:10AA00001003DAE928022B621143AA69DAF89830B8
:10AA1000014322F47F421B0142EA112243F010035A
:10AA2000AA612A6A22F0A00213432B626FE700BFDB
:10AA3000303500202C350020283500200CA90120BD
:10AA4000ABAAAAAA0000FFFF9C33002020B1007827
:10AA5000B0FA80F0400970470120704708B5202106
:10AA60004AF089FE034618461BB102780133202ABA
:10AA7000F9D008BD037903F01803082B0AD002D8D7
:10AA80002BB100207047102B17D0182BF9D1B0F83C
:10AA90000B007047124BB0F80B0093F90030591CB3
:10AAA00009D1104B1B78C3EBC30203EB820300EB0D
:10AAB000830080B27047DBB2F5E70B4BB0F80B00B8
:10AAC00093F900305A1C09D1064B5B7803EB430223
:10AAD00003EB820300EB430080B27047DBB2F5E783
:10AAE000DD0C0120AC9E0120DC0C0120F0B50679C4
:10AAF00006F0E003402B09D144794FF0FF350023E5
:10AB0000012006F00706A3420BD1F0BD602B4FF0E9
:10AB1000010403D1457904FA05F5F0E74FF0FF355C
:10AB2000EDE7042E0CD8DFE806F0030D18242E0004
:10AB300030B1C85CD75C784028420CBF01200020AF
:10AB40000133E0E70028FBD0C856D756A0EB070C2E
:10AB5000DCF1000040EB0C00F2E70028F0D031F807
:10AB6000130032F81370784028420CBF01200020F7
:10AB7000E6E70028E4D031F9130032F91370C71B5F
:10AB800078427841DCE70028DAD051F8230052F807
:10AB90002370784028420CBF01200020D0E7024BF0
:10ABA0000146186831F0C6BC987E012038B5441EB5
:10ABB000054D14F8011F286819B9BDE8384031F077
:10ABC00033BC31F0B7FCF4E7987E01200048EDE794
:10ABD000D307060808B5FFF7E9FFBDE80840F5E729
:10ABE00010B504460348FFF7E1FF2046BDE81040DA
:10ABF000F0E700BF48D8050838B5074C074DAC4210
:10AC000003D3074B00221A7038BD6288D4E90101D2
:10AC100049F054FA1434F2E7E8010008C4070008C8
:10AC20003C80012038B5074C074DAC4203D3074B9D
:10AC300001221A7038BD6288D4E9011049F03EFA49
:10AC40001434F2E7E8010008C40700083C80012042
:10AC5000024A136823EA000010607047A4A1012093
:10AC6000DFED2A7AB4EEE70AF1EE10FA4BDDDFED04
:10AC7000286A9FED287AB4EEC70A70EE667AF1EE84
:10AC800010FAB0EE670AF6DC9FED237AF4EEC77A8D
:10AC9000F1EE10FA34D5DFED1E6A9FED207AF4EE66
:10ACA000C77A37EEA60AF1EE10FAF0EE407AF6D443
:10ACB000DFED1B7AB4EEE70AF1EE10FA14DDDFEDFA
:10ACC000137A37EEC00A60EE006A9FED166A9FEDB8
:10ACD000167ADFED167AA6EE867A20EE266AE6EE82
:10ACE000877AA6EE270A7047DFED117AB4EEE70AFD
:10ACF000F1EE10FAE7D5DFED087A37EEC00AE2E7A9
:10AD0000B0EE670AD4E7F0EE407ABDE7DB0F4940CA
:10AD1000DB0FC940E4CB1641DB0F49C0E4CB16C1C1
:10AD2000DB0FC93F92E741B99730083C15A82ABE0E
:10AD3000DB0FC9BFB0EEC07AF0EEE06A86FE876A2C
:10AD4000B5EE406AF1EE10FA3DD0C6FEC75AC5EE28
:10AD5000867ADFED1E2ADFED1E3ADFED1E4A9FEDFB
:10AD60001E5A9FED1E3AB7EE006A9FED1D4ADFEDB9
:10AD70001D5AE7EEE23AA7EE834AE7EEA34AA7EEB2
:10AD8000846AA7EEA45AE7EE855AC5EE867AF4EEF9
:10AD9000C76AF1EE10FA03D59FED137A77EE677A62
:10ADA000F5EEC00AF1EE10FA03D59FED107A77EEBA
:10ADB000677AB5EEC00AF1EE10FA48BFF1EE677A95
:10ADC000B0EE670A7047DFED077AE0E739094E3DDC
:10ADD000E3B59E3E88FA163E45FE7F3F99FB243F31
:10ADE00069A2163EA7DFA834DB0FC93FDB0F49403D
:10ADF000DFED307A30EE277AFDEEC76A16EE903A34
:10AE00002033402B02D99FED2C0A7047B4EEE70A9D
:10AE1000F1EE10FA4BDD9FED296ADFED296AB4EE01
:10AE2000E67A77EE467AF1EE10FAB0EE677AF6DC63
:10AE30009FED247AF4EEC77AF1EE10FA34D5DFED07
:10AE40001F6A9FED217AF4EEC77A37EEA60AF1EE7B
:10AE500010FAF0EE407AF6D4DFED167AB4EEE70A97
:10AE6000F1EE10FA1BDCDFED197AB4EEE70AF1EE31
:10AE700010FA03D5DFED137A37EEC00A60EE006AF0
:10AE80009FED136A9FED137ADFED137AA6EE867AB3
:10AE900020EE266AE6EE877AA6EE270A7047DFEDF7
:10AEA0000F7A37EEC00AE9E7B0EE670AD4E7F0EEB2
:10AEB000477ABDE7DB0FC93F00000000DB0FC94048
:10AEC000E4CB1641DB0F49C0E4CB16C1DB0FC9BF91
:10AED00092E741B99730083C15A82ABEDB0F4940DC
:10AEE00010B401224C0901F01F0150F8243002FA7D
:10AEF00001F123EA010340F824305DF8044B704768
:10AF000010B401224C0901F01F0150F8243002FA5C
:10AF100001F10B4340F824305DF8044B704700BF4B
:10AF200001234A0901F01F0150F8222003FA01F120
:10AF3000114214BF18460020704700BF2DE9F043AE
:10AF4000002489B006460D461F46A04605E0252987
:10AF50000CD030460134A847039A531C0393117850
:10AF60000029F4D1204609B0BDE8F083931CCDE957
:10AF700003385378302B43D0A3F130024FF000094F
:10AF8000D2B2092A46D96C2B2BD0642B7AD019D98E
:10AF9000732B5DD06AD9752B40F08B8007F1040CC0
:10AFA000386805AB00220A216746FDF757F905A965
:10AFB000049A4B46304600912946FDF727F8039A3C
:10AFC0000444CAE7252B41D058D9582B74D0632BA1
:10AFD000C2D13B1D3978304601341F46A847039A39
:10AFE000BBE7039B5A1C03921B78642B5AD018D8DA
:10AFF000252B2BD06DD9582B1AD0632BE9D0ACE779
:10B00000D31C4FF0010903939378A3F13002D2B21D
:10B01000092AB8D8184604AA03A93FF043FE0346FC
:10B02000B1E7732B14D058D9752B32D0782B94D12B
:10B03000A3F1580207F1040C386805ABB2FA82F2AA
:10B04000102167465209FDF709F9B0E7252180E78D
:10B05000386807F1040C049A002300902946304612
:10B060006746FCF7D3FF039A044476E76E2B7FF420
:10B0700073AF039A3B6804371C606EE7002B3FF404
:10B0800071AF69E73B1D386805A91F46FDF7B2F8A7
:10B090008DE7391D386805AB00220F460A21FDF700
:10B0A000DDF884E73B1D386805A91F46FDF7A2F8C7
:10B0B0007DE7782B7FF450AFA3F15802391D386833
:10B0C00005ABB2FA82F20F4610215209FDF7C6F81D
:10B0D0006DE7002B3FF446AF3FE76E2BCAD03CE74D
:10B0E00010B5064C0B46024605492068FFF726FFBF
:10B0F0002068BDE8104031F097B900BF987E01206C
:10B10000858A000838B504460D460848FFF74EFD0D
:10B1100029462046FFF7E4FF0548FFF747FD054BAA
:10B120001B7813B1044B01221A7038BD4DD80508A5
:10B1300058D80508F47F0120F57F01200FB407B52A
:10B1400004A951F8040B0191FFF7DCFFFFF73EFD66
:10B1500003B05DF804EB04B0704713460A4601469D
:10B160000048EBE75CD805080048E7E775D8050814
:10B170000FB407B504A951F8040B0191FFF7C2FF02
:10B1800003B05DF804EB04B070470FB407B504A931
:10B1900051F8040B0191FFF7A3FFFFF717FD03B070
:10B1A0005DF804EB04B070470FB407B504A951F87B
:10B1B000040B0191FFF794FF03B05DF804EB04B0BA
:10B1C00070472DE9F843037903F0E001202928D0E6
:10B1D00002D849B1BDE8F883402945D06029F9D1AA
:10B1E0002448BDE8F843D0E703F00703022B02D060
:10B1F000042B08D06BB9B0F80720B0F805101E4832
:10B20000BDE8F843C1E7D0F805201B48BDE8F84386
:10B21000BBE7B0F90720B0F905101748BDE8F843BF
:10B22000B3E745790024154E1548FFF7BFFC01230D
:10B2300006EBC50292F80480A04502D8BDE8F843A9
:10B24000C4E456F835704FEA840957F824204AB10F
:10B2500013B90C48FFF7AAFC57F809100A48FFF782
:10B26000A3FF00230134E7E741790848BDE8F8432C
:10B270008BE700BFBDD8050881D80508F492050802
:10B2800098D80508A9D80508E0FC0508ACD8050839
:10B290002DE9F0411746027905460E4602F0E0031B
:10B2A000402B2BD10024554FDFF8708115E02B790E
:10B2B00003F00703022B15D0032B19D0012B3846BE
:10B2C00014BF315D3157FFF76FFF6B79013BA3422C
:10B2D00002DD4046FFF76AFC01346B79A342E6DCED
:10B2E000BDE8F08136F814103846FFF75DFFECE753
:10B2F00036F914103846FFF757FFE6E702F0070269
:10B30000042A5CD8DFE802F0031D25272A003478E0
:10B31000202B3AD067D8002BE2D1B5F80560B5F8FC
:10B32000078021463548FFF73FFFA6423FDCA04596
:10B330003DDB002FD4D0424631463148BDE8F041D4
:10B3400032E796F90040202B1FD04CD8002B3CD080
:10B35000C6E73488DCE7B6F90040F4E7D6F80080A9
:10B36000202B444611D03ED8002BB9D1414623486A
:10B37000FFF71AFFD5F80510884518D8002FAFD071
:10B380002048BDE8F0410FE700246A791E4B03EB2B
:10B39000C2010979A1420ADD53F8323053F8240082
:10B3A000BDE8F04102E41948BDE8F041FCE6FFF7D2
:10B3B0000DFC224629681648BDE8F041D8E6202B4E
:10B3C000E2D007D8002B8BD11C46B5F90560B5F942
:10B3D0000780A6E7602BE6D0802B81D131460D484F
:10B3E000BDE8F041E0E6602BF6D16A791441E3074D
:10B3F000D9D50948BDE8F041D6E600BF95D8050883
:10B4000012FD0508D7D80508F49205081F41060863
:10B41000DDD80508E0FC0508D2D80508D5D8050810
:10B420000CB407B510F020000BD079B92320FFF73A
:10B43000B6FB05A904980191FFF752FEFFF7C6FB82
:10B44000012003B05DF804EB02B070470020F8E77C
:10B450000CB4C30607B500D561B905A904980191DC
:10B46000FFF73EFEFFF7B2FB012003B05DF804EBEF
:10B4700002B070470020F8E70EB410B585B0094956
:10B4800007AC019001A854F8042B23460394FFF75E
:10B4900055FD019B00221A7005B0BDE8104003B0B5
:10B4A000704700BF0180000870B406688E4219D949
:10B4B0004C1E751E002314F8011F08224B4002E0A9
:10B4C000013ACBB207D059001B06F9D581F0D5035C
:10B4D000013ADBB2F7D1A542EDD1721C02603370A4
:10B4E00070BC7047721C00230260337070BC7047E0
:10B4F0000A44914217D0013910B4541E11F8012F9B
:10B500000823504002E0013BD0B207D042000006C1
:10B51000F9D582F0D500013BC0B2F7D1A142EDD1FF
:10B520005DF8044B704770474840082302E0013B38
:10B53000D0B208D001064FEA4002F8D582F0D5001B
:10B54000013BC0B2F6D170470A4491421BD0013989
:10B5500030B4551E41F2210411F8012F082380EA6E
:10B56000022002E0013B90B209D010F4004F4FEAF4
:10B570004002F7D084EA4000013B80B2F5D18D4211
:10B58000EAD130BC7047704770B5144C0222144E9B
:10B590004FF6FF701349FFF7D7FF22884AB1A5186D
:10B5A000B54218D2052A16D921462C46FFF7CCFF02
:10B5B000F3E721460222FFF7C7FF0222A118FFF797
:10B5C000C3FF094BE41A094B1C8041F60F53C31A01
:10B5D0005842584170BD0020FCE700BF02400008FF
:10B5E0000080000800400008FA3F00083E8001206B
:10B5F000104A2DE93048D2E9004554EA05020BD142
:10B600000346002240F2011110461A809A809A7176
:10B610001A815980BDE83088074B1A6814EB020B79
:10B6200045F1000C5A466346FCF72CFD0120BDE8AD
:10B63000308800BF088301204C9501200288A2F5C4
:10B64000FA6270B402F003018478C37840F2B55610
:10B6500001EB4101013C124D013B04EB81040179F6
:10B66000920806FB023235F8143004890025134491
:10B67000427980794FF47A7603EB430301EBC303FD
:10B680000849C3EB03130144204602EB8303C3EBD9
:10B69000031301EB83032946C6FB030170BC70470B
:10B6A0003858050880436D382DE9F04707468CB0BF
:10B6B0001E469246002A60D1154614460A88B2F505
:10B6C000FA6F37D38B78581E0B2833D891F803C004
:10B6D0000CF1FF301E282DD891F804E0BEF1170FB1
:10B6E00028D891F80590B9F13B0F23D888793B28E9
:10B6F00020D8B1F80880B8F57A7F1BD24FF0010846
:10B700006EBB002C0E890795B4BF2D212B21002C78
:10B71000CDF800C0B8BF6442CDE90306CDE90514F9
:10B7200038462D49CDE901E9FFF7A6FE40460CB0A9
:10B73000BDE8F0870022DFF8ACA04FF0010C09A9AA
:10B740001046ADF828208DF82A206346ADF82C204D
:10B75000914696469046CDF824A0002ED1D0CDF843
:10B7600004E0CDF800C01D49CDE902903846FFF74E
:10B7700083FE40460CB0BDE8F087194BD41708464D
:10B7800083FB0A235344C4EB6314C4EB041524B2B3
:10B79000AAEB85052DB2002DB8BF6D42FFF74EFF15
:10B7A0004FF47A7200238046894647F043FF3C21DC
:10B7B0004FF47A7200230AFB010A4046494647F0DB
:10B7C00039FF4FF47A7192B2002309A8C1FB0A2312
:10B7D000FCF758FC09A971E770D9050850D905088C
:10B7E00089888888000001010378092B01D0202B6B
:10B7F00005D110F8013F202BFBD0092BF9D02D2BC0
:10B8000000F0A9802B2B75D0B7EE000AA3F130020F
:10B81000D1B2092977D8F2EE046ADFED5F7A07EE3C
:10B82000102A10F8013FB8EEC77AA3F13002D1B266
:10B83000A7EEA67A0929F0EE477AF0D92E2B66D02A
:10B8400003F0DF03452B40F0838010B442782D2AAB
:10B8500000F096802B2A00F08380A2F130030130A3
:10B86000092B00F284800024002303EB830302EB06
:10B87000430310F8012FA2F13001303B0929F4D91C
:10B88000B3F59A7F1A46B7EE007A28BF4FF49A7242
:10B89000072B09D91346DFED416A083B27EE267ACC
:10B8A000072BFAD802F00702DAB1F2EE046A012A95
:10B8B00027EE267A15D0022A27EE267A11D0032AFF
:10B8C00027EE267A0DD0042A27EE267A09D0052AFB
:10B8D00027EE267A05D027EE267A062A18BF27EE0D
:10B8E000267A002C45D0C7EE877A5DF8044B20EE0F
:10B8F000270A70474378B7EE000A0130A3F13002FF
:10B90000D1B2092987D92E2BDFED237A98D143783C
:10B910000130A3F13002D1B2092991D8B2EE047AF4
:10B92000F0EE475A06EE902A10F8013FB8EEE66AAC
:10B93000A3F13002D1B2C6EE076A092927EE257AB3
:10B9400077EEA67AEED903F0DF03452B3FF47DAF07
:10B9500020EE270A70474378BFEE000A013055E712
:10B9600082780230A2F13003092B7FF67CAFB7EE6C
:10B97000007A67EE877A5DF8044B20EE270A70475D
:10B9800082780230A2F13003092B01D801246BE741
:10B99000B7EE007AA7E700BF0000000020BCBE4C55
:10B9A000F8B5064615460846B6FBF2F434B905FB71
:10B9B00014640C4B1B5D00F8013BF8BDB4FBF2F7BF
:10B9C0005FB905FB1747074B05FB1464DA5D1B5D88
:10B9D00000F8012B00F8013BF8BD3846FFF7E0FF07
:10B9E000EFE700BFA0D90508B5EEC00ADFED6D7A1C
:10B9F00000236D4AF1EE10FA2DE9F047C8BF30EE92
:10BA0000270A88B0D8BF30EE670ADFED687A049362
:10BA1000054620EE270ACDE90233FDEEC07A17EE87
:10BA2000904A84EAE476A6EBE476A2FB06325FEA6B
:10BA3000D20847D105AF5E4A39465B4B002C4FF028
