:020000040800F2
:1000000000000120294D0508A94D0508652D0208AD
:10001000D92D0208A94D0508A94D050800000000CA
:10002000000000000000000000000000A94D0508CD
:10003000A94D050800000000A94D0508352E02084D
:10004000A94D0508A94D0508A94D0508A94D0508A4
:10005000A94D0508A94D05084D1304087914040895
:100060003D14040801140408C5130408BDFA00086F
:10007000ADFA00089DFA00088DFA000879FA000828
:1000800065FA000851FA0008A94D0508A94D0508B0
:10009000A94D0508A94D0508A94D050889130408AF
:1000A000A9DC000831DD000899DC000859DD0008F2
:1000B00021DD000811DD000801DD0008CDFA00088F
:1000C000F1FA0008A94D0508A94D0508A94D050834
:1000D000A94D05089DD6000891D6000885D60008D0
:1000E00011130408A94D0508A94D050889DC00086D
:1000F000B9DC0008A94D0508E1DC00083DFA00085C
:10010000A94D0508A94D0508F1DC0008A94D050811
:1001100079D600086DD60008A94D0508A742010848
:1001200029FA000815FA000801FA0008EDF900089C
:10013000D9F90008000000000000000000000000E5
:10014000000000000000000000000000E74C010873
:10015000C5F90008B1F900089DF90008A94D050886
:10016000A94D0508A94D0508A94D0508A94D050883
:10017000A94D0508A94D0508000000000000000079
:10018000A94D0508A94D0508A94D0508A94D050863
:10019000A94D0508A94D050800000000A94D050856
:1001A000000000000000000000000000A94D05084C
:1001B000A94D0508A94D0508000000000000000039
:1001C000000000000000000000000000000000002F
:1001D000000000000000000000000000A94D05081C
:0801E000784805000100000051
:1001E80010020100741C0120701C01200000000096
:1001F800D80700081F021000901C0120801C012055
:1002080000000000D984000803010A00282D0120FD
:10021800342D012000000000DA0700080510060050
:100228001C2D0120402D012000000000E4070008DB
:1002380023121000F03901207C3A01200000000050
:10024800EC070008371028002C3A01208C3A0120CE
:1002580000000000FC0700080E020200E839012037
:10026800B43A012000000000240800081610060017
:10027800902F0120B83A012000000000260800084D
:100288002F102200583A0120C03A01200000000037
:100298002C080008F5518C00C42E0120E43A0120F6
:1002A800000000003168020826100C007C3B012089
:1002B800703B012000000000ED70010814000300ED
:1002C80038360120B43B0120000000004E08000829
:1002D8000B301A00702E0120B83B012000000000EE
:1002E800520800081F3024008C2E0120D43B012026
:1002F800000000006C0800080502040078310120A5
:10030800F83B012000000000900800081A023C0099
:10031800043D0120E03F012000000000F58B0008AB
:1003280027000400FC3C01201C40012000000000C4
:100338009408000838100100203C012020400120CA
:10034800000000009808000801200C006447012004
:1003580024520120000000009A0800080A702800B2
:10036800204601203052012000000000615A030895
:100378000EA05C01C4440120585201200000000076
:1003880085CA02080101040020440120B453012059
:1003980000000000000000000001040018440120D3
:1003A800B853012000000000A6080008020103005D
:1003B80014440120BC530120000000009D92040851
:1003C80022021401A84E0120C053012000000000A1
:1003D8004D8D00080C109C0094460120D454012037
:1003E8000000000061920408010205002C4401206D
:1003F8007055012000000000995D02080002050008
:10040800444D012078550120000000000000000044
:100418001B0210007C4A01208055012000000000CA
:10042800258300081E000600004801209055012081
:1004380000000000AA0800081B100C00A8410120B9
:100448009855012000000000196A02082102F000F6
:100458002C400120A455012000000000FD6802087E
:1004680003000100C85D0120D85D012000000000E4
:100478000000000010100200D05D0120DC5D0120AA
:1004880000000000B008000825102C01585B01206E
:10049800E05D0120000000000000000019000500D8
:1004A800F45A01200C5F012000000000B208000887
:1004B8001A000E009C570120145F01200000000064
:1004C800B8080008F8210600085A0120245F012016
:1004D80000000000C6080008150070001859012027
:1004E8002C5F012000000000000000002A006000CE
:1004F800305A01209C5F0120000000005DCA0208FC
:100508002C0010004C6901203C690120000000000B
:10051800357603082B002400806901205C690120DE
:1005280000000000057603082920780040680120B3
:10053800A46901200000000000000000F6210C0062
:10054800AC6701201C6A012000000000CC080008EC
:1005580020320A00786A01206C6A0120000000003D
:10056800495903081C02100014640120846A012000
:1005780000000000F582000828101000DC66012049
:10058800946A012000000000BD5A03080702020017
:100598000C7001203C71012000000000D808000800
:1005A80003123D00DE7001204071012000000000B0
:1005B800DA08000802000C00E06F012080710120B9
:1005C800000000000000000006021000C46F0120B7
:1005D8008C71012000000000918C0008F7010600D2
:1005E800BC6F01209C710120000000001809000860
:1005F8001D020200B86F0120A47101200000000054
:100608001E0900080A020A00246F0120A8710120AF
:10061800000000007994040823100E00689501205A
:10062800EC96012000000000D55A03080D003400A4
:10063800F8940120FC960120000000006549040898
:10064800040080006890012030970120000000001D
:10065800000000001300040048900120B09701201A
:100668000000000020090008FD011E00289001205C
:10067800B49701200000000085DC010818202E0036
:10068800F48F0120D497012000000000A98C0008F5
:1006980006101A00D88F01200498012000000000DD
:1006A800E5CA0208FB010100D48F0120209801202F
:1006B800000000001D8D0008FC010900A08E01202B
:1006C80024980120000000002D8D0008F901040085
:1006D800988E0120309801200000000009E40308EA
:1006E80016023F00588E01203498012000000000B7
:1006F8006983000834001000888D01207498012057
:1007080000000000B5CA020811020800608D01202F
:100718008498012000000000240900081212040037
:10072800588D01208C980120000000002C09000839
:1007380012201000488D0120909801200000000030
:1007480030090008FF110600188D0120A09801202B
:1007580000000000BD84000808121400248D012048
:10076800A898012000000000498400081302040032
:10077800F88C0120BC980120000000004009000806
:1007880002020300108A0120C09801200000000026
:10079800000000000C020400FC890120C49801201C
:1007A80000000000A584000811000C00857E0120CF
:1007B800C898012000000000ED480408FE0114005C
:1007C800907B0120D49801200000000039830008A4
:1007D8000000040101006C16000000002000020166
:1007E8000000000000000000000000000000000001
:1007F8000000000020003200C800D0079600140056
:1008080032002800B00440060005500014000F0014
:10081800080064000100010005000A000000C40986
:1008280000001900000000000000000000000000A7
:1008380000000000000000000000000000000000B0
:1008480000000000000003000000AE014A015E0144
:100858002C0164010100000001000A019A01001E38
:100868000A00000000000000000100000005000070
:10087800010203000000000000000000000000006A
:1008880000000000008007000000000020030000B6
:100898000000E8036400040A000114001E002C0193
:1008A8000000000001000000000500002801000011
:1008B8007E05EA05B4053200E803D007000004010C
:1008C800F401140000000000010000000202000012
:1008D800013C0000000000000000000000000000D3
:1008E8000000000000000000000000000000000000
:1008F80000000000000000000000000000000000F0
:1009080000000000000000000000000000000100DE
:100918003F0100000000000008846530000000006E
:1009280001010101FFFFFFFF000000010000055366
:0C093800503744000008000000000100DF
:100944000200020004002000FF01FF00000000007C
:100954000401000000070000000000000000000087
:100964000002000010000000000000000000000071
:1009740007000000B00100000200000009000000B0
:1009840000C20100000008001A030000000000007B
:100994000000000000000000000000000000000053
:1009A40000000000040309040A06000200000040DD
:1009B4000100000009072000010104C032090400FD
:1009C40000020806500507058102400000070501E2
:1009D4000240000009022000010104C032090400A1
:1009E40000020806500507058102400000070501C2
:1009F4000240000009022000010104C03209040081
:100A040000020806500507058102000200070501DF
:100A1400020002000A06000200000040010000007B
:100A240009026400030100C032090400000103004C
:100A34000000092111010001222600070583030893
:100A4400000A080B0102020201000904010001026C
:100A540002010005240010010524010002042402FF
:100A6400020524060102070582030800FF090402A7
:100A740000020A000000070501024000000705818A
:100A84000240000087170108E3140108795C01089B
:100A94000000000025080108830801085108010826
:100AA4000000000000000000000000000D08010824
:100AB4001908010801080108F50701080A060002DF
:100AC400000000400100000009022200010100E0D2
:100AD400320904000001030102000921110100018F
:100AE4002226000705830308000A00000A06000204
:100AF400000000400100000009074300020104C097
:100B0400320904000001020201000524001001055D
:100B140024010001042402020524060001070582C1
:100B2400030800FF09040100020A00000007050190
:100B34000240000007058102400000000902430052
:100B4400020100C032090400000102020100052470
:100B540000100105240100010424020205240600FA
:100B6400010705820308001009040100020A0000BD
:100B740000070501020002000705810200020000CF
:100B840009024300020100C032090400000102020C
:100B940001000524001001052401000104240202BF
:100BA400052406000107058203080010090401005A
:100BB400020A000000070501024000000705810247
:100BC40040000000B86D05080000000000000000AF
:100BD4000000000000000000000000000000000011
:100BE40000000000000000000000000012010002EC
:100BF4000000004083042A570002010203010000A0
:100C04001201000202000040830440570002010266
:100C14000301000012010002EF0201408304563276
:100C2400000201020301000005010905A101A10060
:100C340005010930093109320933093509340940FC
:100C440009381581257F750895088102C0C0000008
:100C5400092111010001222600000000A51101084C
:100C6400B50501086D110108811101086D05010820
:100C74005911010843110108F116010899140108DA
:100C8400755A01080000000000000000754C0108BE
:100C9400714B01080000000000000000000000008B
:100CA400F5060108E9060108DD060108D106010878
:100CB40021300108312F010811300108C105010854
:100CC400C12F0108692F0108410401089003012084
:100CD400008002021F00000053544D2020202020D9
:100CE40050726F6475742020202020202020202042
:100CF400302E303100FFFF0000000000AA5505012E
:100D040000000101FFFFFFFF007105080000000063
:100D140000000000000000000000000000000000CF
:100D240000000000000000000000000000000000BF
:100D3400FF1FFF1F2D202D2D202D2D2D2D202D2D7E
:100D44002D2D000000000000000000000000000045
:100D5400000000AA550B010000AA5507010000AAD3
:100D6400550902000000AA5503009F00010000007D
:100D7400C0120000883B012000000000AC3B0120B1
:100D84000000000001000000685E0C00FF0100008C
:100D9400A00F0000B80B00000102FFFF01000000DB
:100DA40000000100E0010100D95D0208000000001C
:100DB4001C77050820700020702D7200FFFFFFFFD4
:100DC40008FF0101FFFF2D202D2D202D2D2D2D207D
:100DD4002D2D2D0000000000000000000000000088
:100DE40000000000000000000000000000000000FF
:100DF400208F05080000000000000000AC8F0508EB
:100E040001000000FA0000000100000001000000E1
:100E140003000000604701200000F401010000000D
:100E24005E4701200000F401010000005C4701203E
:100E34000000F401010000005A4701200000F40101
:100E440001000000584701200000F40101000000E7
:100E5400564701200000F40101000000544701201E
:100E64000000F401010000009D66020861660208AA
:100E7400D07C05084E470120053201004C47012073
:100E8400E803D007010000004A470120E803D00727
:100E94000100000048470120E803D00701000000DA
:100EA400464701201E00B80B010000004447012002
:100EB4001E00F401010000004247012014006400F8
:100EC40001000000504701203200E8030100000047
:100ED400404701200000C8000100000076460120C0
:100EE40000C801007546012000500100744601202D
:100EF400005A010072460120020000005C7D0508D2
:100F04009CF40508A4F40508969501200100C40981
:100F140000000000949501200100C40900000000B5
:100F2400929501200100C409000000009095012061
:100F34000100C409000000008C9501200100C409CF
:100F4400000000008E9501200100C409000000008B
:100F54008A9501200100C409000000008895012041
:100F64000100C409000000003F44012000C8010042
:100F74003E44012000C801003C4401200100C80097
:100F8400010000003A4401203200307532000000B4
:100F940039440120055A05003644012000FF0100B0
:100FA4003844012001000000C00501203444012020
:100FB400030000001C7005083544012000FF0100F7
:100FC4003744012001000000C00501203344012002
:100FD400030000001C70050811660208C1650208C0
:100FE400687D050874470120EE02CA08010000006C
:100FF4007247012000C8010064000000714701200D
:1010040000C80100640000007047012002000000D5
:101014002C7E05082644012080C1803E0500000086
:101024002444012080C1803E050000001E440120AC
:1010340080C1803E050000001C44012080C1803E28
:10104400050000001744012000FF010012440120A4
:101054006400F401010000001144012004000000B8
:10106400387E050810440120020000004C7E05086B
:10107400B54401200D000000587E0508B24401204B
:1010840000640100B0440120320010270A0000006F
:10109400AF4401200D000000587E0508AE44012035
:1010A4000D000000587E0508AD4401200200000038
:1010B400907E050800000000000000009C7E0508EA
:1010C400303101209CFF2C0100000000CC50012095
:1010D400E0150C1700000000C94D012002000000BB
:1010E400D47E0508804701200100FF7F0100000035
:1010F4007F47012002000000E07E0508B74401207C
:1011040003000000F07E0508B6440120030000003F
:10111400F07E0508544601200000E80301000000A9
:10112400524601200000E80301000000504601205F
:101134000000E803010000004E4601200000E8031F
:10114400010000004C4601200000E80301000000FB
:101154004A4601200000E80301000000494601203E
:10116400001401004846012003000000007F050828
:10117400604601200000F401010000005E460120E9
:101184000000F401010000005C4601200000F401AD
:10119400010000005A4601200000F4010100000093
:1011A400584601200000803E010000005646012000
:1011B4000000803E010000008946012019640100FE
:1011C4008846012002000000107F050886460120A1
:1011D400E803D0070A0000008446012000640100EF
:1011E4000A000000794601200064010078460120CD
:1011F4000064010080460120006401000A00000030
:101204007F460120006401000A0000007E460120A0
:10121400006401000A00000083460120006401000C
:101224000A00000082460120006401000A00000058
:1012340081460120006401000A0000007D4601206F
:1012440001FF01000A0000007C46012001FF0100AB
:101254000A0000007B46012001FF01000A00000093
:10126400C04401200000F40101000000BE4401203C
:101274000000F40101000000BC4401200000F4015E
:1012840001000000BA4401200000F4010100000044
:10129400B84401200000F40101000000714601205F
:1012A4000064010070460120006401006F460120C3
:1012B400006401006E460120FF0801006D46012014
:1012C4000164010091640208556402081C7F05084A
:1012D4006C460120006401006A4601201400E80302
:1012E4000100000068460120E80330750A00000090
:1012F4006646012000C801006546012000C80100BF
:101304006446012000C80100634601200064010016
:101314000A0000003E4701200000D0070100000041
:101324003947012000C801003847012000C80100E6
:101334003747012000C801003C4701200000D007C6
:10134400010000003647012000C801003547012094
:1013540000C801003447012000C801003A470120B9
:101364000000D007010000003347012000C801003D
:101374003247012000C801003147012000C80100A4
:1013840000000000BD6102088C7F0508AB44012009
:101394003500000028800508AA44012000C8010087
:1013A400A8440120E803D007010000005350524133
:1013B40043494E4746374455414C000032440120CE
:1013C4000003010031440120000301000961020807
:1013D400CD60020800810508896002083D600208AA
:1013E400708105084561020845930208F0810508EB
:1013F400284401200103010005670208D966020898
:10140400E4840508C15F0208755F02085485050875
:10141400D3610208F5C60208F085050809A9020887
:101424000000000098860508015F0208C5A80208AC
:1014340034870508C594020865670208888705088B
:101444002D62020800000000F88705080563020801
:10145400B16202085C8805089563020859630208B2
:10146400F8880508CD64020815650208788905081E
:1014740077460120010601007562020841620208F4
:10148400748A0508D1630208A9930208E48A05084E
:101494004565020831940208C48B050862460120A0
:1014A400010301008D6102085D610208988C050842
:1014B4003167020800000000FC8C05080D6002087A
:1014C40015930208608D050800000000000000006C
:1014D400EC8D050899650208A9940208788E050820
:1014E400E643012088136F1701000000E843012040
:1014F40088136F1700000000DA9501200000000037
:1015040000000000D8950120000000000000000049
:10151400D69501200000000000000000D4950120B1
:101524000000000000000000D2950120000000002F
:1015340000000000D0950120000000000000000021
:10154400300401200000000000000000BC43012022
:101554000200000000900508E443012088136F177F
:10156400010000007031012088136F170000000093
:10157400915E0208000000000C900508CA4D01208D
:101584000100000060900508723101200100000094
:101594006C90050868310120020000007490050871
:1015A400000000000000000080900508795E020839
:1015B400000000001C91050800000000000000006D
:1015C400709105080000000000000000E09105088B
:1015D4006C310120E0150C1700000000FFFFFFFF35
:1015E4007D0000000000803F0000000000000000BB
:1015F400000000000000803F000000000000000028
:1016040000000000000000000000000000000000D6
:101614000000000000000000000000000000803F07
:1016240000000000000000000000000001000000B5
:10163400FFFFFFFF0000803F0000000000000000EB
:10164400000000000000803FD6010000B80B00003D
:10165400010000000001010100010100FFFF000082
:10166400FFFFFFFFFC460608000008020503040014
:10167400044706080100080205040400C0510608D6
:101684000200FE0101100300B0F805080300140273
:10169400000300000C47060804001F0201000800B4
:1016A4001447060805001F0201010800B1070108DC
:1016B400910701084D0701080000000041070108D7
:1016C4002D070108190701080000000000000000B0
:1016D40000000000000000000D07010800000000E9
:1016E400010701086D3E010845040108C103010812
:1016F400A9030108000000002C710120080000006B
:10170400000000001C710120080000000CF4050812
:10171400405006084C500608585006086450060805
:101724007050060808040608881E06086C1D060882
:10173400045006080C4B06087C5006088050060826
:10174400845006088850060824FE0508345006080C
:1017540038500608E41B06083C5006081900C80067
:10176400F4012003580E01200000000000000000D6
:101774000000000000000000000000000000000065
:10178400000000000000000000000000ACF80508A4
:101794008C500608905006080D6D0108096D01086B
:1017A400016D0108C9790108F7790108FF6C010886
:1017B40089790108EF6C0108E56C0108E16C010806
:1017C400D96C010810000000F5130108B5120108D6
:1017D40025140108AD3001086D61010829310108A3
:1017E400BD060108A9060108A106010801000000C0
:1017F4000060024010600240000000000000000091
:10180400000B0000000000000000000000000000C9
:101814000060024028600240010000000000000057
:10182400060C0000000000000000000000000000A2
:10183400006002404060024002000000000000001E
:10184400100D000000000000000000000000000077
:1018540000600240586002400300000000000000E5
:10186400160E000000000000000000000000000050
:1018740000600240706002400400000000000000AC
:10188400200F000000000000000000000000000025
:101894000060024088600240050000000000000073
:1018A40026100000000000000000000000000000FE
:1018B40000600240A060024006000000000000003A
:1018C40030110000000000000000000000000000D3
:1018D40000600240B8600240070000000000000001
:1018E400362F00000000000000000000000000008F
:1018F4000064024010640240000000000000000088
:10190400003800000000000000000000000000009B
:10191400006402402864024001000000000000004E
:101924000639000000000000000000000000000074
:101934000064024040640240020000000000000015
:10194400103A000000000000000000000000000049
:1019540000640240586402400300000000000000DC
:10196400163B000000000000000000000000000022
:1019740000640240706402400400000000000000A3
:10198400203C0000000000000000000000000000F7
:10199400006402408864024005000000000000006A
:1019A40026440000000000000000000000000000C9
:1019B40000640240A0640240060000000000000031
:1019C400304500000000000000000000000000009E
:1019D40000640240B86402400700000000000000F8
:1019E4003646000000000000000000000000000077
:1019F4009847060808E6050800000000B1920408AC
:101A0400A0860100040000000000000000000000A7
:101A140000000000000000000000000000000000C2
:101A240000000000000000000000000000000000B2
:101A3400984706083052060800000000E1E001085B
:101A4400E8030000040000000000000000000000A3
:101A54000000000000000000000000000000000082
:101A64000000000000000000000000000000000072
:101A7400E4FB0508601C060800000000AD0A000035
:101A84007D000000060000000000000000000000CF
:101A94000000000000000000000000000000000042
:101AA4000000000000000000000000000000000032
:101AB400E846060800000000000000009DF401084C
:101AC400E803000003000000000000000000000024
:101AD4000000000000000000000000000000000002
:101AE40000000000000000000000000000000000F2
:101AF400385206080000000000000000F916030830
:101B04001027000003000000000000000000000097
:101B140000000000000000000000000000000000C1
:101B240000000000000000000000000000000000B1
:101B34000847060800000000A172030859000208C3
:101B44005F760000050000000000000000000000B7
:101B54000000000000000000000000000000000081
:101B64000000000000000000000000000000000071
:101B7400A04906080000000000000000214E0208F1
:101B84001027000001000000000000000000000019
:101B94000000000000000000000000000000000041
:101BA4000000000000000000000000000000000031
:101BB40044520608000000000000000075DA010825
:101BC400E803000005000000000000000000000021
:101BD4000000000000000000000000000000000001
:101BE40000000000000000000000000000000000F1
:101BF4005052060800000000000000001DB5040853
:101C0400204E00000300000000000000000000005F
:101C140000000000000000000000000000000000C0
:101C240000000000000000000000000000000000B0
:101C3400605206080000000000000000B5B9040866
:101C4400204E00000300000000000000000000001F
:101C54000000000000000000000000000000000080
:101C64000000000000000000000000000000000070
:101C74007052060800000000000000003DE6010864
:101C8400400D0300030000000000000000000000FD
:101C94000000000000000000000000000000000040
:101CA4000000000000000000000000000000000030
:101CB400584806080000000000000000F96204080B
:101CC40010270000010000000000000000000000D8
:101CD4000000000000000000000000000000000000
:101CE40000000000000000000000000000000000F0
:101CF40034E60508000000000000000089750208B1
:101D04001027000003000000000000000000000095
:101D140000000000000000000000000000000000BF
:101D240000000000000000000000000000000000AF
:101D340080520608000000000000000069C103088A
:101D4400A086010001000000000000000000000067
:101D5400000000000000000000000000000000007F
:101D6400000000000000000000000000000000006F
:101D7400EC460608000000000000000005E0010831
:101D840050C300000100000000000000000000003B
:101D9400000000000000000000000000000000003F
:101DA400000000000000000000000000000000002F
:101DB4009CF70508000000000000000001DD010898
:101DC400A861000001000000000000000000000005
:101DD40000000000000000000000000000000000FF
:101DE40000000000000000000000000000000000EF
:101DF400885206080000000000000000D9AC020868
:101E0400A0860100010000000000000000000000A6
:101E140000000000000000000000000000000000BE
:101E240000000000000000000000000000000000AE
:101E3400A84906080000000000000000352F020831
:101E4400A00F0000010000000000000000000000DE
:101E5400000000000000000000000000000000007E
:101E6400000000000000000000000000000000006E
:101E74009452060800000000000000002DC2020871
:101E84001027000001000000000000000000000016
:101E9400000000000000000000000000000000003E
:101EA400000000000000000000000000000000002E
:101EB400804806080000000000000000055F0408D8
:101EC400A00F00000100000000000000000000005E
:101ED40000000000000000000000000000000000FE
:101EE40000000000000000000000000000000000EE
:101EF400080306080000000000000000CDD301081C
:101F04001A41000001000000000000000000000071
:101F140000000000000000000000000000000000BD
:101F240000000000000000000000000000000000AD
:101F34005CF705080000000000000000356D010892
:101F44001027000001000000000000000000000055
:101F5400000000000000000000000000000000007D
:101F6400000000000000000000000000000000006D
:101F74001CE605080000000000000000C1B40208CF
:101F84001A410000010000000000000000000000F1
:101F9400000000000000000000000000000000003D
:101FA400000000000000000000000000000000002D
:101FB400A05206080000000000000000D57A0108C5
:101FC400400D0300000000000000000000000000BD
:101FD40000000000000000000000000000000000FD
:101FE40000000000000000000000000000000000ED
:101FF400A85206080000000000000000234904085D
:10200400400D03000000000000000000000000007C
:1020140000000000000000000000000000000000BC
:1020240000000000000000000000000000000000AC
:10203400B05206080000000000000000419D0208A4
:1020440050C3000003000000000000000000000076
:10205400000000000000000000000000000000007C
:10206400000000000000000000000000000000006C
:10207400BC520608000000000000000095B40408EB
:1020840040420F00000000000000000000000000BB
:10209400000000000000000000000000000000003C
:1020A400000000000000000000000000000000002C
:1020B400C85206080000000000000000ED5F04089C
:1020C40050C30000000000000000000000000000F9
:1020D40000000000000000000000000000000000FC
:1020E40000000000000000000000000000000000EC
:1020F4000000803FB817012000000000000000002D
:1021040000000000000000000000000000000000CB
:1021140000000000000000000000000000000000BB
:1021240000000000000000000000000000000000AB
:10213400000000000000000000000000000000009B
:10214400000000000000000000000000000000008B
:08215400000000000000000083
:10215C000000803F0000803F0000000001000000F4
:0C216C00641F00200000000020000000A4
:1080000003685A1C02601970704700BF2DE9F047E1
:10801000089C002B8846074621780CBF4FF02009AA
:108020004FF03009651C29B3002A27DD2B4601E0FB
:108030000246A8B113F8016B501E002EF8D1961E0F
:1080400070B1B2460AF1FF3A49463846C0470AF1D4
:108050000103002BF6DC26EAE6702178013039B105
:10806000041B3846C047281915F8011B0029F8D110
:10807000BDE8F087002A03DC0846F9E70020EFE7B7
:10808000561EDEE72DE9F84F14461D4606464FF40E
:108090007A720023204629464E4F4CF079FC4E4B15
:1080A0004E4A40F2B55C0344DFF83CA182FB030179
:1080B000D81787FB03784A4F1944984487FB037EFF
:1080C000C0EB6111C0EBE8279E4482FB01824FEABE
:1080D000E179C0EB2E4E8AFB078A0A44C1EB011BF3
:1080E000C9EB62193F4AA3EB8B0BC9EB091982FB61
:1080F0000E824FEAE77886F806B0A1EB8901DFF837
:10810000EC90C8EBAA08717189FB03134FEAEE717A
:1081100008EB4808C1EBE212A7EBC8080CFB12E21F
:10812000C0EBE35386F80480B2F5896F4FEA830011
:108130003CDA40F2DA239A4242DCB2F5B77FDFF84C
:10814000B080B4BF4FF0000E4FF0010E4FEA4E0961
:108150001FFA8EFC09EB0E0308EBC303DF8A09EB61
:108160000E010B2308EBC101163101E031F8027D4D
:10817000974218DD013BF9D1CE44012338F83E7017
:1081800000F5FA6E0132B3702046F444D71B29463D
:108190004FF47A720023A6F800C0F7704CF0F8FB99
:1081A0003281BDE8F88F0133DBB2E9E74FF0030C11
:1081B00040F29657DFF838804FF00609E646CEE7E2
:1081C0004FF0020C40F22947DFF824804FF00409F9
:1081D000E646C4E7C5B3A29180BC92C78988888867
:1081E00007452EC273B06D16ABAAAA2A792D0311CA
:1081F000986C05080028F0B504DA2D2340420131BF
:1082000001F8013C092804464FF0010307DD03EBA8
:1082100083035B00B0FBF3F2092AF8D883B10E4860
:10822000A0FB0356B4FBF3F2092A02F1570C02F14A
:10823000300708DD03FB1244F30801F801CBEFD14E
:1082400000230B70F0BD03FB1244F30801F8017B1F
:10825000E6D100230B70F0BDCDCCCCCC884270B4FD
:108260004FF0010442D301FB04F4B0FBF4F58D425E
:10827000F9D2ECB142BB092D04FB150005F15706FC
:1082800005F130020EDD03F8016BB4FBF1F47CB1B3
:10829000B0FBF4F5092D04FB150005F1570605F1B7
:1082A0003002F0DC03F8012BB4FBF1F4002CEFD129
:1082B000002270BC1A707047B4FBF1F403F8016B34
:1082C000002CF5D0B0FBF4F5092D04FB150005F1E9
:1082D000370605F13002EFDC03F8012BB4FBF1F4B3
:1082E000002CEFD1002270BC1A7070470546002A9E
:1082F000EAD1C0E700211F223D2301700421C27092
:10830000022283710123C173427042728370C37170
:108310000372837230B422253E24C572847330BC4C
:10832000704700BF002306214FF47A720170037377
:10833000C0E90123704700BF032231234FF6FF71CC
:108340000272012243700023018202700271827066
:1083500043818381C381837430B4322530244571D5
:10836000C47030BC704700BF3249334B2DE9F04F29
:10837000804683B010274FF0000A01F5087B2F4894
:108380001022012603E0203098420AD00279974259
:10839000F9D102680C68A24208D020300136984218
:1083A000F4D12031594541D00F79E8E744794D792E
:1083B000A542F2D10AEB4A099646214808F809700D
:1083C000C144DFF880C000F5727589F8016072461B
:1083D000664603E0A84219D050F82C6FB242F9D19A
:1083E0000679A642F6D1CF6806464FF0000C9646B5
:1083F0000190F268BA420CD00CF1010C0C36BCF1C1
:10840000030FF6D101987246A842E5D14FF0FF3C28
:1084100005E0086932698242EED14FFA8CFC2031C6
:1084200089F802C00AF1010A5945BDD103B0BDE87F
:10843000F08F00BFF094050888D40508C8CA050865
:1084400088D4050800000140F0B5154B4FF0FF340B
:10845000FF21172703F10C0EA4461626152500222E
:10846000C170017101724172417381738174C17471
:1084700002EB8202734500EB020185544E708F704F
:1084800081F803C00C710AD093F9062006335D7899
:108490009E78DF7893F904C093F90540E8E7F0BDD2
:1084A000F86C050810B42C2101240222002304706A
:1084B00041708270C3705DF8044B70470023332114
:1084C0000122C170427183700371037010B40324E0
:1084D00044705DF8044B7047FF22034600F1100121
:1084E00070B41A70023303F8012C8B42F9D10E4B91
:1084F0004FF0FF31002203F10C060C4600EB420561
:108500009E4200F8124069700CD093F9044093F930
:10851000051013F8032F00EB42059E4200F81240AD
:108520006970F2D170BC70470C6D05086B4B8C46BE
:108530002DE9F04F1C680025694B87B00746B3F85A
:108540000AE018894FEA0E2AB3F804804FEA1E6B3E
:108550009A89B4EB0A0465EB0B05CDE90045009C54
:10856000019EA0FB044500FB0655E0094FEA0844C4
:1085700040EA4560E9114FEA184510EB0408D88835
:10858000009C41EB0509A0FB0445CDE9048900FBF3
:108590000655B3F80280200A4FEAC83440EA056065
:1085A00029124FEA584510EB040841EB05090099E0
:1085B000A2FB010102FB06114FEAD05A474E4AEADC
:1085C000412A4FEAE15B1AF5FA634BF10004B3F577
:1085D000FA6FCDE9023474F1000362DA0524AAFBD4
:1085E000040104FB0B1100FB0BF40AFB0144A0FB8C
:1085F0000A012144DDE904234D104FEA3004121B27
:108600004FEA9004374863EB050344EA81748D1008
:108610004FF0FF31B8EB0408CDE90423DDE9023463
:1086200069EB0509834274EB010325DA40F6AC508F
:1086300000211AEB00024BEB010302FB03F1A2FB4A
:10864000022303EB4103D400DD00101B45EA527501
:1086500063EB0501DDE9044524184D41CDE90445EE
:108660000B24A2FB040104FB031149104FEA300064
:10867000B8EB000869EB0109DDE90032DDE9020130
:108680005343009AA2FB02AB0BEB430B4FEADA72A7
:108690004FEAEB7342EA4B02801A61EB0301CDE92A
:1086A000020197B17168A1FB082301FB0933540D46
:1086B0005D1544EAC324DDE90423A21A65EB030334
:1086C0001D46D30B43EA45433B60BCF1000F02D08B
:1086D000029BCCF8003007B0BDE8F08F18180120DD
:1086E0005867012024FAFFFF2DE9F04FDFF8D8C1C9
:1086F00085B0744CDCF808502288B4F90AA0C2EBAB
:10870000251352005B43C2EBE502B4F902501B1380
:108710006A43B4F904505D43AD1305EBE225B5F5AA
:10872000FA324FEAE57BA5614BF1FF334FEAEA7B72
:10873000CDE90023DDE90032CDE902015343009A7F
:108740000199A2FB0289B4F90820009809EB4309BA
:108750005143D31700FB0311A2FB00230B440AFB78
:1087600009F116031F0308FB0B13AAFB080147EAD4
:10877000125719444FEA102A4AEA016A4FEA212B9C
:108780001AEB0602E6884BEB070312F1000A43F5E9
:10879000004BAAFB060106FB0B114A10CB1752EA4D
:1087A000030100F08C80B4F91060009806FB09F119
:1087B000F71708FB0711A6FB0867B4F90E803944C8
:1087C0004FEAE879B2468B46019908FB01F100FBBC
:1087D0000911A8FB00898944DCF80C104FEA4846CF
:1087E000C1F5801C4FEA49471AEB060A47EAD83719
:1087F0006646B4F90C804FEACC704BEB070BF717C9
:108800004FEAC806F9070196002641EA5C0140F6E6
:10881000354C0096DDE9006716EB0A0647EB0B07BF
:10882000801B61EB07018946A0FB0C010CFB0911C1
:108830004CF0AEF8B4F916204E13B4F914A0470B5F
:10884000804602FB06FCD31747EAC1474FEAEA7BA2
:1088500007FB03CCA2FB07236344564307FB0366D5
:10886000A2FB07233344560E46EAC3165F1632189E
:1088700047EB01030AFB01F108FB0B17AAFB0801F8
:108880003944C60C46EA4136CF1412EB0608B4F957
:10889000122043EB07094FEA1821130141EA09614D
:1088A0000B44029A0AB11B0A1360039B23B105EB28
:1088B000850580352D121D6005B0BDE8F08F0023C1
:1088C000EFE700BF6C670120181801207047704760
:1088D0004FF40063838370474FF4006383837047D2
:1088E000012380F854307047034610B4D0F8F840A4
:1088F000D968406964B1D3F810218C1A013A005D3F
:1089000008BF0A465DF8044BC0B2C3F81021704797
:108910001A6A805C01328A4228BF2246C0B25DF8E2
:10892000044B1A62704700BFD0F8FC3013B190F8C6
:1089300090017047D0E90903181AB0FA80F0400995
:10894000704700BFD0E909120369914238BFC918C6
:10895000013B8A1AD0F8FC1031B1D0F87C110968BB
:1089600049680A449A4201D2981A70470020704719
:10897000D0F8F8306BB1D0F88031D0F810211B68F6
:108980005B689A4201D8981A7047C068801A1844E8
:108990007047D0E907239A4203D2C0681044C01A36
:1089A0007047D01A704700BFF0B4C76982B006465E
:1089B0001FB1BB883A681B049361726903206D463E
:1089C0003E4C536823F48053536040F2E93301E096
:1089D000013B54D091688907FAD5002C4CD034F86B
:1089E000023B938140F2E93301E0013B47D09168BB
:1089F000C907FAD5D3680DB125F8023B0138E4D197
:108A0000516840F2E93341F48051516001E0013B8B
:108A100035D091688807FAD5002C47D02378137396
:108A200040F2E93301E0013B42D09168C907FAD531
:108A3000D368F76905B12B7017B13B68BA889A61A2
:108A40009DF8014001209DF803309DF802109DF82B
:108A5000042041EA04219DF8054042EA03229DF8E2
:108A60000630A6F8541043EA0423A6F85620A6F8C8
:108A7000583002B0F0BC70474FF6FF73B1E71049B1
:108A80008A4207D00F4B9A420ED003F580639A4278
:108A9000D2D102230C4AD82101FB03239A89013247
:108AA00092B29A819B89C7E70123F3E7FF23B6E7D8
:108AB0000349F7698A42E5D1ECE700BF1C6D050860
:108AC00000300140003800405C91012013B50623BE
:108AD0000C466A4628210C3038F014FFF0B19DF89E
:108AE000013004219DF8002042EA03229DF8033062
:108AF00012B292FBF1F222809DF8022042EA032298
:108B00009DF8043012B292FBF1F262809DF80520CC
:108B100043EA02231BB293FBF1F3A38002B010BD22
:108B200013B506230C466A4603210C3038F0EAFEE2
:108B3000A0B19DF800209DF8013043EA02239DF882
:108B4000022023809DF8033043EA02239DF804208D
:108B5000A3809DF8053043EA0223638002B010BD74
:108B600007B5032301AA002138F0CCFE9DF805309B
:108B70009DF804001B0243EA00439DF806001843D9
:108B800003B05DF804FB08B5FFF7EAFF014B58603E
:108B900008BD00BF1818012008B5FFF7E1FF014B21
:108BA000186008BD1818012007B506236A46F7218A
:108BB00038F0A8FE9DF801309DF800101B010B4A0B
:108BC00043EA01339DF8021043EA11139DF80310A4
:108BD000D3609DF804301B0143EA01339DF8051072
:108BE00043EA1113936003B05DF804FB18180120E9
:108BF00039F09CBB1D4B1B7870B5044600F1250570
:108C000093B104221A4920304EF00CF82846142261
:108C100018494EF007F8012384F83A30164B1B78B8
:108C200073B984F83B3070BD2846142213494DF0C7
:108C3000F9FF012384F83A300F4B1B78002BF0D05A
:108C40000F4A0123166855689068D16826606560F0
:108C5000A060E160D16916695569906984F83B307C
:108C600026616561A061E16170BD00BFCC6B012030
:108C7000946B01207C6B0120CD6B0120D0DF0508B7
:108C80009C6B0120014B18681AF050B98C3F0120F1
:108C900010B429212824012200230470417082701D
:108CA000C3705DF8044B704738B52E2200214DF09B
:108CB000C3FE40F2DC540346642140F21A4040F205
:108CC0006C7240F2022519745C82192140F27534ED
:108CD0009882DA8240F643000E221D8319770A2516
:108CE0001E21DC8318840224132083F82220012211
:108CF00083F82C10D8721946987683F82B501C7282
:108D000083F82A409A7383F8252083F829200248A3
:108D1000BDE8384034F064B8E0DF050810B504461B
:108D20000021012015F0D6FF207010BD38B50023BA
:108D3000451E1C460372E1B20134022015F0CAFF41
:108D4000082C05F8010FF6D138BD00BF38B5002357
:108D500005461C46038021460134284621F0C2FB0B
:108D6000082CF8D10023284685F8E2301946A5F8EA
:108D7000E430A5F8E630A5F8E830A5F8EA30A5F823
:108D8000EC30A5F8EE30A5F8F030A5F8F230BDE8EB
:108D9000384021F06BBB10B500F10C0400222121FA
:108DA000204639F0E9F8FC222021204639F0E4F889
:108DB00040222421204639F0DFF80C2223212046CE
:108DC00039F0DAF800222221204639F0D5F8642063
:108DD00019F024FF012010BD10B500F10C04702221
:108DE0000021204639F0C8F820220121204639F020
:108DF000C3F800220221204639F0BEF8642019F0A1
:108E00000DFF012010BD0122482139F0B5B8012223
:108E1000582139F0B1B83122F42139F0ADB800BF92
:108E20000269C3682DE9F04712EA030927D00E460C
:108E300005464FF000474FF00008B9FA89F327FACA
:108E400003F21B3BD2432A6109EA0209042B13D81F
:108E5000DFE803F0322920170300736A002B34D1B6
:108E6000EB6A1FFA83FA346A34B12368204651460C
:108E700098476468002CF8D1B9F1000FDDD1BDE846
:108E8000F0873068696B036889B29847B9F1000FC1
:108E9000D3D1F4E77068A96B036889B29847B9F138
:108EA000000FCAD1EBE7B068E96B036889B2984755
:108EB000B9F1000FC1D1E2E7F068296C036889B20B
:108EC0009847B9F1000FB8D1D9E703F1FF3AC6F8D6
:108ED00024801FFA8AFAC6E72DE9F04F8DB090F88A
:108EE00065300390002B40F02A86039B93F85C309A
:108EF000072B00F01A861823CDE90433039B802248
:108F00006B21BF4C1033DFF804934FF01008BD4EB7
:108F10001846029339F030F86423DFF8F4C2BA48F7
:108F2000DFF8F0E20193DCF80430C3F30803002B10
:108F300040F0BE84EFF31183002B40F0B984256824
:108F4000826823689D42FAD133689A42F7D8D9F8EB
:108F500000704FF47A7101FB07F39B1AB3FBF7F330
:108F600001FB05354FF47A774FF0010ADCF8043045
:108F7000C3F30803002B40F07B84EFF31183002B35
:108F800040F076842368816822689342FAD132687F
:108F90009142F7D8D9F8002007FB02FBABEB0101A7
:108FA000B1FBF2F107FB03135B1BB3F57A7FDDD353
:108FB000019B013B0193B6D10722682102984FF033
:108FC000100838F0D9FF8F4E6423DFF844C28E4872
:108FD000DFF840E20193DCF80430C3F30803002B10
:108FE00040F0A684EFF31183002B40F0A1842568A4
:108FF000826823689D42FAD133689A42F7D8D9F83B
:1090000000704FF47A7101FB07F39B1AB3FBF7F37F
:1090100001FB05354FF47A774FF0010ADCF8043094
:10902000C3F30803002B40F00384EFF31183002BFC
:1090300040F0FE832368816822689342FAD1326847
:109040009142F7D8D9F8002007FB02FBABEB0101F6
:10905000B1FBF2F107FB03135B1BB3F57A7FDDD3A2
:10906000019B013B0193B6D11A466B2102984FF048
:10907000100838F081FF634E6423DFF894C1624822
:10908000DFF890E10193DCF80430C3F30803002B10
:1090900040F02E84EFF31183002B40F029842568E3
:1090A000826823689D42FAD133689A42F7D8D9F88A
:1090B00000704FF47A7101FB07F39B1AB3FBF7F3CF
:1090C00001FB05354FF47A774FF0010ADCF80430E4
:1090D000C3F30803002B40F08C83EFF31183002BC4
:1090E00040F087832368816822689342FAD132680E
:1090F0009142F7D8D9F8002007FB02FBABEB010146
:10910000B1FBF2F107FB03135B1BB3F57A7FDDD3F1
:10911000019B013B0193B6D101226B2102984FF0D4
:10912000100838F029FF374E0F23DFF8E4C0364827
:10913000DFF8E0E00193DCF80430C3F30803002B10
:1091400040F0D184EFF31183002B40F0CC842568EC
:10915000826823689D42FAD133689A42F7D8D9F8D9
:1091600000704FF47A7101FB07F39B1AB3FBF7F31E
:1091700001FB05354FF47A774FF0010ADCF8043033
:10918000C3F30803002B40F01583EFF31183002B8A
:1091900040F010832368816822689342FAD13268D4
:1091A0009142F7D8D9F8002007FB02FBABEB010195
:1091B000B1FBF2F107FB03135B1BB3F57A7FDDD341
:1091C000019B013B0193B6D1049A1B2102984FF0F9
:1091D000100838F0D1FE0B4E0F23DFF834C00A48D8
:1091E000DFF830E00193DCF80430C3F30803002B10
:1091F00040F05984EFF31183002B40F054840BE0CE
:109200003C7B0120447B012010E000E0407B0120FA
:1092100000ED00E0387B01202568826823689D42CC
:10922000FAD133689A42F7D8D9F800704FF47A71BE
:1092300001FB07F39B1AB3FBF7F301FB05354FF472
:109240007A774FF0010ADCF80430C3F30803002BEF
:1092500040F09182EFF31183002B40F08C82236861
:10926000816822689342FAD132689142F7D8D9F8DE
:10927000002007FB02FBABEB0101B1FBF2F107FBA6
:1092800003135B1BB3F57A7FDDD3019B013B019395
:10929000A9D1059A1C2102984FF0100838F06CFEF5
:1092A000C54E0F23DFF818C3C448DFF818E3019355
:1092B000DCF80430C3F30803002B40F0D583EFF350
:1092C0001183002B40F0D0832568826823689D427B
:1092D000FAD133689A42F7D8D9F800704FF47A710E
:1092E00001FB07F39B1AB3FBF7F301FB05354FF4C2
:1092F0007A774FF0010ADCF80430C3F30803002B3F
:1093000040F01A82EFF31183002B40F0158223689E
:10931000816822689342FAD132689142F7D8D9F82D
:10932000002007FB02FBABEB0101B1FBF2F107FBF5
:1093300003135B1BB3F57A7FDDD3019B013B0193E4
:10934000B6D1039A92F85F30032B00F2EC8392F8C7
:109350006220012A0BD0022A40F0E583039B93F898
:10936000673003F0FB03022B0CBF002207221A21F7
:10937000029838F001FE4FF010080F23DFF840C2CA
:109380008E48DFF840E28C4E0193DCF80430C3F3E2
:109390000803002B40F02A83EFF31183002B40F0E9
:1093A00025832568826823689D42FAD133689A42F2
:1093B000F7D8D9F800704FF47A7101FB07F39B1AC4
:1093C000B3FBF7F301FB05354FF47A774FF0010A51
:1093D000DCF80430C3F30803002B40F08E81EFF378
:1093E0001183002B40F089812368816822689342B1
:1093F000FAD132689142F7D8D9F8002007FB02FB76
:10940000ABEB0101B1FBF2F107FB03135B1BB3F5FF
:109410007A7FDDD3019B013B0193B6D1039B1921D8
:1094200002984FF0100893F8642038F0A5FD624EC2
:109430006423DFF88CC16148DFF888E10193DCF830
:109440000430C3F30803002B40F0EF82EFF31183E5
:10945000002B40F0EA822568826823689D42FAD199
:1094600033689A42F7D8D9F800704FF47A7101FB4B
:1094700007F39B1AB3FBF7F301FB05354FF47A773B
:109480004FF0010ADCF80430C3F30803002B40F06E
:109490001581EFF31183002B40F010812368816860
:1094A00022689342FAD132689142F7D8D9F8002065
:1094B00007FB02FBABEB0101B1FBF2F107FB03136E
:1094C0005B1BB3F57A7FDDD3019B013B0193B6D1E2
:1094D0001022372102984FF0100838F04DFD364E1B
:1094E0000F23DFF8DCC03548DFF8D8E00193DCF863
:1094F0000430C3F30803002B40F05982EFF31183CB
:10950000002B40F054822568826823689D42FAD17E
:1095100033689A42F7D8D9F800704FF47A7101FB9A
:1095200007F39B1AB3FBF7F301FB05354FF47A778A
:109530004FF0010ADCF80430C3F30803002B40F0BD
:109540009E80EFF31183002B40F09980236881689F
:1095500022689342FAD132689142F7D8D9F80020B4
:1095600007FB02FBABEB0101B1FBF2F107FB0313BD
:109570005B1BB3F57A7FDDD3019B013B0193B6D131
:109580000298012238214FF0100838F0F5FC0A4EFD
:109590000F23DFF82CC00948DFF828E00193DCF83E
:1095A0000430C3F30803002B40F0E281EFF3118392
:1095B000002B40F0DD8107E0447B012010E000E05B
:1095C00000ED00E0387B01202568826823689D4219
:1095D000FAD133689A42F7D8D9F800704FF47A710B
:1095E00001FB07F39B1AB3FBF7F301FB05354FF4BF
:1095F0007A774FF0010ADCF80430C3F30803FBB9B3
:10960000EFF31183E3B92368816822689342FAD1AA
:1096100032689142F7D8D9F8002007FB02FBABEB88
:109620000101B1FBF2F107FB03135B1BB3F57A7F7A
:10963000E1D3019B013B0193B1D10DB0BDE8F08FA7
:10964000EFF3118188F31288D0F808B00368DB03C8
:1096500003D5CEF800A0D0F808B02368C9B2DEF870
:10966000002081F31188D9F80010134407FB01F2A0
:10967000A2EB0B02B2FBF1F207FB0323D5E7EFF3FA
:10968000118188F31288D0F808B00368DB0303D592
:10969000CEF800A0D0F808B02368C9B2DEF80020E8
:1096A00081F31188D9F80010134407FB01F2A2EBF3
:1096B0000B02B2FBF1F207FB032359E7EFF3118131
:1096C00088F31288D0F808B00368DB0303D5CEF81E
:1096D00000A0D0F808B02368C9B2DEF8002081F3FA
:1096E0001188D9F80010134407FB01F2A2EB0B021A
:1096F000B2FBF1F207FB0323E2E6EFF3118188F3FB
:109700001288D0F808B00368DB0303D5CEF800A0B8
:10971000D0F808B02368C9B2DEF8002081F31188C0
:10972000D9F80010134407FB01F2A2EB0B02B2FBC5
:10973000F1F207FB032369E6EFF3118188F3128846
:10974000D0F808B00368DB0303D5CEF800A0D0F84A
:1097500008B02368C9B2DEF8002081F31188D9F877
:109760000010134407FB01F2A2EB0B02B2FBF1F273
:1097700007FB0323DDE5EFF3118188F31288D0F8AE
:1097800008B00368DB0303D5CEF800A0D0F808B01A
:109790002368C9B2DEF8002081F31188D9F80010DF
:1097A000134407FB01F2A2EB0B02B2FBF1F207FB41
:1097B000032366E5EFF3118188F31288D0F808B02F
:1097C0000368DB0303D5CEF800A0D0F808B0236807
:1097D000C9B2DEF8002081F31188D9F800101344D3
:1097E00007FB01F2A2EB0B02B2FBF1F207FB032332
:1097F000E2E4EFF3118188F31288D0F808B003682F
:10980000DB0303D5CEF800A0D0F808B02368C9B2B6
:10981000DEF8002081F31188D9F80010134407FB0B
:1098200001F2A2EB0B02B2FBF1F207FB03236BE4A4
:10983000EFF3118188F31288D0F808B00368DB03D6
:1098400003D5CEF800A0D0F808B02368C9B2DEF87E
:10985000002081F31188D9F80010134407FB01F2AE
:10986000A2EB0B02B2FBF1F207FB0323FFF7F4BB01
:10987000EFF3118188F31288D0F808B00368DB0396
:1098800003D5CEF800A0D0F808B02368C9B2DEF83E
:10989000002081F31188D9F80010134407FB01F26E
:1098A000A2EB0B02B2FBF1F207FB0323FFF77CBB39
:1098B000EFF3118388F3128881680268D20303D51D
:1098C0000122CEF8002081682568DBB2DEF800A016
:1098D00083F311884FF47A72D9F80070554402FB73
:1098E00007F35B1AB3FBF7F302FB0535FFF73ABB4F
:1098F000EFF3118388F3128881680268D20303D5DD
:109900000122CEF8002081682568DBB2DEF800A0D5
:1099100083F311884FF47A72D9F80070554402FB32
:1099200007F35B1AB3FBF7F302FB0535FFF7CABB7E
:10993000EFF3118388F3128881680268D20303D59C
:109940000122CEF8002081682568DBB2DEF800A095
:1099500083F311884FF47A72D9F80070554402FBF2
:1099600007F35B1AB3FBF7F302FB0535FFF752BBB6
:10997000EFF3118388F3128881680268D20303D55C
:109980000122CEF8002081682568DBB2DEF800A055
:1099900083F311884FF47A72D9F80070554402FBB2
:1099A00007F35B1AB3FBF7F302FB05351FE6EFF392
:1099B000118388F3128881680268D20303D50122DB
:1099C000CEF8002081682568DBB2DEF800A083F3C2
:1099D00011884FF47A72D9F80070554402FB07F3EE
:1099E0005B1AB3FBF7F302FB05359FE5EFF3118339
:1099F00088F3128881680268D20303D50122CEF869
:109A0000002081682568DBB2DEF800A083F31188AE
:109A10004FF47A72D9F80070554402FB07F35B1AD1
:109A2000B3FBF7F302FB0535CEE4EFF3118388F3C4
:109A3000128881680268D20303D50122CEF8002083
:109A400081682568DBB2DEF800A083F311884FF44B
:109A50007A72D9F80070554402FB07F35B1AB3FB26
:109A6000F7F302FB053509E5EFF3118388F312885C
:109A700081680268D20303D50122CEF800208168F4
:109A80002568DBB2DEF800A083F311884FF47A7208
:109A9000D9F80070554402FB07F35B1AB3FBF7F3E8
:109AA00002FB053523E4EFF3118388F31288816804
:109AB0000268D20303D50122CEF800208168256810
:109AC000DBB2DEF800A083F311884FF47A72D9F884
:109AD0000070554402FB07F35B1AB3FBF7F302FB7C
:109AE0000535FFF7ACBBEFF3118388F3128881686B
:109AF0000268D20303D50122CEF8002081682568D0
:109B0000DBB2DEF800A083F311884FF47A72D9F843
:109B10000070554402FB07F35B1AB3FBF7F302FB3B
:109B20000535FFF727BB019A21E4039B93F86130C9
:109B3000002B41D11023CDE90433FFF7DFB91C0915
:109B400003F00F03013C032C3CD8474A32F81400C1
:109B500040FA03F2D70735D5012202FA03F3013B9D
:109B600018404AF065FF414B414A1B5D184412EB17
:109B7000C00427D052F83000A38805691D407FF447
:109B8000B4A9B3FA83F220263A49C2F11F02A671A2
:109B9000039F561CE571F96019D1B3FA83F30122D2
:109BA000C3F11F0312FA03F33FF49FA932490A6875
:109BB00013430B60FFF799B918231021CDE9043145
:109BC000FFF79CB92B4B039AD360FFF78EB92B4E4E
:109BD00007F10C01DFF8BCC0B7180793284B4CF80D
:109BE000221007A997F88C7008930995CDE90A55BA
:109BF00009F056FE234BDA5DF02A01D8A388CCE7A2
:109C0000F021214A3E44D955D36896F89C20C3F3ED
:109C1000022351B2C3F107001E1D042828BF0420EF
:109C2000062E88BFDD1E4FF0FF33002903FA00F334
:109C30006FEA030303F0030303FA05F34FEA031388
:109C4000DBB20CDB02F01F06104801224D09014473
:109C5000B24081F8003340F82520A3889DE702F048
:109C60000F020B498B54C9E7BCCA0508C4CA0508D2
:109C700078790120E1880008003C0140986C0508D3
:109C800000001110B06F012000ED00E000E100E0E5
:109C900014ED00E0706F0120436996491A688B4209
:109CA00022F040022DE9F04F83B01A60019000F0DD
:109CB000D780914A934200F0D38038211A6822F06D
:109CC00038020A431A601A6842F040021A6016F01D
:109CD00079F9044616F076F98442FBD0019C2046BF
:109CE000FFF7FAF8E2691AB1938812681B049361CE
:109CF000019B5A6940F2E93302E0002B00F0CA8070
:109D00009168013B11F0020F9BB2F6D06A2140F23C
:109D1000E933117302E0002B00F0D2809168013B1F
:109D200011F0010F9BB2F6D0D368019B5A6940F243
:109D3000E93302E0002B00F095809168013B11F0BF
:109D4000020F9BB2F6D0102140F2E933117302E00A
:109D5000002B00F087809168013B11F0010F9BB24E
:109D6000F6D0D368019BDB6913B11A689B889361B5
:109D70006423624CDFF89891DFF89881604DDFF83A
:109D800098A1604E009316F01DF94FF47A774FF0CA
:109D9000100C4FF0010ED8F80430C3F30803002B69
:109DA0003DD1EFF31183002B39D12368A9682268D4
:109DB0009342FAD132689142F7D8D9F8002007FBD4
:109DC00002FBABEB0101B1FBF2F107FB03131B1A22
:109DD000B3F57A7FDFD3009B013B0093D3D1019B86
:109DE00044495B691A688B4222F040021A6035D000
:109DF000414A934232D010211A6822F038020A43B5
:109E00001A601A6842F040021A6016F0DBF8044645
:109E100016F0D8F88442FBD003B0BDE8F08FEFF322
:109E200011818CF31288D5F808B02B68DB0303D5B9
:109E3000CAF800E0D5F808B02368C9B2DAF8002003
:109E400081F31188D9F80010134407FB01F2A2EB4B
:109E50000B02B2FBF1F207FB0323B8E70821CBE7C3
:109E600030212BE728498A4208D0224B9A420FD052
:109E700003F580639A427FF475AF0223234AD82109
:109E800001FB03239A89013292B29A819B8969E787
:109E90000123F3E71C498A4208D0164B9A4224D08A
:109EA00003F580639A427FF442AF02231749D8201A
:109EB00000FB03139989013189B299819B8936E7A7
:109EC000114801998242496907D00A4B9A420ED043
:109ED00003F580639A4206D102230C48D8240A462F
:109EE00004FB0303E6E70A4621E70123DEE701233B
:109EF000F3E700BF00380040003C00403C7B0120FD
:109F000010E000E0447B0120003001405C91012022
:109F1000407B012000ED00E0387B0120F8B5EFF335
:109F20001184502383F31288D0F8FC301B6813F09F
:109F3000010303D0E4B284F31188F8BD90F88521C1
:109F400090F886110A4302F02102212AF2D0D0E9CA
:109F50000912914245D095B247D94B1B9BB2816201
:109F6000002590F8851180F890512029E2D185696B
:109F7000D54205EB0201DDD0B3FA83F56D09002D62
:109F8000D8D190F88421012AD4D00646212201207C
:109F9000DFF864C0A6F86E31D6F87C71C6F8885137
:109FA00086F88521134AA6F86C3186F88401384674
:109FB000C6F868113D65C7E90FC2D6F81C21DFF865
:109FC0003CC02832C7F84CC00CF0FAFBD6F81C3164
:109FD00040221A6286F884519A6842F080029A60A0
:109FE000A8E7012380F89031A4E706691946731B9E
:109FF0009BB2B4E785090108BB0901081F090108E4
:10A00000426A10B48469A154426A04690132D0F8EA
:10A01000FC10A24228BF0022426241B9D0F81C21A4
:10A020005DF8044B136843F08003136070475DF8DC
:10A03000044B73E7406998300CF024B9F8B5D0F8B8
:10A040001C310446DA69910615D5586AE36AC0B234
:10A05000002B00F0CB80216B9847D4F81C311A6894
:10A0600022F480721A609A6822F001029A609A695A
:10A0700042F008029A61DA69D20701D501221A6218
:10A08000DA69970701D502221A62DA69560701D503
:10A0900004221A62DA69150701D508221A62D4F877
:10A0A000FC20FAB1D969490600D4F8BDD96904F594
:10A0B0008E701E680F079D682CD18F0602D5B506DD
:10A0C00000F1DA800F0602D5350600F1B9804806A6
:10A0D00002D5710600F18280002AE6D02046BDE854
:10A0E000F8401BE7D9690806DCD594F885112129C9
:10A0F000D8D0D4E90901814200F09B80A069405C7E
:10A100000131C0B298622569B1FBF5F005FB101171
:10A11000A162C7E715F0010502D116F4907FD1D0F6
:10A12000CF0701D5F7057BD48F074AD5002D6CD119
:10A130000F0709D5B70665D508251D62D4F88851E3
:10A1400045F00805C4F88851D4F88851002DC3D0D3
:10A150008F0605D5B50603D509F0A2FDD4F81C314C
:10A16000D4F88821110708D49A6812F0400204D16B
:10A17000C4F88821D4F8FC20AEE71A68202122F424
:10A1800090721A609A6822F001029A6084F886112F
:10A190009A685206EED59A68D4F8801122F04002EF
:10A1A0009A600029E6D0414B08460B650CF044F953
:10A1B0000028DFD0D4F88001036D9847D4F8FC2044
:10A1C0008AE74F07B4D5002DB2D004271F62D4F818
:10A1D000887147F00207C4F88871A9E71968202040
:10A1E00021F04001196084F8850175E7E36962692F
:10A1F000D054E369E1680133B3FBF1F201FB1233A0
:10A20000E3612AE7002D9FD096E702271F62D4F86A
:10A21000887147F00407C4F888714F0788D5D4E7E0
:10A2200001271F62D4F8887147F00107C4F88871CC
:10A230007AE7A4F86E21196821F08001196031E7EE
:10A2400094F8851121297FF447AFB4F86E1189B2D3
:10A25000B9B1D4F82401D4F86811B0F5805F19D0F1
:10A26000481CC4F8680109789962B4F86E31013B62
:10A270009BB2A4F86E312FE709F012FDD4F8FC2050
:10A280002AE7196821F080011960196841F040013E
:10A29000196021E7D4F82C010028E1D131F8020B34
:10A2A000C0F308009862C4F86811DEE711090108DC
:10A2B0002DE9F84F037C01681F2B0BD9203B20228E
:10A2C000496802FA03F30B4214BF012300235BB970
:10A2D000BDE8F88F2022096802FA03F30B4214BF8D
:10A2E00001230023002BF3D047690446934E15F059
:10A2F00069FE4FF4BC73804603FB07631A7C002A97
:10A300002ED18F495A6809781568C1B9D3F8EC1075
:10A3100058890A6822F001020A60EB6823EA000308
:10A32000EB60884B1B78002B33D1237C21681F2BDB
:10A330000FD8202202FA03F38B60BDE8F88F526930
:10A34000136823F001031360EB6823F48073EB6060
:10A35000E7E7203B202202FA03F3CB60BDE8F88F49
:10A36000774A012112785974002A40F08880D3F886
:10A37000EC0059680268096822F001025D890260F8
:10A38000CB6823EA0503CB606F4A1368013313607F
:10A39000CBE74FF4BC726D4B02FB07F206EB020AEF
:10A3A000A832DAF8EC0006EB0209C1B220F0FF0097
:10A3B0001039A3FB013109090BF0EEFD0123DAF896
:10A3C000F0B08AF8103015F0FDFDDAF8E430CBF883
:10A3D0002C01102B00F096805DD9B3F5807F76D0EC
:10A3E000B3F5805F19D12B6ADAF89C1023F48053FF
:10A3F000DAE928022B621143EA69DAF8983001435E
:10A4000022F47F421B0342EA112243F48053EA61A3
:10A410002A6A22F4204213432B624FF4BC700021BD
:10A420004A4B4A4600FB0766D6F8EC00C6F8B01067
:10A43000C1B220F0FF001039A3FB013109090BF074
:10A4400065FDD6F8EC3096F8E8101D68776845F0A1
:10A45000100572893E481D605E683D6830400143CA
:10A460005960196841F001011960EB681343EB6012
:10A4700015F0A8FD374BA0EB0800186055E75B68A6
:10A4800059691A680B6823F001030B60D36823F441
:10A490008073D36078E7012BBFD12B6ADAF89C1068
:10A4A00023F00103DAE928022B621143AA69DAF8E2
:10A4B0009830014322F0FF0243F0010342EA1142C7
:10A4C000AA612A6A22F00A0213432B62A5E72B6ACB
:10A4D000DAF89C1023F48073DAE928022B62114326
:10A4E000EA69DAF89830014322F0FF021B0242EADF
:10A4F000114243F48073EA612A6A22F42062134312
:10A500002B628AE72B6ADAF89C1023F01003DAE951
:10A5100028022B621143AA69DAF89830014322F429
:10A520007F421B0142EA112243F01003AA612A6A0A
:10A5300022F0A00213432B626FE700BFF04400201B
:10A54000EC440020E8440020906E0120ABAAAAAAA7
:10A550000000FFFFCC33002020B10078B0FA80F07B
:10A56000400970470120704708B520214CF033FBAB
:10A57000034618461BB102780133202AF9D008BDE2
:10A58000037903F01803082B0AD002D82BB100205E
:10A590007047102B17D0182BF9D1B0F80B0070476B
:10A5A000124BB0F80B0093F90030591C09D1104B35
:10A5B0001B78C3EBC30203EB820300EB830080B282
:10A5C0007047DBB2F5E70B4BB0F80B0093F90030A6
:10A5D0005A1C09D1064B5B7803EB430203EB820361
:10A5E00000EB430080B27047DBB2F5E71D0D0120A0
:10A5F000488D01201C0D0120F0B5067906F0E0031E
:10A60000402B09D144794FF0FF350023012006F09B
:10A610000706A3420BD1F0BD602B4FF0010403D11C
:10A62000457904FA05F5F0E74FF0FF35EDE7042E24
:10A630000CD8DFE806F0030D18242E0030B1C85CFA
:10A64000D75C784028420CBF012000200133E0E7AE
:10A650000028FBD0C856D756A0EB070CDCF1000051
:10A6600040EB0C00F2E70028F0D031F8130032F88C
:10A670001370784028420CBF01200020E6E7002834
:10A68000E4D031F9130032F91370C71B78427841D6
:10A69000DCE70028DAD051F8230052F82370784024
:10A6A00028420CBF01200020D0E7024B0146186869
:10A6B00037F03CBE803E012038B5441E054D14F8ED
:10A6C000011F286819B9BDE8384037F021BE37F0BE
:10A6D0002DFEF4E7803E01200048EDE7AF120608AA
:10A6E00008B5FFF7E9FFBDE80840F5E710B50446F7
:10A6F0000348FFF7E1FF2046BDE81040F0E700BF48
:10A7000016DF050838B5074C074DAC4203D3074B9D
:10A7100000221A7038BD6288D4E901014AF000FFB6
:10A720001434F2E7E8010008D8070008A46A012001
:10A7300038B5074C074DAC4203D3074B01221A70C2
:10A7400038BD6288D4E901104AF0EAFE1434F2E719
:10A75000E8010008D8070008A46A0120024A13682B
:10A7600023EA00001060704748900120DFED2A7A4C
:10A77000B4EEE70AF1EE10FA4BDDDFED286A9FED4B
:10A78000287AB4EEC70A70EE667AF1EE10FAB0EEEF
:10A79000670AF6DC9FED237AF4EEC77AF1EE10FA41
:10A7A00034D5DFED1E6A9FED207AF4EEC77A37EEDE
:10A7B000A60AF1EE10FAF0EE407AF6D4DFED1B7A3D
:10A7C000B4EEE70AF1EE10FA14DDDFED137A37EE9E
:10A7D000C00A60EE006A9FED166A9FED167ADFED03
:10A7E000167AA6EE867A20EE266AE6EE877AA6EE3E
:10A7F000270A7047DFED117AB4EEE70AF1EE10FA9E
:10A80000E7D5DFED087A37EEC00AE2E7B0EE670A77
:10A81000D4E7F0EE407ABDE7DB0F4940DB0FC940DB
:10A82000E4CB1641DB0F49C0E4CB16C1DB0FC93FB7
:10A8300092E741B99730083C15A82ABEDB0FC9BF83
:10A84000B0EEC07AF0EEE06A86FE876AB5EE406A46
:10A85000F1EE10FA3DD0C6FEC75AC5EE867ADFED9E
:10A860001E2ADFED1E3ADFED1E4A9FED1E5A9FEDB8
:10A870001E3AB7EE006A9FED1D4ADFED1D5AE7EE66
:10A88000E23AA7EE834AE7EEA34AA7EE846AA7EE70
:10A89000A45AE7EE855AC5EE867AF4EEC76AF1EE61
:10A8A00010FA03D59FED137A77EE677AF5EEC00ABA
:10A8B000F1EE10FA03D59FED107A77EE677AB5EED8
:10A8C000C00AF1EE10FA48BFF1EE677AB0EE670AFF
:10A8D0007047DFED077AE0E739094E3DE3B59E3E6C
:10A8E00088FA163E45FE7F3F99FB243F69A2163E3B
:10A8F000A7DFA834DB0FC93FDB0F4940DFED307A1B
:10A9000030EE277AFDEEC76A16EE903A2033402BE0
:10A9100002D99FED2C0A7047B4EEE70AF1EE10FA67
:10A920004BDD9FED296ADFED296AB4EEE67A77EE1A
:10A93000467AF1EE10FAB0EE677AF6DC9FED247AF3
:10A94000F4EEC77AF1EE10FA34D5DFED1F6A9FED11
:10A95000217AF4EEC77A37EEA60AF1EE10FAF0EE9D
:10A96000407AF6D4DFED167AB4EEE70AF1EE10FA8B
:10A970001BDCDFED197AB4EEE70AF1EE10FA03D52D
:10A98000DFED137A37EEC00A60EE006A9FED136ABE
:10A990009FED137ADFED137AA6EE867A20EE266A13
:10A9A000E6EE877AA6EE270A7047DFED0F7A37EEDC
:10A9B000C00AE9E7B0EE670AD4E7F0EE477ABDE7F0
:10A9C000DB0FC93F00000000DB0FC940E4CB16419C
:10A9D000DB0F49C0E4CB16C1DB0FC9BF92E741B919
:10A9E0009730083C15A82ABEDB0F494010B401225D
:10A9F0004C0901F01F0150F8243002FA01F123EA5A
:10AA0000010340F824305DF8044B704710B4012274
:10AA10004C0901F01F0150F8243002FA01F10B43F8
:10AA200040F824305DF8044B704700BF01234A0909
:10AA300001F01F0150F8222003FA01F1114214BF66
:10AA400018460020704700BF2DE9F043002489B06C
:10AA500006460D461F46A04605E025290CD0304687
:10AA60000134A847039A531C039311780029F4D1A9
:10AA7000204609B0BDE8F083931CCDE90338537834
:10AA8000302B43D0A3F130024FF00009D2B2092A93
:10AA900046D96C2B2BD0642B7AD019D9732B5DD06F
:10AAA0006AD9752B40F08B8007F1040C386805AB30
:10AAB00000220A216746FDF7D1FB05A9049A4B46FF
:10AAC000304600912946FDF7A1FA039A0444CAE7EB
:10AAD000252B41D058D9582B74D0632BC2D13B1DA4
:10AAE0003978304601341F46A847039ABBE7039BD9
:10AAF0005A1C03921B78642B5AD018D8252B2BD0C4
:10AB00006DD9582B1AD0632BE9D0ACE7D31C4FF08A
:10AB1000010903939378A3F13002D2B2092AB8D87D
:10AB2000184604AA03A946F041FB0346B1E7732B7C
:10AB300014D058D9752B32D0782B94D1A3F1580268
:10AB400007F1040C386805ABB2FA82F210216746AF
:10AB50005209FDF783FBB0E7252180E7386807F14C
:10AB6000040C049A00230090294630466746FDF7FE
:10AB70004DFA039A044476E76E2B7FF473AF039A81
:10AB80003B6804371C606EE7002B3FF471AF69E748
:10AB90003B1D386805A91F46FDF72CFB8DE7391DC5
:10ABA000386805AB00220F460A21FDF757FB84E702
:10ABB0003B1D386805A91F46FDF71CFB7DE7782B78
:10ABC0007FF450AFA3F15802391D386805ABB2FAD3
:10ABD00082F20F4610215209FDF740FB6DE7002B72
:10ABE0003FF446AF3FE76E2BCAD03CE710B5064CAA
:10ABF0000B46024605492068FFF726FF2068BDE89E
:10AC0000104037F085BB00BF803E0120F18B00086B
:10AC100038B504460D460848FFF74EFD2946204644
:10AC2000FFF7E4FF0548FFF747FD054B1B7813B11D
:10AC3000044B01221A7038BD1BDF050826DF05080A
:10AC4000DC3F0120DD3F01200FB407B504A951F816
:10AC5000040B0191FFF7DCFFFFF73EFD03B05DF849
:10AC600004EB04B0704713460A4601460048EBE780
:10AC70002ADF05080048E7E743DF05080FB407B5FA
:10AC800004A951F8040B0191FFF7C2FF03B05DF86E
:10AC900004EB04B070470FB407B504A951F8040BD6
:10ACA0000191FFF7A3FFFFF717FD03B05DF804EB79
:10ACB00004B070470FB407B504A951F8040B019113
:10ACC000FFF794FF03B05DF804EB04B070472DE983
:10ACD000F843037903F0E001202928D002D849B1D4
:10ACE000BDE8F883402945D06029F9D12448BDE862
:10ACF000F843D0E703F00703022B02D0042B08D05F
:10AD00006BB9B0F80720B0F805101E48BDE8F8434D
:10AD1000C1E7D0F805201B48BDE8F843BBE7B0F910
:10AD20000720B0F905101748BDE8F843B3E74579A7
:10AD30000024154E1548FFF7BFFC012306EBC502A2
:10AD400092F80480A04502D8BDE8F843C4E456F860
:10AD500035704FEA840957F824204AB113B90C48DA
:10AD6000FFF7AAFC57F809100A48FFF7A3FF0023D2
:10AD70000134E7E741790848BDE8F8438BE700BFB5
:10AD80008BDF05084FDF050844A0050866DF0508CE
:10AD900077DF0508FF0706087ADF05082DE9F0418F
:10ADA0001746027905460E4602F0E003402B2BD1F0
:10ADB0000024554FDFF8708115E02B7903F007036D
:10ADC000022B15D0032B19D0012B384614BF315D4F
:10ADD0003157FFF76FFF6B79013BA34202DD40461D
:10ADE000FFF76AFC01346B79A342E6DCBDE8F08131
:10ADF00036F814103846FFF75DFFECE736F914100B
:10AE00003846FFF757FFE6E702F00702042A5CD84E
:10AE1000DFE802F0031D25272A003478202B3AD0E2
:10AE200067D8002BE2D1B5F80560B5F80780214658
:10AE30003548FFF73FFFA6423FDCA0453DDB002F32
:10AE4000D4D0424631463148BDE8F04132E796F968
:10AE50000040202B1FD04CD8002B3CD0C6E73488B4
:10AE6000DCE7B6F90040F4E7D6F80080202B444632
:10AE700011D03ED8002BB9D141462348FFF71AFF25
:10AE8000D5F80510884518D8002FAFD02048BDE868
:10AE9000F0410FE700246A791E4B03EBC2010979E8
:10AEA000A1420ADD53F8323053F82400BDE8F041E6
:10AEB00002E41948BDE8F041FCE6FFF70DFC22462C
:10AEC00029681648BDE8F041D8E6202BE2D007D823
:10AED000002B8BD11C46B5F90560B5F90780A6E7B4
:10AEE000602BE6D0802B81D131460D48BDE8F04182
:10AEF000E0E6602BF6D16A791441E307D9D5094819
:10AF0000BDE8F041D6E600BF63DF0508310806085A
:10AF1000A5DF050844A005087EE20508ABDF0508AB
:10AF2000FF070608A0DF0508A3DF05080CB407B576
:10AF300010F020000BD079B92320FFF7B6FB05A94C
:10AF400004980191FFF752FEFFF7C6FB012003B002
:10AF50005DF804EB02B070470020F8E70CB4C306BC
:10AF600007B500D561B905A904980191FFF73EFE28
:10AF7000FFF7B2FB012003B05DF804EB02B07047AD
:10AF80000020F8E70EB410B585B0094907AC019070
:10AF900001A854F8042B23460394FFF755FD019BA9
:10AFA00000221A7005B0BDE8104003B0704700BF22
:10AFB0000180000870B406688E4219D94C1E751EB7
:10AFC000002314F8011F08224B4002E0013ACBB2E3
:10AFD00007D059001B06F9D581F0D503013ADBB241
:10AFE000F7D1A542EDD1721C0260337070BC70477E
:10AFF000721C00230260337070BC70470A44914297
:10B0000017D0013910B4541E11F8012F08235040F5
:10B0100002E0013BD0B207D042000006F9D582F031
:10B02000D500013BC0B2F7D1A142EDD15DF8044B90
:10B03000704770474840082302E0013BD0B208D077
:10B0400001064FEA4002F8D582F0D500013BC0B2BC
:10B05000F6D170470A4491421BD0013930B4551ED5
:10B0600041F2210411F8012F082380EA022002E0B6
:10B07000013B90B209D010F4004F4FEA4002F7D0E4
:10B0800084EA4000013B80B2F5D18D42EAD130BC68
:10B090007047704770B5144C0222144E4FF6FF7083
:10B0A0001349FFF7D7FF22884AB1A518B54218D235
:10B0B000052A16D921462C46FFF7CCFFF3E7214697
:10B0C0000222FFF7C7FF0222A118FFF7C3FF094BB7
:10B0D000E41A094B1C8041F60F53C31A58425841D9
:10B0E00070BD0020FCE700BF02400008008000089F
:10B0F00000400008FA3F00081A6B0120104A2DE9B1
:10B100003048D2E9004554EA05020BD1034600223B
:10B1100040F2011110461A809A809A711A81598062
:10B12000BDE83088074B1A6814EB020B45F1000CA0
:10B130005A466346FCF7A6FF0120BDE8308800BFF1
:10B14000E03001203C7B01200288A2F5FA6270B455
:10B1500002F003018478C37840F2B55601EB410157
:10B16000013C124D013B04EB81040179920806FB7E
:10B17000023235F81430048900251344427980796D
:10B180004FF47A7603EB430301EBC3030849C3EBA7
:10B1900003130144204602EB8303C3EB031301EBCB
:10B1A00083032946C6FB030170BC7047986C0508F1
:10B1B00080436D382DE9F04707468CB01E46924615
:10B1C000002A60D1154614460A88B2F5FA6F37D3C3
:10B1D0008B78581E0B2833D891F803C00CF1FF3040
:10B1E0001E282DD891F804E0BEF1170F28D891F849
:10B1F0000590B9F13B0F23D888793B2820D8B1F8C6
:10B200000880B8F57A7F1BD24FF001086EBB002C86
:10B210000E890795B4BF2D212B21002CCDF800C03D
:10B22000B8BF6442CDE90306CDE9051438462D497F
:10B23000CDE901E9FFF7A6FE40460CB0BDE8F08776
:10B240000022DFF8ACA04FF0010C09A91046ADF8C0
:10B2500028208DF82A206346ADF82C20914696468A
:10B260009046CDF824A0002ED1D0CDF804E0CDF842
:10B2700000C01D49CDE902903846FFF783FE4046E5
:10B280000CB0BDE8F087194BD417084683FB0A239E
:10B290005344C4EB6314C4EB041524B2AAEB850534
:10B2A0002DB2002DB8BF6D42FFF74EFF4FF47A72FA
:10B2B00000238046894649F06BFB3C214FF47A72AB
:10B2C00000230AFB010A4046494649F061FB4FF45E
:10B2D0007A7192B2002309A8C1FB0A23FCF7D2FEBF
:10B2E00009A971E70CE00508ECDF05088988888862
:10B2F000000001010378092B01D0202B05D110F8A3
:10B30000013F202BFBD0092BF9D02D2B00F0A98079
:10B310002B2B75D0B7EE000AA3F13002D1B2092968
:10B3200077D8F2EE046ADFED5F7A07EE102A10F8A4
:10B33000013FB8EEC77AA3F13002D1B2A7EEA67AE8
:10B340000929F0EE477AF0D92E2B66D003F0DF03FF
:10B35000452B40F0838010B442782D2A00F096806F
:10B360002B2A00F08380A2F130030130092B00F278
:10B3700084800024002303EB830302EB430310F8D3
:10B38000012FA2F13001303B0929F4D9B3F59A7F9E
:10B390001A46B7EE007A28BF4FF49A72072B09D9E4
:10B3A0001346DFED416A083B27EE267A072BFAD8D1
:10B3B00002F00702DAB1F2EE046A012A27EE267AD9
:10B3C00015D0022A27EE267A11D0032A27EE267AF4
:10B3D0000DD0042A27EE267A09D0052A27EE267AF0
:10B3E00005D027EE267A062A18BF27EE267A002CEB
:10B3F00045D0C7EE877A5DF8044B20EE270A7047E8
:10B400004378B7EE000A0130A3F13002D1B2092926
:10B4100087D92E2BDFED237A98D143780130A3F121
:10B420003002D1B2092991D8B2EE047AF0EE475A2F
:10B4300006EE902A10F8013FB8EEE66AA3F130025A
:10B44000D1B2C6EE076A092927EE257A77EEA67AE9
:10B45000EED903F0DF03452B3FF47DAF20EE270A42
:10B4600070474378BFEE000A013055E7827802301A
:10B47000A2F13003092B7FF67CAFB7EE007A67EEBE
:10B48000877A5DF8044B20EE270A704782780230F5
:10B49000A2F13003092B01D801246BE7B7EE007A43
:10B4A000A7E700BF0000000020BCBE4CF8B5064670
:10B4B00015460846B6FBF2F434B905FB14640C4B90
:10B4C0001B5D00F8013BF8BDB4FBF2F75FB905FB6B
:10B4D0001747074B05FB1464DA5D1B5D00F8012B71
:10B4E00000F8013BF8BD3846FFF7E0FFEFE700BF8B
:10B4F0003CE00508B5EEC00ADFED6D7A00236D4A29
:10B50000F1EE10FA2DE9F047C8BF30EE270A88B0F7
:10B51000D8BF30EE670ADFED687A0493054620EE67
:10B52000270ACDE90233FDEEC07A17EE904A84EA8D
:10B53000E476A6EBE476A2FB06325FEAD20847D1B6
:10B5400005AF5E4A39465B4B002C4FF00000A3FB71
:10B5500006434870A8BF20204FEAD303B8BF2D2070
:10B5600003EB83038DF808003846A6EB4303D35C56
:10B570000B7048F017FD01283ED0022848D0032860
:10B580001ED0394602A84BF017FB02A848F00AFD6E
:10B59000C41E02A92846E4B222464BF043FB002316
:10B5A00028462B5548F0FEFC02AB2E221919431CED
:10B5B0002A54E8184BF01CFB284608B0BDE8F08779
:10B5C0003023394602A88DF809304BF0F5FADCE754
:10B5D0003B4BA3FB06235B0924D105AF374A394611
:10B5E000344BA3FB0803DB0803EB8303A8EB430303
:10B5F000D35C01F8013BA6E73023394602A88DF859
:10B6000009308DF80A308DF80B304BF0D5FABCE7D5
:10B610003023394602A88DF809308DF80A304BF0F6
:10B62000CBFAB2E7274AA2FB06125FEA92190ED1C3
:10B6300005AF224A39461F48A0FB03C0C00800EBF3
:10B640008000A3EB4003D35C01F8013BC8E71E4A2E
:10B65000A2FB06125FEA523A0FD105AF174A3946EC
:10B660001448A0FB09C0C00800EB8000A9EB40090A
:10B6700012F8090001F8010BDDE71448B6FBF0F001
:10B6800070B905AF38464FF00A0C01460B4ABAFBB9
:10B69000FCF00CFB10AA12F80A0001F8010BDFE71E
:10B6A00005AF0A2201933946FFF700FF019BEAE745
:10B6B0006F12033ACDCCCCCC00007A443CE00508B4
:10B6C0001F85EB51D34D62105917B7D1A0860100E9
:10B6D00002B370B48E1803E0121B14D1B14215D01E
:10B6E00010F8012BA2F14103192B11F8013BA3F132
:10B6F000410598BF203203F12004192DECD9D21A4C
:10B7000001D1002BEAD1104670BC7047002270BCFA
:10B71000104670471046704770B5044608460D46FF
:10B7200048F040FC064602E014F8013F43B13246BF
:10B7300029462046FFF7CCFF0028F5D1204670BDF2
:10B740001C46204670BD00BF4FF0FF32FFF7C0BF60
:10B75000A0F16103192B98BF20387047A0F1410375
:10B76000192B98BF2030704720280BD0092809D00A
:10B770000A2807D00D2805D00B3801288CBF0020DF
:10B7800001207047012070472DE9F8431F46064607
:10B790000346984613F8014B2046FFF7E5FF0028C3
:10B7A000F7D12B2C5AD02D2C2DD10125102A08F1A0
:10B7B000010998F801403FD04FF0FF3C9046BCFB98
:10B7C000F2FC02FB0CFE6FEA0E0E5FFA8EFE09F130
:10B7D000010300200EE0303CE4B294421ADA6045E6
:10B7E0001E4602D823D1744521D93D404FF0FF3089
:10B7F00013F8014B392CEED944F02004602C09D900
:10B80000573CE4B2E9E7102A14D04FF0FF3CC146A0
:10B810000546D3E701B10E6007F00107B5B1B0F1FD
:10B82000004F2FD977B34FF00040BDE8F88300FBFD
:10B830000840DDE7C1460546302C11D04FF0100816
:10B840006FF0704C4FF00F0E4246C0E70028ECDA64
:10B85000002F18BF6FF00040BDE8F8830546A5E74C
:10B8600099F8014009F101064FF010082046FFF752
:10B8700075FF782808D0B1466FF0704C4FF00F0E6E
:10B880004246A4E74042D0E799F802406FF0704C7E
:10B8900009F1020942464FF00F0E98E701230A22F0
:10B8A000002171E770B50D461446FEF75DFE0646B1
:10B8B000A0B1FFF7F3FF40F634039842A8BF184643
:10B8C0001923B0F5617FB8BF4FF46170A0F56170C6
:10B8D00090FBF3F028702378013323703046FEF795
:10B8E00043FE0646A0B1FFF7D9FF40F63403984265
:10B8F000A8BF18461923B0F5617FB8BF4FF4617037
:10B90000A0F5617090FBF3F0687023780133237029
:10B91000304670BD613819288CBF00200120704767
:10B92000413819288CBF0020012070473038092881
:10B930008CBF002001207047A0F13003092B07D9EC
:10B9400020F02000413819288CBF002001207047CA
:10B950000120704707EE901A9FED827AF8EE677A21
