:020000040800F2
:10000000F0FF0010C5B504085D3C0208D56D01087D
:1000100065B6040865B6040865B60408000000006B
:10002000000000000000000000000000653C020825
:10003000633C020800000000613C0208F145010831
:1000400065B6040865B6040865B6040865B6040814
:1000500065B6040865B604085D8101089D82010843
:100060005D8201081D820108DD81010881170108F8
:100070007117010861170108511701083D170108A0
:10008000291701081517010865B6040865B60408A4
:1000900065B6040865B6040865B604089D810108C4
:1000A000CD370108693D0108FD360108453E0108CC
:1000B000A93C0108E93B01081D3B010865B604089D
:1000C00065B6040865B6040865B6040865B6040894
:1000D00065B6040865B60408CD4601083146010836
:1000E0001D81010865B60408358702082D36010810
:1000F0009D3801085D3501087D39010801170108A7
:1001000065B6040865B604084D3A010865B60408EA
:1001100065B6040865B6040865E8010851E80108F9
:10012000ED160108D9160108C5160108B116010817
:100130009D16010865B6040865B6040865B604088E
:1001400065B6040865B6040865B60408C54B020820
:1001500089160108751601086116010865B60408BC
:1001600065B6040865B6040865B6040865B60408F3
:1001700065B6040865B6040865B6040865B60408E3
:0801800065B6040865B6040829
:080188006CB10400010000004D
:1001900002020300D8150020D41500200000000042
:1001A0000000000010020100E0150020DC15002016
:1001B00000000000A40600081F021000F415002033
:1001C000E415002000000000E58900081A023C0048
:1001D000481600203019002000000000FB910008A4
:1001E00027000400201600206C19002000000000E9
:1001F000A606000838100100101600207019002013
:1002000000000000AA06000802000C00AC23002039
:10021000D8230020000000000000000008120F009A
:100220009C230020E423002000000000ED8700084C
:100230001D02020098230020F4230020000000008B
:10024000AC0600080A020A0044210020F82300201E
:1002500000000000FD9D0108030001005C1C00205F
:1002600004240020000000000000000003123D00F4
:10027000582300200824002000000000AE060008DB
:1002800025102C01782100204824002000000000C7
:1002900000000000101002002C1C0020742500201B
:1002A00000000000EC06000814000300B035002038
:1002B000A839002000000000F00600080B301A00EA
:1002C000F8260020AC39002000000000F4060008E9
:1002D0001F30240014270020C8390020000000002F
:1002E000100700080502040020310020EC3900202E
:1002F000000000003407000803010A00542F00200A
:10030000F039002000000000380700081302040044
:100310009C250020FC390020000000004207000856
:1003200001200C00DC3D00201C46002000000000E5
:10033000480700080C109C00E43C002028460020E0
:1003400000000000259E01080A702800703C002073
:10035000C44600200000000061F102080EA05C010C
:10036000143B0020EC46002000000000D1130408DC
:1003700001010400D83A0020484800200000000095
:100380000000000000010400D03A00204C4800208A
:10039000000000005407000802010300CC3A0020CE
:1003A00050480020000000000599010822021401B5
:1003B00084430020544800200000000009930008F6
:1003C00000020500B0420020684900200000000043
:1003D000000000001B0210009C4200207049002019
:1003E00000000000D38600081E0006002040002008
:1003F0008049002000000000580700082312100068
:10040000F04200208849002000000000600700083A
:1004100037102800903D002098490020000000007F
:10042000700700080E020200EC420020C0490020C4
:10043000000000009807000816100600043A00208B
:10044000C4490020000000009A0700082F10220075
:10045000F8450020CC49002000000000A00700085B
:1004600005100600F83D0020F049002000000000C3
:10047000C207000812201000F43A0020F8490020BA
:1004800000000000C807000823100E00A03E002056
:10049000084A002000000000D5F10208F5518C0048
:1004A0000C3A0020184A00200000000069D202081F
:1004B0002C0010007853002068530020000000003A
:1004C0008D0C03082B002400AC530020885300201F
:1004D000000000005D0C0308292078006C52002009
:1004E000D0530020000000000000000020320A006D
:1004F00054540020485400200000000041F102083C
:100500001C021000C84E00206054002000000000B3
:10051000A986000828101000845100207054002083
:1005200000000000BDF102080D002C00BC79002085
:1005300064830020000000001D8103080400800087
:1005400000790020908300200000000000000000DF
:10055000F9010400EC780020108400200000000065
:10056000B11B010813000400E87800201484002067
:1005700000000000D8070008FD012400C478002016
:100580001884002000000000391B010818202E00EC
:10059000907800203C840020000000009592000824
:1005A00006101A00B06300206C84002000000000D8
:1005B00015120408FB010100AC63002088840020B0
:1005C00000000000B9930008FC01090078620020D7
:1005D0008C84002000000000C993000816023F0030
:1005E0003062002098840020000000000D87000881
:1005F0003400100060610020D8840020000000005A
:10060000E91104081102080038610020E884002084
:1006100000000000DC070008121204003061002016
:10062000F084002000000000E4070008FE01140030
:10063000A8570020F484002000000000E586000890
:100640001900050054890020648A00200000000081
:10065000E80700081A000E00E08800206C8A0020DD
:1006600000000000EE070008F8210600B487002013
:100670007C8A002000000000FC07000815007000C4
:100680002C860020848A002000000000000000006A
:100690002A006000B0890020F48A002000000000D9
:0406A000A91304088E
:1006A4000000200300000000000000000000000023
:1006B4000000000000000000000000000000000036
:1006C4000000000000000000000000000000000026
:1006D4000000000000000000000000000000000016
:1006E40000000000000001000005000003000000FD
:1006F400AE014A015E012C01640002000000010009
:100704000A019A01001E0A00000000000000000017
:1007140000010000000500000102030000000000C9
:10072400000000000000000000000000008007003E
:1007340000000000040101006C160000000000002D
:1007440001000000E8036400040A000114001E0014
:100754009001000000000100000000000000000003
:100764000000000000000000000000002000320033
:10077400C800D0079600140032002800B0044006D8
:100784000005500014000F0008006400010001007F
:1007940005000A000000C409000019000000000060
:1007A4000000000000000000000000000000000045
:1007B4000000000000000000000000000000200015
:1007C4000301000000000001000005454C4C30000E
:1007D4000019000008004030000000000101010180
:1007E400FFFFFFFF0000280100007E05EA05B405B5
:0E07F4003200E803D00700000401F4011400F5
:10080200FFFF00009C6D05080000080205030300BD
:10081200A46D0508010008020504030068810508AB
:100822000200FE0101100300AC6D05080300140272
:1008320000030000B46D050804001F020100080057
:10084200BC6D050805001F0201010800FFFFFFFF44
:10085200000000000000000001020304060708096E
:1008620001000000A00F0000B80B00000102FFFF12
:10087200010000000000803F0000000000000000B6
:1008820000000000FFFFFFFFFF000000EC7F0508F3
:10089200F87F050804800508108005081C800508FB
:1008A20028800508889305081C4805081C47050888
:1008B20088980508E4710508DC7F0508E07F0508D3
:1008C200E47F0508E87F05083480050838800508BC
:1008D2003C80050854450508408005081900C800F9
:1008E200F40120030403090412010002EF02014093
:1008F20083045632000201020301000012010002C9
:10090200020200408304405700020102030100007A
:1009120009026400030100C032090400000103005F
:1009220000000921110100012226000705830308A6
:10093200000A080B0102020201000904010001027F
:100942000201000524001001052401000204240212
:10095200020524060102070582030800FF090402BA
:1009620000020A000000070501024000000705819D
:100972000240000009024300020100C032090400E3
:1009820000010202010005240010010524010001FA
:10099200042402020524060001070582030800FF61
:1009A20009040100020A00000007050102400000DC
:1009B2000705810240000000FF000000B8FB0408A8
:1009C2000000000000000000000000000000000025
:1009D2000000000000000000000000000000000015
:1009E2000000000000FFFF0000000000AA55050102
:1009F200000001008CFB0408000000000000000061
:100A020000000000000000000000000000000000E4
:100A1200000000000000000000000000FF1FFF1F98
:100A220005010905A101A1000501093009310932B9
:100A3200093309350934094009381581257F7508BC
:100A420095088102C0C0000009022200010100E0F5
:100A52003209040000010301020009211101000111
:100A62002226000705830308000A00000000000098
:100A72000102030401020304060708090B400208ED
:100A82000F3F02083F420208432002085B2302088C
:100A9200532002086F2002081D2002080F200208BE
:100AA20000000000000000002D202D2D202D2D2DF6
:100AB2002D202D2D2D2D0000000000000000000033
:100AC20000000000000000AA550B010000AA550713
:100AD200010000AA550902000000AA5503009F0068
:100AE20001000000C01200007C390020000000005C
:100AF200A039002000000000010000002D8B020838
:100B020000000000E0FC040820700020702D72003C
:100B1200FFFFFFFFFFFFFFFF010101012D202D2D30
:100B2200202D2D2D2D202D2D2D0000000000000048
:100B320000000000000000000000000000000000B3
:100B4200000000003C110508000000000000000049
:100B5200C811050801000000FA00000001000000B1
:100B620001000000D83D00200000F4010100000057
:100B7200D63D00200000F40101000000D43D002019
:100B82000000F40101000000D23D00200000F40149
:100B920001000000D03D00200000F401010000002F
:100BA200CE3D00200000F40101000000CC3D0020F9
:100BB2000000F40101000000ED920208A99202086F
:100BC20070000508C63D002005320100C43D00202A
:100BD200E803D00701000000C23D0020E803D0076F
:100BE20001000000C03D0020E803D0070100000022
:100BF200BE3D00201E00B80B01000000BC3D0020DD
:100C02001E00F40101000000BA3D0020140064003F
:100C120001000000C83D00203200E803010000008E
:100C2200B83D00200000C80001000000C63C0020C2
:100C320000C80100C53C002000500100C43C002057
:100C4200005A0100C23C002002000000FC0005081E
:100C52000886050810860508923500200100C4099F
:100C620000000000903500200100C40900000000CF
:100C72008E3500200100C409000000008C350020E0
:100C82000100C40900000000883500200100C409E9
:100C9200000000008A3500200100C40900000000A5
:100CA200863500200100C4090000000084350020C0
:100CB2000100C40900000000ED3A002000C8010054
:100CC200EC3A002000C80100EA3A00200100C80006
:100CD20001000000E83A00203200307532000000C6
:100CE200E73A0020055A0500E43A002000FF01001F
:100CF200E63A002001000000D8050020E23A002078
:100D02000300000090FF0408E33A002000FF010006
:100D1200E53A002001000000D8050020E13A002059
:100D22000300000090FF04084D920208F1910208AE
:100D320008010508EC3D0020EE02CA08010000008F
:100D4200EA3D002000C8010064000000E93D0020E7
:100D520000C8010064000000E83D0020020000001D
:100D6200CC010508DE3A002080C1803E050000006B
:100D7200DC3A002080C1803E05000000D63A002007
:100D820080C1803E05000000D43A002080C1803E30
:100D920005000000CF3A002000FF0100C83A002001
:100DA2006400F40101000000C73A002004000000C2
:100DB200D8010508C63A002002000000EC0105082F
:100DC2000000000000000000F8010508D8300020F3
:100DD2009CFF2C0100000000A8450020E0150C1724
:100DE20000000000B54200200200000030020508A9
:100DF200FE3D00200100FF7F01000000F73D0020C2
:100E0200020000003C020508063B0020030000002F
:100E12004C020508053B0020030000004C020508B7
:100E2200A43C00200000E80301000000A23C0020D6
:100E32000000E80301000000A03C00200000E803DD
:100E4200010000009E3C00200000E80301000000B9
:100E52009C3C00200000E803010000009A3C0020B6
:100E62000000E80301000000993C0020001401008A
:100E7200983C0020030000005C020508B03C002002
:100E82000000F40101000000AE3C00200000F4016B
:100E920001000000AC3C00200000F4010100000051
:100EA200AA3C00200000F40101000000A83C002040
:100EB2000000803E01000000A63C00200000803EB1
:100EC20001000000D93C002019640100D83C002038
:100ED200020000006C020508D63C0020E803D0079F
:100EE2000A000000D43C0020006401000A00000057
:100EF200C93C002000640100C83C002000640100DD
:100F0200D03C0020006401000A000000CF3C002019
:100F1200006401000A000000CE3C002000640100D1
:100F22000A000000D33C0020006401000A00000017
:100F3200D23C0020006401000A000000D13C0020E5
:100F4200006401000A000000CD3C002001FF010006
:100F52000A000000CC3C002001FF01000A00000052
:100F6200CB3C002001FF01000A000000103B0020E2
:100F72000000F401010000000E3B00200000F4011B
:100F8200010000000C3B00200000F4010100000001
:100F92000A3B00200000F40101000000083B002091
:100FA2000000F40101000000C13C002000640100C7
:100FB200C03C002000640100BF3C0020006401002E
:100FC200BE3C0020FF080100BD3C0020016401007E
:100FD200C19002088590020878020508BC3C0020F6
:100FE20000640100BA3C00201400E8030100000084
:100FF200B83C0020E80330750A000000B63C00202F
:1010020000C80100B53C002000C80100B43C00202B
:1010120000C80100B33C0020006401000A00000087
:101022008E3D00200000D00701000000893D002015
:1010320000C80100883D002000C80100873D002053
:1010420000C801008C3D00200000D0070100000014
:10105200863D002000C80100853D002000C8010037
:10106200843D002000C801008A3D00200000D00716
:1010720001000000833D002000C80100823D0020E5
:1010820000C80100813D002000C8010000000000EE
:10109200498E0208E8020508043B002035000000E2
:1010A20084030508F03A002000C80100EE3A00204F
:1010B200E803D00701000000454C4C453000000019
:1010C200BD8D0208898D02085C040508498D02085D
:1010D200018D0208CC040508B9A6020895A70208EA
:1010E2004C050508E03A0020010301005D93020867
:1010F2003193020840080508A18C0208558C0208A9
:10110200B00805086DDE0208000000004C09050861
:101112004D980208BD930208E80905085F8E02088F
:1011220000000000580A0508358F0208E18E020807
:10113200BC0A0508C58F0208898F0208580B0508EA
:10114200FD90020845910208D80B0508C73C002013
:1011520001060100A58E0208718E0208D40C050852
:101162000190020899C40208440D0508759102080D
:1011720021C50208240E0508B23C0020010301002B
:101182001D8E0208F18D0208F80E050889930208E7
:10119200000000005C0F0508ED8C020839D202083D
:1011A200C00F050800000000000000002410050820
:1011B200C991020899C5020894100508C23A002094
:1011C20088136F1701000000C43A002088136F17BC
:1011D20000000000527A0020000000000000000021
:1011E200507A002000000000000000004E7A00202B
:1011F20000000000000000004C7A00200000000007
:10120200000000004A7A00200000000000000000F8
:10121200487A002000000000000000006C0400205A
:1012220000000000000000009B3A002002000000C5
:101232001C120508C03A002088136F170100000035
:101242001831002088136F1700000000E58B020898
:101252000000000028120508B6420020010000002C
:101262007C1205081A3100200100000088120508CE
:10127200103100200200000090120508000000005A
:10128200000000009C120508CD8B0208000000003F
:101292003813050800000000000000008C13050848
:1012A2000000000000000000FC13050814310020BB
:1012B200E0150C1700000000D6010000B80B00007A
:1012C2000100000000010101000101000000000016
:1012D200A8550020080000000000000098550020DA
:1012E20008000000B1240208E32202081D4202089D
:1012F200000000000D200208FD3E02082124020821
:10130200813E02080000000000000000CD1F02081C
:1013120023240208A52202086541020800000000F9
:10132200E51F0208833E0208F5230208EF3D02088A
:101332000000000000000000D91F020800000401A4
:101342000000000000000002100000000700000082
:10135200971F02085F3C0208951F02088F1F0208B0
:101362008D1F0208931F0208911F0208A51F020881
:10137200991F0208F92B02080D2C0208E52B02081E
:10138200D12B0208BB2B02080100000000600240C2
:10139200106002400000000000000000000B00008E
:1013A2000000000000000000000000000060024099
:1013B200286002400100000000000000060C00004E
:1013C2000000000000000000000000000060024079
:1013D200406002400200000000000000100D00000A
:1013E2000000000000000000000000000060024059
:1013F200586002400300000000000000160E0000CA
:101402000000000000000000000000000060024038
:10141200706002400400000000000000200F000085
:101422000000000000000000000000000060024018
:101432008860024005000000000000002610000045
:1014420000000000000000000000000000600240F8
:10145200A060024006000000000000003011000001
:1014620000000000000000000000000000600240D8
:10147200B86002400700000000000000362F0000A4
:1014820000000000000000000000000000640240B4
:10149200106402400000000000000000003800005C
:1014A2000000000000000000000000000064024094
:1014B200286402400100000000000000063900001C
:1014C2000000000000000000000000000064024074
:1014D200406402400200000000000000103A0000D8
:1014E2000000000000000000000000000064024054
:1014F200586402400300000000000000163B000098
:101502000000000000000000000000000064024033
:10151200706402400400000000000000203C000053
:101522000000000000000000000000000064024013
:10153200886402400500000000000000264400000C
:1015420000000000000000000000000000640240F3
:10155200A0640240060000000000000030450000C8
:1015620000000000000000000000000000640240D3
:10157200B864024007000000000000003646000088
:10158200000000000000000000000000486E050896
:10159200B496050800000000E57E0308A08601005D
:1015A2000400000000000000000000000000000035
:1015B2000000000000000000000000000000000029
:1015C200000000000000000000000000486E050856
:1015D2000499050800000000D5190108E80300007D
:1015E20004000000000000000000000000000000F5
:1015F20000000000000000000000000000000000E9
:10160200000000000000000000000000248C05081B
:10161200DC45050800000000D9A501087D00000096
:1016220006000000000000000000000000000000B2
:1016320000000000000000000000000000000000A8
:10164200000000000000000000000000786D0508A6
:101652000000000000000000C12C0108E8030000A7
:101662000300000000000000000000000000000075
:101672000000000000000000000000000000000068
:101682000000000000000000000000000C990508A6
:101692000000000000000000C975040810270000C7
:1016A2000300000000000000000000000000000035
:1016B2000000000000000000000000000000000028
:1016C200000000000000000000000000A86D0508F6
:1016D200000000000D090308396E01085F76000062
:1016E20005000000000000000000000000000000F3
:1016F20000000000000000000000000000000000E8
:101702000000000000000000000000005C700508FE
:101712000000000000000000DD8801081027000022
:1017220001000000000000000000000000000000B6
:1017320000000000000000000000000000000000A7
:1017420000000000000000000000000018990508D9
:101752000000000000000000D9190108E8030000A1
:101762000500000000000000000000000000000072
:101772000000000000000000000000000000000067
:10178200000000000000000000000000249905088D
:10179200000000000000000019850308204E000030
:1017A2000300000000000000000000000000000034
:1017B2000000000000000000000000000000000027
:1017C200000000000000000000000000349905083D
:1017D2000000000000000000217F0308204E0000EE
:1017E20003000000000000000000000000000000F4
:1017F20000000000000000000000000000000000E7
:1018020000000000000000000000000044990508EC
:1018120000000000000000000D200108400D030040
:1018220003000000000000000000000000000000B3
:1018320000000000000000000000000000000000A6
:10184200000000000000000000000000906D05088C
:10185200000000000000000065B40208102700002C
:101862000300000000000000000000000000000073
:101872000000000000000000000000000000000066
:10188200000000000000000000000000549905085C
:101892000000000000000000B95C0308A0860100FF
:1018A2000100000000000000000000000000000035
:1018B2000000000000000000000000000000000026
:1018C2000000000000000000000000002088050861
:1018D2000000000000000000A5180108A861000037
:1018E20001000000000000000000000000000000F5
:1018F20000000000000000000000000000000000E6
:1019020000000000000000000000000064700508F4
:1019120000000000000000001D480108A00F0000A8
:1019220001000000000000000000000000000000B4
:1019320000000000000000000000000000000000A5
:10194200000000000000000000000000146F050805
:101952000000000000000000E1CB02081A41000074
:101962000100000000000000000000000000000074
:101972000000000000000000000000000000000065
:10198200000000000000000000000000C470050814
:10199200000000000000000061270208102700007C
:1019A2000100000000000000000000000000000034
:1019B2000000000000000000000000000000000025
:1019C200000000000000000000000000C8960508AA
:1019D2000000000000000000ADE502081A4100000E
:1019E20001000000000000000000000000000000F4
:1019F20000000000000000000000000000000000E5
:101A02000000000000000000000000005C990508D2
:101A12000000000000000000412D0208400D0300FC
:101A220000000000000000000000000000000000B4
:101A320000000000000000000000000000000000A4
:101A4200000000000000000000000000649905088A
:101A5200000000000000000061180108400D0300B2
:101A62000000000000000000000000000000000074
:101A72000000000000000000000000000000000064
:101A82000000000000000000000000006C99050842
:101A92000000000000000000A5D4020850C30000AE
:101AA2000300000000000000000000000000000031
:101AB2000000000000000000000000000000000024
:101AC20000000000000000000000000078990508F6
:101AD2000000000000000000E584030840420F00FF
:101AE20000000000000000000000000000000000F4
:101AF20000000000000000000000000000000000E4
:101B020000000000000000000000000084990508A9
:101B120000000000000000007D82030850C30000A6
:101B220000000000000000000000000000000000B3
:101B320000000000000000000000000000000000A3
:101B42000000000000000000000000000000803FD4
:101B52007D000000FFFFFFFF0000803F000000004B
:101B620000000000000000000000803F00000000B4
:101B72000000000000000000000000000000000063
:101B82000000000000000000000000000000000053
:101B92000000803F00000000000000000000000084
:081BA200010000000000803F7B
:1080000073B50446184623091646069D403304F00E
:108010000F0439B10139CDE90041064A3146A8477C
:1080200002B070BD044A06943146AC4602B0BDE8C9
:1080300070406047583005086830050820B1007866
:10804000B0FA80F04009704701207047037903F0CF
:108050001803082B0AD002D82BB100207047102B30
:1080600016D0182BF9D1B0F80B007047114BB0F8AF
:108070000B0093F90030591C06BF0F4B1B78DBB285
:10808000C3EBC30203EB820300EB830080B27047B3
:10809000084BB0F80B0093F901305A1C06BF064B91
:1080A0005B78DBB203EB430203EB820300EB43009C
:1080B00080B2704788010020F43A0020F0B50679BC
:1080C00006F0E003402B09D144794FF0FF3500233F
:1080D000012006F00706A3420BD1F0BD602B08BFBC
:1080E00045794FF001040CBF04FA05F54FF0FF3558
:1080F000EDE7042E0CD8DFE806F0030D18242E005F
:1081000030B1C85CD75C784028420CBF0120002009
:108110000133E0E70028FBD0C856D756A0EB070C88
:10812000DCF1000040EB0C00F2E70028F0D031F861
:10813000130032F81370784028420CBF0120002051
:10814000E6E70028E4D031F9130032F91370C71BB9
:1081500078427841DCE70028DAD051F8230052F861
:108160002370784028420CBF01200020D0E703682C
:108170005A1C0260197070472DE9F047089C257859
:10818000002B804689460CBF4FF0200A4FF0300A82
:10819000661C25B3002A26DD334601E0024698B16D
:1081A00013F8011B501E0029F8D1971E60B13D46FF
:1081B000013D51464046C8476B1C002BF8DC257832
:1081C00027EAE770013045B1041B29464046C847FD
:1081D000301916F8015B002DF7D1BDE8F087002AB1
:1081E00003DC2846F9E70020EEE7571EDFE72DE91C
:1081F000F04714461D4606464FF47A720023204687
:10820000294643F013F84E4BDFF848814D4A4E4F54
:10821000034488FB03101844D91782FB032CC1EBDD
:10822000601088FB002887FB03279C44474AC1EB6A
:10823000EC2CC0EB001E82FB0C29A3EB8E0E1F441E
:10824000434A86F806E0C1EB27474FEAEC7E08EB8D
:10825000000ACEEBA90E82FB07824FEAE0780EEB14
:108260004E0EC8EB6A18ACEBCE0CC8EB0818DFF862
:10827000E8E086F804C0A0EB880070718EFB030371
:10828000F817C0EBE21240F2B55000FB1272C1EBDE
:10829000E353B2F5896F4FEA83073CDA40F2DA2301
:1082A0009A4242DCB2F5B77FB4BF4FF0000E4FF0F8
:1082B000010E4FEA4E09DFF8A48009EB0E0308EB2C
:1082C000C3031FFA8EFCD88A09EB0E0108EBC1012B
:1082D00016310B2301E031F8020D904218DD013B0D
:1082E000F9D1CE44012338F83E00B37007F5FA67A0
:1082F0000132121ABC44F270A6F800C0204629468A
:108300004FF47A72002342F091FF3281BDE8F0878A
:108310000133DBB2E9E74FF0030CE64640F296503A
:10832000DFF838804FF00609CEE74FF0020CDFF897
:108330002C80E64640F229404FF00409C4E700BF14
:1083400080BC92C7C5B3A29107452EC2ABAAAA2A88
:1083500073B06D1689888888792D031154CE04086E
:108360000378202B024600F10100F9D0092BF7D049
:108370002D2B00F0A4802B2B03BF5378B7EE000AFF
:108380000246B7EE000AA3F13001C8B209289FEDFA
:10839000577A10D8F2EE046A07EE901AF8EEE77AF0
:1083A00012F8013FE7EE267AA3F13001C8B209289E
:1083B000B0EE677AF0D92E2B63D003F0DF03452BA4
:1083C00002D020EE070A704710B451782D294FD003
:1083D0002B2979D0A1F13003092B02F101027AD8BF
:1083E0000024002303EB830301EB430312F8011F76
:1083F000A1F130000928A3F13003F3D9B3F59A7F36
:108400001A4628BF4FF49A72072B6CD9DFED386AF1
:108410001346F7EE007A083B072B67EEA67AFAD8E8
:1084200002F00702DAB1F2EE046A012A67EEA67AD8
:1084300015D0022A67EEA67A11D0032A67EEA67A33
:108440000DD0042A67EEA67A09D0052A67EEA67A2F
:1084500005D067EEA67A062A18BF67EEA67A002C2A
:108460003BD087EE277A5DF8044B20EE070A704771
:108470009178A1F13003092B02F1020230D80124D6
:10848000AFE75378A3F13001C8B2092802F1010225
:1084900093D8F2EE046AF0EE665A07EE901AF8EE00
:1084A000E77A12F8013F87EEA66AA3F13001C8B25D
:1084B000092866EEA56A37EE067AEED97DE753788D
:1084C000BFEE000A02465EE79178A1F13003092B66
:1084D00002F1020284D9F7EE007A27EE277AC2E78A
:1084E000F7EE007ABDE7F7EE007A9BE700000000A8
:1084F00020BCBE4C0028F0B403DA2D230B704042A0
:108500000131092804464FF0010307DD03EB830323
:108510005B00B0FBF3F2092AF8D883B10F48A0FB47
:108520000326B4FBF3F2092A02F1570C02F13007DB
:1085300009DD03FB1244F30801F801CBEFD100235E
:108540000B70F0BC704703FB1244F30801F8017B89
:10855000E5D100230B70F0BC704700BFCDCCCCCC74
:10856000884270B44FF0010442D301FB04F4B0FB25
:10857000F4F58D42F9D2ECB142BB092D04FB150094
:1085800005F1570605F130020EDDB4FBF1F403F8F6
:10859000016B7CB1B0FBF4F5092D04FB150005F16E
:1085A000570605F13002F0DCB4FBF1F403F8012BBF
:1085B000002CEFD100221A7070BC704703F8016BD9
:1085C000B4FBF1F4002CF5D0B0FBF4F5092D04FB5D
:1085D000150005F1370605F13002EFDCB4FBF1F4CC
:1085E00003F8012B002CEFD100221A7070BC7047E9
:1085F0000546002AEAD1C0E790ED057A90ED004AE1
:10860000D0ED066AD0ED014AD0ED047A90ED035A20
:10861000D0ED025AA4EE007AB0EE406AB0EE470AFE
:10862000B0EE667AA4EE867A67EEC07AA5EE407A5E
:10863000E5EE867A80ED057AC0ED067A7047D0EDDA
:10864000057A90ED013AD0ED003AD0ED064A90ED72
:10865000024A90ED077A90ED035A90ED086AD0ED4A
:10866000045AC0ED067AF0EE406A27EE830AC0EDA8
:10867000056AA3EEA60A80ED087AA4EE240AA5EE08
:10868000470AA5EEC60A80ED070A7047D0ED007ACA
:1086900090ED017A30EE670AE7EE007AB0EE670AF5
:1086A000C0ED007A7047704730B42C230022252596
:1086B00004240121C37002238571C4710172027008
:1086C000C2728273C273437083704372837230BC10
:1086D0007047002306214FF47A720170C0E901232C
:1086E0000373704730B43423012235254FF60174EB
:1086F000FF2143700023457104828174027202706D
:10870000027143818381C38130BC70472DE9F04FF2
:108710003149324B83B001F5907B019012274FF025
:1087200000092F481022012603E0203098420BD088
:1087300002799742F9D102680C68A24209D0203030
:10874000984206F10106F3D1203159453AD00F790C
:10875000E7E744794D79A542F1D19446019A214841
:1087600009EB490502EB050A57558AF8016000F547
:1087700072751D4E624603E0A8421AD050F82C6F65
:10878000B242F9D10679A642F6D1CF6806464FF03B
:10879000000C96468046F268BA4216D00CF1010CE5
:1087A000BCF1030F06F10C06F5D14046A842724613
:1087B000E4D14FF0FF3C203159458AF802C009F15D
:1087C0000109C4D103B0BDE8F08F08693269824263
:1087D000E4D14FFA8CFCEEE7382F0508102205088B
:1087E000501805081022050800000140FF2310B4AE
:1087F0002E212D242F2244718171C271C370037107
:1088000003724372437383735DF8044B7047094BE3
:1088100009498B4203D309E014338B4206D21A88EC
:10882000C2F30B029042F7D1184670470023184656
:10883000704700BF90010008A40600082DE9F04F22
:10884000064689B040F21620FFF7E1FF364A147859
:10885000D0E901730CB13C461F460DF10809152201
:108860000021484644F0A3FA002517F80580B8F126
:10887000000F26D07B1993F801A0002C51D022467E
:1088800000231178414545D1517808AA13440122AB
:1088900003F8182CA1EB0A03D3F1000B4BEB030BED
:1088A0003CB131B1214B00935A4633464046FFF765
:1088B000A7FB1F4B00935A46334651464046FFF7ED
:1088C0009FFB03353F2DD0D10CB3DFF860A0DFF85C
:1088D00060B0002519F80570B7B905EB450814F824
:1088E000080088B104EB08033A465978CDF800A097
:1088F0003346FFF785FB14F80800CDF800B0334687
:108900003A463946FFF77CFB0135152DE2D109B017
:10891000BDE8F08F0133152B02F10302B1D1002124
:10892000B8E72146B6E700BF301500203DAE00088D
:1089300059AD000870B50546B0F80900FFF767FFAC
:10894000064B1E7804462846FFF780FB16B1A36845
:10895000184470BD63681844FBE700BF3015002061
:1089600038B505460C46FFF7E5FF2A7902F0070304
:1089700002F0E002602A28D1022B0ED0042B18D07E
:108980003BB96A7901239340DBB2027814B11343F7
:10899000037038BD22EA0303FAE76A7901239340A2
:1089A0009BB2028814B113430380F2E722EA030367
:1089B000FAE76A79012303FA02F2036814B1134358
:1089C0000360E6E723EA0203FAE7042BE1D8DFE8D5
:1089D00003F00303050507000470DAE70480D8E715
:1089E0000460D6E7034600F11001FF221A705A70A6
:1089F00002339942FAD18270C2700271427170479B
:108A00004378007840EA032010FB01F04FF48071B6
:108A100090FBF1F000F30F0000B2704710B5064C68
:108A200023790BB9002010BD0BF07EFCA368C01A9F
:108A3000D0F5FA50F7D5F5E73015002038B50446E3
:108A40000D46FFF7EBFF246808B10BF0BFFC054BA8
:108A500000221A71C9215B792A4620460FF040FD99
:108A6000012038BD301500204FF4006303837047A8
:108A70004FF4006303837047012380F85030704740
:108A8000F0B4037C456902681F2B37D9203B2021B5
:108A9000546899400C4223D010249C40D160D4608B
:108AA0005168D940CE074ED4EFF31183502282F3A0
:108AB0001288EA6B1168C90709D45468002C52D196
:108AC000D5E909618E4243D1012285F86020DBB2ED
:108AD00083F31188037C02681F2B194614D9203BAD
:108AE000082150689940084200D0D16004215068A4
:108AF00001FA03F3184223D1F0BC70472024166812
:108B00009C4026420FD11946082310688B4018421A
:108B100000D093600423106803FA01F10842EBD0FF
:108B20009160F0BC70471021994094609160116889
:108B3000D940CC07B8D5012101FA03F39360B3E71C
:108B4000D360F0BC7047012101FA03F3D360ABE7B7
:108B5000AF690F44D7600ED82E69711A5160AC62AC
:108B6000002185F86010116841F00101DBB211604D
:108B700083F31188AEE7711A5160AE62F0E7F0B48A
:108B8000B24BB3491A780B789A4240F00781B14B47
:108B90001A78002A68D0B04B1978B04B002965D1FB
:108BA0001868B3F8305141628489012A44EA050407
:108BB0008481A3F8301157D0D3F83401B3F864524C
:108BC00041628489022A44EA05048481A3F864127C
:108BD0004AD0D3F86802B3F8985341628489032AD3
:108BE00044EA05048481A3F898133DD0D3F89C038C
:108BF000B3F8CC5441628489042A44EA0504848190
:108C0000A3F8CC1430D0D3F8D004B3F800564162A6
:108C10008489052A44EA05048481A3F8001623D038
:108C2000D3F80406B3F8345741628489062A44EA2B
:108C300005048481A3F8341716D0D3F83807B3F8A5
:108C4000685841628489072A44EA05048481A3F8AC
:108C5000681809D0D3F86C28B3F89C495162908900
:108C600020439081A3F89C19F0BC70475C68198977
:108C700061602568186845F0010540F20D312560F6
:108C8000A0F848108489012A44F480748481EBD0D0
:108C9000D3F83841B3F83C51D3F834016560256806
:108CA00045F001052560A0F848108489022A44F4A3
:108CB00080748481D8D0D3F86C42B3F87052D3F862
:108CC00068026560256845F001052560A0F8481038
:108CD0008489032A44F480748481C5D0D3F8A043E6
:108CE000B3F8A453D3F89C036560256845F00105EB
:108CF0002560A0F848108489042A44F48074848193
:108D0000B2D0D3F8D444B3F8D854D3F8D0046560C3
:108D1000256845F001052560A0F848108489052ADA
:108D200044F4807484819FD0D3F80846B3F80C567D
:108D3000D3F804066560256845F001052560A0F8B4
:108D400048108489062A44F4807484818CD0D3F836
:108D50003C47B3F84057D3F838076560256845F0BD
:108D600001052560A0F848108489072A44F480741E
:108D700084813FF479AFD3F87028B3F87408D3F83E
:108D80006C385060106840F001001060A3F8481083
:108D90009A8942F480729A81F0BC70475C00E618B0
:108DA0002F4D15F83660032E3FF6F1AEDFE806F0E2
:108DB0005C261C02E01805EBC0004468661E012C0E
:108DC00046603FF651AF013303F00303D8B282424D
:108DD00008703FF4DCAE03EB4303DB00EA1802202B
:108DE0000021E85451603FE7E11805EBC1014868F4
:108DF000461E01284E603FF637AF0DE0E118C9006E
:108E000068184668771E012E47603FF62DAF02278F
:108E10004FF0FF366F544660E618F600AF19114860
:108E2000397B00680139C9B2397300293FD04FF44A
:108E30007A722344B2FBF0F200FB02F0B0F57A7FC5
:108E400005EBC30518BF01326A60A0E6A81B00202D
:108E5000A91B00203814001034140010EC6E002000
:108E6000AC1B0020D814002070B11D49012600223F
:108E70000F890132002F18BF0026904201F5B27110
:108E8000F6D1002E3FF483AE164A126842F21076F5
:108E9000E018B6FBF2F102FB1162012605F8306022
:108EA00002B13144234405EBC30569606FE6BF6836
:108EB000B7FBF0F100FB11700327AF5500B1013192
:108EC0001C44013305EBC40503F0030393426960BE
:108ED0003FF45DAE00293FF45AAE0139696056E6B1
:108EE000CC630020D81400200FF062BC2DE9F043C1
:108EF00085B0B2F1FF3F894690461946BDF8305023
:108F00000D9F23D0060900F00F044036CDE9004242
:108F10003346154A2846B847A8B1424699F8051085
:108F2000D9F800000FF0F2F968B10388DAB20392C1
:108F3000C3F303221B0B0292CDE900430B4A3346D5
:108F400000212846B84705B0BDE8F0836B06FAD487
:108F50000309074A00F00F000C9040332846BC4636
:108F600005B0BDE8F04360477A3005088C3005084D
:108F7000B53005082DE9FF47B2F1FF3F05468946A8
:108F800092461F46BDF830400D9E20D001F10108E9
:108F9000CDE9008239460368134A2046B04752465D
:108FA0005FFA89F128790FF0F9F900B100880F4ACA
:108FB000C3B20393C0F30323000B0293CDE90080F7
:108FC0002B6839462046B04704B0BDE8F0876306F9
:108FD000FAD44B1C0C930368054A39462046B44624
:108FE00004B0BDE8F0476047C9300508D630050831
:108FF000FA3005082DE9F04F5F4CDFF888918BB00F
:10900000054604F1480ADFF874B10026A37A99F8FE
:109010000070B3427DDC0C34A245F4D140F216203E
:10902000FFF7F5FBD0E901480FB9A0463C461522F1
:10903000002104A843F0BBFE002606EB460B18F8FF
:109040000B7087B308EB0B0A38469AF801100BF047
:1090500031F99AF902A08146002C00F089800023A2
:1090600003EB4302A25CBA427ED1A34404A90123CC
:109070009BF902208B55AAEB0200D0F1000B4BEBC1
:10908000000B3CB13D4B4946CDE9005338465B46A9
:10909000FFF72CFF3A4B5246CDE9005349465B4659
:1090A0003846FFF723FF0136152EC6D174B3DFF81B
:1090B000D0B0002604AB9F5D2FBB06EB460814F82A
:1090C0000890B9F1000F1ED004EB080393F90220B9
:1090D0000392511C17D0597848460BF0EBF8274BF8
:1090E000039A01468246CDE9005348463B46FFF7C6
:1090F000FDFE14F808003B46CDE9005B4FF0FF325F
:109100005146FFF7F3FE0136152ED3D10BB0BDE863
:10911000F08FE088FFF77BFBD0E901310FB91946EA
:109120003B46227A607A06FB02028F56CBB19A56F2
:10913000A7EB020CDCF1000848EB0C0833B1CDE9D9
:10914000005B434631462046FFF714FF0C4B314687
:10915000CDE900533A4643462046FFF70BFF013660
:1091600054E74FF0FF32E3E70133152B7FF478AF7C
:109170004FF0FF327FE700BF8C0100203DAE0008BA
:1091800059AD00083015002038B5074C074DAC42EA
:1091900003D3074B00221A7038BD6288D4E901015D
:1091A00043F0E1FD1434F2E790010008A406000842
:1091B0003015002038B5074C074DAC4203D3074BA0
:1091C00001221A7038BD6288D4E9011043F0CBFD4A
:1091D0001434F2E790010008A406000830150020BE
:1091E00008B5202143F0FAFD0346184623B1027862
:1091F000202A03F10103F8D008BD38B51C4B1B78B9
:10920000044600F1250593B104221A49203043F0A9
:109210000CFE28461422184943F007FE012384F867
:109220003A30164B1B7873B984F83B3038BD28466A
:109230001422134943F0F9FD012384F83A300F4B0F
:109240001B78002BF0D00F4B186859689A68DD68BE
:10925000E56020606160A260DD69186959699A69FA
:10926000A2610123E5612061616184F83B3038BD72
:1092700096550020645500204C550020975500203D
:10928000044405086C550020014B186824F054B8BC
:10929000D417002038B52E22002143F088FD034664
:1092A000642440F2DC5040F21A4140F26C7240F209
:1092B00002251C745882132419209982DA8240F204
:1092C000753140F643021D839C760E2502241877E3
:1092D000D9830A201E211A84012283F82B0083F8E7
:1092E0002C1083F8225083F82A401A729A7383F85C
:1092F000252083F8292019460248BDE838402DF082
:10930000F1BA00BF0C44050838B5002405460480B6
:1093100021462846013424F083FB082CF8D1002193
:1093200085F8E210A5F8E410A5F8E610A5F8E81015
:10933000A5F8EA10A5F8EC10A5F8EE10A5F8F010C5
:10934000A5F8F2102846BDE8384024F02BBB2DE9E3
:10935000F341134D134F002305F80C3F044600EB77
:109360008106B44203D1104802B0BDE8F08139460D
:10937000284643F024FD2146684643F03CFD4FF06B
:1093800000082021684643F029FD28B9694628468F
:1093900043F015FD0434E4E780F80080F1E700BFF6
:1093A00030150020713305083C150020014B18686A
:1093B0000BF030BADC18002010B500210446012063
:1093C0000AF024FF207010BD38B500240472451E39
:1093D000E1B202200AF01AFF0134082C05F8010F4F
:1093E000F6D138BD08B5838940F2E93300E0A3B176
:1093F0000289013B12F0020F9BB2F8D089B2818141
:1094000040F2E93300E043B10289013B12F0010F61
:109410009BB2F8D08089C0B208BD0FF04FF8C0B23F
:1094200008BDF8B584894FF6FF764FF47A7413F1CE
:10943000FF3326D319B30F78013101E0B44218D0BD
:109440000589013CAD07A4B2F8D5BCB284814FF4C4
:109450007A7402E0BCB2B4420BD00589ED0704F186
:10946000FF37F7D58589ADB2002AE0D015700132FB
:10947000DDE70FF023F8003018BF0120F8BDFF270B
:10948000DEE70120F8BD38B5054640683B4A038851
:1094900023F040031B041B0C0380038823F03803D4
:1094A0001B0490424FEA134305D002F580629042BC
:1094B00001D043F0080303800388AA6843F0400307
:1094C000038012B1136892885A83838940F2E9338A
:1094D00001E0002B43D00289013B12F0020F9BB246
:1094E000F7D0F523838140F2E93301E0002B36D039
:1094F0000289013B12F0010F9BB2F7D08389838967
:1095000040F2E93300E00BB30289013B12F0020F95
:109510009BB2F8D0FF23838140F2E93300E0ABB186
:109520000289013B12F0010F9BB2F8D08489E4B2AA
:10953000AB6813B11A689B881383712C19D008D9B2
:10954000AC2C14D0AF2C0ED1092038BD0EF0B6FFD4
:10955000EEE7122C0FD0702C07D1052038BD0EF08D
:10956000ADFF6868CBE7732C03D0002038BD07201F
:1095700038BD062038BD082038BD00BF0038004087
:10958000F0B5876983B0064617B13B68BA885A833D
:109590007069DFF8A8E08389C3244FF47A734FF031
:1095A000060C6D464FF6FF710EF1010E03E0013B14
:1095B0009BB28B4220D002899207F8D5A3B2838157
:1095C0004FF47A7302E0A3B28B4215D00289D2071E
:1095D00003F1FF34F7D5828992B20DB12A700135BB
:1095E000BCF1000F0BD00CF1FF3CFF24BEF1000FCB
:1095F000E1D09EF80040D7E70EF060FFB76917B1E1
:109600003B68BA881A839DF805009DF801509DF8C3
:1096100002109DF803409DF804209DF8063041EAB1
:10962000052143EA002342EA04220120A6F8501053
:10963000A6F85220A6F8543003B0F0BDB4CE04080A
:10964000037C022B01D000207047F0B5836983B002
:1096500013B11A689B8853830446406940F2E9338A
:10966000828901E0002B60D00289013B12F0020FD9
:109670009BB2F7D0C323838140F2E93301E0002B92
:1096800053D00289013B12F0010F9BB2F7D08389BE
:109690008389038999074FF005076E464FF47A7264
:1096A0004FF0FF0C4FF6FF7506D4531E9BB2D2B19C
:1096B0001A4603899907F8D5A0F80CC04FF47A73BD
:1096C00002E08BB2AB420ED00289D20703F1FF3128
:1096D000F7D5828992B20EB1327001367A1E27B167
:1096E00017461A46E5E70EF0E9FEA36913B11A68BA
:1096F0009B8813839DF804009DF800609DF801107D
:109700009DF802509DF803209DF8053041EA06219E
:1097100043EA002342EA05220120A4F85010A4F8ED
:109720005220A4F8543003B0F0BD0EF0C7FE6069BB
:10973000AEE7037B022B01D000207047F0B54369F0
:1097400083B013B11A689B8853830446006940F2C2
:10975000E933828901E0002B5DD00289013B12F0E0
:10976000020F9BB2F7D0BB23838140F2E93301E0C3
:10977000002B50D00289013B12F0010F9BB2F7D0B1
:1097800083898389038999074FF005076E464FF453
:109790007A724FF0FF0C4FF6FF7506D4531E9BB242
:1097A000D2B11A4603899907F8D5A0F80CC04FF436
:1097B0007A7302E08BB2AB420ED00289D20703F17A
:1097C000FF31F7D5828992B20EB1327001367A1E1E
:1097D00027B117461A46E5E70EF070FE636913B12C
:1097E0001A689B8813839DF804009DF800609DF81B
:1097F00001109DF802509DF803209DF8053041EAC4
:10980000062143EA002342EA052201206183A28364
:10981000E38303B0F0BD0EF051FE2069B1E72DE9FE
:10982000F04F89B090F861300390002B40F0B38383
:10983000039B93F85830072B00F0A4831823CDE93D
:109840000433039BC14CC24EDFF81083C14DDFF8D7
:109850001093C14F1033184680226B2102930EF0F3
:1098600049FF642301930AF05FFD4FF0010A4FF0B6
:10987000100E4FF47A7CD8F80430C3F30803002BA1
:1098800040F06083EFF31183002B40F05B8323688B
:10989000A96822689342FAD13A689142F7D83268AF
:1098A0000CFB02FBABEB0101B1FBF2F10CFB031370
:1098B0001B1AB3F57A7FDED3019B013B0193D2D112
:1098C000072268210298DFF89482A24DDFF8909277
:1098D000A14F0EF00FFF642301930AF025FD4FF016
:1098E000010A4FF0100E4FF47A7CD8F80430C3F31D
:1098F0000803002B40F00883EFF31183002B40F0A6
:1099000003832368A96822689342FAD13A68914296
:10991000F7D832680CFB02FBABEB0101B1FBF2F1B3
:109920000CFB03131B1AB3F57A7FDED3019B013BBB
:109930000193D2D11A466B210298DFF82082854D1F
:10994000DFF81C92844F0EF0D5FE642301930AF0D9
:10995000EBFC4FF0010A4FF0100E4FF47A7CD8F870
:109960000430C3F30803002B40F0B082EFF31183FF
:10997000002B40F0AB822368A96822689342FAD199
:109980003A689142F7D832680CFB02FBABEB01015D
:10999000B1FBF2F10CFB03131B1AB3F57A7FDED394
:1099A000019B013B0193D2D101226B210298DFF888
:1099B000AC81684DDFF8A891674F0EF09BFE0F2336
:1099C00001930AF0B1FC4FF0010A4FF0100E4FF472
:1099D0007A7CD8F80430C3F30803002B40F050829F
:1099E000EFF31183002B40F04B822368A9682268B3
:1099F0009342FAD13A689142F7D832680CFB02FBE5
:109A0000ABEB0101B1FBF2F10CFB03131B1AB3F535
:109A10007A7FDED3019B013B0193D2D1059A029854
:109A2000DFF838814B4DDFF838914B4F1B210EF09A
:109A300061FE0F2301930AF077FC4FF0010A4FF00B
:109A4000100E4FF47A7CD8F80430C3F30803002BCF
:109A500040F0F881EFF31183002B40F0F38123688D
:109A6000A96822689342FAD13A689142F7D83268DD
:109A70000CFB02FBABEB0101B1FBF2F10CFB03139E
:109A80001B1AB3F57A7FDED3019B013B0193D2D140
:109A9000049A0298DFF8C4802E4DDFF8C4902E4F50
:109AA0001C210EF027FE0F2301930AF03DFC4FF01E
:109AB000010A4FF0100E4FF47A7CD8F80430C3F34B
:109AC0000803002B40F0A081EFF31183002B40F03E
:109AD0009B812368A96822689342FAD13A6891422F
:109AE000F7D832680CFB02FBABEB0101B1FBF2F1E2
:109AF0000CFB03131B1AB3F57A7FDED3019B013BEA
:109B00000193D2D1039A92F85B30032B00F2388292
:109B100092F85E20012A0BD0022A40F03182039B8A
:109B200093F8633003F0FB03022B0CBF00220722E3
:109B30001A210298DFF82480064DDFF82490064FA2
:109B40000EF0D8FD0F2301930CE000BF5457002006
:109B50005857002010E000E05C57002000ED00E0C6
:109B6000505700200AF0E0FB4FF0010A4FF0100EB2
:109B70004FF47A7CD8F80430C3F30803002B40F08C
:109B80002581EFF31183002B40F020812368A96821
:109B900022689342FAD13A689142F7D832680CFBB6
:109BA00002FBABEB0101B1FBF2F10CFB03131B1A3F
:109BB000B3F57A7FDED3019B013B0193D2D1039BA6
:109BC000029893F86020BD4FBD4DDFF8FC82DFF8AE
:109BD000F49219210EF08EFD642301930AF0A4FB88
:109BE0004FF0010A4FF0100E4FF47A7C7B68C3F3FC
:109BF0000803002B40F0CC80EFF31183002B40F0E2
:109C0000C7802368A96822689342FAD1D9F8002056
:109C10009142F6D832680CFB02FBABEB0101B1FBC1
:109C2000F2F10CFB03131B1AB3F57A7FDED3019B11
:109C3000013B0193D2D1102237210298DFF87C82B8
:109C40009F4DDFF884929F4F0EF054FD0F23019338
:109C50000AF06AFB4FF0010A4FF0100E4FF47A7CC5
:109C6000D8F80430C3F30803002B73D1EFF311834A
:109C7000002B6FD12368A96822689342FAD13A6811
:109C80009142F7D832680CFB02FBABEB0101B1FB50
:109C9000F2F10CFB03131B1AB3F57A7FE0D3019B9F
:109CA000013B0193D4D10298DFF81082844DDFF894
:109CB0001892844F012238210EF01CFD0F230193CE
:109CC0000AF032FB4FF0010A4FF0100E4FF47A7C8D
:109CD000D8F80430C3F30803F3B9EFF31183DBB909
:109CE0002368A96822689342FAD13A689142F7D86A
:109CF00032680CFB02FBABEB0101B1FBF2F10CFB98
:109D000003131B1AB3F57A7FE2D3019B013B019346
:109D1000D6D109B0BDE8F08FEFF311818EF3128830
:109D2000D5F808B02B68DB0344BFC9F800A0D5F80C
:109D300008B02368D9F80020C9B281F311883168CE
:109D400013440CFB01F2A2EB0B02B2FBF1F20CFB91
:109D50000323D6E7EFF311818EF31288D5F808B00C
:109D60002B68DA0344BFC9F800A0D5F808B023680F
:109D7000D9F80020C9B281F31188316813440CFB73
:109D800001F2A2EB0B02B2FBF1F20CFB032382E720
:109D9000EFF311818EF31288D5F808B02B68DB033E
:109DA00044BFC8F800A0D5F808B02368D8F8002050
:109DB000C9B281F31188316813440CFB01F2A2EBA4
:109DC0000B02B2FBF1F20CFB03232CE7EFF3118142
:109DD0008EF31288D5F808B02B68DA0344BFC9F8AF
:109DE00000A0D5F808B02368D9F80020C9B281F3E3
:109DF0001188316813440CFB01F2A2EB0B02B2FB99
:109E0000F1F20CFB0323D2E6EFF311818EF31288FB
:109E1000D5F808B02B68DB0344BFC9F800A0D5F81B
:109E200008B02368D9F80020C9B281F311883168DD
:109E300013440CFB01F2A2EB0B02B2FBF1F20CFBA0
:109E4000032357E6EFF311818EF31288D5F808B09B
:109E50002B68DA0344BFC9F800A0D5F808B023681E
:109E6000D9F80020C9B281F31188316813440CFB82
:109E700001F2A2EB0B02B2FBF1F20CFB0323FFE5B4
:109E8000EFF311818EF31288D5F808B02B68DB034D
:109E900044BFC9F800A0D5F808B02368D9F800205D
:109EA000C9B281F31188316813440CFB01F2A2EBB3
:109EB0000B02B2FBF1F20CFB0323A7E500ED00E07F
:109EC00010E000E05C57002050570020EFF31181B4
:109ED0008EF31288D5F808B02B68DA0344BFC9F8AE
:109EE00000A0D5F808B02368D9F80020C9B281F3E2
:109EF0001188316813440CFB01F2A2EB0B02B2FB98
:109F0000F1F20CFB032347E5EFF311818EF3128886
:109F1000D5F808B02B68DB0344BFC9F800A0D5F81A
:109F200008B02368D9F80020C9B281F311883168DC
:109F300013440CFB01F2A2EB0B02B2FBF1F20CFB9F
:109F40000323EFE4EFF311818EF31288D5F808B004
:109F50002B68DA0344BFC9F800A0D5F808B023681D
:109F6000D9F80020C9B281F31188316813440CFB81
:109F700001F2A2EB0B02B2FBF1F20CFB032397E41C
:109F8000019AD5E5039B93F85D30002B41D1102356
:109F9000CDE9043355E41C09013C032C03F00F0305
:109FA00000F2A7811D4A32F8140040FA03F2D207EA
:109FB00040F19F814FF0010B0BFA03F3013B184076
:109FC00041F084F9164B174A1B5D184412EBC0058B
:109FD00000F08F8152F83030AA88186910407FF461
:109FE00027ACB2FA82F1039E0F4FE871C1F11F0155
:109FF0004FF0200C85F806C0F7604F1C0BFA01F4F7
:10A0000016D1002C3FF414AC084A13681C431460AA
:10A010000EE410211823CDE9041312E444180508B6
:10A020004C180508B8550020798A0008003C01400A
:10A0300003F13F4000F57E00DFF878C2994FDFF86A
:10A040007882800A06F10C091CF800E048F821909B
:10A050000EF01F0A07EB010C4FEA5E1EBEF1030F64
:10A060000BFA0AF69CF868C000F04881BEF1040FB4
:10A0700000F05681BEF1020F00F04981D6070BD5E2
:10A080001E6826F003061E601E681E60DE6826F04D
:10A090000306DE60DE68DE6096070BD51E6826F0DC
:10A0A0000C061E601E681E60DE6826F00C06DE6070
:10A0B000DE68DE6056070BD51E6826F030061E608F
:10A0C0001E681E60DE6826F03006DE60DE68DE6038
:10A0D00016070BD51E6826F0C0061E601E681E609F
:10A0E000DE6826F0C006DE60DE68DE60D6060BD5D0
:10A0F0001E6826F440761E601E681E60DE6826F428
:10A100004076DE60DE68DE6096060BD51E6826F4BB
:10A1100040661E601E681E60DE6826F44066DE60D3
:10A12000DE68DE6056060BD51E6826F440561E60BB
:10A130001E681E60DE6826F44056DE60DE68DE6063
:10A1400016060BD51E6826F440461E601E681E606B
:10A15000DE6826F44046DE60DE68DE60D6050BD59C
:10A160001E6826F440361E601E681E60DE6826F4F7
:10A170004036DE60DE68DE6096050BD51E6826F48C
:10A1800040261E601E681E60DE6826F44026DE60E3
:10A19000DE68DE6056050BD51E6826F440161E608C
:10A1A0001E681E60DE6826F44016DE60DE68DE6033
:10A1B00016050BD51E6826F440061E601E681E603C
:10A1C000DE6826F44006DE60DE68DE60D6040BD56D
:10A1D0001E6826F040761E601E681E60DE6826F04F
:10A1E0004076DE60DE68DE6096040BD51E6826F0E1
:10A1F00040661E601E681E60DE6826F04066DE60F7
:10A20000DE68DE6056040BD51E6826F040561E60E0
:10A210001E681E60DE6826F04056DE60DE68DE6086
:10A2200016040BD51A6822F040421A601A681A60A8
:10A23000DA6822F04042DA60DA68DA60C9B201F026
:10A24000FC0606F1804606F59C3601F00301B26873
:10A250008B000F21994022EA0102B260B168124AD4
:10A26000C0B200FA03F30B43B360546111680F4EA0
:10A270000F48E3431940116051681940516011685B
:10A2800021431160916819409160D1680B40D360FF
:10A2900033682343336010F80C30F02B7FF6B1AEF7
:10A2A0000CE000BF54CE0408003C0140083C0140D3
:10A2B000C817002024180508881700206744F023D9
:10A2C00097F8782000F80C308DF81C20002303222A
:10A2D000012407A88DF81E308DF81F408DF81D2031
:10A2E0001AF006FBAB88B3FA83F3C3F11F039C405B
:10A2F00087E6039A0F4BD360FFF79ABADFF83880EE
:10A30000D8F840E046EA0E06C8F84060B6E6DFF846
:10A310002880D8F844E046EA0E06C8F84460ADE666
:10A32000DFF814E0DEF8308046EA0806CEF8306048
:10A33000A4E600BF798A00080038024042697B49E0
:10A34000138823F040032DE9F04F1B041B0C1380EE
:10A35000138883B023F038031B048A4201904FEA2C
:10A36000134300F0D88001F580618A420CBF282198
:10A3700030210B431380138843F04003138009F00E
:10A38000D3FF044609F0D0FF8442FBD0019C204655
:10A39000FFF745FAA36913B11A689B885383019BA1
:10A3A000586940F2E933828902E0002B00F0B8805E
:10A3B0000289013B12F0020F9BB2F6D06A2383811F
:10A3C00040F2E93302E0002B00F0AA800289013B51
:10A3D00012F0010F9BB2F6D08389838940F2E933F2
:10A3E00002E0002B00F099800289013B12F0020F7D
:10A3F0009BB2F6D01023838140F2E93302E0002BB8
:10A4000000F08B800289013B12F0010F9BB2F6D065
:10A410008389019B9B6913B11A689B88138364230A
:10A42000434CDFF81891DFF81881424DDFF814A192
:10A43000414E009309F078FF4FF47A774FF0100CFB
:10A440004FF0010ED8F80430C3F30803002B43D1BA
:10A45000EFF31183002B3FD12368A9682268934250
:10A46000FAD132689142F7D8D9F8002007FB02FBF5
:10A47000ABEB0101B1FBF2F107FB03131B1AB3F5C0
:10A480007A7FDFD3009B013B0093D3D1019B274907
:10A490005A69138823F040031B041B0C1380138894
:10A4A00023F038031B048A424FEA134305D001F519
:10A4B00080618A4201D043F008031380138843F07F
:10A4C0004003138009F030FF044609F02DFF844259
:10A4D000FBD003B0BDE8F08FEFF311818CF312884D
:10A4E000D5F808B02B68DB0344BFCAF800E0D5F804
:10A4F00008B02368DAF80020C9B281F31188D9F8CE
:10A500000010134407FB01F2A2EB0B02B2FBF1F2C5
:10A5100007FB0323B2E728212BE70DF0CFFF78E7F5
:10A520000DF0CCFF019B586957E700BF0038004091
:10A530005457002010E000E05C57002058570020DE
:10A5400000ED00E05057002008B501201AF0B0F9E6
:10A55000174A936803F00C03042B1ED0082B18D164
:10A5600051685368490203F03F0319D452681148F7
:10A57000B0FBF3F0C2F3881300FB03F00C4B0E4A60
:10A580005B68C3F3014301335B00B0FBF3F0106081
:10A5900008BD094B074A1A6008BD074B186008BD83
:10A5A000B0FBF3F05368C3F3881300FB03F0E5E757
:10A5B000003802400024F400706200202DE9F84FBA
:10A5C000037C02681F2B86BF203B51681168202244
:10A5D00002FA03F30B4214BF012300230BB9BDE8B9
:10A5E000F88F4569824F044609F09EFE4FF4B2731E
:10A5F00003FB057380461A7C002A35D17D495A68D1
:10A600000978D2F80090D1B9D3F8D81058890A68DF
:10A6100022F001020A60B9F80C3023EA0003A9F81D
:10A620000C30754B1B78002B32D1237C21681F2BFB
:10A6300013D8202202FA03F38B60BDE8F88F526929
:10A64000136823F001031360B9F80C3023F480730E
:10A650001B041B0CA9F80C30E3E7203B202202FA74
:10A6600003F3CB60BDE8F88FD3F8D86063485F8907
:10A6700001225A7431685A680368156821F0010193
:10A680003160AA89013322EA0702AA810360CCE77C
:10A690004FF4B27303FB0573594AD3F8D86033689B
:10A6A00023F0010333600023336096427360B3608C
:10A6B000F36033614FF0210373617AD0514B9E42B6
:10A6C00072D0514B9E4278D0504B9E427AD0504B24
:10A6D0009E427CD04F4B9E427DD04F4B9E427ED0BF
:10A6E0004E4B9E427FD0304619F0FCFF4FF4B27AB9
:10A6F0000AFB05FA07EB0A0501232B74D5F8DCB039
:10A7000009F012FE0AF18C013944CBF82C014846BD
:10A710001AF026F9D5E92B70D5F89830D5E92D1225
:10A720003B4303430B431343D5F8BC20D5F8CC700F
:10A7300030683B491343D5F8C0201343D5F8D020E7
:10A740003B43014013430B430022C5F8A420336070
:10A750007269D5F8C430D5F8A81022F0070CD5F8E6
:10A76000C820D5E92770134343EA0C037361716075
:10A77000B760F0603268D5F8D83095F8D4006968D1
:10A7800042F01002326058601A68096842F0010213
:10A790001A608B896A8913438B8109F0C5FD214BAF
:10A7A000A0EB0800186040E74FF4746243F8202CD7
:10A7B0009CE71D4B3D229A6098E74FF4741243F8D2
:10A7C000382C93E74FF0746243F8502C8EE7174A09
:10A7D00043F8642C8AE7164A43F87C2C86E7154A2E
:10A7E00043F8942C82E74FF03D5243F8AC2C7DE7C0
:10A7F000CC63002034140010301400100C1C002016
:10A8000010600240286002404060024058600240F0
:10A810007060024088600240A0600240B860024060
:10A820003F801CF01C000010006002403D00002032
:10A83000400F002000003D20024B014618680DF03B
:10A84000B7BF00BFD017002038B5064D441E14F81E
:10A85000011F286819B9BDE838400DF09BBF0DF005
:10A86000A7FFF4E7D01700200048EDE7C540050832
:10A8700008B5FFF7E9FFBDE80840F5E710B5044665
:10A880000348FFF7E1FF2046BDE81040F0E700BFB6
:10A8900009310508024A136823EA00001060704776
:10A8A000E8780020DFED2B7AB4EEE70AF1EE10FA3B
:10A8B0004ADDDFED296A9FED297A01E0B0EE670AF3
:10A8C000B4EEC70AF1EE10FA70EE667AF6DC9FED90
:10A8D000247AF4EEC77AF1EE10FA38D5DFED1E6A6D
:10A8E0009FED207A01E0F0EE407AF4EEC77AF1EEC7
:10A8F00010FA37EEA60AF6D4DFED1B7AB4EEE70ABB
:10A90000F1EE10FA14DDDFED137A37EEC00A60EED7
:10A91000006A9FED166A9FED167ADFED167AA6EEB5
:10A92000867A20EE266AE6EE877AA6EE270A704738
:10A93000DFED117AB4EEE70AF1EE10FA44BFDFED75
:10A94000087A37EEC00AE2E7F0EE407ABFE7B0EEF1
:10A95000670AD1E7DB0F4940DB0FC940E4CB164162
:10A96000DB0F49C0E4CB16C1DB0FC93F92E741B909
:10A970009730083C15A82ABEDB0FC9BFF0EEC07A9D
:10A98000B0EEE07AB4EEE77AF1EE10FAB4BFB0EED2
:10A99000676AB0EE476AB5EE406AF1EE10FA46D04B
:10A9A000B4EEE77AF1EE10FA8CBFF0EE675AF0EEF3
:10A9B000475AC5EE866A9FED1F3A9FED1F6A9FEDCD
:10A9C0001F4A9FED1F5ADFED1F3ADFED1F4ADFEDF3
:10A9D0001F5AA6EEC36AE6EEA34AA6EE864AB7EE73
:10A9E000006AA6EE845AA6EEA46AE6EE855AC5EE83
:10A9F000866AB4EEE77AF1EE10FA48BFDFED147A1A
:10AA0000F5EEC00A48BF77EEE66AF1EE10FA48BFED
:10AA1000DFED107AB5EEC00A48BF77EEE66AF1EED8
:10AA200010FA48BFF1EE666AB0EE660A7047DFEDD5
:10AA3000076ADEE739094E3DE3B59E3E88FA163EC9
:10AA400045FE7F3F99FB243F69A2163EA7DFA8344D
:10AA5000DB0FC93FDB0F4940DFED317A30EE277A5B
:10AA6000FDEEC76A16EE903A2033402B02D99FEDD7
:10AA70002D0A7047B4EEE70AF1EE10FA4DDD9FEDB6
:10AA80002A6ADFED2A6A01E0B0EE677AB4EEE67A70
:10AA9000F1EE10FA77EE467AF6DC9FED257AF4EEC9
:10AAA000C77AF1EE10FA35D5DFED1F6A9FED217AF6
:10AAB00001E0F0EE407AF4EEC77AF1EE10FA37EEEC
:10AAC000A60AF6D4DFED167AB4EEE70AF1EE10FA34
:10AAD0001BDCDFED197AB4EEE70AF1EE10FA44BFA1
:10AAE000DFED137A37EEC00A60EE006A9FED136A5D
:10AAF0009FED137ADFED137AA6EE867A20EE266AB2
:10AB0000E6EE877AA6EE270A7047DFED0F7A37EE7A
:10AB1000C00AE9E7B0EE670AD4E7F0EE477ABCE78F
:10AB2000DB0FC93F00000000DB0FC940E4CB16413A
:10AB3000DB0F49C0E4CB16C1DB0FC9BF92E741B9B7
:10AB40009730083C15A82ABEDB0F494010B44C09C9
:10AB5000012250F8243001F01F0102FA01F123EA2A
:10AB6000010340F824305DF8044B704710B44C09E1
:10AB7000012250F8243001F01F0102FA01F10B43C9
:10AB800040F824305DF8044B70474B0901F01F0179
:10AB900050F82320012303FA01F1114214BF184693
:10ABA000002070472DE9F043002489B006460D4689
:10ABB0001F46A04605E025290CD030460134A847A1
:10ABC000039A531C039311780029F4D1204609B04D
:10ABD000BDE8F083931CCDE903385078302842D08B
:10ABE000A0F13003DBB2092B4FF0000945D96C28E6
:10ABF0002AD0642873D019D9732858D063D97528FE
:10AC000040F0828007F1040C386805AB00220A216D
:10AC10006746FDF7A5FC05AB049A009329464B4611
:10AC20003046FDF7A9FA039A0444CAE725283CD028
:10AC300051D958286BD06328C2D139783046A847FB
:10AC400004370134039ABCE7039B5A1C03921B7818
:10AC5000642B52D016D8252B27D064D9582B18D066
:10AC6000632BEAD0ADE7D31C03939078A0F13003B7
:10AC7000DBB2092B4FF00109B9D804AA03A933F0BC
:10AC80007DFBB4E7732B12D051D9752B2DD0782BC7
:10AC900097D1A3F15802B2FA82F23868520905AB93
:10ACA00010210437FDF75CFCB5E7252185E73B68FB
:10ACB000049A0093294600233046FDF75DFA0437D5
:10ACC0000444039A7DE76E287FF47AAF039A3B68C9
:10ACD00004371C6075E700283FF478AF70E73868E8
:10ACE00005A9FDF707FC043795E7386805AB002296
:10ACF0000A21FDF735FC04378DE73B1D386805A9AF
:10AD00001F46FDF7F7FB86E778287FF459AFA0F1DF
:10AD10005802B2FA82F23868520905AB1021FDF7E9
:10AD20001FFC043777E7002B3FF450AF49E76E2B49
:10AD3000CDD046E710B5064C0B46024605492068C3
:10AD4000FFF730FF2068BDE810400DF023BD00BFC5
:10AD5000D0170020E98E00080CB4C30607B500D553
:10AD600061B905A904980191FFF7E4FFFFF77CFDA5
:10AD7000012003B05DF804EB02B070470020F8E753
:10AD800070B506463FF05CFD114C054690B11122AE
:10AD90000021204642F00BF82A460E49304642F088
:10ADA00032F838B1102D2A46314628BF10222046ED
:10ADB00042F03BF82378064A002B08BF0121054BDF
:10ADC0001CBF002113460120034ABDE87040C3E7C1
:10ADD000F8450020A6830508F232050870B505463F
:10ADE0003FF02EFD044690B1112200210F4841F0A2
:10ADF000DEFF22460E49284642F005F838B1102CF5
:10AE00002246294628BF1022084842F00EF8094B76
:10AE100013F8112F002A064A06BF0121134600210C
:10AE2000054A0120BDE8704096E700BF09460020B2
:10AE3000A6830508F84500200E3105080CB407B5B7
:10AE400010F020000BD079B92320FFF7F5FC05A9FD
:10AE500004980191FFF76EFFFFF706FD012003B094
:10AE60005DF804EB02B070470020F8E72DE9F04FE1
:10AE7000354C87B08046354A2378608802EB8303DF
:10AE8000D3F82891FDF7C3FCD0E901A30493304B1C
:10AE90001B7813B9CDF810A09A4608F04003DFF8EC
:10AEA000BCB005930026A379002B08BF01239E4266
:10AEB00006DB284B08349C42DDD107B0BDE8F08F9B
:10AEC0006279237906FB0323049A0136D55CBAF133
:10AED000000F11D1B5FA85F77F090DB305F00F0307
:10AEE0002D0940350293CDE900654B465A46394657
:10AEF0004046FFF731FFD6E71AF80330EA1A574207
:10AF00005741C3B103F00F021B0940330292CDE950
:10AF100000635A464B4639464046FFF78FFFDCE751
:10AF2000059B002BBFD100964B460B4A3946404645
:10AF3000FFF712FFB7E700964B46074A39464046EF
:10AF4000FFF77CFFC9E700BFD4CE040854CE040845
:10AF5000301500207CCF0408343105081E31050867
:10AF60002DE9F04F002687B0824693460D461446E1
:10AF700037464FF019094FF46178BBF1000F1DD02F
:10AF800006222146284641F0DFFE63791B4A19FB61
:10AF900003830593237919FB03830493E3780393D5
:10AFA000A378029363780193B0FA80F72378009333
:10AFB0007F09334639465046FFF740FF6B790F4A09
:10AFC00019FB038305932B7919FB03830493EB7817
:10AFD0000393AB7802936B78019315F8063B0093CB
:10AFE0003946334650460136FFF7B6FE0A2E04F1C5
:10AFF0000604C2D107B0BDE8F08F00BF4831050894
:10B000002DE9F047344F8CB006468946154600249A
:10B01000C4EBC40309EB030210689188927908908D
:10B0200040F30748ADF824108DF82620B8F1000F42
:10B030004AD0002D4DD02B440AA918689A880A904E
:10B040009B79ADF82C2008A807228DF82E3041F00E
:10B050007BFE9DF82E3006939DF92D3005939DF9CA
:10B060002C3004939DF82B3003939DF92A300293E2
:10B07000B0FA80FA9DF8293001934FEA5A1A9DF8E8
:10B08000283000933A46234651463046FFF7D6FE15
:10B090009DF8263006939DF9253005939DF92430BF
:10B0A00004939DF82330CDE902839DF8213001936C
:10B0B0009DF8203000933A462346514630460134ED
:10B0C000FFF74AFE102CA3D10CB0BDE8F047FFF704
:10B0D000CBBBAA46DCE700BF613105082DE9F04F84
:10B0E000DFF818B189B08046894616460D461446E9
:10B0F0000027002E6DD00C222146284641F024FE68
:10B1000094F90B30049394F90A300393B4F908309E
:10B110000293B4F906300193B0FA80FAB4F904301E
:10B1200000934FEA5A1A3B465A4651464046FFF7AB
:10B1300085FE95F90B30049395F90A300393B5F920
:10B1400008300293B5F906300193B5F90430009345
:10B150005A463B46514640460137FFF7FDFD082F52
:10B1600005F10C0504F10C04C3D10024DFF890A014
:10B17000254686B30027012303FA07FB325959F805
:10B18000043053403BEA030314BF0123002312EAB7
:10B190000B0F079306D000972B465246079940465F
:10B1A000FFF74CFE59F804301BEA030F06D0009756
:10B1B0002B46524607994046FFF7CEFD01370E2F2A
:10B1C000D9D10135082D04F10C04D2D109B0BDE864
:10B1D000F08FB246ADE73746012359F80420BB4053
:10B1E000134206D000972B46524601214046FFF7F6
:10B1F000B3FD01370E2FEFD1E3E700BF7E31050825
:10B20000963105082DE9F74FDFF864A081468B469B
:10B2100017460E46002447B307EB84080422414634
:10B22000304641F091FDB8F802300193B0FA80F554
:10B2300037F8243000936D09234652462946484684
:10B24000FFF7FCFD738801933BF8243000935246CE
:10B250002346294648460134FFF77EFD042C06F1BB
:10B260000406D8D103B0BDE8F08F3D46EAE700BF41
:10B27000AB3105082DE9F04F834689B092460D4663
:10B28000144600264FF019094FF46178BAF1000F07
:10B2900045D00A222146284641F056FD23890793CE
:10B2A000E388069323790593E3780493A3781D4AF2
:10B2B00019FB03830393637819FB038302932378B9
:10B2C0000193B0FA80F7637900937F0933463946DA
:10B2D0005846FFF7B3FD2B890793EB8806932B792C
:10B2E0000593EB780493AB780E4A19FB0383039321
:10B2F0006B7819FB038302932B7801936B7900938E
:10B300003946334658460136FFF726FD1E2E05F115
:10B310000A0504F10A04B9D109B0BDE8F08F574617
:10B32000D9E700BFBC3105082DE9F04F2E4EDFF8FC
:10B33000C0A087B0814690460D46144602F1280B06
:10B3400095F9022000232949591891F906109142D4
:10B3500045D00833282BF6D108345C4505F10805A3
:10B36000EED107B0BDE8F08F08222146284641F013
:10B37000EBFC627994F9023056F822200492A2790B
:10B3800056F822200392227956F822200292E2787F
:10B3900056F822200192B0FA80F7228800927F09A5
:10B3A000524639464846FFF749FD6A7995F9023019
:10B3B00056F822200492AA7956F8222003922A797C
:10B3C00056F822200292EA7856F8222001922A8822
:10B3D0000092394652464846FFF7BEFCBCE7B8F13A
:10B3E000000FC1D14746E0E7C4FA0408E87900201D
:10B3F000E03105082DE9F04FDFF8DCA087B0814689
:10B4000090460D4614460026B8F1000F61D0062282
:10B410002146284641F098FCB0FA80F720782DF0BC
:10B42000ABFC834660797F092DF0A6FCBBF1000FD1
:10B430001DD09BF80810A27894F803B094F801C0CE
:10B440004FF4617E192313FB02E213FB0BE394F824
:10B4500004E000B1007ACDE90223CDE904E0CDE9B2
:10B46000001C3346524639464846FFF7E7FC287829
:10B470002DF082FC834668792DF07EFCBBF1000F35
:10B480001DD09BF80810AA7895F803B095F801C074
:10B490004FF4617E192313FB02E213FB0BE395F8D3
:10B4A00004E000B1007ACDE90223CDE904E0CDE962
:10B4B000001C3346524639464846FFF74DFC0136DC
:10B4C000142E05F1060504F106049DD107B0BDE870
:10B4D000F08F4746CBE700BFFD31050838B504467D
:10B4E0000D460848FFF7B0F929462046FFF722FC31
:10B4F0000548FFF7A9F9054B1B7813B1044B01224E
:10B500001A7038BD16320508213205082C190020A2
:10B510002D1900200FB407B504A951F8040B0191AF
:10B52000FFF7DCFFFFF7A0F903B05DF804EB04B010
:10B5300070470148EEE700BF253205080FB407B594
:10B5400004A951F8040B0191FFF7C8FF03B05DF89F
:10B5500004EB04B070470FB407B504A951F8040B0D
:10B560000191FFF7E7FBFFF77FF903B05DF804EB0C
:10B5700004B0704713B5324B324C012818BF1C463B
:10B580002378022B55D1A36813B11A689B88538383
:10B59000F5216068FDF726FF01230DF10702002168
:10B5A0006068FDF73EFFA36813B11A689B88138398
:10B5B0009DF807102448FFF7CEFF2378022B3AD1DD
:10B5C000A36813B11A689B8853839A216068FDF7BA
:10B5D00009FF01230DF1070200216068FDF721FF3B
:10B5E000A36813B11A689B8813839DF80710174846
:10B5F000FFF7B1FF2378022B1FD1A36813B11A689C
:10B600009B8853839B216068FDF7ECFE01230DF1BD
:10B61000070200216068FDF704FFA36813B11A68F0
:10B620009B8813839DF807100948FFF794FF02B029
:10B6300010BD0021BEE70021D9E70021F4E700BFDB
:10B64000B80B0010280500103132050844320508F7
:10B650005732050838B50B4C207910F0FD0505D19F
:10B660000948FFF778FF2846FFF784FF2379013B5D
:10B67000012B06D80548FFF76EFF0120BDE83840D2
:10B6800078E738BD703C00206A320508753205083D
:10B69000034B044A04491B681268096803485AE7C7
:10B6A000187AFF1F147AFF1F107AFF1F80320508D7
:10B6B00038B504463FF0C4F80546E0B1104B1B789E
:10B6C00083B110483FF0BCF8A842024604D121469D
:10B6D0000C4841F098FB50B10A4A0B490B48BDE8B1
:10B6E000384017E704222146064841F09EFB084BEC
:10B6F000012283F82D2003490648BDE838402AE797
:10B70000965500206455002094320508A43205089F
:10B7100030150020CE32050838B504463FF090F8C9
:10B720000546E0B1104B1B7883B110483FF088F814
:10B73000A842024604D121460C4841F064FB50B1B6
:10B740000A4A0B490B48BDE83840E3E6142221467B
:10B75000064841F06AFB084B012283F82D2003497B
:10B760000648BDE83840F6E6965500204C550020C6
:10B77000E1320508A432050830150020EC32050836
:10B780000FB407B504A951F8040B0191FFF7D2FAE1
:10B7900003B05DF804EB04B070472DE9F843444B67
:10B7A0001B78002B7ED0434B43481968434E444FCF
:10B7B000DFF84081FFF7CFFE424B43481968FFF79F
:10B7C000CAFE424B42481968FFF7C5FEFFF74CF826
:10B7D0004048FFF74DF84048FFF74AF80025337816
:10B7E000E9B28B4233D8FFF73FF83C4B3C4C9B7897
:10B7F000DFF80491092B0BBF602614264FF00808D0
:10B800004FF020080025274654F8251048460135FA
:10B81000FFF7B6FF4545F7D1FFF726F8DFF8D880E8
:10B82000012407EB840257F8243052F8041C3344F7
:10B830005B1A404693FBF6F1023406FB1131FFF729
:10B840009FFFA542EDDCBDE8F843FFF70DB84FF4CC
:10B85000B27404FB01744046628AFFF791FF237EB5
:10B86000E3B1E06994ED080A70B1DFED1E7AB8EE3D
:10B87000400A20EE270A07EE900AF8EE677A80EE7B
:10B88000270A40F043F800B2642290FBF2F102FB79
:10B8900011021548FFF75FFE0135A0E71348FEF7D8
:10B8A000E7FFF9E71248BDE8F843FEF7E1BF00BF44
:10B8B000301400100C1C0020FA320508A0140010EF
:10B8C000CC630020A00000100A3305081C00001003
:10B8D00021330508363305084E330508B0630020D0
:10B8E0002000001000401C46733305087E33050815
:10B8F0008A330508663305088633050838B50B4BCF
:10B9000003EBC0040D4694F88020094803EB820342
:10B91000D3F82811FFF734FF94F8863023B1691C5F
:10B920000448BDE838402BE738BD00BF54CE0408BA
:10B93000EF7105081637050870B5374C3748FEF724
:10B9400083FF94F82530012B60D13548354EFEF742
:10B950008FFF94F82A3013B194F8273013B194F87C
:10B96000263043B9B6F898502F48FEF76DFF8DBBCF
:10B970002E48FEF77DFF2E482E4DFEF765FF94F80A
:10B98000293005EB8303D3F81C02FFF7E4FDB6F87A
:10B9900094102948FFF7F4FE94F826302BBB274873
:10B9A000FEF766FF2648FEF74FFF94F82A3005EBB6
:10B9B0008305D5F82402FFF7CEFDB6F8961021488E
:10B9C000FFF7DEFE94F82A309BB91F48BDE87040AF
:10B9D000FEF74EBF4FF47A72B5FBF2F102FB115243
:10B9E00092B21A48FFF7B7FDC5E71948FEF740FFC6
:10B9F000D8E794F8273023B91648BDE87040FEF721
:10BA000037BF1548BDE87040FEF732BF1348BDE8A8
:10BA10007040FEF72DBF00BF90780020A6330508C8
:10BA2000BC330508A8140010C3330508DE3305082D
:10BA3000F033050854CE04080634050823340508FD
:10BA4000333405084E34050871340508E833050819
:10BA50002A340508243405082B34050876340508F3
:10BA60007FB50A4B04930A4B03930A4B02930A4B8C
:10BA700001930A4B00930A4A0A4B0B490B48FFF704
:10BA80007FFE07B05DF804EBFEF7EEBEBA340508A2
:10BA9000BF340508C9340508D2340508DE3405086A
:10BAA00004440508FB3A0020843405088F34050857
:10BAB0002DE9F04F6C4BDA7893B09846002A00F0ED
:10BAC000A7806A48FEF7D4FE0025DFF8D4A1DFF88E
:10BAD000D4B10795A94608A9E8B22CF0E5FE9DF877
:10BAE0002830002B6ED0022D40F09F809DED117A02
:10BAF000B5EE407AF1EE10FA00F08E80DFED5C6A70
:10BB0000C6EE877AFDEEE77AF8EEE77AFDEEE77AA1
:10BB100017EE906A9AF80040089B012C7ED996FB9C
:10BB2000F4F41A4602215348FFF72AFE0D9A002A20
:10BB300000F0908041F2883002FB04004FF47A73E9
:10BB4000B0FBF3F00F9B002B00F0868041F28831B0
:10BB500003FB04114FF47A7CB1FBFCF1062D03D0FA
:10BB6000079F0F448144079798F803C0BCF1000F6A
:10BB700074D04FF47A7C0E9FB7FBFCFCCDF810C05C
:10BB80004FF00A0C91FBFCFE0CFB1E11CDE902E10B
:10BB900090FBFCF10CFB1100CDE90010214636486A
:10BBA000FFF7D9FC022D08D19AF80030012B04D9F7
:10BBB000324609995846FFF7CEFC304B03EB85130C
:10BBC00000229A630135172D85D198F80330E3B12F
:10BBD0002B4B2C4819682C4B1A684FF47A73B1FB25
:10BBE000F3F32A4952090968FFF7B5FC0798079B48
:10BBF0000A2293FBF2F302FB130799FBF2F1009781
:10BC000002FB11922248FFF7A6FC13B0BDE8F08FAB
:10BC10002048FEF72DFE57E700267BE7099A1E48CD
:10BC20000221FFF7ADFD344680E7109C5CB107EEC2
:10BC3000904ADFED0F6AF8EE677A86EEA77AFDEE9E
:10BC4000C77A17EE904A089A0A482946FFF798FDE6
:10BC500000266BE7104675E719467FE721460F4837
:10BC6000FFF779FC9EE700BFF43A0020E4340508B2
:10BC700000247449393505085B350508140F002088
:10BC8000F05400208F350508E8540020F4540020BB
:10BC9000AF3505082F350508483505088B350508EB
:10BCA000B48700207F3505082DE9F04F014691B09B
:10BCB00006468648864DFFF74EFC864B8649C3F8FC
:10BCC00000D000232B70854B097840241C7006227D
:10BCD0000123304611F0F0F90A2008F0E5FB2B783B
:10BCE000DBB20C2B40F2ED809DF80C90B9F1FE0F09
:10BCF0002ED0B9F1FF0F15BF0F2415240026012601
:10BD00009C4240F0DE80611EC9B2684619F0CEFF49
:10BD100010AB1C4414F8413C834240F0CE8006F145
:10BD2000FF38B8F1010F9DF80D4013D904F01F073B
:10BD3000650961374C466A48FEF786FD022E71D0D0
:10BD4000013D042D6AD8DFE805F00A5D61696500F0
:10BD50000226D5E79DF80E709DF80F50EBE761487D
:10BD6000FEF786FD6048DFF8D491DFF8D4B1FEF726
:10BD70006BFD00254FF0030A1DF8051048460135FC
:10BD8000FFF7FEFC0C2D55D1FEF76EFD022E5BD0A9
:10BD90006422B4FBF2F102FB11423B46D2B2C9B2BB
:10BDA0005248FFF7D8FB5FFA88F8B8F1010F7BD84B
:10BDB0004F4A504B9DF810104F48504D00290CBF72
:10BDC00011461946FFF7C7FB9DF811104C4B4D4823
:10BDD00000290CBF29461946FFF7BDFB022E63D18F
:10BDE0009DF812404848FEF72FFD9CB3FF2C41D030
:10BDF0000A22B4FBF2F102FB1142D2B24348FFF730
:10BE0000AAFB2AE04248FEF733FDABE74148FEF7C4
:10BE10002FFDA7E74048FEF72BFDA3E73F48FEF7BD
:10BE200027FD9FE700230DF11F008DF83F30FEF73F
:10BE30001FFD97E795FBFAF303EB43039D429BD16C
:10BE40005846FEF701FD97E73A4621463448FFF78A
:10BE500082FBA8E72846FEF70BFD9DF8134031480A
:10BE6000FEF7F2FC54B1FF2C21D021462E48FFF7FB
:10BE700072FB06E02D48FEF7FBFCEEE71F48FEF7DD
:10BE8000F7FC1E4D1E4E294F00240DEB04031A7DB6
:10BE90008AB1FF2A14BF32463A462146244801346B
:10BEA000FFF759FB042CF0D111B0BDE8F08F1F480B
:10BEB000FEF7DEFCE5E72A46EFE71E48FFF72AFB20
:10BEC000F2E71D48FEF7D4FCEEE700BFFD3505089C
:10BED0004E26002040260020A01400104F260020EF
:10BEE0000E36050819360508473605085E3605087A
:10BEF000E6350508DD35050895360508ED350508F4
:10BF0000A7410508AC360508B3360508C73605084D
:10BF10002036050828360508303605083F3605085E
