:020000040800F2
:100000000000012055A10508D5A10508D551030818
:1000100049520308D5A10508D5A105080000000034
:10002000000000000000000000000000D5A105084D
:10003000D5A1050800000000D5A10508A5520308B8
:10004000D5A10508D5A10508D5A10508D5A10508A4
:10005000D5A10508D5A10508AD5F0408D96004083D
:100060009D6004086160040825600408191B0408E9
:10007000091B0408F91A0408E91A0408D51A040827
:10008000C11A0408AD1A0408D5A10508D5A10508B0
:10009000D5A10508D5A10508D5A10508E95F040883
:1000A0004DFC0308D5FC03083DFC0308FDFC0308D8
:1000B000C5FC0308B5FC0308A5FC030831210408AE
:1000C000552104087120040895200408D5A10508CD
:1000D000D5A1050841F6030835F6030829F60308FB
:1000E000715F0408D5A10508D5A105082DFC0308FA
:1000F0005DFC0308D5A1050885FC0308991A0408CE
:10010000D5A10508D5A1050895FC0308D5A10508CA
:100110001DF6030811F60308D5A10508277D02087E
:10012000851A0408711A04085D1A0408491A04089B
:10013000351A040800000000000000000000000064
:1001400000000000000000000000000067870208B7
:10015000211A04080D1A0408F919040805F6030801
:10016000AD1F0408D51F0408D5A10508D5A10508B1
:10017000D5A10508D5A10508000000000000000079
:10018000D5A10508D5A10508D5A10508D5A1050863
:10019000D5A10508D5A1050800000000D5A10508D6
:1001A000000000000000000000000000D5A10508CC
:1001B000D5A10508D5A10508000000000000000039
:1001C000000000000000000000000000000000002F
:1001D000000000000000000000000000D5A105089C
:0801E000A49C050001000000D1
:1001E8001010020090220120DC22012000000000F3
:1001F8001408000825102C0194200120E022012079
:100208000000000000000000190005003020012057
:100218000C24012000000000160800081A000E0037
:10022800F81E012014240120000000001C0800080A
:10023800F8210600EC1D0120242401200000000004
:100248002A08000815007000F41C01202C24012045
:1002580000000000000000002A0060006C1F012060
:100268009C24012000000000F98F00082C001000D9
:100278000C250120FC24012000000000898D0008C5
:100288002B002400402501201C250120000000002F
:10029800598D000829207800E01A012064250120E2
:1002A8000000000000000000F6210C00443001208E
:1002B80078300120000000003008000820320A00D1
:1002C800D4300120C830012000000000E9490108AD
:1002D8001C021000D82B0120E03001200000000093
:1002E8000DD10108281010002C2F0120F03001201A
:1002F80000000000594B01080412020018300120C8
:1003080000310120000000003C0800080F02010035
:100318001430012004310120000000003E080008CC
:1003280001200C00BC280120083101200000000039
:10033800400800080A7028001828012014310120FC
:1003480000000000014B01080EA05C01BC26012042
:100358003C31012000000000459000080101040024
:100368001C26012098320120000000000000000037
:1003780000010400142601209C3201200000000026
:100388004C0800080201030010260120A0320120B9
:1003980000000000F9AA02081F021000783B0120A3
:1003A800683B01200000000005D2010803010A0093
:1003B800346B0120406B0120000000005008000849
:1003C800070202004074012070750120000000003F
:1003D8005A08000803123D001275012074750120A7
:1003E800000000005C08000802000C0014740120E2
:1003F800B475012000000000000000000602100093
:1004080004740120C07501200000000039D80108DB
:10041800F7010600F8730120D075012000000000E4
:100428009A0800081D020200F4730120D875012003
:1004380000000000A00800080A020A0078730120E2
:10044800DC750120000000009DAA020803000100DD
:10045800F0730120E8750120000000000000000092
:100468001A023C00F4760120CC790120000000003B
:10047800B1D7010827000400F0760120087A01208E
:1004880000000000A20800083810010010760120C2
:100498000C7A012000000000A60800080E020200E5
:1004A8001C860120A486012000000000A80800087E
:1004B80016100600247C0120A886012000000000F8
:1004C800AA0800082F10220080860120B08601208B
:1004D80000000000B0080008F5518C00587B01208E
:1004E800D4860120000000005D4F050826100C008E
:1004F8006C870120608701200000000055800308F8
:10050800140003003C820120A487012000000000A1
:10051800D20800080B301A00047B0120A8870120AC
:1005280000000000D60800081F302400207B0120AE
:10053800C487012000000000F0080008050204003C
:10054800D47D0120E887012000000000140900087C
:1005580010020100F0870120EC8701200000000054
:100568001809000823100E00C8B001204CB2012061
:1005780000000000714B01080D004C0028B001205C
:100588005CB2012000000000F1970408040080001C
:1005980098AB0120A8B20120000000000000000074
:1005A8001300040078AB012028B3012000000000EC
:1005B8001C090008FD01240054AB01202CB30120C4
:1005C80000000000A503030818202E0020AB01201E
:1005D80050B30120000000006DD9010806101A0070
:1005E80004AB012080B301200000000075900008D2
:1005F800FB01010000AB01209CB3012000000000BA
:1006080069D10108FC010900CCA90120A0B301208F
:100618000000000071D1010816023F004CA901201A
:10062800ACB301200000000065D1010834001000BF
:100638007CA80120ECB301200000000021900008F4
:100648001102080054A80120FCB30120000000009A
:1006580020090008121204004CA8012004B401204B
:100668000000000028090008122010003CA8012002
:1006780008B40120000000002C090008FF11060042
:1006880074A4012018B4012000000000F5D101086D
:100698000812140080A4012020B4012000000000EA
:1006A80089D10108F901040070A4012034B40120A3
:1006B8000000000045300408130204006CA4012067
:1006C80038B40120000000003C090008FA010200CB
:1006D80014A201203CB4012000000000A5D20108AA
:1006E80002020300049E012040B401200000000023
:1006F800000000000C020400F09D012044B4012019
:1007080000000000E5D1010811000C0079920120D9
:1007180048B401200000000079970408FE01140085
:100728000491012054B401200000000049D10108BF
:10073800220214014CCF01209CD3012000000000AC
:10074800DDD901080C109C00C8CD0120B0D40120CF
:1007580000000000BDAA020801020500ACCD01207E
:100768004CD50120000000000542050800020500E4
:10077800A4CD012054D50120000000000000000095
:100788001B02100078CD01205CD50120000000007C
:1007980035D101081E000600FCCA01206CD50120D5
:1007A80000000000400900081B100C0014C80120BC
:1007B80074D5012000000000854005082102F000E2
:1007C80094C6012080D501200000000029500508AA
:1007D8002312100044CA012070D601200000000036
:1007E80048090008051006003CCA012080D60120EF
:1007F80000000000580900083710280074CA0120BA
:0C08080088D60120000000005E090008F6
:1008140000050000280100007E05EA05B405320049
:10082400E803D00700000401F401140000000000F4
:10083400010000000202000000000000E803640060
:10084400040A000114001E009001000004010100CC
:100854006C1600000000003C0000000000000000D6
:100864000000000000000000000000000000000084
:100874000000000000000000000000000000000074
:100884000000000000000000000000000000000064
:10089400000000000100000001000000000020032F
:1008A400000000000000C40900001900000000005E
:1008B4000000000000000000000000000000000034
:1008C4000000000000000000000000000000030021
:1008D4000000AE014A015E012C0164000200000028
:1008E40001000A019A01001E0A0000000000000035
:1008F40000010000000500000102030000000000E8
:10090400000000000000000000000000008007005C
:100914000000000000000000002040300000000043
:1009240001010101FFFFFFFF00000001000005536A
:1009340037583200000000000000010000000100F0
:1009440000000000000000000000000000000000A3
:100954000000000020000301000020003200C80055
:10096400D0079600140032002800B00440060005A9
:10097400500014000F00080064000100010005008D
:020984000A0067
:10098600D6010000B80B0000010000007D00000049
:10099600FFFFFFFF0000803F000000000000000096
:1009A600000000000000803F000000000000000082
:1009B6000000000000000000000000000000000031
:1009C6000000000000000000000000000000803F62
:1009D6000000000000000000000000000100000010
:1009E600FFFFFFFF0000803F000000000000000046
:1009F600000000000000803F010000003D400108AB
:100A060000000000C0C4050820700020702D720090
:100A1600FFFFFFFF0101000000010101002D202D55
:100A26002D202D2D2D2D202D2D2D00000000000018
:100A360000000000000000000000000000000000B0
:100A460000000000C8DC05080000000000000000EF
:100A560054DD050801000000FA0000000100000056
:100A66000100000001010000BA2801200000F40185
:100A760001000000B82801200000F4010100000078
:100A8600B62801200000F40101000000B42801206E
:100A96000000F40101000000B22801200000F4016A
:100AA60001000000B02801200000F4010100000050
:100AB600AE2801200000F40101000000554801089D
:100AC60019480108C8CA0508A828012005320100EE
:100AD600A6280120E803D00701000000A428012071
:100AE600E803D00701000000A2280120E803D00790
:100AF60001000000A02801201E00B80B0100000024
:100B06009E2801201E00F401010000009C280120FF
:100B16001400640001000000AA2801203200E80346
:100B2600010000009A2801200000C8000100000012
:100B36006E28012000C801006D2801200050010028
:100B46006C280120005A01006A28012002000000DA
:100B560054CB05089C420608A4420608F6B00120BC
:100B66000100C40900000000F4B001200100C4091E
:100B760000000000F2B001200100C40900000000DE
:100B8600F0B001200100C40900000000ECB0012013
:100B96000100C40900000000EEB001200100C409F4
:100BA60000000000EAB001200100C40900000000B6
:100BB600E8B001200100C40900000000352601202C
:100BC60000C801003426012000C801003226012099
:100BD6000100C800010000003026012032003075F7
:100BE600320000002E260120055A05002B26012082
:100BF60000FF01002D26012001000000D401012084
:100C06002926012003000000E03D06082A260120CF
:100C160000FF01002C26012001000000D401012064
:100C26002826012003000000E03D0608C947010808
:100C36007947010860CB0508CC280120EE02CA08D6
:100C460001000000CA28012000C80100640000005D
:100C5600C928012000C8010064000000C82801203E
:100C66000200000024CC05082226012080C1803E17
:100C7600050000002026012080C1803E05000000FE
:100C86001A26012080C1803E05000000182601209A
:100C960080C1803E050000001326012000FF0100F0
:100CA6000C2601206400F401010000000B2601203F
:100CB6000400000030CC05080A26012002000000CE
:100CC60044CC0508AB2601200D00000050CC0508D9
:100CD600A826012000640100A62601203200102764
:100CE6000A000000A52601200D00000050CC0508D2
:100CF600A42601200D00000050CC0508A3260120E3
:100D06000200000088CC050800000000000000007A
:100D160094CC05088C7D01209CFF2C01000000006E
:100D2600FE2A0120E0150C1700000000002B012010
:100D360002000000CCCC0508D82801200100FF7F66
:100D460001000000D728012002000000D8CC0508C9
:100D5600AD26012003000000E8CC0508AC260120E2
:100D660003000000E8CC05084C2801200000E80339
:100D7600010000004A2801200000E80301000000ED
:100D8600482801200000E803010000004628012051
:100D96000000E80301000000442801200000E803E9
:100DA60001000000422801200000E80301000000C5
:100DB6004128012000140100402801200300000002
:100DC600F8CC0508582801200000F40101000000B5
:100DD600562801200000F4010100000054280120DB
:100DE6000000F40101000000522801200000F40177
:100DF60001000000502801200000803E0100000094
:100E06004E2801200000803E0100000081280120BC
:100E160019640100802801200200000008CD0508A1
:100E26007E280120E803D0070A0000007C28012064
:100E3600006401000A00000071280120006401001E
:100E46007028012000640100782801200064010058
:100E56000A00000077280120006401000A00000053
:100E660076280120006401000A0000007B2801208A
:100E7600006401000A0000007A28012000640100D5
:100E86000A00000079280120006401000A00000021
:100E96007528012001FF01000A00000074280120C6
:100EA60001FF01000A0000007328012001FF010074
:100EB6000A000000B62601200000F401010000002F
:100EC600B42601200000F40101000000B226012032
:100ED6000000F40101000000B02601200000F4012A
:100EE60001000000AE2601200000F4010100000010
:100EF60069280120006401006828012000640100BF
:100F0600672801200064010066280120FF0801000F
:100F160065280120016401004546010809460108CB
:100F260014CD050864280120006401006228012010
:100F36001400E8030100000060280120E803307572
:100F46000A0000005E28012000C801005D2801207B
:100F560000C801005C28012000C801005B280120B0
:100F6600006401000A000000982801200000D00754
:100F7600010000009328012000C8010092280120EA
:100F860000C801009128012000C801009628012010
:100F96000000D007010000009028012000C80100D1
:100FA6008F28012000C801008E28012000C80100FA
:100FB600942801200000D007010000008D280120A0
:100FC60000C801008C28012000C801008B280120E0
:100FD60000C80100000000007943010884CD05081F
:100FE600A12601203500000020CE0508A0260120FC
:100FF60000C801009E260120E803D007010000007A
:1010060053544D333246375832000000272601200C
:10101600000301002626012000030100C542010845
:1010260089420108F8CE050845420108F941010840
:1010360068CF0508014301085D5D0108E8CF050892
:101046002426012001030100BD480108914801083A
:10105600DCD2050889410108494101084CD305083D
:101066008F430108795D0108E8D30508695901082D
:101076000000000090D40508E16101081D4901083F
:101086002CD50508E143010800000000ACD5050891
:10109600B94401086544010810D605084945010808
:1010A6000D450108ACD6050881460108C946010868
:1010B6002CD705086F2801200106010029440108E4
:1010C600F543010828D8050885450108395E010859
:1010D60098D80508FD460108C15E010878D90508BB
:1010E6005A28012001030100494301081943010858
:1010F6004CDA0508E948010800000000B0DA0508E6
:10110600C94101082D5D010814DB05080000000037
:1011160000000000A0DB050851470108395F0108FF
:1011260020DC05080626012088136F170100000041
:101136000826012088136F17000000003AB101202D
:10114600000000000000000038B10120000000008F
:101156000000000036B10120000000000000000081
:1011660034B10120000000000000000032B101206F
:10117600000000000000000030B101200000000067
:1011860000000000540D01200000000000000000D7
:10119600DC25012002000000A8DD05080426012048
:1011A60088136F1701000000CC7D012088136F178C
:1011B60000000000DD40010800000000B4DD050865
:1011C600322B01200100000008DE0508CE7D01203B
:1011D6000100000014DE0508C47D012002000000A5
:1011E6001CDE0508000000000000000028DE0508DF
:1011F600C940010800000000C4DE05080000000028
:101206000000000018DF05080000000000000000D4
:1012160088DF0508C87D0120E0150C1700000000D6
:1012260085510208054F0208F594020800000000E7
:1012360000000000F5860208F185020800000000A3
:101246000000000000000000654102085941020844
:101256004D4102084141020805E00108EDDF0108A1
:10126600DDDF010881D201088DDF010835DF0108C5
:1012760071D2010850090120051C020889D2010813
:1012860085D201087DD2010829DA010879D2010840
:1012960075D20108E4E105080068214C1F00000032
:1012A6001C0000001F0000001E0000001F000000C0
:1012B6001E0000001F0000001F0000001E000000AE
:1012C6001F0000001E0000001F000000FF01FF00BD
:1012D600008002021F00000053544D2020202020D1
:1012E60050726F647574202020202020202020203A
:1012F600302E303100C20100000008001A03000041
:1013060000000000000000000000000000000000D7
:101316000000000000000000040309040A060002A1
:10132600000000400100000009072000010104C080
:101336003209040000020806500507058102400034
:10134600000705010240000009022000010104C057
:101356003209040000020806500507058102400014
:10136600000705010240000009022000010104C037
:101376003209040000020806500507058102000232
:1013860000070501020002000A06000200000040F4
:101396000100000009026400030100C032090400D4
:1013A60000010300000009211101000122260007A7
:1013B60005830308000A080B010202020100090462
:1013C60001000102020100052400100105240100AC
:1013D600020424020205240601020705820308000E
:1013E600FF09040200020A0000000705010240008E
:1013F60000070581024000001B5202084F4F0208F9
:10140600F99602080000000095420208F34202081D
:10141600C1420208000000000000000000000000B9
:101426007D420208894202087142020865420208AA
:101436000A06000200000040010000000902220026
:10144600010100E032090400000103010200092144
:10145600110100012226000705830308000A000087
:101466000A060002000000400100000009074300D0
:10147600020104C032090400000102020100052431
:1014860000100105240100010424020205240600BF
:1014960001070582030800FF09040100020A000093
:1014A6000007050102400000070581024000000018
:1014B60009024300020100C03209040000010202D1
:1014C6000100052400100105240100010424020284
:1014D600052406000107058203080010090401001F
:1014E600020A00000007050102000200070581024A
:1014F6000002000009024300020100C03209040094
:10150600000102020100052400100105240100016A
:1015160004240202052406000107058203080010C0
:1015260009040100020A000000070501024000004C
:101536000705810240000000C0EB0508000000001E
:101546000000000000000000000000000000000095
:101556000000000000000000000000000000000085
:10156600120100020000004083042A570002010213
:1015760003010000120100020200004083044057EC
:10158600000201020301000012010002EF02014005
:101596008304563200020102030100000501090519
:1015A600A101A100050109300931093209330935C4
:1015B6000934094009381581257F75089508810287
:1015C600C0C0000009211101000122260000000010
:1015D6000000000060750120080000000000000007
:1015E6005075012008000000E45E0608F05E06085B
:1015F600FC5E0608085F0608145F0608205F0608FA
:1016060044520608C8870608AC8606088C5E06089B
:10161600B0B10608D45E0608D85E0608DC5E060889
:10162600E05E06082C5F0608305F0608345F060891
:10163600F4840608385F06081900C800F401200380
:10164600685E0C00FF010000A00F0000B80B000050
:101656000102FFFF0100000000FFFF000000000084
:10166600AA55050100000101FFFFFFFF8CFB0508DD
:101676000000000000000000000000000000000064
:101686000000000000000000000000000000000054
:1016960000000000FF1FFF1F2D202D2D202D2D2DBA
:1016A6002D202D2D2D2D0000000000000000000033
:1016B60000000000000000AA550B010000AA550713
:1016C600010000AA550902000000AA5503009F0068
:1016D60001000000C0120000788701200000000011
:1016E6009C870120000000000000000004010000AB
:1016F60000070000000000000000000000020000DB
:1017060010000000000000000000000007000000BC
:10171600B00100000200000009000000FFFF000009
:10172600FFFFFFFFB0AD0608000008020503040036
:10173600B8AD060801000802050404007460060836
:101746000200FE0101100300B4460608030014025D
:1017560000030000C0AD060804001F0201000800D7
:10176600C8AD060805001F0201010800154C020855
:1017760029400208DD4B0208F14B0208E13F02084E
:10178600C94B0208B34B0208214202080142020873
:10179600BD41020800000000B14102089D41020857
:1017A600894102080000000000000000000000005F
:1017B600000000007D41020800000000714102089F
:1017C600ED780208B93E0208393E0208213E0208B9
:1017D60010000000614E0208254D0208914E0208D5
:1017E600F9690208559B0208756A02082D4102082C
:1017F6001941020811410208010000000060024080
:10180600106002400000000000000000000B000015
:101816000000000000000000000000000060024020
:10182600286002400100000000000000060C0000D5
:101836000000000000000000000000000060024000
:10184600406002400200000000000000100D000091
:1018560000000000000000000000000000600240E0
:10186600586002400300000000000000160E000051
:1018760000000000000000000000000000600240C0
:10188600706002400400000000000000200F00000D
:1018960000000000000000000000000000600240A0
:1018A60088600240050000000000000026100000CD
:1018B6000000000000000000000000000060024080
:1018C600A060024006000000000000003011000089
:1018D6000000000000000000000000000060024060
:1018E600B86002400700000000000000362F00002C
:1018F600000000000000000000000000006402403C
:1019060010640240000000000000000000380000E3
:10191600000000000000000000000000006402401B
:1019260028640240010000000000000006390000A3
:1019360000000000000000000000000000640240FB
:10194600406402400200000000000000103A00005F
:1019560000000000000000000000000000640240DB
:10196600586402400300000000000000163B00001F
:1019760000000000000000000000000000640240BB
:10198600706402400400000000000000203C0000DB
:10199600000000000000000000000000006402409B
:1019A6008864024005000000000000002644000094
:1019B600000000000000000000000000006402407B
:1019C600A064024006000000000000003045000050
:1019D600000000000000000000000000006402405B
:1019E600B864024007000000000000003646000010
:1019F6000000000000000000000000004CAE0608D9
:101A0600946F0608000000000DAB0208A0860100D6
:101A160004000000000000000000000000000000BC
:101A260000000000000000000000000000000000B0
:101A36000000000000000000000000004CAE060898
:101A46000CB206080000000001080308E8030000C5
:101A5600040000000000000000000000000000007C
:101A66000000000000000000000000000000000070
:101A7600000000000000000000000000EC4906081D
:101A86007085060800000000791900007D0000003E
:101A9600060000000000000000000000000000003A
:101AA6000000000000000000000000000000000030
:101AB6000000000000000000000000009CAD0608C9
:101AC6000000000000000000351E0308E8030000C7
:101AD60003000000000000000000000000000000FD
:101AE60000000000000000000000000000000000F0
:101AF60000000000000000000000000014B206080C
:101B0600000000000000000055FE0008102700003D
:101B160003000000000000000000000000000000BC
:101B260000000000000000000000000000000000AF
:101B3600000000000000000000000000BCAD060828
:101B460000000000DD890008712603085F760000AA
:101B5600050000000000000000000000000000007A
:101B6600000000000000000000000000000000006F
:101B760000000000000000000000000050B0060851
:101B86000000000000000000ED72030810270000AE
:101B9600010000000000000000000000000000003E
:101BA600000000000000000000000000000000002F
:101BB60000000000000000000000000020B206083F
:101BC600000000000000000095010308E803000083
:101BD60005000000000000000000000000000000FA
:101BE60000000000000000000000000000000000EF
:101BF6000000000000000000000000002CB20608F3
:101C0600000000000000000011D40208204E000071
:101C160003000000000000000000000000000000BB
:101C260000000000000000000000000000000000AE
:101C36000000000000000000000000003CB20608A2
:101C46000000000000000000FDD10208204E000048
:101C5600030000000000000000000000000000007B
:101C6600000000000000000000000000000000006E
:101C76000000000000000000000000004CB2060852
:101C860000000000000000008D0C0308400D03005A
:101C9600030000000000000000000000000000003B
:101CA600000000000000000000000000000000002E
:101CB6000000000000000000000000005C5D060857
:101CC600000000000000000011B204081027000008
:101CD60001000000000000000000000000000000FD
:101CE60000000000000000000000000000000000EE
:101CF600000000000000000000000000A86F0608B9
:101D06000000000000000000015C0508102700002C
:101D160003000000000000000000000000000000BA
:101D260000000000000000000000000000000000AD
:101D36000000000000000000000000005CB2060881
:101D460000000000000000001DC90108A086010077
:101D5600010000000000000000000000000000007C
:101D6600000000000000000000000000000000006D
:101D7600000000000000000000000000A0AD060802
:101D860000000000000000002507030850C3000003
:101D9600010000000000000000000000000000003C
:101DA600000000000000000000000000000000002D
:101DB6000000000000000000000000006846060861
:101DC600000000000000000045800308A086010016
:101DD60000000000000000000000000000000000FD
:101DE60000000000000000000000000000000000ED
:101DF600000000000000000000000000A0450608EA
:101E0600000000000000000021040308A861000093
:101E160001000000000000000000000000000000BB
:101E260000000000000000000000000000000000AC
:101E360000000000000000000000000064B2060878
:101E46000000000000000000598A0508A086010075
:101E5600010000000000000000000000000000007B
:101E6600000000000000000000000000000000006C
:101E7600000000000000000000000000845D06086D
:101E8600000000000000000001540308A00F00003D
:101E9600010000000000000000000000000000003B
:101EA600000000000000000000000000000000002C
:101EB60000000000000000000000000070B20608EC
:101EC60000000000000000003D8E050810270000FD
:101ED60001000000000000000000000000000000FB
:101EE60000000000000000000000000000000000EC
:101EF6000000000000000000000000002CAF0608F3
:101F06000000000000000000B5AD0408A00F0000AE
:101F160001000000000000000000000000000000BA
:101F260000000000000000000000000000000000AB
:101F360000000000000000000000000044510608F8
:101F46000000000000000000554905081A41000085
:101F5600010000000000000000000000000000007A
:101F6600000000000000000000000000000000006B
:101F760000000000000000000000000060450608A8
:101F86000000000000000000897C03081027000004
:101F9600010000000000000000000000000000003A
:101FA600000000000000000000000000000000002B
:101FB600000000000000000000000000A06F0608FE
:101FC6000000000000000000B58101081A41000071
:101FD60001000000000000000000000000000000FA
:101FE60000000000000000000000000000000000EB
:101FF6000000000000000000000000007CB206089F
:1020060000000000000000009D870308400D03004B
:1020160000000000000000000000000000000000BA
:1020260000000000000000000000000000000000AA
:1020360000000000000000000000000084B2060856
:102046000000000000000000AF970408400D0300E8
:10205600000000000000000000000000000000007A
:10206600000000000000000000000000000000006A
:102076000000000000000000000000008CB206080E
:102086000000000000000000317D050850C300007C
:102096000300000000000000000000000000000037
:1020A600000000000000000000000000000000002A
:1020B60000000000000000000000000098B20608C2
:1020C600000000000000000075D1020840420F0029
:1020D60000000000000000000000000000000000FA
:1020E60000000000000000000000000000000000EA
:1020F600000000000000000000000000A4B2060876
:1021060000000000000000009DAE040850C300005F
:1021160000000000000000000000000000000000B9
:1021260000000000000000000000000000000000A9
:102136000000000000000000000000000000803FDA
:1021460000000100E0010000FFFFFFFF01080000A2
:102156004257020000000106425702000000010635
:10216600FFFFFF00E817012000000000000000004C
:102176000000000000000000000000000000000059
:102186000000000000000000000000000000000049
:102196000000000000000000000000000000000039
:1021A6000000000000000000000000000000000029
:1021B6000000000000000000000000000000000019
:0821C600000000000000000011
:1021CE0000000000010000002812002000000000A6
:0C21DE00200000000000803F0000803F57
:108000002DE9F047C44C2AF0E9FA0546207870B90A
:108010000422C24B1B7843B1636A33B1ED1AB5F544
:108020007A7F02DB002310466362BDE8F0870022FE
:1080300066782270002E00F0F18023795BB213F194
:10804000630FC0F2B080B64F2275607D00283FD02C
:1080500013F1310F80F2BF8113F1380F80F2C0812C
:1080600013F13D0F80F2C18113F1420F80F2C28102
:1080700013F1450F80F2C38113F1470F80F2C481E1
:1080800013F1490F80F2C58113F14A0F00F0C68148
:1080900013F14B0F00F0C68113F14C0F00F0C781B4
:1080A00013F14D0F00F0C78113F15C0F80F288804F
:1080B0006421A269DFF878C202FB01F2DFF874E202
:1080C0008CFB02C1D217C2EB611292B24EF8202093
:1080D0003B70277C637CA27C1B04E17C43EA076342
:1080E0000B4343EA022303F0F022B2F1E02F00F049
:1080F0008C804FF0100C94F82820B0FA80F7A37908
:10810000E16A7F09134194F830E0097803F00F0326
:10811000994202D90B2B40F2A980237A134103F034
:108120000F03994202D90B2B40F2B280A37A13417C
:1081300003F00F03994202D90B2B40F2BB80237B43
:10814000134103F00F030B2B02D8994200F2CE80AB
:10815000A37B134103F00F030B2B02D8994200F2CB
:10816000FC80BCF10D0F15DD237C134103F00F03E0
:108170000B2B02D8994200F20281BCF1100F09D1F9
:10818000A37C43FA02F202F00F02914202D90B2AB9
:1081900040F2D280002E35D0A3791B0632D465621E
:1081A0000522012035E7237D0133DBB2042B237543
:1081B00040F29280607D6FF05B03594F002887D0BA
:1081C0006FF05B0E4FF00C0C0CF1FF32554911F9BA
:1081D000129001EB4C0C01EB42019CF801C0A3EBA7
:1081E000090291F80180AEEB0901ACEB080C02FB2F
:1081F0000CF292FBF1F2424452B2002A80F2D1809A
:10820000002156E70522012003E7A27912063FF577
:1082100070AF454A4FF00C0C13606CE72AF0DEF9A2
:108220003F4E424BA3FB002372785B0C002A57D0D1
:1082300022796179C9B2122918BF012908D001F049
:10824000EF01A1F1A201B1FA81F1490901B97170FF
:10825000E169607D00295BD08B427CD0591A0129ED
:1082600000F0A48066782284E36132E7834202D181
:10827000002F3FF452AF94F8069094F807800EEA6E
:108280000909DFF8B0A008EB09284AF8238044E781
:10829000834202D1002F3FF449AF94F8089094F83C
:1082A00009800EEA0909DFF88CA008EB09284AF8D2
:1082B00023803BE7834202D1002F3FF440AF94F884
:1082C0000A9094F80B800EEA0909DFF868A008EB21
:1082D00009284AF8238032E7114F97F90030B4E6B5
:1082E0002179627902EB012292B2B1E7984202D180
:1082F000002F3FF42DAF94F80C9094F80D800EEA07
:108300000909DFF830A008EB09284AF823801FE7A5
:108310002284E3616678DCE648180120C92A01203E
:1083200000000120C8C00508140D012083DE1B4396
:108330001F85EB51CC2A0120824202D1002F3FF44D
:1083400029AFA17CE37C01EA0E0E3D4903EB0E232D
:1083500041F822301EE76678BBE6984202D1002F32
:108360003FF4FFAE94F80E9094F80F800EEA0909DE
:10837000DFF8CCA008EB09284AF82380F1E6984200
:1083800002D1002F3FF4F9AE94F8109094F81180C8
:108390000EEA0909DFF8A8A008EB09284AF82380AB
:1083A000EBE6642AA8BF6422114682E600283FF467
:1083B00059AF268CA169961B224FDFF884C0143E6A
:1083C00001FB06F187FB0176C917A1EBE60189B233
:1083D0004CF8201046E76FF0300E4FF0010CF3E63A
:1083E0006FF0370E4FF0020CEEE66FF03C0E4FF0E0
:1083F000030CE9E66FF0410E4FF0040CE4E66FF079
:10840000440E4FF0050CDFE66FF0460E4FF0060C01
:10841000DAE66FF0480E4FF0070CD5E69E464FF0B7
:10842000080CD1E66FF04A0E4FF0090CCCE69E46E0
:108430004FF00A0CC8E69E464FF00B0CC4E600BF96
:10844000CC2A012067666666324B5B68C3F308037B
:1084500070B4CBB9EFF31183B3B92F4A2F4E304D1F
:108460001368AC6811688B42FAD131688C42F7D836
:108470002C4A4FF47A71156801FB05F2141BB4FB0A
:10848000F5F401FB03431EE0EFF31181102383F3A6
:10849000128803F1E0239D681A6812F4803F224A93
:1084A00033D11D4BC9B21C68136881F311881D4A72
:1084B0004FF47A712344146801FB04F2521BB2FB9F
:1084C000F4F201FB0323194A41F28831546B5363E0
:1084D0001B1B8B4208D9C0B20123107182F83830BF
:1084E0000023137070BC704792F838300F2BF9D806
:1084F000591CC0B21344C9B21871102982F838103F
:10850000EED1012370BC13707047012414609D6884
:10851000C7E700BF00ED00E0648D01206C8D0120F5
:1085200010E000E0688D0120608D012048180120D6
:10853000036933F8110000EB8000C01000F55C7097
:1085400080B27047436993F82120002A00F0BF8071
:10855000634A00212DE9F0431278DD7D1B2A83F860
:10856000211000F0B6809F7815F0010F5E7893F827
:10857000039007F007070269197A46EA072009F015
:108580003F091C7993F806E04FEA410893F807C0C9
:108590004FEA4919997A4FEA840410800EF00F0EC1
:1085A000987801F01F019E7B4FEACE1E49EAD00069
:1085B0000CF07F0C4FEA811706F03F0150804FEA24
:1085C0000C1CD8784FEA4116D97944EA90105C79AE
:1085D00048EAD11193F8068004F001044CEA181C13
:1085E00040EA84205C7A04F003049080587941EAE0
:1085F0004421DC7A4EEA500E587B51814FEAC40484
:10860000597AA2F806E000F0070E47EA9101987A3D
:10861000A2F808C040F2147C44EA50149181187BFF
:10862000597B40EA0E20D48146EAD1011082518262
:10863000D87B997B93F810E04FEA80005F7C40EA9A
:1086400091100EF0010E07F00F079E7C40EA8E207D
:10865000D97C5C7D4FEAC71793F812E04FEA4101DD
:10866000908206F07F06187C41EADE1E4FEA06166D
:10867000197D47EA5007987D04F01F0401F00301BB
:10868000D7824FEAC0005F7C4FEA84144EEA412152
:1086900046EA17161F7D5B7D168314BF6646AD261E
:1086A00015F0020F40EA5310518314BF6346AD2307
:1086B00044EA9704D08353842B07948316840BD405
:1086C00015F0040F0CBF01200920BDE8F08310460F
:1086D0007047044A158046E70320BDE8F08300BFD9
:1086E000F59D0120F89D0120394B5B68C3F3080319
:1086F000F0B4CBB9EFF31183B3B9364A364F374EE6
:108700001368B5681468A342FAD13C68A542F7D84B
:10871000334A4FF47A74166804FB06F2551BB5FB16
:10872000F6F504FB03531EE0EFF31184102383F3EB
:10873000128803F1E0239E681A6812F4803F294AE8
:1087400037D1244BE4B21D68136884F31188244A9E
:108750004FF47A742B44156804FB05F2921BB2FBAC
:10876000F5F204FB0323204CCA6964689A1A04F5E5
:10877000FA74944206DA002281F820200F281CD0D7
:10878000F0BC704791F82040002CF7D0182CF7D897
:10879000631CDBB2192B81F82030085512D1134B22
:1087A00001201B7881F821001B2BE9D1104B9A8006
:1087B000E6E7012515609E68C3E70122CB610870DA
:1087C00081F820200023F0BC81F82130704700BFE1
:1087D00000ED00E0648D01206C8D012010E000E0D0
:1087E000688D0120608D012000000120F59D012091
:1087F000F89D0120094BDFED0A6A03EB8101DFEDF3
:10880000097A91ED0F7AB8EE477AE7EE267AFCEE18
:10881000E77A17EE903A98B2704700BF48180120E7
:1088200001F11F3F00405C446B4A92F87C3033B149
:1088300092F882300021162B82F87C1001D00020A3
:10884000704792F8810002282DE9F04140F2C18082
:1088500002F1800402F18201D323204411F8014F78
:10886000634013F0800F4FEA430318BF83F0D50332
:10887000DBB213F0800F4FEA430318BF83F0D50338
:10888000DBB213F0800F4FEA430318BF83F0D50328
:10889000DBB213F0800F4FEA430318BF83F0D50318
:1088A000DBB213F0800F4FEA430318BF83F0D50308
:1088B000DBB213F0800F4FEA430318BF83F0D503F8
:1088C000DBB213F0800F4FEA430318BF83F0D503E8
:1088D000DBB213F0800F4FEA430318BF83F0D503D8
:1088E0008842DBB2BAD192F89910994202D00020A6
:1088F000BDE8F08192F88810012092F88C3001F0E8
:108900000F0192F8877003F01F0392F89040C9019D
:1089100092F894509B0192F8846041EA570192F8D2
:108920008B7006F0070604F03F0443EA970305F056
:108930007F0592F88F70640153652D0192F88330A2
:1089400044EAD704916443EA062392F89310B2F8FC
:10895000848045EA1111D363D2F88450C8F3CA0861
:10896000D2F89030B2F888C0C5F38A3E1466C3F3DB
:108970008A14D2F88870CCF30A1CD166B2F88C60E5
:10898000C7F3CA37B2F88E50B2F892107609D2F80F
:108990009430C5F30A05C1F34A01C2F84080C3F31D
:1089A000CA13C2F844E0C2F84CC01765C2E91941C5
:1089B000C2E91665136792F8983092F89740DB0089
:1089C000B2F8961043EA5413C1F38A01C2E91D13A9
:1089D0008EE7D32387E700BF481801207D4B2DE9A0
:1089E000F0471C680546E30717D57B4B93F8C0207A
:1089F00093F8C110914263D1D3F8C420AA4202D89F
:108A0000764A00211170D3F80821AD1A002D4FDDF0
:108A1000012083F80C01BDE8F08714F4005440F005
:108A2000A6806F480E4683689847C70735D56D4BBB
:108A3000C0F3400210F00A0F1A724FD02246664B64
:108A4000A146A646A04693F8E470674903EB070CDD
:108A5000013791F800A09CF8E84007F00F078CF868
:108A6000E820BAF1050FA9EB0404D3F8F8205F4918
:108A7000224483F8E4704FEA1214C3F8F8200C7013
:108A800038D0410702D5012283F80421BEF1000F3E
:108A9000B2D0524A01211170BAE742074E4B44BF8F
:108AA000012283F80421D3F8C420AA42ABD8A7E757
:108AB00093F80C010028AED193F80401BDE8F087CB
:108AC000D3F8C810002447480D4483F8C120434917
:108AD0000122C3F8C45004720A7099E73E4BFF228A
:108AE0004FF0010ED3F8C8109146F0462944C3F860
:108AF000C410A8E7B8F1000F40F2FF32B3F80071DC
:108B000008BF0022B3F80241D3F8FC103A44013404
:108B10003144374E92B2A4B2B142C3F8FC10A3F86C
:108B20000021A3F80241ACDD324EB2FBF4F207EEB5
:108B3000902A96ED007AD6ED016A0022F8EE677A67
:108B40002D4CA3F80021A3F8022177EEC77A2B4A17
:108B50000A44A6EEA77AC3F8FC20F0EE477ABCEEF2
:108B6000C77AC6ED007A17EE102A228089E71A4BE1
:108B7000B3F8CC2012BBB3F8CE20FAB9B3F8D020AA
:108B8000E2B9B3F8D220CAB9B3F8D420B2B9B3F875
:108B9000D6209AB9B3F8D82082B9B3F8DA206AB9E6
:108BA000B3F8DC2052B9B3F8DE203AB9B3F8E020CC
:108BB00022B9B3F8E220002A3FF41EAFD3F8C82050
:108BC0000026084C01202A4404492672C3F8C42018
:108BD000087018E778AB01204818012006C801206A
:108BE0001882012000000120622901203A7C012026
:108BF0009F860100A4320120882901206079FEFFB0
:108C0000002070470020704701207047024B03EBA3
:108C10004101B1F81001704748180120044B93F846
:108C2000340118B10022012083F83421704700BFBD
:108C300048180120024B03EB8101B1F8380170475D
:108C40004818012003788B4205D9044B03EB4101FE
:108C5000B1F8700170470020704700BF481801202C
:108C600038B53A4C054629F0B9FCD4F8C431C4F8FB
:108C7000C401C01AB0F57A7F1DDD0023282284F8D4
:108C8000C83184F8CA3184F8CB3184F8C9213D2D2C
:108C900040D03E2D0ED101222D4B84F8CA211A4618
:108CA000C4F8CC310123157084F8C83194F8C92177
:108CB0009A4220D038BD94F8C821002AE7D0531C2E
:108CC000D4F8CC11DBB28D54062B84F8C831EDD129
:108CD00094F8CA31012B25D094F8CB31012B25D043
:108CE0000023282284F8C83184F8CA3184F8CB31B3
:108CF00084F8C92138BD94F8CA31012B1AD094F8F0
:108D0000CB31012B1AD00022282384F8C82184F803
:108D1000C93138BD01220F4B84F8CB211A46C4F863
:108D2000CC31BFE78B78282BD6D8F0E78B78092B8E
:108D3000D6D8ECE7022384F8CA31E0E7022384F8AE
:108D4000CB3129F04BFCC4F8D001DCE748180120F6
:108D5000E4190120D819012030B4002305251E2470
:108D6000024600E00232032BD4BF0021012100F8AB
:108D700013100133042B04D0122B5470F2D130BCE9
:108D800070475570EEE700BF024B0360436083609D
:108D9000C3607047E803D007024B03EB4101B1F811
:108DA000CC00704748180120024B03EB4101B1F899
:108DB000CC0070474818012030B4264C94F8CA31D2
:108DC000022B02D0002030BC704794F89E51F5B1C0
:108DD000013D04F29D1304F5CE70002253FA85F58F
:108DE00010F8013B110A5340854283EA0313DBB2BA
:108DF0004FEAC30241EA032182EA131383EA010224
:108E0000EED122B1002084F8CA0130BC7047B4F81A
:108E10009C3143F601625BBA9BB2934209D043F6A0
:108E20000362934205D00023012084F8CA3130BC8C
:108E30007047094AA2F12E0102F12005D0790232D1
:108E40001379AA4203EB0023C3F3CC0321F8023FBA
:108E5000F4D1E8E748180120E4190120524B5B687F
:108E6000C3F3080370B4CBB9EFF31183B3B94F4A1E
:108E70004F4E504D1368AC6811688B42FAD131687F
:108E80008C42F7D84C4A4FF47A71156801FB05F211
:108E9000141BB4FBF5F401FB03431EE0EFF3118157
:108EA000102383F3128803F1E0239D681A6812F4FB
:108EB000803F424A49D13D4BC9B21C68136881F3D7
:108EC00011883D4A4FF47A712344146801FB04F27F
:108ED000521BB2FBF4F201FB0323394AD2F8D4113E
:108EE000591AB1F5FA7F19D90021C4B2C2F8D431A8
:108EF00082F8D81182F8D911042C34D0A4F12001C1
:108F0000B1FA81F1490971BB552892F8DC3101D1E0
:108F1000002B39D0834216D1002109E092F8D911F3
:108F2000B9B992F8D811C4B2C2F8D4310029E3D04B
:108F300092F8DA31013B5018994280F8E0410DD0A7
:108F4000013182F8D81170BC7047012414609D680B
:108F5000B1E7013982F8D91170BC7047012370BCA8
:108F600082F800327047002302254FF6FF7082F826
:108F7000DC41194682F8DB3182F8DA41631E82F85F
:108F8000DD51A2F8DE01D6E7012355251F20A2F806
:108F9000DE1182F8E04182F8DB3182F8DD3182F8BF
:108FA000DC5182F8DA01CBE700ED00E0648D0120AE
:108FB0006C8D012010E000E0688D0120608D0120A3
:108FC000481801200B49082230B5B1F801324AF2A5
:108FD000010580EA03045B0814F0010F01D06B4027
:108FE0009BB2013A400812F0FF02F2D1A1F801321F
:108FF00030BD00BF4818012030B4034600F16005C1
:10900000064C0C3307CC43F80C0C43F8081C43F80F
:10901000042CAB42F4D130BC704700BFE4C005085B
:109020000023322140F201424180C2818380C3800B
:1090300003814381838110B440F2DC5404805DF8E5
:10904000044B704770B57425094C064621462A46E4
:1090500051F07CFC2A462146701951F077FC2A46D3
:10906000214606F1E800BDE8704051F06FBC00BF3A
:10907000F0C00508134B10B493F80332012B17D03E
:1090800040F22E414FF4F07201234182028083703E
:1090900000230D4C40F226210E22446101824371CF
:1090A000C0F80730C0F80B3002765DF8044B70470B
:1090B0004FF47A744FF47A51042203714482018090
:1090C0008270E5E748180120D007E8032C4B1B68A5
:1090D000184483799BB107EE903A20EEA07A9FED79
:1090E000296AF7EE006AF8EEE77A27EE207A67EE53
:1090F000867AD7EE877A77EEA67A20EE270AC378AB
:10910000B0EE007ADFED1F6A07EE903AF8EEE77AEC
:1091100067EEA67AF4EEC77AF1EE10FA05DD37EEC7
:10912000C77ADFED196AE7EE267A9FED187A437A5F
:1091300020EE070A20EE270A03B3DFED126A07EEDE
:10914000903A9FED137AF8EEE77A60EEA60A67EEA2
:10915000A00AF4EEC70AF1EE10FA04DDDFED0D7A95
:1091600020EE270A7047F5EEC00AF1EE10FA05D49A
:10917000F7EE007A77EEE00A80EE200A704700BF33
:10918000548201200AD7233CD7A3684100004843FA
:10919000A4707D3F0000C842174BBFEE007AF7EE87
:1091A000006A9FED165A1B68F2EE044AA0EE007AA0
:1091B000184460EE850A20EE240A437AF0EE664AEF
:1091C00006EE103AC37827EE057A07EE903A8379D7
:1091D000B8EE466A05EE903AF8EEE77AE6EE204AF7
:1091E000F8EEE55A67EE807AE5EE876A24EEA70A84
:1091F00020EE260A704700BF548201200AD7233C84
:1092000070B582B0044629F0E9F9974AD2F80432E1
:1092100003F24C4383420CD392F808324BB1022B39
:1092200040F21F8192F88100023098420DDC02B0BA
:1092300070BD01210023C2F8040282F8804082F848
:10924000081282F87C3002B070BD591C1344C9B2B8
:1092500083F88040884282F80812D4BF012300239B
:1092600082F87C30E3DC92F882500023162D82F8DD
:109270000832DCD06B00290692F8814048BF83F0A9
:10928000D503DBB213F0800F4FEA430318BF83F01E
:10929000D503DBB213F0800F4FEA430318BF83F00E
:1092A000D503DBB213F0800F4FEA430318BF83F0FE
:1092B000D503DBB213F0800F4FEA430318BF83F0EE
:1092C000D503DBB213F0800F4FEA430318BF83F0DE
:1092D000D503DBB213F0800F4FEA430318BF83F0CE
:1092E000D503DBB213F0800F4FEA430318BF83F0BE
:1092F000D503022CDBB247D95C490C44023111F88A
:10930000016F734013F0800F4FEA430318BF83F0DF
:10931000D503DBB213F0800F4FEA430318BF83F08D
:10932000D503DBB213F0800F4FEA430318BF83F07D
:10933000D503DBB213F0800F4FEA430318BF83F06D
:10934000D503DBB213F0800F4FEA430318BF83F05D
:10935000D503DBB213F0800F4FEA430318BF83F04D
:10936000D503DBB213F0800F4FEA430318BF83F03D
:10937000D503DBB213F0800F4FEA430318BF83F02D
:10938000D5038C42DBB2BAD1104490F87F109942D9
:109390007FF44DAF7A2D2AD022D97C2D27D07D2D78
:1093A0007FF445AF92F88530042B4AD0052B34D09A
:1093B000032B7FF43CAF92F8873092F88620202B65
:1093C0002B482C49A8BF2023092AA8BF092280F8CE
:1093D0002A314B7280F829210A724EF02DFF26E7C0
:1093E000282D7FF424AF244B01221A701FE7234B52
:1093F0001A6E572A3FF71BAF2148D1180826056877
:1094000044680120D654C1F80150C1F805401A6ED5
:109410001C49093208701A6609E71B4B1B78EBB12F
:10942000134C012194F8292104F5907052F01CFD91
:10943000164B0121164A1B6884F82B112D3313603B
:10944000F5E6114B1B78002B3FF4F1AE002302A987
:10945000084801F8013D13F07DFCE8E64EF0ECFE13
:10946000E5E60520E1E600BF48180120C818012004
:1094700044840120708501204184012088850120D9
:10948000CD1801204284012044CF0120648D0120A9
:10949000A0CA01202DE9F04FE04C8BB094F80032C7
:1094A0002BB94FF0000A50460BB0BDE8F08F94F88E
:1094B000DB31002294F8DA01012B84F8002246D037
:1094C00094F8E051023D15F0FF0500F0AB8104F582
:1094D000F0714FF6FF730D4411F8012B9B1AA9424E
:1094E0009BB2F9D11A0A204490F8DF119142D8D1E9
:1094F00090F8DE21DBB29A42D3D194F8DC31202BF4
:1095000040F0848194F8DD9109F1020309F1100221
:1095100009F1120A09F1140B089309F1040309F186
:109520001808019309F10603029309F10803039354
:1095300009F10A03049309F10C03059309F10E03E1
:10954000069309F11603079309F11A03B5E094F89D
:10955000DD912044B4F8DE3109F1020104EB090287
:1095600009F1060609F1040554FA81F709900296FB
:10957000304692F8E061019597F8E0C1334492F8E3
:10958000E15154FA80F6019A6344089109F1080008
:1095900054FA82F203EB052397F8E1C154FA80F5FF
:1095A00092F8E01196F8E071194492F8E12195F8EB
:1095B000E0E101EB0C21039009F10A0096F8E1814A
:1095C000394495F8E1B154FA80F3049001EB02219B
:1095D00009F10C0093F8E0A109F10E06714454FA68
:1095E00080F793F8E13154FA86FC01EB082197F8F3
:1095F000E051069609F1100251449CF8E06197F899
:10960000E17154FA82FE01EB0B2109F1120A9EF876
:10961000E08109F1140B29449CF8E1C154FA8AF560
:109620009EF8E1E101EB0321059095F8E03109F1A5
:109630001600314454FA8BF695F8E15101EB0721FD
:1096400096F8E07196F8E161414409F11808079035
:1096500001EB0C2154FA80FC09980B449CF8E011B2
:109660009CF8E1C103EB0E233B4454FA88F703EB6B
:10967000052397F8E05197F8E171194409F11A03AD
:1096800001EB062154FA83F60D4496F8E0E196F8D2
:10969000E16105EB0C2590F8DFC190F8DE010EEBDF
:1096A000050100EB0C2C01EB07211FFA8CFC01EBF0
:1096B000062189B28C457FF4F4AE089954FA82F2FF
:1096C000A14454FA88F854FA81FE019954FA83F3BC
:1096D00054FA81FC0299029254FA8AF254FA81F700
:1096E0000399039254FA8BF254FA81F60499049286
:1096F000079A54FA81F599F8E1B199F8E0A154FA82
:1097000082F90599CDF814900AEB0B2A9EF8E191A5
:1097100054FA81F09EF8E0E106990EEB092ECDF89F
:1097200018809CF8E18154FA81F19CF8E0C1C4F8FA
:109730003CE10CEB082B97F8E1E196F8E1C197F8D2
:10974000E07196F8E06107EB0E2795F8E1E106EB92
:109750000C2695F8E05190F8E1C190F8E00105EB96
:109760000E25029A91F8E1E100EB0C2091F8E0114E
:10977000019001EB0E2192F8E1C192F8E0210398EB
:10978000029102EB0C22049990F8E1E190F8E0815B
:1097900091F8E1C191F8E09108EB0E2E0198029941
:1097A00009EB0C2CC4F85821059AC4F85001C4F8F0
:1097B000541192F8E10192F8E011069A01EB0021B0
:1097C000C4F838A193F8E1014FF0010AC4F84C51F4
:1097D00093F8E03192F8E15192F8E02103EB002395
:1097E0005046C4F840B102EB0522C4F84471C4F8F5
:1097F0004861C4F85CE1C4F860C1C4F86411C4F8FD
:109800006821C4F86C310BB0BDE8F08F04484FF00C
:10981000000A31F0C4F984F8D90144E6481801205F
:10982000281A0120FF224FF6FF735CE6F8B5284E98
:1098300028F0D4FE054600F1FA07344696F82C329B
:1098400006EB8303D3F80C023CF088FB38BB94F89A
:109850002C3204EB8303D3F80C023CF07FFB28B3DB
:1098600028F0BCFED4F83432401B9842C4F83002D1
:109870002BD805F5FA7594F82C3204EB8303D3F852
:109880000C023CF06BFBB0B994F82C3204EB830370
:10989000D3F80C023CF062FB90B1002005E028F008
:1098A0009DFEB842CAD94FF0FF30F8BD28F096FEB1
:1098B000B842CCD9F7E728F091FEA842DBD9F2E70D
:1098C00028F08CFEA842DFD9EDE70120EDE700BFCC
:1098D0004818012038B5002405460470FFF7A6FF9C
:1098E000431C11D0012803D12B78A04018432870C5
:1098F0000134082CF2D1054A01202B7892F8381255
:109900004B4082F8383238BD0020FCE7481801206F
:109910002DE9F843204C0746204D2668A84602361C
:1099200095F82C3205EB8303D3F80C023CF016FBC0
:1099300010BB28F053FE00F1270628F04FFE8642A8
:10994000FBD800254FF001092C4698F82C3208EB83
:109950008303D3F80C023CF001FB18B109FA05F3BC
:109960001C43A4B2092D06F134060BD028F036FEB4
:109970008642FBD80135E8E723689E42D0D8002014
:10998000BDE8F88340F201232340B3F5007FF6D110
:10999000640801203C70F3E7648D01204818012021
:1099A00037B5FF2302AD044605F8013D2846FFF711
:1099B000AFFF00B91CB99DF8070003B030BD013CF2
:1099C000F4E773B50022204C0144054684F80122D7
:1099D00084F80222CEB284F8392284F83A22FF2297
:1099E0008DF807202846FFF793FFF8B115F8010B13
:1099F000FFF7E8FAEBB2B342F4D194F83B32EBB1A3
:109A00001248FFF785FF88B11148FFF781FF68B161
:109A10000DF10700FFF77CFF40B1B4F80122B4F864
:109A200039329A4202D0C2238DF807309DF80700E0
:109A3000A0F130035842584102B070BD0DF107004B
:109A4000FFF766FFF2E700BF48180120811A0120E6
:109A5000821A012070B540F201440E4E44EA80049F
:109A600028F0BCFD054696F82C3206EB8303D3F8AC
:109A70000C02E3070AD53CF063FA640805F13405EB
:109A800007D028F0ABFD8542FBD8ECE73CF052FA5A
:109A9000F3E770BD4818012070B50D46184C064616
:109AA000013D94F82C32EDB204EB83030135D3F879
:109AB0000C0244F0A9FF3544002384F8013284F8F5
:109AC00002323078FFF7C6FF16F8010BFFF77AFA7B
:109AD000AE42F6D194F83B323BB194F80102FFF765
:109AE000B9FF94F80202FFF7B5FF94F82C32202159
:109AF00004EB8304D4F80C02BDE870403CF07AB962
:109B000048180120FE2313B5ADF8043000230446A5
:109B10008DF8063003788DF8073013B901238DF8DE
:109B2000063004210DEB0100FFF7B6FF0220FFF71E
:109B300037FFFF280CD121786068FFF7ADFF2820A0
:109B4000FFF72EFFA0F130035842584102B010BD7C
:109B50000020FBE737B5054608461446FFF7D2FF5D
:109B600078B10123022101A88DF804508DF8053049
:109B7000FFF792FF2046FFF713FFA0F13003584292
:109B8000584103B030BD07B50E4B0268934317D060
:109B9000FF230421ADF8043043788DF80630837834
:109BA0000DEB01008DF80730FFF776FF0220FFF77D
:109BB000F7FEA0F130035842584103B05DF804FBB2
:109BC0000120FAE700FFFF0037B5054608460C46BE
:109BD000FFF7D9FF60B12378022101A88DF8045066
:109BE0008DF80530FFF758FF21786068FFF7E9FE30
:109BF00003B030BD38B50D4C05460146D4F84002DF
:109C00002BF0FAFBB4F84402082341F2210280EA67
:109C1000052010F4004F4FEA400018BF5040013BB0
:109C200080B2F6D1A4F8440238BD00BF4818012024
:109C300010B5064CD4F840022BF0DAFB0028F9D01E
:109C4000D4F84002BDE810402BF0CABB48180120F0
:109C500010B5FFF7EDFF0A4A082141F22104B2F8DE
:109C6000463283EA00239BB213F4004F4FEA4303CA
:109C700018BF634001399BB2F6D1A2F8463210BD3D
:109C80004818012038B50B4B1B78093B012B00D934
:109C900038BD054645200C460EF086FF0D200EF01F
:109CA00083FF28460EF080FF2046BDE838400FF0C5
:109CB00019B900BFD6280120064B074A1B7803EBD1
:109CC000830303EB83008000A2FB0030C0F3C710C6
:109CD000704700BF3A7C012081808080154B642250
:109CE0001549187C93F9243007EE100ADFED135A5A
:109CF00007EE903A0B88F8EEC76A9FED116A07EEFF
:109D0000103AF8EEE77A0F4BB8EEC77A67EEA57A0D
:109D100026EE877AE7EE067AFCEEE77A17EE901ADF
:109D200088B202FB00F283FB02301044C0F34720EC
:109D3000704700BF20AB0120882901200AD72341AA
:109D40000AD7233C03082080104B114A197C93F951
:109D5000243007EE101ADFED0F5A07EE903A138801
:109D6000F8EEC76A9FED0C6A07EE103AF8EEE77A54
:109D7000B8EEC77A67EEA57A26EE877AE7EE067A1E
:109D8000FCEEE77A17EE903A98B2704720AB0120CC
:109D9000882901200AD723410AD7233C2DE9F8431B
:109DA00089460178A9B1DFF83C800546044608F1F0
:109DB00008074646304652F026F9B8420BD2621BDD
:109DC000A0EB080338B109F8032014F8011F00299B
:109DD000F0D1BDE8F88314F8011F0029EAD1BDE8ED
:109DE000F88300BF143806082B4B42F201021B68AF
:109DF0001A4200D17047294B5B68C3F3080330B4A3
:109E0000CBB9EFF31183B3B9254A264D264C13681D
:109E1000A06811688B42FAD129688842F7D8234993
:109E20004FF47A740D6804FB05F1081AB0FBF5F0E5
:109E300004FB03031DE0EFF31180102383F312886A
:109E400003F1E0231A499D681A68D2031FD4144A0B
:109E5000C0B214680B6880F3118814494FF47A700B
:109E600023440C6800FB04F1491BB1FBF4F100FB37
:109E70000313156801240F4902200F4ACD6081F8B1
:109E8000254082F84C02C2F8483230BC70470122AB
:109E90000A609D68DBE700BF78AB012000ED00E0C1
:109EA000648D01206C8D012010E000E0688D0120A0
:109EB000608D0120407C0120481801202C4B42F28B
:109EC00001021B681A4200D170472A4B5B68C3F33A
:109ED000080330B4CBB9EFF31183B3B9264A274D49
:109EE000274C1368A06811688B42FAD12968884210
:109EF000F7D8244A4FF47A71146801FB04F2101A5F
:109F0000B0FBF4F001FB03031EE0EFF3118110231B
:109F100083F3128803F1E0239C681A6812F4803FEF
:109F2000194A20D1144BC9B21868136881F31188FB
:109F3000144A4FF47A710344106801FB00F2121BBB
:109F4000B2FBF0F201FB0323104802241049C2685F
:109F50001944104B02F2DC5283F84C42C3F8481209
:109F6000C26030BC7047012010609C68DAE700BF17
:109F700078AB012000ED00E0648D01206C8D0120A4
:109F800010E000E0688D0120608D0120407C012000
:109F900060E31600481801202DE9F04F9D4E4FF068
:109FA00000089D4D85B0DFF8BCE2B6F812C005F59B
:109FB00013709A499A4C0FFA8CF29A4B01F12409CA
:109FC000994F85F84D82C5F8C8E0DFF89C82DFF82C
:109FD0009CE2E360C4E90178DEF8003021F8022F4A
:109FE000894503F5967340F8043FF5D1DFF8809278
:109FF0008E4BD9F800A0DFF87CE203F178001AF468
:10A00000805F08BFB6F91E20AEF806200DE00BEB0E
:10A010008B0B0BEB8B0B0BF5617292B25978043101
:10A020002EF811200633984212D01A78002AF9D15E
:10A030009978DA789142F5D201F1FF3B013200299B
:10A04000E5D102EB820202EB820202F56172E5E7E2
:10A050001AF0080F4DD11AF4804F3DD142F201039E
:10A060001AEA030F2CD11AF4004F25D1F37B13B158
:10A070006F4B02221A7096F82C309FED6E7A07EE25
:10A08000903ADFED6D6AB0EE476A96F82220F8EE5E
:10A09000E77A2178131D694AA7EEA66A8B42A8BF0A
:10A0A0000B46002185F884331160C7EE067AC2EDB5
:10A0B000017A05B0BDE8F08F5D4B01221A70DAE736
:10A0C00044F620631AF4005F638000F09A8008224F
:10A0D0005B4B22706360C6E744F62062594B122145
:10A0E00062806360584A594B2170A260C5F8C8303D
:10A0F000B4E7327A0D2A7FD8DFE812F00E000E00A6
:10A100007A020002DA02180118015C019A01CC01FE
:10A110000E007E00C2007A024020EC6240F0ECFFAC
:10A120008246002868D04FF0000B85F801B032F06D
:10A13000D9FD327A0346012A0DD0C0F059830A2A8C
:10A140001CD1D9F8002082F48062C2F3802202433D
:10A1500082F001026A70032007213D4A4FF0010C92
:10A1600085F828004FF4006085F830100C2182F843
:10A1700000C042F6F822A86121706280717ADFF88F
:10A18000F8C000313348DFF8F4E018BF0121E06087
:10A19000C4E901EC4AB295F801C09AF90200002B1B
:10A1A00040F0E982BCF1000F40F0208396F80AC02D
:10A1B000BCF1000F00F06783012342F008024FF466
:10A1C000E131CDE90132002300914021224A40F0E3
:10A1D000D3FE224B1860F37B2278013BDBB29A421C
:10A1E0006B7501D800236B75031C18BF0123D9F8C8
:10A1F00000A0002B7FF42FAFD9F800A0C4E90178AC
:10A2000029E71AF0010F3FF42EAF0C22144B2270F5
:10A21000636028E720AB012048180120E6B0012048
:10A2200018820120098C0008018C0008E01A012026
:10A2300062290120CDCCCC3D3661823CA432012084
:10A24000A98D00080D8C00081D8C0008400D03002E
:10A25000FC2A0120B958010849840008F085012032
:10A26000998D0008A0860100058C0008648D0120EE
:10A2700078AB0120E8B001200180000811590108E5
:10A280000A204FEA0C13B449002293FBF0F3A3F524
:10A29000B063B24821619BB2606021F81230013294
:10A2A000122AFAD142F6F823AD4940202270638089
:10A2B000AC4BC4E9021340F01FFF00289CD096F875
:10A2C0000AC0032390F902004FF4E131BCF1000F02
:10A2D00001934FF00003727A18BF4FF0080CDFF8BB
:10A2E000F8A208BF9C46009140219A4218BF4CF04A
:10A2F000010C9D4ACDF808C040F03EFECAF80000AF
:10A3000070B1DFF8D8B29BF80030002B00F08382E8
:10A310000022964B96481978027009B903221A70E8
:10A32000DAF80030003318BF012360E7062A40F056
:10A33000E88100230C218F48DFF8A4C2017021209E
:10A340008CF800302170DFF89CC28B498CF800300B
:10A350000B70DFF894A28949894B08701A7042F695
:10A36000F821884A884B40206180C4E9012340F0ED
:10A37000C3FE834600283FF43FAF32F0B3FC717A4E
:10A380009BF902C00031B37A18BF01214AB20028FC
:10A3900000F01C82002B40F0998203220291CDF83C
:10A3A00000A0604601924021784A40F0E5FD784BDC
:10A3B000186019E744F620630E21764A4FF0000A30
:10A3C00063804020744B85F8DCA12170C4E901232F
:10A3D00040F092FE834600283FF40EAF4FF48052C7
:10A3E000402140F075FE96F809C0014685F8D9A1D4
:10A3F000BCEB0A0C9BF9020018BF4FF0010C4FFA9E
:10A400008CF2002900F0978142F0080203214FF4FA
:10A41000E13C5346029201914021604ACDF800C0D0
:10A4200040F0AAFD5E4A5F4B106083F800A0DBE6B7
:10A4300010235D4A41F27C514FF0000A237028231B
:10A4400062604020594A618085F8C8A1A26085F801
:10A45000C93140F051FE00283FF4CEAE727A03219C
:10A4600090F9020053465245514A01914FF0400184
:10A470000CBF4FF0080C4FF0090C0092CDF808C04B
:10A480004C4A40F079FDB0EB0A03C5F85C0318BFF5
:10A490000123ACE64FEA0C120A200023464992FB46
:10A4A000F0F2A2F5B06241F823200133102BFAD16B
:10A4B00041F60B21414A23704020414B6180C4E9A1
:10A4C000012340F019FE00283FF496AE0023727A73
:10A4D0000321DFF818C1D21A90F90200CDF800C0AC
:10A4E00018BF0122CDE90112364A402140F044FD57
:10A4F000354A031C106018BF012378E642F6F823A2
:10A500001221324A40206380314B2170C4E901237B
:10A5100040F0F2FD824600283FF46EAE32F0E2FBDE
:10A52000717A9AF902C00031B37A18BF01214AB298
:10A53000002800F03981002B40F0B8814FF0030E65
:10A540004FF4E132029160464021CDE9002E214ACC
:10A5500040F012FD2BE700BFA81B01203185000849
:10A56000814B010849780108CD4F0108622901207B
:10A5700090290120EC290120F4290120EB29012058
:10A58000F62901203D510108595101089D54010847
:10A59000A8830120358C0008959400085D8E000882
:10A5A000107E0120EA7D0120458C0008B98D00084D
:10A5B00048E80100618C000884180120F587000834
:10A5C00029880008019200083C840120E156010816
:10A5D000F556010875570108B82B0120AF830120FB
:10A5E000C4290120F529012090D00300A0680600AD
:10A5F0004FEA0C114FF00A0CDFF8F8E2002320615B
:10A60000C4F814E091FBFCF1A1F5B061DFF838C3A8
:10A6100089B2C4F804C020F813100133122BFAD108
:10A620000D2A237000F0838042F6F820AE49AF4B2C
:10A6300040F6B832608040205A60AD4BC5F85813E0
:10A64000A36040F059FD824600283FF4D5AD32F0BA
:10A6500049FB737A00280CBF0121032196F80AE018
:10A66000002B9AF902208246D5F8583314BF4FF0D8
:10A67000060C4FF0070CBEF1000F104601914FF091
:10A6800040010CBF0022082200934CEA020C994BB7
:10A69000994ACDF808C040F06FFC96F8233013B10A
:10A6A000964B05221A70BAF1000F3FF49DAD7EE67D
:10A6B00042F6F8230821924A40206380914B217092
:10A6C000C4E9012340F018FD824600283FF494AD10
:10A6D00032F008FB727A9AF902100346003218BF72
:10A6E000012200283AD003234FF4E13C02920846AD
:10A6F000019340210023CDF800C0834A40F03CFC88
:10A7000055E6002381480C22814903704FF4E13A59
:10A71000DFF838C27F480A701B218CF800300370C4
:10A720007D4B2270052219707C4B1A7017E641F29E
:10A7300070707B497BE7B37A002B76D042F0080239
:10A740004FF0010E4FF4E13C0B464021CDF800C024
:10A75000CDE901E2734A40F00FFC45E54FF0010EF0
:10A760004FF4E13C02920846674A4021CDE900CE11
:10A7700040F002FC38E5BCF1000F6FD1B37A002B3A
:10A780005ED042F0080E03214FF4E1326346CDF86B
:10A7900008E0019140210092634A40F0EDFB634BD9
:10A7A0001860634B186016E5002B5FD042F008027A
:10A7B00001214FF4E13E034602926046019140219F
:10A7C000CDF800E05B4A40F0D7FB0DE5002B62D0EE
:10A7D00042F0080201210346CDF800A00292604633
:10A7E00001914021544A40F0C7FBFDE40323E4E417
:10A7F0000321524A4FF0020C4FF4806085F830106C
:10A80000072182F800B045F2F05285F828C0A8610F
:10A8100021706280B2E44A4B4A4A1A6032F0E6F88C
:10A82000022301228BF8003073E501214FF4E1325D
:10A83000CDE9011C009240213A4A40F09DFBD3E44F
:10A840004FF0030C4FF4E132CDE901C100924021F9
:10A85000354A40F091FB354B1860A2E742F00803FF
:10A8600003214FF4E1320293002392E74FF0010EEF
:10A870004FF4E132029160464021CDE9002E2D4A8D
:10A8800040F07AFBB0E44FF0010C4FF4E132CDE937
:10A8900001C1009299E401220291CDF800A0604626
:10A8A00001924021244A40F067FB9DE442F00802F7
:10A8B00003214FF4E13E60460292002301914021C2
:10A8C000CDF800E01B4A40F057FB70E542F008026B
:10A8D0000321CDF800A0604602920023019140219F
:10A8E000154A40F049FB62E5A08601000000012006
:10A8F000458500087C1B0120E986000862290120AB
:10A90000095601082156010895560108C42901205D
:10A91000EC290120F4290120EB290120F62901204E
:10A92000400D03005D8E000849840008F085012079
:10A93000A8830120755701089D540108FC2A0120B5
:10A94000507B0120DD62010831850008F5290120D6
:10A95000C9B1013930B40546441E002055FA81F5CD
:10A9600014F8011F020A4840A54280EA0010C0B254
:10A970004FEAC00342EA002183EA101080EA010096
:10A98000EED130BC7047084670470023F7B5494CFC
:10A9900007468DF803306023474EC4F834323378CD
:10A9A000152B0ED0122B0CD0012B0CBF02258C25A1
:10A9B000FEF73CFF002807DA013DF9D1002003B083
:10A9C000F0BD44F62065F3E70A25FEF72FFF0130BE
:10A9D000F4D0013D15F0FF05F7D1D4F830229308EB
:10A9E00003EB5203C4F83432FEF720FF431CE5D0DA
:10A9F0000028F9DC00230DF1030084F83832FEF75B
:10AA000069FF0028DAD09DF803301B2BD6D10DF159
:10AA10000300FEF75FFF0028D0D09DF8032094F8D4
:10AA200085339A42CAD10DF10500FEF753FF9DF818
:10AA30000530012BC2D801A8FEF74CFF9DF8043069
:10AA4000002BBBD00DF10300FEF744FF0028B5D06A
:10AA50009DF803300E2BB1D10DF10300FEF73AFF44
:10AA60000028ABD09DF8032033789A42A6D10DF18F
:10AA70000300FEF72FFF0028A0D09DF80330002B25
:10AA80009CD13D46EA1BBDF8043092B2023B9A428B
:10AA900009DB0DF10300FEF71DFF94F83802B0FA50
:10AAA00080F040098BE72846FEF714FF002885D088
:10AAB0000135E7E748180120D6B0012070B5264CD3
:10AAC0000646082594F88633434084F8863394F884
:10AAD0002C3204EB8303D3F80C02F30715D53BF0BB
:10AAE0002FFA40202AF074FA94F82C3204EB8303F6
:10AAF000D3F80C023BF01EFA40202AF069FA013D1F
:10AB0000760815F0FF05E2D170BD3BF019FA202060
:10AB10002AF05EFA94F82C3204EB8303D3F80C028B
:10AB20003BF008FA20202AF053FA94F82C3204EB78
:10AB30008303D3F80C023BF003FA20202AF048FAF2
:10AB400094F82C3204EB8303D3F80C023BF0F2F9B7
:10AB500020202AF03DFAD2E74818012010B50D4C0C
:10AB600094F88603FFF7AAFF94F82C3204EB8303D2
:10AB7000D3F80C023BF0E4F920202AF029FA94F8EB
:10AB80002C32202104EB8304D4F80C02BDE81040E1
:10AB90003BF030B94818012010B5104C94F82C3215
:10ABA00004EB8303D3F80C0243F02EFFFF20FFF7E2
:10ABB00085FFFF20FFF782FF7F20FFF77FFF002345
:10ABC0001B2084F88633FFF779FF94F88503013062
:10ABD000C0B284F88503BDE810406FE74818012033
:10ABE00010B50B4B01241C70FFF7D6FF0020FFF7B8
:10ABF00065FF2046FFF762FF0E20FFF75FFF20464C
:10AC0000FFF75CFFFFF7AAFF0248BDE81040BCE673
:10AC1000D6B00120D7B00120F8B504780546002C45
:10AC20003ED004F10A060027FFF7B6FF300AFFF70F
:10AC300045FFF0B2FFF742FF0E20FFF73FFF1A4B30
:10AC40001878FFF73BFF3846FFF738FF2046FFF73D
:10AC500035FF0020FFF732FF0020FFF72FFF002015
:10AC6000FFF72CFF0020FFF729FF0020FFF726FF4A
:10AC70000020FFF723FF0020FFF720FF6B68013C57
:10AC80001878FFF71BFF6B6814F0FF0403F1010352
:10AC90006B60F3D1FFF762FF0448BDE8F84074E64B
:10ACA0004FF485760127BFE7D6B00120D7B0012049
:10ACB00038B505460478FFF76FFF0020FFF7FEFE6A
:10ACC0000420FFF7FBFEB4FA84F40E20FFF7F6FE33
:10ACD000094B64091878FFF7F1FE2046FFF7EEFEF6
:10ACE0002878FFF7EBFEA020FFF7E8FEFFF736FF1E
:10ACF0006868BDE8384048E6D6B0012038B5154B45
:10AD000004460268934322D0134B06251D70FFF7BB
:10AD100043FF0020FFF7D2FE0520FFF7CFFE0E20F5
:10AD2000FFF7CCFE2846FFF7C9FE0020FFF7C6FE5E
:10AD30000020FFF7C3FE6078FFF7C0FEA078FFF7A2
:10AD4000BDFEFFF70BFF0548BDE838401DE60120BA
:10AD500038BD00BF00FFFF00D6B00120D7B00120F2
:10AD60002DE9F04FDFF8DC82D1B0B04C08F11409C6
:10AD7000C4F8400240F0EEF9002584F8465284F809
:10AD80004752FEF765FF2F28F7D10121002025F05B
:10AD900041FF0027ADF80850FEF75AFF10AD0190B3
:10ADA000FEF756FF8DF81500FEF752FF8DF81600DE
:10ADB000FEF74EFF0646FEF74BFFE8550137FBB2A4
:10ADC0009E42F8D1FEF734FF8DF80D00FEF730FFFC
:10ADD000B4F846328DF80C000121BDF80C7000204B
:10ADE0009F4214BF0327002725F014FF002F40F0D7
:10ADF0008E80019B0695303B102B00F24B82DFE8E2
:10AE000013F06E009900EB029D001100B2004902A0
:10AE1000DB00BC01F2011A026202490240028D020B
:10AE2000A600C102012602ADB2460021084684F800
:10AE3000441284F8451225F0EDFED4F840022AF0C1
:10AE4000A1FA2E20FEF7D6FE0198FEF7D3FE9DF85C
:10AE50001500FEF7CFFE9DF81600FEF7CBFE50461C
:10AE60000AF1FF3AFEF7C6FE5FFA8AFA0AF1010A12
:10AE7000AA44D4F840022AF0B7FA0028F9D015F80D
:10AE8000010BFEF7B7FE5545F3D13846FEF7B2FE8B
:10AE900094F84512D4F840022AF0AEFA94F844121D
:10AEA000D4F840022AF0A8FAD4F840022AF064FA52
:10AEB0000021084625F0AEFE002E3FF45DAF94F869
:10AEC0008833002B40F09382594B5A4A1B689B1AD7
:10AED000594A18BF0123137051B0BDE8F08F94F8A0
:10AEE0003B32A3B194F88733013B032B18D8DFE83A
:10AEF00003F002021302FD2302210AA8ADF8283054
:10AF0000FEF7CAFD0120FEF74BFDC12808D100263F
:10AF100002AD4FF0010A88E7FFF762FE0028F6D184
:10AF2000002602AD4FF0010A0F2784F83B6284F837
:10AF30003C627AE76B238DF80830E8E74FF47273D0
:10AF4000002602AD4FF0020AADF808306DE72B780D
:10AF50005A1E032A00F2458284F88733002602AD88
:10AF60004FF0010A61E72B7894F888239A4205D8BC
:10AF7000002602AD4FF0010A082756E784F82C326C
:10AF800094F88733042B0ED8012202FA03F313F04E
:10AF9000160F08D0002302210AA884F83B22ADF83E
:10AFA0002830FEF779FD002602AD4FF0010A84F843
:10AFB0003B6284F83C6238E72B7894F8882384F865
:10AFC0003B729A4284F83C72D2D9032684F82C3220
:10AFD00094F88733042B37D0FFF702FEA0B301218A
:10AFE000164848F0B3FB78B30221154848F0AEFB91
:10AFF00050B3B4F83B3249F2073223F008019142D2
:10B0000007D049F20A32934203D049F20B429342ED
:10B010001AD1032384F8873394F887330026084D28
:10B020004FF0040A84F83E32FFE600BF48180120C2
:10B03000483B002099AA02081FAB0120841A012076
:10B04000831A012064C10508B8F8002098F802307E
:10B05000ADF810208DF812300AABBE4A10680832E5
:10B0600052F8041C1D464A4503C52B46F6D1D9F8B3
:10B070000000152199F8042028600AA82A71FEF71B
:10B080000BFD082107A8FEF79CFC002867D09DF85F
:10B0900010209DF81C309A4261D19DF811209DF836
:10B0A0001D309A425BD19DF81E209DF812309A42C5
:10B0B00055D19DF81F304FF2103284F83D329DF883
:10B0C000203084F83C329DF8213084F83B32B4F8CB
:10B0D0003B3223F02001914211D04FF210429342B3
:10B0E0000DD04FF29032934209D04FF65002934266
:10B0F00005D003F5BA520F3292B2012A03D80123C8
:10B1000084F8873388E723F0080249F207318A423E
:10B1100007D049F20A32934203D049F20B429342DC
:10B1200003D1022384F8873376E741F6067293420F
:10B1300011D043F2063293420DD023F4807243F2D1
:10B1400006418A4207D042F60632934203D044F2C7
:10B150000672934203D1042384F887335CE7013EEF
:10B1600016F0FF067FF434AF84F83B624FF0040A18
:10B1700084F83C620F27784D57E694F88733032B09
:10B1800040F08880754B12251D70FFF705FD0020EB
:10B19000FFF794FC0720FFF791FC0E20FFF78EFCD1
:10B1A0002846FFF78BFC1420FFF788FC0020FFF7F0
:10B1B00085FCAC20FFF782FC8820FFF77FFC132082
:10B1C000FFF77CFC7620FFF779FCFFF7C7FC6448AB
:10B1D000FFF7DBFB00287FF49AAE002602AD4FF0AC
:10B1E000010A0F2721E694F88723012A01D0042AB7
:10B1F00050D12B78042A05A88DF808300CBF9B008D
:10B200005B00DBB28DF8153000238DF81630FEF7A9
:10B21000BAFC0028E1D04FF4817302210AA8ADF8EE
:10B220002830FEF739FC40F2DC50FEF7B9FB30283D
:10B230003FF46DAED1E72B788DF8143094F8873356
:10B240005A1E032A26D8DFE802F002020F02022B60
:10B2500005A90CBF07200320FEF7B6FC0028BCD0D0
:10B260009DF814A00026E0E505A8FFF747FD00289B
:10B27000B3D01422394B0DEB02001A70FFF718FD02
:10B28000ECE72B788DF8143094F88733022B07D035
:10B29000032B0AD0002602AD4FF0010A0227C4E5B5
:10B2A00005A90420FEF790FCD8E705A8FFF726FDC6
:10B2B000002892D0294B162205A81A70FFF7F8FC37
:10B2C0000028CDD189E794F887338DF81460013BCD
:10B2D000032B3FF61CAEDFE803F00202110205A8C3
:10B2E000FEF751FC00283FF478AFFA2205A90120AF
:10B2F000FEF730FC00287FF40AAE6EE705A8FFF7E2
:10B30000FDFC00283FF469AF144B132205A81A7006
:10B31000FFF782FC00287FF4FAAD5EE794F88733EC
:10B320008DF81460022B05D0032B1BD0012B7FF46A
:10B3300054AFAFE705A8FEF726FC00283FF44DAF59
:10B3400040F2DC5205A90520FEF704FC00287FF43A
:10B35000DEAD42E768C10508831A0120D6B001209E
:10B36000D7B0012005A8FFF7C9FC00283FF435AF8E
:10B37000294B152205A81A70FFF74EFC00287FF410
:10B38000C6AD2AE794F887B3BBF1040F82D105A8B4
:10B390008DF81460FEF7F7FB00283FF41EAF05A8F8
:10B3A000FEF7B0FB00283FF418AF4FF48273022180
:10B3B0000AA8ADF82830FEF76FFB1420FEF7F0FA6C
:10B3C00030283FF4A4ADC0287FF407AF002602ADBB
:10B3D0004FF0010A5F4628E50026104D4FF0090A9C
:10B3E00023E5002602AD4FF0010A09271DE5013BC8
:10B3F0000221DBB284F8883304EB8303D3F80C0218
:10B400003AF0F8FC94F8883304EB8303D3F80C0289
:10B410003AF090FD53E500BFD6B0012090410608F8
:10B42000F8B50A4DAB897BB1094C0A4F04F590760B
:10B43000AB8920462434396800EE103AB8EE400A51
:10B4400015F0C6FDB442F3D1F8BD00BF7CA80120C1
:10B45000D41B0120EC51002070B4124C01300022AA
:10B46000234604F170019A719A705A7003F8072B01
:10B470008B42F8D10C4B03EBC00090F8B8507DB173
:10B48000D0F8BC60C5EBC5050023F218E1181068C0
:10B49000E050073390889D42927988808A71F4D178
:10B4A00070BC7047F41C0120C8C00508F8B5124DE7
:10B4B0000024702205F2AC47214605F5A46085F80A
:10B4C0001C4550F0D1FC214607F174040DE01E68C4
:10B4D00095F81C250E5107319E8801329B79702901
:10B4E00085F81C258680837105D07B18081993F98F
:10B4F0000220002AEBD1F8BD481801201B4AD2F8DF
:10B500009435F0B492F89055D3B1194B03EBC503C1
:10B5100093F8B840D3F8BC7082F81C4587B17CB171
:10B52000C4EBC40402F5A4620023F918D0180E6815
:10B53000D65007338E889C42897986808171F4D1F8
:10B5400005F0EF020B49082A0B7801D00E2D06D129
:10B5500043F01003182D0B7006D0F0BC704723F099
:10B560001003192D0B70F8D1F0BC9FE7481801208B
:10B57000C8C005081C7C01200B490C4A91F8903585
:10B580000B4802EBC3020B4B006852780340C1F832
:10B59000942513B10123C1F89435074B074AC3E939
:10B5A0000022C3E902227047481801202437060808
:10B5B00078AB012020001000C82B0120DC05DC0541
:10B5C000F8B5CC4CB6EE007A83880546D4ED007A07
:10B5D00067EE877A2DED068BFCEEE77A17EE906A20
:10B5E0009E4280F06982C288964200F24983C24B33
:10B5F000C24F6360C24A97ED005AB5F86030D2ED91
:10B60000004AB8EE455A6A88002B40F0A281002A11
:10B6100040F09E81B84B6367B5F84C3013B19E4241
:10B6200080F07D82B44BC4F8E4302B8813B19E4285
:10B6300080F04683B04A95F85030DFEDB26A07EEED
:10B64000103AB1490023C4F85C21B8EE477A01F5FD
:10B65000B36294F860011360C6EE877A77EEA47A3D
:10B6600084EEA77A82ED017A58B391F8A025D4ED43
:10B670005F7A06EE102AC4F8643186EEA77AC4F821
:10B680006C31C4F87431C4F88031C4F88831C4F81E
:10B690009031B8EE466AC6EE867A77EE246A84EE7A
:10B6A000A67A77EEA46AC4EEA67A84ED617A84ED78
:10B6B000637A84ED657AC4ED5A7AC4ED5C7AC4EDA0
:10B6C0005E7ADFED927AB7EE004A9FED917A74EEE2
:10B6D000A77ADFED9E3A25EE075A8E4BB0EE633A1D
:10B6E000DFED8D1A84EEA72A03F16C02DFED8B2AC1
:10B6F00016469FED8B0ADFED8B0A9FED8B1AFDEE50
:10B70000C57ADFED8A6A75EE233A17EE900AFDEEF0
:10B71000E37A203017EE901A2031402800F287801B
:10B72000B4EEE15AF1EE10FA40F3C782B0EE457A7A
:10B73000DFED7F5A9FED7F6AB4EEC67A77EE657AC9
:10B74000F1EE10FAB0EE677AF6DCF4EEE27AF1EEA2
:10B7500010FA40F1AF82DFED765A9FED776AF4EE92
:10B76000C67A37EEA57AF1EE10FAF0EE477AF6D403
:10B77000B4EEC37AF1EE10FA40F3A78031EEC77A47
:10B7800067EE077A9FED6D6AB0EE608A4029F0EEB1
:10B79000418A67EE275AA7EE808AE7EE888AB0EEE4
:10B7A000448AF0EE447AA5EEA87AA7EE068AE7EE80
:10B7B000467AC7EE888A40D9B6EE006AB0EE667A5D
:10B7C000F7EE005AC4EE087AC3ED048AC3ED066AA8
:10B7D000243343ED046A083243ED016A43ED026A03
:10B7E00042ED026A02ED012A27EE866A67EEA55A4B
:10B7F00027EE877A03ED096A03ED076A43ED085ADD
:10B8000003ED067AB34288D195F87330002B40F0EF
:10B810003C82DFED4B7A002374EEA77AC4F82C3219
:10B82000BDEC068B84EEA77A84ED8C7AF8BDF7EE3A
:10B83000008A4029B0EE688ABED8B4EEC35AF1EE51
:10B8400010FA40F3B882B0EE637ADFED395A9FED1B
:10B85000396AB4EEC67A77EE657AF1EE10FAB0EE98
:10B86000677AF6DCF4EEE27AF1EE10FA40F1AB82A0
:10B87000DFED2F5A9FED306AF4EEC67A37EEA57AE7
:10B88000F1EE10FAF0EE477AF6D4B4EEC37AF1EEA8
:10B8900010FA24DD31EEC77A67EE077AF0EE609A8F
:10B8A000B0EE41AA67EE275AE7EE809AB8EE009A0A
:10B8B000B6EE006AA7EEA9AAA5EE8A7A74EE475AF8
:10B8C00027EE097A25EE866A7CE7DFED1E7AB4EE74
:10B8D000E77AF1EE10FA48BF32EEC77A50E7DFEDB3
